:020000040000FA
:09000000020F60023FDB22222204
:0F000B00024035EF240A83900100730A2D5073D1
:06001B0002400800002273
:03002300022A02AC
:03002B000240FB95
:030033000241285F
:03003B000241552A
:030043000241B2C5
:10004B00022B5AE4FFFE12064E600C0FEF70010EEE
:10005B0009E970F20A80EF220241F0E4FF121EA6BA
:06006B00123976021EF6B8
:1000730002421D9009BF1208FD7810EC4D4E4F70DF
:10008300047CA57DA5C3EC13FCED13FDEE13FEEF7D
:1000930013FF5010EC64CCFCED644CFDEE644EFE9B
:1000A300EF64CEFFD8DF9009BF120919EE547FFE2B
:1000B300229009BFEEF0EFA3F0A374A5F0A3F02202
:1000C300300100000C0333020012300004002C3412
:1000D3000006000E1D0008000C1E000A000C0002A2
:1000E300060A0E05020404040401020A0B090304B0
:0700F30001020A0B090304DE
:10010000C0087401C0E0C082C08375080AC0F085D1
:10011000A8F0C2AF75B75575B61175B70085F0A8D0
:10012000D0F022C0087401C0E0C082C08375082DE1
:10013000C0F085A8F0C2AF75B75575B61175B70098
:1001400085F0A8D0F022C0087401C0E0C082C0834E
:10015000750850C0F085A8F0C2AF75B75575B622C6
:1001600075B70085F0A8D0F022C0087401C0E0C0C7
:1001700082C083750873C0F085A8F0C2AF75B7550B
:1001800075B63375B70085F0A8D0F02290800021B5
:10019000469082A021469083AC21469085E021467E
:1001A000909C8E21469099B0214690D3D3214690C1
:1001B000D1D12146909DBB21239080E9212390AA93
:1001C000F4212390804321239080002123908452A6
:1001D000212390A81D212390AB49212390961C2117
:1001E00023908B4D212390865E212390824F2123E3
:1001F0009097D2212390A0D6212300020543E864E2
:1002000080F8E933E83360110460F0ED33EC3370CB
:1002100009E8FCE9FDEAFEEBFF220460DED3EB9F78
:10022000EA9EE99DE8C2E78CF0C2F795F0400CE841
:10023000CCF8E9CDF9EACEFAEBCFFB12050E85D06A
:10024000F05804700320D5B3E80470075002B2D50B
:1002500002054D92D5EC0460F7E4CCC0E0C398F8F9
:10026000603B94186008400DD0E0FB020525E4FBDC
:10027000FAC9FC8028E830E406E4C9FBE4CAFCE8DB
:1002800030E305E4C9CACBFCE854076010F8C3E9C1
:1002900013F9EA13FAEB13FBEC13FCD8F130F52F4A
:1002A000C3E49CFCEF9BFFEE9AFEED99FDD0E0FBD2
:1002B000EF4E4D4C701222DB0302054AEC2CFCEF92
:1002C00033FFEE33FEED33FDED30E7EB020525EFB6
:1002D0002BFFEE3AFEED39FDD0E0FB50130BBB00D7
:1002E0000302054DED13FDEE13FEEF13FFEC13FCBF
:1002F000020525EC4D6011E8497017ED33EC33042D
:10030000600DE4FCFFFEFD22E933E8330470F802DF
:10031000054312050E58046009E4CC2481500628D8
:10032000500902054D28400302054AC0E0EB4A701F
:1003300044B98006D0E0FB020539EF4E701CBD8049
:1003400008EBFFEAFEE9FD80EBE98DF0A4FEE5F0A5
:100350000203DCE9CDF9EAFEEBFFEF89F0A4FCE54E
:10036000F0CE89F0A42EFFE435F0CD89F0A42DFE67
:10037000E435F08067EF4E7005BD80D780C3EF8B0A
:10038000F0A4ACF0EE8BF0A42CFCE435F0F8EF8A8E
:10039000F0A42CE5F038FCE433CB8DF0A42CFCE584
:1003A000F03BF8EE8AF0A42CFCE5F038F8E433CF0B
:1003B00089F0A42CFCE5F038CF3400CE89F0A42FCE
:1003C000FFE5F03EFEE433C98DF0A42EFEE5F039E2
:1003D000CD8AF0A42FFFE5F03EFEE43DFD33D0E0F2
:1003E000FB50070BBB000F02054DEC2CFCEF33FF5D
:1003F000EE33FEED33FD02052502054DEC5D046094
:1004000005E85904700302054312050E580460F60E
:10041000EC4860F2EC7004FDFEFF22C860DB248132
:10042000C85009C3986002500602054A9850CAF5A0
:1004300082E9294B4A7005AB8202053975F0007CD0
:100440001A7880C3EF9BEE9AED99400DC3EF9BFFA6
:10045000EE9AFEED99FDE842F0DC23ACF0D0E0FF2F
:10046000D0E0FED0E0FDAB8220E7101BEB60BAECE1
:100470002CFCEF33FFEE33FEED33FD020525E803E0
:10048000F830E705C0F075F000EF2FFFEE33FEED1A
:1004900033FD40B830E7C280AA75F020800E75F0B9
:1004A00010800575F0087D007E007F003392D53006
:1004B000D5031208B8EC334010EF33FFEE33FEEDF6
:1004C00033FDEC33FCD5F0ED22E5F0247EA2D5130C
:1004D000CC92E7CDCEFF22EDD2E7CD33EC3392D5EF
:1004E00024814006E4FFFEFDFC22FCE4CFCECDCC0F
:1004F00024E0501174FF80EDC3CC13CCCD13CDCECE
:1005000013CECF13CF0470F030D5DE0208B8E9D295
:10051000E7C933E833F892D5EDD2E7CD33EC33FCBD
:100520005002B2D522EC30E7100FBF000C0EBE0017
:10053000080DBD00040BEB6014A2D5EB13FCED928B
:10054000E7FD2274FFFCFDFEFF22E480F8A2D574D3
:10055000FF13FC7D80E480EFE709F608DFFA8046B0
:10056000E709F208DFFA803E88828C83E709F0A36E
:10057000DFFA8032E309F608DFFA8078E309F2084F
:10058000DFFA807088828C83E309F0A3DFFA80644D
:1005900089828A83E0A3F608DFFA805889828A83F9
:1005A000E0A3F208DFFA804C80D280FA80C680D4C3
:1005B000806980F28033801080A680EA809A80A8CB
:1005C00080DA80E280CA803389828A83ECFAE493FD
:1005D000A3C8C582C8CCC583CCF0A3C8C582C8CC8B
:1005E000C583CCDFE9DEE7800D89828A83E493A3AB
:1005F000F608DFF9ECFAA9F0EDFB2289828A83EC98
:10060000FAE0A3C8C582C8CCC583CCF0A3C8C58214
:10061000C8CCC583CCDFEADEE880DB89828A83E44C
:1006200093A3F208DFF980CC88F0EF60010E4E60F2
:10063000C388F0ED2402B4040050B9F582EB240223
:10064000B4040050AF23234582239005A873BB0157
:100650000689828A83E0225002E722BBFE02E3225F
:1006600089828A83E49322BB010CE58229F582E525
:10067000833AF583E0225006E92582F8E622BBFEA4
:1006800006E92582F8E222E58229F582E5833AF53A
:1006900083E49322BB010FF8E58229F582E5833AD2
:1006A000F583E028F0225009C58229F8E58226F674
:1006B00022BBFE09C58229F8E22582F222F8EA254A
:1006C00083F583E9932822BB010689828A83F0227D
:1006D0005002F722BBFE01F322F8BB010DE582298F
:1006E000F582E5833AF583E8F0225006E92582C8D1
:1006F000F622BBFE05E92582C8F222EF8DF0A4A800
:10070000F0CF8CF0A428CE8DF0A42EFE22BC000BDE
:10071000BE0029EF8DF084FFADF022E4CCF875F037
:1007200008EF2FFFEE33FEEC33FCEE9DEC98400516
:10073000FCEE9DFE0FD5F0E9E4CEFD22EDF8F5F0DC
:10074000EE8420D21CFEADF075F008EF2FFFED33E4
:10075000FD4007985006D5F0F222C398FD0FD5F062
:10076000EA22C5F0F8A3E028F0C5F0F8E58215828A
:1007700070021583E038F022A3F8E0C5F025F0F010
:10078000E582158270021583E0C838F0E822E88F10
:10079000F0A4CC8BF0A42CFCE98EF0A42CFC8AF005
:1007A000EDA42CFCEA8EF0A4CDA8F08BF0A42DCC07
:1007B0003825F0FDE98FF0A42CCD35F0FCEB8EF060
:1007C000A4FEA9F0EB8FF0A4CFC5F02ECD39FEE446
:1007D0003CFCEAA42DCE35F0FDE43CFC2275F0088B
:1007E000758200EF2FFFEE33FECD33CDCC33CCC579
:1007F0008233C5829BED9AEC99E58298400CF58294
:10080000EE9BFEED9AFDEC99FC0FD5F0D6E4CEFB05
:10081000E4CDFAE4CCF9A88222B800C1B90059BAF3
:10082000002DEC8BF084CFCECDFCE5F0CBF9781821
:10083000EF2FFFEE33FEED33FDEC33FCEB33FB101B
:10084000D703994004EB99FB0FD8E5E4F9FA227835
:1008500018EF2FFFEE33FEED33FDEC33FCC933C947
:1008600010D7059BE99A4007EC9BFCE99AF90FD851
:10087000E0E4C9FAE4CCFB2275F010EF2FFFEE3371
:10088000FEED33FDCC33CCC833C810D7079BEC9AB0
:10089000E899400AED9BFDEC9AFCE899F80FD5F039
:1008A000DAE4CDFBE4CCFAE4C8F922CFF4CFCEF4FD
:1008B000CECDF4CDCCF4CC22C3E49FFFE49EFEE485
:1008C0009DFDE49CFC22EB9FF5F0EA9E42F0E99D41
:1008D00042F0E89C45F022E8600FECC313FCED13F6
:1008E000FDEE13FEEF13FFD8F122E8600FEFC333E4
:1008F000FFEE33FEED33FDEC33FCD8F122E0FCA338
:10090000E0FDA3E0FEA3E0FF22E493FC740193FD6D
:10091000740293FE740393FF22ECF0A3EDF0A3EEB8
:10092000F0A3EFF022A8828583F0D083D082120951
:100930003C12093C12093C12093CE473E493A3C540
:1009400083C5F0C583C8C582C8F0A3C583C5F0C5FB
:1009500083C8C582C822D083D082F8E49370127411
:100960000193700DA3A393F8740193F5828883E437
:10097000737402936860EFA3A3A380DFD083D08257
:10098000E4937012740193700DA3A393F874019310
:10099000F5828883E4737402936C70127403936D10
:1009A000700C7404936E70067405936F60DDA3A3DE
:1009B000A3A3A3A380CAE3F5F009E208B5F06D6034
:1009C0006B80F3E3F5F009E608B5F060605E80F354
:1009D00087F009E608B5F054605280F487F009E228
:1009E00008B5F048604680F488828C8387F009E07F
:1009F000A3B5F038603680F488828C8387F009E4F0
:100A000093A3B5F027602580F388828C83E3F5F00B
:100A100009E0A3B5F016601480F388828C83E3F5B7
:100A2000F009E493A3B5F004600280F2020AE180C9
:100A30008580E7808E80D2803C8015806C807E80AF
:100A40009B80B5808B80A1804F8070803A020AED38
:100A500089828A83ECFAE493F5F0A3C8C582C8CCF6
:100A6000C583CCE493A3C8C582C8CCC583CCB5F0FC
:100A700070606E80E189828A83E493F5F0A3E208D6
:100A8000B5F05E605C80F289828A83E0F5F0A3E6CF
:100A900008B5F04D604B80F389828A83E0F5F0A3BE
:100AA000E208B5F03C603A80F389828A83E493F5EA
:100AB000F0A3E608B5F02A602880F2805389828A84
:100AC00083ECFAE493F5F0A3C8C582C8CCC583CC07
:100AD000E0A3C8C582C8CCC583CCB5F00460028051
:100AE000E27FFFB5F0020F2240027F012289828A55
:100AF00083ECFAE0F5F0A3C8C582C8CCC583CCE08E
:100B0000A3C8C582C8CCC583CCB5F0D560D380E37B
:100B100089828A83ECFAE0F5F0A3C8C582C8CCC507
:100B200083CCE493A3C8C582C8CCC583CCB5F0B14F
:100B300060AF80E288F0ED2402B4040050A3F58297
:100B4000EB2402B4040050992323458223900A2FFA
:100B50007354544D3A4144562D4F4E0D0A0054548F
:100B60004D3A5343414E2D4F4E0D0A0054544D3AC9
:100B7000434F4E4E454354494E470D0A0054544D81
:100B80003A434F4E4E45435445440D0A0054544D8C
:100B90003A424C455F49444C450D0A0054544D3A85
:100BA0004552500D0A0054544D3A4F4B0054544D89
:100BB0003A45525000535441540045414456004474
:100BC0004144560044434F4E004D41432D3F004D9C
:100BD00041432D00444E4D2D3F0052454E2D0054B3
:100BE000504C2D0054504C2D3F0054544D3A0D0A9A
:100BF00000FF0BB500000000100001FF0BBAFF0B57
:100C0000A600000002FF0BBFFF0BA600000003FFC1
:100C10000BC4FF0BA600000008FF0BC9000000007A
:100C20000C0809FF0BCFFF0BA60C00000AFF0BD42A
:100C3000000000000C080BFF0BDAFF0BA60C0000F5
:100C400010FF0BDFFF0BA605000011FF0BE40000F7
:100C50000000050800000000000000000000000087
:100C60000000000000000000000000000000000084
:100C70000000000000000000000000000000000074
:100C80000000000000000000000000000000000064
:100C90000000000000000000000000000000000054
:100CA0000000000000000000000000000000000044
:100CB0000000000000000000000000000000000034
:100CC0000000000000000000000000000000000024
:100CD0000000000000000000000000000000000014
:100CE0000000000000000000000000000000000004
:100CF00000000000000000000000000000000000F4
:100D000000000000000000000000000000000000E3
:100D100000000000000000000000000000000000D3
:100D200000000000000000000000000000000000C3
:100D300000000000000000000000000000000000B3
:100D400000000000000000000000000000000000A3
:100D50000000000000000000000000000000000093
:100D60000000000000000000000000000000000083
:100D70000000000000000000000000000000000073
:100D80006028095E303F3106325B334F3466356D83
:100D9000367D3707387F396F4177427C4339553E7E
:100DA0004930507346714F3F74787A494709570A62
:100DB0000F19326496C860E007C2000000000A0AFA
:100DC0000000000101000A0A00010002000A0E0EE4
:100DD00000000003010A0E0E0001000400180E0EB0
:100DE0000000000501180E0E000100060026161670
:100DF000000000070126161600010008003C0E0E38
:100E000000000009013C0E0E0001000A004A10100B
:100E10000000000B014A10100001000C005A0D01E7
:100E20000101000D00670D010101000E00740404B2
:100E30000101000F0078030300010010007B1B1B61
:100E400000010011009619190001001200AF0B0BF0
:100E50000001001300BA10100101001400CA0606B8
:100E60000001001500D005050101001600D5080895
:100E70000001001700DD08080001001800E51A1A3B
:100E80000001001901AC06060001001A01B23E3E45
:100E90000001001B01921A1A00014C09860B510B2C
:100EA0005E0B6C0B7D0B8D0B9C4209940BA64209CB
:100EB000920BAD0002054322EDA2E7D2E7F9EC3335
:100EC00040F260F3B4FF08ED547F70E802054DF87E
:100ED0002481C2E0C0E0F40428FAC313FCED92E7D9
:100EE000FD900400120919EEA2E7E9BA7F02C313CC
:100EF00034009400FA75F091A4E5F013F494FE8A9E
:100F0000F0A433E5F033248CD313FDE492E7FE7FA5
:100F1000007C3F758302ECC0E0F8EDC0E0F9EEC064
:100F2000E0FAEFC0E0FB8583F09004001208FD8535
:100F3000F0831203FCD0E0FBD0E0FAD0E0F9D0E07F
:100F4000F8120202ED6480FD30E7011CD583C7ED85
:100F500033CC33F8D0E0A2E71328C313CC13FD221F
:100F6000787FE4F6D8FD75812012010A020FAA02EB
:100F70001A8DE493A3F8E493A34003F68001F208EA
:100F8000DFF48029E493A3F85407240CC8C333C4C6
:100F9000540F4420C8834004F456800146F6DFE431
:100FA000800B0102040810204080900D80E47E0137
:100FB0009360BCA3FF543F30E509541FFEE493A3A4
:100FC00060010ECF54C025E060A840B8E493A3FAB6
:100FD000E493A3F8E493A3C8C582C8CAC583CAF042
:100FE000A3C8C582C8CAC583CADFE9DEE780BE07D9
:100FF00006050403020100070605040302010007B9
:10100000060504030201000706050407060504039C
:101010000201000706050403020100070605040398
:101020000201000302010080808080808080804077
:1010300040404040404040202020202020202010E0
:10104000101010020202020202020204040404044C
:101050000404040808080808080808101010100103
:10106000020102000000030100020102020100036C
:10107000000100030201000506030405060304063F
:101080000504050506040604060505060403030415
:101090008020018008201002040840022010104027
:1010A0000101022010084080100208020204012001
:1010B000088001108002014008044040100801012E
:1010C0000102020202020201020202020202010104
:1010D0008040201008100804020180018040201088
:1010E0000810080402018001804020100810080444
:1010F00002018001804020100810080402018003D2
:1011000000000000000000000000010001010101DA
:1011100001010101010102010202020202020202B6
:101120000202030203030303030303030303000197
:10113000021008081010808002024008400240405F
:1011400001010401202080200804040420108001F3
:101150000002020301030200010203000203010076
:10116000000201030300010201030002010003E089
:101170000040F0D070104020E0F020B0D08010305F
:10118000A0A06060C0C0B05090905000307080400F
:10119000F010C0E0808020D04060902010B070F04F
:1011A00050C0B0903070E030A0A000506000D00F70
:1011B00003010D08040E07060F0B020308040E09B5
:1011C0000C070002010D0A0C060009050B0A0500B8
:1011D0000D0E08070A0B010A03040F0D0401020596
:1011E0000B08060C07060C09000305020E0F09A0E8
:1011F000D000709000E09060303040F06050A0105F
:1012000020D080C05070E0B0C040B020F08010D03E
:101210001060A040D090008060F09030800070B0EE
:101220004010F020E0C03050B0A050E02070C00767
:101230000D0D080E0B03050006060F09000A030139
:101240000402070802050C0B010C0A040E0F090A20
:1012500003060F090000060C0A0B01070D0D080F0D
:1012600009010403050E0B050C02070802040E20F9
:10127000E0C0B0402010C07040A070B0D0601080BE
:1012800050500030F0F0A0D0300090E080906040EE
:10129000B0208010C0B070A010D0E0702080D0F0DE
:1012A0006090F0C000509060A030400050E0300CE2
:1012B0000A010F0A040F020907020C0609080500BB
:1012C000060D01030D040E0E00070B05030B0809A4
:1012D000040E030F02050C020908050C0F030A0790
:1012E0000B000E04010A0701060D000B08060D4055
:1012F000D0B00020B0E070F04000908010D0A0305E
:10130000E0C030905070C05020A0F060801060109D
:101310006040B0B0D0D080C010304070A0E070A06D
:1013200090F050600080F000E05020903020C00D20
:1013300001020F080D0408060A0F030B0701040A37
:101340000C090503060E0B0500000E0C0907020729
:10135000020B01040E010709040C0A0E08020D001D
:101360000F060C0A090D000F0303050506080BFF05
:10137000F0020027353001444C2F54003634352D0F
:10138000323030372D3134444453593636362020EC
:1013900020000000000102C2010000000400010062
:1013A0000100000102C2010000000400010002006F
:1013B000000102C6010000000400010090020101CA
:1013C0000364010000000400010090020001035EBC
:1013D000010000000400010090020001035E010012
:1013E0000000040001033006010102F901000000C1
:1013F000040001028000200102F50100020C04003B
:1014000001040004010101C90000100006000104EC
:101410000004020101CF00001006060001040004D0
:101420000E0101D50000100C06000103300100017F
:1014300003AF01000000040101033302010103B303
:10144000010000000401010400100101037C000000
:1014500011000400010400100201038000001104C7
:1014600004000104001004010384000011080400BA
:1014700001040010030103880000110C04000104A2
:1014800000100501038C0000111004000104090B79
:10149000010103900000111403000104800010FFFB
:1014A000136F010000000801000400040DFF137712
:1014B000010000001001000400040BFF138701006D
:1014C00000000A010004000C0100000000001200EE
:1014D00004010004000C02000000000012030401DB
:1014E0000004000C030000000000120604010004C8
:1014F0000003080101E400001900010000040003DA
:10150000020101E5000019010100000400030101CE
:1015100001E600001902010000040003050101E7D3
:1015200000001903010000040401010101EA0000A8
:101530001A000101000404020101020800001A1E41
:10154000010100040003060101DE00001015030084
:1015500001040003070101DB000010120300010277
:1015600001010001002E0100000002000102020141
:101570000001003D01000000030001020300000122
:101580000049010000000300010203010001004DB9
:10159000010000000300010206000001005A0100E2
:1015A00000000200010206010001005E01000000CF
:1015B0000200010280000201006A01000000020036
:1015C00001070000FF070001FF070101FF070102FB
:1015D000FF070103FF070301FF070002FF200E1EA4
:1015E0001E18300810040404040416110000000042
:1015F000111100B0990184D401FF8430020C80FAEB
:10160000000380FA00000084000084D6960004D60F
:10161000822404DC010C04DC030C8432010C04D6AB
:10162000820004D6830004D684000082000804D619
:101630008C0004D6000004D6880004D6940004D69A
:10164000970000C0000000B0880000B08C0000B01F
:10165000940000B0970004B2010C010203000011D5
:10166000892312329B462457AD653674BF8C489D42
:10167000C1AF5ABED3CA6CDBE5E97EF8F710810131
:10168000083393221A56A5472C75B7643E9CC98D22
:1016900040BFDBAE52DAEDCB64F9FFE876210230D1
:1016A0008B02101399672676AF443455BDAD4ABC02
:1016B000C38E589FD1EB6EFAE7C87CD9F5318320F1
:1016C0000A1291031877A7662E54B5453CBDCBACE2
:1016D000429ED98F50FBEFEA66D8FDC9744204538D
:1016E0008D6116709F042015A9273236BBCE4CDFC2
:1016F000C5ED5EFCD7886899E1AB7ABAF3528543B1
:101700000C7197601E14A1052837B3263ADECDCFA1
:1017100044FDDFEC5698E98960BBFBAA7263067250
:101720008F4014519D252234AB063017B9EF4EFE81
:10173000C7CC5CDDD5A96AB8E38A789BF173876270
:101740000E5095411C35A3242A16B10738FFCFEE61
:1017500046DCDDCD54B9EBA8629AF98B708408950C
:1017600081A71AB693C22CD3A5E13EF0B708401961
:10177000C92B523ADB4E645FED6D767CFF94898510
:1017800000B79BA612D2ADC324F1BFE03618C10941
:10179000483BD32A5A5EE54F6C7DF76C7EA50AB4B0
:1017A0008386189791E32EF2A7C03CD1B529423821
:1017B000CB0A501BD96F667EEF4C745DFDB58BA4D0
:1017C0000296998710F3AFE226D0BDC13439C32801
:1017D0004A1AD10B587FE76E6E5CF54D7CC60CD76C
:1017E00085E51EF497802891A1A33AB2B34A445BE1
:1017F000CD695678DF0C601DE92F723EFBD68DC790
:1018000004F59FE41690A98120B3BBA2325AC54BC0
:101810004C79D7685E1CE10D683FF32E7AE70EF62F
:1018200087C41CD595A12AB0A3823893B16B467AA0
:10183000CF485459DD2D623CEB0E701FF9F78FE64F
:1018400006D49DC514B1ABA02292B983307BC76A80
:101850004E58D5495C3DE32C6A1EF10F78252626AB
:1018600027161627181717181818171628281616C7
:10187000162827262627272726250303252525037F
:1018800008070708080807060505060606050505F2
:10189000040404050503030100010202030301001F
:1018A000010202030301000102020303010001021D
:1018B000020303010001020203030100010202000E
:1018C0000000000102C2040201000100000102C286
:1018D000040201000200000102C604020104000427
:1018E000010101C9030002040004010101CC03004D
:1018F00002040004020101CF0300020400040201FB
:1019000001D20300020400040E0101D50300020409
:1019100000040E0101D8030002028000200102F53C
:101920000404010090020001035E04020100900221
:10193000010103640402010400100101037C04029C
:10194000010400100201038004020104090B0101DB
:1019500003900304030201010001001D03020302BE
:1019600002010001003D03030302030000010049DE
:101970000304030203010001004D030403020600F7
:101980000001005A0203050206010001005E020385
:10199000050280000201006A020205040004090138
:1019A000006C030003FFFFFFFF0000000000003693
:1019B00000000000370000000038000000003A007E
:1019C0000000003B000000003C000000003D000063
:1019D00000003E000000003F00000000400000004A
:1019E0000041000000004200000000440000001B15
:1019F0004500000000460000000047000001804B49
:101A0000000001FF500000000051000000045200DF
:101A100000000053000000005400000000550000CA
:101A20000000560000000057000000005A0080002F
:101A3000005B007FF547600000055D61007FF546B3
:101A400062007FF5467C007FF5467D007FF54648C5
:101A50000000018234000000003500000000390061
:101A6000000000430000001B30000000353100A0E2
:101A700000C13200000C8433000000E80034093556
:101A80000D390C0F0A10091BD3000000001201B918
:101A9000BF01031201BE51DE900290E0F8A3E0F90D
:101AA000A3E0FAA3E0FBC31208C66003E4F5B1515A
:101AB000DE9002901209191201DC12018C1201D77A
:101AC0001201AF1201B412000680CBF583E0FCA333
:101AD000E0FDA3E0FEA3E0FF9003E61209199002E7
:101AE0008CE0FCA3E0FDA3E0FEA3E0FF9004331232
:101AF0000919900288E0FCA3E0FDA3E0FEA3E0FF4B
:101B0000900437120919E4FFFEFDFC900437E0F859
:101B1000A3E0F9A3E0FAA3E0FBC31208C670307497
:101B2000FFFFFEFDFC900433E0F8A3E0F9A3E0FA28
:101B3000A3E0FBC31208C66043E4FFFEFDFC900473
:101B400033E0F8A3A3A3E0C31208C67002802D906F
:101B50000433E0FCA3E0FDA3E0FEA3E02401FFE4E6
:101B60003EFEE43DFDE43CFCA3E0F8A3E0F9A3E085
:101B7000FAA3E0FBC31208C6600241DE900433E022
:101B8000FCA3E0FDA3E0FEA3E0FF227B017A037942
:101B9000567D047C00B1EF90035CEEF0A3EFF07B88
:101BA000017A037956E4FD7F17FE71CB7B017A0041
:101BB00079107D047C00B1EF900016EEF0A3EFF0F9
:101BC0007B017A007910E4FD7F16FE900665EDF04A
:101BD000A3EBF0A3EAF0A3E9F0900663EEF0A3EF25
:101BE000F09006697401F0E490066BF0A3F0C3EF87
:101BF000941CEE94004002A1BEE490066AF09006A8
:101C00006AE0FFC3941C4002A1BE75F008EFA42453
:101C1000C2F582E5F03407F583E0FEA3E0FF90060D
:101C200063E0FCA3E0FDEF6D7002EE6C6002A1B614
:101C3000EDAE047803C333CE33CED8F9FF24C8F514
:101C40008274073EF583E0600281DA900666E0FB6D
:101C5000A3E0FAA3E0F974C72FF58274073EF58379
:101C6000E024FEFDE434FFFCB1EF90066BEEF0A340
:101C7000EFF090066BE0FD900663E0FEA3E07803D2
:101C8000C333CE33CED8F924C7F58274073EF5832B
:101C9000E024FEFFE434FFFE900666E0FBA3E0FADA
:101CA000A3E0F98F828E83ED1206D990066BA3E034
:101CB000FD900663E0FEA3E07803C333CE33CED8B5
:101CC000F924C7F58274073EF583E07E0024FFF512
:101CD00082EE34FFF583ED1206D9900663E0FEA391
:101CE000E07803C333CE33CED8F924C4F582740729
:101CF0003EF583E0FEA3E0FF900665E0FD7C00EF8B
:101D00002DFFEC3EFEC006C007A3E0FBA3E0FAA354
:101D1000E0F9900663E0FEA3E07803C333CE33CE50
:101D2000D8F924C7F58274073EF583E09009B2F034
:101D3000D007D00612445BEF6002A1BE900669F0A6
:101D4000900663E0FEA3E07803C333CE33CED8F928
:101D5000FF24C9F58274073EF583E0706174CC2FCF
:101D6000F58274073EF583E0FEA3E0FF900665E090
:101D7000FD7C00EF2DFFEC3EFEC006C007A3E0FB9C
:101D8000A3E0FAA3E0F9900663E0FEA3E07803C3C2
:101D900033CE33CED8F924CFF58274073EF583E0F5
:101DA0009009B2F0D007D00612445BEF60109006A5
:101DB000697401F0800890066AE004F061FE900604
:101DC00069E0FF221222A89003F1E0FF7E00900359
:101DD000F3EEF0A3EFF0FD9003F0E0FFED9003F3DE
:101DE000CFF0A3EFF07B017A0379E47D0C7C0090C7
:101DF00006A9EBF0A3EAF0A3E9F0A3ECF0A3EDF061
:101E0000E4A3F0A3F09006AC74FFF5F01207784558
:101E1000F060429006A9E0FBA3E475F00112077898
:101E2000A9F0FA12064EFF9006AEE0FCA3E0FDED2D
:101E30006F25E0FFE433FE745D2FF58274163EF5E6
:101E400083ECFFE493FE7401936FFF9006AEEEF017
:101E5000A3EFF080B09006AEE0FEA3E0FF22E0FF2B
:101E6000A3E0900662CFF0A3EFF07D0690065EEB54
:101E7000F0A3EAF0A3E9F0A3EDF0122820EF70033D
:101E80007F012290065EE0FBA3E0FAA3E0F9A3E065
:101E9000FD7C00B1EF900662E06E7003A3E06F7FFF
:101EA0000060027F01229003E4EFF0E4A3F07B01E5
:101EB0007A02796590027DE0FFA3E0900662CFF0A0
:101EC000A3EFF07D18D16CEF70069003E4E0702072
:101ED0007B017A027965E4FD7F1BFE122022BF019F
:101EE000069003E57401F0F18B123A547F01F11D65
:101EF0009003E5E0FF227F01F11D7F147E00F1A930
:101F0000124262EF64036014EF60119002C1E0D3EB
:101F100094024008E4F0F18B7F01F11D229003FD53
:101F2000EFF078FE7C037D017BFF7A0D791C7E004B
:101F30007F141206289004157401F0900412F0A387
:101F40007403F0A374FEF09003FDE0FF7B017A03BD
:101F500079FE123AADEF702D900994E0FEA3E0AA4D
:101F600006F97BFFC003C002900412E0FBA3E0FA75
:101F7000A3E0F8AC02AD03D002D003120B34EF7033
:101F800004900415F0900415E0FF2290FFE5E04472
:101F900001F043E9017F967E00F1A990FFE5E0445E
:101FA00001F053E9FE7FF47E0190049FEEF0A3EF71
:101FB000F0A31209250000000090049FE0FEA3E0BA
:101FC000FF7C007D131206FBE4FDA3E0F8A3E0F91B
:101FD000A3E0FAA3E0FBC31208C6502412323290E9
:101FE00004A1E0FCA3E0FDA3E0FEA3E02401FFE4E4
:101FF0003EFEE43DFDE43CFC9004A112091980B9C9
:1020000022900431E075F00EA42499F582E5F034B5
:1020100013F583E493FE740193FF7B017A0379EF58
:10202000E4FD900660EDF0A3EBF0A3EAF0A3E9F085
:1020300090065EEEF0A3EFF09006647401F0E4A366
:10204000F0A3F09006A7F0A3F0C3EF941CEE940069
:1020500040024145E4900665F0900665E0FFC394B8
:102060001C4002414575F008EFA424C2F582E5F05A
:102070003407F583E0FEA3E0FF90065EE0FCA3E0FA
:10208000FDEF6D7002EE6C6002413D900666F090CF
:10209000065EE0FEA3E07803C333CE33CED8F92446
:1020A000C4F58274073EF583E0FEA3E0FF9006606E
:1020B000E0FD7C00EF2DFFEC3EFEC006C0077B017B
:1020C0007A06796790065EE0FEA3E07803C333CE1C
:1020D00033CED8F924C7F58274073EF583E0900922
:1020E000A7F0D007D00651A8EF6401707890065E83
:1020F000E0FEA3E07803C333CE33CED8F9FF24C982
:10210000F58274073EF583E0704D74CC2FF5827430
:10211000073EF583E0FEA3E0FF900660E0FD7C0053
:10212000EF2DFFEC3EFEC006C0077B017A06796703
:1021300090065EE0FEA3E07803C333CE33CED8F939
:1021400024CFF58274073EF583E09009A7F0D0070D
:10215000D00651A8BF010E900666E004F0E0C394DB
:10216000035002018F900666E0C3940340037F0191
:102170002290065EE0FEA3E07803C333CE33CED8D0
:10218000F9FF24C8F58274073EF583E0706D74C7CB
:102190002FF58274073EF583E0FF2466F582E43470
:1021A00006F583E0FD9006A7E4F0A3EDF074652F3B
:1021B000F582E43406F583E0FE9006A7E04EF0A336
:1021C000E0F07B017A06796790065EE0FEA3E07896
:1021D00003C333CE33CED8F924C7F58274073EF556
:1021E00083E024FEFDE434FFFC121DEF9006A7E01F
:1021F0006E7003A3E06F60037F0122900661E0F937
:10220000A3E0FAA3E09006ACC9F0A3EAF0A3E9F0DA
:1022100090065EE0FEA3E07803C333CE33CED8F958
:1022200024C7F58274073EF583E09006AFF07B018A
:102230007A0679675165E4900664F0800890066537
:10224000E004F00159900664E0FF2251659006AC6D
:102250007401F0A37402F0A374D9F0A37404F07BAA
:10226000017A03795E9006A9EBF0A3EAF0A3E9F006
:10227000E4FF9006AFE0FEEFC39E502B9006A9E06E
:10228000FBA3E0FAA3E0F98F82758300120667FED4
:102290009006ACE0FBA3E0FAA3E0F98F827583001F
:1022A000EE1206D90F80CB229009A2EEF0A3EFF038
:1022B0009009A4EBF0A3EAF0A3E9F09009A8E4F0F8
:1022C0009009A7E0FFEF70037F01229009A7E0FFCC
:1022D0007E009009A2E0FCA3E0FDEF2DFFEE3CFEA6
:1022E000D3EF94FFEE940140037F01229009A2E016
:1022F000FEA3E0FFEEFF7E00EF54FFFF9009A9EF81
:10230000F09009A9E0FFEF25E0FF9009A9EFF0D1D7
:10231000039009A9E0FFEF24A0FFB16AEF60057107
:10232000C07F01229009A2E0FEA3E0FFB16AEF6046
:102330000571C07F0122D1039009A9E0FFEF24A11C
:10234000FFB16AEF600571C07F01229009A4E0FB34
:10235000A3E0FAA3E0F99009AAEBF0A3EAF0A3E95D
:10236000F09009A9E4F09009A7E0FFEF14FF9009AD
:10237000A9E0FEEEC39F502412439C9009AAE0FB03
:10238000A3E0FAA3E0F99009A9E0FE8E827583002C
:10239000EF1206D99009A9E004F080CA1243109008
:1023A00009AAE0FBA3E0FAA3E0F99009A9E0FE8EF8
:1023B00082758300EF1206D971C09009A8E0FF2250
:1023C0009009D1E4F090FFE3E0FFEF54EFFF90FFBE
:1023D000E3EFF09009D17414F09009D1E0FFEFD34E
:1023E00094004015E5B020E41043B008D13353B059
:1023F000F79009D1E014F080E090FFE3E0FFEF44B4
:1024000010FF90FFE3EFF090FFE3E0FFEF4408FFE1
:1024100090FFE3EFF053B0EF53B0F7D13343B00880
:10242000D13343B01022900996EEF0A3EFF090095B
:1024300098EBF0A3EAF0A3E9F09009A1E4F0900989
:102440009BE0FFEF600B90099BE0FFEFD3942040EF
:10245000037F0122900996E0FEA3E0FFD3EF94FFF3
:10246000EE940140037F012290099BE0FF7E0090E3
:102470000996E0FCA3E0FDEF2DFFEE3CFED3EF94C8
:10248000FFEE94004013900996E0FEA3E0FFD3EF27
:1024900094FFEE94005002A164D10390099BE0FFE9
:1024A0007E00900996E0FCA3E0FDEF2DFFEE3CFEE0
:1024B000D3EF94FFEE940050069009A174A0F09021
:1024C0000996E0FEA3E0FFD3EF94FFEE94004006F0
:1024D0009009A174A2F09009A1E0FFB16AEF600534
:1024E00071C07F0122900996E0FEA3E0FFB16AEF80
:1024F000600571C07F0122900998E0FBA3E0FAA378
:10250000E0F990099EEBF0A3EAF0A3E9F090099CB2
:10251000E4F0A3E4F090099BE0FF7E0090099CE0CA
:10252000FCA3E0FDC3ED9FEC9E503390099EE0FBC1
:10253000A3E0FAA3E0F912064EFFB16AEF6005715D
:10254000C07F012290099FE475F001120762900993
:102550009DE004F0700690099CE004F080B771C023
:10256000D14480037F01227F00229009C3EFF090C5
:1025700009C4E4F09009C5E4F090FFE3E0FFEF4404
:1025800008FF90FFE3EFF053B0F790FFE3E0FFEFB9
:102590004410FF90FFE3EFF09009C5E4F09009C507
:1025A000E0FFEFC3940850309009C3E0FFEF30E73D
:1025B0000543B010800353B0EF43B0089009C3E067
:1025C000FFEF25E0FF9009C3EFF012430953B0F786
:1025D0009009C5E004F080C512000890FFE3E0FF19
:1025E000EF54EFFF90FFE3EFF043B008120008E56F
:1025F000B030E4069009C47401F053B0F79009C4F8
:10260000E0FF2212443690FFE3E0FFEF4410FF901A
:10261000FFE3EFF043B01090FFE3E0FFEF4408FF6B
:1026200090FFE3EFF043B008D13353B0EFD1335311
:10263000B0F7229009CF7401F09009CFE0FF14F0B9
:10264000EF70F6229009C974FFF09009C8E4F09089
:1026500009C9E0FF9009C8E0FEEEC39F5013D10303
:102660007FA0B16AEF700261C09009C8E004F080F9
:10267000DE2290045D7401F0A37407F0A374AAF045
:10268000900458E0900460F0900454E0FBA3E0FA5A
:10269000A3E0F990045AEBF0A3EAF0A3E9F0900666
:1026A000AC7401F0A37404F0A3746BF0A37408F08D
:1026B00090045DE0FBA3E0FAA3E0F9516590045AB1
:1026C000E0FBA3E0FAA3E0F91249407B017A047928
:1026D0006B1249B8E4900461F0E4900462F0900455
:1026E00061E0FF9010BF93FE900462E0C39E501C17
:1026F000900460E0FDB40103EF60117B017A04797E
:102700006B124CF1900462E004F080D29006AC743D
:1027100001F0A37404F0A37463F0A37408F07B01C8
:102720007A04796B516590048974FFF0A37410F0FA
:10273000A3745FF0A374FFF0A37410F0A3748FF080
:10274000A37406F07B017A0479631249D69004766B
:102750007401F0A37404F0A37463F090045AE0FBD6
:10276000A3E0FAA3E0F9124AA9E4F5B1900461E00C
:1027700004F0E0C394105002C1D990045AE0FBA3C6
:10278000E0FAA3E0F9900473EBF0A3EAF0A3E9F018
:10279000E4F5B190047704F012064E90047FF090B7
:1027A000000412066790047EF09000011206679004
:1027B000047DF090000512066790047CF090000202
:1027C00012066790047BF090000612066790047A68
:1027D000F0900003120667900479F090000712064B
:1027E00067900478F0E4900476F07B017A047978BD
:1027F000124913900473E0FBA3E0FAA3E0F9A3E00D
:10280000F582758300EF1206D9900477E025E0F099
:10281000900476E004F0E0C3940840CEE4F5B122E1
:10282000900664EBF0A3EAF0A3E9F0E4FFEFC39DA8
:10283000501B900664E0FBA3E0FAA3E0F98F8275D9
:10284000830012066760037F01220F80E07F002271
:10285000F09003E9E0FBA3E0FAA3E0F99000031293
:102860000667FFEFD3946340037F0022EF75F00A01
:1028700084C454F0FEEF75F00A84E5F02EFF22AC1C
:1028800007AF0511ACAD07AF0411ACEF2DFF120679
:102890004E2FFFE41206C7EFC3946440097401127F
:1028A00006C7749C2FFF80BB120667FFEFC4540F4E
:1028B00075F00AA4FEEF540F2EFF22900663EBF092
:1028C000A3EAF0A3E9F0E490066AF0A3F0900669A9
:1028D000E0FF90066BE0FEC39F5079EEFDC3EF9DD5
:1028E000FDE49400FCED24FFFFEC34FFFE90066352
:1028F000E0FBA3E0FAA3E0F98F828E83120667FF64
:10290000ED24FFFDEC34FFFC900666E0FBA3E0FA4B
:10291000A3E0F98D828C83120667FD7B017A06792C
:102920006A117F90066BE0FD900669E0C39DFDE4AF
:102930009400CD24FFCD34FFFC900663E0FBA3E0C0
:10294000FAA3E0F98D828C83EF1206D990066BE032
:1029500004F001CD2290028CE0FCA3E0FDA3E0FE98
:10296000A3E0FF9003CF120919900288E0FCA3E0D6
:10297000FDA3E0FEA3E0FF9003D3120919E4FFFEDC
:10298000FDFC9003D3E0F8A3E0F9A3E0FAA3E0FB99
:10299000C31208C6703074FFFFFEFDFC9003CFE049
:1029A000F8A3E0F9A3E0FAA3E0FBC31208C6604372
:1029B000E4FFFEFDFC9003CFE0F8A3A3A3E0C31265
:1029C00008C67002802D9003CFE0FCA3E0FDA3E0D9
:1029D000FEA3E02401FFE43EFEE43DFDE43CFCA355
:1029E000E0F8A3E0F9A3E0FAA3E0FBC31208C66095
:1029F0000221559003CFE0FCA3E0FDA3E0FEA3E09D
:102A0000FF22C0E0C0F0C083C082C0D075D000C03B
:102A100000C001C002C003C004C005C006C00790CA
:102A200003CCE5A7F075A70075B7559003CBE5B6C5
:102A3000F075B70030993DC299900073E004F090B2
:102A40000072E0FFA3E0C39F5024315590007E1236
:102A50000919900073E02486F582E43400F583E0E0
:102A6000FF30D004D29B8002C29B8F9980069000D9
:102A70006F7408F030980BC298AF99AD07E4FF125D
:102A8000019675B7559003CBE0F5B675B700A3E096
:102A9000F5A7D007D006D005D004D003D002D001CE
:102AA000D000D0D0D082D083D0F0D0E03290028C51
:102AB000E0FCA3E0FDA3E0FEA3E0FF9003DB12092E
:102AC00019900288E0FCA3E0FDA3E0FEA3E0FF90E4
:102AD00003DF120919E4FFFEFDFC9003DFE0F8A319
:102AE000E0F9A3E0FAA3E0FBC31208C6703074FF5C
:102AF000FFFEFDFC9003DBE0F8A3E0F9A3E0FAA3FE
:102B0000E0FBC31208C66043E4FFFEFDFC9003DB5C
:102B1000E0F8A3A3A3E0C31208C67002802D9003BF
:102B2000DBE0FCA3E0FDA3E0FEA3E02401FFE43E24
:102B3000FEE43DFDE43CFCA3E0F8A3E0F9A3E0FAE9
:102B4000A3E0FBC31208C6600241AD9003DBE0FCCA
:102B5000A3E0FDA3E0FEA3E0FF22C0E0C0F0C0833D
:102B6000C082C0D075D000C000C001C002C003C088
:102B700004C005C006C0079003D8E5A7F075A700FC
:102B800075B7559003D7E5B6F075B70030D93DC29B
:102B9000D9900120E004F090011FE0FFA3E0C39F63
:102BA000502451AD90012B120919900120E02433DB
:102BB000F582E43401F583E0FF30D004D2DB8002FB
:102BC000C2DB8FD9800690011C7408F030D80BC28C
:102BD000D8AFD9AD077F0112019B75B7559003D7C8
:102BE000E0F5B675B700A3E0F5A7D007D006D0058D
:102BF000D004D003D002D001D000D0D0D082D08376
:102C0000D0F0D0E032E0FCA3E0FDA3E0FEA3E0FFC3
:102C10009003EA1209199003EAE0FCA3E0FDA3E0A7
:102C2000FEA3E0FFA3E0F8A3E0F9A3E0FAA3E0FB32
:102C3000C31208C69003EEE0503DF8C000C001C0CA
:102C400002C0039003EAE0F8A3E0F9A3E0FAA3E0EE
:102C5000FBC374FF9BFF74FF9AFE74FF99FD74FF22
:102C600098FCD003D002D001D000EB2FFFEA3EFE4B
:102C7000E93DFDE83C8024FCA3E0FDA3E0FEA3E0E9
:102C8000FF9003EAE0F8A3E0F9A3E0FAA3E0FBC3B6
:102C9000EF9BFFEE9AFEED99FDEC98FCA31209194B
:102CA0009003F2E0FCA3E0FDA3E0FEA3E0FF9003AD
:102CB000EEE0F8A3E0F9A3E0FAA3E0FBC31208C634
:102CC0007F0140027F002290030BE054FDF07B0166
:102CD0007A0879E37D041201A57B017A0879E790EF
:102CE0000667E4F0A37404F0E4FD900663EBF0A340
:102CF000EAF0A3E9F0A3EDF0E4FFFED3900668E06C
:102D00009F900667E09E401F900666E0FD90066378
:102D1000E0FBA3E0FAA3E0F98F828E83ED1206D9DF
:102D20000FBF00010E80D422900446EBF0A3EAF01E
:102D3000A3E9F0A3EDF0D3946440037F0122900453
:102D4000507401F0A37407F0A37428F09006AC74DB
:102D500001F0A37407F0A374BAF0A37408F0900410
:102D60004AE0FBA3E0FAA3E0F91222657B017A07AF
:102D700079AAE4FD7F13FE122022BF01037F012206
:102D8000900450E0F9A3E0FAA3E09006ACC9F0A3E8
:102D9000EAF0A3E9F0900449E09006AFF090044611
:102DA000E0FBA3E0FAA3E0F9122265900450E0FBF7
:102DB000A3E0FAA3E0F9900449E0FFF582758300EF
:102DC00074801206D97E00E92FF9EE3AFAE924015F
:102DD000F9E43AFA900667E4F0A37407F0E4FD9191
:102DE000EA900449E0131313541F0490044FF0E4D5
:102DF000FD74BA2DF582E43407F583C083C082E008
:102E0000FF900450E0FBA3E0FAA3E0F98D82758304
:102E100000120667FEEF6ED082D083F00DEDB4088D
:102E2000D0E490044EF090044FE014FF90044EE084
:102E3000C39F506F90045D7401F0A37407F0A374F6
:102E4000AAF0A37402F07B017A0779BA122693E400
:102E5000FD74BA2DF582E43407F583C083C082E0A7
:102E6000FC90044EE02401FFE433FEEF7803C3330B
:102E7000CE33CED8F9FFED7A002FFFEA3EFE900464
:102E800050E0FBA3E0FAA3E0F98F828E831206677D
:102E90006CD082D083F00DEDB408B690044EE004FF
:102EA000F080837B017A0779BA9004577402F0E4CA
:102EB000FFF10190044DE06401703B900446E0FB9B
:102EC000A3E0FAA3E0F9A3E0FF7E00E92FF9EE3AD0
:102ED000FA900661EBF0A3EAF0A3E9F0A37404F022
:102EE000A37455F07B017A0779BA123298BF0203B6
:102EF0007F00227F01227F00229004577401F07F1F
:102F000006900454EBF0A3EAF0A3E9F0EF64066046
:102F1000147B017A0779AAE4FD7F13FE122022BFF9
:102F200001037F0122900457E0B40209A37402F068
:102F3000A314F080099004587401F0A304F0122641
:102F40007290045D7401F0A37407F0A374B2F09062
:102F500004591226831226727F00229003EAE0753C
:102F6000F0ADA4248AF9740035F0FA7B01E075F025
:102F7000ADA42493F582E5F03400F583E0240AFD46
:102F80009003EDEBF0A3EAF0A3E9F0E4FFFEEEC35B
:102F90009D50189003EDE0FBA3E0FAA3E0F98E82C8
:102FA0007583001206672FFF0E80E32235F0FA903A
:102FB00006617401F0A3EAF0A3E9F0A37406F07BC4
:102FC000017A0179C990065EEBF0A3EAF0A3E9F07B
:102FD000E4900665F0900664E0FFA3E0FEC39F5016
:102FE00047EEFD90065EE0FBA3E0FAA3E07E002F33
:102FF000F9EE3AFAE924FFF9EA34FFFAC3E99DF958
:10300000EA9400FA12064EFF900661E0FBA3E0FA94
:10301000A3E0F9900665E0F582758300EF1206D90A
:10302000900665E004F080AD22900436EBF0A3EA50
:10303000F0A3E9F0E4FFEFC39D5028900436E0FBD5
:10304000A3E0FAA3E0F98F82758300120667FE54AD
:103050000FD394095007EE54F0949040037F01225F
:103060000F80D37F00229003EDE075F0ADA424A083
:10307000F9740035F0FA7B0190042FE07E0029F905
:10308000EE3AFA7D04900441EBF0A3EAF0A3E9F0F4
:10309000A3EDF0E4A3F0900444E0FFC313FEA3E02B
:1030A000C39E5078900441E0FBA3E0FAA3E0F990BE
:1030B0000445E0FEF582758300120667900446F031
:1030C000EF24FFFDE434FFFCEEFFC3ED9FFFEC9423
:1030D000008F82F583120667FF900445E0F5827544
:1030E0008300EF1206D9900446E0FF900444E024E8
:1030F000FFFDE434FFFCA3E0FBC3ED9BFDEC94007B
:10310000FC900441E0FBA3E0FAA3E0F98D828C83FC
:10311000EF1206D9900445E004F00196229003EDE9
:10312000E075F0ADA42498F9740035F0FA7B0190B5
:103130000436EBF0A3EAF0A3E9F012064EFF248573
:10314000F582E43402F583E0C39403401074852FC4
:10315000F582E43402F5837403F07F01227B017A67
:1031600004793AE4FD7F12FE122022BF01037F01A1
:1031700022900436E0FBA3E0FAA3E0F912064EFF2A
:103180007006900439F0801BEFB401089004397484
:1031900003F0800FEFB402089004397406F0800346
:1031A0007F0122E4FFEF2401FDE433FC900436E0CC
:1031B000FBA3E0FAA3E0F98D828C83120667FE90F0
:1031C0000439E02F243AF582E43404F583E06E609C
:1031D0003812064EFE2485F582E43402F583E004BD
:1031E000F074852EF582E43402F583E0C394034045
:1031F0001512064E25E024ABF582E43402F5837403
:1032000005F0A374A0F07F01220FEFB403979004A0
:1032100036E0FBA3E0FAA3E0F912064E2485F5821E
:10322000E43402F583E4F0FF227F01AE071FEE7065
:10323000FA2212000712000780EFAD07AC06E4FB8C
:10324000FAC3EB9DEA9C500951320BBB00010A8086
:10325000F02224FEFFE434FFFE90043EE0FD7C00FB
:103260001206FB900438E0FBA3E0FAA3E02FF9EA92
:103270003EFA900661EBF0A3EAF0A3E9F090043E79
:10328000E0900664F0900441E0900665F090043B05
:10329000E0FBA3E0FAA3E0F990065EEBF0A3EAF00E
:1032A000A3E9F0E4900666F0900664E0FF900666FD
:1032B000E0FEC39F400261B9900665E06455703935
:1032C000900661E0FBA3E0FAA3E0F98E827583002B
:1032D000120667FD90065EE0FBA3E0FAA3E0F98E1C
:1032E00082758300120667FED39D40037F0022EEA5
:1032F000C39D400261B17F0122900664E024FFFF7C
:10330000E434FFFE900666E0FDC3EF9DFFEE9400FF
:10331000FE900661E0FBA3E0FAA3E0F98F828E83C2
:10332000120667FF900664E024FFFDE434FFFC9082
:103330000666E0FBC3ED9BFDEC9400FC90065EE0AE
:10334000FBA3E0FAA3E0F98D828C83120667D39F7A
:1033500040037F0022900664E024FFFFE434FFFE78
:10336000900666E0FDC3EF9DFFEE9400FE900661BF
:10337000E0FBA3E0FAA3E0F98F828E83120667FFD9
:10338000900664E024FFFDE434FFFC900666E0FB59
:10339000C3ED9BFDEC9400FC90065EE0FBA3E0FA1D
:1033A000A3E0F98D828C83120667C39F50037F01CF
:1033B00022900666E004F041A87F0222900438EBD8
:1033C000F0A3EAF0A3E9F090043FE0FED3940150AB
:1033D000037F0122EE24FFFFE434FFFE90043EE071
:1033E000FD7C001206FB900438E0FBA3E0FAA3E0AA
:1033F0002FF9EA3EFAC002C001A3E0F9A3E0FAA364
:10340000E09006ACC9F0A3EAF0A3E9F090043EE036
:103410009006AFF0D001D00212226590043FE090F8
:103420000442F0900442E0FFD39401406D900440C8
:10343000E064557008EF5152EF6057800B900442E2
:10344000E05152EF6401604A900442E024FEFFE440
:1034500034FFFE90043EE0FD7C001206FB90043831
:10346000E0FBA3E0FAA3E02FF9EA3EFAC002C001B4
:10347000A3E0F9A3E0FAA3E09006ACC9F0A3EAF058
:10348000A3E9F090043EE09006AFF0D001D0021224
:103490002265900442E014F080897F002212064EDB
:1034A000FF9003FFE4F0A3EFF0E0F8E4F0E890030E
:1034B000FFF0900001120667FF9003FFE0FEA3E01B
:1034C0004FFF9003FFEEF0FEA3EFF02291DA90049D
:1034D0005C1209197B017A03795E90064DEBF0A32B
:1034E000EAF0A3E9F0A312092500000000E4900629
:1034F00054F0900650E0FCA3E0FDA3E0FEA3E0FF43
:1035000078081208EA900650120919900650E0F85F
:10351000A3E0F9A3E0FAA3E0FBC000C001C002C031
:103520000390064DE0FBA3E0FAA3E0F9900654E017
:10353000F582758300120667FFD003D002D001D058
:1035400000EB4FFFEAFEE9FDE8FC90065012091976
:10355000900654E004F0E0B40498900650E0FCA318
:10356000E0FDA3E0FEA3E0FF22900459EBF0A3EA04
:10357000F0A3E9F0E4900461F090045FE014FF90A0
:10358000045FE0FEEFC39E4002C15C90045CE0FB80
:10359000A3E0FAA3E0F98F82758300120667FE901C
:1035A0000461E02EFDE4900460F0EDC39E500374CE
:1035B00001F0E4900461F0900459E0FBA3E0FAA369
:1035C000E0F98F82758300120667FE540FFCED54FC
:1035D0000FFBECC39B5034EEC39D900459E0FB50AD
:1035E0000E8F82758300120667FEC3749A8037A31C
:1035F000E0FAA3E0F98F82758300120667C39D2469
:10360000FA8F827583001206D98044900459E0FB3A
:10361000A3E0FAA3E0F98F82758300120667FEC368
:103620009D5015C374A09D2E8F827583001206D9FC
:103630009004617401F08017900459E0FBA3E0FA54
:10364000A3E02FF9E43AFA12064EC39D1206C79082
:103650000460E06004A37401F01FA17F2290043E87
:10366000EBF0A3EAF0A3E9F0AB05A37401F0A31219
:103670000925000000019004461209250000000001
:10368000E490044AF0EBD394005002E1B5EB9405CA
:103690004002E1B5EBF090044AE0D394005002E11F
:1036A000B5900446E0F8A3E0F9A3E0FAA3E0FBC07C
:1036B00000C001C002C00390043EE0FBA3E0FAA3F7
:1036C000E0F990044AE0FF7E00E92FF9EE3AFA9023
:1036D000FFFF120667540F75F00A84AFF0E4FCFD9B
:1036E000900442E0F8A3E0F9A3E0FAA3E0FB12079C
:1036F0008ED003D002D001D000EB2FFFEA3EFEE9CE
:103700003DFDE83CFC900446120919900442E0FC9F
:10371000A3E0FDA3E0FEA3E0FFE47B0AFAF9F812C0
:10372000078E900442120919900446E0F8A3E0F9CC
:10373000A3E0FAA3E0FBC000C001C002C0039004F4
:103740003EE0FBA3E0FAA3E0F990044AE0FF7E002C
:10375000E92FF9EE3AFA90FFFF12066754F0C454CD
:103760000FFFE4FCFD900442E0F8A3E0F9A3E0FAC7
:10377000A3E0FB12078ED003D002D001D000EB2FC4
:10378000FFEA3EFEE93DFDE83CFC900446120919C3
:10379000900442E0FCA3E0FDA3E0FEA3E0FFE47B95
:1037A0000AFAF9F812078E90044212091990044A95
:1037B000E014F0C196900446E0FCA3E0FDA3E0FE17
:1037C000A3E0FF2290045DEBF0A3EAF0A3E9F09000
:1037D0000462120919900460E0A3F0900461E0D340
:1037E000940050030238B6E47B0AFAF9F8A3E0FC2F
:1037F000A3E0FDA3E0FEA3E0FF120819AF039004CD
:103800005DE0FBA3E0FAA3E0F9900461E0FD7C0039
:10381000E92DF9EC3AFA90FFFFEF1206D990046215
:10382000E0FCA3E0FDA3E0FEA3E0FFE47B0AFAF9DD
:10383000F812081990046212091990045DE0FBA3C4
:10384000E0FAA3E0F9900461E0FF7E00E92FF9EED1
:103850003AFAE924FFF9EA34FFFAC003C002C001D2
:1038600012064EFFC007E47B0AFAF9F8900462E002
:10387000FCA3E0FDA3E0FEA3E0FF120819AF03EFF5
:10388000C454F0FED0E04ED001D002D0031206C7DF
:10389000900462E0FCA3E0FDA3E0FEA3E0FFE47B74
:1038A0000AFAF9F8120819900462120919900461D1
:1038B000E014F00237DB22F0A37406F07B017A02F9
:1038C0007965900421EBF0A3EAF0A3E9F0E4900419
:1038D00028F0900427E0FFA3E0FEC39F400221757B
:1038E000900421E0FBA3E0FAA3E0F98E8275830047
:1038F000120667FDC4540F900429F0ED540FA3F095
:10390000E4FF74292FF582E43404F583E0FEC394C8
:103910000A501074292FF582E43404F583E0243032
:10392000F08014EEC39410500E74292FF582E43405
:1039300004F583E02437F00FEFB402C6900428E0CA
:1039400075F002A4FF900424E0FBA3E0FAA3E02FAB
:10395000F9EA35F0FA9006ACEBF0A3EAF0A3E9F04F
:10396000A37402F07B017A0479291222659004285D
:10397000E004F001D222780D7C047D017BFF7A0DFA
:10398000793A7E007F141206289004247401F0A373
:103990007404F0A3740D11B77B017A04790D514AB8
:1039A0007B017A02796B900425740CF07F0B9004F4
:1039B00021EFF0A3EBF0A3EAF0A3E9F078267C0472
:1039C0007D017BFF7A0C79A47E007F32120628905D
:1039D00004587401F0A37404F0A37426F0A37401D6
:1039E000F0900425E0FF601F9006AC7401F0A37412
:1039F00004F0A37426F0A3EFF0900422E0FBA3E010
:103A0000FAA3E0F9122265900421E0FF7B017A0419
:103A1000792651ADEF702D900994E0FEA3E0AA063F
:103A2000F97BFFC003C002900458E0FBA3E0FAA3B7
:103A3000E0F8AC02AD03D002D003120B34EF7004F7
:103A400090045BF090045BE0FF22900425740CF07E
:103A50007F0921AE9006AC7401F0A37402F0A37448
:103A600065F0A37406F07B017A0179C91222659092
:103A7000026574C0F09004247401F0A37402F0A3F2
:103A8000746B11B79002777412F0A37434F0A374BE
:103A900056F0A37401F0A3E4F0A37430F031767B08
:103AA000017A027965E4FD7F1BFE021BCB90045C6A
:103AB000EFF0A3EBF0A3EAF0A3E9F0A37401F0A305
:103AC000F0E4A3F0A3F0A3F0A3F078677C047D01F9
:103AD0007BFF7A0D794EFE7F32120628900499748E
:103AE00001F0A37404F0A37467F0900303E030E1E5
:103AF00002C12ED161BF01037F0622E4900466F06B
:103B0000900466E0FFC394125022EF75F00AA424DB
:103B1000F0F582E4340BF583E493FF90045CE0FE5F
:103B2000EF6E6008900466E004F080D4900466E0D4
:103B3000C394124002C12EE4900463F0900303E0AA
:103B400030E102C12EE4900464F09006AC04F0A3CE
:103B50007404F0A37467F0A37404F07BFF7A0B790C
:103B6000EA122265900466E075F00AA424F1F58259
:103B7000E4340BF583E493FB740193FA740293F934
:103B800012004E900465EFF0A3E075F00AA424F152
:103B9000F582E4340BF583E493FB740193FA740229
:103BA00093F99006AC7401F0A37404F0A3746BF065
:103BB000A3EFF0122265900466E075F00AA424F7E2
:103BC000F582E4340BF583E493FF6028900465E00C
:103BD000246BF9E43404FA9006AC7401F0A3EAF023
:103BE000A3E9F0A3EFF090045DE0FBA3E0FAA3E00B
:103BF000F9122265900466E075F00AA424F7F582B4
:103C0000E4340BF583E493FF900465E02F246BF913
:103C1000E43404FA9006AC7401F0A3EAF0A3E9F0EE
:103C2000A37402F07BFF7A0B79EE12226590046692
:103C3000E075F00AA424F7F582E4340BF583E493ED
:103C4000FF900465E02F2406900464F07F011201C8
:103C5000C853A9FB7F02D134E4900462F09004645D
:103C6000E0FF900462E0FEC39F505C74672EF58213
:103C7000E43404F583E0FF30D004D2DB8002C2DB01
:103C80008FD9E490049CF0A3F030D904C2D98020ED
:103C900012000790049DE004F0700690049CE0047C
:103CA000F0C390049DE094D090049CE0940740D928
:103CB000C390049DE094D090049CE0940750089039
:103CC0000462E004F0809643D81053A9FB9004648A
:103CD0007432F07B017A047967E0FF900667E4F0C4
:103CE000A3EFF0E4FD122CEAE4900462F090046487
:103CF000E0FF900462E0C39F5054E490049CF0A362
:103D0000F090049CE0FEA3E0FFC39440EE941F50AB
:103D10002C30D819C2D8900462E02467F582E434CC
:103D200004F583E5D9F0E4900461F0801090049DDF
:103D3000E004F0700690049CE004F080C4C3EF94AB
:103D400040EE941F5008900462E004F0809F9004BD
:103D500061E0700A900460F09004637403F09004D2
:103D600099E0FBA3E0FAA3E0F912004E900464EF9F
:103D7000F0900460E06002C11C900466E075F00AF7
:103D8000A424F8F582E4340BF583E493605BE490BB
:103D90000462F0900466E0FF75F00AA424F8F5824E
:103DA000E4340BF583E493FE900462E0FDC39E507F
:103DB0006BEF75F00AA424F9F582E4340BF583E483
:103DC000932D2467F582E43404F583E0FF90045DCD
:103DD000E0FBA3E0FAA3E0F98D82758300EF120601
:103DE000D9900462E004F080AAE4900462F09004A8
:103DF00062E0FF2467F582E43404F583E0FE90047A
:103E00005DE0FBA3E0FAA3E0F98F82758300EE1278
:103E100006D9900462E004F0E0B406D27F04D13405
:103E2000900463E004F0E0C394035002613C90040A
:103E300060E0FF2290049EEFF030E202801890FFD5
:103E4000E5E04402F053E9FD7F037E00121FA990D4
:103E5000049EE030E00A90FFE5E04402F043E9020E
:103E60002290011CE07F01B401027F002290040631
:103E7000EFF0A3EBF0A3EAF0A3E9F0780B7C047D6C
:103E8000017BFF7A0C79D67E007F321206289004DF
:103E90003D7401F0900406E0FF7B017A04790B5138
:103EA000ADEF702B900407E0F9A3E0FAA3E09006D1
:103EB000ACC9F0A3EAF0A3E9F090040AE09006AFE1
:103EC000F07B017A04790B122265E490043DF090B6
:103ED000043DE0FF2290040A740CF07F08808E906D
:103EE000040A740CF07F0A80849003FDEBF0A3EACF
:103EF000F0A3E9F078017C047D017BFF7A0D793530
:103F00007E007F051206287B017A04790190040A5D
:103F10007405F07F11D16D900400EFF070327F01D5
:103F200074012FF582E43404F583E0FE64296020F7
:103F3000EF24FFFDE434FFFC9003FDE0FBA3E0FA77
:103F4000A3E0F98D828C83EE1206D90FEFB405D071
:103F5000900400E0FF229003FDEBF0A3EAF0A3E958
:103F6000F0E4A3F078017C047D017BFF7A0D7930C9
:103F7000FE7F051206289003FDE0FBA3E0FAA3E014
:103F8000F912004E900400EFF0D39403504AA3744A
:103F900028F09006AC7401F0A37404F0A37402F04E
:103FA000900400E09006AFF09003FDE0FBA3E0FA80
:103FB000A3E0F9122265900400E0FF2402F582E4F8
:103FC0003404F5837429F07B017A047901EF24022B
:103FD000900425F07F1021AE7F0122C0D075D00063
:103FE000C006C007AFA775A70075B755AEB675B7C1
:103FF0000075AA0075E80075B7558EB675B7008FC5
:10400000A7D007D006D0D032C0D075D000C006C02F
:1040100007AFA775A70075B755AEB675B70053A81B
:10402000F753883F75B7558EB675B7008FA7D00781
:10403000D006D0D032C0E0C0F0C083C082C0D075FE
:10404000D000C000C001C002C003C004C005C0064B
:10405000C0079003CAE5A7F075A70075B755900390
:10406000C9E5B6F075B7005388DF758AC0758CE076
:10407000E5C730E607900303E04402F0900288E0D1
:10408000FCA3E0FDA3E0FEA3E0FFA312091974FF67
:10409000FFFEFDFC900288E0F8A3E0F9A3E0FAA39C
:1040A000E0FBC31208C6900288501EE0FCA3E0FDAE
:1040B000A3E0FEA3E02401FFE43EFEE43DFDE43C7A
:1040C000FC900288120919800712092500000000DF
:1040D00075B7559003C9E0F5B675B700A3E0F5A72D
:1040E000D007D006D005D004D003D002D001D00034
:1040F000D0D0D082D083D0F0D0E032C0D075D00004
:10410000C006C007AFA775A70075B755AEB675B79F
:104110000053A8DF53C83375B7558EB675B7008FF7
:10412000A7D007D006D0D032C0D075D000C006C00E
:1041300007AFA775A70075B755AEB675B70053A8FA
:10414000BF53C11F75B7558EB675B7008FA7D0077F
:10415000D006D0D032C0E0C083C082C0D075D000BD
:10416000C005C006C007AFA775A70075B755AEB6A6
:1041700075B700AD97759700ED30E31D90000AE02C
:1041800090000930E205E004F0800EE0FD900008A8
:10419000E02DF0E004F0A3E4F075B7558EB675B7E6
:1041A000008FA7D007D006D005D0D0D082D083D042
:1041B000E032C0E0C083C082C0D075D000C006C06D
:1041C00007AFA775A70075B755AEB675B70090FFD6
:1041D000B6E4F090FFB7F053A9FD75B7558EB6F56C
:1041E000B78FA7D007D006D0D0D082D083D0E0320E
:1041F000C0D075D000C006C007AFA775A70075B7BF
:1042000055AEB675B70053A9DF75C60075B7558EA4
:10421000B675B7008FA7D007D006D0D032C0E0C0A7
:1042200083C082C0D075D000C004C006C007ACA750
:1042300075A70075B755AEB675B70090FFD0E054BE
:10424000FCF053A9FD75B755AF068FB675B700AF33
:10425000048FA7D007D006D004D0D0D082D083D08E
:10426000E03278E47C037D017BFF7A0D79087E00E3
:104270007F14120628E49003FBF0A374FFF07B0187
:104280007A0379E4E4FF123AAD9003FCEFF0BF014A
:10429000037FFF229003FCE0B406037F0322900318
:1042A000F87401F0A37403F0A374E4F0E4A3F090B5
:1042B00003FBE0FFC39406503DEF25E02486F58222
:1042C000E43409F583E0FEA3E0AA06F97BFFC0030E
:1042D000C0029003F8E0FBA3E0FAA3E0F8AC02AD63
:1042E00003D002D003120B34EF7003008008900358
:1042F000FBE004F080B99003FBE0FFC39406500399
:10430000A3EFF09003FCE0FF229009D07401F022AB
:104310009009CCE4F09009CDE4F090FFE3E0FFEFEA
:104320004408FF90FFE3EFF090FFE3E0FFEF54EF6E
:10433000FF90FFE3EFF053B0F79009CDE4F0900960
:10434000CDE0FFEFC39408503371099009CCE0FF32
:10435000EF25E0FF9009CCEFF043B008E5B030E482
:104360000E9009CCE0FFEF4401FF9009CCEFF07113
:104370000953B0F79009CDE004F080C290FFE3E06C
:10438000FFEF4410FF90FFE3EFF043B01043B0089D
:1043900012263353B0F79009CCE0FF229009CAE40B
:1043A000F09009CB7408F090FFE3E0FFEF4408FFC2
:1043B00090FFE3EFF090FFE3E0FFEF54EFFF90FF9B
:1043C000E3EFF053B0F79009CBE4F09009CBE0FFB6
:1043D000EFC39408503D71099009CAE0FFEF25E052
:1043E000FF9009CAEFF043B008E5B030E40E900941
:1043F000CAE0FFEF4401FF9009CAEFF0710990098C
:10440000CAE0FF9009CAEFF053B0F79009CBE0047F
:10441000F080B890FFE3E0FFEF4410FF90FFE3EF80
:10442000F053B0EF43B00812263353B0F743B01047
:104430009009CAE0FF2290FF84E0FFEF54FFFF9055
:10444000FF84EFF090FF85E0FFEF54FEFF90FF85C3
:10445000EFF00000229009B2740EF09009ADEEF07A
:10446000A3EFF09009AFEBF0A3EAF0A3E9F0900915
:10447000ADE0FEA3E0FF9009B3EEF0A3EFF09009EA
:10448000ADE0FEA3E0FFEF5407FFC374089FFF9069
:1044900009B5EFF09009B6E4F09009B5E0FF900996
:1044A000B2E0FEEEC39F500A9009B2E0FF9009B55A
:1044B000EFF09009B3E0FEA3E0FF9009AFE0FBA3AB
:1044C000E0FAA3E0F99009B6E0FD7C00E92DF9EAF5
:1044D0003CFA9009B5E0FD90099BEDF0122426EF1F
:1044E000B401037F01229009B5E0FF9009B6E02FE7
:1044F000F09009B6E0FF7E009009ADE0FCA3E0FD7E
:10450000EF2DFFEE3CFE9009B3EEF0A3EFF0900923
:10451000B6E0FF9009B2E0FEC3EE9FFF9009B5EF51
:10452000F09009B5E0FFEFD3940840069009B57408
:1045300008F09009B5E0FFEF600281B27F002290A1
:1045400009B7EEF0A3EFF09009B9EDF09009BAEBDE
:10455000F0C2AF9009B9E0FF8FEF9009B7E0FEA37A
:10456000E0FFEF54FFF5EE9009B7E0FEA3E0FFEEA9
:10457000FF7E008FF775A70175F26E75F30575F470
:104580000A75F5099009BAE0FFEFB4680775F606F9
:104590000000000075A70075F700D2AF2290065EFC
:1045A000EEF0A3EFF0A3EBF0A3EAF0A3E9F075E7D8
:1045B0005575C7840000E5C730E6037FFF229003EE
:1045C00011E0646860037FFF22900663E0FEA3E0D1
:1045D000FF90065FE02FFF90065EE03EFED3EF9473
:1045E00000EE941040037FFF22D3900664E0940015
:1045F000900663E094004045900660E0FBA3E0FA7B
:10460000A3E0F912064EFC90065EE0FEA3E0FFADCB
:10461000047B68B13F90065FE004F0700690065E90
:10462000E004F0900661E475F00112076290066400
:10463000E024FFF0900663E034FFF080AC7F0022BE
:104640008F828E83E4FFEDB4680DC2AF75A701E4DD
:1046500093FFE4F5A7D2AF22900311E04420F07B52
:10466000017A04795E90045AE0FCA3E0FD900663B1
:104670007402F0A3E4F0900661ECF0A3EDF075E7AE
:104680005575C7840000E5C730E6037FFF2290061A
:1046900063E0FEA3E0FF900662E02FFF900661E07A
:1046A0003EFED3EF9400EE941040037FFF22D390A0
:1046B0000664E09400900663E09400403590066143
:1046C000E0FEA3E0FF7D68D140EF1206C774012928
:1046D000F9E43AFA900662E004F07006900661E0B0
:1046E00004F0900664E024FFF0900663E034FFF0ED
:1046F00080BC7F0022E0FEA3E0FF7B68E4FD900920
:10470000BBEEF0A3EFF09009BDEDF09009BEEBF029
:1047100075E75575C7840000E5C720E6559003117D
:10472000E0FFEF6468704BC2AF9009BDE0FF8FEF10
:104730009009BBE0FEA3E0FFEF54FFF5EE9009BB4C
:10474000E0FEA3E0FFEEFF7E008FF775A70175F294
:10475000E675F30575F40A75F5099009BEE0FFEFFB
:10476000B4680775F6060000000075A70075F7002D
:10477000D2AF2290FFE3E054FBF090FFF3E044045B
:10478000F02212001E90030DE04401F022F173901C
:10479000030EE030E216E5B030E20302482DE044BB
:1047A00001F0E054FBF0E4900234F02290030EE0BC
:1047B00030E061E5B020E26A900234E004F0E0FF0E
:1047C0007408D39F506790030EE04402F0E054FE5B
:1047D000F0E4900234F090030CE04408F0900230D2
:1047E0001209250000003C900228741EF09002354A
:1047F000E0700B90023CF09002357468F022900259
:104800003CE004F09001E7E0FF90023CE0C39F40F1
:104810001CE4F02290030EE030E107E5B030E20D39
:104820008000E4900234F090030E7404F022EF1440
:10483000601E04702111987FFF115743D18090FFB3
:10484000E0E04480F0438080E04402F043800222B4
:104850001198E4FF115722E4FE743D2EF582E434F2
:1048600002F583EFF00EEEB428EF7F007E25E4FD25
:10487000743D2DF582E43402F583E0FCEF2DF582E2
:10488000E43EF583ECF0743D2DF582E43402F583CB
:10489000E4F00DEDB428D92253D17F11B690FF80FA
:1048A00074F0F090FF8174FCF090FF8374E0F0905E
:1048B000FF8574FCF022E5D154706430600653D15A
:1048C0008F43D130E5D154076407600653D1F843D4
:1048D000D107E5D254076402600653D2F843D202EE
:1048E000225380F7000043800422438008000053D5
:1048F00080FB225380F7005380FB22900283E0600C
:104900000FE014F0E0FF7E00BE0207BF400480000D
:1049100011F322900477E0FD900480EDF0E4FF7E37
:1049200008EF25E0FFEE7C0024FFF582EC34FFF574
:1049300083120667FD900480E05D60010FDEE222D5
:10494000900473EBF0A3EAF0A3E9F09004777440CD
:10495000F0E4900476F0900476E0FFC394085036BB
:10496000EFB40404A37480F0900473E0FBA3E0FAB6
:10497000A3E0F93113900476E02478F582E434045E
:10498000F583EFF0900477E0FF1313543FF09004A9
:1049900076E004F080C0900473E0F9A3E0FAA3E0AD
:1049A0009006ACC9F0A3EAF0A3E9F0A37408F07B89
:1049B000017A04797802226590048974FFF0A37467
:1049C0000FF0A374EFF0A374FFF0A37410F0A374BE
:1049D00027F0A37407F0900486EBF0A3EAF0A3E9B4
:1049E000F0E4F52090049004F090048FE075F00856
:1049F000A42401FFE435F0FEA3E0FDC39FEE648034
:104A0000F8748098507DE52025E0F520EDFF7E00CC
:104A100024FFFDEE34FFFC900489E0FBA3E0FAA341
:104A2000E0F98D828C83120667FD900486E0FBA37B
:104A3000E0FAA3E0F98D82758300120667FDEF248A
:104A4000FFFFEE34FFFE90048CE0FBA3E0FAA3E04E
:104A5000F98F828E831206675D60020520900490B4
:104A6000E0FF54077015EF131313541F2490F582C1
:104A7000E43404F583E520F0E4F520900490E004AC
:104A8000F021E9900486E0F9A3E0FAA3E09006ACF7
:104A9000C9F0A3EAF0A3E9F090048FE09006AFF02C
:104AA0007B017A047991022265900473EBF0A3EA0A
:104AB000F0A3E9F02404F9E43AFA9006AC7401F0AA
:104AC000A37404F0A3747AF0A37404F01222659026
:104AD000048974FFF0A37410F0A374FFF0A374FFB3
:104AE000F0A37410F0A374CFF0A37406F07B017AE6
:104AF00004797A31D6E4900479F0900479E0FF24C7
:104B00007AF582E43404F583C083C082E0FE900429
:104B100076E0FBA3E0FAA3E0F98F8275830012062A
:104B200067FFEE6FD082D083F0900479E004F0E06C
:104B3000B406C7E4900479F0900479E0FFC39402CE
:104B400040028160E0FE75F003A4247AF582E4342B
:104B500004F583E0FDC45430FCEE75F003A4247B1F
:104B6000F582E43404F583E0C4540F4CF520ED13D2
:104B700013543FFE900479E0FD75F000A4246FF516
:104B800082E5F03411F583ED2583F583E5822EF57A
:104B900082E43583F583E493FE75F000EDA424AF41
:104BA000F582E5F03411F583ED2583F583E5822563
:104BB00020F582E43583F583E493FDEE4DFE900409
:104BC00079E0FD25E02482F582E43404F583EEF0FB
:104BD000ED75F003A4247BF582E43404F583E0252D
:104BE000E025E0543FFEED75F003A4247CF582E45B
:104BF0003404F583E0FDC4131354034EF520ED5443
:104C00003FFE900479E0FD75F000A4242FF582E5C5
:104C1000F03412F583ED2583F583E5822EF582E4E9
:104C20003583F583E493FE75F000EDA424EFF5825F
:104C3000E5F03411F583ED2583F583E5822520F534
:104C400082E43583F583E4934EFEEF25E02483F57B
:104C500082E43404F583EEF0900479E004F06138E6
:104C600090048974FFF0A37411F0A3744FF0A3743F
:104C7000FFF0A37411F0A3742FF0A37404F07B0170
:104C80007A04798231D6E4900479F0900479E0FFD7
:104C9000C39404505B7E00EF2404FDEE33FC9004CB
:104CA00073E0FBA3E0FAA3E0F98D828C8312066720
:104CB000F520900479E0FDF582758300120667FC0B
:104CC00074822DF582E43404F583E06CFD74042FC6
:104CD000F582E433F583ED1206D9900479E0F5828C
:104CE000758300E5201206D9900479E004F0809BDA
:104CF00022900473EBF0A3EAF0A3E9F0A3EDF01225
:104D0000064E900477F0900001120667900478F048
:104D1000900002120667900479F090000312066773
:104D200054F090047AF0BD0233900477E0FCA3E0E5
:104D3000FDA3E0FEA3E0FF78011208EA90047712D9
:104D40000919900473E0FBA3E0FAA3E0F912064E00
:104D500030E74490047AE04410F0803B900477E020
:104D6000FCA3E0FDA3E0FEA3E0FF78011208D790CA
:104D7000047712091990047AE054F0F0900473E07B
:104D8000FBA3E0FAA3E0F990000312066730E40702
:104D9000900477E04480F0900473E0FBA3E0FAA372
:104DA000E0F9900003120667540F90047BF0900026
:104DB0000412066790047CF09000051206679004C8
:104DC0007DF090000612066790047EF0900476E075
:104DD0006402703D90047BE0FCA3E0FDA3E0FEA331
:104DE000E0FF78011208EA90047B12091990047B15
:104DF000E0540FF0900473E0FBA3E0FAA3E0F99015
:104E0000000312066730E33D90047EE04401F08029
:104E10003490047BE0FCA3E0FDA3E0FEA3E0FF7878
:104E2000011208D790047B120919900473E0FBA3C8
:104E3000E0FAA3E0F990000612066730E00790045C
:104E40007BE04408F090047AE0FFA3E0FEEF4E9090
:104E5000047AF090047CE090047BF090047DE09074
:104E6000047CF090047EE090047DF0900473E0F9FF
:104E7000A3E0FAA3E09006ACC9F0A3EAF0A3E9F03E
:0D4E8000A37407F07B017A047977022265A4
:10800000EF14602104703BE5876003E4F587539823
:10801000F74398C0E4FF119590049EE599F05398BA
:10802000EC43A81022E5876003E4F58753D8F343B7
:10803000D8C07F01119590049EE5D9F053D8EC4348
:10804000A90422EF14703DE5876003E4F58753D857
:10805000F343D8C090FFE3E054FEF090FFF3E05408
:10806000FEF090FFE3E04402F043B0027F0111957F
:108070007F011201919003EAE5D9F053D8FC43D86F
:108080001043A90422E4FF11437F0111437F021131
:10809000437F0380AEEF14602C04704CE59D64CCEC
:1080A0006003759DCCE59C647F6003759C7FE59EB5
:1080B000540F64016006539EF0439E01E59C20E747
:1080C00027439C8022E5DD64F3600375DDF3E5DC86
:1080D000647F600375DC7FE59E54F06003539E0F60
:1080E000E5DC20E70343DC8022E4F5B1F5A8F5A93F
:1080F00012AAFA12AE4712AE93310D1297AE12A722
:10810000DE12B0791185F1BAD2AF7F00227B017AFD
:10811000037903900667E4F0A3740FF0E4FD122CDA
:10812000EA7B017A027988900667E4F0A3743AF05A
:10813000E4FD122CEA7B017A0179E4900667E4F011
:10814000A37481F0E4FD122CEA7B017A03796C9030
:108150000667E4F0A37410F0E4FD122CEA7B017AC8
:10816000007908900667E4F0A37408F0E4FD122C8F
:10817000EA7B017A007900900667E4F0A37408F0C6
:10818000E4FD122CEA7B017A0279C2900667E4F0E2
:10819000A3740AF0E4FD122CEA7B017A0279CC90F8
:1081A0000667E4F0A37429F0E4FD122CEA7B017A5F
:1081B00002797F900667E4F0A37409F0E4FD122CC5
:1081C000EA9003107401F012970912B856128FEA60
:1081D00012B17612B07A12B30512A02BE49008A265
:1081E000F0900309E054FBF0E4900237F0900303B1
:1081F000E04401F090030CE04403F09001E4E0FF60
:108200007E007C037DE81206FB7C017DF412070DE5
:10821000E4FCFD90023012091990030E7404F090F2
:1082200001E4E0900228F0900229F07B017A0379C2
:1082300006E4FD7F0FFE122022EF6005E4900306A6
:10824000F0900306E030E607900309E04420F0E4F4
:1082500090045AF0A3F07B017A047941FD7F11FE6E
:10826000122022900306E030E56D7B017A047951FB
:108270001234CC900460120919900460E0FCA3E071
:10828000FDA3E0FEA3E0FFEC4D4E4F603790045C91
:10829000E0F8A3E0F9A3E0FAA3E0FBC31208C640AC
:1082A0000F90045A7401F0900306E030E429802115
:1082B000E490045AF0A3F0900306E054DFF0E05499
:1082C000EFF0801390045A7401F0900306E030E45C
:1082D0000690045B7401F07B017A0479411234CC7E
:1082E000900460120919900460E0FCA3E0FDA3E093
:1082F000FEA3E0FF90045CE0F8A3E0F9A3E0FAA39A
:10830000E0FBC31208C65002810F90030AE044014B
:10831000F07B017A0479451234DA90045C12091971
:10832000900460E0FCA3E0FDA3E0FEA3E0FF900466
:108330005CE0F8A3E0F9A3E0FAA3E0FBC31208C6EF
:108340005002810690030AE020E104E04402F0E4D8
:10835000FFFEFDFC900460E0F8A3E0F9A3E0FAA3BF
:10836000E0FBC31208C6600261F090030AE020E25D
:1083700004E04404F07B017A0379641234DA900457
:108380005C120919E4FFFEFDFC90045CE0F8A3E038
:10839000F9A3E0FAA3E0FBC31208C6600D90030A3C
:1083A000E020E30DE04408F0800790030AE054F772
:1083B000F07B017A04794D1234DA900460120919C5
:1083C000900460E0FCA3E0FDA3E0FEA3E0FF9004C6
:1083D0005CE0F8A3E0F9A3E0FAA3E0FBC31208C64F
:1083E000900306E040054420F0803254DFF0802DF9
:1083F00090030AE054F7F0900306E054DFF0900396
:108400000AE054FB800F90030AE054E1F0800E90E4
:10841000030AE054E0F0900306E054EFF090045AB1
:10842000E0B40107900306E04420F090045BE0B460
:108430000107900306E04410F0900306E030E504E5
:10844000E04410F07B017A037906E4FD7F0FFE0221
:108450001BCB78FD7C037D017BFF7A0079EC7E00ED
:108460007F0712062812A81D7B017A0179C9E4FD55
:108470007F10FE122022EF604D7B017A0179C990B6
:108480000667E4F0A3741BF0E4FD122CEA9001CE21
:108490007401F09001D4F09001DAF09001DDF090D9
:1084A00001E0F0A374FFF07B017A0179C9E4FD7F5C
:1084B00010FE121BCB123A547B017A0179C9E4FDFC
:1084C0007F10FE121BCB7B017A03796C900667E468
:1084D000F0A37410F0E4FD122CEA90036C7403F026
:1084E000A37410F07B017A03796CE4FD7F0AFE121D
:1084F0001BCB9001E47405F0A3F0A37407F0A3F084
:108500007B017A0179E4E4FD7F19FE121BCB7B012C
:108510007A0179EA900667E4F0A3743EF0E4FD1274
:108520002CEA9006AC7401F0A37401F0A374EAF095
:10853000A37407F07B017A0379FD1222659006ACE3
:108540007401F0A37402F0A37408F0A37407F07B25
:10855000017A0379FD1222657B017A0179EAE4FD53
:108560007F1AFE121BCB7B017A0279F5900667E435
:10857000F0A3740EF0E4FD122CEA9002F77450F0B0
:108580007B017A0279F5E4FD7F04FE121BCB7B01AF
:108590007A03797C900667E4F0A37419F0E4FD1285
:1085A0002CEA90037E7420F09003827410F07B011B
:1085B0007A03797CE4FD7F11FE121BCB7B017A04E8
:1085C0007904900667E4F0A37409F0E4FD122CEA44
:1085D0007B017A047904E4FD7F12FE121BCB7B0140
:1085E0007A027985900667E4F0A37403F0E4FD1243
:1085F0002CEA1201A07B017A0279AB900667E4F0C5
:10860000A37408F0E4FD122CEAE4900306F07B0169
:108610007A037906FD7F0FFE121BCBE490030AF06C
:10862000900309F07B017A0279CC900667F0A3747D
:1086300029F0E4FD122CEA7B017A0279E5E4FD7F62
:1086400013FE121BCB9002CCE4F0A37405F07B0167
:108650007A0279CCE4FD7F15FE121BCB514F9003BB
:108660000BE030E009900304E020E002E1B9900261
:1086700083E06002E1B990030AE020E52AE030E1FE
:1086800007900306E030E21F90030AE030E2079013
:108690000306E030E311900306E020E50AE020E461
:1086A00006E020E102E15B90030AE030E518129752
:1086B000B390030AE054DFF0900309E04420F0A3F4
:1086C000E04480F0E19890030AE030E70B90030962
:1086D000E030E502E198E169900306E020E049908E
:1086E0000309E030E50CE020E502E198E020E60235
:1086F000E1981248EA9002837458F0900306E02053
:10870000E1147B017A09792F900667E4F0A37404E1
:10871000F07DFF122CEA7F041297D2900309E04407
:1087200020F0E054BFF08070900309E030E569125A
:1087300048E19002837458F07F051297D2900306A7
:10874000E054FDF0900309E054DFF07B017A0379F7
:1087500006E4FD7F0FFE121BCB803D90030AE03044
:10876000E713900309E020E52F1297B3900309E087
:108770004420F08023900309E030E51C900306E0DC
:1087800054FDF0900309E054DFF01248E1900283B9
:108790007458F07F051297D2900309E090030630D9
:1087A000E505E044408003E054BFF07B017A0379A3
:1087B00006E4FD7F0FFE121BCB22E49003ECF07F5A
:1087C000AA12ADA6759560E4F596F59753A9FE43F8
:1087D000B480900413120925000000E87F3312884A
:1087E000CC7F057E00121FA99004131209250000FA
:1087F0000C847F321288CCE49003ECF09003ECE020
:10880000FE75F005A424AFF582E43419F583E493F2
:10881000FFC007EE75F005A424B0F582E43419F525
:1088200083120909900413120919D00711CC90037F
:10883000ECE004F0E0C3942040C27B017A09794166
:10884000E4FD7F06FE122022E49003ECF09003EC9E
:10885000E0FE75F005A4244FF582E4341AF583E4B4
:1088600093FFC007EE25E025E02441F582E43409BA
:10887000F583E0FCA3E0FDA3E0FEA3E0FF9004137A
:10888000120919D00711CC9003ECE004F0E0C39476
:108890000540BA7F647E00121FA9900413120925B7
:1088A000000000357F3011CC7F5512ADA690041327
:1088B00012092500A000C17F3111CC7FF47E011286
:1088C0001FA9E4F59775960843A90122900412EFB9
:1088D000F0A3E0FCA3E0FDA3E0FEA3E0FFA31209E8
:1088E00019E4F5917F06FE12323AC2AF900418E007
:1088F000F592A3E0F593A3E0F594000000000000DA
:108900000000000000000000000000000000000067
:108910000000900412E04480F5917F067E00123240
:108920003AD2AF22900410EFF0C00790040CE0FCA4
:10893000A3E0FDA3E0FEA3E0FF900413120919D009
:108940000711CC900410E0B4361890040CE0FCA39E
:10895000E0FDA3E0FEA3E0FF9004131209197F36A7
:1089600011CCE4900411F0900411E0FFC394055081
:1089700052EF75F005A4244FF582E4341AF583E430
:1089800093FF900410E0FEEFB5063090040CE0FC7D
:10899000A3E0FDA3E0FEA3E0FF900411E025E025A5
:1089A000E02441F582E43409F5831209197B017A48
:1089B000097941E4FD7F06FE021BCB900411E0041F
:1089C000F080A4229003FFEFF075F0ADA424A3F58E
:1089D00082E5F03400F583E0FFE4FCFDFE78181238
:1089E00008EA900401120919900401E0F8A3E0F9E3
:1089F000A3E0FAA3E0FBC0009003FFE075F0ADA494
:108A000024A2F582E5F03400F583E0FFE4FCFDFEEE
:108A100078101208EAD000EB4FFFEA4EFEE94DFD58
:108A2000E84CFC900401120919900401E0F8A3E05D
:108A3000F9A3E0FAA3E0FBC0009003FFE075F0ADFE
:108A4000A424A1F582E5F03400F583E0FFE4FCFD09
:108A5000FE78081208EAD000EB4FFFEA4EFEE94D1F
:108A6000FDE84CFC900401120919900401E0F8A300
:108A7000E0F9A3E0FAA3E0FB9003FFE075F0ADA4FA
:108A800024A0F582E5F03400F583E0FFEB4FFFEA28
:108A9000FEE9FDE8FC900401120919900400740538
:108AA000F0E4F0900400E0FD75F005A4244FF58299
:108AB000E4341AF583E493FF7E00C006C007ED7529
:108AC000F005A42450F582E4341AF58312090990C4
:108AD000040C120919D007D0063124900400E004D8
:108AE000F0E0C3940540BCE4900400F0900400E082
:108AF000FBC39403502FEB25E02487F582E4341A5E
:108B0000F583E493FE740193FFE4FCFDEB25E0257F
:108B1000E02433F582E43409F58312091990040046
:108B2000E004F080C77B017A097933E4FD7F08FE19
:108B3000121BCB900401E0FCA3E0FDA3E0FEA3E048
:108B4000FF90040C1209197F487E0021249003EF46
:108B5000EFF0E49003FEF09003EFE075F0ADA42495
:108B600094F582E5F03400F583E0FFE4FCFDFE902F
:108B700003FA1209199003FAE0F8A3E0F9A3E0FA66
:108B8000A3E0FBC0009003EFE075F0ADA42495F5E1
:108B900082E5F03400F583E0FFE4FCFDFE78081286
:108BA00008EAD000EB4FFFEA4EFEE94DFDE84CFC31
:108BB0009003FA1209199003FAE0F8A3E0F9A3E090
:108BC000FAA3E0FBC0009003EFE075F0ADA424969B
:108BD000F582E5F03400F583E0FFE4FCFDFE78105B
:108BE0001208EAD000EB4FFFEA4EFEE94DFDE84CDB
:108BF000FC9003FA1209199003FAE0F8A3E0F9A334
:108C0000E0FAA3E0FBC0009003EFE075F0ADA42410
:108C100097F582E5F03400F583E0FFE4FCFDFE7893
:108C2000181208EAD000EB4FFFEA4EFEE94DFDE8CE
:108C30004CFC9003FA1209199003EFE0FD75F0ADBA
:108C4000A42495F582E5F03400F583E0FF9003F06D
