:020000040000FA
:10000000020B7D023D0B2222000022023D65EF24FF
:0A0010000A83900100730A2D50735B
:03001B00023D386B
:0300230002318C1B
:03002B00023E2B67
:03003300023E5832
:03003B00023E85FD
:03004300023EE298
:10004B000232E401020A0B09030401020A0B090341
:10005B00043EFA7B01022A24023F20E4FF122938D6
:06006B0012273A0227B83B
:10007300023F4D900CD61208FD7810EC4D4E4F7098
:10008300047CA57DA5C3EC13FCED13FDEE13FEEF7D
:1000930013FF5010EC64CCFCED644CFDEE644EFE9B
:1000A300EF64CEFFD8DF900CD6120919EE547FFE11
:1000B30022900CD6EEF0EFA3F0A374A5F0A3F022E8
:1000C300300100000C0333020012300004002C3412
:1000D3000006000E1D0008000C1E000A000C0002A2
:1000E300060A0E050204040404900CE67401F09061
:0A00F3000CE6E0FF14F0EF70F622B7
:10010000C0087401C0E0C082C08375080AC0F085D1
:10011000A8F0C2AF75B75575B61175B70085F0A8D0
:10012000D0F022C0087401C0E0C082C08375082DE1
:10013000C0F085A8F0C2AF75B75575B61175B70098
:1001400085F0A8D0F022C0087401C0E0C082C0834E
:10015000750850C0F085A8F0C2AF75B75575B622C6
:1001600075B70085F0A8D0F022C0087401C0E0C0C7
:1001700082C083750873C0F085A8F0C2AF75B7550B
:1001800075B63375B70085F0A8D0F02290800021B5
:10019000469082CA214690840D21469086A421462D
:1001A0009093CA2146909375214690F4D0214690B1
:1001B000F2EE214690A1D421239080E9212390AC36
:1001C0002C2123908043212390800021239084526E
:1001D000212390A955212390AC812123909D90212A
:1001E00023908B872123908685212390824F212382
:1001F00090917E212390B9D6212300020543E86423
:1002000080F8E933E83360110460F0ED33EC3370CB
:1002100009E8FCE9FDEAFEEBFF220460DED3EB9F78
:10022000EA9EE99DE8C2E78CF0C2F795F0400CE841
:10023000CCF8E9CDF9EACEFAEBCFFB12050E85D06A
:10024000F05804700320D5B3E80470075002B2D50B
:1002500002054D92D5EC0460F7E4CCC0E0C398F8F9
:10026000603B94186008400DD0E0FB020525E4FBDC
:10027000FAC9FC8028E830E406E4C9FBE4CAFCE8DB
:1002800030E305E4C9CACBFCE854076010F8C3E9C1
:1002900013F9EA13FAEB13FBEC13FCD8F130F52F4A
:1002A000C3E49CFCEF9BFFEE9AFEED99FDD0E0FBD2
:1002B000EF4E4D4C701222DB0302054AEC2CFCEF92
:1002C00033FFEE33FEED33FDED30E7EB020525EFB6
:1002D0002BFFEE3AFEED39FDD0E0FB50130BBB00D7
:1002E0000302054DED13FDEE13FEEF13FFEC13FCBF
:1002F000020525EC4D6011E8497017ED33EC33042D
:10030000600DE4FCFFFEFD22E933E8330470F802DF
:10031000054312050E58046009E4CC2481500628D8
:10032000500902054D28400302054AC0E0EB4A701F
:1003300044B98006D0E0FB020539EF4E701CBD8049
:1003400008EBFFEAFEE9FD80EBE98DF0A4FEE5F0A5
:100350000203DCE9CDF9EAFEEBFFEF89F0A4FCE54E
:10036000F0CE89F0A42EFFE435F0CD89F0A42DFE67
:10037000E435F08067EF4E7005BD80D780C3EF8B0A
:10038000F0A4ACF0EE8BF0A42CFCE435F0F8EF8A8E
:10039000F0A42CE5F038FCE433CB8DF0A42CFCE584
:1003A000F03BF8EE8AF0A42CFCE5F038F8E433CF0B
:1003B00089F0A42CFCE5F038CF3400CE89F0A42FCE
:1003C000FFE5F03EFEE433C98DF0A42EFEE5F039E2
:1003D000CD8AF0A42FFFE5F03EFEE43DFD33D0E0F2
:1003E000FB50070BBB000F02054DEC2CFCEF33FF5D
:1003F000EE33FEED33FD02052502054DEC5D046094
:1004000005E85904700302054312050E580460F60E
:10041000EC4860F2EC7004FDFEFF22C860DB248132
:10042000C85009C3986002500602054A9850CAF5A0
:1004300082E9294B4A7005AB8202053975F0007CD0
:100440001A7880C3EF9BEE9AED99400DC3EF9BFFA6
:10045000EE9AFEED99FDE842F0DC23ACF0D0E0FF2F
:10046000D0E0FED0E0FDAB8220E7101BEB60BAECE1
:100470002CFCEF33FFEE33FEED33FD020525E803E0
:10048000F830E705C0F075F000EF2FFFEE33FEED1A
:1004900033FD40B830E7C280AA75F020800E75F0B9
:1004A00010800575F0087D007E007F003392D53006
:1004B000D5031208B8EC334010EF33FFEE33FEEDF6
:1004C00033FDEC33FCD5F0ED22E5F0247EA2D5130C
:1004D000CC92E7CDCEFF22EDD2E7CD33EC3392D5EF
:1004E00024814006E4FFFEFDFC22FCE4CFCECDCC0F
:1004F00024E0501174FF80EDC3CC13CCCD13CDCECE
:1005000013CECF13CF0470F030D5DE0208B8E9D295
:10051000E7C933E833F892D5EDD2E7CD33EC33FCBD
:100520005002B2D522EC30E7100FBF000C0EBE0017
:10053000080DBD00040BEB6014A2D5EB13FCED928B
:10054000E7FD2274FFFCFDFEFF22E480F8A2D574D3
:10055000FF13FC7D80E480EFE709F608DFFA8046B0
:10056000E709F208DFFA803E88828C83E709F0A36E
:10057000DFFA8032E309F608DFFA8078E309F2084F
:10058000DFFA807088828C83E309F0A3DFFA80644D
:1005900089828A83E0A3F608DFFA805889828A83F9
:1005A000E0A3F208DFFA804C80D280FA80C680D4C3
:1005B000806980F28033801080A680EA809A80A8CB
:1005C00080DA80E280CA803389828A83ECFAE493FD
:1005D000A3C8C582C8CCC583CCF0A3C8C582C8CC8B
:1005E000C583CCDFE9DEE7800D89828A83E493A3AB
:1005F000F608DFF9ECFAA9F0EDFB2289828A83EC98
:10060000FAE0A3C8C582C8CCC583CCF0A3C8C58214
:10061000C8CCC583CCDFEADEE880DB89828A83E44C
:1006200093A3F208DFF980CC88F0EF60010E4E60F2
:10063000C388F0ED2402B4040050B9F582EB240223
:10064000B4040050AF23234582239005A873BB0157
:100650000689828A83E0225002E722BBFE02E3225F
:1006600089828A83E49322BB010CE58229F582E525
:10067000833AF583E0225006E92582F8E622BBFEA4
:1006800006E92582F8E222E58229F582E5833AF53A
:1006900083E49322BB010FF8E58229F582E5833AD2
:1006A000F583E028F0225009C58229F8E58226F674
:1006B00022BBFE09C58229F8E22582F222F8EA254A
:1006C00083F583E9932822BB010689828A83F0227D
:1006D0005002F722BBFE01F322F8BB010DE582298F
:1006E000F582E5833AF583E8F0225006E92582C8D1
:1006F000F622BBFE05E92582C8F222EF8DF0A4A800
:10070000F0CF8CF0A428CE8DF0A42EFE22BC000BDE
:10071000BE0029EF8DF084FFADF022E4CCF875F037
:1007200008EF2FFFEE33FEEC33FCEE9DEC98400516
:10073000FCEE9DFE0FD5F0E9E4CEFD22EDF8F5F0DC
:10074000EE8420D21CFEADF075F008EF2FFFED33E4
:10075000FD4007985006D5F0F222C398FD0FD5F062
:10076000EA22C5F0F8A3E028F0C5F0F8E58215828A
:1007700070021583E038F022A3F8E0C5F025F0F010
:10078000E582158270021583E0C838F0E822E88F10
:10079000F0A4CC8BF0A42CFCE98EF0A42CFC8AF005
:1007A000EDA42CFCEA8EF0A4CDA8F08BF0A42DCC07
:1007B0003825F0FDE98FF0A42CCD35F0FCEB8EF060
:1007C000A4FEA9F0EB8FF0A4CFC5F02ECD39FEE446
:1007D0003CFCEAA42DCE35F0FDE43CFC2275F0088B
:1007E000758200EF2FFFEE33FECD33CDCC33CCC579
:1007F0008233C5829BED9AEC99E58298400CF58294
:10080000EE9BFEED9AFDEC99FC0FD5F0D6E4CEFB05
:10081000E4CDFAE4CCF9A88222B800C1B90059BAF3
:10082000002DEC8BF084CFCECDFCE5F0CBF9781821
:10083000EF2FFFEE33FEED33FDEC33FCEB33FB101B
:10084000D703994004EB99FB0FD8E5E4F9FA227835
:1008500018EF2FFFEE33FEED33FDEC33FCC933C947
:1008600010D7059BE99A4007EC9BFCE99AF90FD851
:10087000E0E4C9FAE4CCFB2275F010EF2FFFEE3371
:10088000FEED33FDCC33CCC833C810D7079BEC9AB0
:10089000E899400AED9BFDEC9AFCE899F80FD5F039
:1008A000DAE4CDFBE4CCFAE4C8F922CFF4CFCEF4FD
:1008B000CECDF4CDCCF4CC22C3E49FFFE49EFEE485
:1008C0009DFDE49CFC22EB9FF5F0EA9E42F0E99D41
:1008D00042F0E89C45F022E8600FECC313FCED13F6
:1008E000FDEE13FEEF13FFD8F122E8600FEFC333E4
:1008F000FFEE33FEED33FDEC33FCD8F122E0FCA338
:10090000E0FDA3E0FEA3E0FF22E493FC740193FD6D
:10091000740293FE740393FF22ECF0A3EDF0A3EEB8
:10092000F0A3EFF022A8828583F0D083D082120951
:100930003C12093C12093C12093CE473E493A3C540
:1009400083C5F0C583C8C582C8F0A3C583C5F0C5FB
:1009500083C8C582C822D083D082F8E49370127411
:100960000193700DA3A393F8740193F5828883E437
:10097000737402936860EFA3A3A380DFD083D08257
:10098000E4937012740193700DA3A393F874019310
:10099000F5828883E4737402936C70127403936D10
:1009A000700C7404936E70067405936F60DDA3A3DE
:1009B000A3A3A3A380CA60280C85303F3106325B15
:1009C000334F3466356D367D3707387F396F417761
:1009D000427C4339553E4930507346714F3F7478DD
:1009E0007A49470C7E0A0F19326496C860E00AE91A
:1009F000000000000A0A0000000101000A0A0001CC
:100A00000002000A0E0E00000003010A0E0E000193
:100A1000000400180E0E0000000501180E0E000163
:100A20000006002616160000000701261616000113
:100A30000008003C0E0E00000009013C0E0E0001F3
:100A4000000A004A10100000000B014A10100001BB
:100A5000000C005A0D010101000D00670D0101019C
:100A6000000E007404040101000F0078030300016C
:100A70000010007B1B1B00010011009619190001DA
:100A8000001200AF0B0B0001001300BA101001019F
:100A9000001400CA06060001001500D0050501017A
:100AA000001600D508080001001700DD0808000145
:100AB000001800E51A1A0001001901AC0606000131
:100AC000001A01B23E3E0001001B01921A1A0001F9
:100AD0000002054322EDA2E7D2E7F9EC3340F260D1
:100AE000F3B4FF08ED547F70E802054DF82481C28D
:100AF000E0C0E0F40428FAC313FCED92E7FD900691
:100B000025120919EEA2E7E9BA7F02C31334009453
:100B100000FA75F091A4E5F013F494FE8AF0A43382
:100B2000E5F033248CD313FDE492E7FE7F007C3F95
:100B3000758302ECC0E0F8EDC0E0F9EEC0E0FAEF3A
:100B4000C0E0FB8583F09006251208FD85F0831236
:100B500003FCD0E0FBD0E0FAD0E0F9D0E0F81202DC
:100B600002ED6480FD30E7011CD583C7ED33CC3343
:100B7000F8D0E0A2E71328C313CC13FD22787FE45A
:100B8000F6D8FD75812012010A020BC7021917E47D
:100B900093A3F8E493A34003F68001F208DFF48006
:100BA00029E493A3F85407240CC8C333C4540F4456
:100BB00020C8834004F456800146F6DFE4800B0130
:100BC000020408102040809009B6E47E019360BCC6
:100BD000A3FF543F30E509541FFEE493A360010EC8
:100BE000CF54C025E060A840B8E493A3FAE493A3EF
:100BF000F8E493A3C8C582C8CAC583CAF0A3C8C510
:100C000082C8CAC583CADFE9DEE780BE07060504DD
:100C1000030201000706050403020100070605049C
:100C2000030201000706050407060504030201008C
:100C3000070605040302010007060504030201007C
:100C4000030201008080808080808080404040409E
:100C50004040404020202020202020201010101054
:100C60000202020202020202040404040404040454
:100C700008080808080808081010101001020102EE
:100C80000000000301000201020201000300010054
:100C90000302010005060304050603040605040516
:100CA0000506040604060505060403030480200166
:100CB00080082010020408400220101040010102A8
:100CC0002010084080100208020204012008800160
:100CD0001080020140080440401008010101020296
:100CE000020202020102020202020201018040200D
:100CF000100810080402018001804020100810082C
:100D000004020180018040201008100804020180C4
:100D10000180402010081008040201800300000038
:100D200000000000000000010001010101010101BB
:100D30000101010201020202020202020202020396
:100D40000203030303030303030303000102100868
:100D50000810108080020240084002404001010457
:100D600001202080200804040420108001000202D9
:100D7000030103020001020300020301000002015B
:100D8000030300010201030002010003E00040F040
:100D9000D070104020E0F020B0D0801030A0A060D3
:100DA00060C0C0B0509090500030708040F010C0D3
:100DB000E0808020D04060902010B070F050C0B033
:100DC000903070E030A0A000506000D00F03010D03
:100DD00008040E07060F0B020308040E090C070097
:100DE00002010D0A0C060009050B0A05000D0E088C
:100DF000070A0B010A03040F0D040102050B080684
:100E00000C07060C09000305020E0F09A0D00070A4
:100E10009000E09060303040F06050A01020D08012
:100E2000C05070E0B0C040B020F08010D01060A082
:100E300040D090008060F09030800070B04010F0A2
:100E400020E0C03050B0A050E02070C0070D0D0869
:100E50000E0B03050006060F09000A030104020732
:100E60000802050C0B010C0A040E0F090A03060FF9
:100E7000090000060C0A0B01070D0D080F090104FB
:100E800003050E0B050C02070802040E20E0C0B09B
:100E9000402010C07040A070B0D060108050500052
:100EA00030F0F0A0D0300090E080906040B0208022
:100EB00010C0B070A010D0E0702080D0F06090F032
:100EC000C000509060A030400050E0300C0A010F8C
:100ED0000A040F020907020C0609080500060D01A5
:100EE000030D040E0E00070B05030B0809040E0387
:100EF0000F02050C020908050C0F030A070B000E70
:100F000004010A0701060D000B08060D40D0B000D1
:100F100020B0E070F04000908010D0A030E0C030F1
:100F2000905070C05020A0F060801060106040B001
:100F3000B0D0D080C010304070A0E070A090F050D1
:100F4000600080F000E05020903020C00D01020FC2
:100F5000080D0408060A0F030B0701040A0C090513
:100F600003060E0B0500000E0C09070207020B0119
:100F7000040E010709040C0A0E08020D000F060CEE
:100F80000A090D000F0303050506080BFFF0020018
:100F900027354006444453592F5536363620444CA5
:100FA0002F54003634352D323030372D3134FEFE9B
:100FB000FEFE680000FFFFFFFFFFFF00006800006B
:100FC0000000000104E6010000000400010001002F
:100FD000000104E60100000004000100020000011D
:100FE00004EA0100000004000100900201010589EB
:100FF00001000000040001009002000105830100CF
:1010000000000400010330060101051D010000007D
:101010000400010280002001051900000400040002
:1010200001040004010103ED0000100006000104AA
:101030000004020103F3000010060600010400048E
:101040000E0103F90000100C06000103300100013D
:1010500005D401000000040101033302010105D899
:1010600001000000040101040010010105A10000BD
:101070001100040001040010020105A50000110484
:10108000040001040010040105A900001108040077
:1010900001040010030105AD0000110C040001045F
:1010A0000010050105B10000111004000104090B36
:1010B000010105B50000111403000104800010FFB8
:1010C0000F8C010000000801000400040DFF0F9EBA
:1010D000010000001001000400040BFF0F94010048
:1010E00000000A010004000C0100000000001200D2
:1010F00004010004000C02000000000012030401BF
:101100000004000C030000000000120604010004AB
:101110000003080104080000190001000004000396
:10112000020104090000190101000004000301018B
:10113000040A000019020100000400030501040B69
:10114000000019030100000404010101040E000065
:101150001A000101000404020101042C00001A1EFF
:101160000101000400030601040200001015030041
:1011700001040003070103FF000010120300010235
:1011800001010001002E0100000002000102020125
:101190000001004D010000000300010203000001F6
:1011A0000069010000000300010203010001006D5D
:1011B000010000000300010206000001008A010096
:1011C00000000200010206010001008E0100000083
:1011D0000200010280000201009A010000000200EA
:1011E00001070000FF070001FF070101FF070102DF
:1011F000FF070103FF070301FF070002FF200E1E88
:101200001E18300810040404040416110000000025
:10121000111100B0990184D401FF8430020C80FACE
:10122000000380FA00000084000084D6960004D6F3
:10123000822404DC010C04DC030C8432010C04D68F
:10124000820004D6830004D684000082000804D6FD
:101250008C0004D6000004D6880004D6940004D67E
:10126000970000C0000000B0880000B08C0000B003
:10127000940000B0970004B2010C000000000000D0
:10128000000000000000000000000000000001025B
:10129000030201060BFFF0FF014348494E54494D3C
:1012A0000F094B4C00010000010015010100000670
:1012B0000001020100010A001F030100000B0001F0
:1012C000040100000D0001050000000201060600F7
:1012D00000000301200000000000000000000000EA
:1012E00000000000000000000000000000000000FE
:1012F00000000000000000000000000000000000EE
:1013000000000000000000000000000000000000DD
:1013100000000000000000000000000000000000CD
:1013200000000000000000000000000000000000BD
:1013300000000000000000000000000000000000AD
:10134000000000000000000000000000000000009D
:10135000000000000000000000000000000000008D
:10136000000000000000000000000000000000007D
:10137000000000000000000000000000000000006D
:10138000000000000000000000000000000000005D
:10139000000000000000000000000000000000004D
:1013A000000000000000000000000000000000003D
:1013B000000000000000000000000000000000002D
:1013C000000000000000000000000000000000001D
:1013D000000000000000000000000000000000000D
:1013E00000000000000000000000000000000000FD
:1013F00000000000000000000000000000000000ED
:1014000000000000000000000000000000000000DC
:1014100000000000000000000000000000000000CC
:1014200000000000000000000000000000000000BC
:1014300000000000000000000000000000000000AC
:10144000000000000000000000000000000000009C
:10145000000000000000000000000000000000008C
:10146000000000000000000000000000000000007C
:10147000000000000000000000000000000000006C
:10148000000000000000000000000000000000005C
:10149000000000000000000000000000000000004C
:1014A000000000000000000000000000000000003C
:1014B000000000000000000000000000000000002C
:1014C000000000000000000000000000000000001C
:1014D000000000000000000000000000000000000C
:1014E00000000000000000000011892312329B461A
:1014F0002457AD653674BF8C489DC1AF5ABED3CA60
:101500006CDBE5E97EF8F7108101083393221A5667
:10151000A5472C75B7643E9CC98D40BFDBAE52DA3F
:10152000EDCB64F9FFE8762102308B021013996746
:101530002676AF443455BDAD4ABCC38E589FD1EB1F
:101540006EFAE7C87CD9F53183200A129103187727
:10155000A7662E54B5453CBDCBAC429ED98F50FBFF
:10156000EFEA66D8FDC9744204538D6116709F047A
:101570002015A9273236BBCE4CDFC5ED5EFCD788DF
:101580006899E1AB7ABAF35285430C7197601E14E7
:10159000A1052837B3263ADECDCF44FDDFEC5698BF
:1015A000E98960BBFBAA726306728F4014519D25C6
:1015B0002234AB063017B9EF4EFEC7CC5CDDD5A99F
:1015C0006AB8E38A789BF17387620E5095411C35A7
:1015D000A3242A16B10738FFCFEE46DCDDCD54B97F
:1015E000EBA8629AF98B7084089581A71AB693C20A
:1015F0002CD3A5E13EF0B7084019C92B523ADB4E77
:10160000645FED6D767CFF94898500B79BA612D24E
:10161000ADC324F1BFE03618C109483BD32A5A5E56
:10162000E54F6C7DF76C7EA50AB48386189791E32D
:101630002EF2A7C03CD1B5294238CB0A501BD96F36
:10164000667EEF4C745DFDB58BA40296998710F30E
:10165000AFE226D0BDC13439C3284A1AD10B587F16
:10166000E76E6E5CF54D7CC60CD785E51EF4978061
:101670002891A1A33AB2B34A445BCD695678DF0CF6
:10168000601DE92F723EFBD68DC704F59FE41690CE
:10169000A98120B3BBA2325AC54B4C79D7685E1CD6
:1016A000E10D683FF32E7AE70EF687C41CD595A1AD
:1016B0002AB0A3823893B16B467ACF485459DD2DB6
:1016C000623CEB0E701FF9F78FE606D49DC514B18E
:1016D000ABA02292B983307BC76A4E58D5495C3D96
:1016E000E32C6A1EF10F78252626271616271817D1
:1016F000171818181716282816161628272626270A
:10170000272726250303252525030807070808089A
:101710000706050506060605050504040405050378
:10172000030100010202030301000102020303019D
:101730000001020203030100010202030301000190
:10174000020203030100010202000000000104E69E
:10175000040201000100000104E60402010002008D
:10176000000104EA040201040004010103ED030086
:1017700002040004010103F003000204000402015A
:1017800003F3030002040004020103F60300020451
:1017900000040E0103F90300020400040E0103FC1F
:1017A00003000202800020010519040401009002D8
:1017B0000001058304020100900201010589040271
:1017C00001040010010105A104020104001002013E
:1017D00005A504020104090B010105B50304030278
:1017E00001010001001D0302030202010001003D8E
:1017F0000303030203000001005903040302030171
:101800000001005D0304030206000001007A0203E8
:10181000050206010001007E0203050280000201AC
:10182000009A0202050400040901009C030003FF62
:10183000FFFFFF000000000000360000000037003E
:1018400000000038000000003A000000003B0000EB
:1018500000003C000000003D00FD27003E000000AD
:10186000003F0000000040000000004100000000B8
:101870004200000000440000001B4500000000463C
:101880000000000047000001804B000001FF5000F5
:10189000000000510000000452000000005300004E
:1018A0000000540000000055000000005600000039
:1018B0000057000000005A008000005B007FF547E1
:1018C000600000055D61007FF54662000000007C5D
:1018D000000000807D00000000480000018234000C
:1018E0000000003500000000390000000043000047
:1018F000001B30000000353100A000C13200000C98
:101900008433000000E8003409350D390C0F0A104B
:10191000091BD3000000001201B9BF01031201BE70
:10192000316A9004B4E0F8A3E0F9A3E0FAA3E0FB85
:10193000C31208C66003E4F5B1316A9004B4120919
:10194000191201DC12018C1201D71201AF1201B47D
:1019500080CEF583EF2583F583E0FCA3E0FDA3E0D3
:10196000FEA3E0FF90060B1209199004B0E0FCA35F
:10197000E0FDA3E0FEA3E0FF90067D1209199004AC
:10198000ACE0FCA3E0FDA3E0FEA3E0FF9006811223
:101990000919E4FFFEFDFC900681E0F8A3E0F9A33D
:1019A000E0FAA3E0FBC31208C6703074FFFFFEFD2F
:1019B000FC90067DE0F8A3E0F9A3E0FAA3E0FBC306
:1019C0001208C66043E4FFFEFDFC90067DE0F8A32C
:1019D000A3A3E0C31208C67002802D90067DE0FC30
:1019E000A3E0FDA3E0FEA3E02401FFE43EFEE43D0E
:1019F000FDE43CFCA3E0F8A3E0F9A3E0FAA3E0FBDC
:101A0000C31208C66002216A90067DE0FCA3E0FDD7
:101A1000A3E0FEA3E0FF227B017A05797B7D047CB5
:101A200000917A900581EEF0A3EFF07B017A0579C1
:101A30007BE4FD7F17FE51577B017A0079107D040E
:101A40007C00917A900016EEF0A3EFF07B017A0013
:101A50007910E4FD7F16FE90098CEDF0A3EBF0A366
:101A6000EAF0A3E9F090098AEEF0A3EFF090099074
:101A70007401F0E4900992F0A3F0C3EF941CEE948B
:101A8000004002814AE4900991F0900991E0FFC37F
:101A9000941C4002814A75F008EFA424E9F582E520
:101AA000F0340AF583E0FEA3E0FF90098AE0FCA38E
:101AB000E0FDEF6D7002EE6C60028142EDAE0478E5
:101AC00003C333CE33CED8F9FF24EFF582740A3E38
:101AD000F583E06002616690098DE0FBA3E0FAA364
:101AE000E0F974EE2FF582740A3EF583E024FEFDE2
:101AF000E434FFFC917A900992EEF0A3EFF09009A4
:101B000092E0FD90098AE0FEA3E07803C333CE3370
:101B1000CED8F924EEF582740A3EF583E024FEFF68
:101B2000E434FFFE90098DE0FBA3E0FAA3E0F98F17
:101B3000828E83ED1206D9900992A3E0FD90098A66
:101B4000E0FEA3E07803C333CE33CED8F924EEF51C
:101B500082740A3EF583E07E0024FFF582EE34FFB6
:101B6000F583ED1206D990098AE0FEA3E07803C35D
:101B700033CE33CED8F924EBF582740A3EF583E0F8
:101B8000FEA3E0FF90098CE0FD7C00EF2DFFEC3E12
:101B9000FEC006C007A3E0FBA3E0FAA3E0F99009AA
:101BA0008AE0FEA3E07803C333CE33CED8F924EE27
:101BB000F582740A3EF583E0900CC9F0D007D00698
:101BC00012429DEF6002814A900990F090098AE0EC
:101BD000FEA3E07803C333CE33CED8F9FF24F0F56B
:101BE00082740A3EF583E0706174F32FF582740A03
:101BF0003EF583E0FEA3E0FF90098CE0FD7C00EF62
:101C00002DFFEC3EFEC006C007A3E0FBA3E0FAA355
:101C1000E0F990098AE0FEA3E07803C333CE33CE27
:101C2000D8F924F6F582740A3EF583E0900CC9F0E9
:101C3000D007D00612429DEF60109009907401F019
:101C40008008900991E004F0418A900990E0FF2219
:101C500091E9900616E0FF7E00900618EEF0A3EFE3
:101C6000F0FD900615E0FFED900618CFF0A3EFF021
:101C70007B017A0679097D0C7C009009D0EBF0A3FA
:101C8000EAF0A3E9F0A3ECF0A3EDF0E4A3F0A3F0F5
:101C90009009D374FFF5F012077845F0604290097F
:101CA000D0E0FBA3E475F001120778A9F0FA120660
:101CB0004EFF9009D5E0FCA3E0FDED6F25E0FFE4C9
:101CC00033FE74E72FF58274143EF583ECFFE49342
:101CD000FE7401936FFF9009D5EEF0A3EFF080B092
:101CE0009009D5E0FEA3E0FF22900CB9EEF0A3EF3F
:101CF000F0900CBBEBF0A3EAF0A3E9F0900CBFE48A
:101D0000F0900CBEE0FFEF70037F0122900CBEE06C
:101D1000FF7E00900CB9E0FCA3E0FDEF2DFFEE3C50
:101D2000FED3EF94FFEE940140037F0122900CB9A3
:101D3000E0FEA3E0FFEEFF7E00EF54FFFF900CC03B
:101D4000EFF0900CC0E0FFEF25E0FF900CC0EFF04B
:101D5000123FBE900CC0E0FFEF24A0FFD16CEF60FB
:101D600005D1037F0122900CB9E0FEA3E0FFD16C06
:101D7000EF6005D1037F0122123FBE900CC0E0FF4F
:101D8000EF24A1FFD16CEF6005D1037F0122900CFD
:101D9000BBE0FBA3E0FAA3E0F9900CC1EBF0A3EAEF
:101DA000F0A3E9F0900CC0E4F0900CBEE0FFEF145B
:101DB000FF900CC0E0FEEEC39F5024124020900C18
:101DC000C1E0FBA3E0FAA3E0F9900CC0E0FE8E8234
:101DD000758300EF1206D9900CC0E004F080CA129F
:101DE00040BC900CC1E0FBA3E0FAA3E0F9900CC06A
:101DF000E0FE8E82758300EF1206D9D103900CBFEE
:101E0000E0FF22900CE8E4F090FFE3E0FFEF54EFF6
:101E1000FF90FFE3EFF0900CE87414F0900CE8E012
:101E2000FFEFD394004016E5B020E41143B0081250
:101E300000EC53B0F7900CE8E014F080DF90FFE383
:101E4000E0FFEF4410FF90FFE3EFF090FFE3E0FFCF
:101E5000EF4408FF90FFE3EFF053B0EF53B0F712F9
:101E600000EC43B0081200EC43B01022900CDAEF03
:101E7000F0900CDBE4F0900CDCE4F090FFE3E0FF8A
:101E8000EF4408FF90FFE3EFF053B0F790FFE3E07B
:101E9000FFEF4410FF90FFE3EFF0900CDCE4F090D4
:101EA0000CDCE0FFEFC394085030900CDAE0FFEF59
:101EB00030E70543B010800353B0EF43B008900CF7
:101EC000DAE0FFEF25E0FF900CDAEFF0123F9853D5
:101ED000B0F7900CDCE004F080C512000790FFE33F
:101EE000E0FFEF54EFFF90FFE3EFF043B008120084
:101EF00007E5B030E406900CDB7401F053B0F790C6
:101F00000CDBE0FF2290066AE075F00EA424C7F512
:101F100082E5F0340FF583E493FE740193FF7B01B7
:101F20007A067928E4FD900987EDF0A3EBF0A3EAA7
:101F3000F0A3E9F0900985EEF0A3EFF090098B741F
:101F400001F0E4A3F0A3F09009CEF0A3F0C3EF9466
:101F50001CEE9400400302214FE490098CF090099C
:101F60008CE0FFC3941C400302214F75F008EFA4DE
:101F700024E9F582E5F0340AF583E0FEA3E0FF9062
:101F80000985E0FCA3E0FDEF6D7002EE6C600302DA
:101F9000214690098DF0900985E0FEA3E07803C307
:101FA00033CE33CED8F924EBF582740A3EF583E0C4
:101FB000FEA3E0FF900987E0FD7C00EF2DFFEC3EE3
:101FC000FEC006C0077B017A09798E900985E0FE84
:101FD000A3E07803C333CE33CED8F924EEF5827470
:101FE0000A3EF583E0900CBEF0D007D00691E9EFF1
:101FF0006401707A900985E0FEA3E07803C333CED4
:1020000033CED8F9FF24F0F582740A3EF583E070F0
:102010004E74F32FF582740A3EF583E0FEA3E0FFD1
:10202000900987E0FD7C00EF2DFFEC3EFEC006C06E
:10203000077B017A09798E900985E0FEA3E0780399
:10204000C333CE33CED8F924F6F582740A3EF58335
:10205000E0900CBEF0D007D006121CE9BF010F9033
:10206000098DE004F0E0C394035003021F96900929
:102070008DE0C3940340037F0122900985E0FEA315
:10208000E07803C333CE33CED8F9FF24EFF5827462
:102090000A3EF583E0706D74EE2FF582740A3EF50A
:1020A00083E0FF248DF582E43409F583E0FD900997
:1020B000CEE4F0A3EDF0748C2FF582E43409F583BF
:1020C000E0FE9009CEE04EF0A3E0F07B017A0979C2
:1020D0008E900985E0FEA3E07803C333CE33CED8DB
:1020E000F924EEF582740A3EF583E024FEFDE43423
:1020F000FFFC121C7A9009CEE06E7003A3E06F60C3
:10210000037F0122900988E0F9A3E0FAA3E0900997
:10211000D3C9F0A3EAF0A3E9F0900985E0FEA3E0BB
:102120007803C333CE33CED8F924EEF582740A3E59
:10213000F583E09009D6F07B017A09798E316FE45E
:1021400090098BF0800990098CE004F0021F5E90EA
:10215000098BE0FF22316F9009D37401F0A374045E
:10216000F0A374FDF0A37404F07B017A05798390E9
:1021700009D0EBF0A3EAF0A3E9F0E4FF9009D6E080
:10218000FEEFC39E502B9009D0E0FBA3E0FAA3E042
:10219000F98F82758300120667FE9009D3E0FBA3D6
:1021A000E0FAA3E0F98F82758300EE1206D90F8062
:1021B000CB2290065DEBF0A3EAF0A3E9F090066471
:1021C000E0FED3940150037F0122EE24FFFFE434AC
:1021D000FFFE900663E0FD7C001206FB90065DE0CA
:1021E000FBA3E0FAA3E02FF9EA3EFAC002C001A384
:1021F000E0F9A3E0FAA3E09009D3C9F0A3EAF0A3C1
:10220000E9F0900663E09009D6F0D001D002316F7A
:10221000900664E0900667F0900667E0FFD39401B3
:10222000406E900665E064557009EF1236D2EF609B
:1022300057800C900667E01236D2EF640160499037
:102240000667E024FEFFE434FFFE900663E0FD7CB9
:10225000001206FB90065DE0FBA3E0FAA3E02FF975
:10226000EA3EFAC002C001A3E0F9A3E0FAA3E090BD
:1022700009D3C9F0A3EAF0A3E9F0900663E090095E
:10228000D6F0D001D002316F900667E014F080885C
:102290007F00229007837401F0A3740AF0A374D125
:1022A000F090077EE0900786F090077AE0FBA3E0CD
:1022B000FAA3E0F9900780EBF0A3EAF0A3E9F0902D
:1022C00009D37401F0A37407F0A37491F0A3740808
:1022D000F0900783E0FBA3E0FAA3E0F9316F9007E9
:1022E00080E0FBA3E0FAA3E0F91247807B017A07C4
:1022F00079911247F8E4900787F0E4900788F0900E
:102300000787E0FF900CDC93FE900788E0C39E50A7
:102310001C900786E0FDB40103EF60117B017A0792
:102320007991124B31900788E004F080D29009D364
:102330007401F0A37407F0A37489F0A37408F07B10
:10234000017A077991316F9007AF74FFF0A3740C95
:10235000F0A3747CF0A374FFF0A3740CF0A374AC2E
:10236000F0A37406F07B017A07798912481690076A
:102370009C7401F0A37407F0A37489F0900780E0C7
:10238000FBA3E0FAA3E0F91248E9E4F5B19007876E
:10239000E004F0E0C39410500241FA900780E0FBA3
:1023A000A3E0FAA3E0F9900799EBF0A3EAF0A3E920
:1023B000F0E4F5B190079D04F012064E9007A5F0E9
:1023C0009000041206679007A4F0900001120667BF
:1023D0009007A3F09000051206679007A2F0900006
:1023E000021206679007A1F0900006120667900798
:1023F000A0F090000312066790079FF0900007126C
:10240000066790079EF0E490079CF07B017A0779BD
:102410009E124753900799E0FBA3E0FAA3E0F9A3CB
:10242000E0F582758300EF1206D990079DE025E064
:10243000F090079CE004F0E0C3940840CEE4F5B1CE
:102440002290077D7401F07F0690077AEBF0A3EAF3
:10245000F0A3E9F0EF640660147B017A0A79D1E415
:10246000FD7F13FE121F26BF01037F012290077D0F
:10247000E0B40209A37402F0A314F0800990077E6F
:102480007401F0A304F051939007837401F0A374D6
:102490000AF0A374D9F090077F51A451937F0022D2
:1024A00090076CEBF0A3EAF0A3E9F0A3EDF0D3946E
:1024B0006440037F01229007767401F0A3740AF050
:1024C000A3744FF09009D37401F0A3740AF0A374BD
:1024D000E1F0A37408F0900770E0FBA3E0FAA3E03A
:1024E000F9316F7B017A0A79D1E4FD7F13FE121F67
:1024F00026BF01037F0122900776E0F9A3E0FAA34B
:10250000E09009D3C9F0A3EAF0A3E9F090076FE0E7
:102510009009D6F090076CE0FBA3E0FAA3E0F93154
:102520006F900776E0FBA3E0FAA3E0F990076FE075
:10253000FFF58275830074801206D97E00E92FF9B9
:10254000EE3AFAE92401F9E43AFA90098EE4F0A3AC
:102550007407F0E4FDD19190076FE0131313541F3B
:1025600004900775F0E4FD74E12DF582E4340AF57A
:1025700083C083C082E0FF900776E0FBA3E0FAA36C
:10258000E0F98D82758300120667FEEF6ED082D06F
:1025900083F00DEDB408D0E4900774F0900775E077
:1025A00014FF900774E0C39F506E9007837401F08E
:1025B000A3740AF0A374D1F0A37402F07B017A0A29
:1025C00079E151B4E4FD74E12DF582E4340AF58338
:1025D000C083C082E0FC900774E02401FFE433FE76
:1025E000EF7803C333CE33CED8F9FFED7A002FFF57
:1025F000EA3EFE900776E0FBA3E0FAA3E0F98F82C3
:102600008E831206676CD082D083F00DEDB408B6CD
:10261000900774E004F080847B017A0A79E19007E6
:102620007D7402F0E4FF9149900773E06401703B10
:1026300090076CE0FBA3E0FAA3E0F9A3E0FF7E00C3
:10264000E92FF9EE3AFA900988EBF0A3EAF0A3E952
:10265000F0A37404F0A37455F07B017A0A79E112B7
:102660003718BF02037F00227F01227F00229005DE
:102670002FE054FDF07B017A0C790A7D041201A54C
:102680007B017A0C790E90098EE4F0A37404F0E4D7
:10269000FD90098AEBF0A3EAF0A3E9F0A3EDF0E4E2
:1026A000FFFED390098FE09F90098EE09E401F901F
:1026B000098DE0FD90098AE0FBA3E0FAA3E0F98F21
:1026C000828E83ED1206D90FBF00010E80D42278CE
:1026D000877C067D017BFF7A13799D7E007F28121F
:1026E00006289006AF7401F09009D3F0A37406F0A9
:1026F000A37487F0A37413F07BFF7A127991316F82
:102700009006B37401F0A37406F0A3749AF0A37456
:1027100006F07B017A0379ED123C577B017A06794A
:10272000877D017F02122A96EF70099006AFF09024
:10273000053604F09006AFE0FF22786E7C067D013E
:102740007BFF7A14796A7E007F1912062890098827
:102750007401F0A37406F0A3746EF0A37406F07B0A
:10276000017A0479891234629009D37401F0A37458
:1027700006F0A37474F0A3740CF07B017A04798FD3
:10278000316F9009D37401F0A37406F0A37480F044
:10279000A37403F07B017A04799B316F7B017A0685
:1027A000796E122F219004A0E090066EF07B017AE2
:1027B00006796E122F2BC1CF78097C067D017BFF35
:1027C0007A1479067E007F64120628E490066DF084
:1027D000123F92EF64077003022862EF64087003EF
:1027E000022862EF6404601AEF64016007E4900459
:1027F000E5F0D1CF9004E5E0D394B44005E4F012C5
:1028000026CF9004E5E05403640370567B017A06FA
:1028100079095124EF704490066DF090066DE0FF49
:10282000C39406502EE0FEFDC374059DFDE49400A4
:10283000FC74892DF58274043CF583E0FD74092E47
:10284000F582E43406F583E0B5050890066DE004F2
:10285000F080C8EFC39406500980001163318612DE
:1028600026CF2290FFE5E04401F043E9017F967E08
:1028700000118A90FFE5E04401F053E9FE7FF47E09
:1028800001118A9002467401F02290066EEEF0A3C8
:10289000EFF0A31209250000000090066EE0FEA3F1
:1028A000E0FF7C007D131206FBE4FDA3E0F8A3E04B
:1028B000F9A3E0FAA3E0FBC31208C6502311E1908C
:1028C0000670E0FCA3E0FDA3E0FEA3E02401FFE42A
:1028D0003EFEE43DFDE43CFC90067012091980BA0E
:1028E000221200061200067F01AE071FEE70FA22C8
:1028F000E0FFA3E0900989CFF0A3EFF07D069009F7
:1029000085EBF0A3EAF0A3E9F0A3EDF031F4EF706A
:10291000037F0122900985E0FBA3E0FAA3E0F9A37D
:10292000E0FD7C00121C7A900989E06E7003A3E040
:102930006F7F0060027F0122900609EFF0E4A3F0B0
:102940007B017A0479899004A1E0FFA3E0900989D2
:10295000CFF0A3EFF07D1811FEEF7006900609E0AE
:10296000701E7B017A047989E4FD7F1BFE121F260D
:10297000BF010690060A7401F0116331861226CF5A
:1029800090060AE0FF229009D37401F0A37404F0CA
:10299000A37489F0A37406F07B017A0379ED122108
:1029A0006F9006B37401F0A37404F0A3748FF0A3C6
:1029B0007406F07B017A047989123C57E490049BF9
:1029C000F0A3F0A3F0A304F0A3E4F012273A7B01F4
:1029D0007A047989E4FD7F1BFE021A57AD07AC0625
:1029E000E4FBFAC3EB9DEA9C500911E10BBB00012B
:1029F0000A80F02290098BEBF0A3EAF0A3E9F0E45F
:102A0000FFEFC39D501B90098BE0FBA3E0FAA3E00E
:102A1000F98F8275830012066760037F01220F80A1
:102A2000E07F00229006727415F0E4FF90066EEFCE
:102A3000F0A3EBF0A3EAF0A3E9F078737C067D0144
:102A40007BFF7A1379397E007F641206289006D7BF
:102A50007401F090066EE0FF7B017A0679737D02C7
:102A60005196EF702B90066FE0F9A3E0FAA3E09087
:102A700009D3C9F0A3EAF0A3E9F0900672E0900947
:102A8000D6F07B017A06797312216FE49006D7F0B5
:102A90009006D7E0FF229006FDEFF0A3EDF0A3EB48
:102AA000F0A3EAF0A3E9F0A37401F0A3F0E4A3F02B
:102AB000A3F0A3F0A3F078087C077D017BFF7A14D4
:102AC0007983FE7F6412062890076C7401F0A3746A
:102AD00007F0A37408F0900527E030E102A1B5B13A
:102AE000FCBF01037F0622E490076FF090076FE0C0
:102AF000FFC394075053EF75F007A424A4F582E4B4
:102B00003412F583E493FF9006FDE0FEEFB5063145
:102B100090076FE0FB75F007A424A5F582E434125A
:102B2000F583120909900772120919EB75F007A4D1
:102B300024AAF582E43412F583E493900707F08029
:102B40000890076FE004F080A390076FE0C394073C
:102B50004002A1B5E4900705F0900527E030E102BE
:102B6000A1B5900707E02404F09006FEE0B4020649
:102B70009007077404F07B017A07790890098EE4C6
:102B8000F0A37404F07DFE12269190070C7468F097
:102B9000900707E090070DF0E4A3F07B017A077936
:102BA0000F90098EF0A37406F07DFF122691E49039
:102BB0000715F0A3F0A37468F09006FEE0900718E4
:102BC000F0900772E0FCA3E0FDA3E0FEA3E0FF7835
:102BD000181208D7900719EFF0900772E0FCA3E0F5
:102BE000FDA3E0FEA3E0FF78101208D790071AEFCC
:102BF000F0900772E0FCA3E0FDA3E0FEA3E0FF7805
:102C0000081208D790071BEFF0900772A3A3A3E068
:102C100090071CF09009D37401F0A37407F0A3741B
:102C20001DF0900707E024FC9009D6F09006FFE025
:102C3000FBA3E0FAA3E0F912216F7B017A07790C7C
:102C4000900707E0240DFDD128900707E0FE241926
:102C5000F582E43407F583EFF0741A2EF582E4343C
:102C600007F5837416F0EE2413900706F07F011227
:102C700001C853A9FBE4900704F0900706E0FF9019
:102C80000704E0FEC39F505C74082EF582E434070D
:102C9000F583E0FF30D004D2DB8002C2DB8FD9E4C1
:102CA000900770F0A3F030D904C2D980201200063A
:102CB000900771E004F07006900770E004F0C39094
:102CC0000771E094D0900770E0940740D9C3900753
:102CD00071E094D0900770E094075008900704E0EA
:102CE00004F0809643D81053A9FB9007067464F053
:102CF000E4900704F0900706E0FF900704E0C39F0C
:102D00005054E4900770F0A3F0900770E0FEA3E049
:102D1000FFC39440EE941F502C30D819C2D89007AE
:102D200004E02408F582E43407F583E5D9F0E49063
:102D30000703F08010900771E004F07006900770B0
:102D4000E004F080C4C3EF9440EE941F5008900755
:102D500004E004F0809F900703E0700A900702F0FF
:102D60009007057403F0900702E070359006FFE0CD
:102D7000F9A3E0FAA3E09009D3C9F0A3EAF0A3E92C
:102D8000F090076FE075F007A424AAF582E43412EE
:102D9000F583E4939009D6F07B017A07791D12211F
:102DA0006F9002467408F0900705E004F0E0C394C9
:102DB0000350026159900702E0FF22900600EBF0F9
:102DC000A3EAF0A3E9F0E4FFEFC39D501C900600D6
:102DD000E0FBA3E0FAA3E0F98F8275830012066797
:102DE000F460037F01220F80DF7F0022900672EDE6
:102DF000F0412C9006727401F0FF412C900246E0E5
:102E0000FF64026004EFB403037F01227F0022E02D
:102E1000FF75F0A7A4248BF582E5F03401F583EF6C
:102E20002583F583E0240AFD900776EBF0A3EAF012
:102E3000A3E9F0E4FFFEEEC39D5018900776E0FB97
:102E4000A3E0FAA3E0F98E827583001206672FFFD4
:102E50000E80E322900633EBF0A3EAF0A3E9F0A39F
:102E60007401F078377C06FD7BFF7A1379C57E000C
:102E70007F191206287B017A06793751249006368D
:102E8000EFF07022900633E0F9A3E0FAA3E0900996
:102E9000D3C9F0A3EAF0A3E9F0A3740CF07B017AA4
:102EA00006793D12216F900636E0FF22900690EFE2
:102EB000F0A3EBF0A3EAF0A3E9F078957C067D019E
:102EC0007BFF7A1279D57E007F641206289006F97E
:102ED0007401F0A37406F0A37495F0A37401F0904C
:102EE0000694E0FF601F9009D37401F0A37406F00C
:102EF000A37495F0A3EFF0900691E0FBA3E0FAA392
:102F0000E0F912216F900690E0FF7B017A06799537
:102F10007D015196EF70049006FCF09006FCE0FFF6
:102F2000229006947415F0E4FF8081900687EBF000
:102F3000A3EAF0A3E9F0A37401F0788B7C06FD7B93
:102F4000FF7A1379DE7E007F051206289009D3747C
:102F500001F0A37406F0A3748BF090068AE0900948
:102F6000D6F0900687E0FBA3E0FAA3E0F912216F08
:102F70007B017A06798B9006947401F0FFC1AC90C6
:102F80000633EFF0A3EDF0A3EBF0A3EAF0A3E9F032
:102F900078387C067D017BFF7A1379E37E007F23FE
:102FA0001206289009D37401F0A37406F0A37438B4
:102FB000F0900634E09009D6F0900635E0FBA3E0EF
:102FC000FAA3E0F912216F900633E0FF7B017A0645
:102FD0007938A3E0900694F0C1ACF090060EE0FBC7
:102FE000A3E0FAA3E0F9900003120667FFEFD39481
:102FF0006340037F0022EF75F00A84C454F0FEEFB3
:1030000075F00A84E5F02EFF22120667FFEFC45424
:103010000F75F00AA4FEEF540F2EFF22AC07AF0588
:10302000110DAD07AF04110DEF2DFF12064E2FFF4E
:10303000E41206C7EFC39464400974011206C77412
:103040009C2FFF80A890098AEBF0A3EAF0A3E9F097
:10305000E4900991F0A3F0900990E0FF900992E0CC
:10306000FEC39F5079EEFDC3EF9DFDE49400FCED9F
:1030700024FFFFEC34FFFE90098AE0FBA3E0FAA3F3
:10308000E0F98F828E83120667FFED24FFFDEC349A
:10309000FFFC90098DE0FBA3E0FAA3E0F98D828CA0
:1030A00083120667FD7B017A097991111C900992C0
:1030B000E0FD900990E0C39DFDE49400CD24FFCD98
:1030C00034FFFC90098AE0FBA3E0FAA3E0F98D82CB
:1030D0008C83EF1206D9900992E004F001572290F8
:1030E00004B0E0FCA3E0FDA3E0FEA3E0FF9005F444
:1030F0001209199004ACE0FCA3E0FDA3E0FEA3E0FC
:10310000FF9005F8120919E4FFFEFDFC9005F8E0B8
:10311000F8A3E0F9A3E0FAA3E0FBC31208C67030FD
:1031200074FFFFFEFDFC9005F4E0F8A3E0F9A3E0D6
:10313000FAA3E0FBC31208C66043E4FFFEFDFC9067
:1031400005F4E0F8A3A3A3E0C31208C67002802D23
:103150009005F4E0FCA3E0FDA3E0FEA3E02401FF62
:10316000E43EFEE43DFDE43CFCA3E0F8A3E0F9A36B
:10317000E0FAA3E0FBC31208C6600201DF9005F489
:10318000E0FCA3E0FDA3E0FEA3E0FF22C0E0C0F06E
:10319000C083C082C0D075D000C000C001C002C0D2
:1031A00003C004C005C006C0079005F1E5A7F0758F
:1031B000A70075B7559005F0E5B6F075B7003099E2
:1031C0003DC2999000A3E004F09000A2E0FFA3E0CC
:1031D000C39F502411DF9000AE1209199000A3E0A4
:1031E000247EF582E43401F583E0FF30D004D29BE5
:1031F0008002C29B8F99800690009F7408F03098DF
:103200000BC298AF99AD07E4FF12019675B75590C0
:1032100005F0E0F5B675B700A3E0F5A7D007D00636
:10322000D005D004D003D002D001D000D0D0D082BD
:10323000D083D0F0D0E0329004B0E0FCA3E0FDA356
:10324000E0FEA3E0FF9006001209199004ACE0FC38
:10325000A3E0FDA3E0FEA3E0FF900604120919E439
:10326000FFFEFDFC900604E0F8A3E0F9A3E0FAA35A
:10327000E0FBC31208C6703074FFFFFEFDFC900631
:1032800000E0F8A3E0F9A3E0FAA3E0FBC31208C64C
:103290006043E4FFFEFDFC900600E0F8A3A3A3E07A
:1032A000C31208C67002802D900600E0FCA3E0FD6A
:1032B000A3E0FEA3E02401FFE43EFEE43DFDE43C88
:1032C000FCA3E0F8A3E0F9A3E0FAA3E0FBC3120833
:1032D000C660024137900600E0FCA3E0FDA3E0FEDB
:1032E000A3E0FF22C0E0C0F0C083C082C0D075D090
:1032F00000C000C001C002C003C004C005C006C0B9
:10330000079005FDE5A7F075A70075B7559005FC7A
:10331000E5B6F075B70030D93DC2D990024AE00455
:10332000F0900249E0FFA3E0C39F50245137900280
:103330005512091990024AE02425F582E43403F578
:1033400083E0FF30D004D2DB8002C2DB8FD980065D
:103350009002467408F030D80BC2D8AFD9AD077FC1
:103360000112019B75B7559005FCE0F5B675B700E5
:10337000A3E0F5A7D007D006D005D004D003D00233
:10338000D001D000D0D0D082D083D0F0D0E032E0D5
:10339000FCA3E0FDA3E0FEA3E0FF90060F120919D5
:1033A00090060FE0FCA3E0FDA3E0FEA3E0FFA3E096
:1033B000F8A3E0F9A3E0FAA3E0FBC31208C6900665
:1033C00013E0503DF8C000C001C002C00390060FDA
:1033D000E0F8A3E0F9A3E0FAA3E0FBC374FF9BFFCE
:1033E00074FF9AFE74FF99FD74FF98FCD003D0021D
:1033F000D001D000EB2FFFEA3EFEE93DFDE83C8026
:1034000024FCA3E0FDA3E0FEA3E0FF90060FE0F89C
:10341000A3E0F9A3E0FAA3E0FBC3EF9BFFEE9AFE63
:10342000ED99FDEC98FCA3120919900617E0FCA396
:10343000E0FDA3E0FEA3E0FF900613E0F8A3E0F9AF
:10344000A3E0FAA3E0FBC31208C67F0140027F009D
:1034500022F0A3EAF0A3E9F0A37404F07B017A055B
:103460007983900985EBF0A3EAF0A3E9F0E49009F1
:103470008CF090098BE0FFA3E0FEC39F5047EEFD68
:10348000900985E0FBA3E0FAA3E07E002FF9EE3A75
:10349000FAE924FFF9EA34FFFAC3E99DF9EA940056
:1034A000FA12064EFF900988E0FBA3E0FAA3E0F9C8
:1034B00090098CE0F582758300EF1206D990098C93
:1034C000E004F080AD22900720EBF0A3EAF0A3E93E
:1034D000F0E4FFEFC39D5028900720E0FBA3E0FA43
:1034E000A3E0F98F82758300120667FE540FD39410
:1034F000095007EE54F0949040037F01220F80D3CF
:103500007F0022900626E0FF7E007C017DA7120648
:10351000FB74982FF974013EFA7B01900668E07EF7
:103520000029F9EE3AFA7D04900720EBF0A3EAF0C7
:10353000A3E9F0A3EDF0E4A3F0900723E0FFC313A9
:10354000FEA3E0C39E5078900720E0FBA3E0FAA31F
:10355000E0F9900724E0FEF582758300120667907B
:103560000725F0EF24FFFDE434FFFCEEFFC3ED9FE1
:10357000FFEC94008F82F583120667FF900724E02A
:10358000F582758300EF1206D9900725E0FF9007BA
:1035900023E024FFFDE434FFFCA3E0FBC3ED9BFD2F
:1035A000EC9400FC900720E0FBA3E0FAA3E0F98D87
:1035B000828C83EF1206D9900724E004F0A139220F
:1035C000900626E0FF7E007C017DA71206FB74902A
:1035D0002FF974013EFA7B0190066FEBF0A3EAF03D
:1035E000A3E9F012064EFF24A9F582E43404F58322
:1035F000E0C39403401074A92FF582E43404F583EA
:103600007403F07F01227B017A067973E4FD7F1257
:10361000FE121F26BF01037F012290066FE0FBA36D
:10362000E0FAA3E0F912064EFF7006900672F080F1
:103630001BEFB401089006727403F0800FEFB40220
:10364000089006727406F080037F0122E4FFEF24E5
:1036500001FDE433FC90066FE0FBA3E0FAA3E0F980
:103660008D828C83120667FE900672E02F2473F51C
:1036700082E43406F583E06E603812064EFE24A91B
:10368000F582E43404F583E004F074A92EF582E4B5
:103690003404F583E0C39403401512064E25E0245C
:1036A000CFF582E43404F5837405F0A374A0F07FB1
:1036B00001220FEFB4039790066FE0FBA3E0FAA39B
:1036C000E0F912064E24A9F582E43404F583E4F00F
:1036D000FF2224FEFFE434FFFE900663E0FD7C0041
:1036E0001206FB90065DE0FBA3E0FAA3E02FF9EAE7
:1036F0003EFA900988EBF0A3EAF0A3E9F0900663A4
:10370000E090098BF0900666E090098CF0900660DE
:10371000E0FBA3E0FAA3E0F9900985EBF0A3EAF05F
:10372000A3E9F0E490098DF090098BE0FF90098DFA
:10373000E0FEC39F400302383C90098CE064557062
:103740003A900988E0FBA3E0FAA3E0F98E82758342
:1037500000120667FD900985E0FBA3E0FAA3E0F9FB
:103760008E82758300120667FED39D40037F002280
:10377000EEC39D40030238337F012290098BE02481
:10378000FFFFE434FFFE90098DE0FDC3EF9DFFEEE7
:103790009400FE900988E0FBA3E0FAA3E0F98F8291
:1037A0008E83120667FF90098BE024FFFDE434FF4F
:1037B000FC90098DE0FBC3ED9BFDEC9400FC9009AF
:1037C00085E0FBA3E0FAA3E0F98D828C8312066703
:1037D000D39F40037F002290098BE024FFFFE43455
:1037E000FFFE90098DE0FDC3EF9DFFEE9400FE907B
:1037F0000988E0FBA3E0FAA3E0F98F828E8312062A
:1038000067FF90098BE024FFFDE434FFFC90098DF5
:10381000E0FBC3ED9BFDEC9400FC900985E0FBA36D
:10382000E0FAA3E0F98D828C83120667C39F5003F0
:103830007F012290098DE004F00237287F022212D6
:10384000064EFF900638E4F0A3EFF0E0F8E4F0E86D
:10385000900638F0900001120667FF900638E0FEEF
:10386000A3E04FFF900638EEF0FEA3EFF022117CAC
:103870009007801209197B017A057983900897EBEC
:10388000F0A3EAF0A3E9F0A312092500000000E488
:1038900090089EF090089AE0FCA3E0FDA3E0FEA350
:1038A000E0FF78081208EA90089A12091990089A1D
:1038B000E0F8A3E0F9A3E0FAA3E0FBC000C001C078
:1038C00002C003900897E0FBA3E0FAA3E0F9900898
:1038D0009EE0F582758300120667FFD003D002D008
:1038E00001D000EB4FFFEAFEE9FDE8FC90089A12D8
:1038F000091990089EE004F0E0B4049890089AE05A
:10390000FCA3E0FDA3E0FEA3E0FF22900780EBF024
:10391000A3EAF0A3E9F0E4900788F0900786E014AA
:10392000FF900786E0FEEFC39E400221FE900783D2
:10393000E0FBA3E0FAA3E0F98F827583001206672B
:10394000FE900788E02EFDE4900787F0EDC39E50BF
:10395000037401F0E4900788F0900780E0FBA3E097
:10396000FAA3E0F98F82758300120667FE540FFCFC
:10397000ED540FFBECC39B5034EEC39D900780E0E9
:10398000FB500E8F82758300120667FEC3749A8007
:1039900037A3E0FAA3E0F98F82758300120667C3AC
:1039A0009D24FA8F827583001206D9804490078087
:1039B000E0FBA3E0FAA3E0F98F82758300120667AB
:1039C000FEC39D5015C374A09D2E8F827583001277
:1039D00006D99007887401F08017900780E0FBA358
:1039E000E0FAA3E02FF9E43AFA12064EC39D12065C
:1039F000C7900787E06004A37401F01F2121229083
:103A00000765EBF0A3EAF0A3E9F0AB05A37401F0BE
:103A1000A31209250000000190076D12092500007E
:103A20000000E4900771F0EBD3940050026157EB73
:103A3000940540026157EBF0900771E0D394005079
:103A400002615790076DE0F8A3E0F9A3E0FAA3E064
:103A5000FBC000C001C002C003900765E0FBA3E00B
:103A6000FAA3E0F9900771E0FF7E00E92FF9EE3A42
:103A7000FA90FFFF120667540F75F00A84AFF0E466
:103A8000FCFD900769E0F8A3E0F9A3E0FAA3E0FBEE
:103A900012078ED003D002D001D000EB2FFFEA3EF8
:103AA000FEE93DFDE83CFC90076D1209199007699D
:103AB000E0FCA3E0FDA3E0FEA3E0FFE47B0AFAF94B
:103AC000F812078E90076912091990076DE0F8A3A4
:103AD000E0F9A3E0FAA3E0FBC000C001C002C0030C
:103AE000900765E0FBA3E0FAA3E0F9900771E0FF1F
:103AF0007E00E92FF9EE3AFA90FFFF12066754F0C4
:103B0000C4540FFFE4FCFD900769E0F8A3E0F9A3BB
:103B1000E0FAA3E0FB12078ED003D002D001D00060
:103B2000EB2FFFEA3EFEE93DFDE83CFC90076D12FD
:103B30000919900769E0FCA3E0FDA3E0FEA3E0FF04
:103B4000E47B0AFAF9F812078E90076912091990B6
:103B50000771E014F0413890076DE0FCA3E0FDA38D
:103B6000E0FEA3E0FF22900784EBF0A3EAF0A3E9D4
:103B7000F0900789120919900787E0A3F090078851
:103B8000E0D3940050028156E47B0AFAF9F8A3E0EE
:103B9000FCA3E0FDA3E0FEA3E0FF120819AF039031
:103BA0000784E0FBA3E0FAA3E0F9900788E0FD7C3E
:103BB00000E92DF9EC3AFA90FFFFEF1206D99007D1
:103BC00089E0FCA3E0FDA3E0FEA3E0FFE47B0AFAAA
:103BD000F9F8120819900789120919900784E0FB77
:103BE000A3E0FAA3E0F9900788E0FF7E00E92FF94F
:103BF000EE3AFAE924FFF9EA34FFFAC003C002C042
:103C00000112064EFFC007E47B0AFAF9F890078913
:103C1000E0FCA3E0FDA3E0FEA3E0FF120819AF0360
:103C2000EFC454F0FED0E04ED001D002D003120613
:103C3000C7900789E0FCA3E0FDA3E0FEA3E0FFE45A
:103C40007B0AFAF9F81208199007891209199007E6
:103C500088E014F0617D229006B0EBF0A3EAF0A3B7
:103C6000E9F0E49006B7F09006B6E0FFA3E0FEC3EB
:103C70009F4002A10A9006B0E0FBA3E0FAA3E0F99E
:103C80008E82758300120667FDC4540F9006B8F04B
:103C9000ED540FA3F0E4FF74B82FF582E43406F579
:103CA00083E0FEC3940A501074B82FF582E4340602
:103CB000F583E02430F08014EEC39410500E74B8F5
:103CC0002FF582E43406F583E02437F00FEFB402D9
:103CD000C69006B7E075F002A4FF9006B3E0FBA320
:103CE000E0FAA3E02FF9EA35F0FA9009D3EBF0A35C
:103CF000EAF0A3E9F0A37402F07B017A0679B81226
:103D0000216F9006B7E004F0816722C0D075D00023
:103D1000C006C007AFA775A70075B755AEB675B793
:103D20000075AA0075E80075B7558EB675B7008F97
:103D3000A7D007D006D0D032C0D075D000C006C002
:103D400007AFA775A70075B755AEB675B70053A8EE
:103D5000F753883F75B7558EB675B7008FA7D00754
:103D6000D006D0D032C0E0C0F0C083C082C0D075D1
:103D7000D000C000C001C002C003C004C005C0061E
:103D8000C0079005EFE5A7F075A70075B75590053A
:103D9000EEE5B6F075B7005388DF758AC0758CE024
:103DA000E5C730E607900527E04402F09004ACE058
:103DB000FCA3E0FDA3E0FEA3E0FFA312091974FF3A
:103DC000FFFEFDFC9004ACE0F8A3E0F9A3E0FAA349
:103DD000E0FBC31208C69004AC501EE0FCA3E0FD5B
:103DE000A3E0FEA3E02401FFE43EFEE43DFDE43C4D
:103DF000FC9004AC1209198007120925000000008C
:103E000075B7559005EEE0F5B675B700A3E0F5A7D8
:103E1000D007D006D005D004D003D002D001D00006
:103E2000D0D0D082D083D0F0D0E032C0D075D000D6
:103E3000C006C007AFA775A70075B755AEB675B772
:103E40000053A8DF53C83375B7558EB675B7008FCA
:103E5000A7D007D006D0D032C0D075D000C006C0E1
:103E600007AFA775A70075B755AEB675B70053A8CD
:103E7000BF53C11F75B7558EB675B7008FA7D00752
:103E8000D006D0D032C0E0C083C082C0D075D00090
:103E9000C005C006C007AFA775A70075B755AEB679
:103EA00075B700AD97759700ED30E31D90000AE0FF
:103EB00090000930E205E004F0800EE0FD9000087B
:103EC000E02DF0E004F0A3E4F075B7558EB675B7B9
:103ED000008FA7D007D006D005D0D0D082D083D015
:103EE000E032C0E0C083C082C0D075D000C006C040
:103EF00007AFA775A70075B755AEB675B70090FFA9
:103F0000B6E4F090FFB7F053A9FD75B7558EB6F53E
:103F1000B78FA7D007D006D0D0D082D083D0E032E0
:103F2000C0D075D000C006C007AFA775A70075B791
:103F300055AEB675B70053A9DF75C60075B7558E77
:103F4000B675B7008FA7D007D006D0D032C0E0C07A
:103F500083C082C0D075D000C004C006C007ACA723
:103F600075A70075B755AEB675B70090FFD0E05491
:103F7000FCF053A9FD75B755AF068FB675B700AF06
:103F8000048FA7D007D006D004D0D0D082D083D061
:103F9000E032900536E0FF22900CE77401F02290A9
:103FA000FF84E0FFEF54FFFF90FF84EFF090FF8568
:103FB000E0FFEF54FEFF90FF85EFF0000022F19F3D
:103FC00090FFE3E0FFEF4410FF90FFE3EFF043B01A
:103FD0001090FFE3E0FFEF4408FF90FFE3EFF043B2
:103FE000B0081200EC53B0EF1200EC53B0F722907F
:103FF0000CE074FFF0900CDFE4F0900CE0E0FF9038
:104000000CDFE0FEEEC39F5016123FBE7FA0121ED3
:104010006CEF7003021E03900CDFE004F080DB22E3
:10402000900CE1E4F0900CE27408F090FFE3E0FF04
:10403000EF4408FF90FFE3EFF090FFE3E0FFEF5461
:10404000EFFF90FFE3EFF053B0F7900CE2E4F09055
:104050000CE2E0FFEFC39408503F123F98900CE150
:10406000E0FFEF25E0FF900CE1EFF043B008E5B092
:1040700030E40E900CE1E0FFEF4401FF900CE1EF23
:10408000F0123F98900CE1E0FF900CE1EFF053B09C
:10409000F7900CE2E004F080B690FFE3E0FFEF441D
:1040A00010FF90FFE3EFF053B0EF43B0081200ECC5
:1040B00053B0F743B010900CE1E0FF22900CE3E422
:1040C000F0900CE4E4F090FFE3E0FFEF4408FF9091
:1040D000FFE3EFF090FFE3E0FFEF54EFFF90FFE32B
:1040E000EFF053B0F7900CE4E4F0900CE4E0FFEF55
:1040F000C394085035123F98900CE3E0FFEF25E0A1
:10410000FF900CE3EFF043B008E5B030E40E900C04
:10411000E3E0FFEF4401FF900CE3EFF0123F985310
:10412000B0F7900CE4E004F080C090FFE3E0FFEF14
:104130004410FF90FFE3EFF043B01043B0081200CB
:10414000EC53B0F7900CE3E0FF22900CADEEF0A33F
:10415000EFF0900CAFEBF0A3EAF0A3E9F0900CB80D
:10416000E4F0900CB2E0FFEF600B900CB2E0FFEFD8
:10417000D3942040037F0122900CADE0FEA3E0FF2A
:10418000D3EF94FFEE940140037F0122900CB2E044
:10419000FF7E00900CADE0FCA3E0FDEF2DFFEE3CB8
:1041A000FED3EF94FFEE94004013900CADE0FEA31D
:1041B000E0FFD3EF94FFEE940050024191123FBE16
:1041C000900CB2E0FF7E00900CADE0FCA3E0FDEFB0
:1041D0002DFFEE3CFED3EF94FFEE94005006900CC2
:1041E000B874A0F0900CADE0FEA3E0FFD3EF94FF15
:1041F000EE94004006900CB874A2F0900CB8E0FF6A
:10420000121E6CEF6006121E037F0122900CADE0BF
:10421000FEA3E0FF121E6CEF6006121E037F012258
:10422000900CAFE0FBA3E0FAA3E0F9900CB5EBF043
:10423000A3EAF0A3E9F0900CB3E4F0A3E4F0900C4F
:10424000B2E0FF7E00900CB3E0FCA3E0FDC3ED9F65
:10425000EC9E5035900CB5E0FBA3E0FAA3E0F91218
:10426000064EFF121E6CEF6006121E037F012290A5
:104270000CB6E475F001120762900CB4E004F07023
:1042800006900CB3E004F080B5121E03123FEF80DD
:10429000037F01227F0022900CC9740EF0900CC4A1
:1042A000EEF0A3EFF0900CC6EBF0A3EAF0A3E9F078
:1042B000900CC4E0FEA3E0FF900CCAEEF0A3EFF078
:1042C000900CC4E0FEA3E0FFEF5407FFC374089F07
:1042D000FF900CCCEFF0900CCDE4F0900CCCE0FF14
:1042E000900CC9E0FEEEC39F500A900CC9E0FF900D
:1042F0000CCCEFF0900CCAE0FEA3E0FF900CC6E0FF
:10430000FBA3E0FAA3E0F9900CCDE0FD7C00E92DE1
:10431000F9EA3CFA900CCCE0FD900CB2EDF0314A99
:10432000EFB401037F0122900CCCE0FF900CCDE0B4
:104330002FF0900CCDE0FF7E00900CC4E0FCA3E0D9
:10434000FDEF2DFFEE3CFE900CCAEEF0A3EFF090D7
:104350000CCDE0FF900CC9E0FEC3EE9FFF900CCCAB
:10436000EFF0900CCCE0FFEFD394084006900CCC1B
:104370007408F0900CCCE0FFEF600241F47F002263
:10438000900CCEEEF0A3EFF0900CD0EDF0900CD1AD
:10439000EBF0C2AF900CD0E0FF8FEF900CCEE0FEC0
:1043A000A3E0FFEF54FFF5EE900CCEE0FEA3E0FF9C
:1043B000EEFF7E008FF775A70175F26E75F3057538
:1043C000F40A75F509900CD1E0FFEFB4680775F6B3
:1043D000060000000075A70075F700D2AF22900913
:1043E00085EEF0A3EFF0A3EBF0A3EAF0A3E9F075FC
:1043F000E75575C7830000E5C730E6037FFF2290CD
:104400000535E0646860037FFF2290098AE0FEA31F
:10441000E0FF900986E02FFF900985E03EFED3EF94
:104420009400EE941040037FFF22D390098BE09418
:104430000090098AE094004045900987E0FBA3E0E2
:10444000FAA3E0F912064EFC900985E0FEA3E0FF16
:10445000AD047B687180900986E004F070069009D5
:1044600085E004F0900988E475F001120762900974
:104470008BE024FFF090098AE034FFF080AC7F00ED
:10448000228F828E83E4FFEDB4680DC2AF75A70161
:10449000E493FFE4F5A7D2AF22900535E04420F085
:1044A0007B017A077985900781E0FCA3E0FD900904
:1044B0008A7402F0A3E4F0900988ECF0A3EDF075A3
:1044C000E75575C7830000E5C730E6037FFF2290FC
:1044D000098AE0FEA3E0FF900989E02FFF90098898
:1044E000E03EFED3EF9400EE941040037FFF22D312
:1044F00090098BE0940090098AE09400403590097F
:1045000088E0FEA3E0FF7D689181EF1206C7740189
:1045100029F9E43AFA900989E004F07006900988D4
:10452000E004F090098BE024FFF090098AE034FF6A
:10453000F080BC7F0022E0FEA3E0FF7B68E4FD90FA
:104540000CD2EEF0A3EFF0900CD4EDF0900CD5EB84
:10455000F075E75575C7830000E5C720E65590055F
:1045600035E0FFEF6468704BC2AF900CD4E0FF8F72
:10457000EF900CD2E0FEA3E0FFEF54FFF5EE900CBD
:10458000D2E0FEA3E0FFEEFF7E008FF775A7017576
:10459000F2E675F30575F40A75F509900CD5E0FFA0
:1045A000EFB4680775F6060000000075A70075F700
:1045B00000D2AF2290FFE3E054FBF090FFF3E04421
:1045C00004F022B1B4900532E030E215E5B030E2FB
:1045D00002C162E04401F0E054FBF0E4900458F0C2
:1045E00022900532E030E061E5B020E26A900458A4
:1045F000E004F0E0FF7408D39F5067900532E04478
:1046000002F0E054FEF0E4900458F0900530E044ED
:1046100008F09004541209250000003C90044C74EA
:104620001EF0900459E0700B900460F090045974EF
:1046300068F022900460E004F090040BE0FF900426
:1046400060E0C39F401CE4F022900532E030E107B7
:10465000E5B030E20D8000E4900458F0900532742B
:1046600004F022120008900531E04401F022EF141A
:10467000601E047021D1D87FFFD19743D18090FF75
:10468000E0E04480F0438080E04402F04380022276
:10469000D1D8E4FFD19722E4FE74612EF582E43490
:1046A00004F583EFF00EEEB428EF7F007E25E4FDE5
:1046B00074612DF582E43404F583E0FCEF2DF5827E
:1046C000E43EF583ECF074612DF582E43404F58367
:1046D000E4F00DEDB428D92253D17FD1F690FF80BC
:1046E00074F0F090FF8174FCF090FF8374E0F09020
:1046F000FF8574FCF022E5D154706430600653D11C
:104700008F43D130E5D154076407600653D1F84395
:10471000D107E5D254076402600653D2F843D202AF
:10472000225380F700004380042243800800005396
:1047300080FB225380F7005380FB229004A7E060A7
:104740000FE014F0E0FF7E00BE0207BF40048000CF
:10475000F1332290079DE0FD9007A6EDF0E4FF7E87
:1047600008EF25E0FFEE7C0024FFF582EC34FFF536
:1047700083120667FD9007A6E05D60010FDEE2226E
:10478000900799EBF0A3EAF0A3E9F090079D74403D
:10479000F0E490079CF090079CE0FFC3940850362B
:1047A000EFB40404A37480F0900799E0FBA3E0FA4F
:1047B000A3E0F9F15390079CE0249EF582E43407CE
:1047C000F583EFF090079DE0FF1313543FF090073F
:1047D0009CE004F080C0900799E0F9A3E0FAA3E020
:1047E0009009D3C9F0A3EAF0A3E9F0A37408F07B21
:1047F000017A07799E02216F9007AF74FFF0A374CE
:104800000CF0A3740CF0A374FFF0A3740CF0A37469
:1048100044F0A37407F09007ACEBF0A3EAF0A3E92F
:10482000F0E4F5209007B604F09007B5E075F008C5
:10483000A42401FFE435F0FEA3E0FDC39FEE6480F5
:10484000F8748098507DE52025E0F520EDFF7E008E
:1048500024FFFDEE34FFFC9007AFE0FBA3E0FAA3DA
:10486000E0F98D828C83120667FD9007ACE0FBA314
:10487000E0FAA3E0F98D82758300120667FDEF244C
:10488000FFFFEE34FFFE9007B2E0FBA3E0FAA3E0E7
:10489000F98F828E831206675D600205209007B64D
:1048A000E0FF54077015EF131313541F24B6F5825D
:1048B000E43407F583E520F0E4F5209007B6E00442
:1048C000F001299007ACE0F9A3E0FAA3E09009D346
:1048D000C9F0A3EAF0A3E9F09007B5E09009D6F09B
:1048E0007B017A0779B702216F900799EBF0A3EA71
:1048F000F0A3E9F02404F9E43AFA9009D37401F042
:10490000A37407F0A374A0F0A37404F012216F90B5
:1049100007AF74FFF0A3740DF0A3741CF0A374FF31
:10492000F0A3740CF0A374ECF0A37406F07B017A8E
:104930000779A01116E490079FF090079FE0FF24ED
:10494000A0F582E43407F583C083C082E0FE9007BF
:104950009CE0FBA3E0FAA3E0F98F827583001206C6
:1049600067FFEE6FD082D083F090079FE004F0E005
:10497000B406C7E490079FF090079FE0FFC394023E
:10498000400241A0E0FE75F003A424A0F582E434C7
:1049900007F583E0FDC45430FCEE75F003A424A1B8
:1049A000F582E43407F583E0C4540F4CF520ED1391
:1049B00013543FFE90079FE0FD75F000A4248CF592
:1049C00082E5F0340DF583ED2583F583E5822EF540
:1049D00082E43583F583E493FE75F000EDA424CCE6
:1049E000F582E5F0340DF583ED2583F583E5822529
:1049F00020F582E43583F583E493FDEE4DFE9007C8
:104A00009FE0FD25E024A8F582E43407F583EEF06D
:104A1000ED75F003A424A1F582E43407F583E025C5
:104A2000E025E0543FFEED75F003A424A2F582E4F6
:104A30003407F583E0FDC4131354034EF520ED5401
:104A40003FFE90079FE0FD75F000A4244CF582E541
:104A5000F0340EF583ED2583F583E5822EF582E4AF
:104A60003583F583E493FE75F000EDA4240CF58204
:104A7000E5F0340EF583ED2583F583E5822520F5F9
:104A800082E43583F583E4934EFEEF25E024A9F517
:104A900082E43407F583EEF090079FE004F021787C
:104AA0009007AF74FFF0A3740DF0A3746CF0A374BF
:104AB000FFF0A3740DF0A3744CF0A37404F07B0119
:104AC0007A0779A81116E490079FF090079FE0FFFE
:104AD000C39404505B7E00EF2404FDEE33FC90078A
:104AE00099E0FBA3E0FAA3E0F98D828C83120667BC
:104AF000F52090079FE0FDF582758300120667FCA4
:104B000074A82DF582E43407F583E06CFD74042F5E
:104B1000F582E433F583ED1206D990079FE0F58224
:104B2000758300E5201206D990079FE004F0809B72
:104B300022900799EBF0A3EAF0A3E9F0A3EDF012BD
:104B4000064E90079DF090000112066790079EF0B8
:104B500090000212066790079FF09000031206670C
:104B600054F09007A0F0BD023390079DE0FCA3E055
:104B7000FDA3E0FEA3E0FF78011208EA90079D1272
:104B80000919900799E0FBA3E0FAA3E0F912064E99
:104B900030E7449007A0E04410F0803B90079DE090
:104BA000FCA3E0FDA3E0FEA3E0FF78011208D7908C
:104BB000079D1209199007A0E054F0F0900799E0C2
:104BC000FBA3E0FAA3E0F990000312066730E407C4
:104BD00090079DE04480F0900799E0FBA3E0FAA3E2
:104BE000E0F9900003120667540F9007A1F09000BF
:104BF000041206679007A2F090000512066790075E
:104C0000A3F09000061206679007A4F090079CE0BE
:104C10006402703D9007A1E0FCA3E0FDA3E0FEA3C9
:104C2000E0FF78011208EA9007A11209199007A184
:104C3000E0540FF0900799E0FBA3E0FAA3E0F990AD
:104C4000000312066730E33D9007A4E04401F080C2
:104C5000349007A1E0FCA3E0FDA3E0FEA3E0FF7811
:104C6000011208D79007A1120919900799E0FBA338
:104C7000E0FAA3E0F990000612066730E00790071B
:104C8000A1E04408F09007A0E0FFA3E0FEEF4E9003
:104C900007A0F09007A2E09007A1F09007A3E09092
:104CA00007A2F09007A4E09007A3F0900799E0F91D
:104CB000A3E0FAA3E09009D3C9F0A3EAF0A3E9F0D6
:0D4CC000A37407F07B017A07799D02216F34
:10800000EF14602104703BE5876003E4F587539823
:10801000F74398C0E4FF1195900776E599F05398DF
:10802000EC43A81022E5876003E4F58753D8F343B7
:10803000D8C07F011195900776E5D9F053D8EC436D
:10804000A90422EF14703DE5876003E4F58753D857
:10805000F343D8C090FFE3E054FEF090FFF3E05408
:10806000FEF090FFE3E04402F043B0027F0111957F
:108070007F0112019190060FE5D9F053D8FC43D847
:108080001043A90422E4FF11437F0111437F021131
:10809000437F0380AEEF14602C04704CE59D64CCEC
:1080A0006003759DCCE59C647F6003759C7FE59EB5
:1080B000540F64016006539EF0439E01E59C20E747
:1080C00027439C8022E5DD64F3600375DDF3E5DC86
:1080D000647F600375DC7FE59E54F06003539E0F60
:1080E000E5DC20E70343DC8022E4F5B1F5A8F5A93F
:1080F00012AC3212AD3112AD7D310D12915A12A770
:108100009B12AF631185F1E1D2AF7F00227B017A30
:1081100005792790098EE4F0A37410F0E4FD12268F
:10812000917B017A0479AC90098EE4F0A3743AF063
:10813000E4FD1226917B017A04790890098EE4F01F
:10814000A37481F0E4FD1226917B017A0579919068
:10815000098EE4F0A37410F0E4FD1226917B017AFD
:1081600000790890098EE4F0A37408F0E4FD12266B
:10817000917B017A00790090098EE4F0A37408F0F5
:10818000E4FD1226917B017A0479E690098EE4F0F1
:10819000A3740AF0E4FD1226917B017A0479F09031
:1081A000098EE4F0A37429F0E4FD1226917B017A94
:1081B0000479A390098EE4F0A37409F0E4FD12267B
:1081C000919005347401F0129E7C12B23212A1D249
:1081D00012B06012AF6412A55912A446E4900BC904
:1081E000F090052DE054FBF0E490045BF09005273F
:1081F000E04401F0900530E04403F0900408E0FF13
:108200007E007C037DE81206FB7C017DF412070DE5
:10821000E4FCFD9004541209199005327404F090A6
:108220000408E090044CF090044DF07B017A05794D
:108230002AE4FD7F0FFE121F26EF6005E490052A59
:10824000F090052AE030E60790052DE04420F0E4A8
:1082500090077EF0A3F07B017A077965FD7F11FE20
:10826000121F2690052AE030E56D7B017A077975AB
:1082700012386E900784120919900784E0FCA3E07D
:10828000FDA3E0FEA3E0FFEC4D4E4F60379007806A
:10829000E0F8A3E0F9A3E0FAA3E0FBC31208C640AC
:1082A0000F90077E7401F090052AE030E4298021C8
:1082B000E490077EF0A3F090052AE054DFF0E0544C
:1082C000EFF0801390077E7401F090052AE030E40F
:1082D0000690077F7401F07B017A07796512386E8A
:1082E000900784120919900784E0FCA3E0FDA3E045
:1082F000FEA3E0FF900780E0F8A3E0F9A3E0FAA373
:10830000E0FBC31208C65002810F90052EE0440125
:10831000F07B017A07796912387C9007801209197D
:10832000900784E0FCA3E0FDA3E0FEA3E0FF90073C
:1083300080E0F8A3E0F9A3E0FAA3E0FBC31208C6CB
:108340005002810690052EE020E104E04402F0E4B2
:10835000FFFEFDFC900784E0F8A3E0F9A3E0FAA398
:10836000E0FBC31208C6600261F090052EE020E237
:1083700004E04404F07B017A05798912387C900787
:1083800080120919E4FFFEFDFC900780E0F8A3E0ED
:10839000F9A3E0FAA3E0FBC31208C6600D90052E16
:1083A000E020E30DE04408F0800790052EE054F74C
:1083B000F07B017A07797112387C900784120919D1
:1083C000900784E0FCA3E0FDA3E0FEA3E0FF90079C
:1083D00080E0F8A3E0F9A3E0FAA3E0FBC31208C62B
:1083E00090052AE040054420F0803254DFF0802DD3
:1083F00090052EE054F7F090052AE054DFF0900548
:108400002EE054FB800F90052EE054E1F0800E909A
:10841000052EE054E0F090052AE054EFF090077E3E
:10842000E0B4010790052AE04420F090077FE0B413
:10843000010790052AE04410F090052AE030E50499
:10844000E04410F07B017A05792AE4FD7F0FFE02FB
:108450001A5778337C067D017BFF7A00794E7E00C7
:108460007F0712062812A9557B017A0379EDE4FDF6
:108470007F10FE121F26EF603C7B017A0379ED909E
:10848000098EE4F0A3741BF0E4FD1226919003F230
:108490007401F09003F8F09003FEF0900401F09066
:1084A0000404F0A374FFF07B017A0379EDE4FD7F0F
:1084B00010FE121A57122986E49004A0F07B017A6C
:1084C0000479A0122F2B7B017A0479897D187C0016
:1084D000121C7A9004A1EEF0A3EFF07B017A0479EC
:1084E00089E4FD7F1BFE121A577B017A0579919072
:1084F000098EE4F0A37410F0E4FD1226919005912A
:108500007403F0A37410F07B017A057991E4FD7F88
:108510000AFE121A579004087405F0A3F0A374071A
:10852000F0A3F07B017A047908E4FD7F19FE121AAA
:10853000577B017A04790E90098EE4F0A3743EF023
:10854000E4FD1226919009D37401F0A37404F0A302
:10855000740EF0A37407F07B017A06793312216F51
:108560009009D37401F0A37404F0A3742CF0A374E5
:1085700007F07B017A06793312216F7B017A047947
:108580000EE4FD7F1AFE121A577B017A05791990C5
:10859000098EE4F0A3740EF0E4FD12269190051B01
:1085A0007450F07B017A057919E4FD7F04FE121AFC
:1085B000577B017A0579A190098EE4F0A37419F034
:1085C000E4FD1226919005A37420F09005A7741085
:1085D000F09005A9F07B017A0579A1E4FD7F11FEF9
:1085E000121A577B017A06793A90098EE4F0A37447
:1085F00009F0E4FD1226917B017A06793AE4FD7FC9
:1086000012FE121A577B017A0479A990098EE4F0C0
:10861000A37403F0E4FD1226911201A07B017A04F9
:1086200079CF90098EE4F0A37408F0E4FD1226914E
:10863000E490052AF07B017A05792AFD7F0FFE126E
:108640001A57E490052EF090052DF07B017A0479FD
:10865000F090098EF0A37429F0E4FD1226917B01BD
:108660007A057909E4FD7F13FE121A579004F0E4AD
:10867000F0A37405F07B017A0479F0E4FD7F15FE28
:10868000121A57514F90052FE030E009900528E06D
:1086900020E002E1E09004A7E06002E1E090052E16
:1086A000E020E52AE030E10790052AE030E21F9063
:1086B000052EE030E20790052AE030E31190052A0C
:1086C000E020E50AE020E406E020E102E1829005F6
:1086D0002EE030E51812915F90052EE054DFF09007
:1086E000052DE04420F0A3E04480F0E1BF90052E8A
:1086F000E030E70B90052DE030E502E1BFE190901E
:10870000052AE020E04990052DE030E50CE020E569
:1087100002E1BFE020E602E1BF12472A9004A774FD
:1087200058F090052AE020E1147B017A0C795690EC
:10873000098EE4F0A37404F07DFF1226917F0412E9
:10874000917E90052DE04420F0E054BFF0807090C1
:10875000052DE030E5691247219004A77458F07F99
:108760000512917E90052AE054FDF090052DE0540D
:10877000DFF07B017A05792AE4FD7F0FFE121A579C
:10878000803D90052EE030E71390052DE020E52F89
:1087900012915F90052DE04420F0802390052DE09C
:1087A00030E51C90052AE054FDF090052DE054DFE3
:1087B000F01247219004A77458F07F0512917E9023
:1087C000052DE090052A30E505E044408003E054A3
:1087D000BFF07B017A05792AE4FD7F0FFE121A575C
:1087E00022E4900611F07FAA128F3D759560E4F5A2
:1087F00096F59753A9FE43B48090064C12092500C4
:108800000000E87F331288F17F057E0012288A90ED
:10881000064C12092500000C847F3211F1E4900609
:1088200011F0900611E0FE75F005A42439F582E4FC
:108830003418F583E493FFC007EE75F005A4243ADD
:10884000F582E43418F58312090990064C120919CF
:10885000D00711F1900611E004F0E0C3942040C26B
:108860007B017A0C7968E4FD7F06FE121F26E490F6
:108870000611F0900611E0FE75F005A424D9F582EA
:10888000E43418F583E493FFC007EE25E025E024E7
:1088900068F582E4340CF583E0FCA3E0FDA3E0FE80
:1088A000A3E0FF90064C120919D00711F1900611B0
:1088B000E004F0E0C3940540BA7F647E0012288A89
:1088C00090064C120925000000357F3011F17F55CC
:1088D000F13D90064C12092500A000C17F3111F135
:1088E0007FF47E0112288AE4F59775960843A90162
:1088F0002290064BEFF0A3E0FCA3E0FDA3E0FEA373
:10890000E0FFA3120919E4F5917F06FE1229DCC2EB
:10891000AF900651E0F592A3E0F593A3E0F5940043
:108920000000000000000000000000000000000047
:108930000000000000000090064BE04480F5917FAD
:10894000067E001229DCD2AF22900649EFF0C00764
:10895000900645E0FCA3E0FDA3E0FEA3E0FF900647
:108960004C120919D00711F1900649E0B43618905D
:108970000645E0FCA3E0FDA3E0FEA3E0FF90064C6B
:108980001209197F3611F1E490064AF090064AE088
:10899000FFC394055052EF75F005A424D9F582E485
:1089A0003418F583E493FF900649E0FEEFB50630F6
:1089B000900645E0FCA3E0FDA3E0FEA3E0FF9006E7
:1089C0004AE025E025E02468F582E4340CF58312C2
:1089D00009197B017A0C7968E4FD7F06FE021A57BB
:1089E00090064AE004F080A422900638EFF075F07B
:1089F000A7A4249BF582E5F03401F5832FF583E0ED
:108A0000FFE4FCFDFE78181208EA90063A120919F4
:108A100090063AE0F8A3E0F9A3E0FAA3E0FBC00077
:108A2000900638E0FF75F0A7A4249AF582E5F034AB
:108A300001F583EF2583F583E0FFE4FCFDFE78106C
:108A40001208EAD000EB4FFFEA4EFEE94DFDE84C7C
:108A5000FC90063A12091990063AE0F8A3E0F9A34F
:108A6000E0FAA3E0FBC000900638E0FF75F0A7A491
:108A70002499F582E5F03401F583EF2583F583E051
:108A8000FFE4FCFDFE78081208EAD000EB4FFFEA95
:108A90004EFEE94DFDE84CFC90063A12091990068D
:108AA0003AE0F8A3E0F9A3E0FAA3E0FB900638E08F
:108AB000FF75F0A7A42498F582E5F03401F583EF63
:108AC0002583F583E0FFEB4FFFEAFEE9FDE8FC902C
:108AD000063A1209199006397405F0E4F090063947
:108AE000E0FD75F005A424D9F582E43418F583E49B
:108AF00093FF7E00C006C007ED75F005A424DAF5EB
:108B000082E43418F583120909900645120919D038
:108B100007D0063149900639E004F0E0C3940540DF
:108B2000BCE4900639F0900639E0FBC39403502F63
:108B3000EB25E02411F582E43419F583E493FE7407
:108B40000193FFE4FCFDEB25E025E0245AF582E4E7
:108B5000340CF583120919900639E004F080C77BC4
:108B6000017A0C795AE4FD7F08FE121A5790063AF2
:108B7000E0FCA3E0FDA3E0FEA3E0FF9006451209A0
:108B8000197F487E002149900628EFF0E4900637CF
:108B9000F0900628E0FF75F0A7A4248CF582E5F09C
:108BA0003401F583EF2583F583E0FFE4FCFDFE90BF
:108BB0000633120919900633E0F8A3E0F9A3E0FAAE
:108BC000A3E0FBC000900628E0FF75F0A7A4248D69
:108BD000F582E5F03401F583EF2583F583E0FFE4CA
:108BE000FCFDFE78081208EAD000EB4FFFEA4EFECB
:108BF000E94DFDE84CFC900633120919900633E06C
:108C0000F8A3E0F9A3E0FAA3E0FBC000900628E097
:108C1000FF75F0A7A4248EF582E5F03401F583EF0B
:108C20002583F583E0FFE4FCFDFE78101208EAD00E
:108C300000EB4FFFEA4EFEE94DFDE84CFC90063399
:108C4000120919900633E0F8A3E0F9A3E0FAA3E0D3
:108C5000FBC000900628E0FF75F0A7A4248FF582E2
:108C6000E5F03401F583EF2583F583E0FFE4FCFDB7
:108C7000FE78181208EAD000EB4FFFEA4EFEE94DED
:108C8000FDE84CFC900633120919900628E0FD75AA
:108C9000F0A7A4248DF582E5F03401F583ED25835A
:108CA000F583E0FF900629E4F0A3EFF0E07F00FEFB
:108CB000900629F0A3EFF075F0A7EDA4248CF582BF
:108CC000E5F03401F583ED2583F583E0FDEDFF90BC
:108CD0000629EEF0A3EFF0900628E0FF75F0A7A4B8
:108CE000248AF582E5F03401F583EF2583F583E0EE
:108CF000642E6002A1AD900629E0FEA3E0FF12976A
:108D0000B890062B12091990062BA3A3A3E0FF909D
:108D10000628E0FB75F0A7A42490F582E5F0340165
:108D2000F583EB2583F583EFF090062BE0FCA3E0C1
:108D3000FDA3E0FEA3E0FF78081208D775F0A7EBCB
:108D4000A42491F582E5F03401F583EB2583F583C6
:108D5000EFF090062BE0FCA3E0FDA3E0FEA3E0FF14
:108D600078101208D7900628E0FB75F0A7A424928B
:108D7000F582E5F03401F583EB2583F583EFF09080
:108D8000062BE0FCA3E0FDA3E0FEA3E0FF781812B1
:108D900008D775F0A7EBA42493F582E5F03401F52C
:108DA00083EB2583F583EFF0E4900637F0900628F7
:108DB000E0FF75F0A7A4248AF582E5F03401F5837D
:108DC000EF2583F583E0642F6002E13775F0A7EFAC
:108DD000A4249BF582E5F03401F583EF2583F58328
:108DE000E0FFE4FCFDFE78181208EA90062F120955
:108DF0001990062FE0F8A3E0F9A3E0FAA3E0FBC086
:108E000000900628E0FF75F0A7A4249AF582E5F00B
