:020000040000FA
:09000000020F60023FDB22222204
:0F000B00024035EF240A83900100730A2D5073D1
:06001B0002400800002273
:03002300022A02AC
:03002B000240FB95
:030033000241285F
:03003B000241552A
:030043000241B2C5
:10004B00022B5AE4FFFE12064E600C0FEF70010EEE
:10005B0009E970F20A80EF220241F0E4FF121EA6BA
:06006B00123976021EF6B8
:1000730002421D9009EF1208FD7810EC4D4E4F70AF
:10008300047CA57DA5C3EC13FCED13FDEE13FEEF7D
:1000930013FF5010EC64CCFCED644CFDEE644EFE9B
:1000A300EF64CEFFD8DF9009EF120919EE547FFEFB
:1000B300229009EFEEF0EFA3F0A374A5F0A3F022D2
:1000C300300100000C0333020012300004002C3412
:1000D3000006000E1D0008000C1E000A000C0002A2
:1000E300060A0E05020404040401020A0B090304B0
:0700F30001020A0B090304DE
:10010000C0087401C0E0C082C08375080AC0F085D1
:10011000A8F0C2AF75B75575B61175B70085F0A8D0
:10012000D0F022C0087401C0E0C082C08375082DE1
:10013000C0F085A8F0C2AF75B75575B61175B70098
:1001400085F0A8D0F022C0087401C0E0C082C0834E
:10015000750850C0F085A8F0C2AF75B75575B622C6
:1001600075B70085F0A8D0F022C0087401C0E0C0C7
:1001700082C083750873C0F085A8F0C2AF75B7550B
:1001800075B63375B70085F0A8D0F02290800021B5
:10019000469082A021469083AC21469085E021467E
:1001A000909C8E2146909AFD214690D41D21469028
:1001B000D2F92146909DC521239080E9212390AA60
:1001C0009321239080432123908000212390845207
:1001D000212390A7BC212390AAE8212390970421F2
:1001E00023908B4D212390865E212390824F2123E3
:1001F0009097DC212390A0E0212300020543E864CE
:1002000080F8E933E83360110460F0ED33EC3370CB
:1002100009E8FCE9FDEAFEEBFF220460DED3EB9F78
:10022000EA9EE99DE8C2E78CF0C2F795F0400CE841
:10023000CCF8E9CDF9EACEFAEBCFFB12050E85D06A
:10024000F05804700320D5B3E80470075002B2D50B
:1002500002054D92D5EC0460F7E4CCC0E0C398F8F9
:10026000603B94186008400DD0E0FB020525E4FBDC
:10027000FAC9FC8028E830E406E4C9FBE4CAFCE8DB
:1002800030E305E4C9CACBFCE854076010F8C3E9C1
:1002900013F9EA13FAEB13FBEC13FCD8F130F52F4A
:1002A000C3E49CFCEF9BFFEE9AFEED99FDD0E0FBD2
:1002B000EF4E4D4C701222DB0302054AEC2CFCEF92
:1002C00033FFEE33FEED33FDED30E7EB020525EFB6
:1002D0002BFFEE3AFEED39FDD0E0FB50130BBB00D7
:1002E0000302054DED13FDEE13FEEF13FFEC13FCBF
:1002F000020525EC4D6011E8497017ED33EC33042D
:10030000600DE4FCFFFEFD22E933E8330470F802DF
:10031000054312050E58046009E4CC2481500628D8
:10032000500902054D28400302054AC0E0EB4A701F
:1003300044B98006D0E0FB020539EF4E701CBD8049
:1003400008EBFFEAFEE9FD80EBE98DF0A4FEE5F0A5
:100350000203DCE9CDF9EAFEEBFFEF89F0A4FCE54E
:10036000F0CE89F0A42EFFE435F0CD89F0A42DFE67
:10037000E435F08067EF4E7005BD80D780C3EF8B0A
:10038000F0A4ACF0EE8BF0A42CFCE435F0F8EF8A8E
:10039000F0A42CE5F038FCE433CB8DF0A42CFCE584
:1003A000F03BF8EE8AF0A42CFCE5F038F8E433CF0B
:1003B00089F0A42CFCE5F038CF3400CE89F0A42FCE
:1003C000FFE5F03EFEE433C98DF0A42EFEE5F039E2
:1003D000CD8AF0A42FFFE5F03EFEE43DFD33D0E0F2
:1003E000FB50070BBB000F02054DEC2CFCEF33FF5D
:1003F000EE33FEED33FD02052502054DEC5D046094
:1004000005E85904700302054312050E580460F60E
:10041000EC4860F2EC7004FDFEFF22C860DB248132
:10042000C85009C3986002500602054A9850CAF5A0
:1004300082E9294B4A7005AB8202053975F0007CD0
:100440001A7880C3EF9BEE9AED99400DC3EF9BFFA6
:10045000EE9AFEED99FDE842F0DC23ACF0D0E0FF2F
:10046000D0E0FED0E0FDAB8220E7101BEB60BAECE1
:100470002CFCEF33FFEE33FEED33FD020525E803E0
:10048000F830E705C0F075F000EF2FFFEE33FEED1A
:1004900033FD40B830E7C280AA75F020800E75F0B9
:1004A00010800575F0087D007E007F003392D53006
:1004B000D5031208B8EC334010EF33FFEE33FEEDF6
:1004C00033FDEC33FCD5F0ED22E5F0247EA2D5130C
:1004D000CC92E7CDCEFF22EDD2E7CD33EC3392D5EF
:1004E00024814006E4FFFEFDFC22FCE4CFCECDCC0F
:1004F00024E0501174FF80EDC3CC13CCCD13CDCECE
:1005000013CECF13CF0470F030D5DE0208B8E9D295
:10051000E7C933E833F892D5EDD2E7CD33EC33FCBD
:100520005002B2D522EC30E7100FBF000C0EBE0017
:10053000080DBD00040BEB6014A2D5EB13FCED928B
:10054000E7FD2274FFFCFDFEFF22E480F8A2D574D3
:10055000FF13FC7D80E480EFE709F608DFFA8046B0
:10056000E709F208DFFA803E88828C83E709F0A36E
:10057000DFFA8032E309F608DFFA8078E309F2084F
:10058000DFFA807088828C83E309F0A3DFFA80644D
:1005900089828A83E0A3F608DFFA805889828A83F9
:1005A000E0A3F208DFFA804C80D280FA80C680D4C3
:1005B000806980F28033801080A680EA809A80A8CB
:1005C00080DA80E280CA803389828A83ECFAE493FD
:1005D000A3C8C582C8CCC583CCF0A3C8C582C8CC8B
:1005E000C583CCDFE9DEE7800D89828A83E493A3AB
:1005F000F608DFF9ECFAA9F0EDFB2289828A83EC98
:10060000FAE0A3C8C582C8CCC583CCF0A3C8C58214
:10061000C8CCC583CCDFEADEE880DB89828A83E44C
:1006200093A3F208DFF980CC88F0EF60010E4E60F2
:10063000C388F0ED2402B4040050B9F582EB240223
:10064000B4040050AF23234582239005A873BB0157
:100650000689828A83E0225002E722BBFE02E3225F
:1006600089828A83E49322BB010CE58229F582E525
:10067000833AF583E0225006E92582F8E622BBFEA4
:1006800006E92582F8E222E58229F582E5833AF53A
:1006900083E49322BB010FF8E58229F582E5833AD2
:1006A000F583E028F0225009C58229F8E58226F674
:1006B00022BBFE09C58229F8E22582F222F8EA254A
:1006C00083F583E9932822BB010689828A83F0227D
:1006D0005002F722BBFE01F322F8BB010DE582298F
:1006E000F582E5833AF583E8F0225006E92582C8D1
:1006F000F622BBFE05E92582C8F222EF8DF0A4A800
:10070000F0CF8CF0A428CE8DF0A42EFE22BC000BDE
:10071000BE0029EF8DF084FFADF022E4CCF875F037
:1007200008EF2FFFEE33FEEC33FCEE9DEC98400516
:10073000FCEE9DFE0FD5F0E9E4CEFD22EDF8F5F0DC
:10074000EE8420D21CFEADF075F008EF2FFFED33E4
:10075000FD4007985006D5F0F222C398FD0FD5F062
:10076000EA22C5F0F8A3E028F0C5F0F8E58215828A
:1007700070021583E038F022A3F8E0C5F025F0F010
:10078000E582158270021583E0C838F0E822E88F10
:10079000F0A4CC8BF0A42CFCE98EF0A42CFC8AF005
:1007A000EDA42CFCEA8EF0A4CDA8F08BF0A42DCC07
:1007B0003825F0FDE98FF0A42CCD35F0FCEB8EF060
:1007C000A4FEA9F0EB8FF0A4CFC5F02ECD39FEE446
:1007D0003CFCEAA42DCE35F0FDE43CFC2275F0088B
:1007E000758200EF2FFFEE33FECD33CDCC33CCC579
:1007F0008233C5829BED9AEC99E58298400CF58294
:10080000EE9BFEED9AFDEC99FC0FD5F0D6E4CEFB05
:10081000E4CDFAE4CCF9A88222B800C1B90059BAF3
:10082000002DEC8BF084CFCECDFCE5F0CBF9781821
:10083000EF2FFFEE33FEED33FDEC33FCEB33FB101B
:10084000D703994004EB99FB0FD8E5E4F9FA227835
:1008500018EF2FFFEE33FEED33FDEC33FCC933C947
:1008600010D7059BE99A4007EC9BFCE99AF90FD851
:10087000E0E4C9FAE4CCFB2275F010EF2FFFEE3371
:10088000FEED33FDCC33CCC833C810D7079BEC9AB0
:10089000E899400AED9BFDEC9AFCE899F80FD5F039
:1008A000DAE4CDFBE4CCFAE4C8F922CFF4CFCEF4FD
:1008B000CECDF4CDCCF4CC22C3E49FFFE49EFEE485
:1008C0009DFDE49CFC22EB9FF5F0EA9E42F0E99D41
:1008D00042F0E89C45F022E8600FECC313FCED13F6
:1008E000FDEE13FEEF13FFD8F122E8600FEFC333E4
:1008F000FFEE33FEED33FDEC33FCD8F122E0FCA338
:10090000E0FDA3E0FEA3E0FF22E493FC740193FD6D
:10091000740293FE740393FF22ECF0A3EDF0A3EEB8
:10092000F0A3EFF022A8828583F0D083D082120951
:100930003C12093C12093C12093CE473E493A3C540
:1009400083C5F0C583C8C582C8F0A3C583C5F0C5FB
:1009500083C8C582C822D083D082F8E49370127411
:100960000193700DA3A393F8740193F5828883E437
:10097000737402936860EFA3A3A380DFD083D08257
:10098000E4937012740193700DA3A393F874019310
:10099000F5828883E4737402936C70127403936D10
:1009A000700C7404936E70067405936F60DDA3A3DE
:1009B000A3A3A3A380CAE3F5F009E208B5F06D6034
:1009C0006B80F3E3F5F009E608B5F060605E80F354
:1009D00087F009E608B5F054605280F487F009E228
:1009E00008B5F048604680F488828C8387F009E07F
:1009F000A3B5F038603680F488828C8387F009E4F0
:100A000093A3B5F027602580F388828C83E3F5F00B
:100A100009E0A3B5F016601480F388828C83E3F5B7
:100A2000F009E493A3B5F004600280F2020AE180C9
:100A30008580E7808E80D2803C8015806C807E80AF
:100A40009B80B5808B80A1804F8070803A020AED38
:100A500089828A83ECFAE493F5F0A3C8C582C8CCF6
:100A6000C583CCE493A3C8C582C8CCC583CCB5F0FC
:100A700070606E80E189828A83E493F5F0A3E208D6
:100A8000B5F05E605C80F289828A83E0F5F0A3E6CF
:100A900008B5F04D604B80F389828A83E0F5F0A3BE
:100AA000E208B5F03C603A80F389828A83E493F5EA
:100AB000F0A3E608B5F02A602880F2805389828A84
:100AC00083ECFAE493F5F0A3C8C582C8CCC583CC07
:100AD000E0A3C8C582C8CCC583CCB5F00460028051
:100AE000E27FFFB5F0020F2240027F012289828A55
:100AF00083ECFAE0F5F0A3C8C582C8CCC583CCE08E
:100B0000A3C8C582C8CCC583CCB5F0D560D380E37B
:100B100089828A83ECFAE0F5F0A3C8C582C8CCC507
:100B200083CCE493A3C8C582C8CCC583CCB5F0B14F
:100B300060AF80E288F0ED2402B4040050A3F58297
:100B4000EB2402B4040050992323458223900A2FFA
:100B50007354544D3A4144562D4F4E0D0A0054548F
:100B60004D3A5343414E2D4F4E0D0A0054544D3AC9
:100B7000434F4E4E454354494E470D0A0054544D81
:100B80003A434F4E4E45435445440D0A0054544D8C
:100B90003A424C455F49444C450D0A0054544D3A85
:100BA0004552500D0A0054544D3A4F4B0054544D89
:100BB0003A45525000535441540045414456004474
:100BC0004144560044434F4E004D41432D3F004D9C
:100BD00041432D00444E4D2D3F0052454E2D0054B3
:100BE000504C2D0054504C2D3F0054544D3A0D0A9A
:100BF00000FF0BB500000000100001FF0BBAFF0B57
:100C0000A600000002FF0BBFFF0BA600000003FFC1
:100C10000BC4FF0BA600000008FF0BC9000000007A
:100C20000C0809FF0BCFFF0BA60C00000AFF0BD42A
:100C3000000000000C080BFF0BDAFF0BA60C0000F5
:100C400010FF0BDFFF0BA605000011FF0BE40000F7
:100C50000000050800000000000000000000000087
:100C60000000000000000000000000000000000084
:100C70000000000000000000000000000000000074
:100C80000000000000000000000000000000000064
:100C90000000000000000000000000000000000054
:100CA0000000000000000000000000000000000044
:100CB0000000000000000000000000000000000034
:100CC0000000000000000000000000000000000024
:100CD0000000000000000000000000000000000014
:100CE0000000000000000000000000000000000004
:100CF00000000000000000000000000000000000F4
:100D000000000000000000000000000000000000E3
:100D100000000000000000000000000000000000D3
:100D200000000000000000000000000000000000C3
:100D300000000000000000000000000000000000B3
:100D400000000000000000000000000000000000A3
:100D50000000000000000000000000000000000093
:100D60000000000000000000000000000000000083
:100D70000000000000000000000000000000000073
:100D80006028098E303F3106325B334F3466356D53
:100D9000367D3707387F396F4177427C4339553E7E
:100DA0004930507346714F3F74787A494709870A32
:100DB0000F19326496C860E007F2000000000A0ACA
:100DC0000000000101000A0A00010002000A0E0EE4
:100DD00000000003010A0E0E0001000400180E0EB0
:100DE0000000000501180E0E000100060026161670
:100DF000000000070126161600010008003C0E0E38
:100E000000000009013C0E0E0001000A004A10100B
:100E10000000000B014A10100001000C005A0D01E7
:100E20000101000D00670D010101000E00740404B2
:100E30000101000F0078030300010010007B1B1B61
:100E400000010011009619190001001200AF0B0BF0
:100E50000001001300BA10100101001400CA0606B8
:100E60000001001500D005050101001600D5080895
:100E70000001001700DD08080001001800E51A1A3B
:100E80000001001901AC06060001001A01B23E3E45
:100E90000001001B01921A1A00014C09B60B510BFC
:100EA0005E0B6C0B7D0B8D0B9C4209C40BA642099B
:100EB000C20BAD0002054322EDA2E7D2E7F9EC3305
:100EC00040F260F3B4FF08ED547F70E802054DF87E
:100ED0002481C2E0C0E0F40428FAC313FCED92E7D9
:100EE000FD900430120919EEA2E7E9BA7F02C3139C
:100EF00034009400FA75F091A4E5F013F494FE8A9E
:100F0000F0A433E5F033248CD313FDE492E7FE7FA5
:100F1000007C3F758302ECC0E0F8EDC0E0F9EEC064
:100F2000E0FAEFC0E0FB8583F09004301208FD8505
:100F3000F0831203FCD0E0FBD0E0FAD0E0F9D0E07F
:100F4000F8120202ED6480FD30E7011CD583C7ED85
:100F500033CC33F8D0E0A2E71328C313CC13FD221F
:100F6000787FE4F6D8FD75812012010A020FAA02EB
:100F70001A8DE493A3F8E493A34003F68001F208EA
:100F8000DFF48029E493A3F85407240CC8C333C4C6
:100F9000540F4420C8834004F456800146F6DFE431
:100FA000800B0102040810204080900D80E47E0137
:100FB0009360BCA3FF543F30E509541FFEE493A3A4
:100FC00060010ECF54C025E060A840B8E493A3FAB6
:100FD000E493A3F8E493A3C8C582C8CAC583CAF042
:100FE000A3C8C582C8CAC583CADFE9DEE780BE07D9
:100FF00006050403020100070605040302010007B9
:10100000060504030201000706050407060504039C
:101010000201000706050403020100070605040398
:101020000201000302010080808080808080804077
:1010300040404040404040202020202020202010E0
:10104000101010020202020202020204040404044C
:101050000404040808080808080808101010100103
:10106000020102000000030100020102020100036C
:10107000000100030201000506030405060304063F
:101080000504050506040604060505060403030415
:101090008020018008201002040840022010104027
:1010A0000101022010084080100208020204012001
:1010B000088001108002014008044040100801012E
:1010C0000102020202020201020202020202010104
:1010D0008040201008100804020180018040201088
:1010E0000810080402018001804020100810080444
:1010F00002018001804020100810080402018003D2
:1011000000000000000000000000010001010101DA
:1011100001010101010102010202020202020202B6
:101120000202030203030303030303030303000197
:10113000021008081010808002024008400240405F
:1011400001010401202080200804040420108001F3
:101150000002020301030200010203000203010076
:10116000000201030300010201030002010003E089
:101170000040F0D070104020E0F020B0D08010305F
:10118000A0A06060C0C0B05090905000307080400F
:10119000F010C0E0808020D04060902010B070F04F
:1011A00050C0B0903070E030A0A000506000D00F70
:1011B00003010D08040E07060F0B020308040E09B5
:1011C0000C070002010D0A0C060009050B0A0500B8
:1011D0000D0E08070A0B010A03040F0D0401020596
:1011E0000B08060C07060C09000305020E0F09A0E8
:1011F000D000709000E09060303040F06050A0105F
:1012000020D080C05070E0B0C040B020F08010D03E
:101210001060A040D090008060F09030800070B0EE
:101220004010F020E0C03050B0A050E02070C00767
:101230000D0D080E0B03050006060F09000A030139
:101240000402070802050C0B010C0A040E0F090A20
:1012500003060F090000060C0A0B01070D0D080F0D
:1012600009010403050E0B050C02070802040E20F9
:10127000E0C0B0402010C07040A070B0D0601080BE
:1012800050500030F0F0A0D0300090E080906040EE
:10129000B0208010C0B070A010D0E0702080D0F0DE
:1012A0006090F0C000509060A030400050E0300CE2
:1012B0000A010F0A040F020907020C0609080500BB
:1012C000060D01030D040E0E00070B05030B0809A4
:1012D000040E030F02050C020908050C0F030A0790
:1012E0000B000E04010A0701060D000B08060D4055
:1012F000D0B00020B0E070F04000908010D0A0305E
:10130000E0C030905070C05020A0F060801060109D
:101310006040B0B0D0D080C010304070A0E070A06D
:1013200090F050600080F000E05020903020C00D20
:1013300001020F080D0408060A0F030B0701040A37
:101340000C090503060E0B0500000E0C0907020729
:10135000020B01040E010709040C0A0E08020D001D
:101360000F060C0A090D000F0303050506080BFF05
:10137000F0020027353002444453592F5536363693
:1013800020444C2F54003634352D323030372D3137
:1013900034000000000102F201000000040001001E
:1013A0000100000102F2010000000400010002003F
:1013B000000102F60100000004000100900201019A
:1013C0000394010000000400010090020001038E5C
:1013D000010000000400010090020001038E0100E2
:1013E0000000040001033006010103290100000090
:1013F000040001028000200103250100020C04000A
:1014000001040004010101F90000100006000104BC
:101410000004020101FF00001006060001040004A0
:101420000E0102050000100C06000103300100014E
:1014300003DF01000000040101033302010103E3A3
:1014400001000000040101040010010103AC0000D0
:101450001100040001040010020103B00000110497
:10146000040001040010040103B40000110804008A
:1014700001040010030103B80000110C0400010472
:101480000010050103BC0000111004000104090B49
:10149000010103C00000111403000104800010FFCB
:1014A000136F010000000801000400040DFF138108
:1014B000010000001001000400040BFF137701007D
:1014C00000000A010004000C0100000000001200EE
:1014D00004010004000C02000000000012030401DB
:1014E0000004000C030000000000120604010004C8
:1014F00000030801021400001900010000040003A9
:10150000020102150000190101000004000301019D
:101510000216000019020100000400030501021771
:10152000000019030100000404010101021A000077
:101530001A000101000404020101023800001A1E11
:101540000101000400030601020E00001015030053
:10155000010400030701020B000010120300010246
:1015600001010001002E0100000002000102020141
:101570000001004D01000000030001020300000112
:101580000069010000000300010203010001006D79
:10159000010000000300010206000001008A0100B2
:1015A00000000200010206010001008E010000009F
:1015B0000200010280000201009A01000000020006
:1015C00001070000FF070001FF070101FF070102FB
:1015D000FF070103FF070301FF070002FF200E1EA4
:1015E0001E18300810040404040416110000000042
:1015F000111100B0990184D401FF8430020C80FAEB
:10160000000380FA00000084000084D6960004D60F
:10161000822404DC010C04DC030C8432010C04D6AB
:10162000820004D6830004D684000082000804D619
:101630008C0004D6000004D6880004D6940004D69A
:10164000970000C0000000B0880000B08C0000B01F
:10165000940000B0970004B2010C010203000011D5
:10166000892312329B462457AD653674BF8C489D42
:10167000C1AF5ABED3CA6CDBE5E97EF8F710810131
:10168000083393221A56A5472C75B7643E9CC98D22
:1016900040BFDBAE52DAEDCB64F9FFE876210230D1
:1016A0008B02101399672676AF443455BDAD4ABC02
:1016B000C38E589FD1EB6EFAE7C87CD9F5318320F1
:1016C0000A1291031877A7662E54B5453CBDCBACE2
:1016D000429ED98F50FBEFEA66D8FDC9744204538D
:1016E0008D6116709F042015A9273236BBCE4CDFC2
:1016F000C5ED5EFCD7886899E1AB7ABAF3528543B1
:101700000C7197601E14A1052837B3263ADECDCFA1
:1017100044FDDFEC5698E98960BBFBAA7263067250
:101720008F4014519D252234AB063017B9EF4EFE81
:10173000C7CC5CDDD5A96AB8E38A789BF173876270
:101740000E5095411C35A3242A16B10738FFCFEE61
:1017500046DCDDCD54B9EBA8629AF98B708408950C
:1017600081A71AB693C22CD3A5E13EF0B708401961
:10177000C92B523ADB4E645FED6D767CFF94898510
:1017800000B79BA612D2ADC324F1BFE03618C10941
:10179000483BD32A5A5EE54F6C7DF76C7EA50AB4B0
:1017A0008386189791E32EF2A7C03CD1B529423821
:1017B000CB0A501BD96F667EEF4C745DFDB58BA4D0
:1017C0000296998710F3AFE226D0BDC13439C32801
:1017D0004A1AD10B587FE76E6E5CF54D7CC60CD76C
:1017E00085E51EF497802891A1A33AB2B34A445BE1
:1017F000CD695678DF0C601DE92F723EFBD68DC790
:1018000004F59FE41690A98120B3BBA2325AC54BC0
:101810004C79D7685E1CE10D683FF32E7AE70EF62F
:1018200087C41CD595A12AB0A3823893B16B467AA0
:10183000CF485459DD2D623CEB0E701FF9F78FE64F
:1018400006D49DC514B1ABA02292B983307BC76A80
:101850004E58D5495C3DE32C6A1EF10F78252626AB
:1018600027161627181717181818171628281616C7
:10187000162827262627272726250303252525037F
:1018800008070708080807060505060606050505F2
:10189000040404050503030100010202030301001F
:1018A000010202030301000102020303010001021D
:1018B000020303010001020203030100010202000E
:1018C0000000000102F2040201000100000102F226
:1018D000040201000200000102F6040201040004F7
:1018E000010101F9030002040004010101FC0300ED
:1018F00002040004020101FF0300020400040201CB
:1019000002020300020400040E01020503000204A7
:1019100000040E01020803000202800020010325DA
:101920000404010090020001038E040201009002F1
:1019300001010394040201040010010103AC04023C
:1019400001040010020103B004020104090B0101AB
:1019500003C00304030201010001001D030203028E
:1019600002010001003D03030302030000010059CE
:101970000304030203010001005D030403020600E7
:101980000001007A0203050206010001007E020345
:10199000050280000201009A020205040004090108
:1019A000009C030003FFFFFFFF0000000000003663
:1019B00000000000370000000038000000003A007E
:1019C0000000003B000000003C000000003D00FD66
:1019D00027003E000000003F000000004000000023
:1019E0000041000000004200000000440000001B15
:1019F0004500000000460000000047000001804B49
:101A0000000001FF500000000051000000045200DF
:101A100000000053000000005400000000550000CA
:101A20000000560000000057000000005A0080002F
:101A3000005B007FF547600000055D61007FF546B3
:101A400062007FF5467C007FF5467D007FF54648C5
:101A50000000018234000000003500000000390061
:101A6000000000430000001B30000000353100A0E2
:101A700000C13200000C8433000000E80034093556
:101A80000D390C0F0A10091BD3000000001201B918
:101A9000BF01031201BE51DE9002C0E0F8A3E0F9DD
:101AA000A3E0FAA3E0FBC31208C66003E4F5B1515A
:101AB000DE9002C01209191201DC12018C1201D74A
:101AC0001201AF1201B412000680CBF583E0FCA333
:101AD000E0FDA3E0FEA3E0FF9004161209199002B6
:101AE000BCE0FCA3E0FDA3E0FEA3E0FF90046312D2
:101AF00009199002B8E0FCA3E0FDA3E0FEA3E0FF1B
:101B0000900467120919E4FFFEFDFC900467E0F8F9
:101B1000A3E0F9A3E0FAA3E0FBC31208C670307497
:101B2000FFFFFEFDFC900463E0F8A3E0F9A3E0FAF8
:101B3000A3E0FBC31208C66043E4FFFEFDFC900473
:101B400063E0F8A3A3A3E0C31208C67002802D903F
:101B50000463E0FCA3E0FDA3E0FEA3E02401FFE4B6
:101B60003EFEE43DFDE43CFCA3E0F8A3E0F9A3E085
:101B7000FAA3E0FBC31208C6600241DE900463E0F2
:101B8000FCA3E0FDA3E0FEA3E0FF227B017A037942
:101B9000867D047C00B1EF90038CEEF0A3EFF07B28
:101BA000017A037986E4FD7F17FE71CB7B017A0011
:101BB00079107D047C00B1EF900016EEF0A3EFF0F9
:101BC0007B017A007910E4FD7F16FE900695EDF01A
:101BD000A3EBF0A3EAF0A3E9F0900693EEF0A3EFF5
:101BE000F09006997401F0E490069BF0A3F0C3EF27
:101BF000941CEE94004002A1BEE490069AF0900678
:101C00009AE0FFC3941C4002A1BE75F008EFA42423
:101C1000F2F582E5F03407F583E0FEA3E0FF9006DD
:101C200093E0FCA3E0FDEF6D7002EE6C6002A1B6E4
:101C3000EDAE047803C333CE33CED8F9FF24F8F5E4
:101C40008274073EF583E0600281DA900696E0FB3D
:101C5000A3E0FAA3E0F974F72FF58274073EF58349
:101C6000E024FEFDE434FFFCB1EF90069BEEF0A310
:101C7000EFF090069BE0FD900693E0FEA3E0780372
:101C8000C333CE33CED8F924F7F58274073EF583FB
:101C9000E024FEFFE434FFFE900696E0FBA3E0FAAA
:101CA000A3E0F98F828E83ED1206D990069BA3E004
:101CB000FD900693E0FEA3E07803C333CE33CED885
:101CC000F924F7F58274073EF583E07E0024FFF5E2
:101CD00082EE34FFF583ED1206D9900693E0FEA361
:101CE000E07803C333CE33CED8F924F4F5827407F9
:101CF0003EF583E0FEA3E0FF900695E0FD7C00EF5B
:101D00002DFFEC3EFEC006C007A3E0FBA3E0FAA354
:101D1000E0F9900693E0FEA3E07803C333CE33CE20
:101D2000D8F924F7F58274073EF583E09009E2F0D4
:101D3000D007D00612445BEF6002A1BE900699F076
:101D4000900693E0FEA3E07803C333CE33CED8F9F8
:101D5000FF24F9F58274073EF583E0706174FC2F6F
:101D6000F58274073EF583E0FEA3E0FF900695E060
:101D7000FD7C00EF2DFFEC3EFEC006C007A3E0FB9C
:101D8000A3E0FAA3E0F9900693E0FEA3E07803C392
:101D900033CE33CED8F924FFF58274073EF583E0C5
:101DA0009009E2F0D007D00612445BEF6010900675
:101DB000997401F0800890069AE004F061FE9006A4
:101DC00099E0FF221222A8900421E0FF7E009004F7
:101DD00023EEF0A3EFF0FD900420E0FFED9004234C
:101DE000CFF0A3EFF07B017A0479147D0C7C009096
:101DF00006D9EBF0A3EAF0A3E9F0A3ECF0A3EDF031
:101E0000E4A3F0A3F09006DC74FFF5F01207784528
:101E1000F060429006D9E0FBA3E475F00112077868
:101E2000A9F0FA12064EFF9006DEE0FCA3E0FDEDFD
:101E30006F25E0FFE433FE745D2FF58274163EF5E6
:101E400083ECFFE493FE7401936FFF9006DEEEF0E7
:101E5000A3EFF080B09006DEE0FEA3E0FF22E0FFFB
:101E6000A3E0900692CFF0A3EFF07D0690068EEBF4
:101E7000F0A3EAF0A3E9F0A3EDF0122820EF70033D
:101E80007F012290068EE0FBA3E0FAA3E0F9A3E035
:101E9000FD7C00B1EF900692E06E7003A3E06F7FCF
:101EA0000060027F0122900414EFF0E4A3F07B01B4
:101EB0007A0279959002ADE0FFA3E0900692CFF010
:101EC000A3EFF07D18D16CEF7006900414E0702041
:101ED0007B017A027995E4FD7F1BFE122022BF016F
:101EE000069004157401F0F18B123A547F01F11D34
:101EF000900415E0FF227F01F11D7F147E00F1A9FF
:101F0000124262EF64036014EF60119002F1E0D3BB
:101F100094024008E4F0F18B7F01F11D2290042D22
:101F2000EFF0782E7C047D017BFF7A0D791C7E001A
:101F30007F141206289004457401F0900442F0A327
:101F40007404F0A3742EF090042DE0FF7B017A045A
:101F5000792E123AADEF702D9009C4E0FEA3E0AAED
:101F600006F97BFFC003C002900442E0FBA3E0FA45
:101F7000A3E0F8AC02AD03D002D003120B34EF7033
:101F800004900445F0900445E0FF2290FFE5E04412
:101F900001F043E9017F967E00F1A990FFE5E0445E
:101FA00001F053E9FE7FF47E019004CFEEF0A3EF41
:101FB000F0A3120925000000009004CFE0FEA3E08A
:101FC000FF7C007D131206FBE4FDA3E0F8A3E0F91B
:101FD000A3E0FAA3E0FBC31208C6502412323290E9
:101FE00004D1E0FCA3E0FDA3E0FEA3E02401FFE4B4
:101FF0003EFEE43DFDE43CFC9004D112091980B999
:1020000022900461E075F00EA42499F582E5F03485
:1020100013F583E493FE740193FF7B017A04791F27
:10202000E4FD900690EDF0A3EBF0A3EAF0A3E9F055
:1020300090068EEEF0A3EFF09006947401F0E4A306
:10204000F0A3F09006D7F0A3F0C3EF941CEE940039
:1020500040024145E4900695F0900695E0FFC39458
:102060001C4002414575F008EFA424F2F582E5F02A
:102070003407F583E0FEA3E0FF90068EE0FCA3E0CA
:10208000FDEF6D7002EE6C6002413D900696F0909F
:10209000068EE0FEA3E07803C333CE33CED8F92416
:1020A000F4F58274073EF583E0FEA3E0FF9006900E
:1020B000E0FD7C00EF2DFFEC3EFEC006C0077B017B
:1020C0007A06799790068EE0FEA3E07803C333CEBC
:1020D00033CED8F924F7F58274073EF583E09009F2
:1020E000D7F0D007D00651A8EF6401707890068E23
:1020F000E0FEA3E07803C333CE33CED8F9FF24F952
:10210000F58274073EF583E0704D74FC2FF5827400
:10211000073EF583E0FEA3E0FF900690E0FD7C0023
:10212000EF2DFFEC3EFEC006C0077B017A067997D3
:1021300090068EE0FEA3E07803C333CE33CED8F909
:1021400024FFF58274073EF583E09009D7F0D007AD
:10215000D00651A8BF010E900696E004F0E0C394AB
:10216000035002018F900696E0C3940340037F0161
:102170002290068EE0FEA3E07803C333CE33CED8A0
:10218000F9FF24F8F58274073EF583E0706D74F76B
:102190002FF58274073EF583E0FF2496F582E43440
:1021A00006F583E0FD9006D7E4F0A3EDF074952FDB
:1021B000F582E43406F583E0FE9006D7E04EF0A306
:1021C000E0F07B017A06799790068EE0FEA3E07836
:1021D00003C333CE33CED8F924F7F58274073EF526
:1021E00083E024FEFDE434FFFC121DEF9006D7E0EF
:1021F0006E7003A3E06F60037F0122900691E0F907
:10220000A3E0FAA3E09006DCC9F0A3EAF0A3E9F0AA
:1022100090068EE0FEA3E07803C333CE33CED8F928
:1022200024F7F58274073EF583E09006DFF07B012A
:102230007A0679975165E4900694F08008900695A7
:10224000E004F00159900694E0FF2251659006DC0D
:102250007401F0A37403F0A37409F0A37404F07B79
:10226000017A03798E9006D9EBF0A3EAF0A3E9F0A6
:10227000E4FF9006DFE0FEEFC39E502B9006D9E00E
:10228000FBA3E0FAA3E0F98F82758300120667FED4
:102290009006DCE0FBA3E0FAA3E0F98F82758300EF
:1022A000EE1206D90F80CB229009D2EEF0A3EFF008
:1022B0009009D4EBF0A3EAF0A3E9F09009D8E4F098
:1022C0009009D7E0FFEF70037F01229009D7E0FF6C
:1022D0007E009009D2E0FCA3E0FDEF2DFFEE3CFE76
:1022E000D3EF94FFEE940140037F01229009D2E0E6
:1022F000FEA3E0FFEEFF7E00EF54FFFF9009D9EF51
:10230000F09009D9E0FFEF25E0FF9009D9EFF0D177
:10231000039009D9E0FFEF24A0FFB16AEF600571D7
:10232000C07F01229009D2E0FEA3E0FFB16AEF6016
:102330000571C07F0122D1039009D9E0FFEF24A1EC
:10234000FFB16AEF600571C07F01229009D4E0FB04
:10235000A3E0FAA3E0F99009DAEBF0A3EAF0A3E92D
:10236000F09009D9E4F09009D7E0FFEF14FF90094D
:10237000D9E0FEEEC39F502412439C9009DAE0FBA3
:10238000A3E0FAA3E0F99009D9E0FE8E82758300FC
:10239000EF1206D99009D9E004F080CA12431090D8
:1023A00009DAE0FBA3E0FAA3E0F99009D9E0FE8E98
:1023B00082758300EF1206D971C09009D8E0FF2220
:1023C000900A01E4F090FFE3E0FFEF54EFFF90FF8D
:1023D000E3EFF0900A017414F0900A01E0FFEFD3EC
:1023E00094004015E5B020E41043B008D13353B059
:1023F000F7900A01E014F080E090FFE3E0FFEF4483
:1024000010FF90FFE3EFF090FFE3E0FFEF4408FFE1
:1024100090FFE3EFF053B0EF53B0F7D13343B00880
:10242000D13343B010229009C6EEF0A3EFF090092B
:10243000C8EBF0A3EAF0A3E9F09009D1E4F0900929
:10244000CBE0FFEF600B9009CBE0FFEFD39420408F
:10245000037F01229009C6E0FEA3E0FFD3EF94FFC3
:10246000EE940140037F01229009CBE0FF7E0090B3
:1024700009C6E0FCA3E0FDEF2DFFEE3CFED3EF9498
:10248000FFEE940040139009C6E0FEA3E0FFD3EFF7
:1024900094FFEE94005002A164D1039009CBE0FFB9
:1024A0007E009009C6E0FCA3E0FDEF2DFFEE3CFEB0
:1024B000D3EF94FFEE940050069009D174A0F090F1
:1024C00009C6E0FEA3E0FFD3EF94FFEE94004006C0
:1024D0009009D174A2F09009D1E0FFB16AEF6005D4
:1024E00071C07F01229009C6E0FEA3E0FFB16AEF50
:1024F000600571C07F01229009C8E0FBA3E0FAA348
:10250000E0F99009CEEBF0A3EAF0A3E9F09009CC52
:10251000E4F0A3E4F09009CBE0FF7E009009CCE06A
:10252000FCA3E0FDC3ED9FEC9E50339009CEE0FB91
:10253000A3E0FAA3E0F912064EFFB16AEF6005715D
:10254000C07F01229009CFE475F001120762900963
:10255000CDE004F070069009CCE004F080B771C0C3
:10256000D14480037F01227F00229009F3EFF09095
:1025700009F4E4F09009F5E4F090FFE3E0FFEF44A4
:1025800008FF90FFE3EFF053B0F790FFE3E0FFEFB9
:102590004410FF90FFE3EFF09009F5E4F09009F5A7
:1025A000E0FFEFC3940850309009F3E0FFEF30E70D
:1025B0000543B010800353B0EF43B0089009F3E037
:1025C000FFEF25E0FF9009F3EFF012430953B0F756
:1025D0009009F5E004F080C512000890FFE3E0FFE9
:1025E000EF54EFFF90FFE3EFF043B008120008E56F
:1025F000B030E4069009F47401F053B0F79009F498
:10260000E0FF2212443690FFE3E0FFEF4410FF901A
:10261000FFE3EFF043B01090FFE3E0FFEF4408FF6B
:1026200090FFE3EFF043B008D13353B0EFD1335311
:10263000B0F7229009FF7401F09009FFE0FF14F059
:10264000EF70F6229009F974FFF09009F8E4F09029
:1026500009F9E0FF9009F8E0FEEEC39F5013D103A3
:102660007FA0B16AEF700261C09009F8E004F080C9
:10267000DE2290048D7401F0A37407F0A374DAF0E5
:10268000900488E0900490F0900484E0FBA3E0FACA
:10269000A3E0F990048AEBF0A3EAF0A3E9F0900636
:1026A000DC7401F0A37404F0A3749BF0A37408F02D
:1026B00090048DE0FBA3E0FAA3E0F9516590048A51
:1026C000E0FBA3E0FAA3E0F91249407B017A047928
:1026D0009B1249B8E4900491F0E4900492F09004C5
:1026E00091E0FF9010BF93FE900492E0C39E501CB7
:1026F000900490E0FDB40103EF60117B017A04794E
:102700009B124CF1900492E004F080D29006DC74AD
:1027100001F0A37404F0A37493F0A37408F07B0198
:102720007A04799B51659004B974FFF0A37410F09A
:10273000A3745FF0A374FFF0A37410F0A3748FF080
:10274000A37406F07B017A0479931249D69004A60B
:102750007401F0A37404F0A37493F090048AE0FB76
:10276000A3E0FAA3E0F9124AA9E4F5B1900491E0DC
:1027700004F0E0C394105002C1D990048AE0FBA396
:10278000E0FAA3E0F99004A3EBF0A3EAF0A3E9F0E8
:10279000E4F5B19004A704F012064E9004AFF09057
:1027A00000041206679004AEF090000112066790D4
:1027B00004ADF09000051206679004ACF0900002A2
:1027C0001206679004ABF09000061206679004AA08
:1027D000F09000031206679004A9F090000712061B
:1027E000679004A8F0E49004A6F07B017A0479A82D
:1027F0001249139004A3E0FBA3E0FAA3E0F9A3E0DD
:10280000F582758300EF1206D99004A7E025E0F069
:102810009004A6E004F0E0C3940840CEE4F5B122B1
:10282000900694EBF0A3EAF0A3E9F0E4FFEFC39D78
:10283000501B900694E0FBA3E0FAA3E0F98F8275A9
:10284000830012066760037F01220F80E07F002271
:10285000F0900419E0FBA3E0FAA3E0F99000031262
:102860000667FFEFD3946340037F0022EF75F00A01
:1028700084C454F0FEEF75F00A84E5F02EFF22AC1C
:1028800007AF0511ACAD07AF0411ACEF2DFF120679
:102890004E2FFFE41206C7EFC3946440097401127F
:1028A00006C7749C2FFF80BB120667FFEFC4540F4E
:1028B00075F00AA4FEEF540F2EFF22900693EBF062
:1028C000A3EAF0A3E9F0E490069AF0A3F090069949
:1028D000E0FF90069BE0FEC39F5079EEFDC3EF9DA5
:1028E000FDE49400FCED24FFFFEC34FFFE90069322
:1028F000E0FBA3E0FAA3E0F98F828E83120667FF64
:10290000ED24FFFDEC34FFFC900696E0FBA3E0FA1B
:10291000A3E0F98D828C83120667FD7B017A06792C
:102920009A117F90069BE0FD900699E0C39DFDE41F
:102930009400CD24FFCD34FFFC900693E0FBA3E090
:10294000FAA3E0F98D828C83EF1206D990069BE002
:1029500004F001CD229002BCE0FCA3E0FDA3E0FE68
:10296000A3E0FF9003FF1209199002B8E0FCA3E076
:10297000FDA3E0FEA3E0FF900403120919E4FFFEAB
:10298000FDFC900403E0F8A3E0F9A3E0FAA3E0FB68
:10299000C31208C6703074FFFFFEFDFC9003FFE019
:1029A000F8A3E0F9A3E0FAA3E0FBC31208C6604372
:1029B000E4FFFEFDFC9003FFE0F8A3A3A3E0C31235
:1029C00008C67002802D9003FFE0FCA3E0FDA3E0A9
:1029D000FEA3E02401FFE43EFEE43DFDE43CFCA355
:1029E000E0F8A3E0F9A3E0FAA3E0FBC31208C66095
:1029F0000221559003FFE0FCA3E0FDA3E0FEA3E06D
:102A0000FF22C0E0C0F0C083C082C0D075D000C03B
:102A100000C001C002C003C004C005C006C00790CA
:102A200003FCE5A7F075A70075B7559003FBE5B665
:102A3000F075B70030993DC2999000A3E004F09082
:102A400000A2E0FFA3E0C39F502431559000AE12D6
:102A500009199000A3E024B6F582E43400F583E080
:102A6000FF30D004D29B8002C29B8F9980069000D9
:102A70009F7408F030980BC298AF99AD07E4FF122D
:102A8000019675B7559003FBE0F5B675B700A3E066
:102A9000F5A7D007D006D005D004D003D002D001CE
:102AA000D000D0D0D082D083D0F0D0E0329002BC21
:102AB000E0FCA3E0FDA3E0FEA3E0FF90040B1209FD
:102AC000199002B8E0FCA3E0FDA3E0FEA3E0FF90B4
:102AD000040F120919E4FFFEFDFC90040FE0F8A3B7
:102AE000E0F9A3E0FAA3E0FBC31208C6703074FF5C
:102AF000FFFEFDFC90040BE0F8A3E0F9A3E0FAA3CD
:102B0000E0FBC31208C66043E4FFFEFDFC90040B2B
:102B1000E0F8A3A3A3E0C31208C67002802D9004BE
:102B20000BE0FCA3E0FDA3E0FEA3E02401FFE43EF4
:102B3000FEE43DFDE43CFCA3E0F8A3E0F9A3E0FAE9
:102B4000A3E0FBC31208C6600241AD90040BE0FC99
:102B5000A3E0FDA3E0FEA3E0FF22C0E0C0F0C0833D
:102B6000C082C0D075D000C000C001C002C003C088
:102B700004C005C006C007900408E5A7F075A700CB
:102B800075B755900407E5B6F075B70030D93DC26A
:102B9000D9900150E004F090014FE0FFA3E0C39F03
:102BA000502451AD90015B120919900150E024634B
:102BB000F582E43401F583E0FF30D004D2DB8002FB
:102BC000C2DB8FD9800690014C7408F030D80BC25C
:102BD000D8AFD9AD077F0112019B75B75590040797
:102BE000E0F5B675B700A3E0F5A7D007D006D0058D
:102BF000D004D003D002D001D000D0D0D082D08376
:102C0000D0F0D0E032E0FCA3E0FDA3E0FEA3E0FFC3
:102C100090041A12091990041AE0FCA3E0FDA3E045
:102C2000FEA3E0FFA3E0F8A3E0F9A3E0FAA3E0FB32
:102C3000C31208C690041EE0503DF8C000C001C099
:102C400002C00390041AE0F8A3E0F9A3E0FAA3E0BD
:102C5000FBC374FF9BFF74FF9AFE74FF99FD74FF22
:102C600098FCD003D002D001D000EB2FFFEA3EFE4B
:102C7000E93DFDE83C8024FCA3E0FDA3E0FEA3E0E9
:102C8000FF90041AE0F8A3E0F9A3E0FAA3E0FBC385
:102C9000EF9BFFEE9AFEED99FDEC98FCA31209194B
:102CA000900422E0FCA3E0FDA3E0FEA3E0FF90047B
:102CB0001EE0F8A3E0F9A3E0FAA3E0FBC31208C604
:102CC0007F0140027F002290033BE054FDF07B0136
:102CD0007A0979137D041201A57B017A097917908D
:102CE0000697E4F0A37404F0E4FD900693EBF0A3E0
:102CF000EAF0A3E9F0A3EDF0E4FFFED3900698E03C
:102D00009F900697E09E401F900696E0FD900693E8
:102D1000E0FBA3E0FAA3E0F98F828E83ED1206D9DF
:102D20000FBF00010E80D422900476EBF0A3EAF0EE
:102D3000A3E9F0A3EDF0D3946440037F0122900453
:102D4000807401F0A37407F0A37458F09006DC744B
:102D500001F0A37407F0A374EAF0A37408F09004E0
:102D60007AE0FBA3E0FAA3E0F91222657B017A077F
:102D700079DAE4FD7F13FE122022BF01037F0122D6
:102D8000900480E0F9A3E0FAA3E09006DCC9F0A388
:102D9000EAF0A3E9F0900479E09006DFF090047681
:102DA000E0FBA3E0FAA3E0F9122265900480E0FBC7
:102DB000A3E0FAA3E0F9900479E0FFF582758300BF
:102DC00074801206D97E00E92FF9EE3AFAE924015F
:102DD000F9E43AFA900697E4F0A37407F0E4FD9161
:102DE000EA900479E0131313541F0490047FF0E475
:102DF000FD74EA2DF582E43407F583C083C082E0D8
:102E0000FF900480E0FBA3E0FAA3E0F98D827583D4
:102E100000120667FEEF6ED082D083F00DEDB4088D
:102E2000D0E490047EF090047FE014FF90047EE0F4
:102E3000C39F506F90048D7401F0A37407F0A374C6
:102E4000DAF0A37402F07B017A0779EA122693E4A0
:102E5000FD74EA2DF582E43407F583C083C082E077
:102E6000FC90047EE02401FFE433FEEF7803C333DB
:102E7000CE33CED8F9FFED7A002FFFEA3EFE900464
:102E800080E0FBA3E0FAA3E0F98F828E831206674D
:102E90006CD082D083F00DEDB408B690047EE004CF
:102EA000F080837B017A0779EA9004877402F0E46A
:102EB000FFF10190047DE06401703B900476E0FB3B
:102EC000A3E0FAA3E0F9A3E0FF7E00E92FF9EE3AD0
:102ED000FA900691EBF0A3EAF0A3E9F0A37404F0F2
:102EE000A37455F07B017A0779EA123298BF020386
:102EF0007F00227F01227F00229004877401F07FEF
:102F000006900484EBF0A3EAF0A3E9F0EF64066016
:102F1000147B017A0779DAE4FD7F13FE122022BFC9
:102F200001037F0122900487E0B40209A37402F038
:102F3000A314F080099004887401F0A304F0122611
:102F40007290048D7401F0A37407F0A374E2F09002
:102F500004891226831226727F002290041AE075DB
:102F6000F0ADA424BAF9740035F0FA7B01E075F0F5
:102F7000ADA424C3F582E5F03400F583E0240AFD16
:102F800090041DEBF0A3EAF0A3E9F0E4FFFEEEC32A
:102F90009D501890041DE0FBA3E0FAA3E0F98E8297
:102FA0007583001206672FFF0E80E32235F0FA903A
:102FB00006917401F0A3EAF0A3E9F0A37406F07B94
:102FC000017A0179F990068EEBF0A3EAF0A3E9F01B
:102FD000E4900695F0900694E0FFA3E0FEC39F50B6
:102FE00047EEFD90068EE0FBA3E0FAA3E07E002F03
:102FF000F9EE3AFAE924FFF9EA34FFFAC3E99DF958
:10300000EA9400FA12064EFF900691E0FBA3E0FA64
:10301000A3E0F9900695E0F582758300EF1206D9DA
:10302000900695E004F080AD22900466EBF0A3EAF0
:10303000F0A3E9F0E4FFEFC39D5028900466E0FBA5
:10304000A3E0FAA3E0F98F82758300120667FE54AD
:103050000FD394095007EE54F0949040037F01225F
:103060000F80D37F002290041DE075F0ADA424D022
:10307000F9740035F0FA7B0190045FE07E0029F9D5
:10308000EE3AFA7D04900471EBF0A3EAF0A3E9F0C4
:10309000A3EDF0E4A3F0900474E0FFC313FEA3E0FB
:1030A000C39E5078900471E0FBA3E0FAA3E0F9908E
:1030B0000475E0FEF582758300120667900476F0D1
:1030C000EF24FFFDE434FFFCEEFFC3ED9FFFEC9423
:1030D000008F82F583120667FF900475E0F5827514
:1030E0008300EF1206D9900476E0FF900474E02488
:1030F000FFFDE434FFFCA3E0FBC3ED9BFDEC94007B
:10310000FC900471E0FBA3E0FAA3E0F98D828C83CC
:10311000EF1206D9900475E004F001962290041D88
:10312000E075F0ADA424C8F9740035F0FA7B019085
:103130000466EBF0A3EAF0A3E9F012064EFF24B513
:10314000F582E43402F583E0C39403401074B52F94
:10315000F582E43402F5837403F07F01227B017A67
:1031600004796AE4FD7F12FE122022BF01037F0171
:1031700022900466E0FBA3E0FAA3E0F912064EFFFA
:103180007006900469F0801BEFB401089004697424
:1031900003F0800FEFB402089004697406F0800316
:1031A0007F0122E4FFEF2401FDE433FC900466E09C
:1031B000FBA3E0FAA3E0F98D828C83120667FE90F0
:1031C0000469E02F246AF582E43404F583E06E603C
:1031D0003812064EFE24B5F582E43402F583E0048D
:1031E000F074B52EF582E43402F583E0C394034015
:1031F0001512064E25E024DBF582E43402F58374D3
:1032000005F0A374A0F07F01220FEFB403979004A0
:1032100066E0FBA3E0FAA3E0F912064E24B5F582BE
:10322000E43402F583E4F0FF227F01AE071FEE7065
:10323000FA2212000712000780EFAD07AC06E4FB8C
:10324000FAC3EB9DEA9C500951320BBB00010A8086
:10325000F02224FEFFE434FFFE90046EE0FD7C00CB
:103260001206FB900468E0FBA3E0FAA3E02FF9EA62
:103270003EFA900691EBF0A3EAF0A3E9F090046E19
:10328000E0900694F0900471E0900695F090046B45
:10329000E0FBA3E0FAA3E0F990068EEBF0A3EAF0DE
:1032A000A3E9F0E4900696F0900694E0FF9006966D
:1032B000E0FEC39F400261B9900695E06455703905
:1032C000900691E0FBA3E0FAA3E0F98E82758300FB
:1032D000120667FD90068EE0FBA3E0FAA3E0F98EEC
:1032E00082758300120667FED39D40037F0022EEA5
:1032F000C39D400261B17F0122900694E024FFFF4C
:10330000E434FFFE900696E0FDC3EF9DFFEE9400CF
:10331000FE900691E0FBA3E0FAA3E0F98F828E8392
:10332000120667FF900694E024FFFDE434FFFC9052
:103330000696E0FBC3ED9BFDEC9400FC90068EE04E
:10334000FBA3E0FAA3E0F98D828C83120667D39F7A
:1033500040037F0022900694E024FFFFE434FFFE48
:10336000900696E0FDC3EF9DFFEE9400FE9006915F
:10337000E0FBA3E0FAA3E0F98F828E83120667FFD9
:10338000900694E024FFFDE434FFFC900696E0FBF9
:10339000C3ED9BFDEC9400FC90068EE0FBA3E0FAED
:1033A000A3E0F98D828C83120667C39F50037F01CF
:1033B00022900696E004F041A87F0222900468EB78
:1033C000F0A3EAF0A3E9F090046FE0FED39401507B
:1033D000037F0122EE24FFFFE434FFFE90046EE041
:1033E000FD7C001206FB900468E0FBA3E0FAA3E07A
:1033F0002FF9EA3EFAC002C001A3E0F9A3E0FAA364
:10340000E09006DCC9F0A3EAF0A3E9F090046EE0D6
:103410009006DFF0D001D00212226590046FE09098
:103420000472F0900472E0FFD39401406D90047038
:10343000E064557008EF5152EF6057800B900472B2
:10344000E05152EF6401604A900472E024FEFFE410
:1034500034FFFE90046EE0FD7C001206FB900468D1
:10346000E0FBA3E0FAA3E02FF9EA3EFAC002C001B4
:10347000A3E0F9A3E0FAA3E09006DCC9F0A3EAF028
:10348000A3E9F090046EE09006DFF0D001D00212C4
:103490002265900472E014F080897F002212064EAB
:1034A000FF90042FE4F0A3EFF0E0F8E4F0E89004DC
:1034B0002FF0900001120667FF90042FE0FEA3E0BA
:1034C0004FFF90042FEEF0FEA3EFF02291DA90046C
:1034D0008C1209197B017A03798E90067DEBF0A39B
:1034E000EAF0A3E9F0A312092500000000E4900629
:1034F00084F0900680E0FCA3E0FDA3E0FEA3E0FFE3
:1035000078081208EA900680120919900680E0F8FF
:10351000A3E0F9A3E0FAA3E0FBC000C001C002C031
:103520000390067DE0FBA3E0FAA3E0F9900684E0B7
:10353000F582758300120667FFD003D002D001D058
:1035400000EB4FFFEAFEE9FDE8FC90068012091946
:10355000900684E004F0E0B40498900680E0FCA3B8
:10356000E0FDA3E0FEA3E0FF22900489EBF0A3EAD4
:10357000F0A3E9F0E4900491F090048FE014FF9040
:10358000048FE0FEEFC39E4002C15C90048CE0FB20
:10359000A3E0FAA3E0F98F82758300120667FE901C
:1035A0000491E02EFDE4900490F0EDC39E5003746E
:1035B00001F0E4900491F0900489E0FBA3E0FAA309
:1035C000E0F98F82758300120667FE540FFCED54FC
:1035D0000FFBECC39B5034EEC39D900489E0FB507D
:1035E0000E8F82758300120667FEC3749A8037A31C
:1035F000E0FAA3E0F98F82758300120667C39D2469
:10360000FA8F827583001206D98044900489E0FB0A
:10361000A3E0FAA3E0F98F82758300120667FEC368
:103620009D5015C374A09D2E8F827583001206D9FC
:103630009004917401F08017900489E0FBA3E0FAF4
:10364000A3E02FF9E43AFA12064EC39D1206C79082
:103650000490E06004A37401F01FA17F2290046E27
:10366000EBF0A3EAF0A3E9F0AB05A37401F0A31219
:1036700009250000000190047612092500000000D1
:10368000E490047AF0EBD394005002E1B5EB94059A
:103690004002E1B5EBF090047AE0D394005002E1EF
:1036A000B5900476E0F8A3E0F9A3E0FAA3E0FBC04C
:1036B00000C001C002C00390046EE0FBA3E0FAA3C7
:1036C000E0F990047AE0FF7E00E92FF9EE3AFA90F3
:1036D000FFFF120667540F75F00A84AFF0E4FCFD9B
:1036E000900472E0F8A3E0F9A3E0FAA3E0FB12076C
:1036F0008ED003D002D001D000EB2FFFEA3EFEE9CE
:103700003DFDE83CFC900476120919900472E0FC3F
:10371000A3E0FDA3E0FEA3E0FFE47B0AFAF9F812C0
:10372000078E900472120919900476E0F8A3E0F96C
:10373000A3E0FAA3E0FBC000C001C002C0039004F4
:103740006EE0FBA3E0FAA3E0F990047AE0FF7E00CC
:10375000E92FF9EE3AFA90FFFF12066754F0C454CD
:103760000FFFE4FCFD900472E0F8A3E0F9A3E0FA97
:10377000A3E0FB12078ED003D002D001D000EB2FC4
:10378000FFEA3EFEE93DFDE83CFC90047612091993
:10379000900472E0FCA3E0FDA3E0FEA3E0FFE47B65
:1037A0000AFAF9F812078E90047212091990047A35
:1037B000E014F0C196900476E0FCA3E0FDA3E0FEE7
:1037C000A3E0FF2290048DEBF0A3EAF0A3E9F090D0
:1037D0000492120919900490E0A3F0900491E0D3B0
:1037E000940050030238B6E47B0AFAF9F8A3E0FC2F
:1037F000A3E0FDA3E0FEA3E0FF120819AF039004CD
:103800008DE0FBA3E0FAA3E0F9900491E0FD7C00D9
:10381000E92DF9EC3AFA90FFFFEF1206D9900492E5
:10382000E0FCA3E0FDA3E0FEA3E0FFE47B0AFAF9DD
:10383000F812081990049212091990048DE0FBA364
:10384000E0FAA3E0F9900491E0FF7E00E92FF9EEA1
:103850003AFAE924FFF9EA34FFFAC003C002C001D2
:1038600012064EFFC007E47B0AFAF9F8900492E0D2
:10387000FCA3E0FDA3E0FEA3E0FF120819AF03EFF5
:10388000C454F0FED0E04ED001D002D0031206C7DF
:10389000900492E0FCA3E0FDA3E0FEA3E0FFE47B44
:1038A0000AFAF9F812081990049212091990049171
:1038B000E014F00237DB22F0A37406F07B017A02F9
:1038C0007995900451EBF0A3EAF0A3E9F0E49004B9
:1038D00058F0900457E0FFA3E0FEC39F400221751B
:1038E000900451E0FBA3E0FAA3E0F98E8275830017
:1038F000120667FDC4540F900459F0ED540FA3F065
:10390000E4FF74592FF582E43404F583E0FEC39498
:103910000A501074592FF582E43404F583E0243002
:10392000F08014EEC39410500E74592FF582E434D5
:1039300004F583E02437F00FEFB402C6900458E09A
:1039400075F002A4FF900454E0FBA3E0FAA3E02F7B
:10395000F9EA35F0FA9006DCEBF0A3EAF0A3E9F01F
:10396000A37402F07B017A047959122265900458FD
:10397000E004F001D222783D7C047D017BFF7A0DCA
:10398000793A7E007F141206289004547401F0A343
:103990007404F0A3743D11B77B017A04793D514A58
:1039A0007B017A02799B900455740CF07F0B900494
:1039B00051EFF0A3EBF0A3EAF0A3E9F078567C0412
:1039C0007D017BFF7A0C79A47E007F32120628905D
:1039D00004887401F0A37404F0A37456F0A3740176
:1039E000F0900455E0FF601F9006DC7401F0A374B2
:1039F00004F0A37456F0A3EFF0900452E0FBA3E0B0
:103A0000FAA3E0F9122265900451E0FF7B017A04E9
:103A1000795651ADEF702D9009C4E0FEA3E0AA06DF
:103A2000F97BFFC003C002900488E0FBA3E0FAA387
:103A3000E0F8AC02AD03D002D003120B34EF7004F7
:103A400090048BF090048BE0FF22900455740CF0EE
:103A50007F0921AE9006DC7401F0A37402F0A37418
:103A600095F0A37406F07B017A0179F91222659032
:103A7000029574C0F09004547401F0A37402F0A392
:103A8000749B11B79002A77412F0A37434F0A3745E
:103A900056F0A37401F0A3E4F0A37430F031767B08
:103AA000017A027995E4FD7F1BFE021BCB90048C0A
:103AB000EFF0A3EBF0A3EAF0A3E9F0A37401F0A305
:103AC000F0E4A3F0A3F0A3F0A3F078977C047D01C9
:103AD0007BFF7A0D794EFE7F321206289004C9745E
:103AE00001F0A37404F0A37497F0900333E030E185
:103AF00002C12ED161BF01037F0622E4900496F03B
:103B0000900496E0FFC394125022EF75F00AA424AB
:103B1000F0F582E4340BF583E493FF90048CE0FE2F
:103B2000EF6E6008900496E004F080D4900496E074
:103B3000C394124002C12EE4900493F0900333E04A
:103B400030E102C12EE4900494F09006DC04F0A36E
:103B50007404F0A37497F0A37404F07BFF7A0B79DC
:103B6000EA122265900496E075F00AA424F1F58229
:103B7000E4340BF583E493FB740193FA740293F934
:103B800012004E900495EFF0A3E075F00AA424F122
:103B9000F582E4340BF583E493FB740193FA740229
:103BA00093F99006DC7401F0A37404F0A3749BF005
:103BB000A3EFF0122265900496E075F00AA424F7B2
:103BC000F582E4340BF583E493FF6028900495E0DC
:103BD000249BF9E43404FA9006DC7401F0A3EAF0C3
:103BE000A3E9F0A3EFF090048DE0FBA3E0FAA3E0DB
:103BF000F9122265900496E075F00AA424F7F58284
:103C0000E4340BF583E493FF900495E02F249BF9B3
:103C1000E43404FA9006DC7401F0A3EAF0A3E9F0BE
:103C2000A37402F07BFF7A0B79EE12226590049662
:103C3000E075F00AA424F7F582E4340BF583E493ED
:103C4000FF900495E02F2406900494F07F01120168
:103C5000C853A9FB7F02D134E4900492F0900494FD
:103C6000E0FF900492E0FEC39F505C74972EF582B3
:103C7000E43404F583E0FF30D004D2DB8002C2DB01
:103C80008FD9E49004CCF0A3F030D904C2D98020BD
:103C90001200079004CDE004F070069004CCE0041C
:103CA000F0C39004CDE094D09004CCE0940740D9C8
:103CB000C39004CDE094D09004CCE09407500890D9
:103CC0000492E004F0809643D81053A9FB9004942A
:103CD0007432F07B017A047997E0FF900697E4F064
:103CE000A3EFF0E4FD122CEAE4900492F090049427
:103CF000E0FF900492E0C39F5054E49004CCF0A302
:103D0000F09004CCE0FEA3E0FFC39440EE941F507B
:103D10002C30D819C2D8900492E02497F582E4346C
:103D200004F583E5D9F0E4900491F080109004CD7F
:103D3000E004F070069004CCE004F080C4C3EF947B
:103D400040EE941F5008900492E004F0809F90048D
:103D500091E0700A900490F09004937403F0900442
:103D6000C9E0FBA3E0FAA3E0F912004E900494EF3F
:103D7000F0900490E06002C11C900496E075F00A97
:103D8000A424F8F582E4340BF583E493605BE490BB
:103D90000492F0900496E0FF75F00AA424F8F582EE
:103DA000E4340BF583E493FE900492E0FDC39E504F
:103DB0006BEF75F00AA424F9F582E4340BF583E483
:103DC000932D2497F582E43404F583E0FF90048D6D
:103DD000E0FBA3E0FAA3E0F98D82758300EF120601
:103DE000D9900492E004F080AAE4900492F0900448
:103DF00092E0FF2497F582E43404F583E0FE90041A
:103E00008DE0FBA3E0FAA3E0F98F82758300EE1248
:103E100006D9900492E004F0E0B406D27F04D134D5
:103E2000900493E004F0E0C394035002613C9004DA
:103E300090E0FF229004CEEFF030E202801890FF75
:103E4000E5E04402F053E9FD7F037E00121FA990D4
:103E500004CEE030E00A90FFE5E04402F043E902DE
:103E60002290014CE07F01B401027F0022900436D1
:103E7000EFF0A3EBF0A3EAF0A3E9F0783B7C047D3C
:103E8000017BFF7A0C79D67E007F321206289004DF
:103E90006D7401F0900436E0FF7B017A04793B51A8
:103EA000ADEF702B900437E0F9A3E0FAA3E09006A1
:103EB000DCC9F0A3EAF0A3E9F090043AE09006DF51
:103EC000F07B017A04793B122265E490046DF09056
:103ED000046DE0FF2290043A740CF07F08808E900D
:103EE000043A740CF07F0A808490042DEBF0A3EA6E
:103EF000F0A3E9F078317C047D017BFF7A0D793500
:103F00007E007F051206287B017A04793190043AFD
:103F10007405F07F11D16D900430EFF070327F01A5
:103F200074312FF582E43404F583E0FE64296020C7
:103F3000EF24FFFDE434FFFC90042DE0FBA3E0FA46
:103F4000A3E0F98D828C83EE1206D90FEFB405D071
:103F5000900430E0FF2290042DEBF0A3EAF0A3E9F7
:103F6000F0E4A3F078317C047D017BFF7A0D793099
:103F7000FE7F0512062890042DE0FBA3E0FAA3E0E3
:103F8000F912004E900430EFF0D39403504AA3741A
:103F900028F09006DC7401F0A37404F0A37432F0EE
:103FA000900430E09006DFF090042DE0FBA3E0FAEF
:103FB000A3E0F9122265900430E0FF2432F582E498
:103FC0003404F5837429F07B017A047931EF2402FB
:103FD000900455F07F1021AE7F0122C0D075D00033
:103FE000C006C007AFA775A70075B755AEB675B7C1
:103FF0000075AA0075E80075B7558EB675B7008FC5
:10400000A7D007D006D0D032C0D075D000C006C02F
:1040100007AFA775A70075B755AEB675B70053A81B
:10402000F753883F75B7558EB675B7008FA7D00781
:10403000D006D0D032C0E0C0F0C083C082C0D075FE
:10404000D000C000C001C002C003C004C005C0064B
:10405000C0079003FAE5A7F075A70075B755900360
:10406000F9E5B6F075B7005388DF758AC0758CE046
:10407000E5C730E607900333E04402F09002B8E071
:10408000FCA3E0FDA3E0FEA3E0FFA312091974FF67
:10409000FFFEFDFC9002B8E0F8A3E0F9A3E0FAA36C
:1040A000E0FBC31208C69002B8501EE0FCA3E0FD7E
:1040B000A3E0FEA3E02401FFE43EFEE43DFDE43C7A
:1040C000FC9002B8120919800712092500000000AF
:1040D00075B7559003F9E0F5B675B700A3E0F5A7FD
:1040E000D007D006D005D004D003D002D001D00034
:1040F000D0D0D082D083D0F0D0E032C0D075D00004
:10410000C006C007AFA775A70075B755AEB675B79F
:104110000053A8DF53C83375B7558EB675B7008FF7
:10412000A7D007D006D0D032C0D075D000C006C00E
:1041300007AFA775A70075B755AEB675B70053A8FA
:10414000BF53C11F75B7558EB675B7008FA7D0077F
:10415000D006D0D032C0E0C083C082C0D075D000BD
:10416000C005C006C007AFA775A70075B755AEB6A6
:1041700075B700AD97759700ED30E31D90000AE02C
:1041800090000930E205E004F0800EE0FD900008A8
:10419000E02DF0E004F0A3E4F075B7558EB675B7E6
:1041A000008FA7D007D006D005D0D0D082D083D042
:1041B000E032C0E0C083C082C0D075D000C006C06D
:1041C00007AFA775A70075B755AEB675B70090FFD6
:1041D000B6E4F090FFB7F053A9FD75B7558EB6F56C
:1041E000B78FA7D007D006D0D0D082D083D0E0320E
:1041F000C0D075D000C006C007AFA775A70075B7BF
:1042000055AEB675B70053A9DF75C60075B7558EA4
:10421000B675B7008FA7D007D006D0D032C0E0C0A7
:1042200083C082C0D075D000C004C006C007ACA750
:1042300075A70075B755AEB675B70090FFD0E054BE
:10424000FCF053A9FD75B755AF068FB675B700AF33
:10425000048FA7D007D006D004D0D0D082D083D08E
:10426000E03278147C047D017BFF7A0D79087E00B2
:104270007F14120628E490042BF0A374FFF07B0156
:104280007A047914E4FF123AAD90042CEFF0BF01E8
:10429000037FFF2290042CE0B406037F03229004E6
:1042A000287401F0A37404F0A37414F0E4A3F09054
:1042B000042BE0FFC39406503DEF25E024B6F582C1
:1042C000E43409F583E0FEA3E0AA06F97BFFC0030E
:1042D000C002900428E0FBA3E0FAA3E0F8AC02AD32
:1042E00003D002D003120B34EF7003008008900457
:1042F0002BE004F080B990042BE0FFC39406500338
:10430000A3EFF090042CE0FF22900A007401F02249
:104310009009FCE4F09009FDE4F090FFE3E0FFEF8A
:104320004408FF90FFE3EFF090FFE3E0FFEF54EF6E
:10433000FF90FFE3EFF053B0F79009FDE4F0900930
:10434000FDE0FFEFC39408503371099009FCE0FFD2
:10435000EF25E0FF9009FCEFF043B008E5B030E452
:104360000E9009FCE0FFEF4401FF9009FCEFF071B3
:104370000953B0F79009FDE004F080C290FFE3E03C
:10438000FFEF4410FF90FFE3EFF043B01043B0089D
:1043900012263353B0F79009FCE0FF229009FAE4AB
:1043A000F09009FB7408F090FFE3E0FFEF4408FF92
:1043B00090FFE3EFF090FFE3E0FFEF54EFFF90FF9B
:1043C000E3EFF053B0F79009FBE4F09009FBE0FF56
:1043D000EFC39408503D71099009FAE0FFEF25E022
:1043E000FF9009FAEFF043B008E5B030E40E900911
:1043F000FAE0FFEF4401FF9009FAEFF0710990092C
:10440000FAE0FF9009FAEFF053B0F79009FBE004EF
:10441000F080B890FFE3E0FFEF4410FF90FFE3EF80
:10442000F053B0EF43B00812263353B0F743B01047
:104430009009FAE0FF2290FF84E0FFEF54FFFF9025
:10444000FF84EFF090FF85E0FFEF54FEFF90FF85C3
:10445000EFF00000229009E2740EF09009DDEEF01A
:10446000A3EFF09009DFEBF0A3EAF0A3E9F09009E5
:10447000DDE0FEA3E0FF9009E3EEF0A3EFF090098A
:10448000DDE0FEA3E0FFEF5407FFC374089FFF9039
:1044900009E5EFF09009E6E4F09009E5E0FF900906
:1044A000E2E0FEEEC39F500A9009E2E0FF9009E5CA
:1044B000EFF09009E3E0FEA3E0FF9009DFE0FBA34B
:1044C000E0FAA3E0F99009E6E0FD7C00E92DF9EAC5
:1044D0003CFA9009E5E0FD9009CBEDF0122426EFBF
:1044E000B401037F01229009E5E0FF9009E6E02F87
:1044F000F09009E6E0FF7E009009DDE0FCA3E0FD1E
:10450000EF2DFFEE3CFE9009E3EEF0A3EFF09009F3
:10451000E6E0FF9009E2E0FEC3EE9FFF9009E5EFC1
:10452000F09009E5E0FFEFD3940840069009E574A8
:1045300008F09009E5E0FFEF600281B27F00229071
:1045400009E7EEF0A3EFF09009E9EDF09009EAEB4E
:10455000F0C2AF9009E9E0FF8FEF9009E7E0FEA31A
:10456000E0FFEF54FFF5EE9009E7E0FEA3E0FFEE79
:10457000FF7E008FF775A70175F26E75F30575F470
:104580000A75F5099009EAE0FFEFB4680775F606C9
:104590000000000075A70075F700D2AF2290068ECC
:1045A000EEF0A3EFF0A3EBF0A3EAF0A3E9F075E7D8
:1045B0005575C7830000E5C730E6037FFF229003EF
:1045C00041E0646860037FFF22900693E0FEA3E071
:1045D000FF90068FE02FFF90068EE03EFED3EF9413
:1045E00000EE941040037FFF22D3900694E09400E5
:1045F000900693E094004045900690E0FBA3E0FA1B
:10460000A3E0F912064EFC90068EE0FEA3E0FFAD9B
:10461000047B68B13F90068FE004F0700690068E30
:10462000E004F0900691E475F001120762900694A0
:10463000E024FFF0900693E034FFF080AC7F00228E
:104640008F828E83E4FFEDB4680DC2AF75A701E4DD
:1046500093FFE4F5A7D2AF22900341E04420F07B22
:10466000017A04798E90048AE0FCA3E0FD90069321
:104670007402F0A3E4F0900691ECF0A3EDF075E77E
:104680005575C7830000E5C730E6037FFF2290061B
:1046900093E0FEA3E0FF900692E02FFF900691E0EA
:1046A0003EFED3EF9400EE941040037FFF22D390A0
:1046B0000694E09400900693E094004035900691B3
:1046C000E0FEA3E0FF7D68D140EF1206C774012928
:1046D000F9E43AFA900692E004F07006900691E050
:1046E00004F0900694E024FFF0900693E034FFF08D
:1046F00080BC7F0022E0FEA3E0FF7B68E4FD900920
:10470000EBEEF0A3EFF09009EDEDF09009EEEBF099
:1047100075E75575C7830000E5C720E6559003414E
:10472000E0FFEF6468704BC2AF9009EDE0FF8FEFE0
:104730009009EBE0FEA3E0FFEF54FFF5EE9009EBEC
:10474000E0FEA3E0FFEEFF7E008FF775A70175F294
:10475000E675F30575F40A75F5099009EEE0FFEFCB
:10476000B4680775F6060000000075A70075F7002D
:10477000D2AF2290FFE3E054FBF090FFF3E044045B
:10478000F02212001E90033DE04401F022F17390EC
:10479000033EE030E216E5B030E20302482DE0448B
:1047A00001F0E054FBF0E4900264F02290033EE05C
:1047B00030E061E5B020E26A900264E004F0E0FFDE
:1047C0007408D39F506790033EE04402F0E054FE2B
:1047D000F0E4900264F090033CE04408F090026042
:1047E0001209250000003C900258741EF0900265EA
:1047F000E0700B90026CF09002657468F0229002F9
:104800006CE004F0900217E0FF90026CE0C39F4060
:104810001CE4F02290033EE030E107E5B030E20D09
:104820008000E4900264F090033E7404F022EF14E0
:10483000601E04702111987FFF115743D18090FFB3
:10484000E0E04480F0438080E04402F043800222B4
:104850001198E4FF115722E4FE746D2EF582E434C2
:1048600002F583EFF00EEEB428EF7F007E25E4FD25
:10487000746D2DF582E43402F583E0FCEF2DF582B2
:10488000E43EF583ECF0746D2DF582E43402F5839B
:10489000E4F00DEDB428D92253D17F11B690FF80FA
:1048A00074F0F090FF8174FCF090FF8374E0F0905E
:1048B000FF8574FCF022E5D154706430600653D15A
:1048C0008F43D130E5D154076407600653D1F843D4
:1048D000D107E5D254076402600653D2F843D202EE
:1048E000225380F7000043800422438008000053D5
:1048F00080FB225380F7005380FB229002B3E060DC
:104900000FE014F0E0FF7E00BE0207BF400480000D
:1049100011F3229004A7E0FD9004B0EDF0E4FF7ED7
:1049200008EF25E0FFEE7C0024FFF582EC34FFF574
:1049300083120667FD9004B0E05D60010FDEE222A5
:104940009004A3EBF0A3EAF0A3E9F09004A774406D
:10495000F0E49004A6F09004A6E0FFC3940850365B
:10496000EFB40404A37480F09004A3E0FBA3E0FA86
:10497000A3E0F931139004A6E024A8F582E43404FE
:10498000F583EFF09004A7E0FF1313543FF0900479
:10499000A6E004F080C09004A3E0F9A3E0FAA3E04D
:1049A0009006DCC9F0A3EAF0A3E9F0A37408F07B59
:1049B000017A0479A80222659004B974FFF0A37407
:1049C0000FF0A374EFF0A374FFF0A37410F0A374BE
:1049D00027F0A37407F09004B6EBF0A3EAF0A3E984
:1049E000F0E4F5209004C004F09004BFE075F008F6
:1049F000A42401FFE435F0FEA3E0FDC39FEE648034
:104A0000F8748098507DE52025E0F520EDFF7E00CC
:104A100024FFFDEE34FFFC9004B9E0FBA3E0FAA311
:104A2000E0F98D828C83120667FD9004B6E0FBA34B
:104A3000E0FAA3E0F98D82758300120667FDEF248A
:104A4000FFFFEE34FFFE9004BCE0FBA3E0FAA3E01E
:104A5000F98F828E831206675D600205209004C084
:104A6000E0FF54077015EF131313541F24C0F58291
:104A7000E43404F583E520F0E4F5209004C0E0047C
:104A8000F021E99004B6E0F9A3E0FAA3E09006DC97
:104A9000C9F0A3EAF0A3E9F09004BFE09006DFF0CC
:104AA0007B017A0479C10222659004A3EBF0A3EAAA
:104AB000F0A3E9F02404F9E43AFA9006DC7401F07A
:104AC000A37404F0A374AAF0A37404F012226590F6
:104AD00004B974FFF0A37410F0A374FFF0A374FF83
:104AE000F0A37410F0A374CFF0A37406F07B017AE6
:104AF0000479AA31D6E49004A9F09004A9E0FF2437
:104B0000AAF582E43404F583C083C082E0FE9004F9
:104B1000A6E0FBA3E0FAA3E0F98F827583001206FA
:104B200067FFEE6FD082D083F09004A9E004F0E03C
:104B3000B406C7E49004A9F09004A9E0FFC394026E
:104B400040028160E0FE75F003A424AAF582E434FB
:104B500004F583E0FDC45430FCEE75F003A424ABEF
:104B6000F582E43404F583E0C4540F4CF520ED13D2
:104B700013543FFE9004A9E0FD75F000A4246FF5E6
:104B800082E5F03411F583ED2583F583E5822EF57A
:104B900082E43583F583E493FE75F000EDA424AF41
:104BA000F582E5F03411F583ED2583F583E5822563
:104BB00020F582E43583F583E493FDEE4DFE900409
:104BC000A9E0FD25E024B2F582E43404F583EEF09B
:104BD000ED75F003A424ABF582E43404F583E025FD
:104BE000E025E0543FFEED75F003A424ACF582E42B
:104BF0003404F583E0FDC4131354034EF520ED5443
:104C00003FFE9004A9E0FD75F000A4242FF582E595
:104C1000F03412F583ED2583F583E5822EF582E4E9
:104C20003583F583E493FE75F000EDA424EFF5825F
:104C3000E5F03411F583ED2583F583E5822520F534
:104C400082E43583F583E4934EFEEF25E024B3F54B
:104C500082E43404F583EEF09004A9E004F06138B6
:104C60009004B974FFF0A37411F0A3744FF0A3740F
:104C7000FFF0A37411F0A3742FF0A37404F07B0170
:104C80007A0479B231D6E49004A9F09004A9E0FF47
:104C9000C39404505B7E00EF2404FDEE33FC9004CB
:104CA000A3E0FBA3E0FAA3E0F98D828C83120667F0
:104CB000F5209004A9E0FDF582758300120667FCDB
:104CC00074B22DF582E43404F583E06CFD74042F96
:104CD000F582E433F583ED1206D99004A9E0F5825C
:104CE000758300E5201206D99004A9E004F0809BAA
:104CF000229004A3EBF0A3EAF0A3E9F0A3EDF012F5
:104D0000064E9004A7F09000011206679004A8F0E8
:104D10009000021206679004A9F090000312066743
:104D200054F09004AAF0BD02339004A7E0FCA3E085
:104D3000FDA3E0FEA3E0FF78011208EA9004A712A9
:104D400009199004A3E0FBA3E0FAA3E0F912064ED0
:104D500030E7449004AAE04410F0803B9004A7E0C0
:104D6000FCA3E0FDA3E0FEA3E0FF78011208D790CA
:104D700004A71209199004AAE054F0F09004A3E0EB
:104D8000FBA3E0FAA3E0F990000312066730E40702
:104D90009004A7E04480F09004A3E0FBA3E0FAA312
:104DA000E0F9900003120667540F9004ABF09000F6
:104DB000041206679004ACF0900005120667900498
:104DC000ADF09000061206679004AEF09004A6E0E5
:104DD0006402703D9004ABE0FCA3E0FDA3E0FEA301
:104DE000E0FF78011208EA9004AB1209199004ABB5
:104DF000E0540FF09004A3E0FBA3E0FAA3E0F990E5
:104E0000000312066730E33D9004AEE04401F080F9
:104E1000349004ABE0FCA3E0FDA3E0FEA3E0FF7848
:104E2000011208D79004AB1209199004A3E0FBA368
:104E3000E0FAA3E0F990000612066730E00790045C
:104E4000ABE04408F09004AAE0FFA3E0FEEF4E9030
:104E500004AAF09004ACE09004ABF09004ADE090B4
:104E600004ACF09004AEE09004ADF09004A3E0F93F
:104E7000A3E0FAA3E09006DCC9F0A3EAF0A3E9F00E
:0D4E8000A37407F07B017A0479A702226574
:10800000EF14602104703BE5876003E4F587539823
:10801000F74398C0E4FF11959004CEE599F053988A
:10802000EC43A81022E5876003E4F58753D8F343B7
:10803000D8C07F0111959004CEE5D9F053D8EC4318
:10804000A90422EF14703DE5876003E4F58753D857
:10805000F343D8C090FFE3E054FEF090FFF3E05408
:10806000FEF090FFE3E04402F043B0027F0111957F
:108070007F0112019190041AE5D9F053D8FC43D83E
:108080001043A90422E4FF11437F0111437F021131
:10809000437F0380AEEF14602C04704CE59D64CCEC
:1080A0006003759DCCE59C647F6003759C7FE59EB5
:1080B000540F64016006539EF0439E01E59C20E747
:1080C00027439C8022E5DD64F3600375DDF3E5DC86
:1080D000647F600375DC7FE59E54F06003539E0F60
:1080E000E5DC20E70343DC8022E4F5B1F5A8F5A93F
:1080F00012AA9912ADE812AE34310D1297B812A738
:108100007D12B01A1185F1BAD2AF7F00227B017ABD
:10811000037933900697E4F0A3740FF0E4FD122C7A
:10812000EA7B017A0279B8900697E4F0A3743AF0FA
:10813000E4FD122CEA7B017A027914900697E4F0B0
:10814000A37481F0E4FD122CEA7B017A03799C9000
:108150000697E4F0A37410F0E4FD122CEA7B017A98
:10816000007908900697E4F0A37408F0E4FD122C5F
:10817000EA7B017A007900900697E4F0A37408F096
:10818000E4FD122CEA7B017A0279F2900697E4F082
:10819000A3740AF0E4FD122CEA7B017A0279FC90C8
:1081A0000697E4F0A37429F0E4FD122CEA7B017A2F
:1081B0000279AF900697E4F0A37409F0E4FD122C65
:1081C000EA9003407401F012B89A12B940128FEA93
:1081D00012B11712B01B12B2A612A035E49008D249
:1081E000F0900339E054FBF0E4900267F090033321
:1081F000E04401F090033CE04403F0900214E0FFFF
:108200007E007C037DE81206FB7C017DF412070DE5
:10821000E4FCFD90026012091990033E7404F09092
:108220000214E0900258F0900259F07B017A037931
:1082300036E4FD7F0FFE122022EF6005E490033646
:10824000F0900336E030E607900339E04420F0E494
:1082500090048AF0A3F07B017A047971FD7F11FE0E
:10826000122022900336E030E56D7B017A0479819B
:108270001234CC900490120919900490E0FCA3E011
:10828000FDA3E0FEA3E0FFEC4D4E4F603790048C61
:10829000E0F8A3E0F9A3E0FAA3E0FBC31208C640AC
:1082A0000F90048A7401F0900336E030E4298021B5
:1082B000E490048AF0A3F0900336E054DFF0E05439
:1082C000EFF0801390048A7401F0900336E030E4FC
:1082D0000690048B7401F07B017A0479711234CC1E
:1082E000900490120919900490E0FCA3E0FDA3E033
:1082F000FEA3E0FF90048CE0F8A3E0F9A3E0FAA36A
:10830000E0FBC31208C65002810F90033AE044011B
:10831000F07B017A0479751234DA90048C12091911
:10832000900490E0FCA3E0FDA3E0FEA3E0FF900436
:108330008CE0F8A3E0F9A3E0FAA3E0FBC31208C6BF
:108340005002810690033AE020E104E04402F0E4A8
:10835000FFFEFDFC900490E0F8A3E0F9A3E0FAA38F
:10836000E0FBC31208C6600261F090033AE020E22D
:1083700004E04404F07B017A0379941234DA900427
:108380008C120919E4FFFEFDFC90048CE0F8A3E0D8
:10839000F9A3E0FAA3E0FBC31208C6600D90033A0C
:1083A000E020E30DE04408F0800790033AE054F742
:1083B000F07B017A04797D1234DA90049012091965
:1083C000900490E0FCA3E0FDA3E0FEA3E0FF900496
:1083D0008CE0F8A3E0F9A3E0FAA3E0FBC31208C61F
:1083E000900336E040054420F0803254DFF0802DC9
:1083F00090033AE054F7F0900336E054DFF0900336
:108400003AE054FB800F90033AE054E1F0800E9084
:10841000033AE054E0F0900336E054EFF090048A21
:10842000E0B40107900336E04420F090048BE0B400
:108430000107900336E04410F0900336E030E50485
:10844000E04410F07B017A037936E4FD7F0FFE02F1
:108450001BCB782D7C047D017BFF7A0079EC7E00BC
:108460007F0712062812A7BC7B017A0179F9E4FD87
:108470007F10FE122022EF604D7B017A0179F99086
:108480000697E4F0A3741BF0E4FD122CEA9001FEC1
:108490007401F0900204F090020AF090020DF09046
:1084A0000210F0A374FFF07B017A0179F9E4FD7FFB
:1084B00010FE121BCB123A547B017A0179F9E4FDCC
:1084C0007F10FE121BCB7B017A03799C900697E408
:1084D000F0A37410F0E4FD122CEA90039C7403F0F6
:1084E000A37410F07B017A03799CE4FD7F0AFE12ED
:1084F0001BCB9002147405F0A3F0A37407F0A3F053
:108500007B017A027914E4FD7F19FE121BCB7B01FB
:108510007A02791A900697E4F0A3743EF0E4FD1213
:108520002CEA9006DC7401F0A37402F0A3741AF034
:10853000A37407F07B017A04792D1222659006DC82
:108540007401F0A37402F0A37438F0A37407F07BF5
:10855000017A04792D1222657B017A02791AE4FDF1
:108560007F1AFE121BCB7B017A037925900697E4D4
:10857000F0A3740EF0E4FD122CEA9003277450F07F
:108580007B017A037925E4FD7F04FE121BCB7B017E
:108590007A0379AC900697E4F0A37419F0E4FD1225
:1085A0002CEA9003AE7420F09003B27410F07B01BB
:1085B0007A0379ACE4FD7F11FE121BCB7B017A04B8
:1085C0007934900697E4F0A37409F0E4FD122CEAE4
:1085D0007B017A047934E4FD7F12FE121BCB7B0110
:1085E0007A0279B5900697E4F0A37403F0E4FD12E3
:1085F0002CEA1201A07B017A0279DB900697E4F065
:10860000A37408F0E4FD122CEAE4900336F07B0139
:108610007A037936FD7F0FFE121BCBE490033AF00C
:10862000900339F07B017A0279FC900697F0A374ED
:1086300029F0E4FD122CEA7B017A037915E4FD7F31
:1086400013FE121BCB9002FCE4F0A37405F07B0137
:108650007A0279FCE4FD7F15FE121BCB514F90038B
:108660003BE030E009900334E020E002E1B9900201
:10867000B3E06002E1B990033AE020E52AE030E19E
:1086800007900336E030E21F90033AE030E20790B3
:108690000336E030E311900336E020E50AE020E401
:1086A00006E020E102E15B90033AE030E518129722
:1086B000BD90033AE054DFF0900339E04420F0A38A
:1086C000E04480F0E19890033AE030E70B90033902
:1086D000E030E502E198E169900336E020E049905E
:1086E0000339E030E50CE020E502E198E020E60205
:1086F000E1981248EA9002B37458F0900336E020F3
:10870000E1147B017A09795F900697E4F0A3740481
:10871000F07DFF122CEA7F041297DC900339E044CD
:1087200020F0E054BFF08070900339E030E569122A
:1087300048E19002B37458F07F051297DC9003363D
:10874000E054FDF0900339E054DFF07B017A0379C7
:1087500036E4FD7F0FFE121BCB803D90033AE030E4
:10876000E713900339E020E52F1297BD900339E01D
:108770004420F08023900339E030E51C900336E07C
:1087800054FDF0900339E054DFF01248E19002B359
:108790007458F07F051297DC900339E0900336306F
:1087A000E505E044408003E054BFF07B017A0379A3
:1087B00036E4FD7F0FFE121BCB22E490041CF07FF9
:1087C000AA12AD45759560E4F596F59753A9FE4359
:1087D000B480900443120925000000E87F3312881A
:1087E000CC7F057E00121FA99004431209250000CA
:1087F0000C847F321288CCE490041CF090041CE0BE
:10880000FE75F005A424AFF582E43419F583E493F2
:10881000FFC007EE75F005A424B0F582E43419F525
:1088200083120909900443120919D00711CC90044E
:108830001CE004F0E0C3942040C27B017A09797106
:10884000E4FD7F06FE122022E490041CF090041C3C
:10885000E0FE75F005A4244FF582E4341AF583E4B4
:1088600093FFC007EE25E025E02471F582E434098A
:10887000F583E0FCA3E0FDA3E0FEA3E0FF9004434A
:10888000120919D00711CC90041CE004F0E0C39445
:108890000540BA7F647E00121FA990044312092587
:1088A000000000357F3011CC7F5512AD4590044358
:1088B00012092500A000C17F3111CC7FF47E011286
:1088C0001FA9E4F59775960843A90122900442EF89
:1088D000F0A3E0FCA3E0FDA3E0FEA3E0FFA31209E8
:1088E00019E4F5917F06FE12323AC2AF900448E0D7
:1088F000F592A3E0F593A3E0F594000000000000DA
:108900000000000000000000000000000000000067
:108910000000900442E04480F5917F067E00123210
:108920003AD2AF22900440EFF0C00790043CE0FC44
:10893000A3E0FDA3E0FEA3E0FF900443120919D0D9
:108940000711CC900440E0B4361890043CE0FCA33E
:10895000E0FDA3E0FEA3E0FF9004431209197F3677
:1089600011CCE4900441F0900441E0FFC394055021
:1089700052EF75F005A4244FF582E4341AF583E430
:1089800093FF900440E0FEEFB5063090043CE0FC1D
:10899000A3E0FDA3E0FEA3E0FF900441E025E02575
:1089A000E02471F582E43409F5831209197B017A18
:1089B000097971E4FD7F06FE021BCB900441E004BF
:1089C000F080A42290042FEFF075F0ADA424D3F52D
:1089D00082E5F03400F583E0FFE4FCFDFE78181238
:1089E00008EA900431120919900431E0F8A3E0F983
:1089F000A3E0FAA3E0FBC00090042FE075F0ADA463
:108A000024D2F582E5F03400F583E0FFE4FCFDFEBE
:108A100078101208EAD000EB4FFFEA4EFEE94DFD58
:108A2000E84CFC900431120919900431E0F8A3E0FD
:108A3000F9A3E0FAA3E0FBC00090042FE075F0ADCD
:108A4000A424D1F582E5F03400F583E0FFE4FCFDD9
:108A5000FE78081208EAD000EB4FFFEA4EFEE94D1F
:108A6000FDE84CFC900431120919900431E0F8A3A0
:108A7000E0F9A3E0FAA3E0FB90042FE075F0ADA4C9
:108A800024D0F582E5F03400F583E0FFEB4FFFEAF8
:108A9000FEE9FDE8FC9004311209199004307405D8
:108AA000F0E4F0900430E0FD75F005A4244FF58269
:108AB000E4341AF583E493FF7E00C006C007ED7529
:108AC000F005A42450F582E4341AF58312090990C4
:108AD000043C120919D007D0063124900430E00478
:108AE000F0E0C3940540BCE4900430F0900430E022
:108AF000FBC39403502FEB25E02487F582E4341A5E
:108B0000F583E493FE740193FFE4FCFDEB25E0257F
:108B1000E02463F582E43409F583120919900430E6
:108B2000E004F080C77B017A097963E4FD7F08FEE9
:108B3000121BCB900431E0FCA3E0FDA3E0FEA3E018
:108B4000FF90043C1209197F487E00212490041FE5
:108B5000EFF0E490042EF090041FE075F0ADA42433
:108B6000C4F582E5F03400F583E0FFE4FCFDFE90FF
:108B7000042A12091990042AE0F8A3E0F9A3E0FA04
:108B8000A3E0FBC00090041FE075F0ADA424C5F580
:108B900082E5F03400F583E0FFE4FCFDFE78081286
:108BA00008EAD000EB4FFFEA4EFEE94DFDE84CFC31
:108BB00090042A12091990042AE0F8A3E0F9A3E02E
:108BC000FAA3E0FBC00090041FE075F0ADA424C63A
:108BD000F582E5F03400F583E0FFE4FCFDFE78105B
:108BE0001208EAD000EB4FFFEA4EFEE94DFDE84CDB
:108BF000FC90042A12091990042AE0F8A3E0F9A3D2
:108C0000E0FAA3E0FBC00090041FE075F0ADA424DF
:108C1000C7F582E5F03400F583E0FFE4FCFDFE7863
:108C2000181208EAD000EB4FFFEA4EFEE94DFDE8CE
:108C30004CFC90042A12091990041FE0FD75F0AD58
:108C4000A424C5F582E5F03400F583E0FF9004200C
