:020000040000FA
:08000000020E38023FD022225B
:0F000B00024085EF240A83900100730A2D507381
:03001B0002405848
:030023000229F3BC
:03002B000241A8E7
:030033000241D5B2
:03003B000242027C
:0300430002422C4A
:10004B00022B4BE4FFFE120556600C0FEF70010EF6
:10005B0009E970F20A80EF2202426AE4FF121E588D
:06006B001239F0021EA88C
:10007300024297900AA2120A867810EC4D4E4F70F6
:10008300047CA57DA5C3EC13FCED13FDEE13FEEF7D
:1000930013FF5010EC64CCFCED644CFDEE644EFE9B
:1000A300EF64CEFFD8DF900AA2120842EE547FFE1F
:1000B30022900AA2EEF0EFA3F0A374A5F0A3F0221E
:1000C300300100000C0333020012300004002C3412
:1000D3000006000E1D0008000C1E000A000C0002A2
:1000E300060A0E05020404040401020A0B090304B0
:0700F30001020A0B090304DE
:10010000C0087401C0E0C082C08375080AC0F085D1
:10011000A8F0C2AF75B75575B61175B70085F0A8D0
:10012000D0F022C0087401C0E0C082C08375082DE1
:10013000C0F085A8F0C2AF75B75575B61175B70098
:1001400085F0A8D0F022C0087401C0E0C082C0834E
:10015000750850C0F085A8F0C2AF75B75575B622C6
:1001600075B70085F0A8D0F022C0087401C0E0C0C7
:1001700082C083750873C0F085A8F0C2AF75B7550B
:1001800075B63375B70085F0A8D0F02290800021B5
:100190004690829821469083A42146908CE6214681
:1001A0009085D8214690ADD4214690D482214690A6
:1001B000D27C2146909740212390813A2123909F21
:1001C000F62123908043212390800021239088747E
:1001D0002123908BD7212390A098212390ABE62157
:1001E000239094A12123908A80212390866E21233D
:1001F000908EA2212390C248212300EC4D6011E88B
:10020000497017ED33EC3304600DE4FCFFFEFD2272
:10021000E933E8330470F802044B12041658046002
:1002200009E4CC24815006285009020455284003D3
:10023000020452C0E0EB4A7044B98006D0E0FB02F1
:100240000441EF4E701CBD8008EBFFEAFEE9FD8023
:10025000EBE98DF0A4FEE5F00202E4E9CDF9EAFE57
:10026000EBFFEF89F0A4FCE5F0CE89F0A42EFFE4CB
:1002700035F0CD89F0A42DFEE435F08067EF4E70A7
:1002800005BD80D780C3EF8BF0A4ACF0EE8BF0A45B
:100290002CFCE435F0F8EF8AF0A42CE5F038FCE40F
:1002A00033CB8DF0A42CFCE5F03BF8EE8AF0A42CC7
:1002B000FCE5F038F8E433CF89F0A42CFCE5F03805
:1002C000CF3400CE89F0A42FFFE5F03EFEE433C921
:1002D0008DF0A42EFEE5F039CD8AF0A42FFFE5F0D5
:1002E0003EFEE43DFD33D0E0FB50070BBB000F02A8
:1002F0000455EC2CFCEF33FFEE33FEED33FD02042E
:100300002D020455EC5D046005E8590470030204F5
:100310004B120416580460F6EC4860F2EC7004FDD1
:10032000FEFF22C860DB2481C85009C398600250D8
:10033000060204529850CAF582E9294B4A7005AB6F
:100340008202044175F0007C1A7880C3EF9BEE9A1C
:10035000ED99400DC3EF9BFFEE9AFEED99FDE8424B
:10036000F0DC23ACF0D0E0FFD0E0FED0E0FDAB82CB
:1003700020E7101BEB60BAEC2CFCEF33FFEE33FEF2
:10038000ED33FD02042DE803F830E705C0F075F009
:1003900000EF2FFFEE33FEED33FD40B830E7C280B3
:1003A000AA75F020800E75F010800575F0087D00AC
:1003B0007E007F003392D530D5031207B3EC334073
:1003C00010EF33FFEE33FEED33FDEC33FCD5F0EDF3
:1003D00022E5F0247EA2D513CC92E7CDCEFF22ED0C
:1003E000D2E7CD33EC3392D524814006E4FFFEFD05
:1003F000FC22FCE4CFCECDCC24E0501174FF80ED84
:10040000C3CC13CCCD13CDCE13CECF13CF0470F00D
:1004100030D5DE0207B3E9D2E7C933E833F892D525
:10042000EDD2E7CD33EC33FC5002B2D522EC30E70D
:10043000100FBF000C0EBE00080DBD00040BEB60DA
:1004400014A2D5EB13FCED92E7FD2274FFFCFDFE38
:10045000FF22E480F8A2D574FF13FC7D80E480EFD6
:10046000E709F608DFFA8046E709F208DFFA803E7E
:1004700088828C83E709F0A3DFFA8032E309F6086B
:10048000DFFA8078E309F208DFFA807088828C83D3
:10049000E309F0A3DFFA806489828A83E0A3F60887
:1004A000DFFA805889828A83E0A3F208DFFA804C61
:1004B00080D280FA80C680D4806980F28033801038
:1004C00080A680EA809A80A880DA80E280CA8033A1
:1004D00089828A83ECFAE493A3C8C582C8CCC58319
:1004E000CCF0A3C8C582C8CCC583CCDFE9DEE780E9
:1004F0000D89828A83E493A3F608DFF9ECFAA9F068
:10050000EDFB2289828A83ECFAE0A3C8C582C8CCBD
:10051000C583CCF0A3C8C582C8CCC583CCDFEADED6
:10052000E880DB89828A83E493A3F208DFF980CC38
:1005300088F0EF60010E4E60C388F0ED2402B40431
:100540000050B9F582EB2402B4040050AF232345D8
:1005500082239004B073BB010689828A83E0225013
:1005600002E722BBFE02E32289828A83E49322BB54
:10057000010CE58229F582E5833AF583E0225006F5
:10058000E92582F8E622BBFE06E92582F8E222E5AB
:100590008229F582E5833AF583E49322BB010FF8C3
:1005A000E58229F582E5833AF583E028F0225009B7
:1005B000C58229F8E58226F622BBFE09C58229F804
:1005C000E22582F222F8EA2583F583E9932822BB0B
:1005D000010689828A83F0225002F722BBFE01F3D2
:1005E00022F8BB010DE58229F582E5833AF583E81F
:1005F000F0225006E92582C8F622BBFE05E92582D5
:10060000C8F222EF8DF0A4A8F0CF8CF0A428CE8DF4
:10061000F0A42EFE22BC000BBE0029EF8DF084FF5B
:10062000ADF022E4CCF875F008EF2FFFEE33FEECCE
:1006300033FCEE9DEC984005FCEE9DFE0FD5F0E9F5
:10064000E4CEFD22EDF8F5F0EE8420D21CFEADF0F4
:1006500075F008EF2FFFED33FD4007985006D5F0F9
:10066000F222C398FD0FD5F0EA22C5F0F8A3E028E6
:10067000F0C5F0F8E582158270021583E038F022AB
:10068000A3F8E0C5F025F0F0E5821582700215832D
:10069000E0C838F0E822E88FF0A4CC8BF0A42CFC62
:1006A000E98EF0A42CFC8AF0EDA42CFCEA8EF0A4D8
:1006B000CDA8F08BF0A42DCC3825F0FDE98FF0A467
:1006C0002CCD35F0FCEB8EF0A4FEA9F0EB8FF0A45E
:1006D000CFC5F02ECD39FEE43CFCEAA42DCE35F09A
:1006E000FDE43CFC2275F008758200EF2FFFEE332D
:1006F000FECD33CDCC33CCC58233C5829BED9AEC95
:1007000099E58298400CF582EE9BFEED9AFDEC99FE
:10071000FC0FD5F0D6E4CEFBE4CDFAE4CCF9A88208
:1007200022B800C1B90059BA002DEC8BF084CFCEAD
:10073000CDFCE5F0CBF97818EF2FFFEE33FEED336B
:10074000FDEC33FCEB33FB10D703994004EB99FB32
:100750000FD8E5E4F9FA227818EF2FFFEE33FEED1B
:1007600033FDEC33FCC933C910D7059BE99A400728
:10077000EC9BFCE99AF90FD8E0E4C9FAE4CCFB223F
:1007800075F010EF2FFFEE33FEED33FDCC33CCC808
:1007900033C810D7079BEC9AE899400AED9BFDEC13
:1007A0009AFCE899F80FD5F0DAE4CDFBE4CCFAE452
:1007B000C8F922C3E49FFFE49EFEE49DFDE49CFC97
:1007C00022EB9FF5F0EA9E42F0E99D42F0E89C455D
:1007D000F022E8600FECC313FCED13FDEE13FEEF07
:1007E00013FFD8F122E8600FEFC333FFEE33FEEDC5
:1007F00033FDEC33FCD8F122BB010789828A8302E6
:100800000A865005E9F8020A7ABBFE05E9F8020AF1
:100810009289828A83020832BB010789828A830215
:1008200008425005E9F8020A9EBBFE05E9F8020AF3
:10083000AA22E493FC740193FD740293FE74039363
:10084000FF22ECF0A3EDF0A3EEF0A3EFF022A882DC
:100850008583F0D083D0821208651208651208657E
:10086000120865E473E493A3C583C5F0C583C8C5C6
:1008700082C8F0A3C583C5F0C583C8C582C822D08D
:1008800083D082F8E4937012740193700DA3A39344
:10089000F8740193F5828883E4737402936860EFBF
:1008A000A3A3A380DFD083D082E49370127401935A
:1008B000700DA3A393F8740193F5828883E4737495
:1008C00002936C70127403936D700C7404936E70C9
:1008D000067405936F60DDA3A3A3A3A3A380CAE35B
:1008E000F5F009E208B5F06D606B80F3E3F5F0090F
:1008F000E608B5F060605E80F387F009E608B5F0C1
:1009000054605280F487F009E208B5F048604680F0
:10091000F488828C8387F009E0A3B5F038603680D4
:10092000F488828C8387F009E493A3B5F0276025CF
:1009300080F388828C83E3F5F009E0A3B5F01660BC
:100940001480F388828C83E3F5F009E493A3B5F077
:1009500004600280F2020A0A808580E7808E80D2DD
:10096000803C8015806C807E809B80B5808B80A1D0
:10097000804F8070803A020A1689828A83ECFAE4FA
:1009800093F5F0A3C8C582C8CCC583CCE493A3C8B3
:10099000C582C8CCC583CCB5F070606E80E1898219
:1009A0008A83E493F5F0A3E208B5F05E605C80F220
:1009B00089828A83E0F5F0A3E608B5F04D604B80AC
:1009C000F389828A83E0F5F0A3E208B5F03C603A4F
:1009D00080F389828A83E493F5F0A3E608B5F02AD0
:1009E000602880F2805389828A83ECFAE493F5F0E0
:1009F000A3C8C582C8CCC583CCE0A3C8C582C8CC77
:100A0000C583CCB5F004600280E27FFFB5F0020F31
:100A10002240027F012289828A83ECFAE0F5F0A36A
:100A2000C8C582C8CCC583CCE0A3C8C582C8CCC524
:100A300083CCB5F0D560D380E389828A83ECFAE079
:100A4000F5F0A3C8C582C8CCC583CCE493A3C8C5C0
:100A500082C8CCC583CCB5F0B160AF80E288F0ED40
:100A60002402B4040050A3F582EB2402B404005025
:100A700099232345822390095873E6FC08E6FD0874
:100A8000E6FE08E6FF22E0FCA3E0FDA3E0FEA3E013
:100A9000FF22E2FC08E2FD08E2FE08E2FF22ECF69B
:100AA00008EDF608EEF608EFF622ECF208EDF20893
:100AB000EEF208EFF22254544D3A4144562D4F4E77
:100AC0000D0A0054544D3A5343414E2D4F4E0D0ADA
:100AD0000054544D3A434F4E4E454354494E470DF2
:100AE0000A0054544D3A434F4E4E45435445440D2D
:100AF0000A0054544D3A424C455F49444C450D0A56
:100B00000054544D3A4552500D0A0054544D3A4F3A
:100B10004B0054544D3A45525000535441540045F3
:100B200041445600444144560044434F4E004D4119
:100B3000432D3F004D41432D00444E4D2D3F00526B
:100B4000454E2D0054504C2D0054504C2D3F005418
:100B5000544D3A0D0A00FF0B1A000000001000016E
:100B6000FF0B1FFF0B0B00000002FF0B24FF0B0B02
:100B700000000003FF0B29FF0B0B00000008FF0B18
:100B80002E000000000C0809FF0B34FF0B0B0C00BB
:100B9000000AFF0B39000000000C080BFF0B3FFFA1
:100BA0000B0B0C000010FF0B44FF0B0B050000119A
:100BB000FF0B4900000000050800000000000000D5
:100BC0000000000000000000000000000000000025
:100BD0000000000000000000000000000000000015
:100BE0000000000000000000000000000000000005
:100BF00000000000000000000000000000000000F5
:100C000000000000000000000000000000000000E4
:100C100000000000000000000000000000000000D4
:100C200000000000000000000000000000000000C4
:100C300000000000000000000000000000000000B4
:100C400000000000000000000000000000000000A4
:100C50000000000000000000000000000000000094
:100C60000000000000000000000000000000000084
:100C70000000000000000000000000000000000074
:100C80000000000000000000000000000000000064
:100C90000000000000000000000000000000000054
:100CA0000000000000000000000000000000000044
:100CB0000000000000000000000000000000000034
:100CC0000000000000000000000000000000000024
:100CD0000000000000000000000000000000000014
:100CE000000000000060240A45303F3106325B33CB
:100CF0004F3466356D367D3707387F396F4177421F
:100D00007C4339553E4930507346714F3F4C08C1C2
:100D1000211E1F20252223243835363751083E0155
:100D20000203040D0E0F2B10111213141516171CAD
:100D30004708CD0A0F19326496C860E008D4000055
:100D400000000A0A0000000101000A0A0001000276
:100D5000000A0E0E00000003010A0E0E000100043E
:100D600000180E0E0000000501180E0E000100060E
:100D700000261616000000070126161600010008BE
:100D8000003C060E00000009013C060E0001000AAE
:100D9000004A10100000000B014A10100001000C66
:100DA000005A0D010101000D00670D010101000E47
:100DB000007404040101000F007803030001001017
:100DC000007B1B1B00010011009619190001001285
:100DD00000AF0B0B0001001300BA1010010100144A
:100DE00000CA06060001001500D005050101001625
:100DF00000D508080001001700DD080800010018F0
:100E000000E51A1A0001001901AC06060001001ADB
:100E100001B23E3E0001001B01921A1A00014C0A69
:100E2000690AB60AC30AD10AE20AF20B01420A773A
:100E30000B0B420A750B1200787FE4F6D8FD758122
:100E40002012010A020E82021A20E493A3F8E4930E
:100E5000A34003F68001F208DFF48029E493A3F8AD
:100E60005407240CC8C333C4540F4420C88340041F
:100E7000F456800146F6DFE4800B010204081020DE
:100E80004080900CE5E47E019360BCA3FF543F30AA
:100E9000E509541FFEE493A360010ECF54C025E082
:100EA00060A840B8E493A3FAE493A3F8E493A3C83A
:100EB000C582C8CAC583CAF0A3C8C582C8CAC583CB
:100EC000CADFE9DEE780BE0706050403020100076A
:100ED00006050403020100070605040302010007DA
:100EE00006050407060504030201000706050403BE
:100EF000020100070605040302010003020100804D
:100F00008080808080808040404040404040402041
:100F100020202020202020101010100202020202A7
:100F20000202020404040404040404080808080873
:100F3000080808101010100102010200000003014F
:100F4000000201020201000300010003020100058A
:100F50000603040506030406050405050604060445
:100F60000605050604030304802001800820100202
:100F700004084002201010400101022010084080A7
:100F800010020802020401200880011080020140C2
:100F9000080440401008010101020202020202019D
:100FA000020202020202010180402010081008041F
:100FB0000201800180402010081008040201800115
:100FC0008040201008100804020180018040201099
:100FD0000810080402018003000000000000000067
:100FE00000000100010101010101010101010201F3
:100FF00002020202020202020202030203030303CC
:10100000030303030303000102100808101080808B
:1010100002024008400240400101040120208020DB
:1010200008040404201080010002020301030200EE
:101030000102030002030100000201030300010298
:1010400001030002010003E00040F0D070104020D6
:10105000E0F020B0D0801030A0A06060C0C0B050E0
:101060009090500030708040F010C0E0808020D020
:101070004060902010B070F050C0B0903070E03000
:10108000A0A000506000D00F03010D08040E070659
:101090000F0B020308040E090C070002010D0A0CD5
:1010A000060009050B0A05000D0E08070A0B010AC8
:1010B00003040F0D040102050B08060C07060C09BA
:1010C000000305020E0F09A0D000709000E09060B0
:1010D000303040F06050A01020D080C05070E0B0A0
:1010E000C040B020F08010D01060A040D0900080B0
:1010F00060F09030800070B04010F020E0C03050C0
:10110000B0A050E02070C0070D0D080E0B030500C5
:1011100006060F09000A03010402070802050C0B6A
:10112000010C0A040E0F090A03060F090000060C41
:101130000A0B01070D0D080F09010403050E0B052D
:101140000C02070802040E20E0C0B0402010C0705E
:1011500040A070B0D060108050500030F0F0A0D0AF
:10116000300090E080906040B0208010C0B070A04F
:1011700010D0E0702080D0F06090F0C000509060FF
:10118000A030400050E0300C0A010F0A040F0209A1
:1011900007020C0609080500060D01030D040E0EDA
:1011A00000070B05030B0809040E030F02050C02D0
:1011B0000908050C0F030A070B000E04010A0701BA
:1011C000060D000B08060D40D0B00020B0E070F016
:1011D0004000908010D0A030E0C030905070C050DF
:1011E00020A0F060801060106040B0B0D0D080C00F
:1011F00010304070A0E070A090F050600080F000CF
:10120000E05020903020C00D01020F080D040806A8
:101210000A0F030B0701040A0C090503060E0B0550
:1012200000000E0C09070207020B01040E0107095A
:10123000040C0A0E08020D000F060C0A090D000F1F
:101240000303050506080BFFF002002707200344EF
:101250004C2F54003634352D323030372D31344454
:10126000445359363636202020000000000102C6C3
:1012700001000000040001000100000102C601009D
:101280000000040001000200000102CA0100000089
:101290000400010090020101036801000000040045
:1012A000010090020001036201000000040001003F
:1012B00090020001036201000000040001033006F7
:1012C000010102FD01000000040001028000200174
:1012D00002F90100020C040001040004010101C92B
:1012E00000001000060001040004020101CF00000C
:1012F00010060600010400040E0101D50000100CC8
:10130000060001033001000103B3010000000401E5
:1013100001033302010103B70100000004010104CD
:1013200000100101038000001100040001040010FE
:1013300002010384000011040400010400100401F0
:101340000388000011080400010400100301038C4D
:101350000000110C040001040010050103900000BE
:10136000111004000104090B010103940000111481
:1013700003000104800010FF124701000000080173
:10138000000400040DFF124F0100000010010004D2
:1013900000040BFF125F010000000A010004000CB2
:1013A000010000000000120004010004000C020013
:1013B00000000000120304010004000C0300000000
:1013C00000001206040100040003080101E400000B
:1013D0001900010000040003020101E500001901E9
:1013E000010000040003010101E6000019020100F0
:1013F00000040003050101E70000190301000004D7
:101400000401010101EA00001A00010100040402C4
:101410000101020800001A1E010100040003060178
:1014200001DE00001015030001040003070101DBC9
:10143000000010120300010201010001002E010052
:1014400000000200010202010001003D0100000055
:101450000300010203000001004901000000030035
:10146000010203010001004D010000000300010220
:1014700006000001005A01000000020001020601FE
:101480000001005E01000000020001028000020174
:10149000006A0100000002000102010200010032A6
:1014A00001000000020001020103000100360100FA
:1014B00000000200010202020001004101000000E0
:1014C00003000102020300010045010000000300C7
:1014D00001020302000100510100000003000102AB
:1014E0000303000100550100000003000102060291
:1014F0000001006201000000020001020603000179
:10150000006601000000020001070000FF07000163
:10151000FF070101FF070102FF070103FF070301A6
:10152000FF070002FF200E1E1E18300810040404DE
:101530000404161100000000111100B0990184D4B8
:1015400001FF8430020C80FA000380FA000000845E
:10155000000084D6960004D6822404DC010C04DC4E
:10156000030C8432010C04D6820004D6830004D616
:1015700084000082000804D68C0004D6000004D643
:10158000880004D6940004D6970000C0000000B084
:10159000880000B08C0000B0940000B0970004B246
:1015A000010C010203000011892312329B462457CB
:1015B000AD653674BF8C489DC1AF5ABED3CA6CDBD3
:1015C000E5E97EF8F7108101083393221A56A54702
:1015D0002C75B7643E9CC98D40BFDBAE52DAEDCBB3
:1015E00064F9FFE8762102308B02101399672676A2
:1015F000AF443455BDAD4ABCC38E589FD1EB6EFA93
:10160000E7C87CD9F53183200A1291031877A766C1
:101610002E54B5453CBDCBAC429ED98F50FBEFEA72
:1016200066D8FDC9744204538D6116709F0420155D
:10163000A9273236BBCE4CDFC5ED5EFCD788689952
:10164000E1AB7ABAF35285430C7197601E14A10581
:101650002837B3263ADECDCF44FDDFEC5698E98932
:1016600060BBFBAA726306728F4014519D25223421
:10167000AB063017B9EF4EFEC7CC5CDDD5A96AB812
:10168000E38A789BF17387620E5095411C35A32441
:101690002A16B10738FFCFEE46DCDDCD54B9EBA8F2
:1016A000629AF98B7084089581A71AB693C22CD3DD
:1016B000A5E13EF0B7084019C92B523ADB4E645FF2
:1016C000ED6D767CFF94898500B79BA612D2ADC3E1
:1016D00024F1BFE03618C109483BD32A5A5EE54FD2
:1016E0006C7DF76C7EA50AB48386189791E32EF281
:1016F000A7C03CD1B5294238CB0A501BD96F667EB2
:10170000EF4C745DFDB58BA40296998710F3AFE2A0
:1017100026D0BDC13439C3284A1AD10B587FE76E91
:101720006E5CF54D7CC60CD785E51EF4978028913C
:10173000A1A33AB2B34A445BCD695678DF0C601D71
:10174000E92F723EFBD68DC704F59FE41690A98160
:1017500020B3BBA2325AC54B4C79D7685E1CE10D51
:10176000683FF32E7AE70EF687C41CD595A12AB000
:10177000A3823893B16B467ACF485459DD2D623C31
:10178000EB0E701FF9F78FE606D49DC514B1ABA020
:101790002292B983307BC76A4E58D5495C3DE32C11
:1017A0006A1EF10F78010101010202022626262697
:1017B0002525252828282827272710101010111143
:1017C000110E0E0E0E0F0F0F0C0C0C0C0D0D0D0A42
:1017D0000A0A0A0B0B0B0A100F0E0D0B0C04030266
:1017E00001020403040302010204030403020102D0
:1017F00004030403020102040304030201020403BC
:1018000004030201020403040302010204030000B2
:101810000000000000000000000102C604020100F8
:101820000100000102C6040201000200000102CA18
:10183000040201040004010101C9020005040004BE
:10184000010101CB040001040004020101CF0200E8
:1018500005040004020101D10400010400040E018A
:1018600001D50200050400040E0101D704000102A5
:101870008000200102F904040100900200010362CB
:101880000402010090020101036804020104001037
:101890000101038004020104001002010384040218
:1018A0000104090B01010394030403020101000177
:1018B000001D0302030202010001003D03030302B5
:1018C0000300000100490304030203010001004D6D
:1018D0000304030206000001005A02030502060188
:1018E0000001005E0203050280000201006A02029C
:1018F000050400040901006C030003020102000159
:101900000021030203020103000100250302030278
:10191000020200010041030303020203000100452B
:101920000303030203020001005103040302030343
:1019300000010055030403020602000100620203D5
:101940000502060300010066020305FFFFFFFF001A
:10195000000000000037007FFF600000003600003C
:10196000301E0000500400000005000000060000CA
:10197000000700000008000000090000000A000045
:10198000000B0000000C0000000D0000000E000025
:10199000000F000000100000001100000012000005
:1019A000001700000018000000190000001A0000D5
:1019B000001B0000001C000000610000006200002D
:1019C00000630000000100B97E0300F88431003498
:1019D00027020001001F0000001D00016027000019
:1019E00007280000072900000770000000330033BB
:1019F000000004050601070809020A0B0C04171869
:101A000019061A1B1C080D0E0F091011120A61622B
:101A1000630301020304050D0E0F2B0710111213AF
:101A20001201B9BF01031201BE5171900290E0F89A
:101A3000A3E0F9A3E0FAA3E0FBC31207C16003E44B
:101A4000F5B151719002901208421201DC12018C22
:101A50001201D71201AF1201B412000680CBF58338
:101A6000E0FCA3E0FDA3E0FEA3E0FF9003EA120880
:101A70004290028CE0FCA3E0FDA3E0FEA3E0FF9017
:101A80000437120842900288E0FCA3E0FDA3E0FEC8
:101A9000A3E0FF90043B120842E4FFFEFDFC90042B
:101AA0003BE0F8A3E0F9A3E0FAA3E0FBC31207C10F
:101AB000703074FFFFFEFDFC900437E0F8A3E0F9FE
:101AC000A3E0FAA3E0FBC31207C16043E4FFFEFDFD
:101AD000FC900437E0F8A3A3A3E0C31207C170028F
:101AE000802D900437E0FCA3E0FDA3E0FEA3E024FA
:101AF00001FFE43EFEE43DFDE43CFCA3E0F8A3E08E
:101B0000F9A3E0FAA3E0FBC31207C16002417190A0
:101B10000437E0FCA3E0FDA3E0FEA3E0FF227B018D
:101B20007A03795A7D047C00B182900360EEF0A3C1
:101B3000EFF07B017A03795AE4FD7F17FE715E7B3B
:101B4000017A0079107D047C00B182900016EEF0DD
:101B5000A3EFF07B017A007910E4FD7F16FE90067A
:101B600069EDF0A3EBF0A3EAF0A3E9F0900667EECD
:101B7000F0A3EFF090066D7401F0E490066FF0A30F
:101B8000F0C3EF941CEE94004002A151E490066E65
:101B9000F090066EE0FFC3941C4002A15175F0085E
:101BA000EFA424D4F582E5F03408F583E0FEA3E049
:101BB000FF900667E0FCA3E0FDEF6D7002EE6C6045
:101BC00002A149EDAE047803C333CE33CED8F9FF7A
:101BD00024DAF58274083EF583E06002816D900698
:101BE0006AE0FBA3E0FAA3E0F974D92FF582740848
:101BF0003EF583E024FEFDE434FFFCB18290066FE5
:101C0000EEF0A3EFF090066FE0FD900667E0FEA314
:101C1000E07803C333CE33CED8F924D9F5827408E3
:101C20003EF583E024FEFFE434FFFE90066AE0FB0D
:101C3000A3E0FAA3E0F98F828E83ED1205E190060E
:101C40006FA3E0FD900667E0FEA3E07803C333CE08
:101C500033CED8F924D9F58274083EF583E07E00AE
:101C600024FFF582EE34FFF583ED1205E19006675F
:101C7000E0FEA3E07803C333CE33CED8F924D6F503
:101C80008274083EF583E0FEA3E0FF900669E0FD64
:101C90007C00EF2DFFEC3EFEC006C007A3E0FBA3D7
:101CA000E0FAA3E0F9900667E0FEA3E07803C3330F
:101CB000CE33CED8F924D9F58274083EF583E0906E
:101CC0000A95F0D007D00612456AEF6002A1519044
:101CD000066DF0900667E0FEA3E07803C333CE33D1
:101CE000CED8F9FF24DBF58274083EF583E07061FD
:101CF00074DE2FF58274083EF583E0FEA3E0FF90CA
:101D00000669E0FD7C00EF2DFFEC3EFEC006C0073B
:101D1000A3E0FBA3E0FAA3E0F9900667E0FEA3E0EE
:101D20007803C333CE33CED8F924E1F58274083E6C
:101D3000F583E0900A95F0D007D00612456AEF606F
:101D40001090066D7401F0800890066EE004F0615A
:101D50009190066DE0FF221222999003F5E0FF7E3C
:101D6000009003F7EEF0A3EFF0FD9003F4E0FFED39
:101D70009003F7CFF0A3EFF07B017A0379E87D0CB5
:101D80007C009006ADEBF0A3EAF0A3E9F0A3ECF041
:101D9000A3EDF0E4A3F0A3F09006B074FFF5F01209
:101DA000068045F060429006ADE0FBA3E475F001CB
:101DB000120680A9F0FA120556FF9006B2E0FCA3C5
:101DC000E0FDED6F25E0FFE433FE74A52FF582748E
:101DD000153EF583ECFFE493FE7401936FFF9006CC
:101DE000B2EEF0A3EFF080B09006B2E0FEA3E0FF09
:101DF000227B017A0779CC900667E4F0A37472F035
:101E00007D007C0D1247927B017A0779CC90083CCB
:101E1000E0FFA3E0900666CFF0A3EFF07D709006A0
:101E200062EBF0A3EAF0A3E9F0A3EDF0122811EFC2
:101E300070037F0122900662E0FBA3E0FAA3E0F9C1
:101E4000A3E0FD7C00B182900666E06E7003A3E023
:101E50006F7F0060027F01229003E8EFF0E4A3F0BF
:101E60007B017A02796590027DE0FFA3E09006662F
:101E7000CFF0A3EFF07D18D11EEF70069003E8E0DD
:101E800070207B017A027965E4FD7F1BFE1220132E
:101E9000BF01069003E97401F0F13D123ACE7F01D3
:101EA000D1CF9003E9E0FF227F01D1CF7F147E00E4
:101EB000F15B1242DCEF64036014EF60119002C129
:101EC000E0D394024008E4F0F13D7F01D1CF2290AD
:101ED0000401EFF078027C047D017BFF7A0C7981AC
:101EE0007E007F141205309004197401F0900416DE
:101EF000F0A37404F0A37402F0900401E0FF7B01EE
:101F00007A047902123B27EF702D900A77E0FEA346
:101F1000E0AA06F97BFFC003C002900416E0FBA311
:101F2000E0FAA3E0F8AC02AD03D002D003120A5DE0
:101F3000EF7004900419F0900419E0FF2290FFE381
:101F4000E04440F043B0407F967E00F15B90FFE3B9
:101F5000E04440F053B0BF7FF47E019004A3EEF064
:101F6000A3EFF0A312084E000000009004A3E0FECF
:101F7000A3E0FF7C007D13120603E4FDA3E0F8A3B9
:101F8000E0F9A3E0FAA3E0FBC31207C15023F1B2CA
:101F90009004A5E0FCA3E0FDA3E0FEA3E02401FF84
:101FA000E43EFEE43DFDE43CFC9004A512084280C2
:101FB000BA22F1CBF1CB7F01AE071FEE70FA22F10E
:101FC000CB90FFE3E04410F053B0EF2290FFE3E04A
:101FD0004410F043B010F1CB90FFE5E04408F0531B
:101FE000E9F7F1BF80E590FFE3E04410F043B01063
:101FF00080D9900435E075F00EA42471F582E5F0E7
:102000003412F583E493FE740193FF7B017A037924
:10201000F3E4FD900664EDF0A3EBF0A3EAF0A3E98E
:10202000F0900662EEF0A3EFF09006687401F0E421
:10203000A3F0A3F09006ABF0A3F0C3EF941CEE94D2
:102040000040024136E4900669F0900669E0FFC363
:10205000941C4002413675F008EFA424D4F582E5C3
:10206000F03408F583E0FEA3E0FF900662E0FCA3F5
:10207000E0FDEF6D7002EE6C6002412E90066AF09A
:10208000900662E0FEA3E07803C333CE33CED8F9E6
:1020900024D6F58274083EF583E0FEA3E0FF9006A7
:1020A00064E0FD7C00EF2DFFEC3EFEC006C0077B28
:1020B000017A06796B900662E0FEA3E07803C333F1
:1020C000CE33CED8F924D9F58274083EF583E0905A
:1020D0000A8AF0D007D0065199EF64017078900613
:1020E00062E0FEA3E07803C333CE33CED8F9FF24F9
:1020F000DBF58274083EF583E0704D74DE2FF582C7
:1021000074083EF583E0FEA3E0FF900664E0FD7CEA
:1021100000EF2DFFEC3EFEC006C0077B017A06797A
:102120006B900662E0FEA3E07803C333CE33CED8D3
:10213000F924E1F58274083EF583E0900A8AF0D034
:1021400007D0065199BF010E90066AE004F0E0C383
:1021500094035002018090066AE0C3940340037F19
:102160000122900662E0FEA3E07803C333CE33CEB3
:10217000D8F9FF24DAF58274083EF583E0706D74B7
:10218000D92FF58274083EF583E0FF246AF582E4D6
:102190003406F583E0FD9006ABE4F0A3EDF074693E
:1021A0002FF582E43406F583E0FE9006ABE04EF0B6
:1021B000A3E0F07B017A06796B900662E0FEA3E073
:1021C0007803C333CE33CED8F924D9F58274083ED0
:1021D000F583E024FEFDE434FFFC121D829006AB83
:1021E000E06E7003A3E06F60037F0122900665E05C
:1021F000F9A3E0FAA3E09006B0C9F0A3EAF0A3E9DE
:10220000F0900662E0FEA3E07803C333CE33CED86D
:10221000F924D9F58274083EF583E09006B3F07B8B
:10222000017A06796B5156E4900668F080089006B2
:1022300069E004F0014A900668E0FF2251569006DA
:10224000B07401F0A37402F0A374DDF0A37404F081
:102250007B017A0379629006ADEBF0A3EAF0A3E983
:10226000F0E4FF9006B3E0FEEFC39E502B9006AD66
:10227000E0FBA3E0FAA3E0F98F8275830012056FFB
:10228000FE9006B0E0FBA3E0FAA3E0F98F8275832D
:1022900000EE1205E10F80CB22900A85EEF0A3EF4D
:1022A000F0900A87EBF0A3EAF0A3E9F0900A8BE440
:1022B000F0900A8AE0FFEF70037F0122900A8AE023
:1022C000FF7E00900A85E0FCA3E0FDEF2DFFEE3CD1
:1022D000FED3EF94FFEE940140037F0122900A8524
:1022E000E0FEA3E0FFEEFF7E00EF54FFFF900A8CBC
:1022F000EFF0900A8CE0FFEF25E0FF900A8CEFF002
:10230000B1F4900A8CE0FFEF24A0FFB15BEF600511
:1023100071B17F0122900A85E0FEA3E0FFB15BEF7F
:10232000600571B17F0122B1F4900A8CE0FFEF24C7
:10233000A1FFB15BEF600571B17F0122900A87E0D8
:10234000FBA3E0FAA3E0F9900A8DEBF0A3EAF0A377
:10235000E9F0900A8CE4F0900A8AE0FFEF14FF9015
:102360000A8CE0FEEEC39F502412449C900A8DE03C
:10237000FBA3E0FAA3E0F9900A8CE0FE8E8275835D
:1023800000EF1205E1900A8CE004F080CA124410BC
:10239000900A8DE0FBA3E0FAA3E0F9900A8CE0FE3E
:1023A0008E82758300EF1205E171B1900A8BE0FF18
:1023B00022900AB4E4F090FFE8E0FFEF54BFFF90F2
:1023C000FFE8EFF0900AB47414F0900AB4E0FFEF65
:1023D000D394004015E5EC20E61043EC80D1245363
:1023E000EC7F900AB4E014F080E090FFE8E0FFEFAB
:1023F0004440FF90FFE8EFF090FFE8E0FFEF4480FB
:10240000FF90FFE8EFF053ECBF53EC7FD12443EC97
:1024100080D12443EC4022900A79EEF0A3EFF090B3
:102420000A7BEBF0A3EAF0A3E9F0900A84E4F090D1
:102430000A7EE0FFEF600B900A7EE0FFEFD394206E
:1024400040037F0122900A79E0FEA3E0FFD3EF94DE
:10245000FFEE940140037F0122900A7EE0FF7E00A0
:10246000900A79E0FCA3E0FDEF2DFFEE3CFED3EFF8
:1024700094FFEE94004013900A79E0FEA3E0FFD3AE
:10248000EF94FFEE94005002A155B1F4900A7EE063
:10249000FF7E00900A79E0FCA3E0FDEF2DFFEE3C0B
:1024A000FED3EF94FFEE94005006900A8474A0F0DF
:1024B000900A79E0FEA3E0FFD3EF94FFEE94004092
:1024C00006900A8474A2F0900A84E0FFB15BEF608A
:1024D0000571B17F0122900A79E0FEA3E0FFB15BB4
:1024E000EF600571B17F0122900A7BE0FBA3E0FA67
:1024F000A3E0F9900A81EBF0A3EAF0A3E9F0900AD7
:102500007FE4F0A3E4F0900A7EE0FF7E00900A7F73
:10251000E0FCA3E0FDC3ED9FEC9E5033900A81E008
:10252000FBA3E0FAA3E0F9120556FFB15BEF6005EB
:1025300071B17F0122900A82E475F00112066A905F
:102540000A80E004F07006900A7FE004F080B77122
:10255000B1D13580037F01227F0022900AA6EFF0DF
:10256000900AA7E4F0900AA8E4F090FFE8E0FFEFFB
:102570004480FF90FFE8EFF053EC7F90FFE8E0FF2E
:10258000EF4440FF90FFE8EFF0900AA8E4F0900AD3
:10259000A8E0FFEFC394085030900AA6E0FFEF30A8
:1025A000E70543EC40800353ECBF43EC80900AA660
:1025B000E0FFEF25E0FF900AA6EFF012440953EC8C
:1025C0007F900AA8E004F080C512000790FFE8E0C1
:1025D000FFEF54BFFF90FFE8EFF043EC80120007DD
:1025E000E5EC30E606900AA77401F053EC7F900A00
:1025F000A7E0FF2212453690FFE8E0FFEF4440FFDE
:1026000090FFE8EFF043EC4090FFE8E0FFEF4480FC
:10261000FF90FFE8EFF043EC80D12453ECBFD124CE
:1026200053EC7F22900AB27401F0900AB2E0FF14DA
:10263000F0EF70F622900AAC74FFF0900AABE4F071
:10264000900AACE0FF900AABE0FEEEC39F5013B1DE
:10265000F47FA0B15BEF700261B1900AABE004F0CF
:1026600080DE229004617401F0A37407F0A374AEBD
:10267000F090045CE0900464F0900458E0FBA3E068
:10268000FAA3E0F990045EEBF0A3EAF0A3E9F0907E
:1026900006B07401F0A37404F0A3746FF0A374087F
:1026A000F0900461E0FBA3E0FAA3E0F95156900436
:1026B0005EE0FBA3E0FAA3E0F9124BEF7B017A04A2
:1026C000796F124C67E4900465F0E4900466F09032
:1026D0000465E0FF900F9793FE900466E0C39E5060
:1026E0001C900464E0FDB40103EF60117B017A04E7
:1026F000796F124FA0900466E004F080D29006B08B
:102700007401F0A37404F0A37467F0A37408F07B61
:10271000017A04796F515690048D74FFF0A3740F01
:10272000F0A37437F0A374FFF0A3740FF0A37467E1
:10273000F0A37406F07B017A047967124C8590044B
:102740007A7401F0A37404F0A37467F090045EE05F
:10275000FBA3E0FAA3E0F9124D58E4F5B19004654B
:10276000E004F0E0C394105002C1CA90045EE0FBA4
:10277000A3E0FAA3E0F9900477EBF0A3EAF0A3E971
:10278000F0E4F5B190047B04F0120556900483F058
:1027900090000412056F900482F090000112056F02
:1027A000900481F090000512056F900480F0900075
:1027B0000212056F90047FF090000612056F9004DE
:1027C0007EF090000312056F90047DF090000712D8
:1027D000056F90047CF0E490047AF07B017A047930
:1027E0007C124BC2900477E0FBA3E0FAA3E0F9A3CC
:1027F000E0F582758300EF1205E190047BE025E0AF
:10280000F090047AE004F0E0C3940840CEE4F5B11F
:1028100022900668EBF0A3EAF0A3E9F0E4FFEFC32F
:102820009D501B900668E0FBA3E0FAA3E0F98F82BD
:1028300075830012056F60037F01220F80E07F0027
:1028400022F09003EDE0FBA3E0FAA3E0F99000038F
:1028500012056FFFEFD3946340037F0022EF75F002
:102860000A84C454F0FEEF75F00A84E5F02EFF22CE
:10287000AC07AF05119DAD07AF04119DEF2DFF1201
:1028800005562FFFE41205CFEFC39464400974018D
:102890001205CF749C2FFF80BB12056FFFEFC4544D
:1028A0000F75F00AA4FEEF540F2EFF22900667EB7F
:1028B000F0A3EAF0A3E9F0E490066EF0A3F090062E
:1028C0006DE0FF90066FE0FEC39F5079EEFDC3EF11
:1028D0009DFDE49400FCED24FFFFEC34FFFE900628
:1028E00067E0FBA3E0FAA3E0F98F828E8312056F05
:1028F000FFED24FFFDEC34FFFC90066AE0FBA3E053
:10290000FAA3E0F98D828C8312056FFD7B017A06B4
:10291000796E117090066FE0FD90066DE0C39DFD2D
:10292000E49400CD24FFCD34FFFC900667E0FBA3C8
:10293000E0FAA3E0F98D828C83EF1205E190066F37
:10294000E004F001BE2290028CE0FCA3E0FDA3E0D5
:10295000FEA3E0FF9003D3120842900288E0FCA39C
:10296000E0FDA3E0FEA3E0FF9003D7120842E4FFDE
:10297000FEFDFC9003D7E0F8A3E0F9A3E0FAA3E0A2
:10298000FBC31207C1703074FFFFFEFDFC9003D340
:10299000E0F8A3E0F9A3E0FAA3E0FBC31207C160EB
:1029A00043E4FFFEFDFC9003D3E0F8A3A3A3E0C340
:1029B0001207C17002802D9003D3E0FCA3E0FDA3B9
:1029C000E0FEA3E02401FFE43EFEE43DFDE43CFC28
:1029D000A3E0F8A3E0F9A3E0FAA3E0FBC31207C168
:1029E000600221469003D3E0FCA3E0FDA3E0FEA338
:1029F000E0FF22C0E0C0F0C083C082C0D075D0002C
:102A0000C000C001C002C003C004C005C006C007AA
:102A10009003D0E5A7F075A70075B7559003CFE5F3
:102A2000B6F075B70030993DC299900073E004F09C
:102A3000900072E0FFA3E0C39F5024314690007ED7
:102A4000120842900073E02486F582E43400F58396
:102A5000E0FF30D004D29B8002C29B8F9980069009
:102A6000006F7408F030980BC298AF99AD07E4FF7F
:102A700012019675B7559003CFE0F5B675B700A370
:102A8000E0F5A7D007D006D005D004D003D002D0FF
:102A900001D000D0D0D082D083D0F0D0E0329002EC
:102AA0008CE0FCA3E0FDA3E0FEA3E0FF9003DF12B7
:102AB0000842900288E0FCA3E0FDA3E0FEA3E0FF53
:102AC0009003E3120842E4FFFEFDFC9003E3E0F80C
:102AD000A3E0F9A3E0FAA3E0FBC31207C1703074CE
:102AE000FFFFFEFDFC9003DFE0F8A3E0F9A3E0FAAE
:102AF000A3E0FBC31207C16043E4FFFEFDFC9003AB
:102B0000DFE0F8A3A3A3E0C31207C17002802D90F9
:102B100003DFE0FCA3E0FDA3E0FEA3E02401FFE46B
:102B20003EFEE43DFDE43CFCA3E0F8A3E0F9A3E0B5
:102B3000FAA3E0FBC31207C16002419E9003DFE0ED
:102B4000FCA3E0FDA3E0FEA3E0FF22C0E0C0F0C0D4
:102B500083C082C0D075D000C000C001C002C003D5
:102B6000C004C005C006C0079003DCE5A7F075A748
:102B70000075B7559003DBE5B6F075B70030D93D69
:102B8000C2D9900120E004F090011FE0FFA3E0C350
:102B90009F5024519E90012B120842900120E02466
:102BA00033F582E43401F583E0FF30D004D2DB80DA
:102BB00002C2DB8FD9800690011C7408F030D80B5C
:102BC000C2D8AFD9AD077F0112019B75B7559003ED
:102BD000DBE0F5B675B700A3E0F5A7D007D006D0C7
:102BE00005D004D003D002D001D000D0D0D082D004
:102BF00083D0F0D0E032E0FCA3E0FDA3E0FEA3E050
:102C0000FF9003EE1208429003EEE0FCA3E0FDA368
:102C1000E0FEA3E0FFA3E0F8A3E0F9A3E0FAA3E05D
:102C2000FBC31207C19003F2E0503DF8C000C001A1
:102C3000C002C0039003EEE0F8A3E0F9A3E0FAA31A
:102C4000E0FBC374FF9BFF74FF9AFE74FF99FD7451
:102C5000FF98FCD003D002D001D000EB2FFFEA3E5A
:102C6000FEE93DFDE83C8024FCA3E0FDA3E0FEA3DB
:102C7000E0FF9003EEE0F8A3E0F9A3E0FAA3E0FBA5
:102C8000C3EF9BFFEE9AFEED99FDEC98FCA31208B2
:102C9000429003F6E0FCA3E0FDA3E0FEA3E0FF907A
:102CA00003F2E0F8A3E0F9A3E0FAA3E0FBC3120704
:102CB000C17F0140027F002290030FE054FDF07BB2
:102CC000017A0979F57D041201A57B017A0979F968
:102CD00090066BE4F0A37404F0E4FD900667EBF05B
:102CE000A3EAF0A3E9F0A3EDF0E4FFFED390066CB5
:102CF000E09F90066BE09E401F90066AE0FD900604
:102D000067E0FBA3E0FAA3E0F98F828E83ED120562
:102D1000E10FBF00010E80D42290044AEBF0A3EA39
:102D2000F0A3E9F0A3EDF0D3946440037F01229077
:102D300004547401F0A37407F0A3742CF09006B04F
:102D40007401F0A37407F0A374BEF0A37408F090AC
:102D5000044EE0FBA3E0FAA3E0F91222567B017ACD
:102D60000779AEE4FD7F13FE122013BF01037F013C
:102D700022900454E0F9A3E0FAA3E09006B0C9F071
:102D8000A3EAF0A3E9F090044DE09006B3F09004BC
:102D90004AE0FBA3E0FAA3E0F9122256900454E0C3
:102DA000FBA3E0FAA3E0F990044DE0FFF582758300
:102DB0000074801205E17E00E92FF9EE3AFAE92469
:102DC00001F9E43AFA90066BE4F0A37407F0E4FD2D
:102DD00091DB90044DE0131313541F04900453F03F
:102DE000E4FD74BE2DF582E43407F583C083C08210
:102DF000E0FF900454E0FBA3E0FAA3E0F98D8275B4
:102E0000830012056FFEEF6ED082D083F00DEDB41B
:102E100008D0E4900452F0900453E014FF90045260
:102E2000E0C39F506F9004617401F0A37407F0A396
:102E300074AEF0A37402F07B017A0779BE12268487
:102E4000E4FD74BE2DF582E43407F583C083C082AF
:102E5000E0FC900452E02401FFE433FEEF7803C36A
:102E600033CE33CED8F9FFED7A002FFFEA3EFE9045
:102E70000454E0FBA3E0FAA3E0F98F828E831205ED
:102E80006F6CD082D083F00DEDB408B6900452E0A0
:102E900004F080837B017A0779BE90045B7402F0B2
:102EA000E4FFD1F2900451E06401703B90044AE0E9
:102EB000FBA3E0FAA3E0F9A3E0FF7E00E92FF9EE1F
:102EC0003AFA900665EBF0A3EAF0A3E9F0A37404E4
:102ED000F0A37455F07B017A0779BE123286BF02E7
:102EE000037F00227F01227F002290045B7401F0A7
:102EF0007F06900458EBF0A3EAF0A3E9F0EF640634
:102F000060147B017A0779AEE4FD7F13FE12201373
:102F1000BF01037F012290045BE0B40209A37402A5
:102F2000F0A314F0800990045C7401F0A304F01283
:102F300026639004617401F0A37407F0A374B6F0E3
:102F400090045D1226741226637F00229003EEE047
:102F500075F0ADA4248AF9740035F0FA7B01E075B0
:102F6000F0ADA42493F582E5F03400F583E0240A63
:102F7000FD9003F1EBF0A3EAF0A3E9F0E4FFFEEE2D
:102F8000C39D50189003F1E0FBA3E0FAA3E0F98E93
:102F90008275830012056F2FFF0E80E322FF9004DD
:102FA00002F07B017A0479049004927401F0129685
:102FB000DDE4900403F09003FEE075F0ADA42498E6
:102FC000F9740035F0FA9006657401F0A3EAF0A3F5
:102FD000E9F0A37404F07B017A047903900662EBB4
:102FE000F0A3EAF0A3E9F0E4900669F0900668E047
:102FF000FFA3E0FEC39F5047EEFD900662E0FBA3F7
:10300000E0FAA3E07E002FF9EE3AFAE924FFF9EAAC
:1030100034FFFAC3E99DF9EA9400FA120556FF90CD
:103020000665E0FBA3E0FAA3E0F9900669E0F5820B
:10303000758300EF1205E1900669E004F080AD228F
:1030400090043AEBF0A3EAF0A3E9F0E4FFEFC39DAC
:10305000502890043AE0FBA3E0FAA3E0F98F8275D0
:10306000830012056FFE540FD394095007EE54F0FD
:10307000949040037F01220F80D37F00229003F1C0
:10308000E075F0ADA424A0F9740035F0FA7B01904E
:103090000433E07E0029F9EE3AFA7D04900445EB12
:1030A000F0A3EAF0A3E9F0A3EDF0E4A3F090044864
:1030B000E0FFC313FEA3E0C39E5078900445E0FBFD
:1030C000A3E0FAA3E0F9900449E0FEF582758300DD
:1030D00012056F90044AF0EF24FFFDE434FFFCEE8C
:1030E000FFC3ED9FFFEC94008F82F58312056FFF05
:1030F000900449E0F582758300EF1205E190044ADF
:10310000E0FF900448E024FFFDE434FFFCA3E0FB73
:10311000C3ED9BFDEC9400FC900445E0FBA3E0FABA
:10312000A3E0F98D828C83EF1205E1900449E0045D
:10313000F001AD229003F1E075F0ADA42498F9748C
:103140000035F0FA7B0190043AEBF0A3EAF0A3E932
:10315000F0120556FF2485F582E43402F583E0C3BE
:103160009403401074852FF582E43402F5837403D0
:10317000F07F01227B017A04793EE4FD7F12FE128A
:103180002013BF01037F012290043AE0FBA3E0FA81
:10319000A3E0F9120556FF700690043DF0801BEF86
:1031A000B4010890043D7403F0800FEFB40208905E
:1031B000043D7406F080037F0122E4FFEF2401FD4B
:1031C000E433FC90043AE0FBA3E0FAA3E0F98D823B
:1031D0008C8312056FFE90043DE02F243EF582E4BF
:1031E0003404F583E06E6038120556FE2485F582BE
:1031F000E43402F583E004F074852EF582E43402B1
:10320000F583E0C39403401512055625E024ABF581
:1032100082E43402F5837405F0A374A0F07F0122E8
:103220000FEFB4039790043AE0FBA3E0FAA3E0F9B0
:103230001205562485F582E43402F583E4F0FF227A
:1032400024FEFFE434FFFE900442E0FD7C00120601
:103250000390043CE0FBA3E0FAA3E02FF9EA3EFA76
:10326000900665EBF0A3EAF0A3E9F0900442E09049
:103270000668F0900445E0900669F090043FE0FB9A
:10328000A3E0FAA3E0F9900662EBF0A3EAF0A3E969
:10329000F0E490066AF0900668E0FF90066AE0FEAF
:1032A000C39F400261A7900669E06455703990069B
:1032B00065E0FBA3E0FAA3E0F98E827583001205B6
:1032C0006FFD900662E0FBA3E0FAA3E0F98E827541
:1032D000830012056FFED39D40037F0022EEC39D45
:1032E0004002619F7F0122900668E024FFFFE434E2
:1032F000FFFE90066AE0FDC3EF9DFFEE9400FE9096
:103300000665E0FBA3E0FAA3E0F98F828E83120545
:103310006FFF900668E024FFFDE434FFFC90066A2E
:10332000E0FBC3ED9BFDEC9400FC900662E0FBA388
:10333000E0FAA3E0F98D828C8312056FD39F4003DE
:103340007F0022900668E024FFFFE434FFFE900631
:103350006AE0FDC3EF9DFFEE9400FE900665E0FB82
:10336000A3E0FAA3E0F98F828E8312056FFF900627
:1033700068E024FFFDE434FFFC90066AE0FBC3ED47
:103380009BFDEC9400FC900662E0FBA3E0FAA3E056
:10339000F98D828C8312056FC39F50037F012290A9
:1033A000066AE004F041967F022290043CEBF0A311
:1033B000EAF0A3E9F0900443E0FED3940150037FC8
:1033C0000122EE24FFFFE434FFFE900442E0FD7C86
:1033D0000012060390043CE0FBA3E0FAA3E02FF9FF
:1033E000EA3EFAC002C001A3E0F9A3E0FAA3E0902C
:1033F00006B0C9F0A3EAF0A3E9F0900442E0900619
:10340000B3F0D001D002122256900443E09004465B
:10341000F0900446E0FFD39401406D900444E064D2
:10342000557008EF5140EF6057800B900446E05113
:1034300040EF6401604A900446E024FEFFE434FF5C
:10344000FE900442E0FD7C0012060390043CE0FB89
:10345000A3E0FAA3E02FF9EA3EFAC002C001A3E01C
:10346000F9A3E0FAA3E09006B0C9F0A3EAF0A3E95B
:10347000F0900442E09006B3F0D001D00212225640
:10348000900446E014F080897F0022120556FF90D8
:103490000403E4F0A3EFF0E0F8E4F0E8900403F0B4
:1034A00090000112056FFF900403E0FEA3E04FFFC0
:1034B000900403EEF0FEA3EFF022AE04900001EDC5
:1034C0001205E1EE0205CF121FCC7B017A047914BC
:1034D000900419E0FCA3E0FDA3E0FEA3E0FF90044C
:1034E0009C1208429004A012084E000000009004B4
:1034F0009CE0FCA3E0FDA3E0FEA3E0FFA3120842D2
:10350000E49004A4F09004A0A3A3A3E0FFA3E0FD33
:10351000C374039DFDE494008D82F583EF1205E1F1
:103520009004A0E0FCA3E0FDA3E0FEA3E0FF780888
:103530001207D29004A01208429004A4E004F0E024
:10354000B404C222B1529004601208427B017A0393
:103550007962900651EBF0A3EAF0A3E9F0A3120818
:103560004E00000000E4900658F0900654E0FCA3E2
:10357000E0FDA3E0FEA3E0FF78081207E590065403
:10358000120842900654E0F8A3E0F9A3E0FAA3E0A1
:10359000FBC000C001C002C003900651E0FBA3E0E5
:1035A000FAA3E0F9900658E0F58275830012056FE2
:1035B000FFD003D002D001D000EB4FFFEAFEE9FDBF
:1035C000E8FC900654120842900658E004F0E0B47B
:1035D0000498900654E0FCA3E0FDA3E0FEA3E0FF06
:1035E0002290045DEBF0A3EAF0A3E9F0E490046517
:1035F000F0900463E014FF900463E0FEEFC39E408C
:1036000002C1D4900460E0FBA3E0FAA3E0F98F824A
:1036100075830012056FFE900465E02EFDE49004B2
:1036200064F0EDC39E50037401F0E4900465F090E3
:10363000045DE0FBA3E0FAA3E0F98F82758300123A
:10364000056FFE540FFCED540FFBECC39B5034EEA2
:10365000C39D90045DE0FB500E8F827583001205C0
:103660006FFEC3749A8037A3E0FAA3E0F98F8275E6
:10367000830012056FC39D24FA8F827583001205A3
:10368000E1804490045DE0FBA3E0FAA3E0F98F82BF
:1036900075830012056FFEC39D5015C374A09D2E47
:1036A0008F827583001205E19004657401F0801724
:1036B00090045DE0FBA3E0FAA3E02FF9E43AFA12EC
:1036C0000556C39D1205CF900464E06004A3740105
:1036D000F01FA1F722900442EBF0A3EAF0A3E9F077
:1036E000AB05A37401F0A312084E00000001900482
:1036F0004A12084E00000000E490044EF0EBD39410
:10370000005003023831EB94054003023831EBF0EE
:1037100090044EE0D39400500302383190044AE004
:10372000F8A3E0F9A3E0FAA3E0FBC000C001C002E7
:10373000C003900442E0FBA3E0FAA3E0F990044E3A
:10374000E0FF7E00E92FF9EE3AFA90FFFF12056FD5
:10375000540F75F00A84AFF0E4FCFD900446E0F8E5
:10376000A3E0F9A3E0FAA3E0FB120696D003D0028F
:10377000D001D000EB2FFFEA3EFEE93DFDE83CFC26
:1037800090044A120842900446E0FCA3E0FDA3E046
:10379000FEA3E0FFE47B0AFAF9F8120696900446CD
:1037A00012084290044AE0F8A3E0F9A3E0FAA3E08B
:1037B000FBC000C001C002C003900442E0FBA3E0D4
:1037C000FAA3E0F990044EE0FF7E00E92FF9EE3A0B
:1037D000FA90FFFF12056F54F0C4540FFFE4FCFD94
:1037E000900446E0F8A3E0F9A3E0FAA3E0FB120698
:1037F00096D003D002D001D000EB2FFFEA3EFEE9C5
:103800003DFDE83CFC90044A120842900446E0FC6E
:10381000A3E0FDA3E0FEA3E0FFE47B0AFAF9F812BF
:10382000069690044612084290044EE014F00237C7
:103830001090044AE0FCA3E0FDA3E0FEA3E0FF2219
:10384000900492EBF0A3EAF0A3E9F0900497120839
:1038500042900495E0A3F0900496E0D394005002C7
:103860002130E47B0AFAF9F8A3E0FCA3E0FDA3E031
:10387000FEA3E0FF120721AF03900492E0FBA3E058
:10388000FAA3E0F9900496E0FD7C00E92DF9EC3A0A
:10389000FA90FFFFEF1205E1900497E0FCA3E0FD32
:1038A000A3E0FEA3E0FFE47B0AFAF9F812072190F7
:1038B0000497120842900492E0FBA3E0FAA3E0F917
:1038C000900496E0FF7E00E92FF9EE3AFAE924FF32
:1038D000F9EA34FFFAC003C002C001120556FFC066
:1038E00007E47B0AFAF9F8900497E0FCA3E0FDA353
:1038F000E0FEA3E0FF120721AF03EFC454F0FED0B7
:10390000E04ED001D002D0031205CF900497E0FC26
:10391000A3E0FDA3E0FEA3E0FFE47B0AFAF9F812BE
:103920000721900497120842900496E014F0015782
:1039300022F0A37406F07B017A027965900425EBEE
:10394000F0A3EAF0A3E9F0E490042CF090042BE05B
:10395000FFA3E0FEC39F400221EF900425E0FBA3FC
:10396000E0FAA3E0F98E8275830012056FFDC4545E
:103970000F90042DF0ED540FA3F0E4FF742D2FF5FC
:1039800082E43404F583E0FEC3940A5010742D2FB2
:10399000F582E43404F583E02430F08014EEC3941F
:1039A00010500E742D2FF582E43404F583E0243793
:1039B000F00FEFB402C690042CE075F002A4FF9063
:1039C0000428E0FBA3E0FAA3E02FF9EA35F0FA902F
:1039D00006B0EBF0A3EAF0A3E9F0A37402F07B01D8
:1039E0007A04792D12225690042CE004F0214C2206
:1039F00078117C047D017BFF7A0C799F7E007F1417
:103A00001205309004287401F0A37404F0A374111B
:103A100031317B017A04791151C47B017A02796BCF
:103A2000900429740CF07F0B900425EFF0A3EBF0C9
:103A3000A3EAF0A3E9F0782A7C047D017BFF7A0CED
:103A400079097E007F3212053090045C7401F0A386
:103A50007404F0A3742AF0A37401F0900429E0FF29
:103A6000601F9006B07401F0A37404F0A3742AF0F0
:103A7000A3EFF0900426E0FBA3E0FAA3E0F9122202
:103A800056900425E0FF7B017A04792A7127EF70B4
:103A90002D900A77E0FEA3E0AA06F97BFFC003C0E1
:103AA0000290045CE0FBA3E0FAA3E0F8AC02AD03F3
:103AB000D002D003120A5DEF700490045FF090040E
:103AC0005FE0FF22900429740CF07F0941289006E2
:103AD000B07401F0A37402F0A37465F0A37406F04F
:103AE0007B017A0179C912225690026574C0F09068
:103AF00004287401F0A37402F0A3746B31319002B6
:103B0000777412F0A37434F0A37456F0A37401F028
:103B1000A3E4F0A37430F031F07B017A027965E41C
:103B2000FD7F1BFE021B5E900460EFF0A3EBF0A391
:103B3000EAF0A3E9F0A37401F0A3F0E4A3F0A3F08A
:103B4000A3F0A3F0786B7C047D017BFF7A0C79B342
:103B5000FE7F3212053090049D7401F0A37404F0CE
:103B6000A3746BF0900307E030E102C1A8D1DBBF82
:103B700001037F0622E490046AF090046AE0FFC328
:103B800094125022EF75F00AA42455F582E4340B08
:103B9000F583E493FF900460E0FEEF6E600890040C
:103BA0006AE004F080D490046AE0C394124002C139
:103BB000A8E4900467F0900307E030E102C1A8E4B4
:103BC000900468F09006B004F0A37404F0A3746B42
:103BD000F0A37404F07BFF7A0B794F122256900405
:103BE0006AE075F00AA42456F582E4340BF583E408
:103BF00093FB740193FA740293F912004E900469D6
:103C0000EFF0A3E075F00AA42456F582E4340BF536
:103C100083E493FB740193FA740293F99006B074F1
:103C200001F0A37404F0A3746FF0A3EFF012225616
:103C300090046AE075F00AA4245CF582E4340BF584
:103C400083E493FF6028900469E0246FF9E434046E
:103C5000FA9006B07401F0A3EAF0A3E9F0A3EFF044
:103C6000900461E0FBA3E0FAA3E0F912225690046D
:103C70006AE075F00AA4245CF582E4340BF583E471
:103C800093FF900469E02F246FF9E43404FA90065E
:103C9000B07401F0A3EAF0A3E9F0A37402F07BFF93
:103CA0007A0B795312225690046AE075F00AA42424
:103CB0005CF582E4340BF583E493FF900469E02F14
:103CC0002406900468F07F011201C853A9FB7F020B
:103CD000D1AEE4900466F0900468E0FF900466E0E2
:103CE000FEC39F505C746B2EF582E43404F583E0D0
:103CF000FF30D004D2DB8002C2DB8FD9E49004A075
:103D0000F0A3F030D904C2D98020121FCB9004A1B7
:103D1000E004F070069004A0E004F0C39004A1E079
:103D200094D09004A0E0940740D9C39004A1E094FB
:103D3000D09004A0E094075008900466E004F0805E
:103D40009643D81053A9FB9004687432F07B017A33
:103D500004796BE0FF90066BE4F0A3EFF0E4FD1252
:103D60002CDBE4900466F0900468E0FF900466E0C9
:103D7000C39F5054E49004A0F0A3F09004A0E0FE90
:103D8000A3E0FFC39440EE941F502C30D819C2D842
:103D9000900466E0246BF582E43404F583E5D9F001
:103DA000E4900465F080109004A1E004F0700690A7
:103DB00004A0E004F080C4C3EF9440EE941F5008C8
:103DC000900466E004F0809F900465E0700A90041F
:103DD00064F09004677403F090049DE0FBA3E0FAA4
:103DE000A3E0F912004E900468EFF0900464E060E4
:103DF00002C19690046AE075F00AA4245DF582E49D
:103E0000340BF583E493605BE4900466F090046AFD
:103E1000E0FF75F00AA4245DF582E4340BF583E439
:103E200093FE900466E0FDC39E506BEF75F00AA40C
:103E3000245EF582E4340BF583E4932D246BF58244
:103E4000E43404F583E0FF900461E0FBA3E0FAA30F
:103E5000E0F98D82758300EF1205E1900466E004BD
:103E6000F080AAE4900466F0900466E0FF246BF50D
:103E700082E43404F583E0FE900461E0FBA3E0FA01
:103E8000A3E0F98F82758300EE1205E1900466E0ED
:103E900004F0E0B406D27F04D1AE900467E004F0F1
:103EA000E0C39403500261B6900464E0FF229004E2
:103EB000A2EFF030E202801890FFE3E04420F053DC
:103EC000B0DF7F037E00121F5B9004A2E030E00AA7
:103ED00090FFE3E04420F043B0202290011CE07FFB
:103EE00001B401027F002290040AEFF0A3EBF0A3DB
:103EF000EAF0A3E9F0780F7C047D017BFF7A0C796E
:103F00003B7E007F321205309004417401F0900432
:103F10000AE0FF7B017A04790F7127EF702B900480
:103F20000BE0F9A3E0FAA3E09006B0C9F0A3EAF031
:103F3000A3E9F090040EE09006B3F07B017A0479D7
:103F40000F122256E4900441F0900441E0FF2290C9
:103F5000040E740CF07F08808E90040E740CF07FB9
:103F60000A8084900401EBF0A3EAF0A3E9F078055D
:103F70007C047D017BFF7A0C799A7E007F05120517
:103F8000307B017A04790590040E7405F07F11D11D
:103F9000E7900404EFF070327F0174052FF582E49E
:103FA0003404F583E0FE64296020EF24FFFDE4344F
:103FB000FFFC900401E0FBA3E0FAA3E0F98D828C02
:103FC00083EE1205E10FEFB405D0900404E0FF2268
:103FD000C0E0C0F0C083C082C0D075D000C000C0B7
:103FE00002C003C004C005C006C007ABA775A70088
:103FF00075B755AAB675B700E5E830E43475E80042
:1040000090000AE090000930E205E004F0800EE044
:10401000FF900008E02FF0E004F0A3E4F090FFE14F
:10402000E04410F05390EF9002C212084E000000DE
:104030000075B755AF028FB675B700AF038FA7D025
:1040400007D006D005D004D003D002D000D0D0D005
:1040500082D083D0F0D0E032C0D075D000C006C08E
:1040600007AFA775A70075B755AEB675B70053A8CB
:10407000F753883F75B7558EB675B7008FA7D00731
:10408000D006D0D032C0E0C0F0C083C082C0D075AE
:10409000D000C000C001C002C003C004C005C006FB
:1040A000C0079003CEE5A7F075A70075B75590033C
:1040B000CDE5B6F075B7005388DF758AC0758CE022
:1040C000E5C730E607900307E04402F0E47F50FEC6
:1040D000FDFC9002C2E0F8A3E0F9A3E0FAA3E0FB44
:1040E000C31207C150439002C2E0FCA3E0FDA3E06D
:1040F000FEA3E02401FFE43EFEE43DFDE43CFC9031
:1041000002C2120842E47F50FEFDFC9002C2E0F8B9
:10411000A3E0F9A3E0FAA3E0FBC31207C1400A90B1
:10412000FFE1E04410F0439010900288E0FCA3E02F
:10413000FDA3E0FEA3E0FFA312084274FFFFFEFD13
:10414000FC900288E0F8A3E0F9A3E0FAA3E0FBC347
:104150001207C1900288501EE0FCA3E0FDA3E0FE20
:10416000A3E02401FFE43EFEE43DFDE43CFC9002BC
:1041700088120842800712084E0000000075B755EB
:104180009003CDE0F5B675B700A3E0F5A7D007D052
:1041900006D005D004D003D002D001D000D0D0D0BA
:1041A00082D083D0F0D0E032C0D075D000C006C03D
:1041B00007AFA775A70075B755AEB675B70053A87A
:1041C000DF53C83375B7558EB675B7008FA7D007C4
:1041D000D006D0D032C0D075D000C006C007AFA77F
:1041E00075A70075B755AEB675B70053A8BF53C1D4
:1041F0001F75B7558EB675B7008FA7D007D006D0FC
:10420000D032C0D075D000C006C007AFA775A700D8
:1042100075B755AEB675B70053A9FE75B7558EB6CE
:1042200075B7008FA7D007D006D0D032C0E0C083CA
:10423000C082C0D075D000C006C007AFA775A70068
:1042400075B755AEB675B70090FFB6E4F090FFB7FE
:10425000F053A9FD75B7558EB6F5B78FA7D007D027
:1042600006D0D0D082D083D0E032C0D075D000C08C
:1042700006C007AFA775A70075B755AEB675B700EE
:1042800053A9DF75C60075B7558EB675B7008FA7F1
:10429000D007D006D0D032C0E0C083C082C0D07575
:1042A000D000C004C006C007ACA775A70075B755FD
:1042B000AEB675B70090FFD0E054FCF053A9FD7581
:1042C000B755AF068FB675B700AF048FA7D007D02C
:1042D00006D004D0D0D082D083D0E03278E87C03FE
:1042E0007D017BFF7A0C796D7E007F14120530E42E
:1042F0009003FFF0A374FFF07B017A0379E8E4FFF9
:10430000123B27900400EFF0BF01037FFF229004CF
:1043100000E0B406037F03229003FC7401F0A37451
:1043200003F0A374E8F0E4A3F09003FFE0FFC3946C
:1043300006503DEF25E02469F582E4340AF583E078
:10434000FEA3E0AA06F97BFFC003C0029003FCE0D5
:10435000FBA3E0FAA3E0F8AC02AD03D002D0031255
:104360000A5DEF70030080089003FFE004F080B95D
:104370009003FFE0FFC394065003A3EFF090040006
:10438000E0FF22900401EBF0A3EAF0A3E9F0E4A33C
:10439000F078057C047D017BFF7A0C7995FE7F0522
:1043A000120530900401E0FBA3E0FAA3E0F912004B
:1043B0004E900404EFF0D39403504BA37428F09074
:1043C00006B07401F0A37404F0A37406F090040422
:1043D000E09006B3F0900401E0FBA3E0FAA3E0F95B
:1043E000122256900404E0FF2406F582E43404F51A
:1043F000837429F07B017A047905EF240290042963
:10440000F07F10023A287F0122900AB37401F02253
:10441000900AAFE4F0900AB0E4F090FFE8E0FFEF1C
:104420004480FF90FFE8EFF090FFE8E0FFEF54BF1B
:10443000FF90FFE8EFF053EC7F900AB0E4F0900AB1
:10444000B0E0FFEFC3940850339109900AAFE0FF4A
:10445000EF25E0FF900AAFEFF043EC80E5EC30E6AB
:104460000E900AAFE0FFEF4401FF900AAFEFF0912A
:104470000953EC7F900AB0E004F080C290FFE8E0BE
:10448000FFEF4440FF90FFE8EFF043EC4043EC8047
:1044900012262453EC7F900AAFE0FF22900AADE48D
:1044A000F0900AAE7408F090FFE8E0FFEF4480FF60
:1044B00090FFE8EFF090FFE8E0FFEF54BFFF90FFC0
:1044C000E8EFF053EC7F900AAEE4F0900AAEE0FF24
:1044D000EFC39408503D9109900AADE0FFEF25E04D
:1044E000FF900AADEFF043EC80E5EC30E60E900A69
:1044F000ADE0FFEF4401FF900AADEFF09109900AA3
:10450000ADE0FF900AADEFF053EC7F900AAEE0040F
:10451000F080B890FFE8E0FFEF4440FF90FFE8EF45
:10452000F053ECBF43EC8012262453EC7F43EC4065
:10453000900AADE0FF2290FF84E0FFEF54FFFF9070
:10454000FF84EFF090FF85E0FFEF54FEFF90FF85C2
:10455000EFF090FFE9E0FFEF4401FF90FFE9EFF09B
:1045600053EDFE22900A95740EF0900A90EEF0A39F
:10457000EFF0900A92EBF0A3EAF0A3E9F0900A9032
:10458000E0FEA3E0FF900A96EEF0A3EFF0900A9011
:10459000E0FEA3E0FFEF5407FFC374089FFF900AFB
:1045A00098EFF0900A99E4F0900A98E0FF900A954D
:1045B000E0FEEEC39F500A900A95E0FF900A98EF44
:1045C000F0900A96E0FEA3E0FF900A92E0FBA3E0E1
:1045D000FAA3E0F9900A99E0FD7C00E92DF9EA3CA4
:1045E000FA900A98E0FD900A7EEDF0122417EFB4DD
:1045F00001037F0122900A98E0FF900A99E02FF0D2
:10460000900A99E0FF7E00900A90E0FCA3E0FDEFA5
:104610002DFFEE3CFE900A96EEF0A3EFF0900A9983
:10462000E0FF900A95E0FEC3EE9FFF900A98EFF03E
:10463000900A98E0FFEFD394084006900A98740817
:10464000F0900A98E0FFEF6002A1C17F0022900A7B
:104650009AEEF0A3EFF0900A9CEDF0900A9DEBF03B
:10466000C2AF900A9CE0FF8FEF900A9AE0FEA3E0B1
:10467000FFEF54FFF5EE900A9AE0FEA3E0FFEEFF95
:104680007E008FF775A70175F26E75F30575F40A54
:1046900075F509900A9DE0FFEFB4680775F606000E
:1046A00000000075A70075F700D2AF22900667E4FE
:1046B000F0A37472F07F007E0D900662EEF0A3EF1F
:1046C000F0A3EBF0A3EAF0A3E9F075E75575C78412
:1046D0000000E5C730E6037FFF22900315E0646821
:1046E00060037FFF22900667E0FEA3E0FF90066371
:1046F000E02FFF900662E03EFED3EF9400EE9410B0
:1047000040037FFF22D3900668E09400900667E0A4
:1047100094004045900664E0FBA3E0FAA3E0F912A0
:104720000556FC900662E0FEA3E0FFAD047B68D175
:104730004E900663E004F07006900662E004F0908C
:104740000665E475F00112066A900668E024FFF041
:10475000900667E034FFF080AC7F00228F828E836A
:10476000E4FFEDB4680DC2AF75A701E493FFE4F573
:10477000A7D2AF22900315E04420F07B017A0479A0
:104780006290045EE0FCA3E0FD9006677402F0A373
:10479000E4F0900665ECF0A3EDF075E75575C7847D
:1047A0000000E5C730E6037FFF22900667E0FEA326
:1047B000E0FF900666E02FFF900665E03EFED3EF37
:1047C0009400EE941040037FFF22D3900668E0949B
:1047D00000900667E094004035900665E0FEA3E097
:1047E000FF7D68F15CEF1205CF740129F9E43AFA14
:1047F000900666E004F07006900665E004F090060E
:1048000068E024FFF0900667E034FFF080BC7F0092
:1048100022900315E04408F07B68E4FDFF7E0C1154
:10482000287B68E4FDFF7E0D900A9EEEF0A3EFF07A
:10483000900AA0EDF0900AA1EBF075E75575C784DA
:104840000000E5C720E655900315E0FFEF646870AF
:104850004BC2AF900AA0E0FF8FEF900A9EE0FEA34C
:10486000E0FFEF54FFF5EE900A9EE0FEA3E0FFEEBE
:10487000FF7E008FF775A70175F2E675F30575F4F5
:104880000A75F509900AA1E0FFEFB4680775F6060E
:104890000000000075A70075F700D2AF2290FFE579
:1048A000E054FBF090FFF5E04404F022119DE5E9AF
:1048B00020E229900280E004F0700690027FE0047C
:1048C000F0C3900280E094FA90027FE09400401AD6
:1048D000E4F0A3F0900311E04401F022E490027FA1
:1048E000F0A3F0900311E054FEF02290FFE1E054B9
:1048F000FEF090FFF1E04401F02211EB900312E092
:1049000030E215E59030E0022199E04401F0E054F6
:10491000FBF0E4900234F022900312E030E061E515
:104920009020E06A900234E004F0E0FF7408D39F26
:104930005067900312E04402F0E054FEF0E490026D
:1049400034F0900310E04408F090023012084E005A
:1049500000003C900228741EF0900235E0700B902D
:10496000023CF09002357468F02290023CE004F0C2
:104970009001E7E0FF90023CE0C39F401CE4F0227E
:10498000900312E030E107E59030E00D8000E49004
:104990000234F09003127404F022EF1460210470CA
:1049A0002451077FFF31C643D18090FFE1E04408E6
:1049B000F05390F790FFE9E04402F053EDFD2251EF
:1049C00007E4FF31C622E4FE743D2EF582E4340292
:1049D000F583EFF00EEEB428EF7F007E25E4FD7442
:1049E0003D2DF582E43402F583E0FCEF2DF582E401
:1049F0003EF583ECF0743D2DF582E43402F583E45A
:104A0000F00DEDB428D92253D17F512B90FF807443
:104A1000F0F090FF817403F090FF8274FEF090FF3D
:104A2000837401F090FF8574FCF022E5D15470642A
:104A300030600653D18F43D130E5D154076407600D
:104A40000653D1F843D107E5D254076402600653F8
:104A5000D2F843D202225380FD00004380045380E9
:104A60007F22900283E0601EE014F0E0FF7E00BE33
:104A70000205BF40025189900283E0FF7E00BE0123
:104A800007BF900480D05189225380FD005380FBE2
:104A900053807F2243800200005380FB43808022AA
:104AA00090FFE7E054DFF090FFF7E054DFF0E49090
:104AB0000494F090FFE5E04408F053E9F7E4900433
:104AC00093F0900494E0FF25E0F090FFE5E04408C7
:104AD000F043E908121FCBE5EB30E507900494E0C2
:104AE0004401F090FFE5E04408F053E9F7121FCBD2
:104AF0000000900493E004F0E0C3940840C490FFE9
:104B0000E5E04408F053E9F7900494E0FF223EF515
:104B100083E0FF90049CEFF090FFE7E054DFF0901B
:104B2000FFF7E054DFF090FFE5E04408F053E9F7C9
:104B3000E490049DF090FFE5E04408F043E908901C
:104B4000049CE090FFE730E709E04402F043EB0209
:104B50008007E04402F053EBFD121FCB90FFE5E02D
:104B60004408F053E9F790049CE0FF25E0F0121FA1
:104B7000CB000090049DE004F0E0C3940840B690A0
:104B8000FFE5E04408F053E9F7227E00121F5B9036
:104B9000FFE7E054DFF090FFF7E054DFF090FFE52F
:104BA000E04408F043E908121FBF90FFE3E044101F
:104BB000F043B010121FCB90FFE3E04410F053B06D
:104BC000EF2290047BE0FD900484EDF0E4FF7E088A
:104BD000EF25E0FFEE7C0024FFF582EC34FFF58347
:104BE00012056FFD900484E05D60010FDEE222900B
:104BF0000477EBF0A3EAF0A3E9F090047B7440F0B3
:104C0000E490047AF090047AE0FFC394085036EF01
:104C1000B40404A37480F0900477E0FBA3E0FAA34B
:104C2000E0F971C290047AE0247CF582E43404F562
:104C300083EFF090047BE0FF1313543FF090047A6D
:104C4000E004F080C0900477E0F9A3E0FAA3E090DC
:104C500006B0C9F0A3EAF0A3E9F0A37408F07B0161
:104C60007A04797C02225690048D74FFF0A3740EAE
:104C7000F0A374C7F0A374FFF0A3740EF0A374FF45
:104C8000F0A37407F090048AEBF0A3EAF0A3E9F034
:104C9000E4F52090049404F0900493E075F008A4E7
:104CA0002401FFE435F0FEA3E0FDC39FEE6480F82D
:104CB000748098507DE52025E0F520EDFF7E0024EE
:104CC000FFFDEE34FFFC90048DE0FBA3E0FAA3E0CF
:104CD000F98D828C8312056FFD90048AE0FBA3E0BE
:104CE000FAA3E0F98D8275830012056FFDEF24FFB2
:104CF000FFEE34FFFE900490E0FBA3E0FAA3E0F99E
:104D00008F828E8312056F5D60020520900494E00F
:104D1000FF54077015EF131313541F2494F582E406
:104D20003404F583E520F0E4F520900494E004F0E9
:104D3000819890048AE0F9A3E0FAA3E09006B0C954
:104D4000F0A3EAF0A3E9F0900493E09006B3F07BBF
:104D5000017A047995022256900477EBF0A3EAF0E9
:104D6000A3E9F02404F9E43AFA9006B07401F0A340
:104D70007404F0A3747EF0A37404F012225690041D
:104D80008D74FFF0A3740FF0A374D7F0A374FFF039
:104D9000A3740FF0A374A7F0A37406F07B017A0448
:104DA000797E9185E490047DF090047DE0FF247E7F
:104DB000F582E43404F583C083C082E0FE90047A77
:104DC000E0FBA3E0FAA3E0F98F8275830012056F80
:104DD000FFEE6FD082D083F090047DE004F0E0B469
:104DE00006C7E490047DF090047DE0FFC394024088
:104DF00002E10FE0FE75F003A4247EF582E43404A2
:104E0000F583E0FDC45430FCEE75F003A4247FF577
:104E100082E43404F583E0C4540F4CF520ED131301
:104E2000543FFE90047DE0FD75F000A42447F58218
:104E3000E5F03410F583ED2583F583E5822EF582C8
:104E4000E43583F583E493FE75F000EDA42487F543
:104E500082E5F03410F583ED2583F583E582252086
:104E6000F582E43583F583E493FDEE4DFE90047DF9
:104E7000E0FD25E02486F582E43404F583EEF0EDD0
:104E800075F003A4247FF582E43404F583E025E083
:104E900025E0543FFEED75F003A42480F582E43450
:104EA00004F583E0FDC4131354034EF520ED543F85
:104EB000FE90047DE0FD75F000A42407F582E5F086
:104EC0003411F583ED2583F583E5822EF582E435F3
:104ED00083F583E493FE75F000EDA424C7F582E525
:104EE000F03410F583ED2583F583E5822520F582E6
:104EF000E43583F583E4934EFEEF25E02487F582C5
:104F0000E43404F583EEF090047DE004F0A1E79032
:104F1000048D74FFF0A37410F0A37427F0A374FF42
:104F2000F0A37410F0A37407F0A37404F07B017A6B
:104F30000479869185E490047DF090047DE0FFC3C0
:104F40009404505B7E00EF2404FDEE33FC90047764
:104F5000E0FBA3E0FAA3E0F98D828C8312056FF5E4
:104F60002090047DE0FDF58275830012056FFC74CE
:104F7000862DF582E43404F583E06CFD74042FF58E
:104F800082E433F583ED1205E190047DE0F582754E
:104F90008300E5201205E190047DE004F0809B226F
:104FA000900477EBF0A3EAF0A3E9F0A3EDF012058B
:104FB0005690047BF090000112056F90047CF090F5
:104FC000000212056F90047DF090000312056F54EB
:104FD000F090047EF0BD023390047BE0FCA3E0FD82
:104FE000A3E0FEA3E0FF78011207E590047B12081E
:104FF00042900477E0FBA3E0FAA3E0F912055630F3
:10500000E74490047EE04410F0803B90047BE0FC99
:10501000A3E0FDA3E0FEA3E0FF78011207D2900415
:105020007B12084290047EE054F0F0900477E0FB9D
:10503000A3E0FAA3E0F990000312056F30E40790B3
:10504000047BE04480F0900477E0FBA3E0FAA3E067
:10505000F990000312056F540F90047FF090000444
:1050600012056F900480F090000512056F90048186
:10507000F090000612056F900482F090047AE064CC
:1050800002703D90047FE0FCA3E0FDA3E0FEA3E0FE
:10509000FF78011207E590047F12084290047FE038
:1050A000540FF0900477E0FBA3E0FAA3E0F990003E
:1050B0000312056F30E33D900482E04401F0803438
:1050C00090047FE0FCA3E0FDA3E0FEA3E0FF7801F5
:1050D0001207D290047F120842900477E0FBA3E00D
:1050E000FAA3E0F990000612056F30E00790047F04
:1050F000E04408F090047EE0FFA3E0FEEF4E900451
:105100007EF0900480E090047FF0900481E09004B1
:1051100080F0900482E0900481F0900477E0F9A39D
:10512000E0FAA3E09006B0C9F0A3EAF0A3E9F0A387
:0C5130007407F07B017A04797B022256A0
:10800000EF14602104703BE5876003E4F587539823
:10801000F74398C0E4FF11D69004A2E599F0539875
:10802000EC43A81022E5876003E4F58753D8F343B7
:10803000D8C07F0111D69004A2E5D9F053D8EC4303
:10804000A90422EF14605104600201D5E5876003A2
:10805000E4F587E598440860035398F7E59854C021
:1080600064C060034398C090FFE2E054BFF090FF0B
:10807000F2E054BFF090FFE2E04480F043A080E4DF
:10808000FF11D6E4FF1201919003EEE599F05398A9
:10809000FC43981043A81022E5876003E4F587535A
:1080A000D8F343D8C090FFE3E054FEF090FFF3E034
:1080B00054FEF090FFE3E04402F043B0027F011170
:1080C000D67F011201919003EEE5D9F053D8FC431D
:1080D000D81043A90422EF14602C04704CE59D6471
:1080E000CC6003759DCCE59C647F6003759C7FE547
:1080F0009E540F64016006539EF0439E01E59C2050
:10810000E727439C8022E5DD64F3600375DDF3E53A
:10811000DC647F600375DC7FE59E54F06003539E52
:108120000FE5DC20E70343DC8022E4FF11437F01FD
:1081300011437F0211437F030143E4F5B1F5A8F534
:10814000A9129FFC12A04C12A48BB12C128E7E128D
:10815000A76F12A7AE312A315ED2AF7F00225395AE
:108160007F53A9FE128E617B017A0779CC90066756
:10817000E4F0A37472F07D007C0C121E04EF603FEB
:10818000121DF1EF6039E49003F6F09003F6E0FB86
:10819000C3941C502AEB25E025E02455F582E434F5
:1081A00019F583120832EB25E025E024CCF582E4B2
:1081B0003407F5831208429003F6E004F080CC12F5
:1081C0008DF47B017A0379F390066BE4F0A37403DA
:1081D000F0E4FD122CDB9003FC7408F0A37484F02F
:1081E0007B017A0379F4FD7C081234BA7B017A03AF
:1081F00079F37D035194E49003F6F09003F6E0FFE9
:10820000C3941C503CEF25E025E024CCF582E434F7
:1082100007F583E0FCA3E0FDA3E0FEA3E0FF7B0104
:108220007A0379F81234DE9003F8E0FF9003F7F058
:10823000FD7B017A0379F951949003F6E004F08014
:10824000BA7B017A0379F390066BE4F0A37403F030
:10825000E4FD122CDB9003FC74F8F0A37484F07B33
:10826000017A0379F4FD7CF81234BA7B017A037940
:10827000F37D03801FF583E0900402F07B017A0414
:1082800079009003FFE0FD91057B017A047900906D
:1082900003FFE0FD90040FEDF0120556900410F07E
:1082A00090000112056F900411F090000212056F0A
:1082B000900412F012B940121FCC90040FE04480D9
:1082C000FF124B139004137403F0900413E0FFD3D8
:1082D0009400401A74039FFFE49400FE74102FF57D
:1082E000827404124B0E900413E014F080DC121F11
:1082F000E690041912084EC90000001234C7E49039
:108300000418F0900418E0FFC39404501374142F61
:10831000F582E43404124B0F900418E004F080E37B
:10832000021FE69003FEEFF0A37437F0E4A3F09091
:1083300003FEE0FF75F0ADA424C9F582E5F034003A
:10834000F583E0900401F075F0ADEFA424C8F58248
:10835000E5F0340051759003FF7460F0E4A3F090F1
:1083600003FEE0FF75F0ADA424CDF582E5F0340006
:10837000F583E0900401F075F0ADEFA424CCF58214
:10838000E5F0340051759003FF7436F0E4A3F090EB
:1083900003FEE0FF75F0ADA424B5F582E5F03400EE
:1083A000F583E0900401F075F0ADEFA424B4F582FC
:1083B000E5F0340051759003FF741EF0E4A3F090D3
:1083C00003FEE0FF75F0ADA424A5F582E5F03400CE
:1083D000F583E0900401F075F0ADEFA424A4F582DC
:1083E000E5F03400F583E0900402F07B017A047933
:1083F000009003FFE0FD91057B017A047900900372
:10840000FFE0FD419490040FEDF01205569004102A
:10841000F090000112056F900411F0900002120517
:108420006F900412F0900315E04440F0E4900413C0
:10843000F0900413E0FFC3941C4002A12BEF25E051
:1084400025E02455F582E43419F5831208327B01C6
:108450007A0479141234DE90040FE0FD900414E0E5
:108460006D6002A123900315E04420F0900414ED08
:10847000F09006B07401F0A37404F0A37415F0A397
:108480007403F07B017A0479101222567B017A087A
:10849000794F900667E4F0A37472F07D007C0C12B3
:1084A0004792900413E075F004A4244FF974083542
:1084B000F0FA9006B07401F0A3EAF0A3E9F0A37417
:1084C00004F07B017A0479141222569006B07401EC
:1084D000F0A37407F0A374CCF0A37470F07B017A5E
:1084E00008794F1222567B017A0779CC7D707C0087
:1084F000121D8290083CEEF0A3EFF01248117B01B0
:108500007A0779CC900667E4F0A37472F07F007E5E
:108510000C1246B97B017A0779CC1246ACE4900381
:1085200015F022900413E004F08131227B017A03DC
:10853000790790066BE4F0A3740FF0E4FD122CDBD6
:108540007B017A02798890066BE4F0A3743EF0E434
:10855000FD122CDB7B017A0179E490066BE4F0A339
:108560007481F0E4FD122CDB7B017A0379709006B4
:108570006BE4F0A37410F0E4FD122CDB7B017A00B5
:10858000790890066BE4F0A37408F0E4FD122CDB8C
:108590007B017A00790090066BE4F0A37408F0E4A4
:1085A000FD122CDB7B017A0279C690066BE4F0A306
:1085B000740AF0E4FD122CDB7B017A0279D090067C
:1085C0006BE4F0A37429F0E4FD122CDB7B017A024A
:1085D000797F90066BE4F0A37409F0E4FD122CDBC4
:1085E0009003147401F012AC1012ACB8129A70120D
:1085F0009E44129D90129BCF1299A9E49009B4F069
:1086000090030DE054FBF0E4900237F0900307E094
:108610004401F0900310E04403F09001E4E0FF7E99
:10862000007C037DE81206037C017DF4120615E44C
:10863000FCFD9002301208429003127404F0900185
:10864000E4E0900228F0900229F07B017A03790A95
:10865000E4FD7F0FFE122013EF6005E490030AF0A3
:1086600090030AE030E60790030DE04420F0E49028
:10867000045EF0A3F07B017A047945FD7F11FE12C0
:10868000201390030AE030E56D7B017A04795512DE
:108690003544900464120842900464E0FCA3E0FDB9
:1086A000A3E0FEA3E0FFEC4D4E4F6037900460E086
:1086B000F8A3E0F9A3E0FAA3E0FBC31207C1400F5F
:1086C00090045E7401F090030AE030E4298021E414
:1086D00090045EF0A3F090030AE054DFF0E054EF62
:1086E000F0801390045E7401F090030AE030E40619
:1086F00090045F7401F07B017A047945123544904F
:108700000464120842900464E0FCA3E0FDA3E0FED0
:10871000A3E0FF900460E0F8A3E0F9A3E0FAA3E08F
:10872000FBC31207C1500302883190030EE04401DD
:10873000F07B017A047949123552900460120842A4
:10874000900464E0FCA3E0FDA3E0FEA3E0FF90043E
:1087500060E0F8A3E0F9A3E0FAA3E0FBC31207C1CD
:10876000500302882890030EE020E104E04402F068
:10877000E4FFFEFDFC900464E0F8A3E0F9A3E0FA56
:10878000A3E0FBC31207C1600302881290030EE04E
:1087900020E204E04404F07B017A03796812355248
:1087A000900460120842E4FFFEFDFC900460E0F8D3
:1087B000A3E0F9A3E0FAA3E0FBC31207C1600D90A8
:1087C000030EE020E30DE04408F0800790030EE084
:1087D00054F7F07B017A04795112355290046412F7
:1087E0000842900464E0FCA3E0FDA3E0FEA3E0FFE8
:1087F000900460E0F8A3E0F9A3E0FAA3E0FBC31261
:1088000007C190030AE040054420F0803254DFF0B5
:10881000802D90030EE054F7F090030AE054DFF04F
:1088200090030EE054FB800F90030EE054E1F080C3
:108830000E90030EE054E0F090030AE054EFF09045
:10884000045EE0B4010790030AE04420F090045F66
:10885000E0B4010790030AE04410F090030AE0300E
:10886000E504E04410F07B017A03790AE4FD7F0F10
:10887000FE021B5E78017C047D017BFF7A0079ECAF
:108880007E007F0712053071D77B017A0179C9E438
:10889000FD7F10FE122013EF604D7B017A0179C934
:1088A00090066BE4F0A3741BF0E4FD122CDB900146
:1088B000CE7401F09001D4F09001DAF09001DDF077
:1088C0009001E0F0A374FFF07B017A0179C9E4FD27
:1088D0007F10FE121B5E123ACE7B017A0179C9E449
:1088E000FD7F10FE121B5E7B017A03797090066B90
:1088F000E4F0A37410F0E4FD122CDB900370740319
:10890000F0A37408F07B017A037970E4FD7F0AFE1E
:10891000121B5E9001E47405F0A3F0A37407F0A3AA
:10892000F07B017A0179E4E4FD7F19FE121B5E7B86
:10893000017A0179EA90066BE4F0A3743EF0E4FD5D
:10894000122CDB9006B07401F0A37401F0A374EA5A
:10895000F0A37407F07B017A047901122256900685
:10896000B07401F0A37402F0A37408F0A37407F0CC
:108970007B017A0479011222567B017A0179EAE4BB
:10898000FD7F1AFE121B5E7B017A0279F990066B5D
:10899000E4F0A3740EF0E4FD122CDB9002FB7450A3
:1089A000F07B017A0279F9E4FD7F04FE121B5E7B05
