:020000040000FA
:07000000020A5E023FFF222D
:0F000B000240B4EF240A83900100730A2D507352
:03001B0002408719
:030023000232287E
:03002B000241D7B8
:0300330002420482
:03003B000242314D
:0300430002425B1B
:10004B0002338001020A0B09030401020A0B0903A4
:07005B000490053BE0FF22C9
:0E006300024299E4FF1228D512363C02298C85
:100073000242C6900DC31208EB7810EC4D4E4F7040
:10008300047CA57DA5C3EC13FCED13FDEE13FEEF7D
:1000930013FF5010EC64CCFCED644CFDEE644EFE9B
:1000A300EF64CEFFD8DF900DC3120842EE547FFEFB
:1000B30022900DC3EEF0EFA3F0A374A5F0A3F022FA
:1000C300300100000C0333020012300004002C3412
:1000D3000006000E1D0008000C1E000A000C0002A2
:1000E300060A0E050204040404900DD37401F09073
:0A00F3000DD3E0FF14F0EF70F622C9
:10010000C0087401C0E0C082C08375080AC0F085D1
:10011000A8F0C2AF75B75575B61175B70085F0A8D0
:10012000D0F022C0087401C0E0C082C08375082DE1
:10013000C0F085A8F0C2AF75B75575B61175B70098
:1001400085F0A8D0F022C0087401C0E0C082C0834E
:10015000750850C0F085A8F0C2AF75B75575B622C6
:1001600075B70085F0A8D0F022C0087401C0E0C0C7
:1001700082C083750873C0F085A8F0C2AF75B7550B
:1001800075B63375B70085F0A8D0F02290800021B5
:10019000469082BF2146908402214690869921464E
:1001A00090B9C1214690D662214690F4952146909F
:1001B000F28F214690941F212390813A212390832E
:1001C000E62123908043212390800021239096B83C
:1001D0002123908824212390B848212390C59A2177
:1001E000239083EC2123909007212390921C2123BC
:1001F000908A60212390993B212300EC4D6011E807
:10020000497017ED33EC3304600DE4FCFFFEFD2272
:10021000E933E8330470F802044B12041658046002
:1002200009E4CC24815006285009020455284003D3
:10023000020452C0E0EB4A7044B98006D0E0FB02F1
:100240000441EF4E701CBD8008EBFFEAFEE9FD8023
:10025000EBE98DF0A4FEE5F00202E4E9CDF9EAFE57
:10026000EBFFEF89F0A4FCE5F0CE89F0A42EFFE4CB
:1002700035F0CD89F0A42DFEE435F08067EF4E70A7
:1002800005BD80D780C3EF8BF0A4ACF0EE8BF0A45B
:100290002CFCE435F0F8EF8AF0A42CE5F038FCE40F
:1002A00033CB8DF0A42CFCE5F03BF8EE8AF0A42CC7
:1002B000FCE5F038F8E433CF89F0A42CFCE5F03805
:1002C000CF3400CE89F0A42FFFE5F03EFEE433C921
:1002D0008DF0A42EFEE5F039CD8AF0A42FFFE5F0D5
:1002E0003EFEE43DFD33D0E0FB50070BBB000F02A8
:1002F0000455EC2CFCEF33FFEE33FEED33FD02042E
:100300002D020455EC5D046005E8590470030204F5
:100310004B120416580460F6EC4860F2EC7004FDD1
:10032000FEFF22C860DB2481C85009C398600250D8
:10033000060204529850CAF582E9294B4A7005AB6F
:100340008202044175F0007C1A7880C3EF9BEE9A1C
:10035000ED99400DC3EF9BFFEE9AFEED99FDE8424B
:10036000F0DC23ACF0D0E0FFD0E0FED0E0FDAB82CB
:1003700020E7101BEB60BAEC2CFCEF33FFEE33FEF2
:10038000ED33FD02042DE803F830E705C0F075F009
:1003900000EF2FFFEE33FEED33FD40B830E7C280B3
:1003A000AA75F020800E75F010800575F0087D00AC
:1003B0007E007F003392D530D5031207B3EC334073
:1003C00010EF33FFEE33FEED33FDEC33FCD5F0EDF3
:1003D00022E5F0247EA2D513CC92E7CDCEFF22ED0C
:1003E000D2E7CD33EC3392D524814006E4FFFEFD05
:1003F000FC22FCE4CFCECDCC24E0501174FF80ED84
:10040000C3CC13CCCD13CDCE13CECF13CF0470F00D
:1004100030D5DE0207B3E9D2E7C933E833F892D525
:10042000EDD2E7CD33EC33FC5002B2D522EC30E70D
:10043000100FBF000C0EBE00080DBD00040BEB60DA
:1004400014A2D5EB13FCED92E7FD2274FFFCFDFE38
:10045000FF22E480F8A2D574FF13FC7D80E480EFD6
:10046000E709F608DFFA8046E709F208DFFA803E7E
:1004700088828C83E709F0A3DFFA8032E309F6086B
:10048000DFFA8078E309F208DFFA807088828C83D3
:10049000E309F0A3DFFA806489828A83E0A3F60887
:1004A000DFFA805889828A83E0A3F208DFFA804C61
:1004B00080D280FA80C680D4806980F28033801038
:1004C00080A680EA809A80A880DA80E280CA8033A1
:1004D00089828A83ECFAE493A3C8C582C8CCC58319
:1004E000CCF0A3C8C582C8CCC583CCDFE9DEE780E9
:1004F0000D89828A83E493A3F608DFF9ECFAA9F068
:10050000EDFB2289828A83ECFAE0A3C8C582C8CCBD
:10051000C583CCF0A3C8C582C8CCC583CCDFEADED6
:10052000E880DB89828A83E493A3F208DFF980CC38
:1005300088F0EF60010E4E60C388F0ED2402B40431
:100540000050B9F582EB2402B4040050AF232345D8
:1005500082239004B073BB010689828A83E0225013
:1005600002E722BBFE02E32289828A83E49322BB54
:10057000010CE58229F582E5833AF583E0225006F5
:10058000E92582F8E622BBFE06E92582F8E222E5AB
:100590008229F582E5833AF583E49322BB010FF8C3
:1005A000E58229F582E5833AF583E028F0225009B7
:1005B000C58229F8E58226F622BBFE09C58229F804
:1005C000E22582F222F8EA2583F583E9932822BB0B
:1005D000010689828A83F0225002F722BBFE01F3D2
:1005E00022F8BB010DE58229F582E5833AF583E81F
:1005F000F0225006E92582C8F622BBFE05E92582D5
:10060000C8F222EF8DF0A4A8F0CF8CF0A428CE8DF4
:10061000F0A42EFE22BC000BBE0029EF8DF084FF5B
:10062000ADF022E4CCF875F008EF2FFFEE33FEECCE
:1006300033FCEE9DEC984005FCEE9DFE0FD5F0E9F5
:10064000E4CEFD22EDF8F5F0EE8420D21CFEADF0F4
:1006500075F008EF2FFFED33FD4007985006D5F0F9
:10066000F222C398FD0FD5F0EA22C5F0F8A3E028E6
:10067000F0C5F0F8E582158270021583E038F022AB
:10068000A3F8E0C5F025F0F0E5821582700215832D
:10069000E0C838F0E822E88FF0A4CC8BF0A42CFC62
:1006A000E98EF0A42CFC8AF0EDA42CFCEA8EF0A4D8
:1006B000CDA8F08BF0A42DCC3825F0FDE98FF0A467
:1006C0002CCD35F0FCEB8EF0A4FEA9F0EB8FF0A45E
:1006D000CFC5F02ECD39FEE43CFCEAA42DCE35F09A
:1006E000FDE43CFC2275F008758200EF2FFFEE332D
:1006F000FECD33CDCC33CCC58233C5829BED9AEC95
:1007000099E58298400CF582EE9BFEED9AFDEC99FE
:10071000FC0FD5F0D6E4CEFBE4CDFAE4CCF9A88208
:1007200022B800C1B90059BA002DEC8BF084CFCEAD
:10073000CDFCE5F0CBF97818EF2FFFEE33FEED336B
:10074000FDEC33FCEB33FB10D703994004EB99FB32
:100750000FD8E5E4F9FA227818EF2FFFEE33FEED1B
:1007600033FDEC33FCC933C910D7059BE99A400728
:10077000EC9BFCE99AF90FD8E0E4C9FAE4CCFB223F
:1007800075F010EF2FFFEE33FEED33FDCC33CCC808
:1007900033C810D7079BEC9AE899400AED9BFDEC13
:1007A0009AFCE899F80FD5F0DAE4CDFBE4CCFAE452
:1007B000C8F922C3E49FFFE49EFEE49DFDE49CFC97
:1007C00022EB9FF5F0EA9E42F0E99D42F0E89C455D
:1007D000F022E8600FECC313FCED13FDEE13FEEF07
:1007E00013FFD8F122E8600FEFC333FFEE33FEEDC5
:1007F00033FDEC33FCD8F122BB010789828A8302E6
:1008000008EB5005E9F80208DFBBFE05E9F802082D
:10081000F789828A83020832BB010789828A8302B0
:1008200008425005E9F8020903BBFE05E9F8020990
:100830000F22E493FC740193FD740293FE740393FE
:10084000FF22ECF0A3EDF0A3EEF0A3EFF022A882DC
:100850008583F0D083D0821208651208651208657E
:10086000120865E473E493A3C583C5F0C583C8C5C6
:1008700082C8F0A3C583C5F0C583C8C582C822D08D
:1008800083D082F8E4937012740193700DA3A39344
:10089000F8740193F5828883E4737402936860EFBF
:1008A000A3A3A380DFD083D082E49370127401935A
:1008B000700DA3A393F8740193F5828883E4737495
:1008C00002936C70127403936D700C7404936E70C9
:1008D000067405936F60DDA3A3A3A3A3A380CAE658
:1008E000FC08E6FD08E6FE08E6FF22E0FCA3E0FDCA
:1008F000A3E0FEA3E0FF22E2FC08E2FD08E2FE081E
:10090000E2FF22ECF608EDF608EEF608EFF622EC30
:10091000F208EDF208EEF208EFF22260240D7630D4
:100920003F3106325B334F3466356D367D370738DD
:100930007F396F4177427C4339553E493050734689
:10094000714F3F4C0AD7211E1F2025222324383502
:100950003637510A54010203040D0E0F2B101112E9
:1009600013141516171C500AE3000A000F00190093
:10097000320064009600C8012C60E00C0500000005
:10098000000A0A0000000101000A0A00010002003A
:100990000A0E0E00000003010A0E0E000100040002
:1009A000180E0E0000000501180E0E0001000600D2
:1009B0002616160000000701261616000100080082
:1009C0003C060E00000009013C060E0001000A0072
:1009D0004A10100000000B014A10100001000C002A
:1009E0005A0D010101000D00670D010101000E000B
:1009F0007404040101000F007803030001001000DB
:100A00007B1B1B0001001100961919000100120048
:100A1000AF0B0B0001001300BA101001010014000D
:100A2000CA06060001001500D005050101001600E8
:100A3000D508080001001700DD08080001001800B3
:100A4000E51A1A0001001901AC06060001001A019E
:100A5000B23E3E0001001B01921A1A000100787F8D
:100A6000E4F6D8FD75812012010A020AA80218B323
:100A7000E493A3F8E493A34003F68001F208DFF4C3
:100A80008029E493A3F85407240CC8C333C4540F3B
:100A90004420C8834004F456800146F6DFE4800B0E
:100AA000010204081020408090091BE47E0193603D
:100AB000BCA3FF543F30E509541FFEE493A360013B
:100AC0000ECF54C025E060A840B8E493A3FAE493A5
:100AD000A3F8E493A3C8C582C8CAC583CAF0A3C853
:100AE000C582C8CAC583CADFE9DEE780BE0706053E
:100AF00004030201000706050403020100070605BE
:100B000004030201000706050407060504030201A9
:100B1000000706050403020100070605040302019D
:100B200000030201008080808080808080404040FF
:100B30004040404040202020202020202010101045
:100B40001002020202020202020404040404040469
:100B5000040808080808080808101010100102010D
:100B60000200000003010002010202010003000173
:100B7000000302010005060304050603040605043C
:100B80000505060406040605050604030304802083
:100B900001800820100204084002201010400101CA
:100BA0000220100840801002080202040120088080
:100BB00001108002014008044040100801010102B8
:100BC000020202020201020202020202010180404C
:100BD0002010081008040201800180402010081035
:100BE000080402018001804020100810080402015E
:100BF00080018040201008100804020180030000DA
:100C000000000000000000000100010101010101DD
:100C100001010101020102020202020202020202B9
:100C2000030203030303030303030303000102108E
:100C30000808101080800202400840024040010174
:100C400004012020802008040404201080010002F8
:100C5000020301030200010203000203010000027B
:100C600001030300010201030002010003E0004050
:100C7000F0D070104020E0F020B0D0801030A0A064
:100C80006060C0C0B0509090500030708040F01054
:100C9000C0E0808020D04060902010B070F050C044
:100CA000B0903070E030A0A000506000D00F030181
:100CB0000D08040E07060F0B020308040E090C07AB
:100CC0000002010D0A0C060009050B0A05000D0EB5
:100CD00008070A0B010A03040F0D040102050B08A3
:100CE000060C07060C09000305020E0F09A0D00030
:100CF000709000E09060303040F06050A01020D044
:100D000080C05070E0B0C040B020F08010D01060C3
:100D1000A040D090008060F09030800070B0401013
:100D2000F020E0C03050B0A050E02070C0070D0DA2
:100D3000080E0B03050006060F09000A0301040252
:100D4000070802050C0B010C0A040E0F090A030622
:100D50000F090000060C0A0B01070D0D080F090111
:100D60000403050E0B050C02070802040E20E0C068
:100D7000B0402010C07040A070B0D06010805050C3
:100D80000030F0F0A0D0300090E080906040B020C3
:100D90008010C0B070A010D0E0702080D0F06090C3
:100DA000F0C000509060A030400050E0300C0A01CC
:100DB0000F0A040F020907020C0609080500060DB8
:100DC00001030D040E0E00070B05030B0809040EAA
:100DD000030F02050C020908050C0F030A070B009C
:100DE0000E04010A0701060D000B08060D40D0B0E5
:100DF0000020B0E070F04000908010D0A030E0C043
:100E000030905070C05020A0F060801060106040A2
:100E1000B0B0D0D080C010304070A0E070A090F092
:100E200050600080F000E05020903020C00D0102A2
:100E30000F080D0408060A0F030B0701040A0C092A
:100E40000503060E0B0500000E0C09070207020B36
:100E500001040E010709040C0A0E08020D000F061A
:100E60000C0A090D000F0303050506080BFFF0022D
:100E70000027072005445453593636362020204495
:100E80004C2F54003634352D323030372D3134FE6E
:100E9000FEFEFE680000FFFFFFFFFFFF000068008E
:100EA000000000000104EB0100000004000100014B
:100EB00000000104EB01000000040001000200003A
:100EC0000104EF010000000400010090020101058F
:100ED0008E0100000004000100900200010588015D
:100EE000000000040001033006010105220100009A
:100EF000000400010280002001051E00000400041F
:100F00000001040004010103ED00001000060001CF
:100F1000040004020103F3000010060600010400AF
:100F2000040E0103F90000100C060001033001005B
:100F30000105D9010000000401010333020101058C
:100F4000DD01000000040101040010010105A600FC
:100F5000001100040001040010020105AA000011A4
:100F600004040001040010040105AE00001108048F
:100F70000001040010030105B20000110C0400017F
:100F8000040010050105B600001110040001040959
:100F90000B010105BA0000111403000104800010C8
:100FA000FF0E6D010000000801000400040DFF0E9B
:100FB0007F010000001001000400040BFF0E75010A
:100FC0000000000A010004000C01000000000012F3
:100FD0000004010004000C020000000000120304E1
:100FE000010004000C0300000000001206040100D0
:100FF00004000308010408000019000100000400B7
:1010000003020104090000190101000004000301AA
:1010100001040A0000190201000004000305010494
:101020000B000019030100000404010101040E007B
:10103000001A000101000404020101042C00001A3E
:101040001E01010004000306010402000010150344
:101050000001040003070103FF0000101203000158
:101060000201010001002E01000000020001020245
:10107000010001004D010000000300010203000017
:1010800001006901000000030001020301000100EA
:101090006D010000000300010206000001008A014A
:1010A0000000000200010206010001008E010000A4
:1010B000000200010280000201009A01000000020B
:1010C00000010201020001003201000000020001E3
:1010D00002010300010036010000000200010202CB
:1010E00002000100510100000003000102020300A0
:1010F000010055010000000300010203020001008D
:1011000071010000000300010203030001007501EA
:10111000000000030001020602000100920100002D
:101120000002000102060300010096010000000217
:101130000001070000FF070001FF070101FF070191
:1011400002FF070103FF070301FF070002FF200E54
:101150001E1E1830081004040404041611000000B8
:1011600000111100B0990184D401FF8430020C8079
:10117000FA000380FA00000084000084D696000480
:10118000D6822404DC010C04DC030C8432010C0440
:10119000D6820004D6830004D684000082000804AE
:1011A000D68C0004D6000004D6880004D69400042F
:1011B000D6970000C0000000B0880000B08C00008E
:1011C000B0940000B0970004B2010C0000000000D1
:1011D000000000000000000000000000000000010E
:1011E00002030201060BFFF0FF014348494E544938
:1011F0004D0F094B4C0001000001001501010000DA
:10120000060001020100010A001F030100000B009B
:1012100001040100000D00010500000002010606A6
:10122000000000030120000000000000000000009A
:1012300000000000000000000000000000000000AE
:10124000000000000000000000000000000000009E
:10125000000000000000000000000000000000008E
:10126000000000000000000000000000000000007E
:10127000000000000000000000000000000000006E
:10128000000000000000000000000000000000005E
:10129000000000000000000000000000000000004E
:1012A000000000000000000000000000000000003E
:1012B000000000000000000000000000000000002E
:1012C000000000000000000000000000000000001E
:1012D000000000000000000000000000000000000E
:1012E00000000000000000000000000000000000FE
:1012F00000000000000000000000000000000000EE
:1013000000000000000000000000000000000000DD
:1013100000000000000000000000000000000000CD
:1013200000000000000000000000000000000000BD
:1013300000000000000000000000000000000000AD
:10134000000000000000000000000000000000009D
:10135000000000000000000000000000000000008D
:10136000000000000000000000000000000000007D
:10137000000000000000000000000000000000006D
:10138000000000000000000000000000000000005D
:10139000000000000000000000000000000000004D
:1013A000000000000000000000000000000000003D
:1013B000000000000000000000000000000000002D
:1013C000000000000000000000000000000000001D
:1013D000000000000000000000000000000000000D
:1013E00000000000000000000000000000000000FD
:1013F00000000000000000000000000000000000ED
:1014000000000000000000000000000000000000DC
:1014100000000000000000000000000000000000CC
:1014200000000000000000000000000000000000BC
:101430000000000000000000000011892312329B10
:10144000462457AD653674BF8C489DC1AF5ABED394
:10145000CA6CDBE5E97EF8F7108101083393221AA4
:1014600056A5472C75B7643E9CC98D40BFDBAE5274
:10147000DAEDCB64F9FFE8762102308B0210139984
:10148000672676AF443455BDAD4ABCC38E589FD154
:10149000EB6EFAE7C87CD9F53183200A1291031864
:1014A00077A7662E54B5453CBDCBAC429ED98F5034
:1014B000FBEFEA66D8FDC9744204538D6116709F34
:1014C000042015A9273236BBCE4CDFC5ED5EFCD714
:1014D000886899E1AB7ABAF35285430C7197601E24
:1014E00014A1052837B3263ADECDCF44FDDFEC56F4
:1014F00098E98960BBFBAA726306728F4014519D04
:10150000252234AB063017B9EF4EFEC7CC5CDDD5D3
:10151000A96AB8E38A789BF17387620E5095411CE3
:1015200035A3242A16B10738FFCFEE46DCDDCD54B3
:10153000B9EBA8629AF98B7084089581A71AB693C3
:10154000C22CD3A5E13EF0B7084019C92B523ADBB3
:101550004E645FED6D767CFF94898500B79BA61283
:10156000D2ADC324F1BFE03618C109483BD32A5A93
:101570005EE54F6C7DF76C7EA50AB4838618979163
:10158000E32EF2A7C03CD1B5294238CB0A501BD973
:101590006F667EEF4C745DFDB58BA4029699871043
:1015A000F3AFE226D0BDC13439C3284A1AD10B5853
:1015B0007FE76E6E5CF54D7CC60CD785E51EF49713
:1015C000802891A1A33AB2B34A445BCD695678DF33
:1015D0000C601DE92F723EFBD68DC704F59FE41603
:1015E00090A98120B3BBA2325AC54B4C79D7685E13
:1015F0001CE10D683FF32E7AE70EF687C41CD595E3
:10160000A12AB0A3823893B16B467ACF485459DDF2
:101610002D623CEB0E701FF9F78FE606D49DC514C2
:10162000B1ABA02292B983307BC76A4E58D5495CD2
:101630003DE32C6A1EF10F7801010101020202262E
:101640002626262525252828282827272710101074
:10165000101111110E0E0E0E0F0F0F0C0C0C0C0DA5
:101660000D0D0A0A0A0A0B0B0B0A100F0E0D0B0CBC
:10167000040302010204030403020102040304033D
:101680000201020403040302010204030403020131
:10169000020403040302010204030403020102041E
:1016A0000300000000000000000000000104EB0443
:1016B0000201000100000104EB040201000200002D
:1016C0000104EF040201040004010103ED0200051E
:1016D000040004010103EF040001040004020103FB
:1016E000F3020005040004020103F50400010400F4
:1016F000040E0103F90200050400040E0103FB04BB
:1017000000010280002001051E0404010090020077
:101710000105880402010090020101058E04020106
:10172000040010010105A6040201040010020105D5
:10173000AA04020104090B010105BA030403020112
:10174000010001001D0302030202010001003D032C
:101750000303020300000100590304030203010014
:1017600001005D0304030206000001007A02030584
:101770000206010001007E02030502800002010052
:101780009A0202050400040901009C0300030201FF
:1017900002000100210302030201030001002503EE
:1017A00002030202020001004103030302020300DC
:1017B0000100450303030203020001006103040367
:1017C0000203030001006503040302060200010096
:1017D0008202030502060300010086020305FFFFE3
:1017E000FFFF00000000000037007FFF60000000E6
:1017F000360000301E00005004000000050000000C
:1018000006000000070000000800000009000000BA
:101810000A0000000B0000000C0000000D0000009A
:101820000E0000000F00000010000000110000007A
:10183000120000001700000018000000190000004E
:101840001A0000001B0000001C00000061000000E6
:1018500062000000630000000100B97E0300F8840C
:1018600031003427020001001F0000001D0001604C
:10187000270000072800000729000007700000006B
:10188000330033000004050601070809020A0B0CA7
:1018900004171819061A1B1C080D0E0F0910111237
:1018A0000A6162630301020304050D0E0F2B07108A
:1018B0001112131201B9BF01031201BE31069004C7
:1018C000B5E0F8A3E0F9A3E0FAA3E0FBC31207C177
:1018D0006003E4F5B131069004B51208421201DC50
:1018E00012018C1201D71201AF1201B480CEF58320
:1018F000EF2583F583E0FCA3E0FDA3E0FEA3E0FF7A
:101900009006101208429004B1E0FCA3E0FDA3E0B1
:10191000FEA3E0FF9006821208429004ADE0FCA313
:10192000E0FDA3E0FEA3E0FF900686120842E4FF7C
:10193000FEFDFC900686E0F8A3E0F9A3E0FAA3E040
:10194000FBC31207C1703074FFFFFEFDFC900682DE
:10195000E0F8A3E0F9A3E0FAA3E0FBC31207C1603B
:1019600043E4FFFEFDFC900682E0F8A3A3A3E0C3DE
:101970001207C17002802D900682E0FCA3E0FDA357
:10198000E0FEA3E02401FFE43EFEE43DFDE43CFC78
:10199000A3E0F8A3E0F9A3E0FAA3E0FBC31207C1B8
:1019A00060022106900682E0FCA3E0FDA3E0FEA316
:1019B000E0FF227B017A0579807D047C00911690FE
:1019C0000586EEF0A3EFF07B017A057980E4FD7FD8
:1019D00017FE31F37B017A0079107D047C009116AB
:1019E000900016EEF0A3EFF07B017A007910E4FD91
:1019F0007F16FE900991EDF0A3EBF0A3EAF0A3E9C6
:101A0000F090098FEEF0A3EFF09009957401F0E4E7
:101A1000900997F0A3F0C3EF941CEE94004002618C
:101A2000E6E4900996F0900996E0FFC3941C40020A
:101A300061E675F008EFA42405F582E5F0340CF5B5
:101A400083E0FEA3E0FF90098FE0FCA3E0FDEF6DD3
:101A50007002EE6C600261DEEDAE047803C333CE3B
:101A600033CED8F9FF240BF582740C3EF583E06089
:101A7000026102900992E0FBA3E0FAA3E0F9740A84
:101A80002FF582740C3EF583E024FEFDE434FFFC68
:101A90009116900997EEF0A3EFF0900997E0FD9072
:101AA000098FE0FEA3E07803C333CE33CED8F92408
:101AB0000AF582740C3EF583E024FEFFE434FFFE59
:101AC000900992E0FBA3E0FAA3E0F98F828E83ED08
:101AD0001205E1900997A3E0FD90098FE0FEA3E0D5
:101AE0007803C333CE33CED8F9240AF582740C3E82
:101AF000F583E07E0024FFF582EE34FFF583ED12DE
:101B000005E190098FE0FEA3E07803C333CE33CE26
:101B1000D8F92407F582740C3EF583E0FEA3E0FFBC
:101B2000900991E0FD7C00EF2DFFEC3EFEC006C069
:101B300007A3E0FBA3E0FAA3E0F990098FE0FEA37E
:101B4000E07803C333CE33CED8F9240AF582740C7F
:101B50003EF583E0900DB6F0D007D0061245C1EFF8
:101B6000600261E6900995F090098FE0FEA3E078AD
:101B700003C333CE33CED8F9FF240CF582740C3E68
:101B8000F583E07061740F2FF582740C3EF583E0ED
:101B9000FEA3E0FF900991E0FD7C00EF2DFFEC3EFD
:101BA000FEC006C007A3E0FBA3E0FAA3E0F990099A
:101BB0008FE0FEA3E07803C333CE33CED8F92412EE
:101BC000F582740C3EF583E0900DB6F0D007D00698
:101BD0001245C1EF60109009957401F080089009DA
:101BE00096E004F04126900995E0FF229185900649
:101BF0001BE0FF7E0090061DEEF0A3EFF0FD9006C7
:101C00001AE0FFED90061DCFF0A3EFF07B017A06FE
:101C1000790E7D0C7C009009D5EBF0A3EAF0A3E9E6
:101C2000F0A3ECF0A3EDF0E4A3F0A3F09009D874D6
:101C3000FFF5F012068045F060429009D5E0FBA365
:101C4000E475F001120680A9F0FA120556FF90091A
:101C5000DAE0FCA3E0FDED6F25E0FFE433FE74382D
:101C60002FF58274143EF583ECFFE493FE74019328
:101C70006FFF9009DAEEF0A3EFF080B09009DAE0A0
:101C8000FEA3E0FF22900DA6EEF0A3EFF0900DA8CA
:101C9000EBF0A3EAF0A3E9F0900DACE4F0900DAB0B
:101CA000E0FFEF70037F0122900DABE0FF7E00901C
:101CB0000DA6E0FCA3E0FDEF2DFFEE3CFED3EF947C
:101CC000FFEE940140037F0122900DA6E0FEA3E009
:101CD000FFEEFF7E00EF54FFFF900DADEFF0900D93
:101CE000ADE0FFEF25E0FF900DADEFF012455A900B
:101CF0000DADE0FFEF24A0FFF14EEF6005B19F7F37
:101D00000122900DA6E0FEA3E0FFF14EEF6005B1C9
:101D10009F7F012212455A900DADE0FFEF24A1FFF5
:101D2000F14EEF6005B19F7F0122900DA8E0FBA36B
:101D3000E0FAA3E0F9900DAEEBF0A3EAF0A3E9F02E
:101D4000900DADE4F0900DABE0FFEF14FF900DAD02
:101D5000E0FEEEC39F5024124492900DAEE0FBA330
:101D6000E0FAA3E0F9900DADE0FE8E82758300EFFE
:101D70001205E1900DADE004F080CA124406900D0A
:101D8000AEE0FBA3E0FAA3E0F9900DADE0FE8E8299
:101D9000758300EF1205E1B19F900DACE0FF22903A
:101DA0000DD5E4F090FFE8E0FFEF54BFFF90FFE8AF
:101DB000EFF0900DD57414F0900DD5E0FFEFD394B3
:101DC000004016E5EC20E61143EC801200EC53ECE9
:101DD0007F900DD5E014F080DF90FFE8E0FFEF4446
:101DE00040FF90FFE8EFF090FFE8E0FFEF4480FF56
:101DF00090FFE8EFF053ECBF53EC7F1200EC43ECA4
:101E0000801200EC43EC4022900D9AEEF0A3EFF02C
:101E1000900D9CEBF0A3EAF0A3E9F0900DA5E4F09F
:101E2000900D9FE0FFEF600B900D9FE0FFEFD394CC
:101E30002040037F0122900D9AE0FEA3E0FFD3EF44
:101E400094FFEE940140037F0122900D9FE0FF7EFE
:101E500000900D9AE0FCA3E0FDEF2DFFEE3CFED3D9
:101E6000EF94FFEE94004013900D9AE0FEA3E0FF84
:101E7000D3EF94FFEE94005002E14812455A900DC2
:101E80009FE0FF7E00900D9AE0FCA3E0FDEF2DFFA8
:101E9000EE3CFED3EF94FFEE94005006900DA57437
:101EA000A0F0900D9AE0FEA3E0FFD3EF94FFEE9434
:101EB000004006900DA574A2F0900DA5E0FFF14E34
:101EC000EF6005B19F7F0122900D9AE0FEA3E0FF35
:101ED000F14EEF6005B19F7F0122900D9CE0FBA3C6
:101EE000E0FAA3E0F9900DA2EBF0A3EAF0A3E9F089
:101EF000900DA0E4F0A3E4F0900D9FE0FF7E009031
:101F00000DA0E0FCA3E0FDC3ED9FEC9E5033900DCF
:101F1000A2E0FBA3E0FAA3E0F9120556FFF14EEFB1
:101F20006005B19F7F0122900DA3E475F0011206B8
:101F30006A900DA1E004F07006900DA0E004F0801E
:101F4000B7B19F12458B80037F01227F0022900D45
:101F5000C7EFF0900DC8E4F0900DC9E4F090FFE8F1
:101F6000E0FFEF4480FF90FFE8EFF053EC7F90FF3D
:101F7000E8E0FFEF4440FF90FFE8EFF0900DC9E488
:101F8000F0900DC9E0FFEFC394085030900DC7E00A
:101F9000FFEF30E70543EC40800353ECBF43EC8098
:101FA000900DC7E0FFEF25E0FF900DC7EFF0124363
:101FB000FF53EC7F900DC9E004F080C5120006903D
:101FC000FFE8E0FFEF54BFFF90FFE8EFF043EC8045
:101FD000120006E5EC30E606900DC87401F053ECF3
:101FE0007F900DC8E0FF2290066FE075F00EA424EC
:101FF000A8F582E5F0340EF583E493FE740193FFB7
:102000007B017A06792DE4FD90098CEDF0A3EBF0CD
:10201000A3EAF0A3E9F090098AEEF0A3EFF09009AB
:10202000907401F0E4A3F0A3F09009D3F0A3F0C3FF
:10203000EF941CEE94004002412DE4900991F09041
:102040000991E0FFC3941C4002412D75F008EFA4F4
:102050002405F582E5F0340CF583E0FEA3E0FF9063
:10206000098AE0FCA3E0FDEF6D7002EE6C600241B6
:1020700025900992F090098AE0FEA3E07803C3332B
:10208000CE33CED8F92407F582740C3EF583E0FEFA
:10209000A3E0FF90098CE0FD7C00EF2DFFEC3EFEFD
:1020A000C006C0077B017A09799390098AE0FEA3F4
:1020B000E07803C333CE33CED8F9240AF582740C0A
:1020C0003EF583E0900DABF0D007D006121C85EFF3
:1020D0006401707990098AE0FEA3E07803C333CEEF
:1020E00033CED8F9FF240CF582740C3EF583E070F2
:1020F0004E740F2FF582740C3EF583E0FEA3E0FFD3
:1021000090098CE0FD7C00EF2DFFEC3EFEC006C088
:10211000077B017A09799390098AE0FEA3E07803AE
:10212000C333CE33CED8F92412F582740C3EF58336
:10213000E0900DABF0D007D006121C85BF010E90C9
:102140000992E004F0E0C3940350020175900992F3
:10215000E0C3940340037F012290098AE0FEA3E0DC
:102160007803C333CE33CED8F9FF240BF582740C39
:102170003EF583E0706D740A2FF582740C3EF58392
:10218000E0FF2492F582E43409F583E0FD9009D361
:10219000E4F0A3EDF074912FF582E43409F583E0C7
:1021A000FE9009D3E04EF0A3E0F07B017A09799329
:1021B00090098AE0FEA3E07803C333CE33CED8F98A
:1021C000240AF582740C3EF583E024FEFDE434FF1E
:1021D000FC121C169009D3E06E7003A3E06F60033D
:1021E0007F012290098DE0F9A3E0FAA3E09009D8DD
:1021F000C9F0A3EAF0A3E9F090098AE0FEA3E07831
:1022000003C333CE33CED8F9240AF582740C3EF5DD
:1022100083E09009DBF07B017A097993514DE490DA
:102220000990F08008900991E004F0013F90099036
:10223000E0FF22514D9009D87401F0A37405F0A37A
:102240007402F0A37404F07B017A0579889009D5B3
:10225000EBF0A3EAF0A3E9F0E4FF9009DBE0FEEF86
:10226000C39E502B9009D5E0FBA3E0FAA3E0F98FC1
:102270008275830012056FFE9009D8E0FBA3E0FA97
:10228000A3E0F98F82758300EE1205E10F80CB2267
:10229000900662EBF0A3EAF0A3E9F0900669E0FE95
:1022A000D3940150037F0122EE24FFFFE434FFFEAC
:1022B000900668E0FD7C00120603900662E0FBA336
:1022C000E0FAA3E02FF9EA3EFAC002C001A3E0F968
:1022D000A3E0FAA3E09009D8C9F0A3EAF0A3E9F0DB
:1022E000900668E09009DBF0D001D002514D9006D5
:1022F00069E090066CF090066CE0FFD39401406EAC
:1023000090066AE064557009EF1239F3EF60578068
:102310000C90066CE01239F3EF6401604990066C92
:10232000E024FEFFE434FFFE900668E0FD7C00122E
:102330000603900662E0FBA3E0FAA3E02FF9EA3E71
:10234000FAC002C001A3E0F9A3E0FAA3E09009D823
:10235000C9F0A3EAF0A3E9F0900668E09009DBF089
:10236000D001D002514D90066CE014F080887F00BF
:10237000229007887401F0A3740BF0A374EDF09021
:102380000783E090078BF090077FE0FBA3E0FAA3C0
:10239000E0F9900785EBF0A3EAF0A3E9F09009D803
:1023A0007401F0A37407F0A37496F0A37408F0907E
:1023B0000788E0FBA3E0FAA3E0F9514D900785E020
:1023C000FBA3E0FAA3E0F9124B327B017A0779967E
:1023D000F149E490078CF0E490078DF090078CE0D1
:1023E000FF900BBD93FE90078DE0C39E501C90079D
:1023F0008BE0FDB40103EF60117B017A077996123F
:102400004BAA90078DE004F080D29009D87401F0B7
:10241000A37407F0A3748EF0A37408F07B017A070D
:102420007996514D9007B474FFF0A3740BF0A37428
:102430005DF0A374FFF0A3740BF0A3748DF0A3748C
:1024400006F07B017A07798EF1679007A17401F09D
:10245000A37407F0A3748EF0900785E0FBA3E0FA65
:10246000A3E0F9124D46E4F5B190078CE004F0E0EA
:10247000C39410500261D7900785E0FBA3E0FAA354
:10248000E0F990079EEBF0A3EAF0A3E9F0E4F5B1E0
:102490009007A204F01205569007AAF090000412CB
:1024A000056F9007A9F090000112056F9007A8F042
:1024B00090000512056F9007A7F090000212056FBB
:1024C0009007A6F090000612056F9007A5F0900007
:1024D0000312056F9007A4F090000712056F900794
:1024E000A3F0E49007A1F07B017A0779A3124B05D2
:1024F00090079EE0FBA3E0FAA3E0F9A3E0F5827564
:102500008300EF1205E19007A2E025E0F09007A11B
:10251000E004F0E0C3940840CEE4F5B122900782D5
:102520007401F07F0690077FEBF0A3EAF0A3E9F0D7
:10253000EF640660137B017A0B79EDE4FD7F13FEF7
:102540001108BF01037F0122900782E0B40209A3B2
:102550007402F0A314F080099007837401F0A304BF
:10256000F071719007887401F0A3740BF0A374F5F7
:10257000F0900784718271717F0022900771EBF0F7
:10258000A3EAF0A3E9F0A3EDF0D3946440037F0144
:102590002290077B7401F0A3740BF0A3746BF0908E
:1025A00009D87401F0A3740BF0A374FDF0A37408B0
:1025B000F0900775E0FBA3E0FAA3E0F9514D7B0131
:1025C0007A0B79EDE4FD7F13FE1108BF01037F0153
:1025D0002290077BE0F9A3E0FAA3E09009D8C9F0C4
:1025E000A3EAF0A3E9F0900774E09009DBF090070C
:1025F00071E0FBA3E0FAA3E0F9514D90077BE0FB0B
:10260000A3E0FAA3E0F9900774E0FFF58275830078
:1026100074801205E17E00E92FF9EE3AFAE924010F
:10262000F9E43AFA900993E4F0A37407F0E4FD1298
:102630003510900774E0131313541F0490077AF0B9
:10264000E4FD74FD2DF582E4340BF583C083C08274
:10265000E0FF90077BE0FBA3E0FAA3E0F98D827531
:10266000830012056FFEEF6ED082D083F00DEDB4C3
:1026700008D0E4900779F090077AE014FF9007798A
:10268000E0C39F506E9007887401F0A3740BF0A311
:1026900074EDF0A37402F07B017A0B79FD7192E482
:1026A000FD74FD2DF582E4340BF583C083C082E018
:1026B000FC900779E02401FFE433FEEF7803C33395
:1026C000CE33CED8F9FFED7A002FFFEA3EFE900719
:1026D0007BE0FBA3E0FAA3E0F98F828E8312056F03
:1026E0006CD082D083F00DEDB408B6900779E00489
:1026F000F080847B017A0B79FD9007827402F0E40C
:10270000FFB125900778E06401703B900771E0FB12
:10271000A3E0FAA3E0F9A3E0FF7E00E92FF9EE3A87
:10272000FA90098DEBF0A3EAF0A3E9F0A37404F0AA
:10273000A37455F07B017A0B79FD123A39BF02037D
:102740007F00227F01227F00229007B474FFF0A354
:10275000740AF0A374EDF0A374FFF0A3740BF0A35C
:102760007425F0A37407F09007B1EBF0A3EAF0A38F
:10277000E9F0E4F5209007BB04F09007BAE075F0AB
:1027800008A42401FFE435F0FEA3E0FDC39FEE643E
:1027900080F87480984003022818E52025E0F52091
:1027A000EDFF7E0024FFFDEE34FFFC9007B4E0FB5C
:1027B000A3E0FAA3E0F98D828C8312056FFD9007E8
:1027C000B1E0FBA3E0FAA3E0F98D82758300120566
:1027D0006FFDEF24FFFFEE34FFFE9007B7E0FBA391
:1027E000E0FAA3E0F98F828E8312056F5D60020527
:1027F000209007BBE0FF54077015EF131313541F0D
:1028000024BBF582E43407F583E520F0E4F520905D
:1028100007BBE004F002277A9007B1E0F9A3E0FAE1
:10282000A3E09009D8C9F0A3EAF0A3E9F09007BAB1
:10283000E09009DBF07B017A0779BC02224D7B0135
:102840007A0979E290098FE4F0A37472F07D007C3C
:102850000D1247E97B017A0979E2900A52E0FFA361
:10286000E090098ECFF0A3EFF07D7090098AEBF035
:10287000A3EAF0A3E9F0A3EDF011A5EF70037F0147
:102880002290098AE0FBA3E0FAA3E0F9A3E0FD7C33
:1028900000121C1690098EE06E7003A3E06F7F009B
:1028A00060027F0122900990EBF0A3EAF0A3E9F027
:1028B000E4FFEFC39D501B900990E0FBA3E0FAA357
:1028C000E0F98F8275830012056F60037F01220F8C
:1028D00080E07F002290060EEFF0E4A3F07B017A07
:1028E0000479899004A1E0FFA3E090098ECFF0A3C2
:1028F000EFF07D18116BEF700690060EE070197BFB
:10290000017A047989E4FD7F1BFE122008BF0106CD
:1029100090060F7401F0311E90060FE0FF2251184F
:10292000513F788D7C067D017BFF7A1279EE7E0027
:102930007F281205309006B57401F09009D8F0A3F5
:102940007406F0A3748DF0A37413F07BFF7A1179F1
:10295000E212224D9006B97401F0A37406F0A3743C
:10296000A0F0A37406F07B017A0379EDF1EE7B0110
:102970007A06798D7D017F02916BEF70099006B523
:10298000F090053B04F09006B5E0FF22780E7C063F
:102990007D017BFF7A1379577E007F64120530E456
:1029A000900672F012005CEF64046019EF6401603D
:1029B00007E49004E6F031229004E6E0D394B440BA
:1029C00004E4F031227B017A06790E12430BEF709A
:1029D00044900672F0900672E0FFC39406502EE019
:1029E000FEFDC374059DFDE49400FC74892DF58201
:1029F00074043CF583E0FD740E2EF582E43406F594
:102A000083E0B50508900672E004F080C8EFC39437
:102A10000650048000311E2290FFE3E04440F04362
:102A2000B0407F967E0051C590FFE3E04440F053F4
:102A3000B0BF7FF47E0151C59002467401F0229030
:102A400009D87401F0A37404F0A37489F0A3740688
:102A5000F07B017A0379ED12224D9006B97401F0F2
:102A6000A37404F0A3748FF0A37406F07B017A04BE
:102A70007989F1EEE490049BF0A3F0A3F0A304F0B5
:102A8000A3E4F012363C7B017A047989E4FD7F1BD4
:102A9000FE0219F3900605EBF0A3EAF0A3E9F0E4D7
:102AA000FFEFC39D501C900605E0FBA3E0FAA3E0F6
:102AB000F98F8275830012056FF460037F01220F86
:102AC00080DF7F002290077DEEF0A3EFF0A31208D5
:102AD0004E0000000090077DE0FEA3E0FF7C007D3B
:102AE00013120603E4FDA3E0F8A3E0F9A3E0FAA3C0
:102AF000E0FBC31207C15023715E90077FE0FCA387
:102B0000E0FDA3E0FEA3E02401FFE43EFEE43DFD82
:102B1000E43CFC90077F12084280BA227E0051C537
:102B200090FFE7E054DFF090FFF7E054DFF090FF14
:102B3000E5E04408F043E908715190FFE3E04410F8
:102B4000F043B010715D90FFE3E04410F053B0EF3C
:102B500022715D90FFE3E04410F053B0EF22715D0D
:102B6000715D7F01AE071FEE70FA2290FFE3E04433
:102B700010F043B010715D90FFE5E04408F053E9B8
:102B8000F7715180D890FFE7E054DFF090FFF7E055
:102B900054DFF0E49006BAF090FFE5E04408F0530B
:102BA000E9F7E49006B9F09006BAE0FF25E0F0906E
:102BB000FFE5E04408F043E908715DE5EB30E50727
:102BC0009006BAE04401F090FFE5E04408F053E9D4
:102BD000F7715D00009006B9E004F0E0C39408408E
:102BE000C690FFE5E04408F053E9F79006BAE0FF2D
:102BF000223EF583E0FF9006C2EFF090FFE7E0543D
:102C0000DFF090FFF7E054DFF090FFE5E04408F0DC
:102C100053E9F7E49006C3F090FFE5E04408F04381
:102C2000E9089006C2E090FFE730E709E04402F0CF
:102C300043EB028007E04402F053EBFD715D90FF2F
:102C4000E5E04408F053E9F79006C2E0FF25E0F024
:102C5000715D00009006C3E004F0E0C3940840B842
:102C600090FFE5E04408F053E9F722900703EFF006
:102C7000A3EDF0A3EBF0A3EAF0A3E9F0A37401F055
:102C8000A3F0E4A3F0A3F0A3F0A3F0780E7C077DFB
:102C9000017BFF7A1379D4FE7F64120530900772AE
:102CA0007401F0A37407F0A3740EF090052CE030CB
:102CB000E102E18D1243ECBF01037F0622E490079D
:102CC00075F0900775E0FFC394075053EF75F00758
:102CD000A424F5F582E43411F583E493FF9007030F
:102CE000E0FEEFB50631900775E0FB75F007A42410
:102CF000F6F582E43411F583120832900778120851
:102D000042EB75F007A424FBF582E43411F583E46B
:102D10009390070DF08008900775E004F080A39071
:102D20000775E0C394074002E18DE490070BF09033
:102D3000052CE030E102E18D90070DE02404F090D5
:102D40000704E0B4020690070D7404F07B017A07D3
:102D5000790E900993E4F0A37404F07DFE1235100F
:102D60009007127468F090070DE0900713F0E4A349
:102D7000F07B017A077915900993F0A37406F07D32
:102D8000FF123510E490071BF0A3F0A37468F090D5
:102D90000704E090071EF0900778E0FCA3E0FDA395
:102DA000E0FEA3E0FF78181207D290071FEFF09023
:102DB0000778E0FCA3E0FDA3E0FEA3E0FF7810129B
:102DC00007D2900720EFF0900778E0FCA3E0FDA386
:102DD000E0FEA3E0FF78081207D2900721EFF09001
:102DE0000778A3A3A3E0900722F09009D87401F01C
:102DF000A37407F0A37423F090070DE024FC90095E
:102E0000DBF0900705E0FBA3E0FAA3E0F912224D06
:102E10007B017A07791290070DE0240DFD123567CA
:102E200090070DE0FE241FF582E43407F583EFF0F0
:102E300074202EF582E43407F5837416F0EE241323
:102E400090070CF07F011201C853A9FB7F02F19398
:102E5000E490070AF090070CE0FF90070AE0FEC339
:102E60009F505B740E2EF582E43407F583E0FF304B
:102E7000D004D2DB8002C2DB8FD9E4900776F0A3C6
:102E8000F030D904C2D9801F715D900777E004F05B
:102E90007006900776E004F0C3900777E094D09036
:102EA0000776E0940740DAC3900777E094D0900764
:102EB00076E09407500890070AE004F0809743D822
:102EC0001053A9FB90070C7464F0E490070AF0908B
:102ED000070CE0FF90070AE0C39F5054E490077688
:102EE000F0A3F0900776E0FEA3E0FFC39440EE94D9
:102EF0001F502C30D819C2D890070AE0240EF58252
:102F0000E43407F583E5D9F0E4900709F0801090E8
:102F10000777E004F07006900776E004F080C4C301
:102F2000EF9440EE941F500890070AE004F0809F51
:102F3000900709E0700A900708F090070B7403F0FF
:102F4000900708E07035900705E0F9A3E0FAA3E0E8
:102F50009009D8C9F0A3EAF0A3E9F0900775E075ED
:102F6000F007A424FBF582E43411F583E49390097F
:102F7000DBF07B017A07792312224D7F04F19390D5
:102F8000070BE004F0E0C394035002A12F90070860
:102F9000E0FF2290077CEFF030E202801790FFE321
:102FA000E04420F053B0DF7F037E0051C590077CE2
:102FB000E030E00A90FFE3E04420F043B02022F04C
:102FC000900613E0FBA3E0FAA3E0F99000031205DA
:102FD0006FFFEFD3946340037F0022EF75F00A8404
:102FE000C454F0FEEF75F00A84E5F02EFF2290063F
:102FF000B6EBF0A3EAF0A3E9F0E49006BDF090068A
:10300000BCE0FFA3E0FEC39F40030230A39006B6DE
:10301000E0FBA3E0FAA3E0F98E8275830012056F4E
:10302000FDC4540F9006BEF0ED540FA3F0E4FF74FE
:10303000BE2FF582E43406F583E0FEC3940A5010F7
:1030400074BE2FF582E43406F583E02430F080145A
:10305000EEC39410500E74BE2FF582E43406F5834F
:10306000E02437F00FEFB402C69006BDE075F00221
:10307000A4FF9006B9E0FBA3E0FAA3E02FF9EA353C
:10308000F0FA9009D8EBF0A3EAF0A3E9F0A37402F8
:10309000F07B017A0679BE12224D9006BDE004F065
:1030A000022FFE2212056FFFEFC4540F75F00AA421
:1030B000FEEF540F2EFF22AC07AF0511A8AD07AFEE
:1030C0000411A8EF2DFF1205562FFFE41205CFEFD4
:1030D000C39464400974011205CF749C2FFF022F22
:1030E000D290098FEBF0A3EAF0A3E9F0E4900996FF
:1030F000F0A3F0900995E0FF900997E0FEC39F5080
:1031000079EEFDC3EF9DFDE49400FCED24FFFFECA0
:1031100034FFFE90098FE0FBA3E0FAA3E0F98F8271
:103120008E8312056FFFED24FFFDEC34FFFC900948
:1031300092E0FBA3E0FAA3E0F98D828C8312056F85
:10314000FD7B017A09799611B7900997E0FD900906
:1031500095E0C39DFDE49400CD24FFCD34FFFC90A9
:10316000098FE0FBA3E0FAA3E0F98D828C83EF12D4
:1031700005E1900997E004F001F3229004B1E0FC2E
:10318000A3E0FDA3E0FEA3E0FF9005F91208429042
:1031900004ADE0FCA3E0FDA3E0FEA3E0FF9005FD8D
:1031A000120842E4FFFEFDFC9005FDE0F8A3E0F903
:1031B000A3E0FAA3E0FBC31207C1703074FFFFFE67
:1031C000FDFC9005F9E0F8A3E0F9A3E0FAA3E0FB29
:1031D000C31207C16043E4FFFEFDFC9005F9E0F86F
:1031E000A3A3A3E0C31207C17002802D9005F9E0EC
:1031F000FCA3E0FDA3E0FEA3E02401FFE43EFEE427
:103200003DFDE43CFCA3E0F8A3E0F9A3E0FAA3E071
:10321000FBC31207C16002217B9005F9E0FCA3E02B
:10322000FDA3E0FEA3E0FF22C0E0C0F0C083C082A7
:10323000C0D075D000C000C001C002C003C004C02F
:1032400005C006C0079005F6E5A7F075A70075B79D
:10325000559005F5E5B6F075B70030993DC29990E7
:1032600000A3E004F09000A2E0FFA3E0C39F50247D
:10327000317B9000AE1208429000A3E0247EF582DC
:10328000E43401F583E0FF30D004D29B8002C29B7E
:103290008F99800690009F7408F030980BC298AF09
:1032A00099AD07E4FF12019675B7559005F5E0F565
:1032B000B675B700A3E0F5A7D007D006D005D004B7
:1032C000D003D002D001D000D0D0D082D083D0F0B3
:1032D000D0E0329004B1E0FCA3E0FDA3E0FEA3E067
:1032E000FF9006051208429004ADE0FCA3E0FDA3A8
:1032F000E0FEA3E0FF900609120842E4FFFEFDFC99
:10330000900609E0F8A3E0F9A3E0FAA3E0FBC312FA
:1033100007C1703074FFFFFEFDFC900605E0F8A3C6
:10332000E0F9A3E0FAA3E0FBC31207C16043E4FFA6
:10333000FEFDFC900605E0F8A3A3A3E0C31207C1BD
:103340007002802D900605E0FCA3E0FDA3E0FEA343
:10335000E02401FFE43EFEE43DFDE43CFCA3E0F894
:10336000A3E0F9A3E0FAA3E0FBC31207C1600241A6
:10337000D3900605E0FCA3E0FDA3E0FEA3E0FF225E
:10338000C0E0C0F0C083C082C0D075D000C000C013
:1033900001C002C003C004C005C006C007900602F9
:1033A000E5A7F075A70075B755900601E5B6F0756D
:1033B000B70030D93DC2D990024AE004F0900249EA
:1033C000E0FFA3E0C39F502451D39002551208425E
:1033D00090024AE02425F582E43403F583E0FF30CF
:1033E000D004D2DB8002C2DB8FD980069002467403
:1033F00008F030D80BC2D8AFD9AD077F0112019BBE
:1034000075B755900601E0F5B675B700A3E0F5A7CE
:10341000D007D006D005D004D003D002D001D00010
:10342000D0D0D082D083D0F0D0E032E0FCA3E0FD59
:10343000A3E0FEA3E0FF900614120842900614E0F9
:10344000FCA3E0FDA3E0FEA3E0FFA3E0F8A3E0F906
:10345000A3E0FAA3E0FBC31207C1900618E0503DB9
:10346000F8C000C001C002C003900614E0F8A3E059
:10347000F9A3E0FAA3E0FBC374FF9BFF74FF9AFE7D
:1034800074FF99FD74FF98FCD003D002D001D000E6
:10349000EB2FFFEA3EFEE93DFDE83C8024FCA3E083
:1034A000FDA3E0FEA3E0FF900614E0F8A3E0F9A37B
:1034B000E0FAA3E0FBC3EF9BFFEE9AFEED99FDEC73
:1034C00098FCA312084290061CE0FCA3E0FDA3E0D8
:1034D000FEA3E0FF900618E0F8A3E0F9A3E0FAA34A
:1034E000E0FBC31207C17F0140027F002290053438
:1034F000E054FDF07B017A0D79267D041201A57B55
:10350000017A0D792A900993E4F0A37404F0E4FDA4
:1035100090098FEBF0A3EAF0A3E9F0A3EDF0E4FF4C
:10352000FED3900994E09F900993E09E401F90097C
:1035300092E0FD90098FE0FBA3E0FAA3E0F98F820F
:103540008E83ED1205E10FBF00010E80D422E0FF53
:1035500075F0A7A4248BF582E5F03401F583EF25FF
:1035600083F583E0240AFD90077CEBF0A3EAF0A347
:10357000E9F0E4FFFEEEC39D501890077CE0FBA34A
:10358000E0FAA3E0F98E8275830012056F2FFF0E1B
:1035900080E322FF90063CF07B017A06793E90069C
:1035A000B87401F012A1EBE490063DF0900638E00B
:1035B000FF7E007C017DA712060374902FF9740131
:1035C0003EFA90098D7401F0A3EAF0A3E9F0A37428
:1035D00004F07B017A06793D90098AEBF0A3EAF0CA
:1035E000A3E9F0E4900991F0900990E0FFA3E0FED8
:1035F000C39F5047EEFD90098AE0FBA3E0FAA3E0E9
:103600007E002FF9EE3AFAE924FFF9EA34FFFAC313
:10361000E99DF9EA9400FA120556FF90098DE0FB46
:10362000A3E0FAA3E0F9900991E0F582758300EF39
:103630001205E1900991E004F080AD2278747C06D7
:103640007D017BFF7A1379BB7E007F1912053090D4
:10365000098D7401F0A37406F0A37474F0A37406CA
:10366000F07B017A047989B1D89009D87401F0A36C
:103670007406F0A3747AF0A3740CF07B017A0479D9
:103680008F12224D9009D87401F0A37406F0A37430
:1036900086F0A37403F07B017A04799B12224D7BA0
:1036A000017A067974D1BA9004A0E0900674F07B98
:1036B000017A067974F13802292290069A7415F07D
:1036C000E4FF900696EFF0A3EBF0A3EAF0A3E9F095
:1036D000789B7C067D017BFF7A1279267E007F64D1
:1036E0001205309006FF7401F0A37406F0A3749BDA
:1036F000F0A37401F090069AE0FF601F9009D8745F
:1037000001F0A37406F0A3749BF0A3EFF09006976A
:10371000E0FBA3E0FAA3E0F912224D900696E0FF49
:103720007B017A06799B7D01122C6BEF7004900768
:1037300002F0900702E0FF2290068DEBF0A3EAF082
:10374000A3E9F0A37401F078917C06FD7BFF7A1366
:10375000792F7E007F051205309009D87401F0A3FF
:103760007406F0A37491F0900690E09009DBF0905D
:10377000068DE0FBA3E0FAA3E0F912224D7B017A6B
:1037800006799190069A7401F0FFC1C2900638EF55
:10379000F0A3EDF0A3EBF0A3EAF0A3E9F0783D7C11
:1037A000067D017BFF7A1379347E007F231205307A
:1037B0009009D87401F0A37406F0A3743DF090064C
:1037C00039E09009DBF090063AE0FBA3E0FAA3E0D1
:1037D000F912224D900638E0FF7B017A06793DA36D
:1037E000E090069AF0C1C2900725EBF0A3EAF0A39F
:1037F000E9F0E4FFEFC39D5028900725E0FBA3E02C
:10380000FAA3E0F98F8275830012056FFE540FD37F
:1038100094095007EE54F0949040037F01220F80EA
:10382000D37F002290062BE0FF7E007C017DA71253
:10383000060374982FF974013EFA7B0190066DE03F
:103840007E0029F9EE3AFA7D04900725EBF0A3EA11
:10385000F0A3E9F0A3EDF0E4A3F0900728E0FFC3A4
:1038600013FEA3E0C39E5078900725E0FBA3E0FA87
:10387000A3E0F9900729E0FEF58275830012056F39
:1038800090072AF0EF24FFFDE434FFFCEEFFC3EDC8
:103890009FFFEC94008F82F58312056FFF9007293C
:1038A000E0F582758300EF1205E190072AE0FF90B2
:1038B0000728E024FFFDE434FFFCA3E0FBC3ED9BFD
:1038C000FDEC9400FC900725E0FBA3E0FAA3E0F9EF
:1038D0008D828C83EF1205E1900729E004F0015AF4
:1038E0002290062BE0FF7E007C017DA71206037468
:1038F000902FF974013EFA7B01900674EBF0A3EA75
:10390000F0A3E9F0120556FF24A9F582E43404F58A
:1039100083E0C39403401074A92FF582E43404F5C6
:10392000837403F07F01227B017A067978E4FD7FBE
:1039300012FE122008BF01037F0122900674E0FBF3
:10394000A3E0FAA3E0F9120556FF7006900677F09F
:10395000801BEFB401089006777403F0800FEFB47A
:1039600002089006777406F080037F0122E4FFEFDF
:103970002401FDE433FC900674E0FBA3E0FAA3E02D
:10398000F98D828C8312056FFE900677E02F2478E4
:10399000F582E43406F583E06E6038120556FE24A5
:1039A000A9F582E43404F583E004F074A92EF582CD
:1039B000E43404F583E0C39403401512055625E072
:1039C00024D0F582E43404F5837405F0A374A0F0E8
:1039D0007F01220FEFB40397900674E0FBA3E0FA97
:1039E000A3E0F912055624A9F582E43404F583E432
:1039F000F0FF2224FEFFE434FFFE900668E0FD7C29
:103A000000120603900662E0FBA3E0FAA3E02FF9A0
:103A1000EA3EFA90098DEBF0A3EAF0A3E9F09006F4
:103A200068E0900990F090066BE0900991F09006A4
:103A300065E0FBA3E0FAA3E0F990098AEBF0A3EAC2
:103A4000F0A3E9F0E4900992F0900990E0FF90096A
:103A500092E0FEC39F4002615A900991E064557064
:103A60003990098DE0FBA3E0FAA3E0F98E8275831B
:103A70000012056FFD90098AE0FBA3E0FAA3E0F9CC
:103A80008E8275830012056FFED39D40037F002256
:103A9000EEC39D400261527F0122900990E024FF15
:103AA000FFE434FFFE900992E0FDC3EF9DFFEE942A
:103AB00000FE90098DE0FBA3E0FAA3E0F98F828E6F
:103AC0008312056FFF900990E024FFFDE434FFFCB2
:103AD000900992E0FBC3ED9BFDEC9400FC90098AF9
:103AE000E0FBA3E0FAA3E0F98D828C8312056FD38B
:103AF0009F40037F0022900990E024FFFFE434FF01
:103B0000FE900992E0FDC3EF9DFFEE9400FE900948
:103B10008DE0FBA3E0FAA3E0F98F828E8312056F9C
:103B2000FF900990E024FFFDE434FFFC900992E04F
:103B3000FBC3ED9BFDEC9400FC90098AE0FBA3E045
:103B4000FAA3E0F98D828C8312056FC39F50037F27
:103B50000122900992E004F041497F0222120556A9
:103B6000FF90063DE4F0A3EFF0E0F8E4F0E8900603
:103B70003DF090000112056FFF90063DE0FEA3E0CE
:103B80004FFF90063DEEF0FEA3EFF022AE04900052
:103B900001ED1205E1EE0205CF122B6B7B017A06D7
:103BA000794E900653E0FCA3E0FDA3E0FEA3E0FF06
:103BB0009006C21208429006C612084E000000008D
:103BC0009006C2E0FCA3E0FDA3E0FEA3E0FFA31289
:103BD0000842E49006CAF09006C6A3A3A3E0FFA3A0
:103BE000E0FDC374039DFDE494008D82F583EF1224
:103BF00005E19006C6E0FCA3E0FDA3E0FEA3E0FF24
:103C000078081207D29006C61208429006CAE0044D
:103C1000F0E0B404C22291249007851208427B018F
:103C20007A05798890089CEBF0A3EAF0A3E9F0A369
:103C300012084E00000000E49008A3F090089FE0F6
:103C4000FCA3E0FDA3E0FEA3E0FF78081207E590E7
:103C5000089F12084290089FE0F8A3E0F9A3E0FA59
:103C6000A3E0FBC000C001C002C00390089CE0FBC1
:103C7000A3E0FAA3E0F99008A3E0F58275830012AF
:103C8000056FFFD003D002D001D000EB4FFFEAFE5A
:103C9000E9FDE8FC90089F1208429008A3E004F0B8
:103CA000E0B4049890089FE0FCA3E0FDA3E0FEA32D
:103CB000E0FF22900785EBF0A3EAF0A3E9F0E4909F
:103CC000078DF090078BE014FF90078BE0FEEFC3A9
:103CD0009E4002A1A6900788E0FBA3E0FAA3E0F9CA
:103CE0008F8275830012056FFE90078DE02EFDE434
:103CF00090078CF0EDC39E50037401F0E490078DA3
:103D0000F0900785E0FBA3E0FAA3E0F98F827583CA
:103D10000012056FFE540FFCED540FFBECC39B50DB
:103D200034EEC39D900785E0FB500E8F82758300B3
:103D300012056FFEC3749A8037A3E0FAA3E0F98FEF
:103D40008275830012056FC39D24FA8F82758300EC
:103D50001205E18044900785E0FBA3E0FAA3E0F9B7
:103D60008F8275830012056FFEC39D5015C374A02A
:103D70009D2E8F827583001205E190078D7401F0EE
:103D80008017900785E0FBA3E0FAA3E02FF9E43A5F
:103D9000FA120556C39D1205CF90078CE06004A36C
:103DA0007401F01F81C92290076AEBF0A3EAF0A327
:103DB000E9F0AB05A37401F0A312084E0000000166
:103DC00090077212084E00000000E4900776F0EBB6
:103DD000D394005002C1FFEB94054002C1FFEBF009
:103DE000900776E0D394005002C1FF900772E0F88C
:103DF000A3E0F9A3E0FAA3E0FBC000C001C002C049
:103E00000390076AE0FBA3E0FAA3E0F9900776E0ED
:103E1000FF7E00E92FF9EE3AFA90FFFF12056F548A
:103E20000F75F00A84AFF0E4FCFD90076EE0F8A394
:103E3000E0F9A3E0FAA3E0FB120696D003D002D08B
:103E400001D000EB2FFFEA3EFEE93DFDE83CFC908F
:103E5000077212084290076EE0FCA3E0FDA3E0FEAB
:103E6000A3E0FFE47B0AFAF9F812069690076E12B7
:103E70000842900772E0F8A3E0F9A3E0FAA3E0FBA0
:103E8000C000C001C002C00390076AE0FBA3E0FAD3
:103E9000A3E0F9900776E0FF7E00E92FF9EE3AFA09
:103EA00090FFFF12056F54F0C4540FFFE4FCFD9027
:103EB000076EE0F8A3E0F9A3E0FAA3E0FB12069690
:103EC000D003D002D001D000EB2FFFEA3EFEE93D47
:103ED000FDE83CFC90077212084290076EE0FCA3DC
:103EE000E0FDA3E0FEA3E0FFE47B0AFAF9F8120686
:103EF0009690076E120842900776E014F0A1E090C9
:103F00000772E0FCA3E0FDA3E0FEA3E0FF22900720
:103F100089EBF0A3EAF0A3E9F090078E1208429033
:103F2000078CE0A3F090078DE0D394005002E1FEEF
:103F3000E47B0AFAF9F8A3E0FCA3E0FDA3E0FEA30A
:103F4000E0FF120721AF03900789E0FBA3E0FAA38B
:103F5000E0F990078DE0FD7C00E92DF9EC3AFA904C
:103F6000FFFFEF1205E190078EE0FCA3E0FDA3E068
:103F7000FEA3E0FFE47B0AFAF9F812072190078E0E
:103F8000120842900789E0FBA3E0FAA3E0F990074A
:103F90008DE0FF7E00E92FF9EE3AFAE924FFF9EA15
:103FA00034FFFAC003C002C001120556FFC007E487
:103FB0007B0AFAF9F890078EE0FCA3E0FDA3E0FE8F
:103FC000A3E0FF120721AF03EFC454F0FED0E04E90
:103FD000D001D002D0031205CF90078EE0FCA3E001
:103FE000FDA3E0FEA3E0FFE47B0AFAF9F812072143
:103FF00090078E12084290078DE014F0E12522C050
:10400000E0C0F0C083C082C0D075D000C000C00244
:10401000C003C004C005C006C007ABA775A70075E4
:10402000B755AAB675B700E5E830E43475E80090F6
:10403000000AE090000930E205E004F0800EE0FFA5
:10404000900008E02FF0E004F0A3E4F090FFE1E03E
:104050004410F05390EF9004E712084E0000000067
:1040600075B755AF028FB675B700AF038FA7D007EE
:10407000D006D005D004D003D002D000D0D0D0825A
:10408000D083D0F0D0E032C0D075D000C006C007D9
:10409000AFA775A70075B755AEB675B70053A8F7AB
:1040A00053883F75B7558EB675B7008FA7D007D028
:1040B00006D0D032C0E0C0F0C083C082C0D075D07E
:1040C00000C000C001C002C003C004C005C006C0DB
:1040D000079005F4E5A7F075A70075B7559005F3AF
:1040E000E5B6F075B7005388DF758AC0758CE0E5DA
:1040F000C730E60790052CE04402F0E47F50FEFD57
:10410000FC9004E7E0F8A3E0F9A3E0FAA3E0FBC326
:104110001207C150439004E7E0FCA3E0FDA3E0FEDA
:10412000A3E02401FFE43EFEE43DFDE43CFC9004FA
:10413000E7120842E47F50FEFDFC9004E7E0F8A39C
:10414000E0F9A3E0FAA3E0FBC31207C1400A90FF25
:10415000E1E04410F04390109004ADE0FCA3E0FDDA
:10416000A3E0FEA3E0FFA312084274FFFFFEFDFCE4
:104170009004ADE0F8A3E0F9A3E0FAA3E0FBC312DA
:1041800007C19004AD501EE0FCA3E0FDA3E0FEA338
:10419000E02401FFE43EFEE43DFDE43CFC9004AD80
:1041A000120842800712084E0000000075B75590B3
:1041B00005F3E0F5B675B700A3E0F5A7D007D00684
:1041C000D005D004D003D002D001D000D0D0D0820E
:1041D000D083D0F0D0E032C0D075D000C006C00788
:1041E000AFA775A70075B755AEB675B70053A8DF72
:1041F00053C83375B7558EB675B7008FA7D007D0A3
:1042000006D0D032C0D075D000C006C007AFA775A9
:10421000A70075B755AEB675B70053A8BF53C11FF9
:1042200075B7558EB675B7008FA7D007D006D0D01A
:1042300032C0D075D000C006C007AFA775A7007503
:10424000B755AEB675B70053A9FE75B7558EB6759E
:10425000B7008FA7D007D006D0D032C0E0C083C04F
:1042600082C0D075D000C006C007AFA775A7007583
:10427000B755AEB675B70090FFB6E4F090FFB7F053
:1042800053A9FD75B7558EB6F5B78FA7D007D006E1
:10429000D0D0D082D083D0E032C0D075D000C0065C
:1042A000C007AFA775A70075B755AEB675B7005371
:1042B000A9DF75C60075B7558EB675B7008FA7D044
:1042C00007D006D0D032C0E0C083C082C0D075D045
:1042D00000C004C006C007ACA775A70075B755AEEF
:1042E000B675B70090FFD0E054FCF053A9FD75B748
:1042F00055AF068FB675B700AF048FA7D007D006AD
:10430000D004D0D0D082D083D0E03290067774151C
:10431000F0E4FF900673EFF0A3EBF0A3EAF0A3E95B
:10432000F078787C067D017BFF7A12798A7E007FA7
:10433000641205309006DC7401F0900673E0FF7B98
:10434000017A0679787D02122C6BEF702B9006743F
:10435000E0F9A3E0FAA3E09009D8C9F0A3EAF0A33A
:10436000E9F0900677E09009DBF07B017A06797836
:1043700012224DE49006DCF09006DCE0FF223EFACB
:104380007B018087900677EDF08088900677740136
:10439000F0FF6113900638EBF0A3EAF0A3E9F0A375
:1043A0007401F0783C7C06FD7BFF7A1379167E0061
:1043B0007F191205307B017A06793C710B90063B20
:1043C000EFF07022900638E0F9A3E0FAA3E090093C
:1043D000D8C9F0A3EAF0A3E9F0A3740CF07B017A4A
:1043E00006794212224D90063BE0FF22900246E001
:1043F000FF64026004EFB403037F01227F00229078
:104400000DD47401F022900DD0E4F0900DD1E4F0C1
:1044100090FFE8E0FFEF4480FF90FFE8EFF090FFAF
:10442000E8E0FFEF54BFFF90FFE8EFF053EC7F9020
:104430000DD1E4F0900DD1E0FFEFC394085033713B
:10444000FF900DD0E0FFEF25E0FF900DD0EFF0439F
:10445000EC80E5EC30E60E900DD0E0FFEF4401FF7C
:10446000900DD0EFF071FF53EC7F900DD1E004F090
:1044700080C290FFE8E0FFEF4440FF90FFE8EFF0DC
:1044800043EC4043EC801200EC53EC7F900DD0E005
:10449000FF22900DCEE4F0900DCF7408F090FFE86D
:1044A000E0FFEF4480FF90FFE8EFF090FFE8E0FFCF
:1044B000EF54BFFF90FFE8EFF053EC7F900DCFE497
:1044C000F0900DCFE0FFEFC39408503D71FF900DC9
:1044D000CEE0FFEF25E0FF900DCEEFF043EC80E55E
:1044E000EC30E60E900DCEE0FFEF4401FF900DCED4
:1044F000EFF071FF900DCEE0FF900DCEEFF053EC9A
:104500007F900DCFE004F080B890FFE8E0FFEF442B
:1045100040FF90FFE8EFF053ECBF43EC801200EC5B
:1045200053EC7F43EC40900DCEE0FF2290FF84E0FF
:10453000FFEF54FFFF90FF84EFF090FF85E0FFEF67
:1045400054FEFF90FF85EFF090FFE9E0FFEF44019C
:10455000FF90FFE9EFF053EDFE22B12C90FFE8E071
:10456000FFEF4440FF90FFE8EFF043EC4090FFE89E
:10457000E0FFEF4480FF90FFE8EFF043EC80120093
:10458000EC53ECBF1200EC53EC7F22900DCD74FF86
:10459000F0900DCCE4F0900DCDE0FF900DCCE0FE5E
:1045A000EEC39F5015B15A7FA0121F4EEF70030249
:1045B0001D9F900DCCE004F080DC22900DB6740EAF
:1045C000F0900DB1EEF0A3EFF0900DB3EBF0A3EA95
:1045D000F0A3E9F0900DB1E0FEA3E0FF900DB7EE7F
:1045E000F0A3EFF0900DB1E0FEA3E0FFEF5407FF62
:1045F000C374089FFF900DB9EFF0900DBAE4F090EE
:104600000DB9E0FF900DB6E0FEEEC39F500A900D8D
:10461000B6E0FF900DB9EFF0900DB7E0FEA3E0FF1C
:10462000900DB3E0FBA3E0FAA3E0F9900DBAE0FD32
:104630007C00E92DF9EA3CFA900DB9E0FD900D9F60
:10464000EDF0121E08EFB401037F0122900DB9E0D6
:10465000FF900DBAE02FF0900DBAE0FF7E00900DB4
:10466000B1E0FCA3E0FDEF2DFFEE3CFE900DB7EEB8
:10467000F0A3EFF0900DBAE0FF900DB6E0FEC3EEB0
:104680009FFF900DB9EFF0900DB9E0FFEFD39408C4
:104690004006900DB97408F0900DB9E0FFEF60028C
:1046A000C1187F0022900DBBEEF0A3EFF0900DBD7E
:1046B000EDF0900DBEEBF0C2AF900DBDE0FF8FEFBF
:1046C000900DBBE0FEA3E0FFEF54FFF5EE900DBBB5
:1046D000E0FEA3E0FFEEFF7E008FF775A70175F205
:1046E0006E75F30575F40A75F509900DBEE0FFEFE0
:1046F000B4680775F6060000000075A70075F7009E
:10470000D2AF2290098FE4F0A37472F07F007E0D87
:1047100090098AEEF0A3EFF0A3EBF0A3EAF0A3E98F
:10472000F075E75575C7840000E5C730E6037FFFE5
:104730002290053AE0646860037FFF2290098FE0D1
:10474000FEA3E0FF90098BE02FFF90098AE03EFE78
:10475000D3EF9400EE941040037FFF22D390099092
:10476000E0940090098FE09400404590098CE0FBB4
:10477000A3E0FAA3E0F9120556FC90098AE0FEA333
:10478000E0FFAD047B68D1A590098BE004F07006D2
:1047900090098AE004F090098DE475F00112066A30
:1047A000900990E024FFF090098FE034FFF080AC96
:1047B0007F00228F828E83E4FFEDB4680DC2AF7557
:1047C000A701E493FFE4F5A7D2AF2290053AE044B5
:1047D00020F07B017A07798A900786E0FCA3E0FD50
:1047E00090098F7402F0A3E4F090098DECF0A3ED32
:1047F000F075E75575C7840000E5C730E6037FFF15
:104800002290098FE0FEA3E0FF90098EE02FFF9039
:10481000098DE03EFED3EF9400EE941040037FFF3D
:1048200022D3900990E0940090098FE094004036E4
:1048300090098DE0FEA3E0FF7D681247B3EF1205FB
:10484000CF740129F9E43AFA90098EE004F0700679
:1048500090098DE004F0900990E024FFF090098F1A
:10486000E034FFF080BB7F002290053AE04408F07E
:104870007B68E4FDFF7E0C11807B68E4FDFF7E0D0C
:10488000900DBFEEF0A3EFF0900DC1EDF0900DC2D2
:10489000EBF075E75575C7840000E5C720E6559035
:1048A000053AE0FFEF6468704BC2AF900DC1E0FFC6
:1048B0008FEF900DBFE0FEA3E0FFEF54FFF5EE9009
:1048C0000DBFE0FEA3E0FFEEFF7E008FF775A701AE
:1048D00075F2E675F30575F40A75F509900DC2E0F9
:1048E000FFEFB4680775F6060000000075A70075B5
:1048F000F700D2AF2290FFE5E054FBF090FFF5E027
:104900004404F02211F5E5E920E2299004A4E00432
:10491000F070069004A3E004F0C39004A4E094FABD
:104920009004A3E09400401AE4F0A3F0900536E070
:104930004401F022E49004A3F0A3F0900536E05483
:10494000FEF02290FFE1E054FEF090FFF1E0440120
:10495000F0223143900537E030E215E59030E00277
:1049600021F1E04401F0E054FBF0E4900458F0221F
:10497000900537E030E061E59020E06A900458E06F
:1049800004F0E0FF7408D39F5067900537E04402BD
:10499000F0E054FEF0E4900458F0900535E044084F
:1049A000F090045412084E0000003C90044C741E19
:1049B000F0900459E0700B900460F0900459746812
:1049C000F022900460E004F090040BE0FF9004609B
:1049D000E0C39F401CE4F022900537E030E107E59A
:1049E0009030E00D8000E4900458F0900537740496
:1049F000F022EF146021047024515F7FFF511E43A9
:104A0000D18090FFE1E04408F05390F790FFE9E097
:104A10004402F053EDFD22515FE4FF511E22E4FEFB
:104A200074612EF582E43404F583EFF00EEEB428C1
:104A3000EF7F007E25E4FD74612DF582E43404F5FA
:104A400083E0FCEF2DF582E43EF583ECF074612DFC
:104A5000F582E43404F583E4F00DEDB428D9225353
:104A6000D17F518390FF8074F0F090FF817403F048
:104A700090FF8274FEF090FF837401F090FF8574C4
:104A8000FCF022E5D154706430600653D18F43D1DD
:104A900030E5D154076407600653D1F843D107E5E8
:104AA000D254076402600653D2F843D202225380E4
:104AB000FD000043800453807F229004A7E0601E25
:104AC000E014F0E0FF7E00BE0205BF400251E1901D
:104AD00004A7E0FF7E00BE0107BF900480D051E133
:104AE000225380FD005380FB53807F2243800200CD
:104AF000005380FB4380802290FFE3E04410F043AA
:104B0000B010022B5D9007A2E0FD9007ABEDF0E442
:104B1000FF7E08EF25E0FFEE7C0024FFF582EC34F9
:104B2000FFF58312056FFD9007ABE05D60010FDEBE
:104B3000E22290079EEBF0A3EAF0A3E9F09007A22F
:104B40007440F0E49007A1F09007A1E0FFC394083F
:104B50005036EFB40404A37480F090079EE0FBA3EA
:104B6000E0FAA3E0F971059007A1E024A3F582E43F
:104B70003407F583EFF09007A2E0FF1313543FF0E2
:104B80009007A1E004F080C090079EE0F9A3E0FA4E
:104B9000A3E09009D8C9F0A3EAF0A3E9F0A3740850
:104BA000F07B017A0779A302224D90079EEBF0A3D8
:104BB000EAF0A3E9F0A3EDF01205569007A2F090F9
:104BC000000112056F9007A3F090000212056F908C
:104BD00007A4F090000312056F54F09007A5F0BDF4
:104BE00002339007A2E0FCA3E0FDA3E0FEA3E0FFF8
:104BF00078011207E59007A212084290079EE0FB99
:104C0000A3E0FAA3E0F912055630E7449007A5E0C7
:104C10004410F0803B9007A2E0FCA3E0FDA3E0FE7F
:104C2000A3E0FF78011207D29007A2120842900772
:104C3000A5E054F0F090079EE0FBA3E0FAA3E0F9B2
:104C400090000312056F30E4079007A2E04480F063
:104C500090079EE0FBA3E0FAA3E0F99000031205A1
:104C60006F540F9007A6F090000412056F9007A7ED
:104C7000F090000512056F9007A8F090000612054D
:104C80006F9007A9F09007A1E06402703D9007A61D
:104C9000E0FCA3E0FDA3E0FEA3E0FF78011207E53E
:104CA0009007A61208429007A6E0540FF090079EC6
:104CB000E0FBA3E0FAA3E0F990000312056F30E3F4
:104CC0003D9007A9E04401F080349007A6E0FCA3E2
:104CD000E0FDA3E0FEA3E0FF78011207D29007A653
:104CE00012084290079EE0FBA3E0FAA3E0F99000CF
:104CF0000612056F30E0079007A6E04408F0900721
:104D0000A5E0FFA3E0FEEF4E9007A5F09007A7E017
:104D10009007A6F09007A8E09007A7F09007A9E0F9
:104D20009007A8F090079EE0F9A3E0FAA3E09009AD
:104D3000D8C9F0A3EAF0A3E9F0A37407F07B017AE5
:104D40000779A202224D90079EEBF0A3EAF0A3E9B7
:104D5000F02404F9E43AFA9009D87401F0A3740736
:104D6000F0A374A5F0A37404F012224D9007B4745C
:104D7000FFF0A3740BF0A374FDF0A374FFF0A37411
:104D80000BF0A374CDF0A37406F07B017A0779A52C
:104D9000122767E49007A4F09007A4E0FF24A5F58C
:104DA00082E43407F583C083C082E0FE9007A1E06F
:104DB000FBA3E0FAA3E0F98F8275830012056FFF71
:104DC000EE6FD082D083F09007A4E004F0E0B40648
:104DD000C7E49007A4F09007A4E0FFC39402400248
:104DE000C1FEE0FE75F003A424A5F582E43407F5C6
:104DF00083E0FDC45430FCEE75F003A424A6F582D4
:104E0000E43407F583E0C4540F4CF520ED1313543C
:104E10003FFE9007A4E0FD75F000A4246DF582E547
:104E2000F0340CF583ED2583F583E5822EF582E4DD
:104E30003583F583E493FE75F000EDA424ADF5828F
:104E4000E5F0340CF583ED2583F583E5822520F527
:104E500082E43583F583E493FDEE4DFE9007A4E0F4
:104E6000FD25E024ADF582E43407F583EEF0ED7521
:104E7000F003A424A6F582E43407F583E025E025B9
:104E8000E0543FFEED75F003A424A7F582E4340757
:104E9000F583E0FDC4131354034EF520ED543FFE9B
:104EA0009007A4E0FD75F000A4242DF582E5F03410
:104EB0000DF583ED2583F583E5822EF582E43583B8
:104EC000F583E493FE75F000EDA424EDF582E5F0A2
:104ED000340CF583ED2583F583E5822520F582E406
:104EE0003583F583E4934EFEEF25E024AEF582E4AE
:104EF0003407F583EEF09007A4E004F0A1D6900704
:104F0000B474FFF0A3740CF0A3744DF0A374FFF01D
:104F1000A3740CF0A3742DF0A37404F07B017A0742
:104F200079AD122767E49007A4F09007A4E0FFC3CF
:104F30009404505B7E00EF2404FDEE33FC90079E4A
:104F4000E0FBA3E0FAA3E0F98D828C8312056FF5F4
:104F5000209007A4E0FDF58275830012056FFC74B4
:104F6000AD2DF582E43407F583E06CFD74042FF574
:104F700082E433F583ED1205E19007A4E0F5827534
:104F80008300E5201205E19007A4E004F0809B2255
:10800000EF14602104703BE5876003E4F587539823
:10801000F74398C0E4FF11D690077CE599F0539898
:10802000EC43A81022E5876003E4F58753D8F343B7
:10803000D8C07F0111D690077CE5D9F053D8EC4326
:10804000A90422EF14605104600201D5E5876003A2
:10805000E4F587E598440860035398F7E59854C021
:1080600064C060034398C090FFE2E054BFF090FF0B
:10807000F2E054BFF090FFE2E04480F043A080E4DF
:10808000FF11D6E4FF120191900614E599F0539880
:10809000FC43981043A81022E5876003E4F587535A
:1080A000D8F343D8C090FFE3E054FEF090FFF3E034
:1080B00054FEF090FFE3E04402F043B0027F011170
:1080C000D67F01120191900614E5D9F053D8FC43F4
:1080D000D81043A90422EF14602C04704CE59D6471
:1080E000CC6003759DCCE59C647F6003759C7FE547
:1080F0009E540F64016006539EF0439E01E59C2050
:10810000E727439C8022E5DD64F3600375DDF3E53A
:10811000DC647F600375DC7FE59E54F06003539E52
:108120000FE5DC20E70343DC8022E4FF11437F01FD
:1081300011437F0211437F030143E4F5B1F5A8F534
:10814000A971B11298EF12A2AA129F8B517212B2AA
:10815000D012B30F312A315DD2AF7F002253957F09
:1081600053A9FE71957B017A0979E290098FE4F0B9
:10817000A37472F07D007C0C122851EF603F12282E
:108180003EEF6039E490061CF090061CE0FBC394BF
:108190001C502AEB25E025E024E8F582E43417F5AD
:1081A00083120832EB25E025E024E2F582E434096D
:1081B000F58312084290061CE004F080CC712A7B03
:1081C000017A067919900993E4F0A37403F0E4FDB1
:1081D0001235109006227408F0A37484F07B017AA3
:1081E00006791AFD7C08123B8C7B017A0679197D91
:1081F00003519BE490061CF090061CE0FFC3941C06
:10820000503CEF25E025E024E2F582E43409F583D3
:10821000E0FCA3E0FDA3E0FEA3E0FF7B017A06798A
:108220001E123BB090061EE0FF90061DF0FD7B0184
:108230007A06791F519B90061CE004F080BA7B01FE
:108240007A067919900993E4F0A37403F0E4FD121F
:10825000351090062274F8F0A37484F07B017A063E
:10826000791AFD7CF8123B8C7B017A0679197D0323
:108270008029E4FF0249F2F583EF2583F583E0903E
:10828000063CF07B017A06793A900639E0FDD1FA96
:108290007B017A06793A900639E0FD900649EDF0C7
:1082A00012055690064AF090000112056F90064B99
:1082B000F090000212056F90064CF012BF7F122B57
:1082C0006B900649E04480FF122BF690064D740334
:1082D000F090064DE0FFD39400401A74039FFFE432
:1082E0009400FE744A2FF5827406122BF190064D0D
:1082F000E014F080DC124AF890065312084EC900D0
:108300000000123B99E4900652F0900652E0FFC341
:1083100094045013744E2FF582E43406122BF2901D
:108320000652E004F080E3024AF87B017A067941C4
:1083300012350590064074C3F07B017A067941FD41
:10834000519B7F197E00122AC57F19122B1C122BFC
:108350006BE4900645F0900645E0FFC3940B503463
:10836000EF25E025E02458F582E43418F58312085F
:10837000327B017A067941123BB0900641E0FF90D2
:108380000640F0FD7B017A067942519B900645E05C
:1083900004F080C2227B017A0679241235057FD34E
:1083A0007B017A0679247DD3519B7F01122B1C61BE
:1083B0002A53A9DF75E755E4F5C675E755F5C77586
:1083C000E75575C78475E75575B30175E755F5B47D
:1083D00012B82DBF010271E6E5C730E6037F012226
:1083E00053A9DF7F002275B10702000090062DEF30
:1083F000F0E4900637F090062DE0FF75F0A7A42476
:108400008CF582E5F03401F583EF2583F583E0FFF9
:10841000E4FCFDFE900633120842900633E0F8A318
:10842000E0F9A3E0FAA3E0FBC00090062DE0FF75A1
:10843000F0A7A4248DF582E5F03401F583EF2583C0
:10844000F583E0FFE4FCFDFE78081207E5D000EBC1
:108450004FFFEA4EFEE94DFDE84CFC900633120852
:1084600042900633E0F8A3E0F9A3E0FAA3E0FBC0F2
:108470000090062DE0FF75F0A7A4248EF582E5F0AC
:108480003401F583EF2583F583E0FFE4FCFDFE78FE
:10849000101207E5D000EB4FFFEA4EFEE94DFDE874
:1084A0004CFC900633120842900633E0F8A3E0F942
:1084B000A3E0FAA3E0FBC00090062DE0FF75F0A753
:1084C000A4248FF582E5F03401F583EF2583F5834D
:1084D000E0FFE4FCFDFE78181207E5D000EB4FFF4B
:1084E000EA4EFEE94DFDE84CFC900633120842903E
:1084F000062DE0FF75F0A7A4248CF582E5F0340189
:10850000F583EF2583F583E0900632F075F0A7EF51
:10851000A4248AF582E5F03401F583EF2583F58301
:10852000E0B42E0C90062DE012C2AB900637EFF0AF
:1085300090062DE0FF75F0A7A4248AF582E5F034BB
:1085400001F583EF2583F583E0642F6002A1F9FE36
:108550007C017DA712060374982FF974013EFA7B03
:1085600001C00390098DEBF0A37406F0A3742EF004
:10857000A37404F0D0031235D890062DE0FF75F0F7
:10858000A7A4248EF582E5F03401F583EF2583F569
:1085900083E0601C14605214604524FB6003047087
:1085A000527B017A06792E900632E0FD519B80497C
:1085B00090062DE0FF75F0A7A4248CF582E5F03439
:1085C00001F583EF2583F583E014600A0470247EAF
:1085D0000012C00B802390062DE0FFB1FF801A909F
:1085E000062DE0FF12A29C801090062DE0FF12C025
:1085F000A480069006377401F0900637E0FF2290C1
:108600000638EFF0A37437F0E4A3F0900638E0FFEB
:1086100075F0A7A424C1F582E5F03401F583EF25B8
:1086200083F583E090063BF075F0A7EFA424C0F536
:1086300082E5F0340151779006397460F0E4A3F0DC
:10864000900638E0FF75F0A7A424C5F582E5F03464
:1086500001F583EF2583F583E090063BF075F0A7E5
:10866000EFA424C4F582E5F0340151779006397403
:1086700036F0E4A3F0900638E0FF75F0A7A424AD2F
:10868000F582E5F03401F583EF2583F583E090066C
:108690003BF075F0A7EFA424ACF582E5F03401516E
:1086A00077900639741EF0E4A3F0900638E0FF7569
:1086B000F0A7A4249DF582E5F03401F583EF25832E
:1086C000F583E090063BF075F0A7EFA4249CF582BB
:1086D000E5F03401F583EF2583F583E090063CF067
:1086E0007B017A06793A900639E0FDD1FA7B017A6E
:1086F00006793A900639E0FD419B900649EDF0126B
:10870000055690064AF090000112056F90064BF056
:1087100090000212056F90064CF090053AE044403C
:10872000F0E490064DF090064DE0FFC3941C40032A
:10873000028823EF25E025E024E8F582E43417F5EC
:10874000831208327B017A06794E123BB0900649BB
:10875000E0FD90064EE06D600302881A90053AE055
:108760004420F090064EEDF09009D87401F0A37407
:1087700006F0A3744FF0A37403F07B017A06794AE4
:1087800012224D7B017A0A796590098FE4F0A37477
:1087900072F07D007C0C1247E990064DE075F00404
:1087A000A42465F9740A35F0FA9009D87401F0A38D
:1087B000EAF0A3E9F0A37404F07B017A06794E1283
:1087C000224D9009D87401F0A37409F0A374E2F06B
:1087D000A37470F07B017A0A796512224D7B017ACD
:1087E0000979E27D707C00121C16900A52EEF0A30B
:1087F000EFF01248697B017A0979E290098FE4F081
:10880000A37472F07F007E0C1247107B017A097905
:10881000E2124703E490053AF02290064DE004F09E
:10882000028726227B017A0479EB900993E4F0A376
:10883000740AF0E4FD1235107B017A0479EBE4FD53
:10884000FFFE1219F37B017A007908900993E4F096
:10885000A37408F0E4FD1235107B017A00790090D2
:108860000993E4F0A37408F0E4FD1235107B017A5B
:108870000579BF900993E4F0A3741AF0E4FD123572
:1088800010E4900785F0900785E0FDC3940D502714
:108890007B017A0079087F0C7E001219F39007851E
:1088A000E0FD7B017A0079007F0D7E001219F390C4
:1088B0000785E004F080CF90000EE0900786F0F48A
:1088C000A3F0900006E0900788F0F4A3F07B017A13
:1088D000077986E4FD7F0EFE1219F37B017A057994
:1088E00088900993E4F0A3740CF0E4FD1235107B3A
:1088F000017A0579221235057B017A057926123530
:10890000057B017A057988121C12900594EEF0A37C
:10891000EFF07B017A057988E4FD7F02FE1219F3FE
:108920007B017A05791EE4FD7F04FE1219F3E490C1
:108930000785F0900785E0FFC39404501EEF75F0A3
:108940000EA4245AFFE5F03401FE7B017A057988F4
:108950001245BB900785E004F080D890052DE030EB
:10896000E0127B017A0579D9123505E4900010F008
:10897000900580F07B017A0579DD1235057B017A5F
:108980000579E11235057B017A0579E51235057B1C
:10899000017A0579E91235057B017A0579ED123501
:1089A000057B017A0579D97D187C00121C1690058B
:1089B000F1EEF0A3EFF07B017A0579D9E4FD7F18A1
:1089C000FE1219F37B017A007911900993E4F0A368
:1089D0007405F0E4FD1235107B017A0079107D06F4
:1089E0007C00121C16900016EEF0A3EFF07B017ACB
:1089F000057981900993E4F0A37405F0E4FD123544
:108A0000107B017A0579807D067C00121C1690058A
:108A1000861219E37B017A057980E4FD7F17FE1247
:108A200019F3E490052FF07B017A05792FFD7F0F74
:108A3000FE1219F3E4900533F0900532E05420F073
:108A400022124AEC9004A77458F07B017A0D7972D7
:108A5000900993E4F0A37404F07DFF1235107F04B5
:108A6000900785EFF012BC5C900785E0FB75F00580
:108A7000A424C5F582E43400F583E493FC740193E7
:108A8000FD900786ECF0A3EDF02400FEEC3401A38A
:108A9000F0A3CEF090053AE04440F0EB64026002AF
:108AA0008194900532E030E40281941247CB900724
:108AB00085E0FF75F005A424C7F582E43400F58352
:108AC000E493FE74802FF582E43405F583E08EF0A4
:108AD000A4248AF9740735F0FA7B01C0039009D801
:108AE000EBF0A3740DF0A3742EF0900785E075F001
:108AF00005A424C7F582E43400F583E4939009DBF0
:108B0000F0D00312224D90098D7401F0A3740DF082
:108B1000A3746EF0A37404F0A37455F07B017A0D76
:108B2000792E123A39EF6402700261F09009D8741C
:108B300001F0A3740DF0A3742EF0A37404F07B0174
:108B40007A0D796E12224D9009D87401F0A3740D3C
