:020000040000FA
:07000000020A5E023E4E22DF
:0F000B00023F03EF240A83900100730A2D507304
:03001B00023ED6CC
:0300230002328323
:03002B000240266A
:0300330002405335
:03003B0002408000
:030043000240AACE
:10004B000233DB01020A0B09030401020A0B090349
:07005B000490053BE0FF22C9
:0C0063000240E8122B5A122B5A022BAA62
:10007300024115900DC31208EB7810EC4D4E4F70F2
:10008300047CA57DA5C3EC13FCED13FDEE13FEEF7D
:1000930013FF5010EC64CCFCED644CFDEE644EFE9B
:1000A300EF64CEFFD8DF900DC3120842EE547FFEFB
:1000B30022900DC3EEF0EFA3F0A374A5F0A3F022FA
:1000C300300100000C0333020012300004002C3412
:1000D3000006000E1D0008000C1E000A000C0002A2
:1000E300060A0E050204040404900DD37401F09073
:0A00F3000DD3E0FF14F0EF70F622C9
:10010000C0087401C0E0C082C08375080AC0F085D1
:10011000A8F0C2AF75B75575B61175B70085F0A8D0
:10012000D0F022C0087401C0E0C082C08375082DE1
:10013000C0F085A8F0C2AF75B75575B61175B70098
:1001400085F0A8D0F022C0087401C0E0C082C0834E
:10015000750850C0F085A8F0C2AF75B75575B622C6
:1001600075B70085F0A8D0F022C0087401C0E0C0C7
:1001700082C083750873C0F085A8F0C2AF75B7550B
:1001800075B63375B70085F0A8D0F02290800021B5
:10019000469082CA214690840D21469086A421462D
:1001A00090B9F2214690D693214690F4C42146900E
:1001B000F2BE2146909430212390813A21239083EE
:1001C000F72123908043212390800021239096D90A
:1001D0002123908835212390B849212390C5AA2155
:1001E000239083FD2123909018212390922D212389
:1001F000908A71212390995C212300EC4D6011E8D5
:10020000497017ED33EC3304600DE4FCFFFEFD2272
:10021000E933E8330470F802044B12041658046002
:1002200009E4CC24815006285009020455284003D3
:10023000020452C0E0EB4A7044B98006D0E0FB02F1
:100240000441EF4E701CBD8008EBFFEAFEE9FD8023
:10025000EBE98DF0A4FEE5F00202E4E9CDF9EAFE57
:10026000EBFFEF89F0A4FCE5F0CE89F0A42EFFE4CB
:1002700035F0CD89F0A42DFEE435F08067EF4E70A7
:1002800005BD80D780C3EF8BF0A4ACF0EE8BF0A45B
:100290002CFCE435F0F8EF8AF0A42CE5F038FCE40F
:1002A00033CB8DF0A42CFCE5F03BF8EE8AF0A42CC7
:1002B000FCE5F038F8E433CF89F0A42CFCE5F03805
:1002C000CF3400CE89F0A42FFFE5F03EFEE433C921
:1002D0008DF0A42EFEE5F039CD8AF0A42FFFE5F0D5
:1002E0003EFEE43DFD33D0E0FB50070BBB000F02A8
:1002F0000455EC2CFCEF33FFEE33FEED33FD02042E
:100300002D020455EC5D046005E8590470030204F5
:100310004B120416580460F6EC4860F2EC7004FDD1
:10032000FEFF22C860DB2481C85009C398600250D8
:10033000060204529850CAF582E9294B4A7005AB6F
:100340008202044175F0007C1A7880C3EF9BEE9A1C
:10035000ED99400DC3EF9BFFEE9AFEED99FDE8424B
:10036000F0DC23ACF0D0E0FFD0E0FED0E0FDAB82CB
:1003700020E7101BEB60BAEC2CFCEF33FFEE33FEF2
:10038000ED33FD02042DE803F830E705C0F075F009
:1003900000EF2FFFEE33FEED33FD40B830E7C280B3
:1003A000AA75F020800E75F010800575F0087D00AC
:1003B0007E007F003392D530D5031207B3EC334073
:1003C00010EF33FFEE33FEED33FDEC33FCD5F0EDF3
:1003D00022E5F0247EA2D513CC92E7CDCEFF22ED0C
:1003E000D2E7CD33EC3392D524814006E4FFFEFD05
:1003F000FC22FCE4CFCECDCC24E0501174FF80ED84
:10040000C3CC13CCCD13CDCE13CECF13CF0470F00D
:1004100030D5DE0207B3E9D2E7C933E833F892D525
:10042000EDD2E7CD33EC33FC5002B2D522EC30E70D
:10043000100FBF000C0EBE00080DBD00040BEB60DA
:1004400014A2D5EB13FCED92E7FD2274FFFCFDFE38
:10045000FF22E480F8A2D574FF13FC7D80E480EFD6
:10046000E709F608DFFA8046E709F208DFFA803E7E
:1004700088828C83E709F0A3DFFA8032E309F6086B
:10048000DFFA8078E309F208DFFA807088828C83D3
:10049000E309F0A3DFFA806489828A83E0A3F60887
:1004A000DFFA805889828A83E0A3F208DFFA804C61
:1004B00080D280FA80C680D4806980F28033801038
:1004C00080A680EA809A80A880DA80E280CA8033A1
:1004D00089828A83ECFAE493A3C8C582C8CCC58319
:1004E000CCF0A3C8C582C8CCC583CCDFE9DEE780E9
:1004F0000D89828A83E493A3F608DFF9ECFAA9F068
:10050000EDFB2289828A83ECFAE0A3C8C582C8CCBD
:10051000C583CCF0A3C8C582C8CCC583CCDFEADED6
:10052000E880DB89828A83E493A3F208DFF980CC38
:1005300088F0EF60010E4E60C388F0ED2402B40431
:100540000050B9F582EB2402B4040050AF232345D8
:1005500082239004B073BB010689828A83E0225013
:1005600002E722BBFE02E32289828A83E49322BB54
:10057000010CE58229F582E5833AF583E0225006F5
:10058000E92582F8E622BBFE06E92582F8E222E5AB
:100590008229F582E5833AF583E49322BB010FF8C3
:1005A000E58229F582E5833AF583E028F0225009B7
:1005B000C58229F8E58226F622BBFE09C58229F804
:1005C000E22582F222F8EA2583F583E9932822BB0B
:1005D000010689828A83F0225002F722BBFE01F3D2
:1005E00022F8BB010DE58229F582E5833AF583E81F
:1005F000F0225006E92582C8F622BBFE05E92582D5
:10060000C8F222EF8DF0A4A8F0CF8CF0A428CE8DF4
:10061000F0A42EFE22BC000BBE0029EF8DF084FF5B
:10062000ADF022E4CCF875F008EF2FFFEE33FEECCE
:1006300033FCEE9DEC984005FCEE9DFE0FD5F0E9F5
:10064000E4CEFD22EDF8F5F0EE8420D21CFEADF0F4
:1006500075F008EF2FFFED33FD4007985006D5F0F9
:10066000F222C398FD0FD5F0EA22C5F0F8A3E028E6
:10067000F0C5F0F8E582158270021583E038F022AB
:10068000A3F8E0C5F025F0F0E5821582700215832D
:10069000E0C838F0E822E88FF0A4CC8BF0A42CFC62
:1006A000E98EF0A42CFC8AF0EDA42CFCEA8EF0A4D8
:1006B000CDA8F08BF0A42DCC3825F0FDE98FF0A467
:1006C0002CCD35F0FCEB8EF0A4FEA9F0EB8FF0A45E
:1006D000CFC5F02ECD39FEE43CFCEAA42DCE35F09A
:1006E000FDE43CFC2275F008758200EF2FFFEE332D
:1006F000FECD33CDCC33CCC58233C5829BED9AEC95
:1007000099E58298400CF582EE9BFEED9AFDEC99FE
:10071000FC0FD5F0D6E4CEFBE4CDFAE4CCF9A88208
:1007200022B800C1B90059BA002DEC8BF084CFCEAD
:10073000CDFCE5F0CBF97818EF2FFFEE33FEED336B
:10074000FDEC33FCEB33FB10D703994004EB99FB32
:100750000FD8E5E4F9FA227818EF2FFFEE33FEED1B
:1007600033FDEC33FCC933C910D7059BE99A400728
:10077000EC9BFCE99AF90FD8E0E4C9FAE4CCFB223F
:1007800075F010EF2FFFEE33FEED33FDCC33CCC808
:1007900033C810D7079BEC9AE899400AED9BFDEC13
:1007A0009AFCE899F80FD5F0DAE4CDFBE4CCFAE452
:1007B000C8F922C3E49FFFE49EFEE49DFDE49CFC97
:1007C00022EB9FF5F0EA9E42F0E99D42F0E89C455D
:1007D000F022E8600FECC313FCED13FDEE13FEEF07
:1007E00013FFD8F122E8600FEFC333FFEE33FEEDC5
:1007F00033FDEC33FCD8F122BB010789828A8302E6
:1008000008EB5005E9F80208DFBBFE05E9F802082D
:10081000F789828A83020832BB010789828A8302B0
:1008200008425005E9F8020903BBFE05E9F8020990
:100830000F22E493FC740193FD740293FE740393FE
:10084000FF22ECF0A3EDF0A3EEF0A3EFF022A882DC
:100850008583F0D083D0821208651208651208657E
:10086000120865E473E493A3C583C5F0C583C8C5C6
:1008700082C8F0A3C583C5F0C583C8C582C822D08D
:1008800083D082F8E4937012740193700DA3A39344
:10089000F8740193F5828883E4737402936860EFBF
:1008A000A3A3A380DFD083D082E49370127401935A
:1008B000700DA3A393F8740193F5828883E4737495
:1008C00002936C70127403936D700C7404936E70C9
:1008D000067405936F60DDA3A3A3A3A3A380CAE658
:1008E000FC08E6FD08E6FE08E6FF22E0FCA3E0FDCA
:1008F000A3E0FEA3E0FF22E2FC08E2FD08E2FE081E
:10090000E2FF22ECF608EDF608EEF608EFF622EC30
:10091000F208EDF208EEF208EFF22260240D7630D4
:100920003F3106325B334F3466356D367D370738DD
:100930007F396F4177427C4339553E493050734689
:10094000714F3F4C0AD7211E1F2025222324383502
:100950003637510A54010203040D0E0F2B101112E9
:1009600013141516171C500AE3000A000F00190093
:10097000320064009600C8012C60E00C0500000005
:10098000000A0A0000000101000A0A00010002003A
:100990000A0E0E00000003010A0E0E000100040002
:1009A000180E0E0000000501180E0E0001000600D2
:1009B0002616160000000701261616000100080082
:1009C0003C060E00000009013C060E0001000A0072
:1009D0004A10100000000B014A10100001000C002A
:1009E0005A0D010101000D00670D010101000E000B
:1009F0007404040101000F007803030001001000DB
:100A00007B1B1B0001001100961919000100120048
:100A1000AF0B0B0001001300BA101001010014000D
:100A2000CA06060001001500D005050101001600E8
:100A3000D508080001001700DD08080001001800B3
:100A4000E51A1A0001001901AC06060001001A019E
:100A5000B23E3E0001001B01921A1A000100787F8D
:100A6000E4F6D8FD75812012010A020AA80218B323
:100A7000E493A3F8E493A34003F68001F208DFF4C3
:100A80008029E493A3F85407240CC8C333C4540F3B
:100A90004420C8834004F456800146F6DFE4800B0E
:100AA000010204081020408090091BE47E0193603D
:100AB000BCA3FF543F30E509541FFEE493A360013B
:100AC0000ECF54C025E060A840B8E493A3FAE493A5
:100AD000A3F8E493A3C8C582C8CAC583CAF0A3C853
:100AE000C582C8CAC583CADFE9DEE780BE0706053E
:100AF00004030201000706050403020100070605BE
:100B000004030201000706050407060504030201A9
:100B1000000706050403020100070605040302019D
:100B200000030201008080808080808080404040FF
:100B30004040404040202020202020202010101045
:100B40001002020202020202020404040404040469
:100B5000040808080808080808101010100102010D
:100B60000200000003010002010202010003000173
:100B7000000302010005060304050603040605043C
:100B80000505060406040605050604030304802083
:100B900001800820100204084002201010400101CA
:100BA0000220100840801002080202040120088080
:100BB00001108002014008044040100801010102B8
:100BC000020202020201020202020202010180404C
:100BD0002010081008040201800180402010081035
:100BE000080402018001804020100810080402015E
:100BF00080018040201008100804020180030000DA
:100C000000000000000000000100010101010101DD
:100C100001010101020102020202020202020202B9
:100C2000030203030303030303030303000102108E
:100C30000808101080800202400840024040010174
:100C400004012020802008040404201080010002F8
:100C5000020301030200010203000203010000027B
:100C600001030300010201030002010003E0004050
:100C7000F0D070104020E0F020B0D0801030A0A064
:100C80006060C0C0B0509090500030708040F01054
:100C9000C0E0808020D04060902010B070F050C044
:100CA000B0903070E030A0A000506000D00F030181
:100CB0000D08040E07060F0B020308040E090C07AB
:100CC0000002010D0A0C060009050B0A05000D0EB5
:100CD00008070A0B010A03040F0D040102050B08A3
:100CE000060C07060C09000305020E0F09A0D00030
:100CF000709000E09060303040F06050A01020D044
:100D000080C05070E0B0C040B020F08010D01060C3
:100D1000A040D090008060F09030800070B0401013
:100D2000F020E0C03050B0A050E02070C0070D0DA2
:100D3000080E0B03050006060F09000A0301040252
:100D4000070802050C0B010C0A040E0F090A030622
:100D50000F090000060C0A0B01070D0D080F090111
:100D60000403050E0B050C02070802040E20E0C068
:100D7000B0402010C07040A070B0D06010805050C3
:100D80000030F0F0A0D0300090E080906040B020C3
:100D90008010C0B070A010D0E0702080D0F06090C3
:100DA000F0C000509060A030400050E0300C0A01CC
:100DB0000F0A040F020907020C0609080500060DB8
:100DC00001030D040E0E00070B05030B0809040EAA
:100DD000030F02050C020908050C0F030A070B009C
:100DE0000E04010A0701060D000B08060D40D0B0E5
:100DF0000020B0E070F04000908010D0A030E0C043
:100E000030905070C05020A0F060801060106040A2
:100E1000B0B0D0D080C010304070A0E070A090F092
:100E200050600080F000E05020903020C00D0102A2
:100E30000F080D0408060A0F030B0701040A0C092A
:100E40000503060E0B0500000E0C09070207020B36
:100E500001040E010709040C0A0E08020D000F061A
:100E60000C0A090D000F0303050506080BFFF0022D
:100E70000027074006445453593636362020204474
:100E80004C2F54003634352D323030372D3134FE6E
:100E9000FEFEFE680000FFFFFFFFFFFF000068008E
:100EA000000000000104EB0100000004000100014B
:100EB00000000104EB01000000040001000200003A
:100EC0000104EF010000000400010090020101058F
:100ED0008E0100000004000100900200010588015D
:100EE000000000040001033006010105220100009A
:100EF000000400010280002001051E00000400041F
:100F00000001040004010103ED00001000060001CF
:100F1000040004020103F3000010060600010400AF
:100F2000040E0103F90000100C060001033001005B
:100F30000105D9010000000401010333020101058C
:100F4000DD01000000040101040010010105A600FC
:100F5000001100040001040010020105AA000011A4
:100F600004040001040010040105AE00001108048F
:100F70000001040010030105B20000110C0400017F
:100F8000040010050105B600001110040001040959
:100F90000B010105BA0000111403000104800010C8
:100FA000FF0E6D010000000801000400040DFF0E9B
:100FB0007F010000001001000400040BFF0E75010A
:100FC0000000000A010004000C01000000000012F3
:100FD0000004010004000C020000000000120304E1
:100FE000010004000C0300000000001206040100D0
:100FF00004000308010408000019000100000400B7
:1010000003020104090000190101000004000301AA
:1010100001040A0000190201000004000305010494
:101020000B000019030100000404010101040E007B
:10103000001A000101000404020101042C00001A3E
:101040001E01010004000306010402000010150344
:101050000001040003070103FF0000101203000158
:101060000201010001002E01000000020001020245
:10107000010001004D010000000300010203000017
:1010800001006901000000030001020301000100EA
:101090006D010000000300010206000001008A014A
:1010A0000000000200010206010001008E010000A4
:1010B000000200010280000201009A01000000020B
:1010C00000010201020001003201000000020001E3
:1010D00002010300010036010000000200010202CB
:1010E00002000100510100000003000102020300A0
:1010F000010055010000000300010203020001008D
:1011000071010000000300010203030001007501EA
:10111000000000030001020602000100920100002D
:101120000002000102060300010096010000000217
:101130000001070000FF070001FF070101FF070191
:1011400002FF070103FF070301FF070002FF200E54
:101150001E1E1830081004040404041611000000B8
:1011600000111100B0990184D401FF8430020C8079
:10117000FA000380FA00000084000084D696000480
:10118000D6822404DC010C04DC030C8432010C0440
:10119000D6820004D6830004D684000082000804AE
:1011A000D68C0004D6000004D6880004D69400042F
:1011B000D6970000C0000000B0880000B08C00008E
:1011C000B0940000B0970004B2010C0000000000D1
:1011D000000000000000000000000000000000010E
:1011E00002030201060BFFF0FF014348494E544938
:1011F0004D0F094B4C0001000001001501010000DA
:10120000060001020100010A001F030100000B009B
:1012100001040100000D00010500000002010606A6
:10122000000000030120000000000000000000009A
:1012300000000000000000000000000000000000AE
:10124000000000000000000000000000000000009E
:10125000000000000000000000000000000000008E
:10126000000000000000000000000000000000007E
:10127000000000000000000000000000000000006E
:10128000000000000000000000000000000000005E
:10129000000000000000000000000000000000004E
:1012A000000000000000000000000000000000003E
:1012B000000000000000000000000000000000002E
:1012C000000000000000000000000000000000001E
:1012D000000000000000000000000000000000000E
:1012E00000000000000000000000000000000000FE
:1012F00000000000000000000000000000000000EE
:1013000000000000000000000000000000000000DD
:1013100000000000000000000000000000000000CD
:1013200000000000000000000000000000000000BD
:1013300000000000000000000000000000000000AD
:10134000000000000000000000000000000000009D
:10135000000000000000000000000000000000008D
:10136000000000000000000000000000000000007D
:10137000000000000000000000000000000000006D
:10138000000000000000000000000000000000005D
:10139000000000000000000000000000000000004D
:1013A000000000000000000000000000000000003D
:1013B000000000000000000000000000000000002D
:1013C000000000000000000000000000000000001D
:1013D000000000000000000000000000000000000D
:1013E00000000000000000000000000000000000FD
:1013F00000000000000000000000000000000000ED
:1014000000000000000000000000000000000000DC
:1014100000000000000000000000000000000000CC
:1014200000000000000000000000000000000000BC
:101430000000000000000000000011892312329B10
:10144000462457AD653674BF8C489DC1AF5ABED394
:10145000CA6CDBE5E97EF8F7108101083393221AA4
:1014600056A5472C75B7643E9CC98D40BFDBAE5274
:10147000DAEDCB64F9FFE8762102308B0210139984
:10148000672676AF443455BDAD4ABCC38E589FD154
:10149000EB6EFAE7C87CD9F53183200A1291031864
:1014A00077A7662E54B5453CBDCBAC429ED98F5034
:1014B000FBEFEA66D8FDC9744204538D6116709F34
:1014C000042015A9273236BBCE4CDFC5ED5EFCD714
:1014D000886899E1AB7ABAF35285430C7197601E24
:1014E00014A1052837B3263ADECDCF44FDDFEC56F4
:1014F00098E98960BBFBAA726306728F4014519D04
:10150000252234AB063017B9EF4EFEC7CC5CDDD5D3
:10151000A96AB8E38A789BF17387620E5095411CE3
:1015200035A3242A16B10738FFCFEE46DCDDCD54B3
:10153000B9EBA8629AF98B7084089581A71AB693C3
:10154000C22CD3A5E13EF0B7084019C92B523ADBB3
:101550004E645FED6D767CFF94898500B79BA61283
:10156000D2ADC324F1BFE03618C109483BD32A5A93
:101570005EE54F6C7DF76C7EA50AB4838618979163
:10158000E32EF2A7C03CD1B5294238CB0A501BD973
:101590006F667EEF4C745DFDB58BA4029699871043
:1015A000F3AFE226D0BDC13439C3284A1AD10B5853
:1015B0007FE76E6E5CF54D7CC60CD785E51EF49713
:1015C000802891A1A33AB2B34A445BCD695678DF33
:1015D0000C601DE92F723EFBD68DC704F59FE41603
:1015E00090A98120B3BBA2325AC54B4C79D7685E13
:1015F0001CE10D683FF32E7AE70EF687C41CD595E3
:10160000A12AB0A3823893B16B467ACF485459DDF2
:101610002D623CEB0E701FF9F78FE606D49DC514C2
:10162000B1ABA02292B983307BC76A4E58D5495CD2
:101630003DE32C6A1EF10F7801010101020202262E
:101640002626262525252828282827272710101074
:10165000101111110E0E0E0E0F0F0F0C0C0C0C0DA5
:101660000D0D0A0A0A0A0B0B0B0A100F0E0D0B0CBC
:10167000040302010204030403020102040304033D
:101680000201020403040302010204030403020131
:10169000020403040302010204030403020102041E
:1016A0000300000000000000000000000104EB0443
:1016B0000201000100000104EB040201000200002D
:1016C0000104EF040201040004010103ED0200051E
:1016D000040004010103EF040001040004020103FB
:1016E000F3020005040004020103F50400010400F4
:1016F000040E0103F90200050400040E0103FB04BB
:1017000000010280002001051E0404010090020077
:101710000105880402010090020101058E04020106
:10172000040010010105A6040201040010020105D5
:10173000AA04020104090B010105BA030403020112
:10174000010001001D0302030202010001003D032C
:101750000303020300000100590304030203010014
:1017600001005D0304030206000001007A02030584
:101770000206010001007E02030502800002010052
:101780009A0202050400040901009C0300030201FF
:1017900002000100210302030201030001002503EE
:1017A00002030202020001004103030302020300DC
:1017B0000100450303030203020001006103040367
:1017C0000203030001006503040302060200010096
:1017D0008202030502060300010086020305FFFFE3
:1017E000FFFF00000000000037007FFF60000000E6
:1017F000360000301E00005004000000050000000C
:1018000006000000070000000800000009000000BA
:101810000A0000000B0000000C0000000D0000009A
:101820000E0000000F00000010000000110000007A
:10183000120000001700000018000000190000004E
:101840001A0000001B0000001C00000061000000E6
:1018500062000000630000000100B97E0300F8840C
:1018600031003427020001001F0000001D0001604C
:10187000270000072800000729000007700000006B
:10188000330033000004050601070809020A0B0CA7
:1018900004171819061A1B1C080D0E0F0910111237
:1018A0000A6162630301020304050D0E0F2B07108A
:1018B0001112131201B9BF01031201BE31069004C7
:1018C000B5E0F8A3E0F9A3E0FAA3E0FBC31207C177
:1018D0006003E4F5B131069004B51208421201DC50
:1018E00012018C1201D71201AF1201B480CEF58320
:1018F000EF2583F583E0FCA3E0FDA3E0FEA3E0FF7A
:101900009006101208429004B1E0FCA3E0FDA3E0B1
:10191000FEA3E0FF9006821208429004ADE0FCA313
:10192000E0FDA3E0FEA3E0FF900686120842E4FF7C
:10193000FEFDFC900686E0F8A3E0F9A3E0FAA3E040
:10194000FBC31207C1703074FFFFFEFDFC900682DE
:10195000E0F8A3E0F9A3E0FAA3E0FBC31207C1603B
:1019600043E4FFFEFDFC900682E0F8A3A3A3E0C3DE
:101970001207C17002802D900682E0FCA3E0FDA357
:10198000E0FEA3E02401FFE43EFEE43DFDE43CFC78
:10199000A3E0F8A3E0F9A3E0FAA3E0FBC31207C1B8
:1019A00060022106900682E0FCA3E0FDA3E0FEA316
:1019B000E0FF227B017A0579807D047C00911690FE
:1019C0000586EEF0A3EFF07B017A057980E4FD7FD8
:1019D00017FE31F37B017A0079107D047C009116AB
:1019E000900016EEF0A3EFF07B017A007910E4FD91
:1019F0007F16FE900991EDF0A3EBF0A3EAF0A3E9C6
:101A0000F090098FEEF0A3EFF09009957401F0E4E7
:101A1000900997F0A3F0C3EF941CEE94004002618C
:101A2000E6E4900996F0900996E0FFC3941C40020A
:101A300061E675F008EFA42405F582E5F0340CF5B5
:101A400083E0FEA3E0FF90098FE0FCA3E0FDEF6DD3
:101A50007002EE6C600261DEEDAE047803C333CE3B
:101A600033CED8F9FF240BF582740C3EF583E06089
:101A7000026102900992E0FBA3E0FAA3E0F9740A84
:101A80002FF582740C3EF583E024FEFDE434FFFC68
:101A90009116900997EEF0A3EFF0900997E0FD9072
:101AA000098FE0FEA3E07803C333CE33CED8F92408
:101AB0000AF582740C3EF583E024FEFFE434FFFE59
:101AC000900992E0FBA3E0FAA3E0F98F828E83ED08
:101AD0001205E1900997A3E0FD90098FE0FEA3E0D5
:101AE0007803C333CE33CED8F9240AF582740C3E82
:101AF000F583E07E0024FFF582EE34FFF583ED12DE
:101B000005E190098FE0FEA3E07803C333CE33CE26
:101B1000D8F92407F582740C3EF583E0FEA3E0FFBC
:101B2000900991E0FD7C00EF2DFFEC3EFEC006C069
:101B300007A3E0FBA3E0FAA3E0F990098FE0FEA37E
:101B4000E07803C333CE33CED8F9240AF582740C7F
:101B50003EF583E0900DB6F0D007D0061244B7EF03
:101B6000600261E6900995F090098FE0FEA3E078AD
:101B700003C333CE33CED8F9FF240CF582740C3E68
:101B8000F583E07061740F2FF582740C3EF583E0ED
:101B9000FEA3E0FF900991E0FD7C00EF2DFFEC3EFD
:101BA000FEC006C007A3E0FBA3E0FAA3E0F990099A
:101BB0008FE0FEA3E07803C333CE33CED8F92412EE
:101BC000F582740C3EF583E0900DB6F0D007D00698
:101BD0001244B7EF60109009957401F080089009E5
:101BE00096E004F04126900995E0FF229185900649
:101BF0001BE0FF7E0090061DEEF0A3EFF0FD9006C7
:101C00001AE0FFED90061DCFF0A3EFF07B017A06FE
:101C1000790E7D0C7C009009D5EBF0A3EAF0A3E9E6
:101C2000F0A3ECF0A3EDF0E4A3F0A3F09009D874D6
:101C3000FFF5F012068045F060429009D5E0FBA365
:101C4000E475F001120680A9F0FA120556FF90091A
:101C5000DAE0FCA3E0FDED6F25E0FFE433FE74382D
:101C60002FF58274143EF583ECFFE493FE74019328
:101C70006FFF9009DAEEF0A3EFF080B09009DAE0A0
:101C8000FEA3E0FF22900DA6EEF0A3EFF0900DA8CA
:101C9000EBF0A3EAF0A3E9F0900DACE4F0900DAB0B
:101CA000E0FFEF70037F0122900DABE0FF7E00901C
:101CB0000DA6E0FCA3E0FDEF2DFFEE3CFED3EF947C
:101CC000FFEE940140037F0122900DA6E0FEA3E009
:101CD000FFEEFF7E00EF54FFFF900DADEFF0900D93
:101CE000ADE0FFEF25E0FF900DADEFF01244509016
:101CF0000DADE0FFEF24A0FFF14EEF6005B19F7F37
:101D00000122900DA6E0FEA3E0FFF14EEF6005B1C9
:101D10009F7F0122124450900DADE0FFEF24A1FF00
:101D2000F14EEF6005B19F7F0122900DA8E0FBA36B
:101D3000E0FAA3E0F9900DAEEBF0A3EAF0A3E9F02E
:101D4000900DADE4F0900DABE0FFEF14FF900DAD02
:101D5000E0FEEEC39F5024124388900DAEE0FBA33B
:101D6000E0FAA3E0F9900DADE0FE8E82758300EFFE
:101D70001205E1900DADE004F080CA1242FC900D16
:101D8000AEE0FBA3E0FAA3E0F9900DADE0FE8E8299
:101D9000758300EF1205E1B19F900DACE0FF22903A
:101DA0000DD5E4F090FFE8E0FFEF54BFFF90FFE8AF
:101DB000EFF0900DD57414F0900DD5E0FFEFD394B3
:101DC000004016E5EC20E61143EC801200EC53ECE9
:101DD0007F900DD5E014F080DF90FFE8E0FFEF4446
:101DE00040FF90FFE8EFF090FFE8E0FFEF4480FF56
:101DF00090FFE8EFF053ECBF53EC7F1200EC43ECA4
:101E0000801200EC43EC4022900D9AEEF0A3EFF02C
:101E1000900D9CEBF0A3EAF0A3E9F0900DA5E4F09F
:101E2000900D9FE0FFEF600B900D9FE0FFEFD394CC
:101E30002040037F0122900D9AE0FEA3E0FFD3EF44
:101E400094FFEE940140037F0122900D9FE0FF7EFE
:101E500000900D9AE0FCA3E0FDEF2DFFEE3CFED3D9
:101E6000EF94FFEE94004013900D9AE0FEA3E0FF84
:101E7000D3EF94FFEE94005002E148124450900DCD
:101E80009FE0FF7E00900D9AE0FCA3E0FDEF2DFFA8
:101E9000EE3CFED3EF94FFEE94005006900DA57437
:101EA000A0F0900D9AE0FEA3E0FFD3EF94FFEE9434
:101EB000004006900DA574A2F0900DA5E0FFF14E34
:101EC000EF6005B19F7F0122900D9AE0FEA3E0FF35
:101ED000F14EEF6005B19F7F0122900D9CE0FBA3C6
:101EE000E0FAA3E0F9900DA2EBF0A3EAF0A3E9F089
:101EF000900DA0E4F0A3E4F0900D9FE0FF7E009031
:101F00000DA0E0FCA3E0FDC3ED9FEC9E5033900DCF
:101F1000A2E0FBA3E0FAA3E0F9120556FFF14EEFB1
:101F20006005B19F7F0122900DA3E475F0011206B8
:101F30006A900DA1E004F07006900DA0E004F0801E
:101F4000B7B19F12448180037F01227F0022900D50
:101F5000C7EFF0900DC8E4F0900DC9E4F090FFE8F1
:101F6000E0FFEF4480FF90FFE8EFF053EC7F90FF3D
:101F7000E8E0FFEF4440FF90FFE8EFF0900DC9E488
:101F8000F0900DC9E0FFEFC394085030900DC7E00A
:101F9000FFEF30E70543EC40800353ECBF43EC8098
:101FA000900DC7E0FFEF25E0FF900DC7EFF0124264
:101FB000F553EC7F900DC9E004F080C51200069047
:101FC000FFE8E0FFEF54BFFF90FFE8EFF043EC8045
:101FD000120006E5EC30E606900DC87401F053ECF3
:101FE0007F900DC8E0FF2290066FE075F00EA424EC
:101FF000A8F582E5F0340EF583E493FE740193FFB7
:102000007B017A06792DE4FD90098CEDF0A3EBF0CD
:10201000A3EAF0A3E9F090098AEEF0A3EFF09009AB
:10202000907401F0E4A3F0A3F09009D3F0A3F0C3FF
:10203000EF941CEE94004002412DE4900991F09041
:102040000991E0FFC3941C4002412D75F008EFA4F4
:102050002405F582E5F0340CF583E0FEA3E0FF9063
:10206000098AE0FCA3E0FDEF6D7002EE6C600241B6
:1020700025900992F090098AE0FEA3E07803C3332B
:10208000CE33CED8F92407F582740C3EF583E0FEFA
:10209000A3E0FF90098CE0FD7C00EF2DFFEC3EFEFD
:1020A000C006C0077B017A09799390098AE0FEA3F4
:1020B000E07803C333CE33CED8F9240AF582740C0A
:1020C0003EF583E0900DABF0D007D006121C85EFF3
:1020D0006401707990098AE0FEA3E07803C333CEEF
:1020E00033CED8F9FF240CF582740C3EF583E070F2
:1020F0004E740F2FF582740C3EF583E0FEA3E0FFD3
:1021000090098CE0FD7C00EF2DFFEC3EFEC006C088
:10211000077B017A09799390098AE0FEA3E07803AE
:10212000C333CE33CED8F92412F582740C3EF58336
:10213000E0900DABF0D007D006121C85BF010E90C9
:102140000992E004F0E0C3940350020175900992F3
:10215000E0C3940340037F012290098AE0FEA3E0DC
:102160007803C333CE33CED8F9FF240BF582740C39
:102170003EF583E0706D740A2FF582740C3EF58392
:10218000E0FF2492F582E43409F583E0FD9009D361
:10219000E4F0A3EDF074912FF582E43409F583E0C7
:1021A000FE9009D3E04EF0A3E0F07B017A09799329
:1021B00090098AE0FEA3E07803C333CE33CED8F98A
:1021C000240AF582740C3EF583E024FEFDE434FF1E
:1021D000FC121C169009D3E06E7003A3E06F60033D
:1021E0007F012290098DE0F9A3E0FAA3E09009D8DD
:1021F000C9F0A3EAF0A3E9F090098AE0FEA3E07831
:1022000003C333CE33CED8F9240AF582740C3EF5DD
:1022100083E09009DBF07B017A097993514DE490DA
:102220000990F08008900991E004F0013F90099036
:10223000E0FF22514D9009D87401F0A37405F0A37A
:102240007402F0A37404F07B017A0579889009D5B3
:10225000EBF0A3EAF0A3E9F0E4FF9009DBE0FEEF86
:10226000C39E502B9009D5E0FBA3E0FAA3E0F98FC1
:102270008275830012056FFE9009D8E0FBA3E0FA97
:10228000A3E0F98F82758300EE1205E10F80CB2267
:10229000900662EBF0A3EAF0A3E9F0900669E0FE95
:1022A000D3940150037F0122EE24FFFFE434FFFEAC
:1022B000900668E0FD7C00120603900662E0FBA336
:1022C000E0FAA3E02FF9EA3EFAC002C001A3E0F968
:1022D000A3E0FAA3E09009D8C9F0A3EAF0A3E9F0DB
:1022E000900668E09009DBF0D001D002514D9006D5
:1022F00069E090066CF090066CE0FFD39401406EAC
:1023000090066AE064557009EF123842EF6057801A
:102310000C90066CE0123842EF6401604990066C44
:10232000E024FEFFE434FFFE900668E0FD7C00122E
:102330000603900662E0FBA3E0FAA3E02FF9EA3E71
:10234000FAC002C001A3E0F9A3E0FAA3E09009D823
:10235000C9F0A3EAF0A3E9F0900668E09009DBF089
:10236000D001D002514D90066CE014F080887F00BF
:10237000229007887401F0A3740BF0A374EDF09021
:102380000783E090078BF090077FE0FBA3E0FAA3C0
:10239000E0F9900785EBF0A3EAF0A3E9F09009D803
:1023A0007401F0A37407F0A37496F0A37408F0907E
:1023B0000788E0FBA3E0FAA3E0F9514D900785E020
:1023C000FBA3E0FAA3E0F9124A1C7B017A07799695
:1023D000124A94E490078CF0E490078DF090078CFB
:1023E000E0FF900BBD93FE90078DE0C39E501C90C4
:1023F000078BE0FDB40103EF60117B017A0779964A
:10240000124DCD90078DE004F080D29009D8740170
:10241000F0A37407F0A3748EF0A37408F07B017A24
:10242000077996514D9007B474FFF0A3740BF0A395
:10243000745DF0A374FFF0A3740BF0A3748DF0A38C
:102440007406F07B017A07798E124AB29007A17464
:1024500001F0A37407F0A3748EF0900785E0FBA34E
:10246000E0FAA3E0F9124B85E4F5B190078CE004A3
:10247000F0E0C39410500261D8900785E0FBA3E020
:10248000FAA3E0F990079EEBF0A3EAF0A3E9F0E4E9
:10249000F5B19007A204F01205569007AAF090003B
:1024A0000412056F9007A9F090000112056F9007C4
:1024B000A8F090000512056F9007A7F09000021297
:1024C000056F9007A6F090000612056F9007A5F023
:1024D00090000312056F9007A4F090000712056F9B
:1024E0009007A3F0E49007A1F07B017A0779A3128B
:1024F00049EF90079EE0FBA3E0FAA3E0F9A3E0F523
:1025000082758300EF1205E19007A2E025E0F090CC
:1025100007A1E004F0E0C3940840CEE4F5B12290B6
:1025200007827401F07F0690077FEBF0A3EAF0A327
:10253000E9F0EF640660137B017A0B79EDE4FD7F2F
:1025400013FE1108BF01037F0122900782E0B4024D
:1025500009A37402F0A314F080099007837401F0BA
:10256000A304F071719007887401F0A3740BF0A3B9
:1025700074F5F0900784718271717F002290077169
:10258000EBF0A3EAF0A3E9F0A3EDF0D394644003E9
:102590007F012290077B7401F0A3740BF0A3746B8E
:1025A000F09009D87401F0A3740BF0A374FDF0A3AC
:1025B0007408F0900775E0FBA3E0FAA3E0F9514D31
:1025C0007B017A0B79EDE4FD7F13FE1108BF010357
:1025D0007F012290077BE0F9A3E0FAA3E09009D8FD
:1025E000C9F0A3EAF0A3E9F0900774E09009DBF0EA
:1025F000900771E0FBA3E0FAA3E0F9514D90077B4F
:10260000E0FBA3E0FAA3E0F9900774E0FFF5827520
:10261000830074801205E17E00E92FF9EE3AFAE9B1
:102620002401F9E43AFA900993E4F0A37407F0E482
:10263000FD122EE8900774E0131313541F04900743
:102640007AF0E4FD74FD2DF582E4340BF583C0834C
:10265000C082E0FF90077BE0FBA3E0FAA3E0F98DE6
:102660008275830012056FFEEF6ED082D083F00D6D
:10267000EDB408D0E4900779F090077AE014FF9069
:102680000779E0C39F506E9007887401F0A3740B24
:10269000F0A374EDF0A37402F07B017A0B79FD7165
:1026A00092E4FD74FD2DF582E4340BF583C083C004
:1026B00082E0FC900779E02401FFE433FEEF780329
:1026C000C333CE33CED8F9FFED7A002FFFEA3EFEBA
:1026D00090077BE0FBA3E0FAA3E0F98F828E8312E0
:1026E000056F6CD082D083F00DEDB408B6900779F9
:1026F000E004F080847B017A0B79FD9007827402FC
:10270000F0E4FFB127900778E06401703B90077117
:10271000E0FBA3E0FAA3E0F9A3E0FF7E00E92FF9D4
:10272000EE3AFA90098DEBF0A3EAF0A3E9F0A37476
:1027300004F0A37455F07B017A0B79FD123888BF41
:1027400002037F00227F01227F002278737C067DB6
:10275000017BFF7A1379BB7E007F19120530900947
:102760008D7401F0A37406F0A37473F0A37406F0E3
:102770007B017A0479891235D29009D87401F0A3CB
:102780007406F0A37479F0A3740CF07B017A0479D9
:102790008F514D9009D87401F0A37406F0A374858D
:1027A000F0A37403F07B017A04799B514D7B017A8D
:1027B0000679731241D09004A0E0900673F07B017B
:1027C0007A0679731241DA788C7C067D017BFF7A78
:1027D0001279EE7E007F281205309006B47401F065
:1027E0009009D8F0A37406F0A3748CF0A37413F0CE
:1027F0007BFF7A1179E2514D9006B87401F0A37411
:1028000006F0A3749FF0A37406F07B017A0379EDC0
:10281000F1EA7B017A06798C7D017F021130EF703D
:10282000099006B4F090053B04F09006B4E0FF2256
:10283000900702EFF0A3EDF0A3EBF0A3EAF0A3E919
:10284000F0A37401F0A3F0E4A3F0A3F0A3F0A3F0CD
:10285000780D7C077D017BFF7A1379D4FE7F6412AB
:1028600005309007717401F0A37407F0A3740DF0A4
:1028700090052CE030E10261481242E2BF01037F83
:102880000622E4900774F0900774E0FFC3940750A9
:1028900053EF75F007A424F5F582E43411F583E4D1
:1028A00093FF900702E0FEEFB50631900774E0FB5E
:1028B00075F007A424F6F582E43411F5831208328A
:1028C000900777120842EB75F007A424FBF582E429
:1028D0003411F583E49390070CF08008900774E0BE
:1028E00004F080A3900774E0C3940740026148E4B9
:1028F00090070AF090052CE030E102614890070C47
:10290000E02404F0900703E0B4020690070C74047E
:10291000F07B017A07790D900993E4F0A37404F039
:102920007DFED1E89007117468F090070CE09007E5
:1029300012F0E4A3F07B017A077914900993F0A3D5
:102940007406F07DFFD1E8E490071AF0A3F0A374B9
:1029500068F0900703E090071DF0900777E0FCA374
:10296000E0FDA3E0FEA3E0FF78181207D290071E57
:10297000EFF0900777E0FCA3E0FDA3E0FEA3E0FF0B
:1029800078101207D290071FEFF0900777E0FCA3B2
:10299000E0FDA3E0FEA3E0FF78081207D290072035
:1029A000EFF0900777A3A3A3E0900721F09009D858
:1029B0007401F0A37407F0A37422F090070CE024D4
:1029C000FC9009DBF0900704E0FBA3E0FAA3E0F938
:1029D00012224D7B017A07791190070CE0240DFD3E
:1029E00012356190070CE0FE241EF582E43407F5F1
:1029F00083EFF0741F2EF582E43407F5837416F02C
:102A0000EE241390070BF07F011201C853A9FBE4D9
:102A1000900709F090070BE0FF900709E0FEC39FC5
:102A2000505B740D2EF582E43407F583E0FF30D05F
:102A300004D2DB8002C2DB8FD9E4900775F0A3F0EB
:102A400030D904C2D9801F715A900776E004F07023
:102A500006900775E004F0C3900776E094D09007E5
:102A600075E0940740DAC3900776E094D09007753C
:102A7000E094075008900709E004F0809743D810CD
:102A800053A9FB90070B7464F0E4900709F09007DA
:102A90000BE0FF900709E0C39F5054E4900775F0E6
:102AA000A3F0900775E0FEA3E0FFC39440EE941FEF
:102AB000502C30D819C2D8900709E0240DF582E4D3
:102AC0003407F583E5D9F0E4900708F0801090070B
:102AD00076E004F07006900775E004F080C4C3EF60
:102AE0009440EE941F5008900709E004F0809F90F6
:102AF0000708E0700A900707F090070A7403F09047
:102B00000707E07035900704E0F9A3E0FAA3E0902E
:102B100009D8C9F0A3EAF0A3E9F0900774E075F0D2
:102B200007A424FBF582E43411F583E4939009DBD8
:102B3000F07B017A07792212224D90070AE004F017
:102B4000E0C39403500201F4900707E0FF22715A9A
:102B500090FFE3E04410F053B0EF2290FFE3E04435
:102B600010F043B010715A90FFE5E04408F053E9CB
:102B7000F7714E80E57E00919990FFE7E054DFF019
:102B800090FFF7E054DFF090FFE5E04408F043E900
:102B900008714E90FFE3E04410F043B010715A907A
:102BA000FFE3E04410F053B0EF227F01AE071FEEC9
:102BB00070FA2290FFE7E054DFF090FFF7E054DF77
:102BC000F0E49006BAF090FFE5E04408F053E9F72E
:102BD000E49006B9F09006BAE0FF25E0F090FFE53A
:102BE000E04408F043E908715AE5EB30E507900648
:102BF000BAE04401F090FFE5E04408F053E9F771D2
:102C00005A00009006B9E004F0E0C3940840C69072
:102C1000FFE5E04408F053E9F79006BAE0FF223EF2
:102C2000F583E0FF9006C2EFF090FFE7E054DFF09D
:102C300090FFF7E054DFF090FFE5E04408F053E93F
:102C4000F7E49006C3F090FFE5E04408F043E9089C
:102C50009006C2E090FFE730E709E04402F043EB62
:102C6000028007E04402F053EBFD715A90FFE5E06B
:102C70004408F053E9F79006C2E0FF25E0F0715AEE
:102C800000009006C3E004F0E0C3940840B890FF51
:102C9000E5E04408F053E9F722900673EEF0A3EF65
:102CA000F0A312084E00000000900673E0FEA3E0BF
:102CB000FF7C007D13120603E4FDA3E0F8A3E0F916
:102CC000A3E0FAA3E0FBC31207C1502412006690F0
:102CD0000675E0FCA3E0FDA3E0FEA3E02401FFE411
:102CE0003EFEE43DFDE43CFC90067512084280B9CE
:102CF0002290FFE3E04440F043B0407F967E009195
:102D00009990FFE3E04440F053B0BF7FF47E01911F
:102D1000999002467401F02290060EEFF0E4A3F0C1
:102D20007B017A0479899004A1E0FFA3E090098EE9
:102D3000CFF0A3EFF07D18B193EF700690060EE090
:102D4000701E7B017A047989E4FD7F1BFE12200846
:102D5000BF010690060F7401F091F1D1701227C7E0
:102D600090060FE0FF227B017A0979E290098FE457
:102D7000F0A37472F07D007C0D1246DF7B017A09AE
:102D800079E2900A52E0FFA3E090098ECFF0A3EF22
:102D9000F07D7090098AEBF0A3EAF0A3E9F0A3EDCF
:102DA000F0F198EF70037F012290098AE0FBA3E025
:102DB000FAA3E0F9A3E0FD7C00121C1690098EE056
:102DC0006E7003A3E06F7F0060027F0122E4FFB119
:102DD0001812274B780E7C067D017BFF7A137957FA
:102DE0007E007F64120530E4900672F012005CEF02
:102DF0006407607BEF64086076EF6404601BEF6437
:102E0000016008E49004E6F01227C79004E6E0D3DE
:102E100094B44005E4F01227C77B017A06790EF1DD
:102E200026EF7044900672F0900672E0FFC394069D
:102E3000502EE0FEFDC374059DFDE49400FC7489F2
:102E40002DF58274043CF583E0FD740E2EF582E4CA
:102E50003406F583E0B50508900672E004F080C8FA
:102E6000EFC394065009800091F1D1701227C72258
:102E70009009D87401F0A37404F0A37489F0A374CA
:102E800006F07B017A0379ED12224D9006B87401A9
:102E9000F0A37404F0A3748FF0A37406F07B017A9E
:102EA000047989F1EAE490049BF0A3F0A3F0A30471
:102EB000F0A3E4F012274B7B017A047989E4FD7FCB
:102EC0001BFE0219F3900534E054FDF07B017A0DEE
:102ED00079267D041201A57B017A0D792A90099348
:102EE000E4F0A37404F0E4FD90098FEBF0A3EAF0A2
:102EF000A3E9F0A3EDF0E4FFFED3900994E09F90E6
:102F00000993E09E401F900992E0FD90098FE0FB3D
:102F1000A3E0FAA3E0F98F828E83ED1205E10FBFE3
:102F200000010E80D4229006777415F0E4FF90061D
:102F300073EFF0A3EBF0A3EAF0A3E9F078787C0656
:102F40007D017BFF7A12798A7E007F6412053090C2
:102F500006DC7401F0900673E0FF7B017A06797855
:102F60007D021130EF702B900674E0F9A3E0FAA314
:102F7000E09009D8C9F0A3EAF0A3E9F0900677E061
:102F80009009DBF07B017A06797812224DE49006F5
:102F9000DCF09006DCE0FF22900990EBF0A3EAF071
:102FA000A3E9F0E4FFEFC39D501B900990E0FBA361
:102FB000E0FAA3E0F98F8275830012056F60037F4A
:102FC00001220F80E07F00223EFA7B01E12690067D
:102FD00077EDF0E12E9006777401F0FFE12E90FF7F
:102FE000E3E04410F043B010615A9006B5EBF0A353
:102FF000EAF0A3E9F0E49006BCF09006BBE0FFA382
:10300000E0FEC39F400302309F9006B5E0FBA3E0C3
:10301000FAA3E0F98E8275830012056FFDC4540F88
:103020009006BDF0ED540FA3F0E4FF74BD2FF582C0
:10303000E43406F583E0FEC3940A501074BD2FF506
:1030400082E43406F583E02430F08014EEC394105B
:10305000500E74BD2FF582E43406F583E02437F07A
:103060000FEFB402C69006BCE075F002A4FF900614
:10307000B8E0FBA3E0FAA3E02FF9EA35F0FA9009F3
:10308000D8EBF0A3EAF0A3E9F0A37402F07B017A95
:103090000679BD12224D9006BCE004F0022FFA2200
:1030A000900605EBF0A3EAF0A3E9F0E4FFEFC39D7F
:1030B000501C900605E0FBA3E0FAA3E0F98F8275AF
:1030C000830012056FF460037F01220F80DF7F0011
:1030D00022F0900613E0FBA3E0FAA3E0F9900003CE
:1030E00012056FFFEFD3946340037F0022EF75F06A
:1030F0000A84C454F0FEEF75F00A84E5F02EFF2236
:10310000AC07AF05312DAD07AF04312DEF2DFF1208
:1031100005562FFFE41205CFEFC3946440097401F4
:103120001205CF749C2FFF80BB12056FFFEFC454B4
:103130000F75F00AA4FEEF540F2EFF2290098FEBBB
:10314000F0A3EAF0A3E9F0E4900996F0A3F0900967
:1031500095E0FF900997E0FEC39F5079EEFDC3EF25
:103160009DFDE49400FCED24FFFFEC34FFFE90098C
:103170008FE0FBA3E0FAA3E0F98F828E8312056F44
:10318000FFED24FFFDEC34FFFC900992E0FBA3E08F
:10319000FAA3E0F98D828C8312056FFD7B017A0919
:1031A00079963100900997E0FD900995E0C39DFD67
:1031B000E49400CD24FFCD34FFFC90098FE0FBA305
:1031C000E0FAA3E0F98D828C83EF1205E190099774
:1031D000E004F0214E229004B1E0FCA3E0FDA3E066
:1031E000FEA3E0FF9005F91208429004ADE0FCA3B5
:1031F000E0FDA3E0FEA3E0FF9005FD120842E4FF1E
:10320000FEFDFC9005FDE0F8A3E0F9A3E0FAA3E0E1
:10321000FBC31207C1703074FFFFFEFDFC9005F97F
:10322000E0F8A3E0F9A3E0FAA3E0FBC31207C16052
:1032300043E4FFFEFDFC9005F9E0F8A3A3A3E0C37F
:103240001207C17002802D9005F9E0FCA3E0FDA3F8
:10325000E0FEA3E02401FFE43EFEE43DFDE43CFC8F
:10326000A3E0F8A3E0F9A3E0FAA3E0FBC31207C1CF
:10327000600221D69005F9E0FCA3E0FDA3E0FEA3E7
:10328000E0FF22C0E0C0F0C083C082C0D075D00093
:10329000C000C001C002C003C004C005C006C00712
:1032A0009005F6E5A7F075A70075B7559005F5E50B
:1032B000B6F075B70030993DC2999000A3E004F0D4
:1032C0009000A2E0FFA3E0C39F502431D69000AE4F
:1032D0001208429000A3E0247EF582E43401F583D5
:1032E000E0FF30D004D29B8002C29B8F9980069071
:1032F000009F7408F030980BC298AF99AD07E4FFB7
:1033000012019675B7559005F5E0F5B675B700A3AF
:10331000E0F5A7D007D006D005D004D003D002D066
:1033200001D000D0D0D082D083D0F0D0E032900451
:10333000B1E0FCA3E0FDA3E0FEA3E0FF90060512D0
:1033400008429004ADE0FCA3E0FDA3E0FEA3E0FF93
:10335000900609120842E4FFFEFDFC900609E0F821
:10336000A3E0F9A3E0FAA3E0FBC31207C170307435
:10337000FFFFFEFDFC900605E0F8A3E0F9A3E0FAEC
:10338000A3E0FBC31207C16043E4FFFEFDFC90060F
:1033900005E0F8A3A3A3E0C31207C17002802D903B
:1033A0000605E0FCA3E0FDA3E0FEA3E02401FFE4AA
:1033B0003EFEE43DFDE43CFCA3E0F8A3E0F9A3E01D
:1033C000FAA3E0FBC31207C16002612E900605E07C
:1033D000FCA3E0FDA3E0FEA3E0FF22C0E0C0F0C03C
:1033E00083C082C0D075D000C000C001C002C0033D
:1033F000C004C005C006C007900602E5A7F075A787
:103400000075B755900601E5B6F075B70030D93DA7
:10341000C2D990024AE004F0900249E0FFA3E0C361
:103420009F5024712E90025512084290024AE024C7
:1034300025F582E43403F583E0FF30D004D2DB804D
:1034400002C2DB8FD980069002467408F030D80B98
:10345000C2D8AFD9AD077F0112019B75B755900651
:1034600001E0F5B675B700A3E0F5A7D007D006D008
:1034700005D004D003D002D001D000D0D0D082D06B
:1034800083D0F0D0E032E0FCA3E0FDA3E0FEA3E0B7
:10349000FF900614120842900614E0FCA3E0FDA37E
:1034A000E0FEA3E0FFA3E0F8A3E0F9A3E0FAA3E0C5
:1034B000FBC31207C1900618E0503DF8C000C001E0
:1034C000C002C003900614E0F8A3E0F9A3E0FAA359
:1034D000E0FBC374FF9BFF74FF9AFE74FF99FD74B9
:1034E000FF98FCD003D002D001D000EB2FFFEA3EC2
:1034F000FEE93DFDE83C8024FCA3E0FDA3E0FEA343
:10350000E0FF900614E0F8A3E0F9A3E0FAA3E0FBE3
:10351000C3EF9BFFEE9AFEED99FDEC98FCA3120819
:103520004290061CE0FCA3E0FDA3E0FEA3E0FF90B8
:103530000618E0F8A3E0F9A3E0FAA3E0FBC3120742
:10354000C17F0140027F0022E0FF75F0A7A4248B19
:10355000F582E5F03401F583EF2583F583E0240A55
:10356000FD90077BEBF0A3EAF0A3E9F0E4FFFEEEA9
:10357000C39D501890077BE0FBA3E0FAA3E0F98E0F
:103580008275830012056F2FFF0E80E322FF9006E5
:103590003CF07B017A06793E9006B87401F012A2E5
:1035A0000CE490063DF0900638E0FF7E007C017D43
:1035B000A712060374902FF974013EFA90098D74D6
:1035C00001F0A3EAF0A3E9F0A37404F07B017A060A
:1035D000793D90098AEBF0A3EAF0A3E9F0E49009C1
:1035E00091F0900990E0FFA3E0FEC39F5047EEFDED
:1035F00090098AE0FBA3E0FAA3E07E002FF9EE3AFF
:10360000FAE924FFF9EA34FFFAC3E99DF9EA9400E4
:10361000FA120556FF90098DE0FBA3E0FAA3E0F94A
:10362000900991E0F582758300EF1205E190099110
:10363000E004F080AD22900725EBF0A3EAF0A3E9C7
:10364000F0E4FFEFC39D5028900725E0FBA3E0FACC
:10365000A3E0F98F8275830012056FFE540FD39497
:10366000095007EE54F0949040037F01220F80D35D
:103670007F002290062BE0FF7E007C017DA71206D2
:103680000374982FF974013EFA7B0190066DE07E79
:103690000029F9EE3AFA7D04900725EBF0A3EAF051
:1036A000A3E9F0A3EDF0E4A3F0900728E0FFC31333
:1036B000FEA3E0C39E5078900725E0FBA3E0FAA3A9
:1036C000E0F9900729E0FEF58275830012056F90FE
:1036D000072AF0EF24FFFDE434FFFCEEFFC3ED9F6B
:1036E000FFEC94008F82F58312056FFF900729E0AD
:1036F000F582758300EF1205E190072AE0FF90073D
:1037000028E024FFFDE434FFFCA3E0FBC3ED9BFDB8
:10371000EC9400FC900725E0FBA3E0FAA3E0F98D10
:10372000828C83EF1205E1900729E004F0C1A92201
:1037300090062BE0FF7E007C017DA71206037490AB
:103740002FF974013EFA7B01900674EBF0A3EAF0C6
:10375000A3E9F0120556FF24A9F582E43404F583A9
:10376000E0C39403401074A92FF582E43404F58378
:103770007403F07F01227B017A067978E4FD7F12E1
:10378000FE122008BF01037F0122900674E0FBA314
:10379000E0FAA3E0F9120556FF7006900677F08074
:1037A0001BEFB401089006777403F0800FEFB402AA
:1037B000089006777406F080037F0122E4FFEF246F
:1037C00001FDE433FC900674E0FBA3E0FAA3E0F90A
:1037D0008D828C8312056FFE900677E02F2478F59A
:1037E00082E43406F583E06E6038120556FE24A9A3
:1037F000F582E43404F583E004F074A92EF582E444
:103800003404F583E0C39403401512055625E024E3
:10381000D0F582E43404F5837405F0A374A0F07F3E
:1038200001220FEFB40397900674E0FBA3E0FAA324
:10383000E0F912055624A9F582E43404F583E4F096
:10384000FF2224FEFFE434FFFE900668E0FD7C00CA
:10385000120603900662E0FBA3E0FAA3E02FF9EA68
:103860003EFA90098DEBF0A3EAF0A3E9F090066828
:10387000E0900990F090066BE0900991F090066559
:10388000E0FBA3E0FAA3E0F990098AEBF0A3EAF0E9
:10389000A3E9F0E4900992F0900990E0FF9009927A
:1038A000E0FEC39F400221A9900991E06455703960
:1038B00090098DE0FBA3E0FAA3E0F98E8275830006
:1038C00012056FFD90098AE0FBA3E0FAA3E0F98EF0
:1038D0008275830012056FFED39D40037F0022EEA8
:1038E000C39D400221A17F0122900990E024FFFFA7
:1038F000E434FFFE900992E0FDC3EF9DFFEE9400DB
:10390000FE90098DE0FBA3E0FAA3E0F98F828E839D
:1039100012056FFF900990E024FFFDE434FFFC9056
:103920000992E0FBC3ED9BFDEC9400FC90098AE05A
:10393000FBA3E0FAA3E0F98D828C8312056FD39F7D
:1039400040037F0022900990E024FFFFE434FFFE53
:10395000900992E0FDC3EF9DFFEE9400FE90098D6B
:10396000E0FBA3E0FAA3E0F98F828E8312056FFFDC
:10397000900990E024FFFDE434FFFC900992E0FB05
:10398000C3ED9BFDEC9400FC90098AE0FBA3E0FAF8
:10399000A3E0F98D828C8312056FC39F50037F01D2
:1039A00022900992E004F001987F0222120556FF4E
:1039B00090063DE4F0A3EFF0E0F8E4F0E890063D77
:1039C000F090000112056FFF90063DE0FEA3E04F6E
:1039D000FF90063DEEF0FEA3EFF022AE0490000152
:1039E000ED1205E1EE0205CF122B5B7B017A067921
:1039F0004E900653E0FCA3E0FDA3E0FEA3E0FF90A1
:103A000006C21208429006C612084E00000000903E
:103A100006C2E0FCA3E0FDA3E0FEA3E0FFA31208C2
:103A200042E49006CAF09006C6A3A3A3E0FFA3E079
:103A3000FDC374039DFDE494008D82F583EF1205B0
:103A4000E19006C6E0FCA3E0FDA3E0FEA3E0FF7862
:103A5000081207D29006C61208429006CAE004F087
:103A6000E0B404C22251739007851208427B017AA8
:103A700005798890089CEBF0A3EAF0A3E9F0A31283
:103A8000084E00000000E49008A3F090089FE0FCBE
:103A9000A3E0FDA3E0FEA3E0FF78081207E590088D
:103AA0009F12084290089FE0F8A3E0F9A3E0FAA370
:103AB000E0FBC000C001C002C00390089CE0FBA373
:103AC000E0FAA3E0F99008A3E0F5827583001205FF
:103AD0006FFFD003D002D001D000EB4FFFEAFEE928
:103AE000FDE8FC90089F1208429008A3E004F0E073
:103AF000B4049890089FE0FCA3E0FDA3E0FEA3E0DF
:103B0000FF22900785EBF0A3EAF0A3E9F0E4900729
:103B10008DF090078BE014FF90078BE0FEEFC39EC3
:103B2000400261F5900788E0FBA3E0FAA3E0F98F7B
:103B30008275830012056FFE90078DE02EFDE490E4
:103B4000078CF0EDC39E50037401F0E490078DF0F4
:103B5000900785E0FBA3E0FAA3E0F98F827583006C
:103B600012056FFE540FFCED540FFBECC39B503459
:103B7000EEC39D900785E0FB500E8F827583001287
:103B8000056FFEC3749A8037A3E0FAA3E0F98F8231
:103B900075830012056FC39D24FA8F82758300120E
:103BA00005E18044900785E0FBA3E0FAA3E0F98FEC
:103BB0008275830012056FFEC39D5015C374A09DCE
:103BC0002E8F827583001205E190078D7401F080BD
:103BD00017900785E0FBA3E0FAA3E02FF9E43AFA97
:103BE000120556C39D1205CF90078CE06004A374A4
:103BF00001F01F61182290076AEBF0A3EAF0A3E935
:103C0000F0AB05A37401F0A312084E000000019070
:103C1000077212084E00000000E4900776F0EBD324
:103C200094005002A14EEB94054002A14EEBF0909F
:103C30000776E0D394005002A14E900772E0F8A3FB
:103C4000E0F9A3E0FAA3E0FBC000C001C002C0039A
:103C500090076AE0FBA3E0FAA3E0F9900776E0FFA3
:103C60007E00E92FF9EE3AFA90FFFF12056F540F2C
:103C700075F00A84AFF0E4FCFD90076EE0F8A3E075
:103C8000F9A3E0FAA3E0FB120696D003D002D0011C
:103C9000D000EB2FFFEA3EFEE93DFDE83CFC90073B
:103CA0007212084290076EE0FCA3E0FDA3E0FEA3C1
:103CB000E0FFE47B0AFAF9F812069690076E120804
:103CC00042900772E0F8A3E0F9A3E0FAA3E0FBC09A
:103CD00000C001C002C00390076AE0FBA3E0FAA3A2
:103CE000E0F9900776E0FF7E00E92FF9EE3AFA90CE
:103CF000FFFF12056F54F0C4540FFFE4FCFD900762
:103D00006EE0F8A3E0F9A3E0FAA3E0FB120696D078
:103D100003D002D001D000EB2FFFEA3EFEE93DFDCB
:103D2000E83CFC90077212084290076EE0FCA3E0AA
:103D3000FDA3E0FEA3E0FFE47B0AFAF9F812069681
:103D400090076E120842900776E014F0812F9007DA
:103D500072E0FCA3E0FDA3E0FEA3E0FF2290078950
:103D6000EBF0A3EAF0A3E9F090078E120842900767
:103D70008CE0A3F090078DE0D394005002C14DE495
:103D80007B0AFAF9F8A3E0FCA3E0FDA3E0FEA3E0C0
:103D9000FF120721AF03900789E0FBA3E0FAA3E03D
:103DA000F990078DE0FD7C00E92DF9EC3AFA90FFDF
:103DB000FFEF1205E190078EE0FCA3E0FDA3E0FE1B
:103DC000A3E0FFE47B0AFAF9F812072190078E12AC
:103DD0000842900789E0FBA3E0FAA3E0F990078D81
:103DE000E0FF7E00E92FF9EE3AFAE924FFF9EA3420
:103DF000FFFAC003C002C001120556FFC007E47BF2
:103E00000AFAF9F890078EE0FCA3E0FDA3E0FEA318
:103E1000E0FF120721AF03EFC454F0FED0E04ED014
:103E200001D002D0031205CF90078EE0FCA3E0FD85
:103E3000A3E0FEA3E0FFE47B0AFAF9F81207219061
:103E4000078E12084290078DE014F0A17422C0E0A2
:103E5000C0F0C083C082C0D075D000C000C002C016
:103E600003C004C005C006C007ABA775A70075B79F
:103E700055AAB675B700E5E830E43475E80090005F
:103E80000AE090000930E205E004F0800EE0FF90C7
:103E90000008E02FF0E004F0A3E4F090FFE1E0443C
:103EA00010F05390EF9004E712084E0000000075E8
:103EB000B755AF028FB675B700AF038FA7D007D045
:103EC00006D005D004D003D002D000D0D0D082D00C
:103ED00083D0F0D0E032C0D075D000C006C007AFAC
:103EE000A775A70075B755AEB675B70053A8F753B9
:103EF000883F75B7558EB675B7008FA7D007D00627
:103F0000D0D032C0E0C0F0C083C082C0D075D00035
:103F1000C000C001C002C003C004C005C006C00785
:103F20009005F4E5A7F075A70075B7559005F3E582
:103F3000B6F075B7005388DF758AC0758CE0E5C7A9
:103F400030E60790052CE04402F0E47F50FEFDFCD3
:103F50009004E7E0F8A3E0F9A3E0FAA3E0FBC312C2
:103F600007C150439004E7E0FCA3E0FDA3E0FEA3FB
:103F7000E02401FFE43EFEE43DFDE43CFC9004E768
:103F8000120842E47F50FEFDFC9004E7E0F8A3E055
:103F9000F9A3E0FAA3E0FBC31207C1400A90FFE1D6
:103FA000E04410F04390109004ADE0FCA3E0FDA3CA
:103FB000E0FEA3E0FFA312084274FFFFFEFDFC90A9
:103FC00004ADE0F8A3E0F9A3E0FAA3E0FBC3120715
:103FD000C19004AD501EE0FCA3E0FDA3E0FEA3E011
:103FE0002401FFE43EFEE43DFDE43CFC9004AD1200
:103FF0000842800712084E0000000075B755900572
:10400000F3E0F5B675B700A3E0F5A7D007D006D06A
:1040100005D004D003D002D001D000D0D0D082D0BF
:1040200083D0F0D0E032C0D075D000C006C007AF5A
:10403000A775A70075B755AEB675B70053A8DF537F
:10404000C83375B7558EB675B7008FA7D007D006A1
:10405000D0D032C0D075D000C006C007AFA775A7BA
:104060000075B755AEB675B70053A8BF53C11F75DD
:10407000B7558EB675B7008FA7D007D006D0D0320F
:10408000C0D075D000C006C007AFA775A70075B730
:1040900055AEB675B70053A9FE75B7558EB675B750
:1040A000008FA7D007D006D0D032C0E0C083C08236
:1040B000C0D075D000C006C007AFA775A70075B700
:1040C00055AEB675B70090FFB6E4F090FFB7F05369
:1040D000A9FD75B7558EB6F5B78FA7D007D006D016
:1040E000D0D082D083D0E032C0D075D000C006C01E
:1040F00007AFA775A70075B755AEB675B70053A93A
:10410000DF75C60075B7558EB675B7008FA7D00797
:10411000D006D0D032C0E0C083C082C0D075D000FD
:10412000C004C006C007ACA775A70075B755AEB6EA
:1041300075B70090FFD0E054FCF053A9FD75B7555A
:10414000AF068FB675B700AF048FA7D007D006D0E3
:1041500004D0D0D082D083D0E032900695EFF0A387
:10416000EBF0A3EAF0A3E9F0789A7C067D017BFFEF
:104170007A1279267E007F641205309006FE740163
:10418000F0A37406F0A3749AF0A37401F09006995A
:10419000E0FF601F9009D87401F0A37406F0A374C7
:1041A0009AF0A3EFF0900696E0FBA3E0FAA3E0F903
:1041B00012224D900695E0FF7B017A06799A7D01E7
:1041C000122830EF7004900701F0900701E0FF2201
:1041D0009006997415F0E4FF808090068CEBF0A3B4
:1041E000EAF0A3E9F0A37401F078907C06FD7BFF70
:1041F0007A13792F7E007F051205309009D874015B
:10420000F0A37406F0A37490F090068FE09009DBA1
:10421000F090068CE0FBA3E0FAA3E0F912224D7BBC
:10422000017A0679909006997401F0FF215A900660
:1042300038EFF0A3EDF0A3EBF0A3EAF0A3E9F078F8
:104240003D7C067D017BFF7A1379347E007F23124B
:1042500005309009D87401F0A37406F0A3743DF002
:10426000900639E09009DBF090063AE0FBA3E0FA13
:10427000A3E0F912224D900638E0FF7B017A06791F
:104280003DA3E0900699F0215A900638EBF0A3EA9E
:10429000F0A3E9F0A37401F0783C7C06FD7BFF7A83
:1042A0001379167E007F191205307B017A06793C5E
:1042B000122F2690063BEFF07022900638E0F9A30B
:1042C000E0FAA3E09009D8C9F0A3EAF0A3E9F0A3CB
:1042D000740CF07B017A06794212224D90063BE085
:1042E000FF22900246E0FF64026004EFB403037F04
:1042F00001227F0022900DD47401F022900DD0E4B1
:10430000F0900DD1E4F090FFE8E0FFEF4480FF90E3
:10431000FFE8EFF090FFE8E0FFEF54BFFF90FFE809
:10432000EFF053EC7F900DD1E4F0900DD1E0FFEF72
:10433000C39408503351F5900DD0E0FFEF25E0FF16
:10434000900DD0EFF043EC80E5EC30E60E900DD010
:10435000E0FFEF4401FF900DD0EFF051F553EC7FFB
:10436000900DD1E004F080C290FFE8E0FFEF444000
:10437000FF90FFE8EFF043EC4043EC801200EC5379
:10438000EC7F900DD0E0FF22900DCEE4F0900DCFA9
:104390007408F090FFE8E0FFEF4480FF90FFE8EF43
:1043A000F090FFE8E0FFEF54BFFF90FFE8EFF0531D
:1043B000EC7F900DCFE4F0900DCFE0FFEFC39408B9
:1043C000503D51F5900DCEE0FFEF25E0FF900DCE72
:1043D000EFF043EC80E5EC30E60E900DCEE0FFEF21
:1043E0004401FF900DCEEFF051F5900DCEE0FF901F
:1043F0000DCEEFF053EC7F900DCFE004F080B8903D
:10440000FFE8E0FFEF4440FF90FFE8EFF053ECBF20
:1044100043EC801200EC53EC7F43EC40900DCEE077
:10442000FF2290FF84E0FFEF54FFFF90FF84EFF046
:1044300090FF85E0FFEF54FEFF90FF85EFF090FFC7
:10444000E9E0FFEF4401FF90FFE9EFF053EDFE22BA
:10445000912290FFE8E0FFEF4440FF90FFE8EFF08B
:1044600043EC4090FFE8E0FFEF4480FF90FFE8EF6F
:10447000F043EC801200EC53ECBF1200EC53EC7FE5
:1044800022900DCD74FFF0900DCCE4F0900DCDE0B6
:10449000FF900DCCE0FEEEC39F501591507FA0120F
:1044A0001F4EEF7003021D9F900DCCE004F080DCE6
:1044B00022900DB6740EF0900DB1EEF0A3EFF090D7
:1044C0000DB3EBF0A3EAF0A3E9F0900DB1E0FEA389
:1044D000E0FF900DB7EEF0A3EFF0900DB1E0FEA37A
:1044E000E0FFEF5407FFC374089FFF900DB9EFF092
:1044F000900DBAE4F0900DB9E0FF900DB6E0FEEE3D
:10450000C39F500A900DB6E0FF900DB9EFF0900DEB
:10451000B7E0FEA3E0FF900DB3E0FBA3E0FAA3E059
:10452000F9900DBAE0FD7C00E92DF9EA3CFA900D16
:10453000B9E0FD900D9FEDF0121E08EFB401037F6E
:104540000122900DB9E0FF900DBAE02FF0900DBA66
:10455000E0FF7E00900DB1E0FCA3E0FDEF2DFFEE4B
:104560003CFE900DB7EEF0A3EFF0900DBAE0FF9097
:104570000DB6E0FEC3EE9FFF900DB9EFF0900DB9C0
:10458000E0FFEFD394084006900DB97408F0900D49
:10459000B9E0FFEF6002A10E7F0022900DBBEEF0AC
:1045A000A3EFF0900DBDEDF0900DBEEBF0C2AF901B
:1045B0000DBDE0FF8FEF900DBBE0FEA3E0FFEF54D9
:1045C000FFF5EE900DBBE0FEA3E0FFEEFF7E008F57
:1045D000F775A70175F26E75F30575F40A75F5099F
:1045E000900DBEE0FFEFB4680775F606000000000E
:1045F00075A70075F700D2AF2290098FE4F0A3747D
:1046000072F07F007E0D90098AEEF0A3EFF0A3EB2D
:10461000F0A3EAF0A3E9F075E75575C7840000E55B
:10462000C730E6037FFF2290053AE0646860037FAD
:10463000FF2290098FE0FEA3E0FF90098BE02FFF9F
:1046400090098AE03EFED3EF9400EE941040037F81
:10465000FF22D3900990E0940090098FE0940040ED
:104660004590098CE0FBA3E0FAA3E0F9120556FCA3
:1046700090098AE0FEA3E0FFAD047B68B19B90093E
:104680008BE004F0700690098AE004F090098DE454
:1046900075F00112066A900990E024FFF090098FEE
:1046A000E034FFF080AC7F00228F828E83E4FFED48
:1046B000B4680DC2AF75A701E493FFE4F5A7D2AFCC
:1046C0002290053AE04420F07B017A07798A90072E
:1046D00086E0FCA3E0FD90098F7402F0A3E4F09063
:1046E000098DECF0A3EDF075E75575C7840000E582
:1046F000C730E6037FFF2290098FE0FEA3E0FF9022
:10470000098EE02FFF90098DE03EFED3EF9400EE7E
:10471000941040037FFF22D3900990E09400900909
:104720008FE09400403590098DE0FEA3E0FF7D68A6
:10473000D1A9EF1205CF740129F9E43AFA90098E54
:10474000E004F0700690098DE004F0900990E024F8
:10475000FFF090098FE034FFF080BC7F00229005CD
:104760003AE04408F07B68E4FDFF7E0CF1757B685D
:10477000E4FDFF7E0D900DBFEEF0A3EFF0900DC1B4
:10478000EDF0900DC2EBF075E75575C7840000E5BC
:10479000C720E65590053AE0FFEF6468704BC2AF62
:1047A000900DC1E0FF8FEF900DBFE0FEA3E0FFEFA3
:1047B00054FFF5EE900DBFE0FEA3E0FFEEFF7E009C
:1047C0008FF775A70175F2E675F30575F40A75F5AF
:1047D00009900DC2E0FFEFB4680775F6060000000F
:1047E0000075A70075F700D2AF2290FFE5E054FBFB
:1047F000F090FFF5E04404F02290FFE1E054FEF079
:1048000090FFF1E04401F0221247EAE5E920E229B5
:104810009004A4E004F070069004A3E004F0C390B8
:1048200004A4E094FA9004A3E09400401AE4F0A3F6
:10483000F0900536E04401F022E49004A3F0A3F0E8
:10484000900536E054FEF0221247F9900537E0302B
:10485000E215E59030E00201E8E04401F0E054FBAD
:10486000F0E4900458F022900537E030E061E590E4
:1048700020E06A900458E004F0E0FF7408D39F50F1
:1048800067900537E04402F0E054FEF0E4900458ED
:10489000F0900535E04408F090045412084E0000F2
:1048A000003C90044C741EF0900459E0700B90048E
:1048B00060F09004597468F022900460E004F09075
:1048C000040BE0FF900460E0C39F401CE4F02290E2
:1048D0000537E030E107E59030E00D8000E490041A
:1048E00058F09005377404F022EF1460210470240E
:1048F00031567FFF311543D18090FFE1E04408F04D
:104900005390F790FFE9E04402F053EDFD22315659
:10491000E4FF311522E4FE74612EF582E43404F5DF
:1049200083EFF00EEEB428EF7F007E25E4FD746186
:104930002DF582E43404F583E0FCEF2DF582E43EAE
:10494000F583ECF074612DF582E43404F583E4F032
:104950000DEDB428D92253D17F317A90FF8074F0C5
:10496000F090FF817403F090FF8274FEF090FF835B
:104970007401F090FF8574FCF022E5D1547064302E
:10498000600653D18F43D130E5D1540764076006E8
:1049900053D1F843D107E5D254076402600653D2DD
:1049A000F843D202225380FD000043800453807FED
:1049B000229004A7E0601EE014F0E0FF7E00BE023B
:1049C00005BF400231D89004A7E0FF7E00BE01077A
:1049D000BF900480D031D8225380FD005380FB5318
:1049E000807F2243800200005380FB43808022901E
:1049F00007A2E0FD9007ABEDF0E4FF7E08EF25E0B5
:104A0000FFEE7C0024FFF582EC34FFF58312056F86
:104A1000FD9007ABE05D60010FDEE22290079EEBA8
:104A2000F0A3EAF0A3E9F09007A27440F0E4900745
:104A3000A1F09007A1E0FFC394085036EFB404043E
:104A4000A37480F090079EE0FBA3E0FAA3E0F931A5
:104A5000EF9007A1E024A3F582E43407F583EFF09B
:104A60009007A2E0FF1313543FF09007A1E004F079
:104A700080C090079EE0F9A3E0FAA3E09009D8C9AE
:104A8000F0A3EAF0A3E9F0A37408F07B017A0779B8
:104A9000A302224D9007B474FFF0A3740AF0A3742C
:104AA000EDF0A374FFF0A3740BF0A37425F0A374CE
:104AB00007F09007B1EBF0A3EAF0A3E9F0E4F520EA
:104AC0009007BB04F09007BAE075F008A42401FF3A
:104AD000E435F0FEA3E0FDC39FEE6480F874809897
:104AE000507DE52025E0F520EDFF7E0024FFFDEE62
:104AF00034FFFC9007B4E0FBA3E0FAA3E0F98D8259
:104B00008C8312056FFD9007B1E0FBA3E0FAA3E0F0
:104B1000F98D8275830012056FFDEF24FFFFEE34DF
:104B2000FFFE9007B7E0FBA3E0FAA3E0F98F828EC7
:104B30008312056F5D600205209007BBE0FF5407FC
:104B40007015EF131313541F24BBF582E43407F5DB
:104B500083E520F0E4F5209007BBE004F041C59028
:104B600007B1E0F9A3E0FAA3E09009D8C9F0A3EAFD
:104B7000F0A3E9F09007BAE09009DBF07B017A0737
:104B800079BC02224D90079EEBF0A3EAF0A3E9F076
:104B90002404F9E43AFA9009D87401F0A37407F0F8
:104BA000A374A5F0A37404F012224D9007B474FF0F
:104BB000F0A3740BF0A374FDF0A374FFF0A3740BC7
:104BC000F0A374CDF0A37406F07B017A0779A551A8
:104BD000B2E49007A4F09007A4E0FF24A5F582E4D6
:104BE0003407F583C083C082E0FE9007A1E0FBA3F9
:104BF000E0FAA3E0F98F8275830012056FFFEE6F74
:104C0000D082D083F09007A4E004F0E0B406C7E4BB
:104C10009007A4F09007A4E0FFC394024002A13CD7
:104C2000E0FE75F003A424A5F582E43407F583E0E3
:104C3000FDC45430FCEE75F003A424A6F582E434E0
:104C400007F583E0C4540F4CF520ED1313543FFED9
:104C50009007A4E0FD75F000A4246DF582E5F03422
:104C60000CF583ED2583F583E5822EF582E435830B
:104C7000F583E493FE75F000EDA424ADF582E5F034
:104C8000340CF583ED2583F583E5822520F582E458
:104C90003583F583E493FDEE4DFE9007A4E0FD25FA
:104CA000E024ADF582E43407F583EEF0ED75F00312
:104CB000A424A6F582E43407F583E025E025E0543A
:104CC0003FFEED75F003A424A7F582E43407F583D5
:104CD000E0FDC4131354034EF520ED543FFE90073E
:104CE000A4E0FD75F000A4242DF582E5F0340DF567
:104CF00083ED2583F583E5822EF582E43583F58304
:104D0000E493FE75F000EDA424EDF582E5F0340C9B
:104D1000F583ED2583F583E5822520F582E435834F
:104D2000F583E4934EFEEF25E024AEF582E43407EC
:104D3000F583EEF09007A4E004F081149007B474BA
:104D4000FFF0A3740CF0A3744DF0A374FFF0A374F0
:104D50000CF0A3742DF0A37404F07B017A0779ADF5
:104D600051B2E49007A4F09007A4E0FFC39404506C
:104D70005B7E00EF2404FDEE33FC90079EE0FBA376
:104D8000E0FAA3E0F98D828C8312056FF52090077D
:104D9000A4E0FDF58275830012056FFC74AD2DF55E
:104DA00082E43407F583E06CFD74042FF582E4336C
:104DB000F583ED1205E19007A4E0F582758300E527
:104DC000201205E19007A4E004F0809B2290079E4A
:104DD000EBF0A3EAF0A3E9F0A3EDF012055690077B
:104DE000A2F090000112056F9007A3F0900002124C
:104DF000056F9007A4F090000312056F54F0900720
:104E0000A5F0BD02339007A2E0FCA3E0FDA3E0FE05
:104E1000A3E0FF78011207E59007A212084290076D
:104E20009EE0FBA3E0FAA3E0F912055630E74490B8
:104E300007A5E04410F0803B9007A2E0FCA3E0FD52
:104E4000A3E0FEA3E0FF78011207D29007A21208A8
:104E5000429007A5E054F0F090079EE0FBA3E0FA33
:104E6000A3E0F990000312056F30E4079007A2E079
:104E70004480F090079EE0FBA3E0FAA3E0F99000E5
:104E80000312056F540F9007A6F090000412056FEF
:104E90009007A7F090000512056F9007A8F090000A
:104EA0000612056F9007A9F09007A1E06402703D1B
:104EB0009007A6E0FCA3E0FDA3E0FEA3E0FF7801DD
:104EC0001207E59007A61208429007A6E0540FF0DB
:104ED00090079EE0FBA3E0FAA3E0F990000312051F
:104EE0006F30E33D9007A9E04401F080349007A6BD
:104EF000E0FCA3E0FDA3E0FEA3E0FF78011207D2EF
:104F00009007A612084290079EE0FBA3E0FAA3E0F8
:104F1000F990000612056F30E0079007A6E04408FC
:104F2000F09007A5E0FFA3E0FEEF4E9007A5F090FC
:104F300007A7E09007A6F09007A8E09007A7F090D9
:104F400007A9E09007A8F090079EE0F9A3E0FAA374
:104F5000E09009D8C9F0A3EAF0A3E9F0A37407F040
:094F60007B017A0779A202224DBF
:10800000EF14602104703BE5876003E4F587539823
:10801000F74398C0E4FF11D690077BE599F0539899
:10802000EC43A81022E5876003E4F58753D8F343B7
:10803000D8C07F0111D690077BE5D9F053D8EC4327
:10804000A90422EF14605104600201D5E5876003A2
:10805000E4F587E598440860035398F7E59854C021
:1080600064C060034398C090FFE2E054BFF090FF0B
:10807000F2E054BFF090FFE2E04480F043A080E4DF
:10808000FF11D6E4FF120191900614E599F0539880
:10809000FC43981043A81022E5876003E4F587535A
:1080A000D8F343D8C090FFE3E054FEF090FFF3E034
:1080B00054FEF090FFE3E04402F043B0027F011170
:1080C000D67F01120191900614E5D9F053D8FC43F4
:1080D000D81043A90422EF14602C04704CE59D6471
:1080E000CC6003759DCCE59C647F6003759C7FE547
:1080F0009E540F64016006539EF0439E01E59C2050
:10810000E727439C8022E5DD64F3600375DDF3E53A
:10811000DC647F600375DC7FE59E54F06003539E52
:108120000FE5DC20E70343DC8022E4FF11437F01FD
:1081300011437F0211437F030143E4F5B1F5A8F534
:10814000A971C212991012A2BD129FAC517112B244
:10815000E35176312A315CD2AF7F002253957F53B1
:10816000A9FE71A67B017A0979E290098FE4F0A358
:108170007472F07D007C0C122D79EF603F122D6639
:10818000EF6039E490061CF090061CE0FBC3941CE1
:10819000502AEB25E025E024E8F582E43417F58346
:1081A000120832EB25E025E024E2F582E43409F5FB
:1081B0008312084290061CE004F080CC713B7B01E6
:1081C0007A067919900993E4F0A37403F0E4FD12A0
:1081D0002EE89006227408F0A37484F07B017A06DE
:1081E000791AFD7C081239DB7B017A0679197D0347
:1081F00051ACE490061CF090061CE0FFC3941C50A8
:108200003CEF25E025E024E2F582E43409F583E043
:10821000FCA3E0FDA3E0FEA3E0FF7B017A06791E4C
:108220001239FF90061EE0FF90061DF0FD7B017ADB
:1082300006791F51AC90061CE004F080BA7B017AED
:10824000067919900993E4F0A37403F0E4FD122E6B
:10825000E890062274F8F0A37484F07B017A067922
:108260001AFD7CF81239DB7B017A0679197D0380CF
:108270003BE4FF0248E9E5A820E00343A80175AA12
:108280001075AB20E4F5E822F583EF2583F583E054
:1082900090063CF07B017A06793A900639E0FDF1D0
:1082A0000B7B017A06793A900639E0FD900649ED9C
:1082B000F012055690064AF090000112056F9006E4
:1082C0004BF090000212056F90064CF012BF801226
:1082D0002B5B900649E04480FF122C2490064D74DD
:1082E00003F090064DE0FFD39400401A74039FFF03
:1082F000E49400FE744A2FF5827406122C1F900637
:108300004DE014F080DC122FDE90065312084EC9A7
:108310000000001239E8E4900652F0900652E0FFA7
:10832000C394045013744E2FF582E43406122C20AB
:10833000900652E004F080E3022FDE7B017A06799A
:1083400041122EDD90064074C3F07B017A0679411C
:10835000FD51AC7F197E00122C997F19122B7512DA
:108360002B5BE4900645F0900645E0FFC3940B506C
:1083700034EF25E025E02458F582E43418F5831223
:1083800008327B017A0679411239FF900641E0FFFD
:10839000900640F0FD7B017A06794251AC9006458B
:1083A000E004F080C2227B017A067924122EDD7F60
:1083B000D37B017A0679247DD351AC7F01122B75D2
:1083C000613B53A9DF75E755E4F5C675E755F5C779
:1083D00075E75575C78475E75575B30175E755F5AC
:1083E000B412B82EBF010271F7E5C730E6037F0172
:1083F0002253A9DF7F002275B10702000090062DED
:10840000EFF0E4900637F090062DE0FF75F0A7A49A
:10841000248CF582E5F03401F583EF2583F583E0C4
:10842000FFE4FCFDFE900633120842900633E0F8AC
:10843000A3E0F9A3E0FAA3E0FBC00090062DE0FF63
:1084400075F0A7A4248DF582E5F03401F583EF25BE
:1084500083F583E0FFE4FCFDFE78081207E5D00019
:10846000EB4FFFEA4EFEE94DFDE84CFC900633125F
:108470000842900633E0F8A3E0F9A3E0FAA3E0FB9A
:10848000C00090062DE0FF75F0A7A4248EF582E5CC
:10849000F03401F583EF2583F583E0FFE4FCFDFE76
:1084A00078101207E5D000EB4FFFEA4EFEE94DFDD4
:1084B000E84CFC900633120842900633E0F8A3E043
:1084C000F9A3E0FAA3E0FBC00090062DE0FF75F0F1
:1084D000A7A4248FF582E5F03401F583EF2583F519
:1084E00083E0FFE4FCFDFE78181207E5D000EB4FB7
:1084F000FFEA4EFEE94DFDE84CFC900633120842BF
:1085000090062DE0FF75F0A7A4248CF582E5F034E9
:1085100001F583EF2583F583E0900632F075F0A72F
:10852000EFA4248AF582E5F03401F583EF2583F585
:1085300083E0B42E0C90062DE012C2BB900637EFFC
:10854000F090062DE0FF75F0A7A4248AF582E5F0EF
:108550003401F583EF2583F583E0642F6002C10ABF
:10856000FE7C017DA712060374982FF974013EFA70
:108570007B01C00390098DEBF0A37406F0A3742E69
:10858000F0A37404F0D0031235D290062DE0FF75ED
:10859000F0A7A4248EF582E5F03401F583EF25835E
:1085A000F583E0601C14605214604524FB600304F2
:1085B00070527B017A06792E900632E0FD51AC8034
:1085C0004990062DE0FF75F0A7A4248CF582E5F014
:1085D0003401F583EF2583F583E014600A047024E9
:1085E0007E0012C00C802390062DE0FFD110801A6F
:1085F00090062DE0FF12C2AC801090062DE0FF1215
:10860000C0A580069006377401F0900637E0FF227F
:10861000900638EFF0A37437F0E4A3F0900638E04A
:10862000FF75F0A7A424C1F582E5F03401F583EFCE
:108630002583F583E090063BF075F0A7EFA424C0F6
:10864000F582E5F0340151889006397460F0E4A3B6
:10865000F0900638E0FF75F0A7A424C5F582E5F098
:108660003401F583EF2583F583E090063BF075F048
:10867000A7EFA424C4F582E5F034015188900639AF
:108680007436F0E4A3F0900638E0FF75F0A7A42458
:10869000ADF582E5F03401F583EF2583F583E090B5
:1086A000063BF075F0A7EFA424ACF582E5F03401A9
:1086B0005188900639741EF0E4A3F0900638E0FF6C
:1086C00075F0A7A4249DF582E5F03401F583EF252C
:1086D00083F583E090063BF075F0A7EFA4249CF5AA
:1086E00082E5F03401F583EF2583F583E090063CC5
:1086F000F07B017A06793A900639E0FDF10B7B01B7
:108700007A06793A900639E0FD41AC900649EDF0E1
:1087100012055690064AF090000112056F90064B24
:10872000F090000212056F90064CF090053AE0447C
:1087300040F0E490064DF090064DE0FFC3941C40DD
:1087400003028834EF25E025E024E8F582E43417BD
:10875000F5831208327B017A06794E1239FF9006B2
:1087600049E0FD90064EE06D600302882B90053ACB
:10877000E04420F090064EEDF09009D87401F0A38B
:108780007406F0A3744FF0A37403F07B017A0679AA
:108790004A12224D7B017A0A796590098FE4F0A391
:1087A0007472F07D007C0C1246DF90064DE075F08F
:1087B00004A42465F9740A35F0FA9009D87401F01C
:1087C000A3EAF0A3E9F0A37404F07B017A06794EE2
:1087D00012224D9009D87401F0A37409F0A374E239
:1087E000F0A37470F07B017A0A796512224D7B0147
:1087F0007A0979E27D707C00121C16900A52EEF024
:10880000A3EFF012475E7B017A0979E290098FE4C9
:10881000F0A37472F07F007E0C1246067B017A0989
:1088200079E21245F9E490053AF02290064DE00411
:10883000F0028737227B017A0479EB900993E4F008
:10884000A3740AF0E4FD122EE87B017A0479EBE4CC
:10885000FDFFFE1219F37B017A007908900993E479
:10886000F0A37408F0E4FD122EE87B017A00790091
:10887000900993E4F0A37408F0E4FD122EE87B0164
:108880007A0579BF900993E4F0A3741AF0E4FD121D
:108890002EE8E4900785F0900785E0FDC3940D5025
:1088A000277B017A0079087F0C7E001219F390076C
:1088B00085E0FD7B017A0079007F0D7E001219F3BF
:1088C000900785E004F080CF90000EE0900786F0DE
:1088D000F4A3F0900006E0900788F0F4A3F07B0189
:1088E0007A077986E4FD7F0EFE1219F37B017A0583
:1088F0007988900993E4F0A3740CF0E4FD122EE85B
:108900007B017A057922122EDD7B017A0579261208
:108910002EDD7B017A057988121C12900594EEF009
:10892000A3EFF07B017A057988E4FD7F02FE12193E
:10893000F37B017A05791EE4FD7F04FE1219F3E44E
:10894000900785F0900785E0FFC39404501EEF75F3
:10895000F00EA4245AFFE5F03401FE7B017A05797C
:10896000881244B1900785E004F080D890052DE08E
:1089700030E0127B017A0579D9122EDDE4900010E7
:10898000F0900580F07B017A0579DD122EDD7B0108
:108990007A0579E1122EDD7B017A0579E5122EDD6B
:1089A0007B017A0579E9122EDD7B017A0579ED12DA
:1089B0002EDD7B017A0579D97D187C00121C16907A
:1089C00005F1EEF0A3EFF07B017A0579D9E4FD7FA4
:1089D00018FE1219F37B017A007911900993E4F0E3
:1089E000A37405F0E4FD122EE87B017A0079107D76
:1089F000067C00121C16900016EEF0A3EFF07B012F
:108A00007A057981900993E4F0A37405F0E4FD12EE
:108A10002EE87B017A0579807D067C00121C169079
:108A200005861219E37B017A057980E4FD7F17FE44
:108A30001219F3E490052FF07B017A05792FFD7F61
:108A40000FFE1219F3E4900533F0900532E0542044
:108A5000F0221249E39004A77458F07B017A0D7953
:108A600072900993E4F0A37404F07DFF122EE87F66
:108A700004900785EFF012BC5D900785E0FB75F070
:108A800005A424C5F582E43400F583E493FC740165
:108A900093FD900786ECF0A3EDF02400FEEC34018A
:108AA000A3F0A3CEF090053AE04440F0EB640260FE
:108AB0000281A5900532E030E40281A51246C19002
:108AC0000785E0FF75F005A424C7F582E43400F5BE
:108AD00083E493FE74802FF582E43405F583E08E01
:108AE000F0A4248AF9740735F0FA7B01C0039009D9
:108AF000D8EBF0A3740DF0A3742EF0900785E07509
:108B0000F005A424C7F582E43400F583E4939009CA
:108B1000DBF0D00312224D90098D7401F0A3740D87
:108B2000F0A3746EF0A37404F0A37455F07B017A83
:108B30000D792E123888EF6402700281019009D8F5
:108B40007401F0A3740DF0A3742EF0A37404F07BF1
:108B5000017A0D796E12224D9009D87401F0A37438
:108B60000DF0A37432F0A37404F07B017A0D796ADE
:108B700012224D7B017A0D7936900993E4F0A374AB
