:020000040000FA
:08000000020E38023FB6222275
:0F000B00024053EF240A83900100730A2D5073B3
:03001B000240316F
:030023000229F3BC
:03002B0002416926
:0300330002418BFC
:03003B000241ADD2
:030043000241CCAB
:10004B00022B3EE4FFFE120556600C0FEF70010E03
:10005B0009E970F20A80EF220241FFE4FF121E58F9
:06006B001239D6021EA8A6
:10007300024221900A9E120A867810EC4D4E4F7070
:10008300047CA57DA5C3EC13FCED13FDEE13FEEF7D
:1000930013FF5010EC64CCFCED644CFDEE644EFE9B
:1000A300EF64CEFFD8DF900A9E120842EE547FFE23
:1000B30022900A9EEEF0EFA3F0A374A5F0A3F02222
:1000C300300100000C0333020012300004002C3412
:1000D3000006000E1D0008000C1E000A000C0002A2
:1000E300060A0E05020404040401020A0B090304B0
:0700F30001020A0B090304DE
:10010000C0087401C0E0C082C08375080AC0F085D1
:10011000A8F0C2AF75B75575B61175B70085F0A8D0
:10012000D0F022C0087401C0E0C082C08375082DE1
:10013000C0F085A8F0C2AF75B75575B61175B70098
:1001400085F0A8D0F022C0087401C0E0C082C0834E
:10015000750850C0F085A8F0C2AF75B75575B622C6
:1001600075B70085F0A8D0F022C0087401C0E0C0C7
:1001700082C083750873C0F085A8F0C2AF75B7550B
:1001800075B63375B70085F0A8D0F02290800021B5
:100190004690829821469084402146908CE22146E8
:1001A00090842621469083D1214690D45A214690AE
:1001B000D25421469092E2212390813A212390ABA0
:1001C0007C212390804321239080002123908F79EC
:1001D00021239097B8212390B92F2123908F4E216E
:1001E00023908C49212390918621239083B221234F
:1001F00090A3E1212390ABCE212300EC4D6011E8C8
:10020000497017ED33EC3304600DE4FCFFFEFD2272
:10021000E933E8330470F802044B12041658046002
:1002200009E4CC24815006285009020455284003D3
:10023000020452C0E0EB4A7044B98006D0E0FB02F1
:100240000441EF4E701CBD8008EBFFEAFEE9FD8023
:10025000EBE98DF0A4FEE5F00202E4E9CDF9EAFE57
:10026000EBFFEF89F0A4FCE5F0CE89F0A42EFFE4CB
:1002700035F0CD89F0A42DFEE435F08067EF4E70A7
:1002800005BD80D780C3EF8BF0A4ACF0EE8BF0A45B
:100290002CFCE435F0F8EF8AF0A42CE5F038FCE40F
:1002A00033CB8DF0A42CFCE5F03BF8EE8AF0A42CC7
:1002B000FCE5F038F8E433CF89F0A42CFCE5F03805
:1002C000CF3400CE89F0A42FFFE5F03EFEE433C921
:1002D0008DF0A42EFEE5F039CD8AF0A42FFFE5F0D5
:1002E0003EFEE43DFD33D0E0FB50070BBB000F02A8
:1002F0000455EC2CFCEF33FFEE33FEED33FD02042E
:100300002D020455EC5D046005E8590470030204F5
:100310004B120416580460F6EC4860F2EC7004FDD1
:10032000FEFF22C860DB2481C85009C398600250D8
:10033000060204529850CAF582E9294B4A7005AB6F
:100340008202044175F0007C1A7880C3EF9BEE9A1C
:10035000ED99400DC3EF9BFFEE9AFEED99FDE8424B
:10036000F0DC23ACF0D0E0FFD0E0FED0E0FDAB82CB
:1003700020E7101BEB60BAEC2CFCEF33FFEE33FEF2
:10038000ED33FD02042DE803F830E705C0F075F009
:1003900000EF2FFFEE33FEED33FD40B830E7C280B3
:1003A000AA75F020800E75F010800575F0087D00AC
:1003B0007E007F003392D530D5031207B3EC334073
:1003C00010EF33FFEE33FEED33FDEC33FCD5F0EDF3
:1003D00022E5F0247EA2D513CC92E7CDCEFF22ED0C
:1003E000D2E7CD33EC3392D524814006E4FFFEFD05
:1003F000FC22FCE4CFCECDCC24E0501174FF80ED84
:10040000C3CC13CCCD13CDCE13CECF13CF0470F00D
:1004100030D5DE0207B3E9D2E7C933E833F892D525
:10042000EDD2E7CD33EC33FC5002B2D522EC30E70D
:10043000100FBF000C0EBE00080DBD00040BEB60DA
:1004400014A2D5EB13FCED92E7FD2274FFFCFDFE38
:10045000FF22E480F8A2D574FF13FC7D80E480EFD6
:10046000E709F608DFFA8046E709F208DFFA803E7E
:1004700088828C83E709F0A3DFFA8032E309F6086B
:10048000DFFA8078E309F208DFFA807088828C83D3
:10049000E309F0A3DFFA806489828A83E0A3F60887
:1004A000DFFA805889828A83E0A3F208DFFA804C61
:1004B00080D280FA80C680D4806980F28033801038
:1004C00080A680EA809A80A880DA80E280CA8033A1
:1004D00089828A83ECFAE493A3C8C582C8CCC58319
:1004E000CCF0A3C8C582C8CCC583CCDFE9DEE780E9
:1004F0000D89828A83E493A3F608DFF9ECFAA9F068
:10050000EDFB2289828A83ECFAE0A3C8C582C8CCBD
:10051000C583CCF0A3C8C582C8CCC583CCDFEADED6
:10052000E880DB89828A83E493A3F208DFF980CC38
:1005300088F0EF60010E4E60C388F0ED2402B40431
:100540000050B9F582EB2402B4040050AF232345D8
:1005500082239004B073BB010689828A83E0225013
:1005600002E722BBFE02E32289828A83E49322BB54
:10057000010CE58229F582E5833AF583E0225006F5
:10058000E92582F8E622BBFE06E92582F8E222E5AB
:100590008229F582E5833AF583E49322BB010FF8C3
:1005A000E58229F582E5833AF583E028F0225009B7
:1005B000C58229F8E58226F622BBFE09C58229F804
:1005C000E22582F222F8EA2583F583E9932822BB0B
:1005D000010689828A83F0225002F722BBFE01F3D2
:1005E00022F8BB010DE58229F582E5833AF583E81F
:1005F000F0225006E92582C8F622BBFE05E92582D5
:10060000C8F222EF8DF0A4A8F0CF8CF0A428CE8DF4
:10061000F0A42EFE22BC000BBE0029EF8DF084FF5B
:10062000ADF022E4CCF875F008EF2FFFEE33FEECCE
:1006300033FCEE9DEC984005FCEE9DFE0FD5F0E9F5
:10064000E4CEFD22EDF8F5F0EE8420D21CFEADF0F4
:1006500075F008EF2FFFED33FD4007985006D5F0F9
:10066000F222C398FD0FD5F0EA22C5F0F8A3E028E6
:10067000F0C5F0F8E582158270021583E038F022AB
:10068000A3F8E0C5F025F0F0E5821582700215832D
:10069000E0C838F0E822E88FF0A4CC8BF0A42CFC62
:1006A000E98EF0A42CFC8AF0EDA42CFCEA8EF0A4D8
:1006B000CDA8F08BF0A42DCC3825F0FDE98FF0A467
:1006C0002CCD35F0FCEB8EF0A4FEA9F0EB8FF0A45E
:1006D000CFC5F02ECD39FEE43CFCEAA42DCE35F09A
:1006E000FDE43CFC2275F008758200EF2FFFEE332D
:1006F000FECD33CDCC33CCC58233C5829BED9AEC95
:1007000099E58298400CF582EE9BFEED9AFDEC99FE
:10071000FC0FD5F0D6E4CEFBE4CDFAE4CCF9A88208
:1007200022B800C1B90059BA002DEC8BF084CFCEAD
:10073000CDFCE5F0CBF97818EF2FFFEE33FEED336B
:10074000FDEC33FCEB33FB10D703994004EB99FB32
:100750000FD8E5E4F9FA227818EF2FFFEE33FEED1B
:1007600033FDEC33FCC933C910D7059BE99A400728
:10077000EC9BFCE99AF90FD8E0E4C9FAE4CCFB223F
:1007800075F010EF2FFFEE33FEED33FDCC33CCC808
:1007900033C810D7079BEC9AE899400AED9BFDEC13
:1007A0009AFCE899F80FD5F0DAE4CDFBE4CCFAE452
:1007B000C8F922C3E49FFFE49EFEE49DFDE49CFC97
:1007C00022EB9FF5F0EA9E42F0E99D42F0E89C455D
:1007D000F022E8600FECC313FCED13FDEE13FEEF07
:1007E00013FFD8F122E8600FEFC333FFEE33FEEDC5
:1007F00033FDEC33FCD8F122BB010789828A8302E6
:100800000A865005E9F8020A7ABBFE05E9F8020AF1
:100810009289828A83020832BB010789828A830215
:1008200008425005E9F8020A9EBBFE05E9F8020AF3
:10083000AA22E493FC740193FD740293FE74039363
:10084000FF22ECF0A3EDF0A3EEF0A3EFF022A882DC
:100850008583F0D083D0821208651208651208657E
:10086000120865E473E493A3C583C5F0C583C8C5C6
:1008700082C8F0A3C583C5F0C583C8C582C822D08D
:1008800083D082F8E4937012740193700DA3A39344
:10089000F8740193F5828883E4737402936860EFBF
:1008A000A3A3A380DFD083D082E49370127401935A
:1008B000700DA3A393F8740193F5828883E4737495
:1008C00002936C70127403936D700C7404936E70C9
:1008D000067405936F60DDA3A3A3A3A3A380CAE35B
:1008E000F5F009E208B5F06D606B80F3E3F5F0090F
:1008F000E608B5F060605E80F387F009E608B5F0C1
:1009000054605280F487F009E208B5F048604680F0
:10091000F488828C8387F009E0A3B5F038603680D4
:10092000F488828C8387F009E493A3B5F0276025CF
:1009300080F388828C83E3F5F009E0A3B5F01660BC
:100940001480F388828C83E3F5F009E493A3B5F077
:1009500004600280F2020A0A808580E7808E80D2DD
:10096000803C8015806C807E809B80B5808B80A1D0
:10097000804F8070803A020A1689828A83ECFAE4FA
:1009800093F5F0A3C8C582C8CCC583CCE493A3C8B3
:10099000C582C8CCC583CCB5F070606E80E1898219
:1009A0008A83E493F5F0A3E208B5F05E605C80F220
:1009B00089828A83E0F5F0A3E608B5F04D604B80AC
:1009C000F389828A83E0F5F0A3E208B5F03C603A4F
:1009D00080F389828A83E493F5F0A3E608B5F02AD0
:1009E000602880F2805389828A83ECFAE493F5F0E0
:1009F000A3C8C582C8CCC583CCE0A3C8C582C8CC77
:100A0000C583CCB5F004600280E27FFFB5F0020F31
:100A10002240027F012289828A83ECFAE0F5F0A36A
:100A2000C8C582C8CCC583CCE0A3C8C582C8CCC524
:100A300083CCB5F0D560D380E389828A83ECFAE079
:100A4000F5F0A3C8C582C8CCC583CCE493A3C8C5C0
:100A500082C8CCC583CCB5F0B160AF80E288F0ED40
:100A60002402B4040050A3F582EB2402B404005025
:100A700099232345822390095873E6FC08E6FD0874
:100A8000E6FE08E6FF22E0FCA3E0FDA3E0FEA3E013
:100A9000FF22E2FC08E2FD08E2FE08E2FF22ECF69B
:100AA00008EDF608EEF608EFF622ECF208EDF20893
:100AB000EEF208EFF22254544D3A4144562D4F4E77
:100AC0000D0A0054544D3A5343414E2D4F4E0D0ADA
:100AD0000054544D3A434F4E4E454354494E470DF2
:100AE0000A0054544D3A434F4E4E45435445440D2D
:100AF0000A0054544D3A424C455F49444C450D0A56
:100B00000054544D3A4552500D0A0054544D3A4F3A
:100B10004B0054544D3A45525000535441540045F3
:100B200041445600444144560044434F4E004D4119
:100B3000432D3F004D41432D00444E4D2D3F00526B
:100B4000454E2D0054504C2D0054504C2D3F005418
:100B5000544D3A0D0A00FF0B1A000000001000016E
:100B6000FF0B1FFF0B0B00000002FF0B24FF0B0B02
:100B700000000003FF0B29FF0B0B00000008FF0B18
:100B80002E000000000C0809FF0B34FF0B0B0C00BB
:100B9000000AFF0B39000000000C080BFF0B3FFFA1
:100BA0000B0B0C000010FF0B44FF0B0B050000119A
:100BB000FF0B4900000000050800000000000000D5
:100BC0000000000000000000000000000000000025
:100BD0000000000000000000000000000000000015
:100BE0000000000000000000000000000000000005
:100BF00000000000000000000000000000000000F5
:100C000000000000000000000000000000000000E4
:100C100000000000000000000000000000000000D4
:100C200000000000000000000000000000000000C4
:100C300000000000000000000000000000000000B4
:100C400000000000000000000000000000000000A4
:100C50000000000000000000000000000000000094
:100C60000000000000000000000000000000000084
:100C70000000000000000000000000000000000074
:100C80000000000000000000000000000000000064
:100C90000000000000000000000000000000000054
:100CA0000000000000000000000000000000000044
:100CB0000000000000000000000000000000000034
:100CC0000000000000000000000000000000000024
:100CD0000000000000000000000000000000000014
:100CE000000000000060240A41303F3106325B33CF
:100CF0004F3466356D367D3707387F396F4177421F
:100D00007C4339553E4930507346714F3F4C08BDC6
:100D1000211E1F20252223243835363751083A0159
:100D20000203040D0E0F2B10111213141516171CAD
:100D30004708C90A0F19326496C860E008D000005D
:100D400000000A0A0000000101000A0A0001000276
:100D5000000A0E0E00000003010A0E0E000100043E
:100D600000180E0E0000000501180E0E000100060E
:100D700000261616000000070126161600010008BE
:100D8000003C060E00000009013C060E0001000AAE
:100D9000004A10100000000B014A10100001000C66
:100DA000005A0D010101000D00670D010101000E47
:100DB000007404040101000F007803030001001017
:100DC000007B1B1B00010011009619190001001285
:100DD00000AF0B0B0001001300BA1010010100144A
:100DE00000CA06060001001500D005050101001625
:100DF00000D508080001001700DD080800010018F0
:100E000000E51A1A0001001901AC06060001001ADB
:100E100001B23E3E0001001B01921A1A00014C0A69
:100E2000650AB60AC30AD10AE20AF20B01420A7342
:100E30000B0B420A710B1200787FE4F6D8FD758126
:100E40002012010A020E82021A20E493A3F8E4930E
:100E5000A34003F68001F208DFF48029E493A3F8AD
:100E60005407240CC8C333C4540F4420C88340041F
:100E7000F456800146F6DFE4800B010204081020DE
:100E80004080900CE5E47E019360BCA3FF543F30AA
:100E9000E509541FFEE493A360010ECF54C025E082
:100EA00060A840B8E493A3FAE493A3F8E493A3C83A
:100EB000C582C8CAC583CAF0A3C8C582C8CAC583CB
:100EC000CADFE9DEE780BE0706050403020100076A
:100ED00006050403020100070605040302010007DA
:100EE00006050407060504030201000706050403BE
:100EF000020100070605040302010003020100804D
:100F00008080808080808040404040404040402041
:100F100020202020202020101010100202020202A7
:100F20000202020404040404040404080808080873
:100F3000080808101010100102010200000003014F
:100F4000000201020201000300010003020100058A
:100F50000603040506030406050405050604060445
:100F60000605050604030304802001800820100202
:100F700004084002201010400101022010084080A7
:100F800010020802020401200880011080020140C2
:100F9000080440401008010101020202020202019D
:100FA000020202020202010180402010081008041F
:100FB0000201800180402010081008040201800115
:100FC0008040201008100804020180018040201099
:100FD0000810080402018003000000000000000067
:100FE00000000100010101010101010101010201F3
:100FF00002020202020202020202030203030303CC
:10100000030303030303000102100808101080808B
:1010100002024008400240400101040120208020DB
:1010200008040404201080010002020301030200EE
:101030000102030002030100000201030300010298
:1010400001030002010003E00040F0D070104020D6
:10105000E0F020B0D0801030A0A06060C0C0B050E0
:101060009090500030708040F010C0E0808020D020
:101070004060902010B070F050C0B0903070E03000
:10108000A0A000506000D00F03010D08040E070659
:101090000F0B020308040E090C070002010D0A0CD5
:1010A000060009050B0A05000D0E08070A0B010AC8
:1010B00003040F0D040102050B08060C07060C09BA
:1010C000000305020E0F09A0D000709000E09060B0
:1010D000303040F06050A01020D080C05070E0B0A0
:1010E000C040B020F08010D01060A040D0900080B0
:1010F00060F09030800070B04010F020E0C03050C0
:10110000B0A050E02070C0070D0D080E0B030500C5
:1011100006060F09000A03010402070802050C0B6A
:10112000010C0A040E0F090A03060F090000060C41
:101130000A0B01070D0D080F09010403050E0B052D
:101140000C02070802040E20E0C0B0402010C0705E
:1011500040A070B0D060108050500030F0F0A0D0AF
:10116000300090E080906040B0208010C0B070A04F
:1011700010D0E0702080D0F06090F0C000509060FF
:10118000A030400050E0300C0A010F0A040F0209A1
:1011900007020C0609080500060D01030D040E0EDA
:1011A00000070B05030B0809040E030F02050C02D0
:1011B0000908050C0F030A070B000E04010A0701BA
:1011C000060D000B08060D40D0B00020B0E070F016
:1011D0004000908010D0A030E0C030905070C050DF
:1011E00020A0F060801060106040B0B0D0D080C00F
:1011F00010304070A0E070A090F050600080F000CF
:10120000E05020903020C00D01020F080D040806A8
:101210000A0F030B0701040A0C090503060E0B0550
:1012200000000E0C09070207020B01040E0107095A
:10123000040C0A0E08020D000F060C0A090D000F1F
:101240000303050506080BFFF002002707200144F1
:101250004C2F54003634352D323030372D31344454
:10126000445359363636202020000000000102C6C3
:1012700001000000040001000100000102C601009D
:101280000000040001000200000102CA0100000089
:101290000400010090020101036701000000040046
:1012A0000100900200010361010000000400010040
:1012B00090020001036101000000040001033006F8
:1012C000010102FD01000000040001028000200174
:1012D00002F90100020C040001040004010101C92B
:1012E00000001000060001040004020101CF00000C
:1012F00010060600010400040E0101D50000100CC8
:10130000060001033001000103B2010000000401E6
:1013100001033302010103B60100000004010104CE
:1013200000100101037F00001100040001040010FF
:1013300002010383000011040400010400100401F1
:101340000387000011080400010400100301038B4F
:101350000000110C0400010400100501038F0000BF
:10136000111004000104090B010103930000111482
:1013700003000104800010FF124701000000080173
:10138000000400040DFF124F0100000010010004D2
:1013900000040BFF125F010000000A010004000CB2
:1013A000010000000000120004010004000C020013
:1013B00000000000120304010004000C0300000000
:1013C00000001206040100040003080101E400000B
:1013D0001900010000040003020101E500001901E9
:1013E000010000040003010101E6000019020100F0
:1013F00000040003050101E70000190301000004D7
:101400000401010101EA00001A00010100040402C4
:101410000101020800001A1E010100040003060178
:1014200001DE00001016030001040003070101DBC8
:10143000000010130300010201010001002E010051
:1014400000000200010202010001003D0100000055
:101450000300010203000001004901000000030035
:10146000010203010001004D010000000300010220
:1014700006000001005A01000000020001020601FE
:101480000001005E01000000020001028000020174
:10149000006A0100000002000102010200010032A6
:1014A00001000000020001020103000100360100FA
:1014B00000000200010202020001004101000000E0
:1014C00003000102020300010045010000000300C7
:1014D00001020302000100510100000003000102AB
:1014E0000303000100550100000003000102060291
:1014F0000001006201000000020001020603000179
:10150000006601000000020001070000FF07000163
:10151000FF070101FF070102FF070103FF070301A6
:10152000FF070002FF200E1E1E18300810040404DE
:101530000404161100000000111100B0990184D4B8
:1015400001FF8430020C80FA000380FA000000845E
:10155000000084D6960004D6822404DC010C04DC4E
:10156000030C8432010C04D6820004D6830004D616
:1015700084000082000804D68C0004D6000004D643
:10158000880004D6940004D6970000C0000000B084
:10159000880000B08C0000B0940000B0970004B246
:1015A000010C010203000011892312329B462457CB
:1015B000AD653674BF8C489DC1AF5ABED3CA6CDBD3
:1015C000E5E97EF8F7108101083393221A56A54702
:1015D0002C75B7643E9CC98D40BFDBAE52DAEDCBB3
:1015E00064F9FFE8762102308B02101399672676A2
:1015F000AF443455BDAD4ABCC38E589FD1EB6EFA93
:10160000E7C87CD9F53183200A1291031877A766C1
:101610002E54B5453CBDCBAC429ED98F50FBEFEA72
:1016200066D8FDC9744204538D6116709F0420155D
:10163000A9273236BBCE4CDFC5ED5EFCD788689952
:10164000E1AB7ABAF35285430C7197601E14A10581
:101650002837B3263ADECDCF44FDDFEC5698E98932
:1016600060BBFBAA726306728F4014519D25223421
:10167000AB063017B9EF4EFEC7CC5CDDD5A96AB812
:10168000E38A789BF17387620E5095411C35A32441
:101690002A16B10738FFCFEE46DCDDCD54B9EBA8F2
:1016A000629AF98B7084089581A71AB693C22CD3DD
:1016B000A5E13EF0B7084019C92B523ADB4E645FF2
:1016C000ED6D767CFF94898500B79BA612D2ADC3E1
:1016D00024F1BFE03618C109483BD32A5A5EE54FD2
:1016E0006C7DF76C7EA50AB48386189791E32EF281
:1016F000A7C03CD1B5294238CB0A501BD96F667EB2
:10170000EF4C745DFDB58BA40296998710F3AFE2A0
:1017100026D0BDC13439C3284A1AD10B587FE76E91
:101720006E5CF54D7CC60CD785E51EF4978028913C
:10173000A1A33AB2B34A445BCD695678DF0C601D71
:10174000E92F723EFBD68DC704F59FE41690A98160
:1017500020B3BBA2325AC54B4C79D7685E1CE10D51
:10176000683FF32E7AE70EF687C41CD595A12AB000
:10177000A3823893B16B467ACF485459DD2D623C31
:10178000EB0E701FF9F78FE606D49DC514B1ABA020
:101790002292B983307BC76A4E58D5495C3DE32C11
:1017A0006A1EF10F78010101010202022626262697
:1017B0002525252828282827272710101010111143
:1017C000110E0E0E0E0F0F0F0C0C0C0C0D0D0D0A42
:1017D0000A0A0A0B0B0B0A100F0E0D0B0C04030266
:1017E00001020403040302010204030403020102D0
:1017F00004030403020102040304030201020403BC
:1018000004030201020403040302010204030000B2
:101810000000000000000000000102C604020100F8
:101820000100000102C6040201000200000102CA18
:10183000040201040004010101C9020005040004BE
:10184000010101CB040001040004020101CF0200E8
:1018500005040004020101D10400010400040E018A
:1018600001D50200050400040E0101D704000102A5
:101870008000200102F904040100900200010361CC
:101880000402010090020101036704020104001038
:101890000101037F0402010400100201038304021A
:1018A0000104090B01010393030403020101000178
:1018B000001D0302030202010001003D03030302B5
:1018C0000300000100490304030203010001004D6D
:1018D0000304030206000001005A02030502060188
:1018E0000001005E0203050280000201006A02029C
:1018F000050400040901006C030003020102000159
:101900000021030203020103000100250302030278
:10191000020200010041030303020203000100452B
:101920000303030203020001005103040302030343
:1019300000010055030403020602000100620202D6
:101940000502060300010066020205FFFFFFFF001B
:10195000000000000037007FFF600000003600003C
:10196000301E0000500400000005000000060000CA
:10197000000700000008000000090000000A000045
:10198000000B0000000C0000000D0000000E000025
:10199000000F000000100000001100000012000005
:1019A000001700000018000000190000001A0000D5
:1019B000001B0000001C000000610000006200002D
:1019C00000630000000100B97E0300F88431003498
:1019D00027020001001F0000001D00016027000019
:1019E00007280000072900000770000000330033BB
:1019F000000004050601070809020A0B0C04171869
:101A000019061A1B1C080D0E0F091011120A61622B
:101A1000630301020304050D0E0F2B0710111213AF
:101A20001201B9BF01031201BE5171900290E0F89A
:101A3000A3E0F9A3E0FAA3E0FBC31207C16003E44B
:101A4000F5B151719002901208421201DC12018C22
:101A50001201D71201AF1201B412000680CBF58338
:101A6000E0FCA3E0FDA3E0FEA3E0FF9003E6120884
:101A70004290028CE0FCA3E0FDA3E0FEA3E0FF9017
:101A80000433120842900288E0FCA3E0FDA3E0FECC
:101A9000A3E0FF900437120842E4FFFEFDFC90042F
:101AA00037E0F8A3E0F9A3E0FAA3E0FBC31207C113
:101AB000703074FFFFFEFDFC900433E0F8A3E0F902
:101AC000A3E0FAA3E0FBC31207C16043E4FFFEFDFD
:101AD000FC900433E0F8A3A3A3E0C31207C1700293
:101AE000802D900433E0FCA3E0FDA3E0FEA3E024FE
:101AF00001FFE43EFEE43DFDE43CFCA3E0F8A3E08E
:101B0000F9A3E0FAA3E0FBC31207C16002417190A0
:101B10000433E0FCA3E0FDA3E0FEA3E0FF227B0191
:101B20007A0379597D047C00B18290035FEEF0A3C3
:101B3000EFF07B017A037959E4FD7F17FE715E7B3C
:101B4000017A0079107D047C00B182900016EEF0DD
:101B5000A3EFF07B017A007910E4FD7F16FE90067A
:101B600065EDF0A3EBF0A3EAF0A3E9F0900663EED5
:101B7000F0A3EFF09006697401F0E490066BF0A317
:101B8000F0C3EF941CEE94004002A151E490066A69
:101B9000F090066AE0FFC3941C4002A15175F00862
:101BA000EFA424D0F582E5F03408F583E0FEA3E04D
:101BB000FF900663E0FCA3E0FDEF6D7002EE6C6049
:101BC00002A149EDAE047803C333CE33CED8F9FF7A
:101BD00024D6F58274083EF583E06002816D90069C
:101BE00066E0FBA3E0FAA3E0F974D52FF582740850
:101BF0003EF583E024FEFDE434FFFCB18290066BE9
:101C0000EEF0A3EFF090066BE0FD900663E0FEA31C
:101C1000E07803C333CE33CED8F924D5F5827408E7
:101C20003EF583E024FEFFE434FFFE900666E0FB11
:101C3000A3E0FAA3E0F98F828E83ED1205E190060E
:101C40006BA3E0FD900663E0FEA3E07803C333CE10
:101C500033CED8F924D5F58274083EF583E07E00B2
:101C600024FFF582EE34FFF583ED1205E190066363
:101C7000E0FEA3E07803C333CE33CED8F924D2F507
:101C80008274083EF583E0FEA3E0FF900665E0FD68
:101C90007C00EF2DFFEC3EFEC006C007A3E0FBA3D7
:101CA000E0FAA3E0F9900663E0FEA3E07803C33313
:101CB000CE33CED8F924D5F58274083EF583E09072
:101CC0000A91F0D007D0061244E7EF6002A15190CC
:101CD0000669F0900663E0FEA3E07803C333CE33D9
:101CE000CED8F9FF24D7F58274083EF583E0706101
:101CF00074DA2FF58274083EF583E0FEA3E0FF90CE
:101D00000665E0FD7C00EF2DFFEC3EFEC006C0073F
:101D1000A3E0FBA3E0FAA3E0F9900663E0FEA3E0F2
:101D20007803C333CE33CED8F924DDF58274083E70
:101D3000F583E0900A91F0D007D0061244E7EF60F7
:101D4000109006697401F0800890066AE004F06162
:101D500091900669E0FF221222999003F1E0FF7E44
:101D6000009003F3EEF0A3EFF0FD9003F0E0FFED41
:101D70009003F3CFF0A3EFF07B017A0379E47D0CBD
:101D80007C009006A9EBF0A3EAF0A3E9F0A3ECF045
:101D9000A3EDF0E4A3F0A3F09006AC74FFF5F0120D
:101DA000068045F060429006A9E0FBA3E475F001CF
:101DB000120680A9F0FA120556FF9006AEE0FCA3C9
:101DC000E0FDED6F25E0FFE433FE74A52FF582748E
:101DD000153EF583ECFFE493FE7401936FFF9006CC
:101DE000AEEEF0A3EFF080B09006AEE0FEA3E0FF11
:101DF000227B017A0779C8900663E4F0A37472F03D
:101E00007D007C0D1246DE7B017A0779C890083888
:101E1000E0FFA3E0900662CFF0A3EFF07D709006A4
:101E20005EEBF0A3EAF0A3E9F0A3EDF0122811EFC6
:101E300070037F012290065EE0FBA3E0FAA3E0F9C5
:101E4000A3E0FD7C00B182900662E06E7003A3E027
:101E50006F7F0060027F01229003E4EFF0E4A3F0C3
:101E60007B017A02796590027DE0FFA3E090066233
:101E7000CFF0A3EFF07D18D11EEF70069003E4E0E1
:101E800070207B017A027965E4FD7F1BFE1220132E
:101E9000BF01069003E57401F0F13D123AB47F01F1
:101EA000D1CF9003E5E0FF227F01D1CF7F147E00E8
:101EB000F15B124259EF64036014EF60119002C1AC
:101EC000E0D394024008E4F0F13D7F01D1CF2290AD
:101ED00003FDEFF078FE7C037D017BFF7A0C7981B6
:101EE0007E007F141205309004157401F0900412E6
:101EF000F0A37403F0A374FEF09003FDE0FF7B01F8
:101F00007A0379FE123B0DEF702D900A73E0FEA369
:101F1000E0AA06F97BFFC003C002900412E0FBA315
:101F2000E0FAA3E0F8AC02AD03D002D003120A5DE0
:101F3000EF7004900415F0900415E0FF2290FFE389
:101F4000E04440F043B0407F967E00F15B90FFE3B9
:101F5000E04440F053B0BF7FF47E0190049FEEF068
:101F6000A3EFF0A312084E0000000090049FE0FED3
:101F7000A3E0FF7C007D13120603E4FDA3E0F8A3B9
:101F8000E0F9A3E0FAA3E0FBC31207C15023F1B2CA
:101F90009004A1E0FCA3E0FDA3E0FEA3E02401FF88
:101FA000E43EFEE43DFDE43CFC9004A112084280C6
:101FB000BA22F1CBF1CB7F01AE071FEE70FA22F10E
:101FC000CB90FFE3E04410F053B0EF2290FFE3E04A
:101FD0004410F043B010F1CB90FFE5E04408F0531B
:101FE000E9F7F1BF80E590FFE3E04410F043B01063
:101FF00080D9900431E075F00EA42471F582E5F0EB
:102000003412F583E493FE740193FF7B017A037924
:10201000EFE4FD900660EDF0A3EBF0A3EAF0A3E996
:10202000F090065EEEF0A3EFF09006647401F0E429
:10203000A3F0A3F09006A7F0A3F0C3EF941CEE94D6
:102040000040024136E4900665F0900665E0FFC36B
:10205000941C4002413675F008EFA424D0F582E5C7
:10206000F03408F583E0FEA3E0FF90065EE0FCA3F9
:10207000E0FDEF6D7002EE6C6002412E900666F09E
:1020800090065EE0FEA3E07803C333CE33CED8F9EA
:1020900024D2F58274083EF583E0FEA3E0FF9006AB
:1020A00060E0FD7C00EF2DFFEC3EFEC006C0077B2C
:1020B000017A06796790065EE0FEA3E07803C333F9
:1020C000CE33CED8F924D5F58274083EF583E0905E
:1020D0000A86F0D007D0065199EF64017078900617
:1020E0005EE0FEA3E07803C333CE33CED8F9FF24FD
:1020F000D7F58274083EF583E0704D74DA2FF582CF
:1021000074083EF583E0FEA3E0FF900660E0FD7CEE
:1021100000EF2DFFEC3EFEC006C0077B017A06797A
:102120006790065EE0FEA3E07803C333CE33CED8DB
:10213000F924DDF58274083EF583E0900A86F0D03C
:1021400007D0065199BF010E900666E004F0E0C387
:10215000940350020180900666E0C3940340037F1D
:10216000012290065EE0FEA3E07803C333CE33CEB7
:10217000D8F9FF24D6F58274083EF583E0706D74BB
:10218000D52FF58274083EF583E0FF2466F582E4DE
:102190003406F583E0FD9006A7E4F0A3EDF0746546
:1021A0002FF582E43406F583E0FE9006A7E04EF0BA
:1021B000A3E0F07B017A06796790065EE0FEA3E07B
:1021C0007803C333CE33CED8F924D5F58274083ED4
:1021D000F583E024FEFDE434FFFC121D829006A787
:1021E000E06E7003A3E06F60037F0122900661E060
:1021F000F9A3E0FAA3E09006ACC9F0A3EAF0A3E9E2
:10220000F090065EE0FEA3E07803C333CE33CED871
:10221000F924D5F58274083EF583E09006AFF07B93
:10222000017A0679675156E4900664F080089006BA
:1022300065E004F0014A900664E0FF2251569006E2
:10224000AC7401F0A37402F0A374DDF0A37404F085
:102250007B017A0379619006A9EBF0A3EAF0A3E988
:10226000F0E4FF9006AFE0FEEFC39E502B9006A96E
:10227000E0FBA3E0FAA3E0F98F8275830012056FFB
:10228000FE9006ACE0FBA3E0FAA3E0F98F82758331
:1022900000EE1205E10F80CB22900A81EEF0A3EF51
:1022A000F0900A83EBF0A3EAF0A3E9F0900A87E448
:1022B000F0900A86E0FFEF70037F0122900A86E02B
:1022C000FF7E00900A81E0FCA3E0FDEF2DFFEE3CD5
:1022D000FED3EF94FFEE940140037F0122900A8128
:1022E000E0FEA3E0FFEEFF7E00EF54FFFF900A88C0
:1022F000EFF0900A88E0FFEF25E0FF900A88EFF00A
:10230000B1F4900A88E0FFEF24A0FFB15BEF600515
:1023100071B17F0122900A81E0FEA3E0FFB15BEF83
:10232000600571B17F0122B1F4900A88E0FFEF24CB
:10233000A1FFB15BEF600571B17F0122900A83E0DC
:10234000FBA3E0FAA3E0F9900A89EBF0A3EAF0A37B
:10235000E9F0900A88E4F0900A86E0FFEF14FF901D
:102360000A88E0FEEEC39F5024124419900A89E0C7
:10237000FBA3E0FAA3E0F9900A88E0FE8E82758361
:1023800000EF1205E1900A88E004F080CA12438D44
:10239000900A89E0FBA3E0FAA3E0F9900A88E0FE46
:1023A0008E82758300EF1205E171B1900A87E0FF1C
:1023B00022900AB0E4F090FFE8E0FFEF54BFFF90F6
:1023C000FFE8EFF0900AB07414F0900AB0E0FFEF6D
:1023D000D394004015E5EC20E61043EC80D1245363
:1023E000EC7F900AB0E014F080E090FFE8E0FFEFAF
:1023F0004440FF90FFE8EFF090FFE8E0FFEF4480FB
:10240000FF90FFE8EFF053ECBF53EC7FD12443EC97
:1024100080D12443EC4022900A75EEF0A3EFF090B7
:102420000A77EBF0A3EAF0A3E9F0900A80E4F090D9
:102430000A7AE0FFEF600B900A7AE0FFEFD3942076
:1024400040037F0122900A75E0FEA3E0FFD3EF94E2
:10245000FFEE940140037F0122900A7AE0FF7E00A4
:10246000900A75E0FCA3E0FDEF2DFFEE3CFED3EFFC
:1024700094FFEE94004013900A75E0FEA3E0FFD3B2
:10248000EF94FFEE94005002A155B1F4900A7AE067
:10249000FF7E00900A75E0FCA3E0FDEF2DFFEE3C0F
:1024A000FED3EF94FFEE94005006900A8074A0F0E3
:1024B000900A75E0FEA3E0FFD3EF94FFEE94004096
:1024C00006900A8074A2F0900A80E0FFB15BEF6092
:1024D0000571B17F0122900A75E0FEA3E0FFB15BB8
:1024E000EF600571B17F0122900A77E0FBA3E0FA6B
:1024F000A3E0F9900A7DEBF0A3EAF0A3E9F0900ADB
:102500007BE4F0A3E4F0900A7AE0FF7E00900A7B7F
:10251000E0FCA3E0FDC3ED9FEC9E5033900A7DE00C
:10252000FBA3E0FAA3E0F9120556FFB15BEF6005EB
:1025300071B17F0122900A7EE475F00112066A9063
:102540000A7CE004F07006900A7BE004F080B7712A
:10255000B1D13580037F01227F0022900AA2EFF0E3
:10256000900AA3E4F0900AA4E4F090FFE8E0FFEF03
:102570004480FF90FFE8EFF053EC7F90FFE8E0FF2E
:10258000EF4440FF90FFE8EFF0900AA4E4F0900AD7
:10259000A4E0FFEFC394085030900AA2E0FFEF30B0
:1025A000E70543EC40800353ECBF43EC80900AA264
:1025B000E0FFEF25E0FF900AA2EFF012438653EC14
:1025C0007F900AA4E004F080C512000790FFE8E0C5
:1025D000FFEF54BFFF90FFE8EFF043EC80120007DD
:1025E000E5EC30E606900AA37401F053EC7F900A04
:1025F000A3E0FF221244B390FFE8E0FFEF4440FF66
:1026000090FFE8EFF043EC4090FFE8E0FFEF4480FC
:10261000FF90FFE8EFF043EC80D12453ECBFD124CE
:1026200053EC7F22900AAE7401F0900AAEE0FF14E2
:10263000F0EF70F622900AA874FFF0900AA7E4F079
:10264000900AA8E0FF900AA7E0FEEEC39F5013B1E6
:10265000F47FA0B15BEF700261B1900AA7E004F0D3
:1026600080DE2290045D7401F0A37407F0A374AAC5
:10267000F0900458E0900460F0900454E0FBA3E074
:10268000FAA3E0F990045AEBF0A3EAF0A3E9F09082
:1026900006AC7401F0A37404F0A3746BF0A3740887
:1026A000F090045DE0FBA3E0FAA3E0F9515690043A
:1026B0005AE0FBA3E0FAA3E0F9124B0D7B017A0488
:1026C000796B124B85E4900461F0E4900462F09021
:1026D0000461E0FF900F9793FE900462E0C39E5068
:1026E0001C900460E0FDB40103EF60117B017A04EB
:1026F000796B124EBE900462E004F080D29006AC7A
:102700007401F0A37404F0A37463F0A37408F07B65
:10271000017A04796B515690048974FFF0A3740F09
:10272000F0A37437F0A374FFF0A3740FF0A37467E1
:10273000F0A37406F07B017A047963124BA3900432
:10274000767401F0A37404F0A37463F090045AE06B
:10275000FBA3E0FAA3E0F9124C76E4F5B190046132
:10276000E004F0E0C394105002C1CA90045AE0FBA8
:10277000A3E0FAA3E0F9900473EBF0A3EAF0A3E975
:10278000F0E4F5B190047704F012055690047FF060
:1027900090000412056F90047EF090000112056F06
:1027A00090047DF090000512056F90047CF090007D
:1027B0000212056F90047BF090000612056F9004E2
:1027C0007AF090000312056F900479F090000712E0
:1027D000056F900478F0E4900476F07B017A047938
:1027E00078124AE0900473E0FBA3E0FAA3E0F9A3B7
:1027F000E0F582758300EF1205E1900477E025E0B3
:10280000F0900476E004F0E0C3940840CEE4F5B123
:1028100022900664EBF0A3EAF0A3E9F0E4FFEFC333
:102820009D501B900664E0FBA3E0FAA3E0F98F82C1
:1028300075830012056F60037F01220F80E07F0027
:1028400022F09003E9E0FBA3E0FAA3E0F990000393
:1028500012056FFFEFD3946340037F0022EF75F002
:102860000A84C454F0FEEF75F00A84E5F02EFF22CE
:10287000AC07AF05119DAD07AF04119DEF2DFF1201
:1028800005562FFFE41205CFEFC39464400974018D
:102890001205CF749C2FFF80BB12056FFFEFC4544D
:1028A0000F75F00AA4FEEF540F2EFF22900663EB83
:1028B000F0A3EAF0A3E9F0E490066AF0A3F0900632
:1028C00069E0FF90066BE0FEC39F5079EEFDC3EF19
:1028D0009DFDE49400FCED24FFFFEC34FFFE900628
:1028E00063E0FBA3E0FAA3E0F98F828E8312056F09
:1028F000FFED24FFFDEC34FFFC900666E0FBA3E057
:10290000FAA3E0F98D828C8312056FFD7B017A06B4
:10291000796A117090066BE0FD900669E0C39DFD39
:10292000E49400CD24FFCD34FFFC900663E0FBA3CC
:10293000E0FAA3E0F98D828C83EF1205E190066B3B
:10294000E004F001BE2290028CE0FCA3E0FDA3E0D5
:10295000FEA3E0FF9003D0120842900288E0FCA39F
:10296000E0FDA3E0FEA3E0FF9003D4120842E4FFE1
:10297000FEFDFC9003D4E0F8A3E0F9A3E0FAA3E0A5
:10298000FBC31207C1703074FFFFFEFDFC9003D043
:10299000E0F8A3E0F9A3E0FAA3E0FBC31207C160EB
:1029A00043E4FFFEFDFC9003D0E0F8A3A3A3E0C343
:1029B0001207C17002802D9003D0E0FCA3E0FDA3BC
:1029C000E0FEA3E02401FFE43EFEE43DFDE43CFC28
:1029D000A3E0F8A3E0F9A3E0FAA3E0FBC31207C168
:1029E000600221469003D0E0FCA3E0FDA3E0FEA33B
:1029F000E0FF22C0E0C0F0C083C082C0D075D0002C
:102A0000C000C001C002C003C004C005C006C007AA
:102A100075B7559003CDE5B6F075B70030993DC256
:102A200099900073E004F0900072E0FFA3E0C39F70
:102A30005024314690007E120842900073E02486B4
:102A4000F582E43400F583E0FF30D004D29B8002AD
:102A5000C29B8F99800690006F7408F030980BC26B
:102A600098AF99AD07E4FF12019675B7559003CD65
:102A7000E0F5B675B700D007D006D005D004D00376
:102A8000D002D001D000D0D0D082D083D0F0D0E01E
:102A90003290028CE0FCA3E0FDA3E0FEA3E0FF90F7
:102AA00003DB120842900288E0FCA3E0FDA3E0FEF5
:102AB000A3E0FF9003DF120842E4FFFEFDFC900359
:102AC000DFE0F8A3E0F9A3E0FAA3E0FBC31207C13B
:102AD000703074FFFFFEFDFC9003DBE0F8A3E0F92B
:102AE000A3E0FAA3E0FBC31207C16043E4FFFEFDCD
:102AF000FC9003DBE0F8A3A3A3E0C31207C17002BC
:102B0000802D9003DBE0FCA3E0FDA3E0FEA3E02426
:102B100001FFE43EFEE43DFDE43CFCA3E0F8A3E05D
:102B2000F9A3E0FAA3E0FBC31207C1600241919050
:102B300003DBE0FCA3E0FDA3E0FEA3E0FF22C0E096
:102B4000C0F0C083C082C0D075D000C000C001C03A
:102B500002C003C004C005C006C00775B755900386
:102B6000D8E5B6F075B70030D93DC2D9900120E064
:102B700004F090011FE0FFA3E0C39F502451919007
:102B8000012B120842900120E02433F582E4340145
:102B9000F583E0FF30D004D2DB8002C2DB8FD98026
:102BA0000690011C7408F030D80BC2D8AFD9AD071D
:102BB0007F0112019B75B7559003D8E0F5B675B744
:102BC00000D007D006D005D004D003D002D001D069
:102BD00000D0D0D082D083D0F0D0E032E0FCA3E0AF
:102BE000FDA3E0FEA3E0FF9003EA1208429003EA8F
:102BF000E0FCA3E0FDA3E0FEA3E0FFA3E0F8A3E078
:102C0000F9A3E0FAA3E0FBC31207C19003EEE05082
:102C10003DF8C000C001C002C0039003EAE0F8A381
:102C2000E0F9A3E0FAA3E0FBC374FF9BFF74FF9AF3
:102C3000FE74FF99FD74FF98FCD003D002D001D040
:102C400000EB2FFFEA3EFEE93DFDE83C8024FCA3BB
:102C5000E0FDA3E0FEA3E0FF9003EAE0F8A3E0F9C3
:102C6000A3E0FAA3E0FBC3EF9BFFEE9AFEED99FD14
:102C7000EC98FCA31208429003F2E0FCA3E0FDA351
:102C8000E0FEA3E0FF9003EEE0F8A3E0F9A3E0FA92
:102C9000A3E0FBC31207C17F0140027F0022900323
:102CA0000FE054FDF07B017A0979F17D041201A552
:102CB0007B017A0979F5900667E4F0A37404F0E4E7
:102CC000FD900663EBF0A3EAF0A3E9F0A3EDF0E4D6
:102CD000FFFED3900668E09F900667E09E401F903D
:102CE0000666E0FD900663E0FBA3E0FAA3E0F98F3F
:102CF000828E83ED1205E10FBF00010E80D4229079
:102D00000446EBF0A3EAF0A3E9F0A3EDF0D394645A
:102D100040037F01229004507401F0A37407F0A3D4
:102D20007428F09006AC7401F0A37407F0A374BA91
:102D3000F0A37408F090044AE0FBA3E0FAA3E0F9E2
:102D40001222567B017A0779AAE4FD7F13FE122036
:102D500013BF01037F0122900450E0F9A3E0FAA31E
:102D6000E09006ACC9F0A3EAF0A3E9F0900449E0D2
:102D70009006AFF0900446E0FBA3E0FAA3E0F9125E
:102D80002256900450E0FBA3E0FAA3E0F990044936
:102D9000E0FFF58275830074801205E17E00E92F63
:102DA000F9EE3AFAE92401F9E43AFA900667E4F018
:102DB000A37407F0E4FD91C1900449E01313135488
:102DC0001F0490044FF0E4FD74BA2DF582E434073B
:102DD000F583C083C082E0FF900450E0FBA3E0FADB
:102DE000A3E0F98D8275830012056FFEEF6ED0822D
:102DF000D083F00DEDB408D0E490044EF090044F71
:102E0000E014FF90044EE0C39F506F90045D740186
:102E1000F0A37407F0A374AAF0A37402F07B017A04
:102E20000779BA122684E4FD74BA2DF582E43407DA
:102E3000F583C083C082E0FC90044EE02401FFE4EF
:102E400033FEEF7803C333CE33CED8F9FFED7A00EB
:102E50002FFFEA3EFE900450E0FBA3E0FAA3E0F966
:102E60008F828E8312056F6CD082D083F00DEDB40B
:102E700008B690044EE004F080837B017A0779BAAB
:102E80009004577402F0E4FFD1D890044DE064013F
:102E9000703B900446E0FBA3E0FAA3E0F9A3E0FF57
:102EA0007E00E92FF9EE3AFA900661EBF0A3EAF022
:102EB000A3E9F0A37404F0A37455F07B017A0779B9
:102EC000BA12326CBF02037F00227F01227F0022F0
:102ED0009004577401F07F06900454EBF0A3EAF0DD
:102EE000A3E9F0EF640660147B017A0779AAE4FD98
:102EF0007F13FE122013BF01037F0122900457E0CD
:102F0000B40209A37402F0A314F080099004587469
:102F100001F0A304F012266390045D7401F0A37421
:102F200007F0A374B2F09004591226741226637F3E
:102F300000229003EAE075F0ADA4248AF97400350C
:102F4000F0FA7B01E075F0ADA42493F582E5F0344E
:102F500000F583E0240AFD9003EDEBF0A3EAF0A373
:102F6000E9F0E4FFFEEEC39D50189003EDE0FBA3F3
:102F7000E0FAA3E0F98E8275830012056F2FFF0E31
:102F800080E322FF9003FEF07B017A047900900435
:102F90008E7401F01288C7E49003FFF09003FAE00A
:102FA00075F0ADA42498F9740035F0FA90066174B8
:102FB00001F0A3EAF0A3E9F0A37404F07B017A0323
:102FC00079FF90065EEBF0A3EAF0A3E9F0E4900647
:102FD00065F0900664E0FFA3E0FEC39F5047EEFD5E
:102FE00090065EE0FBA3E0FAA3E07E002FF9EE3A44
:102FF000FAE924FFF9EA34FFFAC3E99DF9EA9400FB
:10300000FA120556FF900661E0FBA3E0FAA3E0F98F
:10301000900665E0F582758300EF1205E190066584
:10302000E004F080AD22900436EBF0A3EAF0A3E9CF
:10303000F0E4FFEFC39D5028900436E0FBA3E0FAD4
:10304000A3E0F98F8275830012056FFE540FD394AD
:10305000095007EE54F0949040037F01220F80D373
:103060007F00229003EDE075F0ADA424A0F9740078
:1030700035F0FA7B0190042FE07E0029F9EE3AFA50
:103080007D04900441EBF0A3EAF0A3E9F0A3EDF096
:10309000E4A3F0900444E0FFC313FEA3E0C39E50FA
:1030A00078900441E0FBA3E0FAA3E0F9900445E046
:1030B000FEF58275830012056F900446F0EF24FF41
:1030C000FDE434FFFCEEFFC3ED9FFFEC94008F8224
:1030D000F58312056FFF900445E0F582758300EFDC
:1030E0001205E1900446E0FF900444E024FFFDE473
:1030F00034FFFCA3E0FBC3ED9BFDEC9400FC9004CB
:1031000041E0FBA3E0FAA3E0F98D828C83EF120586
:10311000E1900445E004F00193229003EDE075F0A6
:10312000ADA42498F9740035F0FA7B01900436EBD5
:10313000F0A3EAF0A3E9F0120556FF2485F582E436
:103140003402F583E0C39403401074852FF582E4C4
:103150003402F5837403F07F01227B017A04793A0B
:10316000E4FD7F12FE122013BF01037F01229004B1
:1031700036E0FBA3E0FAA3E0F9120556FF700690D3
:103180000439F0801BEFB401089004397403F08017
:103190000FEFB402089004397406F080037F012217
:1031A000E4FFEF2401FDE433FC900436E0FBA3E0F0
:1031B000FAA3E0F98D828C8312056FFE900439E04A
:1031C0002F243AF582E43404F583E06E603812056A
:1031D00056FE2485F582E43402F583E004F074851C
:1031E0002EF582E43402F583E0C394034015120502
:1031F0005625E024ABF582E43402F5837405F0A390
:1032000074A0F07F01220FEFB40397900436E0FB27
:10321000A3E0FAA3E0F91205562485F582E434020E
:10322000F583E4F0FF2224FEFFE434FFFE90043E29
:10323000E0FD7C00120603900438E0FBA3E0FAA353
:10324000E02FF9EA3EFA900661EBF0A3EAF0A3E979
:10325000F090043EE0900664F0900441E090066532
:10326000F090043BE0FBA3E0FAA3E0F990065EEBEC
:10327000F0A3EAF0A3E9F0E4900666F0900664E0BB
:10328000FF900666E0FEC39F4002618D900665E0F8
:1032900064557039900661E0FBA3E0FAA3E0F98E73
:1032A0008275830012056FFD90065EE0FBA3E0FAD5
:1032B000A3E0F98E8275830012056FFED39D400353
:1032C0007F0022EEC39D400261857F01229006644B
:1032D000E024FFFFE434FFFE900666E0FDC3EF9DAF
:1032E000FFEE9400FE900661E0FBA3E0FAA3E0F994
:1032F0008F828E8312056FFF900664E024FFFDE449
:1033000034FFFC900666E0FBC3ED9BFDEC9400FCF3
:1033100090065EE0FBA3E0FAA3E0F98D828C8312B5
:10332000056FD39F40037F0022900664E024FFFFD7
:10333000E434FFFE900666E0FDC3EF9DFFEE9400CF
:10334000FE900661E0FBA3E0FAA3E0F98F828E8392
:1033500012056FFF900664E024FFFDE434FFFC904B
:103360000666E0FBC3ED9BFDEC9400FC90065EE07E
:10337000FBA3E0FAA3E0F98D828C8312056FC39F53
:1033800050037F0122900666E004F0417C7F022218
:10339000900438EBF0A3EAF0A3E9F090043FE0FEDC
:1033A000D3940150037F0122EE24FFFFE434FFFE9B
:1033B00090043EE0FD7C00120603900438E0FBA37D
:1033C000E0FAA3E02FF9EA3EFAC002C001A3E0F957
:1033D000A3E0FAA3E09006ACC9F0A3EAF0A3E9F0F9
:1033E00090043EE09006AFF0D001D0021222569039
:1033F000043FE0900442F0900442E0FFD394014087
:103400006D900440E064557008EF5126EF605780DE
:103410000B900442E05126EF6401604A900442E0C0
:1034200024FEFFE434FFFE90043EE0FD7C00120623
:1034300003900438E0FBA3E0FAA3E02FF9EA3EFA98
:10344000C002C001A3E0F9A3E0FAA3E09006ACC972
:10345000F0A3EAF0A3E9F090043EE09006AFF0D0CC
:1034600001D002122256900442E014F080897F00BD
:1034700022120556FF9003FFE4F0A3EFF0E0F8E41A
:10348000F0E89003FFF090000112056FFF9003FF3A
:10349000E0FEA3E04FFF9003FFEEF0FEA3EFF0226B
:1034A000AE04900001ED1205E1EE0205CF121FCC33
:1034B0007B017A047914900419E0FCA3E0FDA3E0F9
:1034C000FEA3E0FF90049812084290049C12084E5C
:1034D00000000000900498E0FCA3E0FDA3E0FEA340
:1034E000E0FFA3120842E49004A0F090049CA3A380
:1034F000A3E0FFA3E0FDC374039DFDE494008D826F
:10350000F583EF1205E190049CE0FCA3E0FDA3E04D
:10351000FEA3E0FF78081207D290049C12084290A4
:1035200004A0E004F0E0B404C222B13890045C12BC
:1035300008427B017A03796190064DEBF0A3EAF033
:10354000A3E9F0A312084E00000000E4900654F036
:10355000900650E0FCA3E0FDA3E0FEA3E0FF7808A6
:103560001207E5900650120842900650E0F8A3E0DA
:10357000F9A3E0FAA3E0FBC000C001C002C00390C1
:10358000064DE0FBA3E0FAA3E0F9900654E0F582D3
:1035900075830012056FFFD003D002D001D000EB7D
:1035A0004FFFEAFEE9FDE8FC900650120842900643
:1035B00054E004F0E0B40498900650E0FCA3E0FD71
:1035C000A3E0FEA3E0FF22900459EBF0A3EAF0A3EE
:1035D000E9F0E4900461F090045FE014FF90045F70
:1035E000E0FEEFC39E4002C1BA90045CE0FBA3E0A2
:1035F000FAA3E0F98F8275830012056FFE900461D3
:10360000E02EFDE4900460F0EDC39E50037401F0E1
:10361000E4900461F0900459E0FBA3E0FAA3E0F920
:103620008F8275830012056FFE540FFCED540FFB63
:10363000ECC39B5034EEC39D900459E0FB500E8FB9
:103640008275830012056FFEC3749A8037A3E0FA77
:10365000A3E0F98F8275830012056FC39D24FA8F52
:10366000827583001205E18044900459E0FBA3E0D9
:10367000FAA3E0F98F8275830012056FFEC39D5097
:1036800015C374A09D2E8F827583001205E19004EE
:10369000617401F08017900459E0FBA3E0FAA3E005
:1036A0002FF9E43AFA120556C39D1205CF90046033
:1036B000E06004A37401F01FA1DD2290043EEBF052
:1036C000A3EAF0A3E9F0AB05A37401F0A312084E3E
:1036D0000000000190044612084E00000000E49033
:1036E000044AF0EBD394005003023817EB940540E2
:1036F00003023817EBF090044AE0D3940050030221
:103700003817900446E0F8A3E0F9A3E0FAA3E0FB41
:10371000C000C001C002C00390043EE0FBA3E0FA79
:10372000A3E0F990044AE0FF7E00E92FF9EE3AFAAF
:1037300090FFFF12056F540F75F00A84AFF0E4FCA0
:10374000FD900442E0F8A3E0F9A3E0FAA3E0FB1245
:103750000696D003D002D001D000EB2FFFEA3EFE48
:10376000E93DFDE83CFC900446120842900442E02A
:10377000FCA3E0FDA3E0FEA3E0FFE47B0AFAF9F876
:10378000120696900442120842900446E0F8A3E024
:10379000F9A3E0FAA3E0FBC000C001C002C003909F
:1037A000043EE0FBA3E0FAA3E0F990044AE0FF7EC8
:1037B00000E92FF9EE3AFA90FFFF12056F54F0C4BA
:1037C000540FFFE4FCFD900442E0F8A3E0F9A3E00D
:1037D000FAA3E0FB120696D003D002D001D000EB92
:1037E0002FFFEA3EFEE93DFDE83CFC90044612084E
:1037F00042900442E0FCA3E0FDA3E0FEA3E0FFE46E
:103800007B0AFAF9F81206969004421208429004D4
:103810004AE014F00236F6900446E0FCA3E0FDA373
:10382000E0FEA3E0FF2290048EEBF0A3EAF0A3E910
:10383000F0900493120842900491E0A3F090049257
:10384000E0D3940050022116E47B0AFAF9F8A3E0D1
:10385000FCA3E0FDA3E0FEA3E0FF120721AF03906D
:10386000048EE0FBA3E0FAA3E0F9900492E0FD7C73
:1038700000E92DF9EC3AFA90FFFFEF1205E1900410
:1038800093E0FCA3E0FDA3E0FEA3E0FFE47B0AFAE3
:10389000F9F812072190049312084290048EE0FB7D
:1038A000A3E0FAA3E0F9900492E0FF7E00E92FF98B
:1038B000EE3AFAE924FFF9EA34FFFAC003C002C085
:1038C00001120556FFC007E47B0AFAF9F890049349
:1038D000E0FCA3E0FDA3E0FEA3E0FF120721AF039D
:1038E000EFC454F0FED0E04ED001D002D003120558
:1038F000CF900493E0FCA3E0FDA3E0FEA3E0FFE48F
:103900007B0AFAF9F81207219004931208429004F6
:1039100092E014F0013D22F0A37406F07B017A02DC
:103920007965900421EBF0A3EAF0A3E9F0E49004B8
:1039300028F0900427E0FFA3E0FEC39F400221D5BA
:10394000900421E0FBA3E0FAA3E0F98E82758300E6
:1039500012056FFDC4540F900429F0ED540FA3F02D
:10396000E4FF74292FF582E43404F583E0FEC39468
:103970000A501074292FF582E43404F583E02430D2
:10398000F08014EEC39410500E74292FF582E434A5
:1039900004F583E02437F00FEFB402C6900428E06A
:1039A00075F002A4FF900424E0FBA3E0FAA3E02F4B
:1039B000F9EA35F0FA9006ACEBF0A3EAF0A3E9F0EF
:1039C000A37402F07B017A0479291222569004280C
:1039D000E004F0213222780D7C047D017BFF7A0C1B
:1039E000799F7E007F141205309004247401F0A3A7
:1039F0007404F0A3740D31177B017A04790D51AA78
:103A00007B017A02796B900425740CF07F0B900493
:103A100021EFF0A3EBF0A3EAF0A3E9F078267C0411
:103A20007D017BFF7A0C79097E007F321205309090
:103A300004587401F0A37404F0A37426F0A3740175
:103A4000F0900425E0FF601F9006AC7401F0A374B1
:103A500004F0A37426F0A3EFF0900422E0FBA3E0AF
:103A6000FAA3E0F9122256900421E0FF7B017A04C8
:103A70007926710DEF702D900A73E0FEA3E0AA067F
:103A8000F97BFFC003C002900458E0FBA3E0FAA357
:103A9000E0F8AC02AD03D002D003120A5DEF70046F
:103AA00090045BF090045BE0FF22900425740CF01E
:103AB0007F09410E9006AC7401F0A37402F0A37468
:103AC00065F0A37406F07B017A0179C91222569041
:103AD000026574C0F09004247401F0A37402F0A392
:103AE000746B31179002777412F0A37434F0A374DE
:103AF00056F0A37401F0A3E4F0A37430F031D67B48
:103B0000017A027965E4FD7F1BFE021B5E90045C76
:103B1000EFF0A3EBF0A3EAF0A3E9F0A37401F0A3A4
:103B2000F0E4A3F0A3F0A3F0A3F078677C047D0198
:103B30007BFF7A0C79B3FE7F3212053090049974C2
:103B400001F0A37404F0A37467F0900307E030E180
:103B500002C18ED1C1BF01037F0622E4900466F04A
:103B6000900466E0FFC394125022EF75F00AA4247B
:103B700055F582E4340BF583E493FF90045CE0FE9A
:103B8000EF6E6008900466E004F080D4900466E074
:103B9000C394124002C18EE4900463F0900307E0E6
:103BA00030E102C18EE4900464F09006AC04F0A30E
:103BB0007404F0A37467F0A37404F07BFF7A0B79AC
:103BC0004F122256900466E075F00AA42456F5823E
:103BD000E4340BF583E493FB740193FA740293F9D4
:103BE00012004E900465EFF0A3E075F00AA424568D
:103BF000F582E4340BF583E493FB740193FA7402C9
:103C000093F99006AC7401F0A37404F0A3746BF004
:103C1000A3EFF0122256900466E075F00AA4245C2B
:103C2000F582E4340BF583E493FF6028900465E0AB
:103C3000246BF9E43404FA9006AC7401F0A3EAF0C2
:103C4000A3E9F0A3EFF090045DE0FBA3E0FAA3E0AA
:103C5000F9122256900466E075F00AA4245CF582FD
:103C6000E4340BF583E493FF900465E02F246BF9B3
:103C7000E43404FA9006AC7401F0A3EAF0A3E9F08E
:103C8000A37402F07BFF7A0B7953122256900466DC
:103C9000E075F00AA4245CF582E4340BF583E49328
:103CA000FF900465E02F2406900464F07F01120168
:103CB000C853A9FB7F02D194E4900462F09004649D
:103CC000E0FF900462E0FEC39F505C74672EF582B3
:103CD000E43404F583E0FF30D004D2DB8002C2DBA1
:103CE0008FD9E490049CF0A3F030D904C2D980208D
:103CF000121FCB90049DE004F0700690049CE00439
:103D0000F0C390049DE094D090049CE0940740D9C7
:103D1000C390049DE094D090049CE09407500890D8
:103D20000462E004F0809643D81053A9FB90046429
:103D30007432F07B017A047967E0FF900667E4F063
:103D4000A3EFF0E4FD122CC1E4900462F09004644F
:103D5000E0FF900462E0C39F5054E490049CF0A301
:103D6000F090049CE0FEA3E0FFC39440EE941F504B
:103D70002C30D819C2D8900462E02467F582E4346C
:103D800004F583E5D9F0E4900461F0801090049D7F
:103D9000E004F0700690049CE004F080C4C3EF944B
:103DA00040EE941F5008900462E004F0809F90045D
:103DB00061E0700A900460F09004637403F0900472
:103DC00099E0FBA3E0FAA3E0F912004E900464EF3F
:103DD000F0900460E06002C17C900466E075F00A37
:103DE000A4245DF582E4340BF583E493605BE490F6
:103DF0000462F0900466E0FF75F00AA4245DF58289
:103E0000E4340BF583E493FE900462E0FDC39E501E
:103E10006BEF75F00AA4245EF582E4340BF583E4BD
:103E2000932D2467F582E43404F583E0FF90045D6C
:103E3000E0FBA3E0FAA3E0F98D82758300EF1205A1
:103E4000E1900462E004F080AAE4900462F090043F
:103E500062E0FF2467F582E43404F583E0FE900419
:103E60005DE0FBA3E0FAA3E0F98F82758300EE1218
:103E700005E1900462E004F0E0B406D27F04D1943E
:103E8000900463E004F0E0C394035002619C90044A
:103E900060E0FF2290049EEFF030E202801890FF75
:103EA000E3E04420F053B0DF7F037E00121F5B90FD
:103EB000049EE030E00A90FFE3E04420F043B020AD
:103EC0002290011CE07F01B401027F0022900406D1
:103ED000EFF0A3EBF0A3EAF0A3E9F0780B7C047D0C
:103EE000017BFF7A0C793B7E007F32120530900413
:103EF0003D7401F0900406E0FF7B017A04790B71B8
:103F00000DEF702B900407E0F9A3E0FAA3E0900610
:103F1000ACC9F0A3EAF0A3E9F090040AE09006AF80
:103F2000F07B017A04790B122256E490043DF09064
:103F3000043DE0FF2290040A740CF07F08808E900C
:103F4000040A740CF07F0A80849003FDEBF0A3EA6E
:103F5000F0A3E9F078017C047D017BFF7A0C799A6B
:103F60007E007F051205307B017A04790190040AF6
:103F70007405F07F11D1CD900400EFF070327F0115
:103F800074012FF582E43404F583E0FE6429602097
:103F9000EF24FFFDE434FFFC9003FDE0FBA3E0FA17
:103FA000A3E0F98D828C83EE1205E10FEFB405D00A
:103FB000900400E0FF22C0E0C0F0C083C082C0D007
:103FC00075D000C000C003C004C005C006C007759E
:103FD000B755ABB675B700E5E830E43475E8009046
:103FE000000AE090000930E205E004F0800EE0FFF6
:103FF000900008E02FF0E004F0A3E4F090FFE1E08F
:104000004410F05390EF9002C212084E00000000DE
:1040100075B755AF038FB675B700D007D006D0057A
:10402000D004D003D000D0D0D082D083D0F0D0E064
:1040300032C0D075D000C00775B755AFB675B700A0
:1040400053A8F753883F75B7558FB675B700D0079B
:10405000D0D032C0E0C0F0C083C082C0D075D000E4
:10406000C000C001C002C003C004C005C006C00734
:1040700075B7559003CCE5B6F075B7005388DF757A
:104080008AC0758CE0E5C730E607900307E044027C
:10409000F0E47F50FEFDFC9002C2E0F8A3E0F9A33B
:1040A000E0FAA3E0FBC31207C150439002C2E0FC58
:1040B000A3E0FDA3E0FEA3E02401FFE43EFEE43D17
:1040C000FDE43CFC9002C2120842E47F50FEFDFC7D
:1040D0009002C2E0F8A3E0F9A3E0FAA3E0FBC31268
:1040E00007C1400A90FFE1E04410F04390109002B5
:1040F00088E0FCA3E0FDA3E0FEA3E0FFA3120842DA
:1041000074FFFFFEFDFC900288E0F8A3E0F9A3E055
:10411000FAA3E0FBC31207C1900288501EE0FCA383
:10412000E0FDA3E0FEA3E02401FFE43EFEE43DFD4C
:10413000E43CFC900288120842800712084E0000FE
:10414000000075B7559003CCE0F5B675B700D00701
:10415000D006D005D004D003D002D001D000D0D0FA
:10416000D082D083D0F0D0E032C0D075D000C0076C
:1041700075B755AFB675B70053A8DF53C83375B7D9
:10418000558FB675B700D007D0D032C0D075D000EB
:10419000C00775B755AFB675B70053A8BF53C11F59
:1041A00075B7558FB675B700D007D0D032C0D0756F
:1041B000D000C00775B755AFB675B70053A9FE75E7
:1041C000B7558FB675B700D007D0D032C0E0C083E6
:1041D000C082C0D075D000C00775B755AFB675B7EF
:1041E0000090FFB6E4F090FFB7F053A9FD75B75506
:1041F0008FB6F5B7D007D0D0D082D083D0E032C010
:10420000D075D000C00775B755AFB675B70053A9C4
:10421000DF75C60075B7558FB675B700D007D0D01B
:1042200032C0E0C083C082C0D075D000C005C007D6
:1042300075B755ADB675B70090FFD0E054FCF0539C
:10424000A9FD75B755AF058FB675B700D007D00576
:10425000D0D0D082D083D0E03278E47C037D017B63
:10426000FF7A0C796D7E007F14120530E49003FB19
:10427000F0A374FFF07B017A0379E4E4FF123B0DB5
:104280009003FCEFF0BF01037FFF229003FCE0B43A
:1042900006037F03229003F87401F0A37403F0A3D4
:1042A00074E4F0E4A3F09003FBE0FFC39406503DF8
:1042B000EF25E02465F582E4340AF583E0FEA3E00F
:1042C000AA06F97BFFC003C0029003F8E0FBA3E05D
:1042D000FAA3E0F8AC02AD03D002D003120A5DEFFE
:1042E00070030080089003FBE004F080B99003FBAA
:1042F000E0FFC394065003A3EFF09003FCE0FF221D
:104300009003FDEBF0A3EAF0A3E9F0E4A3F0780159
:104310007C047D017BFF7A0C7995FE7F05120530C8
:104320009003FDE0FBA3E0FAA3E0F912004E900435
:1043300000EFF0D39403504BA37428F09006AC74B4
:1043400001F0A37404F0A37402F0900400E090065E
:10435000AFF09003FDE0FBA3E0FAA3E0F9122256D0
:10436000900400E0FF2402F582E43404F58374290C
:10437000F07B017A047901EF2402900425F07F108C
:10438000023A0E7F0122900AAF7401F022900AAB2C
:10439000E4F0900AACE4F090FFE8E0FFEF4480FF27
:1043A00090FFE8EFF090FFE8E0FFEF54BFFF90FFD1
:1043B000E8EFF053EC7F900AACE4F0900AACE0FF39
:1043C000EFC3940850337186900AABE0FFEF25E00D
:1043D000FF900AABEFF043EC80E5EC30E60E900A7C
:1043E000ABE0FFEF4401FF900AABEFF0718653ECB6
:1043F0007F900AACE004F080C290FFE8E0FFEF4459
:1044000040FF90FFE8EFF043EC4043EC801226249D
:1044100053EC7F900AABE0FF22900AA9E4F0900AE7
:10442000AA7408F090FFE8E0FFEF4480FF90FFE8F7
:10443000EFF090FFE8E0FFEF54BFFF90FFE8EFF0F0
:1044400053EC7F900AAAE4F0900AAAE0FFEFC3942D
:1044500008503D7186900AA9E0FFEF25E0FF900A21
:10446000A9EFF043EC80E5EC30E60E900AA9E0FFFE
:10447000EF4401FF900AA9EFF07186900AA9E0FFCE
:10448000900AA9EFF053EC7F900AAAE004F080B8FC
:1044900090FFE8E0FFEF4440FF90FFE8EFF053ECBF
:1044A000BF43EC8012262453EC7F43EC40900AA9D2
:1044B000E0FF2290FF84E0FFEF54FFFF90FF84EFC6
:1044C000F090FF85E0FFEF54FEFF90FF85EFF09046
:1044D000FFE9E0FFEF4401FF90FFE9EFF053EDFE4D
:1044E00022900A91740EF0900A8CEEF0A3EFF090F7
:1044F0000A8EEBF0A3EAF0A3E9F0900A8CE0FEA3A9
:10450000E0FF900A92EEF0A3EFF0900A8CE0FEA399
:10451000E0FFEF5407FFC374089FFF900A94EFF089
:10452000900A95E4F0900A94E0FF900A91E0FEEE84
:10453000C39F500A900A91E0FF900A94EFF0900A0E
:1045400092E0FEA3E0FF900A8EE0FBA3E0FAA3E076
:10455000F9900A95E0FD7C00E92DF9EA3CFA900A11
:1045600094E0FD900A7AEDF0122417EFB401037F76
:104570000122900A94E0FF900A95E02FF0900A95AE
:10458000E0FF7E00900A8CE0FCA3E0FDEF2DFFEE43
:104590003CFE900A92EEF0A3EFF0900A95E0FF90B7
:1045A0000A91E0FEC3EE9FFF900A94EFF0900A9408
:1045B000E0FFEFD394084006900A947408F0900A44
:1045C00094E0FFEF6002A13E7F0022900A96EEF099
:1045D000A3EFF0900A98EDF0900A99EBF0C0A8C212
:1045E000AF900A98E0FF8FEF900A96E0FEA3E0FFFD
:1045F000EF54FFF5EE900A96E0FEA3E0FFEEFF7E9B
:10460000008FF775A701900A99E0FFEFB468137562
:10461000F26E75F30575F40A75F50975F606000076
:10462000000075A70075F700D0A822900660EBF097
:10463000A3EAF0A3E9F090065EEEF0A3EFF0900697
:1046400064E02FFF900663E03EFED3EF9400EE940B
:104650001040037FFF22D3900664E094009006632D
:10466000E094004045900660E0FBA3E0FAA3E0F987
:10467000120556FC90065EE0FEA3E0FFAD047B68E9
:10468000B1CB90065FE004F0700690065EE004F0A7
:10469000900661E475F00112066A900664E024FF5A
:1046A000F0900663E034FFF080AC7F00228F828EB2
:1046B00083E4FFEDB4680FC0A8C2AF75A701E4930F
:1046C000FFE4F5A7D0A8227B017A04795E90045A12
:1046D000E0FCA3E0FD9006637402F0A3E4F0900612
:1046E00061ECF0A3EDF0900664E02DFF900663E02E
:1046F0003CFED3EF9400EE941040037FFF22D39052
:104700000664E09400900663E094004035900661F2
:10471000E0FEA3E0FF7D68D1ADEF1205CF74012963
:10472000F9E43AFA900662E004F07006900661E05F
:1047300004F0900664E024FFF0900663E034FFF09C
:1047400080BC7F0022EEF0A3EFF07B68E4FDFF7EEB
:104750000CF15A7B68E4FDFF7E0D900A9AEEF0A3FF
:10476000EFF0900A9CEDF0900A9DEBF0C0A8C2AF6C
:10477000900A9CE0FF8FEF900A9AE0FEA3E0FFEF23
:1047800054FFF5EE900A9AE0FEA3E0FFEEFF7E00F4
:104790008FF775A701900A9DE0FFEFB4681375F2DB
:1047A000E675F30575F40A75F50975F6060000005F
:1047B0000075A70075F700D0A82290FFE5E054FB34
:1047C000F090FFF5E04404F02290FFE1E054FEF0A9
:1047D00090FFF1E04401F022F1BAE5E920E22990EE
:1047E0000280E004F0700690027FE004F0C39002C3
:1047F00080E094FA90027FE09400401AE4F0A3F085
:10480000900311E04401F022E490027FF0A3F090C5
:104810000311E054FEF0221247C9900312E030E287
:1048200015E59030E00201B7E04401F0E054FBF000
:10483000E4900234F022900312E030E061E5902031
:10484000E06A900234E004F0E0FF7408D39F506700
:10485000900312E04402F0E054FEF0E4900234F0E1
:10486000900310E04408F090023012084E0000005F
:104870003C900228741EF0900235E0700B90023CD0
:10488000F09002357468F02290023CE004F0900150
:10489000E7E0FF90023CE0C39F401CE4F02290035D
:1048A00012E030E107E59030E00D8000E490023442
:1048B000F09003127404F022EF146021047024318C
:1048C000257FFF11E443D18090FFE1E04408F053DD
:1048D00090F790FFE9E04402F053EDFD223125E42A
:1048E000FF11E422E4FE743D2EF582E43402F583E8
:1048F000EFF00EEEB428EF7F007E25E4FD743D2D31
:10490000F582E43402F583E0FCEF2DF582E43EF518
:1049100083ECF0743D2DF582E43402F583E4F00D70
:10492000EDB428D92253D17F314990FF8074F0F043
:1049300090FF817403F090FF8274FEF090FF837407
:1049400001F090FF8574FCF022E5D1547064306072
:104950000653D18F43D130E5D15407640760065325
:10496000D1F843D107E5D254076402600653D2F868
:1049700043D202225380FD000043800453807F22F3
:10498000900283E0601EE014F0E0FF7E00BE0205AE
:10499000BF400231A7900283E0FF7E00BE0107BF47
:1049A000900480D031A7225380FD005380FB5380B8
:1049B0007F2243800200005380FB4380802290FFCF
:1049C000E7E054DFF090FFF7E054DFF0E49004906C
:1049D000F090FFE5E04408F053E9F7E490048FF02D
:1049E000900490E0FF25E0F090FFE5E04408F043FC
:1049F000E908121FCBE5EB30E507900490E0440195
:104A0000F090FFE5E04408F053E9F7121FCB0000F7
:104A100090048FE004F0E0C3940840C490FFE5E008
:104A20004408F053E9F7900490E0FF223EF583E05C
:104A3000FF900498EFF090FFE7E054DFF090FFF76D
:104A4000E054DFF090FFE5E04408F053E9F7E4902C
:104A50000499F090FFE5E04408F043E908900498D9
:104A6000E090FFE730E709E04402F043EB02800703
:104A7000E04402F053EBFD121FCB90FFE5E0440849
:104A8000F053E9F7900498E0FF25E0F0121FCB0007
:104A900000900499E004F0E0C3940840B690FFE56C
:104AA000E04408F053E9F7227E00121F5B90FFE715
:104AB000E054DFF090FFF7E054DFF090FFE5E044D2
:104AC00008F043E908121FBF90FFE3E04410F043F1
:104AD000B010121FCB90FFE3E04410F053B0EF2270
:104AE000900477E0FD900480EDF0E4FF7E08EF2570
:104AF000E0FFEE7C0024FFF582EC34FFF583120525
:104B00006FFD900480E05D60010FDEE2229004738F
:104B1000EBF0A3EAF0A3E9F09004777440F0E4909E
:104B20000476F0900476E0FFC394085036EFB404A6
:104B300004A37480F0900473E0FBA3E0FAA3E0F90F
:104B400051E0900476E02478F582E43404F583EFB4
:104B5000F0900477E0FF1313543FF0900476E004E4
:104B6000F080C0900473E0F9A3E0FAA3E09006ACF3
:104B7000C9F0A3EAF0A3E9F0A37408F07B017A047A
:104B8000797802225690048974FFF0A3740EF0A382
:104B900074C7F0A374FFF0A3740EF0A374FFF0A326
:104BA0007407F0900486EBF0A3EAF0A3E9F0E4F5D3
:104BB0002090049004F090048FE075F008A4240184
:104BC000FFE435F0FEA3E0FDC39FEE6480F874803F
:104BD00098507DE52025E0F520EDFF7E0024FFFDC7
:104BE000EE34FFFC900489E0FBA3E0FAA3E0F98D2A
:104BF000828C8312056FFD900486E0FBA3E0FAA38C
:104C0000E0F98D8275830012056FFDEF24FFFFEE42
:104C100034FFFE90048CE0FBA3E0FAA3E0F98F825E
:104C20008E8312056F5D60020520900490E0FF54B2
:104C3000077015EF131313541F2490F582E4340406
:104C4000F583E520F0E4F520900490E004F061B6EF
:104C5000900486E0F9A3E0FAA3E09006ACC9F0A3C3
:104C6000EAF0A3E9F090048FE09006AFF07B017AC0
:104C7000047991022256900473EBF0A3EAF0A3E9C1
:104C8000F02404F9E43AFA9006AC7401F0A3740439
:104C9000F0A3747AF0A37404F0122256900489747D
:104CA000FFF0A3740FF0A374D7F0A374FFF0A37404
:104CB0000FF0A374A7F0A37406F07B017A04797A4D
:104CC00071A3E4900479F0900479E0FF247AF582EE
:104CD000E43404F583C083C082E0FE900476E0FBF8
:104CE000A3E0FAA3E0F98F8275830012056FFFEE4F
:104CF0006FD082D083F0900479E004F0E0B406C76E
:104D0000E4900479F0900479E0FFC394024002C17A
:104D10002DE0FE75F003A4247AF582E43404F583D3
:104D2000E0FDC45430FCEE75F003A4247BF582E46E
:104D30003404F583E0C4540F4CF520ED1313543FB5
:104D4000FE900479E0FD75F000A42447F582E5F0BB
:104D50003410F583ED2583F583E5822EF582E43565
:104D600083F583E493FE75F000EDA42487F582E5D6
:104D7000F03410F583ED2583F583E5822520F58257
:104D8000E43583F583E493FDEE4DFE900479E0FD78
:104D900025E02482F582E43404F583EEF0ED75F02D
:104DA00003A4247BF582E43404F583E025E025E0C8
:104DB000543FFEED75F003A4247CF582E43404F541
:104DC00083E0FDC4131354034EF520ED543FFE90D1
:104DD0000479E0FD75F000A42407F582E5F03411B4
:104DE000F583ED2583F583E5822EF582E43583F5A1
:104DF00083E493FE75F000EDA424C7F582E5F0345A
:104E000010F583ED2583F583E5822520F582E435D1
:104E100083F583E4934EFEEF25E02483F582E434AA
:104E200004F583EEF0900479E004F0A10590048984
:104E300074FFF0A37410F0A37427F0A374FFF0A321
:104E40007410F0A37407F0A37404F07B017A047962
:104E50008271A3E4900479F0900479E0FFC3940494
:104E6000505B7E00EF2404FDEE33FC900473E0FB06
:104E7000A3E0FAA3E0F98D828C8312056FF52090F0
:104E80000479E0FDF58275830012056FFC74822DB4
:104E9000F582E43404F583E06CFD74042FF582E4BC
:104EA00033F583ED1205E1900479E0F58275830016
:104EB000E5201205E1900479E004F0809B22900443
:104EC00073EBF0A3EAF0A3E9F0A3EDF0120556901E
:104ED0000477F090000112056F900478F0900002C2
:104EE00012056F900479F090000312056F54F09052
:104EF000047AF0BD0233900477E0FCA3E0FDA3E068
:104F0000FEA3E0FF78011207E590047712084290B3
:104F10000473E0FBA3E0FAA3E0F912055630E7447E
:104F200090047AE04410F0803B900477E0FCA3E02A
:104F3000FDA3E0FEA3E0FF78011207D290047712F0
:104F4000084290047AE054F0F0900473E0FBA3E090
:104F5000FAA3E0F990000312056F30E4079004779C
:104F6000E04480F0900473E0FBA3E0FAA3E0F99042
:104F7000000312056F540F90047BF090000412059B
:104F80006F90047CF090000512056F90047DF09006
:104F9000000612056F90047EF0900476E0640270C3
:104FA0003D90047BE0FCA3E0FDA3E0FEA3E0FF78DE
:104FB000011207E590047B12084290047BE0540F35
:104FC000F0900473E0FBA3E0FAA3E0F99000031271
:104FD000056F30E33D90047EE04401F0803490049E
:104FE0007BE0FCA3E0FDA3E0FEA3E0FF7801120755
:104FF000D290047B120842900473E0FBA3E0FAA372
:10500000E0F990000612056F30E00790047BE04461
:1050100008F090047AE0FFA3E0FEEF4E90047AF0EF
:1050200090047CE090047BF090047DE090047CF0A0
:1050300090047EE090047DF0900473E0F9A3E0FA20
:10504000A3E09006ACC9F0A3EAF0A3E9F0A37407CB
:0A505000F07B017A04797702225602
:10800000EF14602104703BE5876003E4F587539823
:10801000F74398C0E4FF11D690049EE599F0539879
:10802000EC43A81022E5876003E4F58753D8F343B7
:10803000D8C07F0111D690049EE5D9F053D8EC4307
:10804000A90422EF14605104600201D5E5876003A2
:10805000E4F587E598440860035398F7E59854C021
:1080600064C060034398C090FFE2E054BFF090FF0B
:10807000F2E054BFF090FFE2E04480F043A080E4DF
:10808000FF11D6E4FF1201919003EAE599F05398AD
:10809000FC43981043A81022E5876003E4F587535A
:1080A000D8F343D8C090FFE3E054FEF090FFF3E034
:1080B00054FEF090FFE3E04402F043B0027F011170
:1080C000D67F011201919003EAE5D9F053D8FC4321
:1080D000D81043A90422EF14602C04704CE59D6471
:1080E000CC6003759DCCE59C647F6003759C7FE547
:1080F0009E540F64016006539EF0439E01E59C2050
:10810000E727439C8022E5DD64F3600375DDF3E53A
:10811000DC647F600375DC7FE59E54F06003539E52
:108120000FE5DC20E70343DC8022E4FF11437F01FD
:1081300011437F0211437F030143E4F5B1F5A8F534
:10814000A9F1AB12AB8212B2225171F1A612A9377A
:1081500012B506312A315CD2AF7F002253957F538E
:10816000A9FEF18A7B017A0779C8900663E4F0A33F
:108170007472F07D007C0C121E04EF603F121DF142
:10818000EF6039E49003F2F09003F2E0FBC3941C3B
:10819000502AEB25E025E02455F582E43419F583D7
:1081A000120832EB25E025E024C8F582E43407F517
:1081B000831208429003F2E004F080CCF11F7B01AF
:1081C0007A0379EF900667E4F0A37403F0E4FD12FC
:1081D0002CC19003F87408F0A37484F07B017A0337
:1081E00079F0FD7C081234A07B017A0379EF7D03DE
:1081F000B1C7E49003F2F09003F2E0FFC3941C5087
:108200003CEF25E025E024C8F582E43407F583E05F
:10821000FCA3E0FDA3E0FEA3E0FF7B017A0379F479
:108220001234C49003F4E0FF9003F3F0FD7B017A75
:108230000379F5B1C79003F2E004F080BA7B017ACC
:108240000379EF900667E4F0A37403F0E4FD122CC9
:10825000C19003F874F8F0A37484F07B017A037979
:10826000F0FD7CF81234A07B017A0379EF7D03A145
:10827000C77B017A037907900667E4F0A3740EF0D8
:10828000E4FD122CC17B017A027988900667E4F044
:10829000A3743EF0E4FD122CC17B017A0179E490D5
:1082A0000667E4F0A37481F0E4FD122CC17B017A2F
:1082B00003796F900667E4F0A37410F0E4FD122CCC
:1082C000C17B017A007908900667E4F0A37408F096
:1082D000E4FD122CC17B017A007900900667E4F07E
:1082E000A37408F0E4FD122CC17B017A0279C690D8
:1082F0000667E4F0A3740AF0E4FD122CC17B017A56
:108300000279D0900667E4F0A37429F0E4FD122C02
:10831000C17B017A02797F900667E4F0A37409F0CB
:10832000E4FD122CC19003147401F012B86F12BC5A
:1083300097F1D512B5CC12B5181296B912AA0FE45E
:108340009009B0F090030DE054FBF0E4900237F098
:10835000900307E04401F0900310E04403F0900123
:10836000E4E0FF7E007C037DE81206037C017DF4DF
:10837000120615E4FCFD90023012084290031274BC
:1083800004F09001E4E0900228F0900229F07B01D3
:108390007A03790AE4FD7F0FFE122013EF6005E4F3
:1083A00090030AF090030AE030E60790030DE044E2
:1083B00020F0E490045AF0A3F07B017A047941FDA7
:1083C0007F11FE12201390030AE030E56D7B017AE5
:1083D00004795112352A900460120842900460E03A
:1083E000FCA3E0FDA3E0FEA3E0FFEC4D4E4F6037A1
:1083F00090045CE0F8A3E0F9A3E0FAA3E0FBC31269
:1084000007C1400F90045A7401F090030AE030E471
:10841000298021E490045AF0A3F090030AE054DF8D
:10842000F0E054EFF0801390045A7401F090030AC6
:10843000E030E40690045B7401F07B017A0479413A
:1084400012352A900460120842900460E0FCA3E018
:10845000FDA3E0FEA3E0FF90045CE0F8A3E0F9A335
:10846000E0FAA3E0FBC31207C15002A17290030E11
:10847000E04401F07B017A04794512353890045CC0
:10848000120842900460E0FCA3E0FDA3E0FEA3E03C
:10849000FF90045CE0F8A3E0F9A3E0FAA3E0FBC3DB
:1084A0001207C15002A16990030EE020E104E044EC
:1084B00002F0E4FFFEFDFC900460E0F8A3E0F9A305
:1084C000E0FAA3E0FBC31207C16002A15390030EC0
:1084D000E020E204E04404F07B017A03796712357E
:1084E0003890045C120842E4FFFEFDFC90045CE05E
:1084F000F8A3E0F9A3E0FAA3E0FBC31207C1600D03
:1085000090030EE020E30DE04408F0800790030E96
:10851000E054F7F07B017A04794D1235389004600D
:10852000120842900460E0FCA3E0FDA3E0FEA3E09B
:10853000FF90045CE0F8A3E0F9A3E0FAA3E0FBC33A
:108540001207C190030AE040054420F0803254DF56
:10855000F0802D90030EE054F7F090030AE054DF12
:10856000F090030EE054FB800F90030EE054E1F016
:10857000800E90030EE054E0F090030AE054EFF018
:1085800090045AE0B4010790030AE04420F09004FC
:108590005BE0B4010790030AE04410F090030AE0A6
:1085A00030E504E04410F07B017A03790AE4FD7FB2
:1085B0000FFE021B5EF583E09003FEF07B017A0361
:1085C00079FC9003FBE0FD90040BEDF01205569052
:1085D000040CF090000112056F90040DF090000261
:1085E00012056F90040EF012977E121FCC90040BB0
:1085F000E04480FF124A3190040F7403F090040F9E
:10860000E0FFD39400401A74039FFFE49400FE74CB
:108610000C2FF5827404124A2C90040FE014F080A1
:10862000DC121FE6129628E490040FF090040FE08D
:10863000FFC3941C4002E11EEF25E025E02455F520
:1086400082E43419F5831208327B017A047910121E
:1086500034C490040BE0FF900410E06F6002E11658
:10866000EFF09006AC7401F0A37404F0A37411F061
:10867000A37403F07B017A04790C1222567B017AF1
:1086800008794B900663E4F0A37472F07D007C0CD3
:108690001246DE90040FE075F004A4244BF9740830
:1086A00035F0FA9006AC7401F0A3EAF0A3E9F0A368
:1086B0007404F07B017A0479101222569006AC748F
:1086C00001F0A37407F0A374C8F0A37470F07B01E9
:1086D0007A08794B1222567B017A0779C87D707C23
:1086E00000121D829008381247457B017A0779C82D
:1086F000900663E4F0A37472F07F007E0C12462BA8
:108700007B017A0779C8900663E4F0A37472F07F66
:10871000007E0D02462B90040FE004F0C12C227B5A
:10872000017A047903122CB690040274C3F07B0121
:108730007A047903FDB1C77F197E00121F5B7F1990
:10874000124AA8121FCCE4900407F0900407E0FF3F
:10875000C3940B5034EF25E025E024C5F582E434C2
:1087600019F5831208327B017A0479031234C4901C
:108770000403E0FF900402F0FD7B017A047904B168
:10878000C7900407E004F080C2227B017A0379FAE3
:10879000122CB67FD37B017A0379FA7DD3B1C77FE0
:1087A00001124AA8E11FE4FF0248B853A9DF75E7A8
:1087B00055E4F5C675E755F5C775E755F5B412B933
:1087C00014BF010312AB7CE5C730E6037F012253DF
:1087D000A9DF7F00229003E47401F0E4A3F090038A
:1087E000E5E0FFC3940B503EEF25E025E024C5F5FE
:1087F00082E43419F5831208321288A99006617454
:1088000001F0A37403F0A374ECF0A37403F0A37459
:1088100055F07B017A0379E812326CBF02089003AD
:10882000E5E004F080B89003E5E0C3940B40697183
:10883000CCEF64016062E49003E5F09003E5E0FFB3
:10884000C3941C5045EF25E025E024C8F582E434AC
:1088500007F583E0FCA3E0FDA3E0FEA3E0FF11A980
:108860009006617401F0A37403F0A374ECF0A37498
:1088700003F0A37455F07B017A0379E812326CBFE0
:1088800002089003E5E004F080B19003E5E0C394B2
:108890001C4005E49003E4F09003E4E0B401099087
:1088A0000314E0700312815C227B017A0379EB12DE
:1088B00034C49003EBE0FF9003E6F07B017A037988
:1088C000E890048E7401F090048AEFF0A3EBF0A31B
:1088D000EAF0A3E9F0A3E0FF71F7121FCC90048A3D
:1088E000E0547FFF124A31121FCB1249BE90048B15
:1088F000E0FBA3E0FAA3E0F9EF1205CF1249BE9026
:10890000048BE0FBA3E0FAA3E0F9900001EF12056D
:10891000E11249BE90048BE0FBA3E0FAA3E0F990DA
:108920000002EF1205E1021FE69003FAEFF0E4A364
:10893000F09003FAE075F0ADA42496F582E5F034EA
:1089400000F583E06401600261299003FCF090036C
:10895000FCE0FFC394084002412F9003FAE0FE754B
:10896000F0ADA42495F582E5F03400F583E0FDEF49
:1089700025E025E024F1F582E43419F583E4936DD4
:108980006002412775F0ADEEA42494F582E5F03441
:1089900000F583E0FFF460299003FEEFF0E0FF9024
:1089A00003FCE025E025E024F2F582E43419F583A8
:1089B000E5822FF582E43583F583E493122F8361FA
:1089C000BEE49003FDF09003FDE0FFC3940340027A
:1089D00061BE9003FCE025E025E024F2F582E4345A
:1089E00019F583E5822FF582E43583F583E493FF5F
:1089F0009003FEF07B017A04790011C1E49003FF3B
:108A0000F09003FAE075F0ADA42498F9740035F005
:108A1000FA9003FDE075F004A429F9EA122FA99059
:108A200003FDE004F0809F9003FCE004F0214EE49D
:108A30009003FCF09003FCE0FFC39403400261C488
:108A40009003FAE0FE75F0ADA42495F582E5F034CC
:108A500000F583E0FDEF75F005A42411F582E43400
:108A60001AF583E4936D6002612175F0ADEEA424E4
:108A700094F582E5F03400F583E0FFF4603890036C
:108A8000FEEFF0E0FF9003FCE075F005A42412F582
