:020000040000FA
:10000000005E0020D500000089AA0000057B0000EA
:1000100000000000000000000000000000000000E0
:10002000000000000000000000000000E1000000EF
:100030000000000000000000E3000000E5000000F8
:10004000F172010035F2000061C20000E70000001B
:10005000AD5F0000E7000000E7000000E7000000DF
:10006000E70000007D060100B5060100ED06010075
:10007000E7000000E700000029070100E70000009A
:10008000E7000000E7000000E7000000E7000000D4
:10009000E7000000E7000000E7000000E7000000C4
:1000A000191D00008D1D0000E7000000F154000044
:1000B000E7000000B5590000E70000000000000064
:1000C0000348854600F0ACFD00480047B1790100C7
:1000D000005E00200448804704480047FEE7FEE732
:1000E000FEE7FEE7FEE7FEE7D5020100C1000000E3
:1000F00030B50B46014600202022012409E00D46C0
:10010000D5409D4205D31D469540491B2546954047
:1001100040191546521E002DF1DC30BD70B500248B
:100120002546002801DA01244042002901DA012590
:100130004942FFF7DDFFAC4200D04042002C00D026
:10014000494270BDF0B51FB40646002082B0054696
:100150004024019100901BE0019922460F46304651
:1001600000F093F8049A059B801A994110D3104629
:100170001946224600F079F8361A8F410197224637
:1001800001200021009F00F070F838184D410090C8
:100190002046641E0028DFDC019B00982946324679
:1001A00007B0F0BDF8B500242546002904DA0E4654
:1001B000012400214042B141002B04DA1E460023F5
:1001C00052420125B341FFF7BDFF8C4617461E463C
:1001D000AC4203D0002540428D41AC46002C02D0F9
:1001E000002657429E4161463A46334601B0F0BD73
:1001F000F0B51FB486B000200090019002900698E0
:10020000069980B204900798090C02040014114367
:1002100007900027089D099806913E463C460390AA
:100220000398A9B20204000C039004982D0C154306
:1002300048430021224600F018F8C71971411034D4
:100240000E46402CECDB3846029A00F00EF8009A7D
:10025000019B801800905941029801911030029042
:100260004028CCDB00980BB0F0BD10B5202A04DB91
:100270000146203A9140002010BD914020239C1A55
:100280000346E3401943904010BD10B5202A04DB1B
:100290000846203AD040002110BD0B46D340D04044
:1002A0002024A21A91400843194610BD03460B436F
:1002B0009B0703D009E008C9121F08C0042AFAD21C
:1002C00003E00B780370401C491C521EF9D27047A2
:1002D000D2B201E00270401C491EFBD270470022DE
:1002E000F6E710B513460A4604461946FFF7F0FF35
:1002F000204610BDF8B502464A40D40F42004B00DC
:1003000052085B089A4202D20246084611464A0049
:1003100023D0C30D4A00DDB2120EAD1A202D35DAFE
:1003200049020126490AF6058A19002C00D05242DA
:1003300020214F1B1146B9402A411018C20D9A4284
:1003400021D0002C17D0012D08DCDA05801AD20F3D
:100350008019D207DBB200F0CAFBF8BDDA05801ABB
:10036000012340001B06C01880185A428018CA0F8B
:100370001043490007E04908C2071143DA05801A13
:1003800080194008801800F0AAFBF8BD6100012226
:10039000511A001BF7E70122D2075140AAE70122B8
:1003A000D2075040A6E7024670B54A40D30FDB079C
:1003B00040002DD04A002AD0010E140E0002120275
:1003C0000919400A520A8418E50104465443000AF8
:1003D000120A2E045043A4194219200CC543AA182E
:1003E000120C0125AD03521C521912047F3924044A
:1003F00000D0521C104301D44000491EC2B20C066A
:10040000C0092018401C4008802A02D003E00020C8
:1004100070BD40084000002900DA0020184370BD7C
:1004200070B502464A40D50F40004A00ED0740082B
:100430005208002814D0002A12D0C40DD30D410256
:100440000120C0055202490A520AE41A091812187A
:100450007D34914201D3641C00E04900002C01DA94
:10046000002070BD0023914201D3891A0343400844
:1004700049000028F7D100290AD0914202D1012178
:10048000C90705E0914201D2012101E00121C943E0
:10049000E005C018401900F022FB70BD420005D0F5
:1004A0004200120E52428A4201DB00207047C90509
:1004B00008187047F0B507460846584087B0C00F87
:1004C000049048000E46590040084908BC1A88416B
:1004D00005D2384631461E4617460B46024658009E
:1004E000400810434CD0300D039040055900400D9A
:1004F000490D0590401A0290402872DA1803012134
:10050000000B09050843019004980092002805D0CB
:1005100001995242002088410092019002984021A6
:100520000A1A01990098FFF7A0FE05460C466B4693
:1005300007CB00F0C1FAC0197141039A0E0D0023D8
:10054000D71756401A467A40164344D0049A002AD8
:100550002DD0029A012A039A15DC1205C01A914186
:1005600001263605001C7141D20F059ED20700936B
:10057000019202962A46234600F0FFFA07B0F0BD2A
:1005800038463146FAE71605224A0F46B218C01A15
:10059000B74101210905001C4F4100187F41114658
:1005A00018187941E20F10436D19644113E0E20716
:1005B0006D0815436408C2071443039A0126120507
:1005C000C01A91413605001C7141CE0740083043E6
:1005D0004908C01851412A46234600F0C1FACDE728
:1005E000FFE7049801224000C117121A00238B4133
:1005F00004983146C417381AA141EEE730B40124FB
:10060000E407634030BC55E730B40124E40761409F
:1006100030BC4FE70000E0FFF0B51FB488B00B9985
:100620000998002448400999C00F490049080991D8
:10063000C0070B990090490049080B910999089847
:10064000A64608431CD00B990A98084318D009986D
:1006500001244000420D4800410D09982405000383
:10066000000B204309900B980003000B20430B90D4
:1006700050181C494018002201901446104605E00D
:10068000002001460DB0F0BD032801DA034600E06A
:1006900003239C46C11A0AAE0AE05F0008ADED5B79
:1006A0004F00F75B7D430027AA187C41491C5B1E65
:1006B0006145F2DD410004AB5A522104120C0A4399
:1006C000240C401C0828DFDB01980290009970463A
:1006D00001910090059B049A0799069800F04DFA45
:1006E000D0E700000DFCFFFFF0B50C465C4085B084
:1006F000E40FE40703944C00002664085900944674
:10070000490802460296224321D062460A431ED07F
:100710006200570D4A000E032303550D01240246C3
:100720002C492405781B1B0B360B4018234326430A
:10073000614600901C46501AB44103D30098401CF7
:10074000009002E0921800985B41002803DA002034
:10075000014605B0F0BD0020012109050746864687
:1007600011E064461D46141BB54106D36546521B75
:10077000B341744607430C43A646CD0740084908D9
:10078000284392185B4105460D43EAD110461843B1
:1007900013D06046194650407140084306D0604669
:1007A000101AB34106D20122002306E000220123E1
:1007B000DB0702E00122D243531000987446010582
:1007C000381C6141029C039D0019694100F0C8F981
:1007D000BFE70000FD03000070B54B005B0803435A
:1007E0000BD04B005C0D002633466542B341D41755
:1007F000AD1AA34102DB0020014670BD120530187E
:10080000514170BDC217C10F504010B54018CA0702
:100810009623002100F06BF910BD10B5002296233D
:10082000114600F064F910BD0EB5C217C10F50405B
:10083000CA0740180021054B0293019200910A4615
:100840000B4600F09AF903B000BD0000330400002D
:100850000EB505490291002100910A460B4601910F
:1008600000F08BF903B000BD330400003EB5CA1799
:10087000CB0F002450405140C0186141DA07054BAE
:100880000293019200942246234600F076F903B0C9
:1008900030BD000033040000C20F410040020123BC
:1008A000400ADB05D207090EC0187F2901DA0020B3
:1008B0007047962903DC9623591AC84001E09639FF
:1008C0008840002AF4D04042704741004002012293
:1008D000400AD205090E80187F2901DA00207047EE
:1008E000962903DC9622511AC840704796398840F1
:1008F0007047000070B5CD0F4A0009030123090BB2
:100900001B0519430B4BED070024520D9A4201DAE7
:10091000002070BD074B34339A4203DC9A1AFFF76C
:10092000B4FC02E00449511888402C43F1D0404205
:1009300070BD0000FF030000CDFBFFFF4A0009036C
:100940000123090B1B051943094B10B5520D9A429F
:1009500001DA002010BD064B34339A4203DC9A1AA8
:10096000FFF793FC10BD03495118884010BD0000EB
:10097000FF030000CDFBFFFF70B5CD0F4A00090358
:100980000123090B1B0519430D4BED070024520DE4
:100990009A4202DA0020014670BD094B34339A4274
:1009A00003DC9A1AFFF771FC03E0064BD218FFF73D
:1009B0005CFC2C43F0D0002240428A41114670BDBD
:1009C000FF030000CDFBFFFF4A0009030123090BD1
:1009D0001B0519430A4B10B5520D9A4202DA00204A
:1009E000014610BD064B34339A4203DC9A1AFFF7D6
:1009F0004CFC10BD034BD218FFF737FC10BD0000B4
:100A0000FF030000CDFBFFFFC20FD20740004008EC
:100A10000BD0C10D0723DB01C91840020905400AAC
:100A20001143C20840071143704700200146704738
:100A300010B5002904DB0124E40740428C41214623
:100A4000002B04DB1C460123DB075242A3418B42EF
:100A500000D1824210BD0000CB0FDB07490010B56A
:100A6000490802460A4307D00A0D07240903E40196
:100A7000090B121B002A01DC002010BDC900440F25
:100A80000C43C100E018D205801800F028F810BD12
:100A90000122D207002800DB101A002900DB511ABE
:100AA000814270470122D207002800DB101A00297A
:100AB00000DB511A8842704710B5202A06DBCB179D
:100AC0000846203A1041C1170B4306E00B4613417C
:100AD000D0402024A21A91400843194610BD002995
:100AE00004DA401C490001D140084000704770B44E
:100AF0000024050C05D11024000402D1002921D0C6
:100B00001124050E01D100020834050F01D10001A6
:100B1000241D850F01D18000A41C002801DB4000AA
:100B2000641C002908D020252E1B0D46F540A1404D
:100B300000D001212943084301061B1B000ADB1DCD
:100B400002D5002070BC7047DB05181880180029FA
:100B5000F8DA401C4900F5D170BC400840007047ED
:100B600010B5002B08DA0024401C614192185B414B
:100B70001A4301D14008400010BDF0B51FB482B047
:100B800005460C0003D0084616F08CFE02E016F075
:100B900089FE20300246009021462846FFF765FB7B
:100BA000049B059A04460F4618431143084314D08A
:100BB000184610431BD0009840210A1A1846059980
:100BC000FFF763FB05460E46009A05990498FFF768
:100BD0004CFB084305D0012004E02046394607B00D
:100BE000F0BD0020C11705430E432C433743009945
:100BF0000E986305401A7905E40A00220C43FD0AA9
:100C00000A3002D500200146E9E7010510196941C3
:100C10000C9C0D9D00196941FFF7A2FFDFE7000062
:100C2000064C0125064E05E0E36807CC2B430C3C3F
:100C300098471034B442F7D3FFF746FABC7C010062
:100C4000EC7C010030B58C180278401C13071B0F98
:100C500001D10378401C120906D10278401C03E040
:100C600005780D70401C491C5B1EF9D101E00B702A
:100C7000491C521EFBD1A142E6D3002030BD00002A
:100C80000449CA6A02239A43CA62CA6A0243CA6210
:100C900070470000002801400248C16A4908490025
:100CA000C1627047002801400248C16A0122114315
:100CB000C1627047002801400248C16A8022914306
:100CC000C162704700280140014908637047000075
:100CD00000280140F8B507463E4C6A202070C878CD
:100CE0000D4638436070802F09D16878A07028784D
:100CF000E0700421204601F0F8FAC043207100267C
:100D0000354801683548814262D002F075FB3149AF
:100D1000384604F073FE002F03D06079542851D078
:100D200052E005212B4801F0E0FAC0436179C0B2DE
:100D3000884249D10322A11C284605F029F92848F8
:100D4000007880063ED5234E083E3068002839D012
:100D5000E8780A2801D00C2834D1601C01F0C2F9CF
:100D60000090A1780A0602D5C043401C00900020E4
:100D70006A46D0703068C21FFF3AFA3A06D00122A4
:100D80009202904205D1009880080FE00098400838
:100D90000CE003225202904202D10098C00805E004
:100DA0000122D202904202D1009800090090080668
:100DB00003D50098C043401C009003226946284692
:100DC000FFF774FA0020F8BD761CF6B2052E97D313
:100DD0000120F8BD200300201402002078563412B0
:100DE0000802002008B532216A46D17000219170B6
:100DF0005170107069468020FFF76CFF08BD00003D
:100E0000F0B5774885B001788A0707D5FD221140F3
:100E100003260C27017004F019FE06E00A0774D5BA
:100E20000C260027F722114001706E4DE879042846
:100E30000DD021280BD01C206946C87101A90020C3
:100E4000FFF748FF002802D168460079E87102F0F8
:100E5000D3FA04F01FFE0C2E25D1624C30342068EA
:100E60000002FF30401C1ED02046C0786946C87181
:100E700001A90020FFF72EFF002814D12068019956
:100E8000009081420FD06846C078502801D2BC2023
:100E900000E0A620FFF7A6FF69468020FFF71AFFB3
:100EA0000020FFF79FFF5048B90008180024029067
:100EB00052E0A0000299039008580002FF30401C45
:100EC00048D0E0198100049047480818C078694666
:100ED000C871E979212901D064283BD001A90020FB
:100EE000FFF7F8FE002835D14048007855280DD08E
:100EF00003990298405800903D480078800612D52A
:100F00006846C079412806D00DE067E00498C0B279
:100F100001F056FDEFE7374900980840314920318C
:100F20000968084300900199009881426846C0789A
:100F300002D1592804D00DE0502801D2BC2000E095
:100F4000A620FFF74FFF69468020FFF7C3FE002071
:100F5000FFF748FF641CE4B2B442AAD3032E3DD18C
:100F60000024254E2746305D6946C87101A900203E
:100F7000FFF7B0FE00282DD1305D6946C8708F7034
:100F80004F700F70582809D11C49097801290DD0DC
:100F9000E97921290FD022216A461170019A00991E
:100FA0008A4217D050280BD2BC200AE0FF216A46A3
:100FB00051701621F1E7FF216A4651707C21ECE760
:100FC000A620FFF70FFF69468020FFF783FE002071
:100FD000FFF708FF641CE4B2062CC4D305B0F0BDD3
:100FE0000E020020F80200207024002039F80300CF
:100FF00008020020FF0100FF787C01007FF9030058
:10100000F0B5F84891B04178F7480F9020297DD18C
:10101000F449002048700F99087006F0BBF9009061
:10102000FFF7F2FC0022F14BFFF744FAFFF786FCD2
:10103000EF490B220880EF4903A8FFF737F900209A
:1010400003AA8021135C1C0603D5DB430B435B1C06
:101050001354401CC0B20628F4D36846407D0206F3
:1010600004D5C04308436A46401C50756846807DDD
:10107000020604D5C04308436946401C8875DE4C0F
:10108000DE4D207CDE4E1E280AD0DE483168FFF798
:1010900082F92968FFF787F9DB49FFF72BF979E037
:1010A000DA480168DA488142296838D1D9480068AD
:1010B000FFF779F9FFF7A8FC079102902868FFF77E
:1010C000A3FC09910C903068FFF79EFC0746019144
:1010D000607CC009FFF7BCFB0022D243FFF77CFB1A
:1010E00002460B460020CC49FFF7E4F93A46019B43
:1010F000FFF784FA099B0C9AFFF78EFA07460991CD
:1011000068461122618A8256881800E044E3FFF79E
:101110008BFB3A46099BFFF771FA029A35E0BF480C
:101120000068FFF740F9FFF76FFC07910890286807
:10113000FFF76AFC09910C903068FFF765FC0746E1
:101140000191607CC009FFF783FB0022D243FFF7C7
:1011500043FB02460B460020AF49FFF7ABF93A4686
:10116000019BFFF74BFA099B0C9AFFF755FA0746CC
:10117000099168461122618A82568818FFF754FB4C
:101180003A46099BFFF73AFA089A079BFFF736FAA7
:10119000FFF762FC0746A2480078552812D19B4809
:1011A00001689B4881420DD1207D0A2805D8FFF7B0
:1011B00034FB3946FFF7F3F803E09A493846FFF766
:1011C000EAF807468E48994A006807909648984C76
:1011D0000188984E914203D069461220085E02E0D1
:1011E0001621415E0846FFF71FFB0022924BFFF7D6
:1011F0007BFAFFF731FC0D9039460098FFF752FC5F
:1012000069460FD20C200856FFF70EFB22463346E4
:10121000FFF702FA04460E462868FFF7F5FB224660
:1012200033460FE00D200856FFF7FEFA22463346FC
:10123000FFF7F2F9044681480D460068FFF7E4FB2A
:1012400022462B46FFF736F9FFF706FC04463946DF
:101250000098FFF7A0F82146FFF7E2F80799FFF79B
:1012600049F8FF21C9051090C84201D3012005E0CB
:101270007349884201DD022000E000207149724C70
:10128000097825464035552902D00020A87615E07A
:101290005849097AAA2901D0552973D1A97E8142DA
:1012A00066D0A87605F0A2F805F0E8F8A87E002838
:1012B00004D0012804D002281CD059E00D9856E033
:1012C00069460F200856FFF7AFFA604A604BFFF7F8
:1012D000A3F906465F4809910068FFF795FB32467F
:1012E000099BFFF7E7F8FFF7B7FB0646444801689C
:1012F000594818E069460E200856FFF795FA534AF8
:10130000534BFFF789F90646544809910068FFF7E7
:101310007BFB3246099BFFF7CDF8FFF79DFB0646A6
:10132000374801684E480068FFF735F8FFF76CFB57
:101330000C900E900B9107913046FFF765FB064627
:101340000120C00741403046079B0E9AFFF764F921
:101350000B9B0C9AFFF760F9064609910D98FFF771
:1013600053FB3246099BFFF7A5F8FFF775FBE065D5
:101370002048007AAA2801D0552803D100206946C8
:101380004875887539460098FFF78CFB354800880A
:101390006CD2FFF742FA3946FEF7ACFF0099FFF72F
:1013A00077FB694606D20E200856FFF73DFA274A1A
:1013B000274B05E015200856FFF736FA234A2A4B3B
:1013C000FFF72AF90646254809910068FFF71CFB3C
:1013D0003246099BFFF76EF8FFF73EFB06461F48B3
:1013E0006BE043E022020020F22000200000E03FFA
:1013F000420200207F20002080FCFF1F44F90300F0
:1014000034F903000000C84100C0B74414020020B2
:101410007856341254F9030000003E4050F903009E
:1014200041F803000000A04020FAFF1FC33C000069
:101430009A9999999999A93F0000594040F9030058
:101440000000484264F90300F42000202D431CEB07
:10145000E2361A3F38F903005CF903003CF9030057
:1014600060F903004EF90300E2363A3FFFF7D5F981
:101470003946FEF794FF0099FFF714FB694606D240
:101480000F200856FFF7D0F9FC4AFD4B05E0162067
:101490000856FFF7C9F9F94AFA4BFFF7BDF80646B7
:1014A000F94809910068FFF7AFFA3246099BFFF748
:1014B00001F8FFF7D1FA0646F34800680790F348B1
:1014C00001681098FEF767FF0C9031460990FEF70F
:1014D0006AFF0999FEF767FFED4908600C980799C4
:1014E0000646FEF760FF3146FEF75DFFE949EA4E2A
:1014F0000860307AAA2843D12088FFF78EF9009936
:10150000FFF7C6FA3CD2208DFFF787F90099FFF765
:10151000C9FA35D2009806F07FF9FFF775FADF4A6D
:10152000DF4BFFF779F8FFF797FA0546DD48C189E9
:10153000DD48814209D1DD480078552805D10021D8
:10154000C9432846FEF7AAFF0546E06DFFF75CFA9F
:10155000074601916846102141560846FFF764F995
:101560000022D34BFFF7C0F804460E462846FFF78B
:101570004BFA33462246FEF79DFF3A46019B2DE08B
:10158000317ACC4855294FD1017889064CD5C548C8
:10159000C189C548814203D1C4480078552820D06C
:1015A0001820285EFFF740F9BC4ABD4BFFF734F81E
:1015B00005460F46E06DFFF727FA04460E466946DA
:1015C00010200856FFF730F90022B94BFFF78CF8CE
:1015D00022463346FEF76EFF2A463B46FEF76AFF79
:1015E00070E01820285EFFF71FF9AC4AB24BFFF7F6
:1015F00013F805460F46E06DFFF706FA04460E465F
:10160000694610200856FFF70FF90022A84BFFF794
:101610006BF822463346FEF74DFF2A463B46FEF75F
:1016200049FFFFF719FA53E0A4490978552904D175
:101630000078800601D5002046E0A1480178A14845
:10164000552923D10078FFF7E8F804463946FEF71C
:1016500051FE0099FFF726FA18D220463946FEF7C8
:101660009EFE0099FFF714FA10D20D98FFF7CCF9FF
:1016700004460D46694610200856FFF7D5F80022AB
:101680008B4BFFF731F822462B46A7E780480068CE
:10169000FFF7BAF906460F460D98FFF7B5F904466D
:1016A0000D46694610200856FFF7BEF80022804B11
:1016B000FFF71AF822462B46FEF7FCFE32463B4661
:1016C000FEF79CFFFFF7C8F978490978552909D139
:1016D0007449CA8974498A4204D1FFF795F97A4A54
:1016E0007A4B03E0FFF790F9774A794BFEF794FFC6
:1016F000FFF7B2F9774D784CA8420AD2FFF784F988
:101700000022764BFEF7D6FEFFF718F92063002083
:1017100009E0FFF779F90022704BFEF775FFFFF73C
:101720000DF92063012060631098A8420CD26C4927
:10173000FEF739FEFFF7C9F86946088502226949B4
:101740000AA806F0A2FA11E06749FEF72CFEFFF79F
:10175000BCF869460885022262490AA806F095FA93
:10176000604801220188D203114301805F4801686B
:101770005F48814210D01098FFF78EF844B25D4D5B
:1017800000202856A04201DD001B00E0201A052899
:1017900002DB01F04DFE2C705748417810296CD1C6
:1017A000002444700F983F4D04704035AE8A534872
:1017B000FF2130189031524F8842387828D2FFF7F5
:1017C00047F8009001911620285EFFF72DF80022BF
:1017D0004C4BFEF789FF054630460291FFF738F87B
:1017E0000022494BFEF780FFFFF736F9064605F069
:1017F000D1FD3146FEF7D7FDFFF706F92A46029BD9
:10180000FEF758FE0122FEF7E7FF019B009A13E066
:10181000FFF71EF805460E4605F0BCFD3049FEF701
:10182000BAFDFFF7F1F8394A394BFEF7F5FE012210
:10183000FEF7D2FF2A463346FEF73CFEFFF77EF85E
:101840002849022248800D46A91CA81C06F01DFA52
:1018500026480168264881420FD02E4968880A88A8
:101860002D492E4E90426AD23078C20670D40A7842
:10187000052A55D2521C0A706AE092E02D431CEBF7
:10188000E2361A3FE2363A3F38F9030034F90300F2
:1018900044020020480200207F2000204D2D5BEBF9
:1018A0008B84CE3F00FCFF1F0404000040F80300BF
:1018B00000005940080200208B84BE3F4C020020EB
:1018C00058F9030059F903008DEDB5A0F7C6204083
:1018D000F7C6104000008080001001400000E03F8B
:1018E000000020410C070020000020C1140200204D
:1018F0007856341240020020220200202FF8FFFF09
:1019000048F9030000408F400088C3404F401361F6
:10191000C3D3CB3FB0F903008102002004020020B2
:101920003021084330700EF0EFFA062003F0CCFDB2
:101930000E2002F0F7FF202004F04CFA08E00C70B3
:101940003078C10604D5EF21084030700EF0DCFA83
:1019500017496888098888421AD93078800617D5CF
:1019600014480178002901D102210170C9B2491E31
:101970000906090E01700BD1292009F0B3FA30785D
:10198000DF21084030700EF0BFFAA92009F0AAFA52
:101990003878002807D069886D20C000814202D9BC
:1019A000688011B0F0BD68888028FAD26C80F8E7B2
:1019B000B2F9030082020020F0B5054614000E467D
:1019C00052A007C88BB003AB07C37DD0052D02D949
:1019D00001200BB0F0BD0027F05D00F0B6FA014623
:1019E00001A8C1557F1C062FF6D32B0015F0A1FFCF
:1019F00006040E1A26697882694608793C21001986
:101A0000FEF776FB0A4669460A710446002C71D03F
:101A1000694648793C210019FEF76AFB0A46694687
:101A20004A710446002C65D069468879182100194E
:101A3000FEF75EFB0A4669468A710446002C59D0BF
:101A4000002702A8033009906846007A0999079098
:101A5000455C022815D16846417A7D2000010818AE
:101A60000090880705D164210098FEF741FB00290A
:101A700006D1FF2191310098FEF73AFB002900D1F1
:101A80006D1C6846C079281AA04205D36846C07903
:101A900001196846C1712DE0002C0ED0241A0120D6
:101AA0006A46D0710799641E491CC9B211720C298B
:101AB00003D91072507A401C507217487F1C87421D
:101AC000C2D3002C16D000E01DE06A46107A641ED6
:101AD00000190C21FEF70CFB6A46491C11720446E2
:101AE000002C07D06846407A64210019FEF700FBFD
:101AF00068464172002401AD285D06F0D7F83055E4
:101B0000641C062CF8D3002063E700001F1C1F1E76
:101B10001F1E1F1F1E1F1E1FA40400003EB50D46E2
:101B2000044620A207CA6B4607C3607800F00DFA8E
:101B300040193C2804D2C0B206F0B8F860702EE01C
:101B40003C38C0B206F0B2F8607000221721A01C29
:101B500001F076FD002822D0207900F0F6F96946E0
:101B600009182039CD7F022806D1607900F0EDF9FF
:101B7000800701D16D1CEDB201222946E01C01F065
:101B80005FFD00280BD001220C21201D01F058FD23
:101B9000002804D000226321601D01F051FD0020C7
:101BA0003EBD00001F1C1F1E1F1E1F1F1E1F1E1FCD
:101BB0007FB514460D46064602AA05F089FA02983A
:101BC000A84219D16846C07B002815D1E0076846B5
:101BD000407B02D001280FD101E000280CD1A007E2
:101BE0006846807B02D4002806D101E0012803D199
:101BF0006846007B022818D0002168460095C17114
:101C0000E2070120002A6A4605D05071A20704D4D9
:101C10006846817103E05171F8E7694688710220D6
:101C200069460871304605F08BFA7FBD7FB50C46DA
:101C3000054602AA05F04CFA0298A0420FD1684668
:101C4000C07B00280BD16846407B012807D168463D
:101C5000807B002803D16846007B03280BD000223C
:101C600069460094CA71012048718A710320087185
:101C7000284605F065FA7FBD38B50D4608211C469B
:101C8000FA28134600910FD00022014610460DF0AD
:101C900035FA082221460648FEF708FB00220821F3
:101CA000284600F0C5FF38BD002201468020EEE73F
:101CB0001823002070B503460D4604461033032256
:101CC0000021FA20FFF7D8FF002820D12346002268
:101CD00008331146FA20FFF7CFFF002817D108215B
:101CE0000BF04EFF002812D1042D09D0082209491B
:101CF0002046FEF7DBFA294600200BF0CBFE70BD34
:101D000008220449204602F0CBF80328F3D0012032
:101D100070BD00001922002010B5134C2068000788
:101D200021D51248124900780870002803D11149C2
:101D30000878401C087010480078062811D140210E
:101D40000E4805F02FFA0E480E4900780870064933
:101D50000D48C031086004488030016B8022114377
:101D60000163FF20206010BD403001406CF903008A
:101D700089020020AF0200201E020020C00C00409B
:101D800029F9030096020020FF82000010B5134CD1
:101D90006068000721D512481249007808700028B1
:101DA00003D111494878401C487010480078032836
:101DB00011D140210E4805F0F5F90E480E49007882
:101DC000087006490D488031086004484030016BB6
:101DD000802211430163FF20606010BD803001400C
:101DE0006DF903008A020020AF0200201E020020CD
:101DF000C00C004029F9030096020020FF82000079
:101E00000248816A10229143816270470028014094
:101E10000248816A10221143816270470028014004
:101E200004498A6A120912018A628A6A02438A6232
:101E300070470000002801400248816A2022914337
:101E400081627047002801400248816A20221143C4
:101E5000816270470028014010B53C23084A0021E8
:101E6000222015F089FB0423064A3621322015F082
:101E700083FB05490A2208781043087010BD000052
:101E800070240020280300200E020020F7B592B035
:101E9000174640221C496846FEF708FA1BA103C9F1
:101EA00011911090082F2CD800252C462E4615E0B5
:101EB0001298B91B08182038C07F0A220109514323
:101EC0000007000FF30008186B440CCBC0B20021D0
:101ED000FEF78EF945194C41761CF6B2BE42E7D3A7
:101EE00000260CE010A8825D28462146FEF7CDF9B9
:101EF0001399BA1B51182039761CC877F6B2BE4226
:101F0000F0D315B0F0BD0000287C010000081018C7
:101F10002028303870B514460D46FFF7B7FF21462C
:101F2000284606F012FC70BD7CB50D4601461446ED
:101F3000684604F02DF8224629466846FFF7A6FFBA
:101F40002146284606F001FC7CBD01090A22000753
:101F50005143000F0818C0B27047CA08805C490797
:101F6000490FC840C007C00F7047000010B50748B0
:101F7000FD2201781140017008F0E8FC3823044A82
:101F80000021402015F090F810BD00000D02002047
:101F9000A40000201FB5044608A30FCB03936B4693
:101FA00007C30A480A496043401810226946FEF7F1
:101FB0007DF9204600F00EF81FBD0000680000FF0C
:101FC000FFEEEE6811040300800E0016F20500001B
:101FD0009A08002030B50E4A0C4900245043451899
:101FE00005E02919887A3330641C8872E4B2687A73
:101FF000A042F6D8C0B20A30C1B2284600F075F946
:10200000291988721620C87230BD00009A08002075
:10201000F205000070B51249124A03208C182546BB
:10202000E035A97F00291AD1E97F002917D10E498F
:102030000978012913D1FFF7ADFF627AE01D21462F
:10204000F9300C32FEF732F9FF34FF34012002344C
:102050002070687F0821084368770220A87770BD48
:10206000D61100009A0800209A02002070B50220C4
:1020700003F000F80D4C8021204605F093F8042071
:1020800002F0F8FF8021204605F08AF80020084978
:10209000084D08700446E000201840190921FEF799
:1020A0001EF9641CE4B2052CF5D370BD200C004071
:1020B0009A020020EC2100200549032805D0AA201F
:1020C000087004490120087070475520FBE70000A4
:1020D000A6020020120200204178007800020818B1
:1020E00000B270478278C17812028918427800786D
:1020F0001204000610180818704741780078000292
:10210000081880B270470000F0B50546C807C00F38
:10211000394E4701BC19A268616889B08918F25923
:10212000914201D906F078F8F05907906068049060
:10213000A0680190042203A907A805F0A6FD0322C8
:1021400003A92846FEF7B2F8079900290AD0019A98
:1021500004988018294A5043FDF7CAFF2749069082
:10216000081A01E00020069003A903900422084603
:1021700005F08BFD032203A9E81CFEF797F8042263
:1021800003A906A805F081FD032203A9A81DFEF7F7
:102190008DF8042203A904A805F077FD2846032240
:1021A00003A90930FEF782F8042203A901A805F06B
:1021B0006CFD2846032203A90C30FEF777F8207B3C
:1021C000E873607B287421462846EE1C10310422F7
:1021D0001130FEF76BF8A07B6875E07BA87521468F
:1021E0002846143104221730FEF760F8207F30763D
:1021F000607F707609B0F0BDAC2100201027000090
:10220000FFB50746002085B01D46164600900446DF
:102210000190012B3AD8B007800F0390012801D01C
:1022200002280DD10422394602A8FEF73FF8039890
:10223000012802980BD040420021A1410191009059
:102240000C203040042805D008283ED102E001943B
:102250000090F5E7002D10D00422391D02A8FEF7EA
:1022600025F83007800F0128009A0199029808D0BC
:10227000101AA1410191009027E00422394634311F
:10228000ECE780184C41019400901EE000256900A5
:102290003046C8408407A40F012C01D0022C10D175
:1022A00034206843C119042202A8FDF7FFFF012C66
:1022B00012D0009B029A01999A1A00208141009243
:1022C00001916D1CEDB2042DE1D3082269460698F8
:1022D000FDF7ECFF09B0F0BD009A0299019B891847
:1022E0000020584100910190EBE7034610B5002013
:1022F000024604E09C5C2018521CC0B2D2B28A4252
:10230000F8D310BDFFB5E9B016460D4604460928BE
:102310007ED8FF2D01D1FF2E7AD0834FF878FFF7BA
:1023200014FEA84201D2FF2D72D10021FF2E27D02A
:1023300050AA1673701C5073FF2D26D050A88573B9
:102340006D1CC573002E0ED00B200146629000223A
:102350005EA805F0D3F95EAD0FCD54AD0FC550A802
:10236000808BC0B25F9050A8067B20463421484342
:10237000002501A940185E9050A8407B61909EE026
:1023800050A8017319224273D6E750AA9173F878C6
:10239000FFF7DBFD50AA401CD073D3E7002E23D0FB
:1023A000182E60D854A800903346002263A8629982
:1023B00005F0E0F8182263A958A8FDF777FF5F98A9
:1023C000092C41D0B04239D350A8008A01AA401F3D
:1023D00083B250A8C08C401D81B250A8808C04F0FC
:1023E00027FA00283FD124E0092C65D034224F4938
:1023F00001A8FDF75BFF4D4934223C310EA8FDF7E3
:1024000055FF00274949382078436839411800E0D2
:1024100029E034203A46424301A81018342268309B
:10242000E031FDF743FF7F1CFFB2042FEAD3092CF4
:1024300042D050A8877BC07B60903BE0FF214131B8
:1024400001A8FDF74CFFF4E7B0426C980ED3421997
:1024500050A8C08C0423401C81B250A8808C04F08A
:10246000E7F9002806D000206DB0F0BD4019042126
:10247000FDF735FF2D1DEDB21EE0002C24D0012C00
:102480002FD0022C2DD0032C38D0042C36D06C98B1
:10249000082140190090FDF722FF5E98B90041180D
:1024A00004229C390098FDF701FF7F1C08356098D5
:1024B000FFB2EDB2B842E0D8761C6198F6B2B042F5
:1024C00000D96BE72846CFE7002E08D050A8427805
:1024D0006C98BB00411901A8181800231CE014488F
:1024E000F5E76C98082140190090FDF7F8FE5E981A
:1024F000B9004118042234390098D4E7002E0ED0D8
:1025000001A80019FF302130C27E6C98BB00411930
:1025100001A81818FF236830FFF772FEC5E70448CA
:102520000019427EF1E700005421002068000020DD
:102530008C200020F7B59EB010460F4608301B9047
:102540006E461E99F8008519144602292CD00022E7
:10255000334611461046FFF7D5FE1E986423FF3020
:10256000321D00213E3005F0DFFCB8008619042240
:102570003146201DFDF79AFE311D04221B98FDF700
:1025800095FEE079000629D502260422211D1CA80B
:10259000FDF78CFE1C980422C043401C1C901CA913
:1025A000201DFDF783FE1AE0042226493046FDF780
:1025B0007DFE0022331D11461046FFF7A3FEFF20CB
:1025C00064230021403002AA05F0AEFC291D04223C
:1025D000201DFDF76BFE29460C31CEE70126E07A7F
:1025E000000610D50420064302461CA81B99FDF7DF
:1025F0005DFE1C980422C043401C1C901CA91B9823
:10260000FDF754FE01E00820064301233246211D58
:10261000201DFFF7F5FD0021201D05F005FB1E988C
:1026200002280CD1294604222046FDF73FFE064829
:10263000007D384303D10C212046FDF750FE21B028
:10264000F0BD000039030020FC04002038B514461A
:102650000D46034600920122FA2180200CF04EFD27
:10266000224629460848FDF721FE00222146104651
:1026700000F0DEFA002801D0012038BD4021002002
:102680000BF07EFA38BD00001823002038B52C4D21
:102690000024287800280FD0FEF7BFF801462869EB
:1026A000FDF7BEFEFEF711F90090042225496846A9
:1026B00005F0EBFA2C612C706878002816D0FEF734
:1026C000ACF801466869FDF7ABFEFEF7FEF8009036
:1026D0001C4804221838816AC162416A816201463D
:1026E0002431684605F0D1FA6C616C70A878002836
:1026F00010D0FEF792F80146A869FDF791FEFEF7AB
:10270000E4F81049009004221831684605F0BDFA3B
:10271000AC61AC70E878002810D0FEF77EF8014676
:10272000E869FDF77DFEFEF7D0F806490090042227
:102730001C31684605F0A9FAEC61EC7038BD000068
:10274000F8020020EC06002070B505460079FFF77E
:10275000FCFB0446E878FFF7F8FB401EC6B2A878F9
:10276000FFF7F3FB401EC1B2A00701D1022E01D337
:10277000491CC9B2054A7000125AFF206E306043EE
:102780001018A2085118401880B270BD847B010057
:1027900070B504460078FFF7D8FB05466078FFF770
:1027A000D4FB01463C204143481970BD70B5054635
:1027B000FFF7CAFF04462846FFF7EAFF2D2149012B
:1027C0004C43201870BD0000F0B57448744900688F
:1027D00085B088427DD0734C0027607872490291A1
:1027E00000281AD07149062289795143884213D8AA
:1027F0006F480078410703D4000707D4002606E09D
:10280000000701D4012602E0022600E0032630463C
:102810000CF05AFC002812D067702078002865D090
:1028200062498A7906214A4390425ED8604800781E
:10283000400756D404F038FC002856D14AE038202E
:102840005C497043451870003430009000200190BE
:1028500001200146A278B1400A430391A270EFF330
:10286000108180F310886678677081F31088E035F6
:102870002CE051492868884226D2401C28600298E2
:10288000007B411C0C2903D96868401C686004E087
:10289000800040194168491C41603421284602F0FB
:1028A00083FB42488179642041432868FDF720FC7E
:1028B000002909D134232A460199009814F05CFEBE
:1028C000A17803988143A170761EF6B2002ED0D174
:1028D000A3E70BE0374D02206835009000200190FF
:1028E0000CE0FFF743FB002802D0277005B0F0BDD5
:1028F000304D4020A435009000200190EFF310806F
:10290000012181F310882678277080F3108842E037
:102910002868411C3DD0401C28600298007B411C67
:102920000C2903D96868401C686004E080004019E5
:102930004168491C4160686B1D4F401C68633878D2
:102940004007A07801D4102100E020210843A070A6
:102950003821284602F028FB14488179642041433D
:102960002868FDF7C5FB00290ED138232A460199B6
:10297000009814F001FE38784007A07801D4EF21C8
:1029800000E0DF210840A0700C484022017811438C
:102990000170761EF6B2002EBAD1A7E7140200200D
:1029A00078563412AF02002031050020B502002015
:1029B0001902002000000020FFFFFF7F0C02002012
:1029C00078B52049820089581F4B00911A7A00215E
:1029D000002A1CD0072A1AD21A4D403D052802D0E1
:1029E0000A280AD013E065266C46E6705200A170F2
:1029F00052196170203A927F08E076266C46E670A4
:102A00005200A17052196170203AD27F2270DB7A95
:102A1000002B15D0102B13D80A4A323A002802D0C6
:102A2000012802D00CE0502400E051246846C47014
:102A3000817058008118CA7B68464270897B01709A
:102A4000009878BD70240020F8020020F8B50646F2
:102A500011480068FDF7FCFE0022104BFDF744FE14
:102A600004460F480D460068FDF7F2FE22462B464D
:102A7000FDF7D2FD00220B4BFDF736FEFDF75EFFA2
:102A8000694600900422084605F0FFF804226946D2
:102A90003046FDF70BFCF8BD7402002000004E40EC
:102AA00070020020000024407CB505460146082243
:102AB0006846FDF7FBFB0A486422847900230199EC
:102AC0000098FDF795FB22460023FDF76BFB019173
:102AD0000090082269462846FDF7E8FB7CBD00000F
:102AE000B5020020002817D03C2815D80B490A78D9
:102AF000824201D3121A00E000220A7008490978C4
:102B0000CA06084902D58A6812188A60CA6812186B
:102B1000CA600A69101808617047000000000020B0
:102B200004020020602100207CB5054600200C46F0
:102B300000900A46019029466846FDF7B7FB174BFF
:102B40000098019901221B1A8A4121D2134B0122BC
:102B5000DB43C018D2435141DB4301221B1A0191D0
:102B600000908A4114D20D4B0122DB43C018D2439E
:102B70005141DB4301221B1A019100908A4107D287
:102B8000064B0122DB43C018D24351410191009012
:102B9000224669462846FDF789FB7CBDFF4FD6DCFF
:102BA00038B50446002000900C48007880060AD50D
:102BB00000F022FC00220120800408CA0099C918F4
:102BC00000918242F9D30421684605F0BEFD04223B
:102BD0002146684604F0A4FF38BD0000080200202A
:102BE00008B500216A461170517091706946FF283E
:102BF00005D0022807D24006000E022206E002227B
:102C00000948891C07E0801CC0B20122074B891AC1
:102C100018181430091DFFF739F96846FFF762FAF2
:102C20003C21484308BD0000690400208C2000209E
:102C3000F7B5464D84B00E4600242C70FA21444866
:102C4000FDF74DFB0A2002F02DFA4248424F047076
:102C50004470761D395D04980DF020F801280AD0E3
:102C6000641CE4B2052CF5D36946049804F036FEE2
:102C7000012802D0022007B0F0BD68460078602825
:102C8000F2D0797881422CD1B44213D20498002832
:102C90000BD1102002F006FA07E0395D641CE4B2A3
:102CA00004980CF0FBFF012802D0B442DCD2F4E718
:102CB0000320E0E7002028700EE002A9049804F049
:102CC0000DFE012801D00420D5E76846017A20488E
:102CD0002A788154521C2A70297806988142C3D2DE
:102CE000EBE76846007800090001602801D09028D1
:102CF00028D101A9049804F0F1FD012801D0072092
:102D0000B9E76946124A28780B781354401CC0B2C0
:102D100009791154401C28700E486A2B03704170C9
:102D200006D181290ED1049800280BD102F0B6FFFC
:102D300068460078612807D0902803D1684600795A
:102D4000002801D0082096E7002094E7BC0200206C
:102D500019220020BD0200201323002070B5044674
:102D600000F04AFB022C12D2022224491A2005F05C
:102D70001CF92248015D552907D055210155022231
:102D80001E491A2005F09FF922E0FF21F6E7032CE7
:102D90000ED0022C31D10C23184A2C21112005F021
:102DA000C3F80C23154A2C21102005F049F90DE039
:102DB0000025281DC0B212490AF0E7F9104928463B
:102DC00014F0F5FB6D1CEDB2042DF2D30BF0AEFD4B
:102DD000A0000C49201840180521FDF780FA1423A3
:102DE000084A0021282014F0C7FBE01CC1B20620CD
:102DF0006043FF30603003F057FF70BD18070020BC
:102E0000BC0400208D04002005490968C206D20ECA
:102E100001209040014201D10020704701207047FD
:102E200000E100E002688A4202D0016001207047A0
:102E300000207047F8B50E46774A7649504345184A
:102E40002C4600270B34312E57D008DC012E0DD034
:102E5000112E3BD0152E3DD0162E53D13EE0512ED3
:102E600066D0AA2E68D0C02E4CD126E0687A0728FA
:102E700048D1E87AFC2845D13C2268496848FDF7EA
:102E800015FA6748A97B4172697B01726549097827
:102E9000022902D14121090601636349002008602B
:102EA0005F480C214038FDF71AFA5D4A0C23403A7E
:102EB0000021242014F060FB8AE0012005F084FC4E
:102EC00000281FD1022005F07FFC13E0204604F00B
:102ED0006BF90FE0204608F0EDFA0BE028461730BA
:102EE00099220421FDF7F4F9204604F05DF9002849
:102EF00008D1EFE7002805D16AE0204608F0E8F89D
:102F0000002801D00120F8BD4549454A0846403A0D
:102F10002030097B00787B00D1549B187F1CFFB2C6
:102F20005870062FF7D33E4A0C23403A002169E03F
:102F3000204605F04BF9DDE73C2238493848FDF7DB
:102F4000B5F9374CE87D6072A87D2072354800786D
:102F5000022802D141200006206334490020085E87
:102F600033491423411833480160334941603349E0
:102F700081603349C16002460021084614F0FCFA22
:102F800027480C214038FDF7AAF9254A0C23403A7E
:102F90000021242014F0F0FA214923780020822215
:102FA0006478323945000A546D18401C2B74C0B245
:102FB0006C741028F6D31A4A3023323A0E2124209A
:102FC00014F0DAFA1848154920380C3909680163F9
:102FD000012E03D0112E01D0162E16D1104A00203A
:102FE0008225114614785378323942000D54521814
:102FF000401C1474C0B253741028F6D3084A30230E
:10300000323A0E21242014F0B7FAFEF725FF0020F3
:10301000F8BD00009A080020F2050000807C010045
:10302000702400207FF90300180300207CF90300BE
:10303000F0970E00A4040020765A000005A80000B6
:10304000E75B0000002206E0835C002B01D001203A
:103050007047521CD2B28A42F6D3002070470EB598
:10306000222009F00FFC002810D022200AF05EFD7B
:103070000C236A4600216E3004F056FF01A8062199
:103080000230FFF7DFFF002801D002200EBD012033
:103090000EBD00B58DB00F2009F0F4FB00280FD055
:1030A0000F200AF043FD2F236A460021963004F0DA
:1030B0003BFF01A806210230FFF7C4FF0DB000BDA1
:1030C0000120FBE7F1B55749ACB048698969059023
:1030D000072006910F90002788215348FDF7FFF83D
:1030E00001200DF043F800252C46224601A80F9937
:1030F00004F004FB6846068A002E6FD001A80090F9
:10310000224611A82C9B0F9903F02EFA11981299C0
:10311000059006916846007D002859D0FF286FD0A1
:103120000698B0426CD801A800900698224683B257
:1031300025A80F9904F01EFA182225A907A8FDF763
:10314000B5F86846808B00285AD069463748098C04
:10315000AA0081526946498C101841806946088A44
:103160000E900E990698884239D2081A0E9003D014
:1031700006990398401A0E90A0002D492018401877
:1031800003220EA94030FDF791F829481E21403056
:10319000064601F0EDFEF083242315AA00213D2010
:1031A00004F0C2FE00283AD106202146414315A86A
:1031B000081806460621FDF792F80E98002818D048
:1031C0006846008A069988420BD90399081A0AE0D2
:1031D000012E15D00698401E0690A2E710E00020B0
:1031E000C9E70398401A0E90F01C03220EA9FDF7C0
:1031F0005DF8242315AA00213D2004F021FF0127BA
:10320000641C6D1CE4B2EDB2062C00D26DE7002FF9
:1032100005D01C23054A00213C2004F011FF2DB0ED
:10322000F0BD0000DC7901003E03002010240020E6
:1032300000000020F8B50C4600F0DEF8AA210020BE
:1032400000F074FB4C4D3C21281DFDF748F8284642
:1032500020214030FDF743F840214848FDF73FF872
:103260002423464A00213D2004F0EAFE00F0D4FD6C
:1032700043480078552804D1424820220178114360
:103280000170414EEF2130780840307000F060FD51
:103290000CF03AFE032008F071FF042008F06EFFE6
:1032A000052008F06BFF354804222146801DFCF7FD
:1032B000FDFF0A2002F008F9122003F035FC0D2072
:1032C00002F088FD012013F0C7F8012013F01AF96D
:1032D00029483A2168300446FDF701F83823224690
:1032E0000021022014F048F923483A21A430044672
:1032F000FCF7F5FF382322460021402014F03CF96A
:103300000024382060434019E03007463621FCF79E
:10331000E6FF60003A4634230021343014F02CF9E3
:10332000641CE4B2042CECD308211848FCF7D7FF46
:1033300017490020C87717484022017811430170CF
:1033400007F06EFB3078C00702D00121132001E0A6
:103350000121142000F0EAFA002014F013F814F010
:10336000BDF814F0B9F80C480078800603D5FF21A9
:10337000002000F0DBFAF8BD000000201807002054
:1033800030F8030006020020050200208E02002013
:103390006D0400200C0200200802002010B501205E
:1033A00002494007FCF79BFF10BD000068000000C9
:1033B00010B50A49002008600949EF220878400842
:1033C00040001040087008210648FCF788FF0821DB
:1033D0000548FCF784FF02F031FC10BD28020020F4
:1033E00008020020C7020020BF0200200149AC20D3
:1033F00008607047001801400949084808600948FA
:1034000009490068884208D10848816842159142FC
:1034100003D900BF00BFAC21016070475A5A341273
:1034200000140140140200207856341200180140A4
:10343000F0B57F2085B0C00502907648406A40060E
:1034400003D404F065FF05B0F0BD73484421016169
:10345000082141617F21C16100218162C16A072287
:103460001143C1626D490978491E0906090E01D050
:10347000012900D0002181610025FFF7BDFF664CC6
:103480002169802001432161002665490027886960
:103490000390E06A800701D5012716E05F480078B5
:1034A000FDF7D6F900225F4BFDF7B6F800900191C9
:1034B0005B4803998069081A0002000AFDF7C8F901
:1034C000019B009AFDF7B4FAE3D3E06A02210843B6
:1034D000E062761CF6B2022ED7D3216980208143A8
:1034E0002161002F7BD0206A029986B24E48FCF7FA
:1034F00097FF04463046FDF790F906462146FDF752
:10350000D1FA08D249480299FCF78AFF01463046B1
:10351000FDF7BEFA97D3464C60690299C7B2454899
:10352000FCF77EFF014600903046FDF7BBFA2BD238
:1035300030460099FCF72FFFFDF7C7F980B20190E4
:103540000298FDF761FA02460B4600203A49FDF762
:10355000CBF8064600910198FDF77AF93246009BB8
:10356000FDF7C2F80022354BFCF7A4FFFDF7E6F9A2
:10357000C0B2202800D920206169814202D361694C
:10358000081A2EE000202CE031460098FCF703FFDB
:10359000FDF79BF980B201900298FDF735FA0246DB
:1035A0000B4600202449FDF79FF80646009101983C
:1035B000FDF74EF93246009BFDF796F800221F4BAF
:1035C000FCF778FFFDF7BAF9C0B2202800D9202017
:1035D000616909187F2903D86169081801E012E0C0
:1035E0007F206061052D0ED16069C019C0B2FDF762
:1035F0002FF9AA1FFDF7F0F80022104BFCF75AFF35
:10360000FDF79CF960616D1CEDB2062D00D234E728
:1036100019E70000002801408030014000F8030055
:1036200000E000E0004CED400034F3460014F546A5
:10363000000200400024F446008863400000E03FA0
:1036400070B5044615460E460078FEF77EFCB04283
:1036500006D2401CC0B204F029FB2070002070BDCF
:103660002570012070BD000010B50D4C8021204652
:1036700003F096FD0B490620086009488021603858
:1036800003F090FD0421204600F0E2F808212046D6
:1036900000F0DEF88021204600F0DAF810BD0000CE
:1036A000C00C0040001C014070B510210D4803F013
:1036B00079FD0C4D0124E40320352146284600F015
:1036C000C7F86110284600F0C3F8A110284600F0A2
:1036D000BFF8E110284600F0BBF82146284603F069
:1036E0005FFD70BD800C004010B5044607F0FAF98C
:1036F000204607F0DFF910BDF8B5544C01212046F3
:1037000000F0A6F80221204600F0A2F84F4DA415C3
:1037100020352146284600F09BF8660031462846B1
:1037200000F096F8A7003946284600F091F8E1002D
:10373000284600F08DF82101284600F089F8610143
:10374000284600F085F8A101284600F081F8E10143
:10375000284600F07DF83D4D01214035284600F017
:1037600077F80221284600F073F84021284600F03F
:103770006FF88021284600F06BF82146284600F0BB
:1037800067F83146284600F063F83946284600F0CD
:103790005FF8E100284600F05BF82101284600F0C0
:1037A00057F86101284600F053F8A101284600F0BF
:1037B0004FF8E101284600F04BF8244D0121603517
:1037C000284600F045F80221284600F041F804217F
:1037D000284600F03DF88021284600F039F82146BF
:1037E000284600F035F83146284600F031F83946D1
:1037F000284600F02DF8154C01218034204600F0B9
:1038000027F80221204600F023F81021204600F07E
:103810001FF82021204600F01BF83946204600F012
:1038200017F8E114204600F013F8A114204600F028
:103830000FF86114204600F00BF82114204600F028
:1038400007F8E113204600F003F8F8BD400C0040F3
:1038500070B50C460546012207F0F2FD21462846C8
:1038600003F0A0FC70BD000010B5154C2078C00717
:1038700003D114480078400620D500F02DF82078B8
:10388000C00718D010480078C00902D09D2007F06A
:1038900029FB2078BF224008400020700B480178A7
:1038A0004908490001700A4801781140017004F08C
:1038B000F5FC07F097F907490020087010BD0000DB
:1038C0000502002009020020080200200602002054
:1038D000040200203B02002010B50F480F49027877
:1038E0000F48552A0DD00F4A044612780A7010214D
:1038F00003F056FC00BF00BF2021204603F052FC1D
:1039000010BD094A127AD20701D000220A70102194
:1039100003F046FC10BD000030F803002102002037
:10392000600C004065F903008C200020F0B5F14EDA
:103930000024F14D93B0074601297DD055297CD054
:10394000AA297BD0FF297AD140216846FCF7C7FC21
:1039500000273C236A460021381D04F071FB7F1CC0
:10396000FFB2082FF5D3E548C1220178114001705C
:10397000FFF742FDE248447004F090FCE148EF2775
:10398000017839400170E048E049047030780C70EB
:103990004006400EFD2108403070002000F0ECF998
:1039A000DB48017839400170DA480470012000F0EA
:1039B000E3F9287838402870D7480470022000F0D6
:1039C000DBF9D648017839400170D54804700320EE
:1039D00000F0D2F9307838403070D24804700520B9
:1039E00000F0CAF9D048DF210460D0480460307884
:1039F00008403070CE48FB210470287808402870B9
:103A0000CC480480062000F0B7F93078BF21084088
:103A10003070C948F7210470287808402870C748DA
:103A20000480072000F0A8F92878FD210840C44947
:103A300028700A88C34B03E006E04BE074E0B1E075
:103A40001B781A436FD0B1E00C21781EFCF766FB9F
:103A50004000119110903C236A460021001D09F09E
:103A60007FFB119988000818694640180521FCF76A
:103A700036FC10983C236A460021001D13F07CFDA3
:103A8000384600F099F9112F7CD01D2F7BD0152FCF
:103A90007AD0232F79D0252F78D0122F77D0202FCE
:103AA00076D00F2F75D0262F74D0272F73D0282FC4
:103AB00072D02A2F71D02B2F70D02E2F6FD02F2F96
:103AC0006ED0302F6DD0312F6CD10A2000F054F918
:103AD0000B20A0E08A4F00207C7100F087F9BC71B8
:103AE000012000F083F90F27384600F065F97F1CAC
:103AF000FFB23C2FF8D382483C2384876A460021DA
:103B0000062009F02DFB02A834210230FCF7E7FB68
:103B10003C236A460021062013F02EFD4021684612
:103B2000FCF7DDFB1BE03EE03C236A46002106205B
:103B300009F016FB01A839210130FCF7D0FB3C232A
:103B40006A460021062013F017FD40216846FCF765
:103B5000C6FB3C236A460021042013F00DFD3C23E4
:103B60006A460021082013F007FD3C236A46002125
:103B70000A2013F001FD3C236A4600210C2013F0BB
:103B8000FBFCF0E62CE02FE031E036E03CE045E0E5
:103B90004DE054E05CE069E078E085E094E09DE091
:103BA0009EE0A1E01EE0684A12880A8040084000BA
:103BB0002870664801784906490E01700CF0A4F996
:103BC000042000F0D9F8002004F026FB012004F0C6
:103BD00023FB082000F0D0F8092000F0CDF874E7AE
:103BE0004748447013B0F0BD04F058FBFAE745486D
:103BF000EF22017811400170F4E7434804703078F7
:103C00004006400E3070EDE74048FD2104703078EA
:103C100008403070002000F0AFF8E3E73C48EF22A6
:103C20000178114001703B4804700120F3E72878C7
:103C3000EF210840287038480470022023E03748FC
:103C4000EF22017811400170354804700320E2E74B
:103C50003078EF210840307032480470052000F0C1
:103C60008BF83148046031480460BBE73078DF21CD
:103C7000084030702E48FB210470287808402870D6
:103C80002C480480062000F077F81AE03078BF2135
:103C9000084030702848F7210470287808402870C0
:103CA000264804800720EEE72878FD210840287088
:103CB0002348244A01881278114302D122490988F5
:103CC00001800CF021F98DE7287840084000287029
:103CD0001E4801784906490E0170F2E7002000E015
:103CE000012004F099FA7DE7082000F045F809204A
:103CF00091E70000190200200402002007020020C2
:103D000000000020080200208C0200208802002011
:103D10000E0200205E020020810200200902002025
:103D2000660200205F020020700200207402002062
:103D30006002002062020020610200206402002074
:103D40007E020020800200202EF9030006020020DF
:103D500006490020086006499F2208781040087034
:103D6000044801784906490E01707047300200206E
:103D7000050200200402002010B504460C2816D2CB
:103D800000200BF071FA0A4A0021A00011500949E5
:103D900040180421FCF7A3FAFF203023054A3821FC
:103DA000403004F04DF930210148FCF798FA10BD7D
:103DB00060210020180700200A4930B5C0004018D3
:103DC0008038807FFF280CD00749C2085218450769
:103DD00053796D0F0124AC40A3435371002208189E
:103DE000C27330BDF879010000000020F0B5094A27
:103DF0000021141801230F46C50066791846884033
:103E0000064202D168188018C773491CC9B2082934
:103E1000F3D3F0BD000000200749BF220878400618
:103E2000400E10400870054900208870C87020318D
:103E30008877C87770470000070200200000002044
:103E400030B5002310E0D51A2C186D18203C203D09
:103E5000E47FED7FAC4201D9012030BDAC4201D2FC
:103E6000022030BD5B1CDBB29342ECD3002030BD9E
:103E700030B50022094B0DE08D1AED18845CED7908
:103E8000AC4201D9012030BDAC4201D2022030BD8C
:103E9000521CD2B28A42EFD3032030BD300300203F
:103EA00030B500230BE0C55CCC5CA54201D90120F4
:103EB00030BDA54201D2022030BD5B1CDBB2934273
:103EC000F1D3032030BD000010B50146062204489E
:103ED000FFF7E6FF032801D0012010BD002010BD30
:103EE00057040020F8B5064680212D4803F058F904
:103EF0002B4D0022603504212846FDF759FE002293
:103F000008212846FDF754FE00228021284607F0AC
:103F100097FA8021284603F043F9224C6421207847
:103F2000484321490CF050FA13F034FD002824D105
:103F30001E493E20086048690F20486200208862C0
:103F4000086220788100401817490CF03DFA13F000
:103F500021FD002811D18021284603F023F93046A5
:103F600004F078FE002808D0114D00246946304640
:103F700003F0B4FC01280FD101E00220F8BD68462F
:103F800000782855641CE4B20D2CEFD328783B2828
:103F900002D16878692801D00320F8BD0020F8BD5F
:103FA000600C004000F8030095790100001C0140FE
:103FB00019220020094910B5484309494018417B9E
:103FC000802902D1017B002901D0012010BD817A16
:103FD0000175143000F0DCFA10BD0000F20500009D
:103FE0009A080020F7B50E46304982B04843304960
:103FF000049A45182C4616342146304604F0B8FD84
:10400000002802D0012005B0F0BD2A480078400702
:104010000CD5002168460170417081700521C17086
:104020000121017141711021817102E0684609F09E
:10403000B7FD6F462146B819049AFCF737F9B81C4A
:10404000FEF782FB0721801DFCF752F86846C1701D
:104050000722694600200BF0DBFA002801D002207D
:10406000D1E7154E20460622F11DFCF71FF900F09E
:1040700027F82946123104221048FCF717F90F4897
:1040800021460622001DFCF711F90C480622F11DFD
:104090000A30FCF70BF9102001F016FA182002F094
:1040A00043FD102001F096FE0020ACE7F205000071
:1040B0009A08002007020020300300201807002083
:1040C0007CB53F4C0622E11D6846FCF7EFF8204620
:1040D00009F066FD0CF0ECF80622E11D6846FFF7DA
:1040E000AFFE012802D1E01DFEF7ECFF344900A825
:1040F00003220A310330FFF7D3FE0125032843D002
:10410000FFF78AFE00212F48FDF7FEFF2E2013F057
:104110005FFA81071D22890F800851431346FF3043
:10412000284A263003F08CFF002004F075F868461A
:104130004079217B244A884204D010780621284304
:10414000084306E068460079E17A884202D0107898
:10415000284310701078C00714D001211948FDF7CA
:10416000D3FF2F2013F034FA81071B22890F800818
:1041700051431346FF30134A233003F061FF0120FF
:1041800004F04AF802F0D4FE1048202201781143CE
:1041900001700F48817A491C81720AF0C7FB0D48F3
:1041A0000570002013F0EEF813F098F913F094F96D
:1041B000FEF755FF012802D1A22006F093FE7CBD38
:1041C0003003002018070020180200200C020020F5
:1041D000310500200F020020F0B56949694A4143CA
:1041E0008E18717B8DB0802951D1654A654B424351
:1041F000D4182546317B002716351F34002906D0F8
:1042000001291FD0022920D0032940D11EE0B07A15
:10421000B07720460322294601F0BAFE30461E3010
:10422000029000F0EFF90746B07A50280DD15120E6
:10423000B07729462046032201F0AAFE029800F03A
:10424000E1F989E0AA21FEF7F5FD97E0294620462D
:10425000042201F09DFE2046042204A9FDF75AFE27
:1042600007A903200AF0A0FAB07A002806D0012896
:104270005AD0022862D0032871D07FE061206946BD
:10428000C87303A90020FCF725FD002802D00120F7
:104290000DB0F0BD00206946C873042204A93A4855
:1042A000FDF738FE0498FCF7D3FA384A384BFCF790
:1042B000B3F90022374BFCF717FAFCF7CDFB0446A5
:1042C0003548C079212828D034480078FCF7A5FA71
:1042D00005460398FCF7A1FA2146FCF764F8294645
:1042E000FCF79EF8FCF7F1FA2D4914230A46886082
:1042F0000021084613F040F90998410040187D213B
:10430000C900FBF7F5FE03905F206946C873254995
:1043100003984860FDF7A0FD30E00398FCF77DFAB4
:104320002146FCF740F8DDE77D220898D200504393
:104330000499FBF7DDFE1A49486019E0294620463A
:10434000042201F025FE304629462330042201F0E4
:104350001FFE204603F03AFF07460FE0FFE77D22ED
:104360000798D20050430499FBF7C2FE0C4908603D
:10437000002114230A4A084613F0FEF8384687E75E
:10438000F20500009A080020B50200207B14AE4719
:10439000E17AF440882A2141F80200207FF90300E5
:1043A000A40400207024002002480078C00700D038
:1043B0000120704708020020F7B596B00D46880727
:1043C00068D1462202A81699FBF770FF0024324FED
:1043D0005EE0A007800F02281FD0E04380071CD0BA
:1043E000A10002A808180068BE79642113F089FAB8
:1043F00032460023FBF7D6FE019100906946082261
:10440000084603F042FC1898000637D41698A1001D
:104410000818042200A9013136E0A10002A80818FA
:104420000068002600280CDA0126FCF7FDF9F207E7
:104430005140FCF7A1FA64220023FBF7D9FEBA79B8
:1044400005E0BA796421149213F043FA149A002318
:10445000FBF7A8FE0191009008216846FEF764FB77
:1044600069460822084603F010FC002ECBD06946AE
:1044700008798021084369460871C4E7A000211823
:104480001698052208186946FBF710FF641CE4B271
:10449000AC429ED319B0F0BDB5020020F7B59AB07A
:1044A0000E46462204A81A99FBF700FF002426E0D6
:1044B0001549A70004A838188D790068642113F005
:1044C00020FA2A460023FBF76DFE0391029002A911
:1044D0000822084603F0D9FB1C98000605D41A9858
:1044E0000422381802A9013105E0A00021181A9809
:1044F0000522081802A9FBF7D9FE641CE4B2B442F5
:10450000D6D31DB0F0BD0000B502002070B5FEF797
:104510005BF91B4D00241B48604340190146FF31E5
:10452000C1318A8F002A0BD1FD231B5C5B0707D5A5
:1045300000BF00BF20460CF0B1F9FEF75DFF13E0AD
:10454000C98F002909D1002A07D1E030807F0028D7
:1045500003D1022C01D10AF0BBFB00200BF006FEB8
:10456000641CE4B2042CD6D307480849806888420A
:1045700004D100BF00BF01200BF0F4F870BD0000B3
:104580009A080020F20500000C0200207856341230
:1045900010B5044600780146A13905290BD8184901
:1045A00040004018FF385F38017FA170407FE07005
:1045B0000020607022E00146B13910290ED2104966
:1045C0000222A339415C61700D4940000E3141184F
:1045D000FF39A01C533901F0DBFC0FE00421204619
:1045E00004F0B3F821460020FCF774FB002801D04A
:1045F000012010BD0421204604F0A7F8002010BDC2
:1046000030240020F8B5044600785C4F5C4EFF284B
:104610000ED05C4DEE2844D05B4A00218B009B18E5
:10462000DB78984252D188008019042221465AE052
:104630003C2255495248FBF739FE5448007802287D
:1046400002D14120000630634F484C490C382039D4
:1046500000680863FDF700FC0020386048480C2122
:104660004038FBF73CFE464A0C23403A0021242008
:1046700012F082FF42490020822534787378323963
:1046800042000D545218401C1474C0B253741028C8
:10469000F6D33B4A3023323A0E21242012F06CFF2D
:1046A0006AE0E0788108A170032901D90321A17093
:1046B000C9B2491CC9B2A170012801D9480200E061
:1046C000002038602878022108433FE0491CC9B225
:1046D0000F29A3D32C490C39C978884208D127481F
:1046E00004222146103001F053FCFDF7B5FB43E0F6
:1046F0000146A13905290ED841002148204A4038F9
:104700000818FF385F38A1780177E17841770C23EA
:10471000403A002116E00146B13910291AD2184951
:104720006278E3394254207802224100144832383A
:104730000818FF38A11C533801F02AFC104A302316
:10474000323A0E21242012F017FF2878082108435E
:10475000287011E0502801D2BC2000E0A620FCF710
:1047600041FB0421204603F0F0FF21468020FCF7A6
:10477000B1FA0020FCF736FB0020F8BD180300203A
:10478000702400200E020020807C01007FF90300CD
:1047900010B51148EF2201780623114001700F4A2D
:1047A0002C210E2012F0B5FC002806D006210B4863
:1047B000FBF795FD0949012048711A23084A0E218B
:1047C000322012F0A6FC002804D01A220549044821
:1047D000FBF76CFD10BD00000D020020A7020020B9
:1047E00090210020F1FA0300FEB5414E414C307893
:1047F000C1094148077841484743002915D1E0697C
:10480000800512D43E488569E069800502D500BF65
:1048100000BF0AE028460BF08FFDB842F4D3307891
:104820008021084330700BF06FFB364D2878C007AD
:10483000E0690AD0800557D4314880690290E06968
:10484000800528D500BF00BF4EE080054CD52C4820
:1048500080690290E0698005F4D502980BF06CFD48
:10486000B842F7D328480078002840D128780121A1
:10487000084328700BF048FBFF2206216846FBF72F
:1048800027FD06226946522011F0CEFC3078C0097F
:104890002DD02B2026E002980BF04EFDB842CED34F
:1048A00019480078002822D1287840084000287054
:1048B0000BF02AFB1548C07E000608D514481549A0
:1048C000007808700B482021203802F069FC12495A
:1048D0000020088011481249007808703078C0091B
:1048E00005D0AB2006F0FEFA074803210170FEBD9B
:1048F00006020020C00C004000F80300C05D00006C
:1049000000E000E004020020780200208C2000205B
:104910002AF903005C0200207E02002030F9030027
:1049200080020020F0B5B7B0164F064600246D4651
:1049300038206043C1193420604340193422E031EB
:10494000FBF7B4FC641CE4B2042CF1D30E4DFF233E
:104950002A7F34A96846FDF753FC0C4804228019CD
:10496000044634A9FBF7A2FC6A7FFF2334A96846FA
:10497000FDF746FC201D042234A9FBF797FC37B055
:10498000F0BD0000000000208C200020180700204F
:1049900010B50C230A4A2C21102003F0C5FA04207C
:1049A00001F0B0FD002801D0022800D90120401EEE
:1049B0000449C0B20874044908F0E7FB10BD0000C8
:1049C0001807002031050020BC040020F0B587B096
:1049D00001A902221A20033103F0E7FA6846C079E0
:1049E000552801D00E2400E00F242A23394A002143
:1049F000204603F099FA002805D02A23354A0021E1
:104A0000204603F091FA344E3078FDF79EFA0028E4
:104A100001D00E2800D9012001F074FD044668463B
:104A2000007A552801D0102000E0182004902B486F
:104A3000C178062905D82A480278CA40D10700D192
:104A4000447825480079FDF780FA07463C2827D8A6
:104A5000002623E00F213046FBF74AFB00290FD147
:104A6000002542303C231B4A2946059003F05CFA9E
:104A7000002805D03C23174A0021059803F054FA7A
:104A800014481649401903220A31401CFFF708FA5E
:104A900003281CD02D1D761CEDB2F6B2BE42D9D330
:104AA000002C05D0082C03D80B484078A04200D237
:104AB0000124641E0B49E0B288730499094A08185E
:104AC0002A23203A002103F02FFA07B0F0BD014855
:104AD000445DE5E718070020542100203003002042
:104AE0006220002031050020F8B5FEF705FEEA4CF3
:104AF000206B400840002063206B04218843206322
:104B0000E54D40352869102188432861E248C030CE
:104B1000006908218843E049C0310861012120462D
:104B2000FDF784F802212046FDF780F80421204695
:104B3000FDF77CF808212046FDF778F81021204683
:104B4000FDF774F820212046FDF770F8402120463B
:104B5000FDF76CF880212046FDF768F8A115204686
:104B6000FDF764F861152046FEF772FE2115204618
:104B7000FDF75CF8E1142046FDF758F8A114204633
:104B8000FDF754F8661431462046FDF74FF8012230
:104B9000970339462046FDF70BF80122D103204642
:104BA000FDF706F8BC4C002220340121204606F017
:104BB00047FC02212046FEF74BFE0022042120463E
:104BC00006F03EFC08212046FEF742FE102120465A
:104BD000FEF73EFE00222021204603F077FD402113
:104BE0002046FEF735FE80212046FEF731FEA11556
:104BF0002046FDF71BF861152046FDF717F8211533
:104C00002046FDF713F8A114204602F0CBFAA114B8
:104C10002046FEF71DFE31462046FDF707F83946CF
:104C20002046FDF703F8E1132046FCF7FFFF0421BF
:104C30002846FCF7FBFF08212846FCF7F7FF002277
:104C40001021284606F0FCFB20212846FEF700FE36
:104C500040212846FCF7EAFF80212846FCF7E6FFC2
:104C6000A1152846FCF7E2FF61152846FCF7DEFF98
:104C700021152846FCF7DAFFE1142846FCF7D6FF99
:104C8000A1142846FCF7D2FF31462846FCF7CEFF98
:104C900039462846FCF7CAFFE1132846FCF7C6FF51
:104CA0007D4C012160342046FEF7D2FD02212046D2
:104CB000FEF7CEFD04212046FCF7B8FF0821204670
:104CC000FCF7B4FF75480078552807D1102120461D
:104CD000FEF7BEFD20212046FEF7BAFD012240214D
:104CE000204603F0F3FC80212046FEF7B1FD6A4C1C
:104CF000042180342046FEF7ABFD08212046FEF754
:104D0000A7FD10212046FEF7A3FD20212046FEF737
:104D10009FFD614C0821A0342046FEF799FD10212B
:104D20002046FEF795FD20212046FEF791FD5C48C8
:104D3000007855286CD040212046FEF789FD0121DE
:104D400009032046FEF784FD31462046FEF780FD2C
:104D500039462046FEF77CFD0121C9032046FEF7B7
:104D600077FD4D4C0421C0342046FEF771FD08212B
:104D70002046FEF76DFD40212046FEF769FD8021AB
:104D80002046FEF765FDA1152046FEF761FD611581
:104D90002046FEF75DFD43480025C5624248816913
:104DA000490849008161FDF747F800F0BDF905F0B9
:104DB00067FB3E48404905803D48057085703D4889
:104DC00002780A7042784A700079087101223E2107
:104DD0003A48FBF77DFA202239493848FBF766FA52
:104DE00036480122C8303E210646FBF771FA2022E0
:104DF00033493046FBF75AFA3248017832480429E1
:104E00000BD232490978082907D20321017005E045
:104E100040212046FCF70AFF91E705702C49082045
:104E20004860022005F05EFE0221084605F096FE6D
:104E3000022005F07BFE2748206227486062FF20A1
:104E4000E06220631E2005F04DFE02211E2005F0C9
:104E500085FE1E2005F06AFE2049802088601B2008
:104E6000FEF742FC1D20FEF73FFC0E20FEF73CFC47
:104E70000B20FEF739FC0A20FEF736FC0920FEF76E
:104E800033FC1820FEF730FC1920FEF72DFC002023
:104E9000FEF72AFCF8BD0000000C004030F80300CB
:104EA00042F8030000280140000200403E020020BA
:104EB000B20200208DFA03006D040020440500209A
:104EC00096FA030059020020580200205A020020DE
:104ED000001001400008000800200010000D0040F4
:104EE000F8B51F4A1B4E15781E4A71781B4C554366
:104EF000002919481C4FE16B09D0890626D5806925
:104F00000090E06B800615D400BF00BF1EE089064C
:104F10001CD480690090E06B8006F5D400980BF0FB
:104F20000BFAA842F7D33878002812D1012070700C
:104F3000112009E000980BF0FFF9A842E1D338787E
:104F4000002806D17070912005F0CCFF074800784A
:104F50003870F8BD0000002000E000E0000C0040C8
:104F600000F80300C05D000057020020A8F903000C
:104F7000F0B50746002002460A4D10E0BC5C002355
:104F800006466640F60702D04008684000E0400848
:104F90005B1C6408DBB2082BF2D3521CD2B28A42EB
:104FA000ECD3F0BD0884000030B50C460546FFF791
:104FB000DFFF2855000A2919487030BD70B50C462E
:104FC0000546FEF73FF8002805D021462846FFF7A2
:104FD000CFFF002800D0012070BD000070B514463E
:104FE0000D46042814D2214A1F4950434218022C6E
:104FF00005D0508AD084908A1023108502E0507A20
:105000001038C3B200212846163211F083F904E0AB
:1050100000221423104612F079FA002801D00A2049
:1050200070BD002223462946104608F01DF80028CE
:1050300016D10F48022C09D00621801C03F085FBF5
:1050400003F03CFC00280DD00E2070BD40780122FA
:10505000401CC3B22946002008F006F8002801D001
:10506000022070BD002070BD9A080020F2050000EB
:1050700019220020F8B50546FEF7BEF90024074EB8
:10508000074F06E003F084F83068B84203D0641C90
:10509000E4B2AC42F6D3FEF7AFF9F8BD140200203B
:1050A0007856341210B50449097848435D214843C5
:1050B0000BF09CF910BD000000F8030070B5144619
:1050C0000D460646FEF798F9154B01204002196877
:1050D000002E0ED081431960196801431960FF202A
:1050E00001301968002D06D0814319601968014309
:1050F00002E08143F2E781431960012080021968D0
:10510000002C0AD001431960064900200861186884
:1051100080088000801C186070BD8143F3E70000A8
:105120000001004000ED00E010B5084C01218903AA
:105130002046FEF78DFBE1132046FEF789FB03486E
:10514000E114203002F02CF810BD0000000C0040EB
:1051500010B501224021054803F0B8FA04490020A7
:10516000086003494031486010BD0000200C004039
:1051700000300140FEB50B46344901267605771014
:105180004C69CA69032B09D273001A435B021C43A2
:1051900032433A435B0B1A434C6126E00125AD02D2
:1051A0002C4332434C618C686E0134438C603A432B
:1051B0006C022243CA61052B04D2240122439B1CAA
:1051C000DBB2CA61214A01241269E40222431B1F97
:1051D000012B06D0022B06D0032B0FD0042B05D1B8
:1051E0000EE00A6102E0CA692A43CA61184C41799B
:1051F000A578090708D00321E17708E00A61F2E702
:1052000001231B031A43ECE7E17F002903D0C9B255
:10521000A94200D2A170014608226846FBF746F871
:10522000A27804239A1A920001990098FBF72DF8AE
:10523000019100900821684603F087FA00AA052131
:10524000F120033205F02CF9A570FEBDC803002043
:105250006D04002010B50446FCF744FF0749042202
:10526000C978511A8900C840214603F066FA2246DF
:105270000421E32005F014F910BD00006D040020A6
:1052800010B50A4A0124E4071168230D21430028C0
:1052900009D019431160D06901210843D061D06859
:1052A0002043D06010BD1943116010BDC803002019
:1052B00010B50D48DF2201781D23114001700B4A03
:1052C0001621282011F025FF002804D01D220849AE
:1052D0000648FAF7EBFF054841780078414348005B
:1052E0000449086010BD00000D0200206D0400207C
:1052F00070FA030050020020F8B52048BF22017860
:105300001F4F114001700026C8207043C019054688
:10531000C821FFF753FE00281FD0002401E0032C12
:1053200001D03E2300E00C233E2060432A18600099
:10533000801900212C3002F0F7FD002812D1641CE6
:10534000E4B2042CEBD32846C621FDF77BFE0028EF
:1053500008D02846C621FFF727FE761CF6B2022E9B
:10536000D2D3F8BD0020C11D4200FF31FB31401CEB
:10537000C0B2A9521428F6D3EFE700000D020020B6
:105380004405002070B51249134D8A78114C2878D5
:10539000130608D4FF2805D100F020F80320207060
:1053A0000F20287070BD002809D0FF28FAD120787E
:1053B0000028F7D100BF00BF00F0E2FB70BD00BFC6
:1053C00000BF5006400E88700020207070BD0000A5
:1053D000B20200203C0200201A02002010B51A4838
:1053E0003C2404801948C069C00505D500BF00BF32
:1053F0000421174801F0D4FE164900200870164811
:10540000012144708278D307002B12D000BF00BF67
:105410000278124B521CD2B202701B799A4202D906
:1054200000BF00BF01700E4AF724137823401370A9
:1054300002E001700A438270827880231A438270EE
:105440000848017010BD000024020020002801401F
:10545000800C004056020020B20200206D040020A3
:105460000902002010020020FEB50746002000902F
:105470000446054601260190B000C1190422684681
:10548000FAF714FF0098019924184D41761CF6B2E2
:105490000D2EF1D3042239466846FAF707FF01982A
:1054A000009902460B1BAA4107D30A1B0549A841D4
:1054B00009780023891A834101D20120FEBD002012
:1054C000FEBD00006BF90300074910B5081804463B
:1054D00004220649FAF7EAFE0449201D04223C3161
:1054E000FAF7E4FE10BD0000180700206800002055
:1054F000FEB5FF490320C860FE4C2078002808D084
:10550000012809D032280FD0142809D0502807D0FC
:105510000DE07320207013E0F749012008700FE0C0
:10552000F6490978890702D5F54A012111706428E6
:1055300006D1F44901200870C102F34801F032FE9F
:105540002078F249401E20700878EF4A4006000E8D
:1055500008702032D26B520601D4401C0870EC480F
:105560004278910717D0EB498B6BDB0713D0496B5F
:105570004B05E9495B0D0C780D46E406A40E403D51
:105580002B530B785B1CDBB20B70402B03D3012A2F
:105590000BD020214170E1480178002907D0491E35
:1055A0000906090E017002D00AE01021F2E7DC487A
:1055B0000078022804D1D4484021A03001F0F0FD49
:1055C000D84800260178D0484030552910D0D64917
:1055D0000A78002A04D0521E1206120E0A701ED13A
:1055E0002021044601F0DCFD00BF1021204611E01F
:1055F000CE49097AC90710D0CB490A78002A01D0D0
:10560000521E0A70CA4A1278D20708D009780029B7
:1056100005D1102101F0C4FD01E0C3480670C54862
:105620000178002904D0491E0906090E017004D131
:10563000B5482021803001F0B5FDBF48BF49027850
:10564000002A11D0BE4B1B789A420DD8AE4B203B9E
:10565000DB6BDB0608D5521E1206120E027004D157
:105660000878401C087000E00670B6480278002AEE
:1056700011D0B54B1B789A420DD8A34B203BDB6968
:105680009B0508D5521E1206120E027004D14878EE
:10569000401C487000E00670AC48AD490025401839
:1056A0000290FF30C1300090AA48A94968434418CD
:1056B0002746E037F87F002830D0401E0006000E55
:1056C000F8772BD1002D06D0032D0CD0012D14D04E
:1056D000022D26D01FE0A048026801158A4302600F
:1056E0000168C21406E09C48026804218A430260F3
:1056F00001680822114301600DE0974802681021FB
:105700008A43026001682022114301607E4808211B
:10571000603001F047FD3E777E77BE77022D04D0E2
:105720000BE08D4801680222E4E70098808F002892
:1057300003D00099401E888702E0FF20FD30065309
:10574000FF34C134E08F002801D0401EE0876D1C7B
:10575000EDB2042DA8D30024FE277E482146414304
:105760007B480D180195E035A87F00285BD0401ECE
:105770000006000EA87756D1687F000751D5002C8F
:1057800006D0032C0FD0012C16D0022C26D02FE0EF
:1057900071488030876370480268C1148A43026090
:1057A0000168021517E06C488763026808218A4384
:1057B0000260016804220EE053480821603001F0C5
:1057C000EFFC6548403087616348026820218A43C6
:1057D0000260016810221143016009E05E488761A0
:1057E0000168022211430160026801210A4302603C
:1057F00001980121FF30E13081760199497A103119
:10580000C176022C02D07D20E8770CE000997D2043
:1058100088870298E0300677417F090909014177BE
:1058200001E00120A877641CE4B2042C95D34B4816
:105830000078552826D14A494A480A7C002A1ED1B8
:10584000497C00291BD144494968890617D401784D
:105850002D4A4906090E0170203AD26B520701D534
:10586000491C0170C8B2FF280CD0002810D13A485A
:105870004030816A03290BD00321816208E0552161
:10588000017005E034484030816A002900D086620A
:10589000204CE069C00529D423480078002825D190
:1058A00007252D02E169C90502D4401CA842F9D39D
:1058B000A8421BD114480421603001F073FC124847
:1058C000FF210131A03001F06DFC0020E169C90524
:1058D00002D4401CA842F9D3A84207D1606900064F
:1058E000000F0F2842D0204801210170FEBD0000AA
:1058F000C03001401C0200200F02002009020020DD
:105900001002002011020020200C00401A0200208A
:105910002202002000280140F22000202002002066
:105920001E02002030F80300210200208C200020FD
:10593000050200205C02002089020020AF02002046
:105940006CF903008A0200206DF90300E40B0000EB
:105950009A080020F2050000002001403BF80300F7
:105960007A0F00201B0200201202002010490F486D
:105970000860022005F0B6F81B2005F0B3F81D20E2
:1059800005F0B0F80E2005F0ADF80B2005F0AAF8F0
:105990000A2005F0A7F8092005F0A4F8182005F062
:1059A000A1F8192005F09EF8A0E7000078563412FF
:1059B0001402002010B50D490320C8600C4801787E
:1059C000002904D0491E0906090E01700DD10948AD
:1059D0000078032801D0062803D14021064801F0B1
:1059E000DFFB024900204039086310BD003101404F
:1059F000960200201E020020C00C004030B5054673
:105A000011480C46C1680E229143C16020780AF00B
:105A10000DFF60780AF00AFF002D0BD00225605DB3
:105A20000AF004FF6D1CEDB2052DF8D30AF0DCFE80
:105A3000607130BD02250AF0D7FE60556D1CEDB2D5
:105A4000062DF8D330BD00008020014010B50021A4
:105A500014230A4A084611F05CFB00280CD00849C0
:105A60000020085E0749411804480160064941606A
:105A7000064981600649C16010BD0000A4040020F1
:105A80007CF90300F0970E00765A000005A800008C
:105A9000E75B000070B53C23344A0021222011F05E
:105AA00038FB324C002805D13C212046FDF7CAFACC
:105AB00000280BD13C222E492C48FAF7F7FB2D4841
:105AC0000078022802D141200006206304232A4ADC
:105AD0003621322011F01DFB002805D0264824492C
