:020000040000FA
:08000000020B79023C7522227B
:0F000B00023CCFEF240A83900100730A2D50733B
:03001B00023CA202
:03002300022A327C
:03002B00023D95FE
:03003300023DC2C9
:03003B00023DEF94
:03004300023E4C2E
:10004B00022B8A01020A0B09030401020A0B0903A2
:10005B00043EFA7B010235BD023E8AE4FF122F56A5
:06006B00122DB102274A2C
:10007300023EB7900CD21208FD7810EC4D4E4F7033
:10008300047CA57DA5C3EC13FCED13FDEE13FEEF7D
:1000930013FF5010EC64CCFCED644CFDEE644EFE9B
:1000A300EF64CEFFD8DF900CD2120919EE547FFE15
:1000B30022900CD2EEF0EFA3F0A374A5F0A3F022EC
:1000C300300100000C0333020012300004002C3412
:1000D3000006000E1D0008000C1E000A000C0002A2
:1000E300060A0E050204040404900CE27401F09065
:0A00F3000CE2E0FF14F0EF70F622BB
:10010000C0087401C0E0C082C08375080AC0F085D1
:10011000A8F0C2AF75B75575B61175B70085F0A8D0
:10012000D0F022C0087401C0E0C082C08375082DE1
:10013000C0F085A8F0C2AF75B75575B61175B70098
:1001400085F0A8D0F022C0087401C0E0C082C0834E
:10015000750850C0F085A8F0C2AF75B75575B622C6
:1001600075B70085F0A8D0F022C0087401C0E0C0C7
:1001700082C083750873C0F085A8F0C2AF75B7550B
:1001800075B63375B70085F0A8D0F02290800021B5
:10019000469082BF2146908402214690869921464E
:1001A00090E12E214690C685214690F46C21469020
:1001B000F2662146909B43212390813A212390A00F
:1001C0006D2123908043212390800021239091383A
:1001D000212390992621239086F7212390ABD121CA
:1001E00023908A5B2123908FDF2123908419212380
:1001F00090938E212390BBA9212300020543E8643C
:1002000080F8E933E83360110460F0ED33EC3370CB
:1002100009E8FCE9FDEAFEEBFF220460DED3EB9F78
:10022000EA9EE99DE8C2E78CF0C2F795F0400CE841
:10023000CCF8E9CDF9EACEFAEBCFFB12050E85D06A
:10024000F05804700320D5B3E80470075002B2D50B
:1002500002054D92D5EC0460F7E4CCC0E0C398F8F9
:10026000603B94186008400DD0E0FB020525E4FBDC
:10027000FAC9FC8028E830E406E4C9FBE4CAFCE8DB
:1002800030E305E4C9CACBFCE854076010F8C3E9C1
:1002900013F9EA13FAEB13FBEC13FCD8F130F52F4A
:1002A000C3E49CFCEF9BFFEE9AFEED99FDD0E0FBD2
:1002B000EF4E4D4C701222DB0302054AEC2CFCEF92
:1002C00033FFEE33FEED33FDED30E7EB020525EFB6
:1002D0002BFFEE3AFEED39FDD0E0FB50130BBB00D7
:1002E0000302054DED13FDEE13FEEF13FFEC13FCBF
:1002F000020525EC4D6011E8497017ED33EC33042D
:10030000600DE4FCFFFEFD22E933E8330470F802DF
:10031000054312050E58046009E4CC2481500628D8
:10032000500902054D28400302054AC0E0EB4A701F
:1003300044B98006D0E0FB020539EF4E701CBD8049
:1003400008EBFFEAFEE9FD80EBE98DF0A4FEE5F0A5
:100350000203DCE9CDF9EAFEEBFFEF89F0A4FCE54E
:10036000F0CE89F0A42EFFE435F0CD89F0A42DFE67
:10037000E435F08067EF4E7005BD80D780C3EF8B0A
:10038000F0A4ACF0EE8BF0A42CFCE435F0F8EF8A8E
:10039000F0A42CE5F038FCE433CB8DF0A42CFCE584
:1003A000F03BF8EE8AF0A42CFCE5F038F8E433CF0B
:1003B00089F0A42CFCE5F038CF3400CE89F0A42FCE
:1003C000FFE5F03EFEE433C98DF0A42EFEE5F039E2
:1003D000CD8AF0A42FFFE5F03EFEE43DFD33D0E0F2
:1003E000FB50070BBB000F02054DEC2CFCEF33FF5D
:1003F000EE33FEED33FD02052502054DEC5D046094
:1004000005E85904700302054312050E580460F60E
:10041000EC4860F2EC7004FDFEFF22C860DB248132
:10042000C85009C3986002500602054A9850CAF5A0
:1004300082E9294B4A7005AB8202053975F0007CD0
:100440001A7880C3EF9BEE9AED99400DC3EF9BFFA6
:10045000EE9AFEED99FDE842F0DC23ACF0D0E0FF2F
:10046000D0E0FED0E0FDAB8220E7101BEB60BAECE1
:100470002CFCEF33FFEE33FEED33FD020525E803E0
:10048000F830E705C0F075F000EF2FFFEE33FEED1A
:1004900033FD40B830E7C280AA75F020800E75F0B9
:1004A00010800575F0087D007E007F003392D53006
:1004B000D5031208B8EC334010EF33FFEE33FEEDF6
:1004C00033FDEC33FCD5F0ED22E5F0247EA2D5130C
:1004D000CC92E7CDCEFF22EDD2E7CD33EC3392D5EF
:1004E00024814006E4FFFEFDFC22FCE4CFCECDCC0F
:1004F00024E0501174FF80EDC3CC13CCCD13CDCECE
:1005000013CECF13CF0470F030D5DE0208B8E9D295
:10051000E7C933E833F892D5EDD2E7CD33EC33FCBD
:100520005002B2D522EC30E7100FBF000C0EBE0017
:10053000080DBD00040BEB6014A2D5EB13FCED928B
:10054000E7FD2274FFFCFDFEFF22E480F8A2D574D3
:10055000FF13FC7D80E480EFE709F608DFFA8046B0
:10056000E709F208DFFA803E88828C83E709F0A36E
:10057000DFFA8032E309F608DFFA8078E309F2084F
:10058000DFFA807088828C83E309F0A3DFFA80644D
:1005900089828A83E0A3F608DFFA805889828A83F9
:1005A000E0A3F208DFFA804C80D280FA80C680D4C3
:1005B000806980F28033801080A680EA809A80A8CB
:1005C00080DA80E280CA803389828A83ECFAE493FD
:1005D000A3C8C582C8CCC583CCF0A3C8C582C8CC8B
:1005E000C583CCDFE9DEE7800D89828A83E493A3AB
:1005F000F608DFF9ECFAA9F0EDFB2289828A83EC98
:10060000FAE0A3C8C582C8CCC583CCF0A3C8C58214
:10061000C8CCC583CCDFEADEE880DB89828A83E44C
:1006200093A3F208DFF980CC88F0EF60010E4E60F2
:10063000C388F0ED2402B4040050B9F582EB240223
:10064000B4040050AF23234582239005A873BB0157
:100650000689828A83E0225002E722BBFE02E3225F
:1006600089828A83E49322BB010CE58229F582E525
:10067000833AF583E0225006E92582F8E622BBFEA4
:1006800006E92582F8E222E58229F582E5833AF53A
:1006900083E49322BB010FF8E58229F582E5833AD2
:1006A000F583E028F0225009C58229F8E58226F674
:1006B00022BBFE09C58229F8E22582F222F8EA254A
:1006C00083F583E9932822BB010689828A83F0227D
:1006D0005002F722BBFE01F322F8BB010DE582298F
:1006E000F582E5833AF583E8F0225006E92582C8D1
:1006F000F622BBFE05E92582C8F222EF8DF0A4A800
:10070000F0CF8CF0A428CE8DF0A42EFE22BC000BDE
:10071000BE0029EF8DF084FFADF022E4CCF875F037
:1007200008EF2FFFEE33FEEC33FCEE9DEC98400516
:10073000FCEE9DFE0FD5F0E9E4CEFD22EDF8F5F0DC
:10074000EE8420D21CFEADF075F008EF2FFFED33E4
:10075000FD4007985006D5F0F222C398FD0FD5F062
:10076000EA22C5F0F8A3E028F0C5F0F8E58215828A
:1007700070021583E038F022A3F8E0C5F025F0F010
:10078000E582158270021583E0C838F0E822E88F10
:10079000F0A4CC8BF0A42CFCE98EF0A42CFC8AF005
:1007A000EDA42CFCEA8EF0A4CDA8F08BF0A42DCC07
:1007B0003825F0FDE98FF0A42CCD35F0FCEB8EF060
:1007C000A4FEA9F0EB8FF0A4CFC5F02ECD39FEE446
:1007D0003CFCEAA42DCE35F0FDE43CFC2275F0088B
:1007E000758200EF2FFFEE33FECD33CDCC33CCC579
:1007F0008233C5829BED9AEC99E58298400CF58294
:10080000EE9BFEED9AFDEC99FC0FD5F0D6E4CEFB05
:10081000E4CDFAE4CCF9A88222B800C1B90059BAF3
:10082000002DEC8BF084CFCECDFCE5F0CBF9781821
:10083000EF2FFFEE33FEED33FDEC33FCEB33FB101B
:10084000D703994004EB99FB0FD8E5E4F9FA227835
:1008500018EF2FFFEE33FEED33FDEC33FCC933C947
:1008600010D7059BE99A4007EC9BFCE99AF90FD851
:10087000E0E4C9FAE4CCFB2275F010EF2FFFEE3371
:10088000FEED33FDCC33CCC833C810D7079BEC9AB0
:10089000E899400AED9BFDEC9AFCE899F80FD5F039
:1008A000DAE4CDFBE4CCFAE4C8F922CFF4CFCEF4FD
:1008B000CECDF4CDCCF4CC22C3E49FFFE49EFEE485
:1008C0009DFDE49CFC22EB9FF5F0EA9E42F0E99D41
:1008D00042F0E89C45F022E8600FECC313FCED13F6
:1008E000FDEE13FEEF13FFD8F122E8600FEFC333E4
:1008F000FFEE33FEED33FDEC33FCD8F122E0FCA338
:10090000E0FDA3E0FEA3E0FF22E493FC740193FD6D
:10091000740293FE740393FF22ECF0A3EDF0A3EEB8
:10092000F0A3EFF022A8828583F0D083D082120951
:100930003C12093C12093C12093CE473E493A3C540
:1009400083C5F0C583C8C582C8F0A3C583C5F0C5FB
:1009500083C8C582C822D083D082F8E49370127411
:100960000193700DA3A393F8740193F5828883E437
:10097000737402936860EFA3A3A380DFD083D08257
:10098000E4937012740193700DA3A393F874019310
:10099000F5828883E4737402936C70127403936D10
:1009A000700C7404936E70067405936F60DDA3A3DE
:1009B000A3A3A3A380CA60240C85303F3106325B19
:1009C000334F3466356D367D3707387F396F417761
:1009D000427C4339553E4930507346714F3F470C76
:1009E0007E0A0F19326496C860E00AE90000000030
:1009F0000A0A0000000101000A0A00010002000AC0
:100A00000E0E00000003010A0E0E00010004001883
:100A10000E0E0000000501180E0E00010006002653
:100A20001616000000070126161600010008003CFB
:100A30000E0E00000009013C0E0E0001000A004AE3
:100A400010100000000B014A10100001000C005AA9
:100A50000D010101000D00670D010101000E007480
:100A600004040101000F0078030300010010007B63
:100A70001B1B00010011009619190001001200AFA4
:100A80000B0B0001001300BA10100101001400CA82
:100A900006060001001500D005050101001600D56D
:100AA00008080001001700DD08080001001800E533
:100AB0001A1A0001001901AC06060001001A01B261
:100AC0003E3E0001001B01921A1A0001000205437C
:100AD00022EDA2E7D2E7F9EC3340F260F3B4FF086D
:100AE000ED547F70E802054DF82481C2E0C0E0F4C7
:100AF0000428FAC313FCED92E7FD900625120919AC
:100B0000EEA2E7E9BA7F02C31334009400FA75F04D
:100B100091A4E5F013F494FE8AF0A433E5F03324B5
:100B20008CD313FDE492E7FE7F007C3F758302ECDB
:100B3000C0E0F8EDC0E0F9EEC0E0FAEFC0E0FB8500
:100B400083F09006251208FD85F0831203FCD0E0A7
:100B5000FBD0E0FAD0E0F9D0E0F8120202ED6480B8
:100B6000FD30E7011CD583C7ED33CC33F8D0E0A2CC
:100B7000E71328C313CC13FD22787FE4F6D8FD7564
:100B8000812012010A020BC3021921E493A3F8E4A5
:100B900093A34003F68001F208DFF48029E493A3D5
:100BA000F85407240CC8C333C4540F4420C88340EE
:100BB00004F456800146F6DFE4800B0102040810BD
:100BC0002040809009B6E47E019360BCA3FF543FAF
:100BD00030E509541FFEE493A360010ECF54C025F5
:100BE000E060A840B8E493A3FAE493A3F8E493A3E5
:100BF000C8C582C8CAC583CAF0A3C8C582C8CAC549
:100C000083CADFE9DEE780BE0706050403020100B0
:100C1000070605040302010007060504030201009C
:100C2000070605040706050403020100070605047C
:100C3000030201000706050403020100030201008C
:100C400080808080808080804040404040404040A4
:100C5000202020202020202010101010020202024C
:100C6000020202020404040404040404080808083C
:100C7000080808081010101001020102000000030B
:100C80000100020102020100030001000302010051
:100C90000506030405060304060504050506040607
:100CA00004060505060403030480200180082010C3
:100CB00002040840022010104001010220100840E8
:100CC0008010020802020401200880011080020145
:100CD0004008044040100801010102020202020221
:100CE00001020202020202010180402010081008E5
:100CF00004020180018040201008100804020180D5
:100D0000018040201008100804020180018040206A
:100D10001008100804020180030000000000000019
:100D200000000001000101010101010101010102B6
:100D30000102020202020202020202030203030390
:100D400003030303030303000102100808101080CB
:100D5000800202400840024040010104012020803E
:100D60002008040404201080010002020301030291
:100D7000000102030002030100000201030300015D
:100D80000201030002010003E00040F0D0701040B7
:100D900020E0F020B0D0801030A0A06060C0C0B0D3
:100DA000509090500030708040F010C0E080802063
:100DB000D04060902010B070F050C0B0903070E023
:100DC00030A0A000506000D00F03010D08040E07F2
:100DD000060F0B020308040E090C070002010D0A9E
:100DE0000C060009050B0A05000D0E08070A0B0189
:100DF0000A03040F0D040102050B08060C07060C7C
:100E000009000305020E0F09A0D000709000E090C9
:100E100060303040F06050A01020D080C05070E0B2
:100E2000B0C040B020F08010D01060A040D0900042
:100E30008060F09030800070B04010F020E0C03052
:100E400050B0A050E02070C0070D0D080E0B030538
:100E50000006060F09000A03010402070802050C38
:100E60000B010C0A040E0F090A03060F0900000605
:100E70000C0A0B01070D0D080F09010403050E0BE9
:100E8000050C02070802040E20E0C0B0402010C08C
:100E90007040A070B0D060108050500030F0F0A0D2
:100EA000D0300090E080906040B0208010C0B070E2
:100EB000A010D0E0702080D0F06090F0C000509082
:100EC00060A030400050E0300C0A010F0A040F020D
:100ED0000907020C0609080500060D01030D040EA2
:100EE0000E00070B05030B0809040E030F02050C87
:100EF000020908050C0F030A070B000E04010A077C
:100F000001060D000B08060D40D0B00020B0E070C7
:100F1000F04000908010D0A030E0C030905070C001
:100F20005020A0F060801060106040B0B0D0D08041
:100F3000C010304070A0E070A090F050600080F0D1
:100F400000E05020903020C00D01020F080D040871
:100F5000060A0F030B0701040A0C090503060E0B12
:100F60000500000E0C09070207020B01040E010721
:100F700009040C0A0E08020D000F060C0A090D00E8
:100F80000F0303050506080BFFF0020027062007E4
:100F900044445359363636202020444C2F540036D2
:100FA00034352D323030372D3134FEFEFEFE6800F0
:100FB00000FFFFFFFFFFFF000068000000000001CE
:100FC00004E601000000040001000100000104E645
:100FD00001000000040001000200000104EA010019
:100FE00000000400010090020101058901000000D9
:100FF00004000100900200010583010000000400CC
:10100000010330060101051D01000000040001027A
:101010008000200105190000040004000104000400
:10102000010103ED000010000600010400040201AC
:1010300003F3000010060600010400040E0103F98A
:101040000000100C060001033001000105D401006E
:101050000000040101033302010105D80100000072
:10106000040101040010010105A1000011000400A9
:1010700001040010020105A5000011040400010490
:101080000010040105A9000011080400010400106B
:10109000030105AD0000110C04000104001005015E
:1010A00005B10000111004000104090B010105B590
:1010B0000000111403000104800010FF0F880100DC
:1010C00000000801000400040DFF0F9A0100000059
:1010D0001001000400040BFF0F90010000000A0142
:1010E0000004000C010000000000120004010004D4
:1010F000000C020000000000120304010004000CB8
:1011000003000000000012060401000400030801AF
:101110000408000019000100000400030201040992
:10112000000019010100000400030101040A00008D
:1011300019020100000400030501040B000019035B
:101140000100000404010101040E00001A00010165
:10115000000404020101042C00001A1E0101000415
:10116000000306010402000010150300010400033F
:10117000070103FF0000101203000102010100013A
:10118000002E010000000200010202010001004DDA
:1011900001000000030001020300000100690100DA
:1011A00000000300010203010001006D01000000C6
:1011B0000300010206000001008A01000000020095
:1011C000010206010001008E010000000200010280
:1011D00080000201009A01000000020001070000E7
:1011E000FF070001FF070101FF070102FF070103DD
:1011F000FF070301FF070002FF200E1E1E18300824
:10120000100404040404161100000000111100B0C1
:10121000990184D401FF8430020C80FA000380FA23
:1012200000000084000084D6960004D6822404DCEA
:10123000010C04DC030C8432010C04D6820004D6B9
:10124000830004D684000082000804D68C0004D6F3
:10125000000004D6880004D6940004D6970000C08D
:10126000000000B0880000B08C0000B0940000B016
:10127000970004B2010C0000000000000000000014
:10128000000000000000000000000102030201064F
:101290000BFFF0FF014348494E54494D0F094B4C99
:1012A000000100000100150101000006000102011B
:1012B00000010A001F030100000B000104010000EF
:1012C0000D000105000000020106060000000301F8
:1012D00020000000000000000000000000000000EE
:1012E00000000000000000000000000000000000FE
:1012F00000000000000000000000000000000000EE
:1013000000000000000000000000000000000000DD
:1013100000000000000000000000000000000000CD
:1013200000000000000000000000000000000000BD
:1013300000000000000000000000000000000000AD
:10134000000000000000000000000000000000009D
:10135000000000000000000000000000000000008D
:10136000000000000000000000000000000000007D
:10137000000000000000000000000000000000006D
:10138000000000000000000000000000000000005D
:10139000000000000000000000000000000000004D
:1013A000000000000000000000000000000000003D
:1013B000000000000000000000000000000000002D
:1013C000000000000000000000000000000000001D
:1013D000000000000000000000000000000000000D
:1013E00000000000000000000000000000000000FD
:1013F00000000000000000000000000000000000ED
:1014000000000000000000000000000000000000DC
:1014100000000000000000000000000000000000CC
:1014200000000000000000000000000000000000BC
:1014300000000000000000000000000000000000AC
:10144000000000000000000000000000000000009C
:10145000000000000000000000000000000000008C
:10146000000000000000000000000000000000007C
:10147000000000000000000000000000000000006C
:10148000000000000000000000000000000000005C
:10149000000000000000000000000000000000004C
:1014A000000000000000000000000000000000003C
:1014B000000000000000000000000000000000002C
:1014C000000000000000000000000000000000001C
:1014D000000000000000000000000000000000000C
:1014E000000000000011892312329B462457AD658D
:1014F0003674BF8C489DC1AF5ABED3CA6CDBE5E9D8
:101500007EF8F7108101083393221A56A5472C75EF
:10151000B7643E9CC98D40BFDBAE52DAEDCB64F9B7
:10152000FFE8762102308B02101399672676AF44CC
:101530003455BDAD4ABCC38E589FD1EB6EFAE7C897
:101540007CD9F53183200A1291031877A7662E54AF
:10155000B5453CBDCBAC429ED98F50FBEFEA66D877
:10156000FDC9744204538D6116709F042015A9278C
:101570003236BBCE4CDFC5ED5EFCD7886899E1AB57
:101580007ABAF35285430C7197601E14A10528376F
:10159000B3263ADECDCF44FDDFEC5698E98960BB37
:1015A000FBAA726306728F4014519D252234AB064C
:1015B0003017B9EF4EFEC7CC5CDDD5A96AB8E38A17
:1015C000789BF17387620E5095411C35A3242A162F
:1015D000B10738FFCFEE46DCDDCD54B9EBA8629AF7
:1015E000F98B7084089581A71AB693C22CD3A5E114
:1015F0003EF0B7084019C92B523ADB4E645FED6DDF
:10160000767CFF94898500B79BA612D2ADC324F1E6
:10161000BFE03618C109483BD32A5A5EE54F6C7DBE
:10162000F76C7EA50AB48386189791E32EF2A7C0C3
:101630003CD1B5294238CB0A501BD96F667EEF4C9E
:10164000745DFDB58BA40296998710F3AFE226D0A6
:10165000BDC13439C3284A1AD10B587FE76E6E5C7E
:10166000F54D7CC60CD785E51EF497802891A1A383
:101670003AB2B34A445BCD695678DF0C601DE92F5E
:10168000723EFBD68DC704F59FE41690A98120B366
:10169000BBA2325AC54B4C79D7685E1CE10D683F3E
:1016A000F32E7AE70EF687C41CD595A12AB0A38243
:1016B0003893B16B467ACF485459DD2D623CEB0E1E
:1016C000701FF9F78FE606D49DC514B1ABA0229226
:1016D000B983307BC76A4E58D5495C3DE32C6A1EFE
:1016E000F10F780101010102020226262626252596
:1016F0002528282828272727101010101111110E2F
:101700000E0E0E0F0F0F0C0C0C0C0D0D0D0A0A0A0D
:101710000A0B0B0B0A100F0E0D0B0C040302010237
:10172000040304030201020403040302010204038C
:10173000040302010204030403020102040304037C
:10174000020102040304030201020403000000007A
:10175000000000000000000104E604020100010096
:10176000000104E6040201000200000104EA040290
:1017700001040004010103ED02000504000401015D
:1017800003EF040001040004020103F30200050456
:101790000004020103F50400010400040E0103F932
:1017A0000200050400040E0103FB04000102800096
:1017B00020010519040401009002000105830402C0
:1017C00001009002010105890402010400100101D9
:1017D00005A1040201040010020105A50402010490
:1017E000090B010105B50304030201010001001DFD
:1017F0000302030202010001003D03030302030090
:10180000000100590304030203010001005D030409
:10181000030206000001007A02030502060100012E
:10182000007E0203050280000201009A0202050404
:1018300000040901009C030003FFFFFFFF000000FC
:1018400000000036000000003700000000380000F3
:1018500000003A000000003B000000003C000000D7
:10186000003D00FD27003E000000003F000000009A
:101870004000000000410000000042000000004461
:101880000000001B4500000000460000000047006B
:101890000001804B000001FF5000000000510000DB
:1018A000000452000000005300000000540000003B
:1018B0000055000000005600000000570000000026
:1018C0005A008000005B007FF547600000055D6105
:1018D000007FF54662000000007C000000807D0073
:1018E00000000048000001823400000000350000C4
:1018F00000003900000000430000001B3000000021
:10190000353100A000C13200000C8433000000E833
:10191000003409350D390C0F0A10091BD3000000E3
:10192000001201B9BF01031201BE31749004B4E08A
:10193000F8A3E0F9A3E0FAA3E0FBC31208C6600332
:10194000E4F5B131749004B41209191201DC1201EA
:101950008C1201D71201AF1201B480CEF583EF25AE
:1019600083F583E0FCA3E0FDA3E0FEA3E0FF900687
:101970000B1209199004B0E0FCA3E0FDA3E0FEA364
:10198000E0FF90067D1209199004ACE0FCA3E0FD95
:10199000A3E0FEA3E0FF900681120919E4FFFEFD1B
:1019A000FC900681E0F8A3E0F9A3E0FAA3E0FBC312
:1019B0001208C6703074FFFFFEFDFC90067DE0F853
:1019C000A3E0F9A3E0FAA3E0FBC31208C66043E476
:1019D000FFFEFDFC90067DE0F8A3A3A3E0C3120880
:1019E000C67002802D90067DE0FCA3E0FDA3E0FE22
:1019F000A3E02401FFE43EFEE43DFDE43CFCA3E063
:101A0000F8A3E0F9A3E0FAA3E0FBC31208C6600262
:101A1000217490067DE0FCA3E0FDA3E0FEA3E0FFBF
:101A2000227B017A05797B7D047C0091849005817D
:101A3000EEF0A3EFF07B017A05797BE4FD7F17FEE2
:101A400051617B017A0079107D047C0091849000C3
:101A500016EEF0A3EFF07B017A007910E4FD7F161B
:101A6000FE90098CEDF0A3EBF0A3EAF0A3E9F0906F
:101A7000098AEEF0A3EFF09009907401F0E4900968
:101A800092F0A3F0C3EF941CEE940040028154E462
:101A9000900991F0900991E0FFC3941C4002815499
:101AA00075F008EFA424E9F582E5F0340AF583E047
:101AB000FEA3E0FF90098AE0FCA3E0FDEF6D700259
:101AC000EE6C6002814CEDAE047803C333CE33CEAE
:101AD000D8F9FF24EFF582740A3EF583E0600261D5
:101AE0007090098DE0FBA3E0FAA3E0F974EE2FF506
:101AF00082740A3EF583E024FEFDE434FFFC918409
:101B0000900992EEF0A3EFF0900992E0FD90098A1F
:101B1000E0FEA3E07803C333CE33CED8F924EEF54C
:101B200082740A3EF583E024FEFFE434FFFE900950
:101B30008DE0FBA3E0FAA3E0F98F828E83ED12061D
:101B4000D9900992A3E0FD90098AE0FEA3E0780312
:101B5000C333CE33CED8F924EEF582740A3EF58332
:101B6000E07E0024FFF582EE34FFF583ED1206D906
:101B700090098AE0FEA3E07803C333CE33CED8F9D0
:101B800024EBF582740A3EF583E0FEA3E0FF9009A2
:101B90008CE0FD7C00EF2DFFEC3EFEC006C007A3ED
:101BA000E0FBA3E0FAA3E0F990098AE0FEA3E07865
:101BB00003C333CE33CED8F924EEF582740A3EF552
:101BC00083E0900CC5F0D007D0061241A1EF60026F
:101BD0008154900990F090098AE0FEA3E07803C355
:101BE00033CE33CED8F9FF24F0F582740A3EF58364
:101BF000E0706174F32FF582740A3EF583E0FEA372
:101C0000E0FF90098CE0FD7C00EF2DFFEC3EFEC074
:101C100006C007A3E0FBA3E0FAA3E0F990098AE07D
:101C2000FEA3E07803C333CE33CED8F924F6F58291
:101C3000740A3EF583E0900CC5F0D007D00612413F
:101C4000A1EF60109009907401F08008900991E074
:101C500004F04194900990E0FF2291F3900616E081
:101C6000FF7E00900618EEF0A3EFF0FD900615E061
:101C7000FFED900618CFF0A3EFF07B017A0679090B
:101C80007D0C7C009009D0EBF0A3EAF0A3E9F0A36F
:101C9000ECF0A3EDF0E4A3F0A3F09009D374FFF50A
:101CA000F012077845F060429009D0E0FBA3E4759C
:101CB000F001120778A9F0FA12064EFF9009D5E05C
:101CC000FCA3E0FDED6F25E0FFE433FE74E32FF5A8
:101CD0008274143EF583ECFFE493FE7401936FFF6E
:101CE0009009D5EEF0A3EFF080B09009D5E0FEA307
:101CF000E0FF22900CB5EEF0A3EFF0900CB7EBF004
:101D0000A3EAF0A3E9F0900CBBE4F0900CBAE0FF7A
:101D1000EF70037F0122900CBAE0FF7E00900CB5BB
:101D2000E0FCA3E0FDEF2DFFEE3CFED3EF94FFEED1
:101D3000940140037F0122900CB5E0FEA3E0FFEE8A
:101D4000FF7E00EF54FFFF900CBCEFF0900CBCE066
:101D5000FFEF25E0FF900CBCEFF012401D900CBC93
:101D6000E0FFEF24A0FFD176EF6005D10D7F0122C7
:101D7000900CB5E0FEA3E0FFD176EF6005D10D7FBA
:101D8000012212401D900CBCE0FFEF24A1FFD17690
:101D9000EF6005D10D7F0122900CB7E0FBA3E0FAC4
:101DA000A3E0F9900CBDEBF0A3EAF0A3E9F0900CEE
:101DB000BCE4F0900CBAE0FFEF14FF900CBCE0FE26
:101DC000EEC39F5024124284900CBDE0FBA3E0FAC6
:101DD000A3E0F9900CBCE0FE8E82758300EF120642
:101DE000D9900CBCE004F080CA124320900CBDE0F6
:101DF000FBA3E0FAA3E0F9900CBCE0FE8E827583B1
:101E000000EF1206D9D10D900CBBE0FF22900CE43C
:101E1000E4F090FFE8E0FFEF54BFFF90FFE8EFF041
:101E2000900CE47414F0900CE4E0FFEFD3940040C5
:101E300016E5EC20E61143EC801200EC53EC7F90A9
:101E40000CE4E014F080DF90FFE8E0FFEF4440FF97
:101E500090FFE8EFF090FFE8E0FFEF4480FF90FF95
:101E6000E8EFF053ECBF53EC7F1200EC43EC801230
:101E700000EC43EC4022900CD6EFF0900CD7E4F04D
:101E8000900CD8E4F090FFE8E0FFEF4480FF90FF73
:101E9000E8EFF053EC7F90FFE8E0FFEF4440FF9065
:101EA000FFE8EFF0900CD8E4F0900CD8E0FFEFC31F
:101EB00094085030900CD6E0FFEF30E70543EC403B
:101EC000800353ECBF43EC80900CD6E0FFEF25E09D
:101ED000FF900CD6EFF0123FB753EC7F900CD8E098
:101EE00004F080C512000790FFE8E0FFEF54BFFF49
:101EF00090FFE8EFF043EC80120007E5EC30E606D7
:101F0000900CD77401F053EC7F900CD7E0FF229037
:101F1000066AE075F00EA424C3F582E5F0340FF5EF
:101F200083E493FE740193FF7B017A067928E4FD34
:101F3000900987EDF0A3EBF0A3EAF0A3E9F0900994
:101F400085EEF0A3EFF090098B7401F0E4A3F0A309
:101F5000F09009CEF0A3F0C3EF941CEE9400400380
:101F6000022159E490098CF090098CE0FFC3941C85
:101F7000400302215975F008EFA424E9F582E5F049
:101F8000340AF583E0FEA3E0FF900985E0FCA3E0BE
:101F9000FDEF6D7002EE6C600302215090098DF030
:101FA000900985E0FEA3E07803C333CE33CED8F9A1
:101FB00024EBF582740A3EF583E0FEA3E0FF90096E
:101FC00087E0FD7C00EF2DFFEC3EFEC006C0077BE6
:101FD000017A09798E900985E0FEA3E07803C33386
:101FE000CE33CED8F924EEF582740A3EF583E09024
:101FF0000CBAF0D007D00691F3EF6401707A900923
:1020000085E0FEA3E07803C333CE33CED8F9FF24B6
:10201000F0F582740A3EF583E0704E74F32FF5827A
:10202000740A3EF583E0FEA3E0FF900987E0FD7CA3
:1020300000EF2DFFEC3EFEC006C0077B017A097958
:102040008E900985E0FEA3E07803C333CE33CED86B
:10205000F924F6F582740A3EF583E0900CBAF0D0CC
:1020600007D006121CF3BF010F90098DE004F0E0C9
:10207000C394035003021FA090098DE0C394034052
:10208000037F0122900985E0FEA3E07803C333CEED
:1020900033CED8F9FF24EFF582740A3EF583E07061
:1020A0006D74EE2FF582740A3EF583E0FF248DF502
:1020B00082E43409F583E0FD9009CEE4F0A3EDF06D
:1020C000748C2FF582E43409F583E0FE9009CEE0AC
:1020D0004EF0A3E0F07B017A09798E900985E0FE4D
:1020E000A3E07803C333CE33CED8F924EEF582745F
:1020F0000A3EF583E024FEFDE434FFFC121C8490CC
:1021000009CEE06E7003A3E06F60037F01229009A7
:1021100088E0F9A3E0FAA3E09009D3C9F0A3EAF0BC
:10212000A3E9F0900985E0FEA3E07803C333CE3342
:10213000CED8F924EEF582740A3EF583E09009D6F4
:10214000F07B017A09798E3179E490098BF080096E
:1021500090098CE004F0021F6890098BE0FF2231A7
:10216000799009D37401F0A37404F0A374FDF0A373
:102170007404F07B017A0579839009D0EBF0A3EA2F
:10218000F0A3E9F0E4FF9009D6E0FEEFC39E502BE8
:102190009009D0E0FBA3E0FAA3E0F98F82758300F9
:1021A000120667FE9009D3E0FBA3E0FAA3E0F98FE3
:1021B00082758300EE1206D90F80CB2290065DEB6C
:1021C000F0A3EAF0A3E9F0900664E0FED394015096
:1021D000037F0122EE24FFFFE434FFFE900663E05C
:1021E000FD7C001206FB90065DE0FBA3E0FAA3E095
:1021F0002FF9EA3EFAC002C001A3E0F9A3E0FAA376
:10220000E09009D3C9F0A3EAF0A3E9F0900663E0F7
:102210009009D6F0D001D0023179900664E09006A2
:1022200067F0900667E0FFD39401406E900665E08A
:1022300064557009EF12362FEF6057800C900667D7
:10224000E012362FEF64016049900667E024FEFF3C
:10225000E434FFFE900663E0FD7C001206FB90066E
:102260005DE0FBA3E0FAA3E02FF9EA3EFAC002C06A
:1022700001A3E0F9A3E0FAA3E09009D3C9F0A3EA2F
:10228000F0A3E9F0900663E09009D6F0D001D00207
:102290003179900667E014F080887F0022900783F0
:1022A0007401F0A3740AF0A374D1F090077EE0905B
:1022B0000786F090077AE0FBA3E0FAA3E0F9900725
:1022C00080EBF0A3EAF0A3E9F09009D37401F0A346
:1022D0007407F0A37491F0A37408F0900783E0FBF7
:1022E000A3E0FAA3E0F93179900780E0FBA3E0FADC
:1022F000A3E0F91247FA7B017A077991124873E457
:10230000900787F0E4900788F0900787E0FF900C33
:10231000D893FE900788E0C39E501C900786E0FD8E
:10232000B40103EF60117B017A077991124BAC90F5
:102330000788E004F080D29009D37401F0A37407F9
:10234000F0A37489F0A37408F07B017A07799131C6
:10235000799007AF74FFF0A3740CF0A37478F0A326
:1023600074FFF0A3740CF0A374A8F0A37406F07BC0
:10237000017A07798912489190079C7401F0A3743F
:1023800007F0A37489F0900780E0FBA3E0FAA3E0D4
:10239000F9124964E4F5B1900787E004F0E0C394D2
:1023A0001050026104900780E0FBA3E0FAA3E0F97B
:1023B000900799EBF0A3EAF0A3E9F0E4F5B19007F8
:1023C0009D04F012064E9007A5F0900004120667D7
:1023D0009007A4F09000011206679007A3F0900008
:1023E000051206679007A2F0900002120667900798
:1023F000A1F09000061206679007A0F0900003126B
:10240000066790079FF090000712066790079EF0FE
:10241000E490079CF07B017A07799E1247CD9007E4
:1024200099E0FBA3E0FAA3E0F9A3E0F5827583004D
:10243000EF1206D990079DE025E0F090079CE0049C
:10244000F0E0C3940840CEE4F5B12290077D74011A
:10245000F07F0690077AEBF0A3EAF0A3E9F0EF64CF
:102460000660147B017A0A79D1E4FD7F13FE121F06
:1024700030BF01037F012290077DE0B40209A374FD
:1024800002F0A314F0800990077E7401F0A304F019
:10249000519D9007837401F0A3740AF0A374D9F0DE
:1024A00090077F51AE519D7F002290076CEBF0A307
:1024B000EAF0A3E9F0A3EDF0D3946440037F012296
:1024C0009007767401F0A3740AF0A3744FF090099A
:1024D000D37401F0A3740AF0A374E1F0A37408F0BC
:1024E000900770E0FBA3E0FAA3E0F931797B017A71
:1024F0000A79D1E4FD7F13FE121F30BF01037F0173
:1025000022900776E0F9A3E0FAA3E09009D3C9F09E
:10251000A3EAF0A3E9F090076FE09009D6F09007E6
:102520006CE0FBA3E0FAA3E0F93179900776E0FBD9
:10253000A3E0FAA3E0F990076FE0FFF5827583004E
:1025400074801206D97E00E92FF9EE3AFAE92401E7
:10255000F9E43AFA90098EE4F0A37407F0E4FDD1AF
:102560009B90076FE0131313541F04900775F0E45A
:10257000FD74E12DF582E4340AF583C083C082E066
:10258000FF900776E0FBA3E0FAA3E0F98D82758364
:1025900000120667FEEF6ED082D083F00DEDB40816
:1025A000D0E4900774F0900775E014FF900774E092
:1025B000C39F506E9007837401F0A3740AF0A37454
:1025C000D1F0A37402F07B017A0A79E151BEE4FDF7
:1025D00074E12DF582E4340AF583C083C082E0FC07
:1025E000900774E02401FFE433FEEF7803C333CE99
:1025F00033CED8F9FFED7A002FFFEA3EFE90077642
:10260000E0FBA3E0FAA3E0F98F828E831206676CE9
:10261000D082D083F00DEDB408B6900774E004F0DA
:1026200080847B017A0A79E190077D7402F0E4FFEF
:102630009153900773E06401703B90076CE0FBA33B
:10264000E0FAA3E0F9A3E0FF7E00E92FF9EE3AFA01
:10265000900988EBF0A3EAF0A3E9F0A37404F0A3D7
:102660007455F07B017A0A79E1123675BF02037F57
:1026700000227F01227F002290052FE054FDF07B95
:10268000017A0C790A7D041201A57B017A0C790E7E
:1026900090098EE4F0A37404F0E4FD90098AEBF055
:1026A000A3EAF0A3E9F0A3EDF0E4FFFED390098FD5
:1026B000E09F90098EE09E401F90098DE0FD9009FB
:1026C0008AE0FBA3E0FAA3E0F98F828E83ED120685
:1026D000D90FBF00010E80D422122FA1122F017832
:1026E000887C067D017BFF7A1379997E007F281212
:1026F00006289006B07401F09009D3F0A37406F098
:10270000A37488F0A37413F07BFF7A12798D31796A
:102710009006B47401F0A37406F0A3749BF0A37444
:1027200006F07B017A0379ED123BC17B017A0679D1
:10273000887D017F02123282EF70099006B0F0901E
:10274000053604F09006B0E0FF2278097C067D0192
:102750007BFF7A1479027E007F64120628E49006DB
:102760006DF0123EFCEF64046019EF64016007E451
:102770009004E5F0D1DF9004E5E0D394B44004E4A4
:10278000F0D1DF7B017A0679091235BDEF704490F4
:10279000066DF090066DE0FFC39406502EE0FEFD3E
:1027A000C374059DFDE49400FC74892DF5827404C6
:1027B0003CF583E0FD74092EF582E43406F583E0F0
:1027C000B5050890066DE004F080C8EFC39406508C
:1027D000048000D1D922E0FFA3E0900989CFF0A3C3
:1027E000EFF07D06900985EBF0A3EAF0A3E9F0A3F2
:1027F000EDF012281FEF70037F0122900985E0FBA6
:10280000A3E0FAA3E0F9A3E0FD7C00121C84900988
:1028100089E06E7003A3E06F7F0060027F01229069
:10282000098BEBF0A3EAF0A3E9F0E4FFEFC39D50BE
:102830001B90098BE0FBA3E0FAA3E0F98F8275837C
:102840000012066760037F01220F80E07F00229064
:102850000600EBF0A3EAF0A3E9F0E4FFEFC39D501C
:102860001C900600E0FBA3E0FAA3E0F98F827583D9
:1028700000120667F460037F01220F80DF7F0022D1
:10288000F090060EE0FBA3E0FAA3E0F9900003123B
:102890000667FFEFD3946340037F0022EF75F00AD1
:1028A00084C454F0FEEF75F00A84E5F02EFF22ACEC
:1028B00007AF0511DCAD07AF0411DCEF2DFF1206E9
:1028C0004E2FFFE41206C7EFC3946440097401124F
:1028D00006C7749C2FFF80BB120667FFEFC4540F1E
:1028E00075F00AA4FEEF540F2EFF2290098AEBF038
:1028F000A3EAF0A3E9F0E4900991F0A3F090099025
:10290000E0FF900992E0FEC39F5079EEFDC3EF9D7A
:10291000FDE49400FCED24FFFFEC34FFFE90098AF7
:10292000E0FBA3E0FAA3E0F98F828E83120667FF33
:10293000ED24FFFDEC34FFFC90098DE0FBA3E0FAF1
:10294000A3E0F98D828C83120667FD7B017A0979F9
:102950009111AF900992E0FD900990E0C39DFDE4D4
:102960009400CD24FFCD34FFFC90098AE0FBA3E066
:10297000FAA3E0F98D828C83EF1206D9900992E0D8
:1029800004F001FD229004B0E0FCA3E0FDA3E0FE12
:10299000A3E0FF9005F41209199004ACE0FCA3E059
:1029A000FDA3E0FEA3E0FF9005F8120919E4FFFE85
:1029B000FDFC9005F8E0F8A3E0F9A3E0FAA3E0FB42
:1029C000C31208C6703074FFFFFEFDFC9005F4E0F2
:1029D000F8A3E0F9A3E0FAA3E0FBC31208C6604342
:1029E000E4FFFEFDFC9005F4E0F8A3A3A3E0C3120E
:1029F00008C67002802D9005F4E0FCA3E0FDA3E082
:102A0000FEA3E02401FFE43EFEE43DFDE43CFCA324
:102A1000E0F8A3E0F9A3E0FAA3E0FBC31208C66064
:102A20000221859005F4E0FCA3E0FDA3E0FEA3E015
:102A3000FF22C0E0C0F0C083C082C0D075D000C00B
:102A400000C001C002C003C004C005C006C007909A
:102A500005F1E5A7F075A70075B7559005F0E5B647
:102A6000F075B70030993DC2999000A3E004F09052
:102A700000A2E0FFA3E0C39F502431859000AE1276
:102A800009199000A3E0247EF582E43401F583E087
:102A9000FF30D004D29B8002C29B8F9980069000A9
:102AA0009F7408F030980BC298AF99AD07E4FF12FD
:102AB000019675B7559005F0E0F5B675B700A3E03F
:102AC000F5A7D007D006D005D004D003D002D0019E
:102AD000D000D0D0D082D083D0F0D0E0329004B0FB
:102AE000E0FCA3E0FDA3E0FEA3E0FF9006001209D6
:102AF000199004ACE0FCA3E0FDA3E0FEA3E0FF908E
:102B00000604120919E4FFFEFDFC900604E0F8A398
:102B1000E0F9A3E0FAA3E0FBC31208C6703074FF2B
:102B2000FFFEFDFC900600E0F8A3E0F9A3E0FAA3A5
:102B3000E0FBC31208C66043E4FFFEFDFC90060004
:102B4000E0F8A3A3A3E0C31208C67002802D90068C
:102B500000E0FCA3E0FDA3E0FEA3E02401FFE43ECF
:102B6000FEE43DFDE43CFCA3E0F8A3E0F9A3E0FAB9
:102B7000A3E0FBC31208C6600241DD900600E0FC42
:102B8000A3E0FDA3E0FEA3E0FF22C0E0C0F0C0830D
:102B9000C082C0D075D000C000C001C002C003C058
:102BA00004C005C006C0079005FDE5A7F075A700A5
:102BB00075B7559005FCE5B6F075B70030D93DC244
:102BC000D990024AE004F0900249E0FFA3E0C39FDD
:102BD000502451DD90025512091990024AE0242533
:102BE000F582E43403F583E0FF30D004D2DB8002C9
:102BF000C2DB8FD980069002467408F030D80BC231
:102C0000D8AFD9AD077F0112019B75B7559005FC70
:102C1000E0F5B675B700A3E0F5A7D007D006D0055C
:102C2000D004D003D002D001D000D0D0D082D08345
:102C3000D0F0D0E032E0FCA3E0FDA3E0FEA3E0FF93
:102C400090060F12091990060FE0FCA3E0FDA3E027
:102C5000FEA3E0FFA3E0F8A3E0F9A3E0FAA3E0FB02
:102C6000C31208C6900613E0503DF8C000C001C072
:102C700002C00390060FE0F8A3E0F9A3E0FAA3E096
:102C8000FBC374FF9BFF74FF9AFE74FF99FD74FFF2
:102C900098FCD003D002D001D000EB2FFFEA3EFE1B
:102CA000E93DFDE83C8024FCA3E0FDA3E0FEA3E0B9
:102CB000FF90060FE0F8A3E0F9A3E0FAA3E0FBC35E
:102CC000EF9BFFEE9AFEED99FDEC98FCA31209191B
:102CD000900617E0FCA3E0FDA3E0FEA3E0FF900652
:102CE00013E0F8A3E0F9A3E0FAA3E0FBC31208C6DF
:102CF0007F0140027F0022E0FF75F0A7A4248BF53E
:102D000082E5F03401F583EF2583F583E0240AFDA5
:102D1000900777EBF0A3EAF0A3E9F0E4FFFEEEC33F
:102D20009D5018900777E0FBA3E0FAA3E0F98E82AC
:102D30007583001206672FFF0E80E322F0A3EAF0EE
:102D4000A3E9F0A37404F07B017A057983900985E7
:102D5000EBF0A3EAF0A3E9F0E490098CF090098B82
:102D6000E0FFA3E0FEC39F5047EEFD900985E0FB26
:102D7000A3E0FAA3E07E002FF9EE3AFAE924FFF986
:102D8000EA34FFFAC3E99DF9EA9400FA12064EFF0D
:102D9000900988E0FBA3E0FAA3E0F990098CE0F544
:102DA00082758300EF1206D990098CE004F080ADA3
:102DB00022786F7C067D017BFF7A1479667E007F26
:102DC000191206289009887401F0A37406F0A37400
:102DD0006FF0A37406F07B017A047989B14D9009F4
:102DE000D37401F0A37406F0A37475F0A3740CF00F
:102DF0007B017A04798F1221799009D37401F0A3B1
:102E00007406F0A37481F0A37403F07B017A047953
:102E10009B1221797B017A06796FD12F9004A0E073
:102E200090066FF07B017A06796FD1AD0226DF90B4
:102E300006957415F0E4FF900691EFF0A3EBF0A374
:102E4000EAF0A3E9F078967C067D017BFF7A12799F
:102E5000D17E007F641206289006FA7401F0A374F4
:102E600006F0A37496F0A37401F0900695E0FF605D
:102E70001F9009D37401F0A37406F0A37496F0A315
:102E8000EFF0900692E0FBA3E0FAA3E0F9122179BB
:102E9000900691E0FF7B017A0679967D01123282DD
:102EA000EF70049006FDF09006FDE0FF229006888A
:102EB000EBF0A3EAF0A3E9F0A37401F0788C7C06B0
:102EC000FD7BFF7A1379DA7E007F051206289009D0
:102ED000D37401F0A37406F0A3748CF090068BE019
:102EE0009009D6F0900688E0FBA3E0FAA3E0F9127F
:102EF00021797B017A06798C9006957401F0FFC1E7
:102F0000379009D37401F0A37404F0A37489F0A37B
:102F10007406F07B017A0379ED1221799006B4747E
:102F200001F0A37404F0A3748FF0A37406F07B0186
:102F30007A047989123BC1E490049BF0A3F0A3F0DA
:102F4000A304F0A3E4F0B1B17B017A047989E4FD34
:102F50007F1BFE021A61900609EFF0E4A3F07B01EB
:102F60007A0479899004A1E0FFA3E0900989CFF069
:102F7000A3EFF07D181227E4EF7006900609E070C9
:102F80001A7B017A047989E4FD7F1BFE121F30BF92
:102F9000010690060A7401F01226D990060AE0FF95
:102FA0002290FFE3E04440F043B0407F967E001261
:102FB00031FF90FFE3E04440F053B0BF7FF47E0167
:102FC0001231FF9002467401F022900720EBF0A32B
:102FD000EAF0A3E9F0E4FFEFC39D5028900720E05A
:102FE000FBA3E0FAA3E0F98F82758300120667FE67
:102FF000540FD394095007EE54F0949040037F018E
:10300000220F80D37F0022900626E0FF7E007C0105
:103010007DA71206FB74982FF974013EFA7B01908C
:103020000668E07E0029F9EE3AFA7D04900720EB6D
:10303000F0A3EAF0A3E9F0A3EDF0E4A3F0900723F6
:10304000E0FFC313FEA3E0C39E5078900720E0FB8F
:10305000A3E0FAA3E0F9900724E0FEF5827583006F
:10306000120667900725F0EF24FFFDE434FFFCEE25
:10307000FFC3ED9FFFEC94008F82F583120667FF7C
:10308000900724E0F582758300EF1206D99007259A
:10309000E0FF900723E024FFFDE434FFFCA3E0FB06
:1030A000C3ED9BFDEC9400FC900720E0FBA3E0FA4D
:1030B000A3E0F98D828C83EF1206D9900724E004F7
:1030C000F0013D22900626E0FF7E007C017DA712E4
:1030D00006FB74902FF974013EFA7B0190066FEBAA
:1030E000F0A3EAF0A3E9F012064EFF24A9F582E46A
:1030F0003404F583E0C39403401074A92FF582E4EF
:103100003404F5837403F07F01227B017A0679731E
:10311000E4FD7F12FE121F30BF01037F01229006E3
:103120006FE0FBA3E0FAA3E0F912064EFF700690F1
:103130000672F0801BEFB401089006727403F080F1
:103140000FEFB402089006727406F080037F01222C
:10315000E4FFEF2401FDE433FC90066FE0FBA3E005
:10316000FAA3E0F98D828C83120667FE900672E066
:103170002F2473F582E43406F583E06E603812067E
:103180004EFE24A9F582E43404F583E004F074A92A
:103190002EF582E43404F583E0C39403401512064F
:1031A0004E25E024CFF582E43404F5837405F0A3C2
:1031B00074A0F07F01220FEFB4039790066FE0FB3D
:1031C000A3E0FAA3E0F912064E24A9F582E4340440
:1031D000F583E4F0FF227F01AE071FEE70FA2212A2
:1031E000000612000680EFAD07AC06E4FBFAC3EB65
:1031F0009DEA9C500931DF0BBB00010A80F0229050
:103200000778EEF0A3EFF0A312092500000000906C
:103210000778E0FEA3E0FF7C007D131206FBE4FDCF
:10322000A3E0F8A3E0F9A3E0FAA3E0FBC31208C609
:10323000502331DF90077AE0FCA3E0FDA3E0FEA37A
:10324000E02401FFE43EFEE43DFDE43CFC90077A0F
:1032500012091980BA22900777EFF030E202801746
:1032600090FFE3E04420F053B0DF7F037E0031FFA6
:10327000900777E030E00A90FFE3E04420F043B0AD
:1032800020229006FEEFF0A3EDF0A3EBF0A3EAF00E
:10329000A3E9F0A37401F0A3F0E4A3F0A3F0A3F07A
:1032A000A3F078097C077D017BFF7A14797FFE7F8C
:1032B0006412062890076D7401F0A37407F0A374DC
:1032C00009F0900527E030E102A1A4B1AABF0103F3
:1032D0007F0622E4900770F0900770E0FFC3940728
:1032E0005053EF75F007A424A0F582E43412F5835F
:1032F000E493FF9006FEE0FEEFB50631900770E024
:10330000FB75F007A424A1F582E43412F5831209B9
:1033100009900773120919EB75F007A424A6F5822A
:10332000E43412F583E493900708F0800890077066
:10333000E004F080A3900770E0C394074002A1A4CA
:10334000E4900706F0900527E030E102A1A4900781
:1033500008E02404F09006FFE0B402069007087429
:1033600004F07B017A07790990098EE4F0A37404D4
:10337000F07DFE12269B90070D7468F0900708E020
:1033800090070EF0E4A3F07B017A07791090098E84
:10339000F0A37406F07DFF12269BE4900716F0A3BD
:1033A000F0A37468F09006FFE0900719F09007739F
:1033B000E0FCA3E0FDA3E0FEA3E0FF78181208D72D
:1033C00090071AEFF0900773E0FCA3E0FDA3E0FE86
:1033D000A3E0FF78101208D790071BEFF090077357
:1033E000E0FCA3E0FDA3E0FEA3E0FF78081208D70D
:1033F00090071CEFF0900773A3A3A3E090071DF0C4
:103400009009D37401F0A37407F0A3741EF0900721
:1034100008E024FC9009D6F0900700E0FBA3E0FA56
:10342000A3E0F91221797B017A07790D900708E072
:10343000240DFD122D10900708E0FE241AF582E4F9
:103440003407F583EFF0741B2EF582E43407F5831F
:103450007416F0EE2413900707F07F011201C85391
:10346000A9FB7F025156E4900705F0900707E0FFA3
:10347000900705E0FEC39F505C74092EF582E4348A
:1034800007F583E0FF30D004D2DB8002C2DB8FD9A6
:10349000E4900771F0A3F030D904C2D98020120063
:1034A00006900772E004F07006900771E004F0C324
:1034B000900772E094D0900771E0940740D9C390D0
:1034C0000772E094D0900771E094075008900705C8
:1034D000E004F0809643D81053A9FB90070774646A
:1034E000F0E4900705F0900707E0FF900705E0C3C0
:1034F0009F5054E4900771F0A3F0900771E0FEA391
:10350000E0FFC39440EE941F502C30D819C2D890DD
:103510000705E02409F582E43407F583E5D9F0E4F2
:10352000900704F08010900772E004F07006900796
:1035300071E004F080C4C3EF9440EE941F500890F3
:103540000705E004F0809F900704E0700A900703ED
:10355000F09007067403F0900703E07035900700C1
:10356000E0F9A3E0FAA3E09009D3C9F0A3EAF0A33D
:10357000E9F0900770E075F007A424A6F582E43422
:1035800012F583E4939009D6F07B017A07791E1235
:1035900021797F045156900706E004F0E0C39403BC
:1035A00050026145900703E0FF22900246E0FF646D
:1035B000026004EFB403037F01227F0022900672B1
:1035C0007415F0E4FF90066EEFF0A3EBF0A3EAF0C1
:1035D000A3E9F078737C067D017BFF7A1379357E51
:1035E000007F641206289006D77401F090066EE002
:1035F000FF7B017A0679737D025182EF702B900672
:103600006FE0F9A3E0FAA3E09009D3C9F0A3EAF0D0
:10361000A3E9F0900672E09009D6F07B017A067972
:1036200073122179E49006D7F09006D7E0FF2224A8
:10363000FEFFE434FFFE900663E0FD7C001206FB13
:1036400090065DE0FBA3E0FAA3E02FF9EA3EFA90D2
:103650000988EBF0A3EAF0A3E9F0900663E0900993
:103660008BF0900666E090098CF0900660E0FBA37A
:10367000E0FAA3E0F9900985EBF0A3EAF0A3E9F002
:10368000E490098DF090098BE0FF90098DE0FEC376
:103690009F4002E19690098CE0645570399009884A
:1036A000E0FBA3E0FAA3E0F98E82758300120667BF
:1036B000FD900985E0FBA3E0FAA3E0F98E82758313
:1036C00000120667FED39D40037F0022EEC39D409B
:1036D00002E18E7F012290098BE024FFFFE434FF9A
:1036E000FE90098DE0FDC3EF9DFFEE9400FE900972
:1036F00088E0FBA3E0FAA3E0F98F828E83120667CD
:10370000FF90098BE024FFFDE434FFFC90098DE07D
:10371000FBC3ED9BFDEC9400FC900985E0FBA3E06E
:10372000FAA3E0F98D828C83120667D39F40037F52
:10373000002290098BE024FFFFE434FFFE90098D06
:10374000E0FDC3EF9DFFEE9400FE900988E0FBA32F
:10375000E0FAA3E0F98F828E83120667FF90098B4F
:10376000E024FFFDE434FFFC90098DE0FBC3ED9BFA
:10377000FDEC9400FC900985E0FBA3E0FAA3E0F9DE
:103780008D828C83120667C39F50037F01229009AC
:103790008DE004F0C1857F0222900672EDF0A1C594
:1037A0009006727401F0FFA1C512064EFF90063814
:1037B000E4F0A3EFF0E0F8E4F0E8900638F09000D1
:1037C00001120667FF900638E0FEA3E04FFF900667
:1037D00038EEF0FEA3EFF022F1E69007801209190F
:1037E0007B017A057983900897EBF0A3EAF0A3E9CF
:1037F000F0A312092500000000E490089EF0900854
:103800009AE0FCA3E0FDA3E0FEA3E0FF7808120825
:10381000EA90089A12091990089AE0F8A3E0F9A32F
:10382000E0FAA3E0FBC000C001C002C0039008970B
:10383000E0FBA3E0FAA3E0F990089EE0F58275832F
:1038400000120667FFD003D002D001D000EB4FFF7B
:10385000EAFEE9FDE8FC90089A12091990089EE03A
:1038600004F0E0B4049890089AE0FCA3E0FDA3E023
:10387000FEA3E0FF22900780EBF0A3EAF0A3E9F0BB
:10388000E4900788F0900786E014FF900786E0FE3A
:10389000EFC39E40022168900783E0FBA3E0FAA3F8
:1038A000E0F98F82758300120667FE900788E02E8C
:1038B000FDE4900787F0EDC39E50037401F0E4909F
:1038C0000788F0900780E0FBA3E0FAA3E0F98F827D
:1038D000758300120667FE540FFCED540FFBECC31A
:1038E0009B5034EEC39D900780E0FB500E8F827595
:1038F0008300120667FEC3749A8037A3E0FAA3E040
:10390000F98F82758300120667C39D24FA8F827532
:1039100083001206D98044900780E0FBA3E0FAA35D
:10392000E0F98F82758300120667FEC39D5015C3B0
:1039300074A09D2E8F827583001206D9900788741B
:1039400001F08017900780E0FBA3E0FAA3E02FF9D5
:10395000E43AFA12064EC39D1206C7900787E0604C
:1039600004A37401F01F018B22900765EBF0A3EA1A
:10397000F0A3E9F0AB05A37401F0A3120925000040
:10398000000190076D12092500000000E490077106
:10399000F0EBD39400500241C1EB9405400241C1C9
:1039A000EBF0900771E0D39400500241C190076D95
:1039B000E0F8A3E0F9A3E0FAA3E0FBC000C001C077
:1039C00002C003900765E0FBA3E0FAA3E0F99007CB
:1039D00071E0FF7E00E92FF9EE3AFA90FFFF120640
:1039E00067540F75F00A84AFF0E4FCFD900769E0BE
:1039F000F8A3E0F9A3E0FAA3E0FB12078ED003D00E
:103A000002D001D000EB2FFFEA3EFEE93DFDE83C8D
:103A1000FC90076D120919900769E0FCA3E0FDA373
:103A2000E0FEA3E0FFE47B0AFAF9F812078E9007A4
:103A30006912091990076DE0F8A3E0F9A3E0FAA371
:103A4000E0FBC000C001C002C003900765E0FBA31B
:103A5000E0FAA3E0F9900771E0FF7E00E92FF9EEAC
:103A60003AFA90FFFF12066754F0C4540FFFE4FCCB
:103A7000FD900769E0F8A3E0F9A3E0FAA3E0FB12E8
:103A8000078ED003D002D001D000EB2FFFEA3EFE1C
:103A9000E93DFDE83CFC90076D120919900769E0CB
:103AA000FCA3E0FDA3E0FEA3E0FFE47B0AFAF9F843
:103AB00012078E900769120919900771E014F0211E
:103AC000A290076DE0FCA3E0FDA3E0FEA3E0FF22CF
:103AD000900784EBF0A3EAF0A3E9F09007891209BC
:103AE00019900787E0A3F0900788E0D39400500274
:103AF00061C0E47B0AFAF9F8A3E0FCA3E0FDA3E0CF
:103B0000FEA3E0FF120819AF03900784E0FBA3E0D7
:103B1000FAA3E0F9900788E0FD7C00E92DF9EC3A82
:103B2000FA90FFFFEF1206D9900789E0FCA3E0FDB1
:103B3000A3E0FEA3E0FFE47B0AFAF9F8120819906B
:103B40000789120919900784E0FBA3E0FAA3E0F9C2
:103B5000900788E0FF7E00E92FF9EE3AFAE924FFAA
:103B6000F9EA34FFFAC003C002C00112064EFFC0DA
:103B700007E47B0AFAF9F8900789E0FCA3E0FDA3CB
:103B8000E0FEA3E0FF120819AF03EFC454F0FED02B
:103B9000E04ED001D002D0031206C7900789E0FCA6
:103BA000A3E0FDA3E0FEA3E0FFE47B0AFAF9F8122C
:103BB0000819900789120919900788E014F041E765
:103BC000229006B1EBF0A3EAF0A3E9F0E49006B886
:103BD000F09006B7E0FFA3E0FEC39F40028174901F
:103BE00006B1E0FBA3E0FAA3E0F98E827583001230
:103BF0000667FDC4540F9006B9F0ED540FA3F0E42E
:103C0000FF74B92FF582E43406F583E0FEC3940A0D
:103C1000501074B92FF582E43406F583E02430F0B7
:103C20008014EEC39410500E74B92FF582E434065C
:103C3000F583E02437F00FEFB402C69006B8E075C4
:103C4000F002A4FF9006B4E0FBA3E0FAA3E02FF992
:103C5000EA35F0FA9009D3EBF0A3EAF0A3E9F0A378
:103C60007402F07B017A0679B91221799006B8E0E6
:103C700004F061D122C0D075D000C006C007AFA744
:103C800075A70075B755AEB675B70075AA0075E88B
:103C90000075B7558EB675B7008FA7D007D006D080
:103CA000D032C0D075D000C006C007AFA775A7003E
:103CB00075B755AEB675B70053A8F753883F75B7BB
:103CC000558EB675B7008FA7D007D006D0D032C0BA
:103CD000E0C0F0C083C082C0D075D000C000C00179
:103CE000C002C003C004C005C006C0079005EFE5D0
:103CF000A7F075A70075B7559005EEE5B6F075B756
:103D0000005388DF758AC0758CE0E5C730E6079000
:103D10000527E04402F09004ACE0FCA3E0FDA3E042
:103D2000FEA3E0FFA312091974FFFFFEFDFC90043F
:103D3000ACE0F8A3E0F9A3E0FAA3E0FBC31208C6E5
:103D40009004AC501EE0FCA3E0FDA3E0FEA3E02441
:103D500001FFE43EFEE43DFDE43CFC9004AC1209AE
:103D60001980071209250000000075B7559005EE6F
:103D7000E0F5B675B700A3E0F5A7D007D006D005EB
:103D8000D004D003D002D001D000D0D0D082D083D4
:103D9000D0F0D0E032C0D075D000C006C007AFA7C9
:103DA00075A70075B755AEB675B70053A8DF53C8F1
:103DB0003375B7558EB675B7008FA7D007D006D02C
:103DC000D032C0D075D000C006C007AFA775A7001D
:103DD00075B755AEB675B70053A8BF53C11F75B7B9
:103DE000558EB675B7008FA7D007D006D0D032C099
:103DF000E0C083C082C0D075D000C005C006C00737
:103E0000AFA775A70075B755AEB675B700AD977576
:103E10009700ED30E31D90000AE090000930E205C4
:103E2000E004F0800EE0FD900008E02DF0E004F0EA
:103E3000A3E4F075B7558EB675B7008FA7D007D03D
:103E400006D005D0D0D082D083D0E032C0E0C0838D
:103E5000C082C0D075D000C006C007AFA775A7004C
:103E600075B755AEB675B70090FFB6E4F090FFB7E2
:103E7000F053A9FD75B7558EB6F5B78FA7D007D00B
:103E800006D0D0D082D083D0E032C0D075D000C070
:103E900006C007AFA775A70075B755AEB675B700D2
:103EA00053A9DF75C60075B7558EB675B7008FA7D5
:103EB000D007D006D0D032C0E0C083C082C0D07559
:103EC000D000C004C006C007ACA775A70075B755E1
:103ED000AEB675B70090FFD0E054FCF053A9FD7565
:103EE000B755AF068FB675B700AF048FA7D007D010
:103EF00006D004D0D0D082D083D0E032900536E016
:103F0000FF22900633EBF0A3EAF0A3E9F0A37401DB
:103F1000F078377C06FD7BFF7A1379C17E007F192C
:103F20001206287B017A0679371235BD900636EFE6
:103F3000F07022900633E0F9A3E0FAA3E09009D3F1
:103F4000C9F0A3EAF0A3E9F0A3740CF07B017A06B0
:103F5000793D122179900636E0FF22900633EFF08A
:103F6000A3EDF0A3EBF0A3EAF0A3E9F078387C0628
:103F70007D017BFF7A1379DF7E007F231206289074
:103F800009D37401F0A37406F0A37438F0900634DA
:103F9000E09009D6F0900635E0FBA3E0FAA3E0F943
:103FA000122179900633E0FF7B017A067938A3E08D
:103FB000900695F0022E37900CE37401F02290FFEA
:103FC00084E0FFEF54FFFF90FF84EFF090FF85E067
:103FD000FFEF54FEFF90FF85EFF090FFE9E0FFEF69
:103FE0004401FF90FFE9EFF053EDFE22900CDC74EA
:103FF000FFF0900CDBE4F0900CDCE0FF900CDBE0D9
:10400000FEEEC39F501612401D7FA0121E76EF7069
:1040100003021E0D900CDBE004F080DB22123FBE99
:1040200090FFE8E0FFEF4440FF90FFE8EFF043EC43
:104030004090FFE8E0FFEF4480FF90FFE8EFF0439F
:10404000EC801200EC53ECBF1200EC53EC7F22909A
:104050000CA9EEF0A3EFF0900CABEBF0A3EAF0A309
:10406000E9F0900CB4E4F0900CAEE0FFEF600B9040
:104070000CAEE0FFEFD3942040037F0122900CA907
:10408000E0FEA3E0FFD3EF94FFEE940140037F0135
:1040900022900CAEE0FF7E00900CA9E0FCA3E0FDB6
:1040A000EF2DFFEE3CFED3EF94FFEE940040139013
:1040B0000CA9E0FEA3E0FFD3EF94FFEE94005002C2
:1040C0002195111D900CAEE0FF7E00900CA9E0FC44
:1040D000A3E0FDEF2DFFEE3CFED3EF94FFEE940046
:1040E0005006900CB474A0F0900CA9E0FEA3E0FF81
:1040F000D3EF94FFEE94004006900CB474A2F090BD
:104100000CB4E0FF121E76EF6006121E0D7F012236
:10411000900CA9E0FEA3E0FF121E76EF6006121ECF
:104120000D7F0122900CABE0FBA3E0FAA3E0F99035
:104130000CB1EBF0A3EAF0A3E9F0900CAFE4F0A32C
:10414000E4F0900CAEE0FF7E00900CAFE0FCA3E04A
:10415000FDC3ED9FEC9E5035900CB1E0FBA3E0FA5F
:10416000A3E0F912064EFF121E76EF6006121E0D36
:104170007F0122900CB2E475F001120762900CB03E
:10418000E004F07006900CAFE004F080B5121E0D54
:10419000123FEC80037F01227F0022900CC5740E39
:1041A000F0900CC0EEF0A3EFF0900CC2EBF0A3EA9D
:1041B000F0A3E9F0900CC0E0FEA3E0FF900CC6EE87
:1041C000F0A3EFF0900CC0E0FEA3E0FFEF5407FF78
:1041D000C374089FFF900CC8EFF0900CC9E4F090F6
:1041E0000CC8E0FF900CC5E0FEEEC39F500A900C97
:1041F000C5E0FF900CC8EFF0900CC6E0FEA3E0FF16
:10420000900CC2E0FBA3E0FAA3E0F9900CC9E0FD3A
:104210007C00E92DF9EA3CFA900CC8E0FD900CAE68
:10422000EDF0114FEFB401037F0122900CC8E0FFC5
:10423000900CC9E02FF0900CC9E0FF7E00900CC0FC
:10424000E0FCA3E0FDEF2DFFEE3CFE900CC6EEF08F
:10425000A3EFF0900CC9E0FF900CC5E0FEC3EE9F09
:10426000FF900CC8EFF0900CC8E0FFEFD39408402B
:1042700006900CC87408F0900CC8E0FFEF600221B3
:10428000F87F0022900CDDE4F0900CDE7408F090D2
:10429000FFE8E0FFEF4480FF90FFE8EFF090FFE8D9
:1042A000E0FFEF54BFFF90FFE8EFF053EC7F900C7E
:1042B000DEE4F0900CDEE0FFEFC39408503F123FC5
:1042C000B7900CDDE0FFEF25E0FF900CDDEFF04351
:1042D000EC80E5EC30E60E900CDDE0FFEF4401FFF2
:1042E000900CDDEFF0123FB7900CDDE0FF900CDD9D
:1042F000EFF053EC7F900CDEE004F080B690FFE826
:10430000E0FFEF4440FF90FFE8EFF053ECBF43ECD9
:10431000801200EC53EC7F43EC40900CDDE0FF2278
:10432000900CDFE4F0900CE0E4F090FFE8E0FFEFA9
:104330004480FF90FFE8EFF090FFE8E0FFEF54BF0C
:10434000FF90FFE8EFF053EC7F900CE0E4F0900C6E
:10435000E0E0FFEFC394085035123FB7900CDFE068
:10436000FFEF25E0FF900CDFEFF043EC80E5EC3051
:10437000E60E900CDFE0FFEF4401FF900CDFEFF062
:10438000123FB753EC7F900CE0E004F080C090FF48
:10439000E8E0FFEF4440FF90FFE8EFF043EC4043DC
:1043A000EC801200EC53EC7F900CDFE0FF22900CCD
:1043B000CAEEF0A3EFF0900CCCEDF0900CCDEBF04A
:1043C000C2AF900CCCE0FF8FEF900CCAE0FEA3E0F0
:1043D000FFEF54FFF5EE900CCAE0FEA3E0FFEEFF06
:1043E0007E008FF775A70175F26E75F30575F40AF7
:1043F00075F509900CCDE0FFEFB4680775F606007F
:1044000000000075A70075F700D2AF22900985EE75
:10441000F0A3EFF0A3EBF0A3EAF0A3E9F075E75502
:1044200075C7840000E5C730E6037FFF229005359D
:10443000E0646860037FFF2290098AE0FEA3E0FF4A
:10444000900986E02FFF900985E03EFED3EF9400AF
:10445000EE941040037FFF22D390098BE0940090EC
:10446000098AE094004045900987E0FBA3E0FAA3A5
:10447000E0F912064EFC900985E0FEA3E0FFAD04D2
:104480007B6871AE900986E004F07006900985E0C3
:1044900004F0900988E475F00112076290098BE03E
:1044A00024FFF090098AE034FFF080AC7F00228F77
:1044B000828E83E4FFEDB4680DC2AF75A701E4936B
:1044C000FFE4F5A7D2AF22900535E04420F07B0150
:1044D0007A077985900781E0FCA3E0FD90098A7452
:1044E00002F0A3E4F0900988ECF0A3EDF075E75535
:1044F00075C7840000E5C730E6037FFF2290098A74
:10450000E0FEA3E0FF900989E02FFF900988E03EDC
:10451000FED3EF9400EE941040037FFF22D3900966
:104520008BE0940090098AE094004035900988E07F
:10453000FEA3E0FF7D6891AFEF1206C7740129F971
:10454000E43AFA900989E004F07006900988E004E2
:10455000F090098BE024FFF090098AE034FFF080AE
:10456000BC7F0022E0FEA3E0FF7B68E4FD900CCE60
:10457000EEF0A3EFF0900CD0EDF0900CD1EBF075D5
:10458000E75575C7840000E5C720E655900535E07E
:10459000FFEF6468704BC2AF900CD0E0FF8FEF90DC
:1045A0000CCEE0FEA3E0FFEF54FFF5EE900CCEE062
:1045B000FEA3E0FFEEFF7E008FF775A70175F2E620
:1045C00075F30575F40A75F509900CD1E0FFEFB4A9
:1045D000680775F6060000000075A70075F700D2A1
:1045E000AF2290FFE5E054FBF090FFF5E04404F0CB
:1045F00022B1E2E5E920E2299004A4E004F070068B
:104600009004A3E004F0C39004A4E094FA9004A3FF
:10461000E09400401AE4F0A3F0900531E04401F08A
:1046200022E49004A3F0A3F0900531E054FEF022C0
:1046300090FFE2E054FBF090FFF2E04404F022D15E
:1046400030900532E030E215E5A030E202C1DEE054
:104650004401F0E054FBF0E4900458F0229005325D
:10466000E030E061E5A020E26A900458E004F0E068
:10467000FF7408D39F5067900532E04402F0E05485
:10468000FEF0E4900458F0900530E04408F0900407
:10469000541209250000003C90044C741EF0900454
:1046A00059E0700B900460F09004597468F0229007
:1046B0000460E004F090040BE0FF900460E0C39F0E
:1046C000401CE4F022900532E030E107E5A030E242
:1046D0000D8000E4900458F09005327404F022EF4D
:1046E000146021047024F14C7FFFF10B43D18090C2
:1046F000FFE1E04408F05390F790FFE9E04402F056
:1047000053EDFD22F14CE4FFF10B22E4FE74612E27
:10471000F582E43404F583EFF00EEEB428EF7F0069
:104720007E25E4FD74612DF582E43404F583E0FC1C
:10473000EF2DF582E43EF583ECF074612DF582E413
:104740003404F583E4F00DEDB428D92253D17FF180
:104750007090FF8074F0F090FF817403F090FF82FE
:1047600074FEF090FF837401F090FF8574FCF022DA
:10477000E5D154706430600653D18F43D130E5D118
:1047800054076407600653D1F843D107E5D25407B4
:104790006402600653D2F843D202225380FD000027
:1047A0004380042243800200005380FB225380FD9B
:1047B000005380FB229004A7E0600FE014F0E0FFBC
:1047C0007E00BE0207BF40048000F1AD2290079D2D
:1047D000E0FD9007A6EDF0E4FF7E08EF25E0FFEE98
:1047E0007C0024FFF582EC34FFF583120667FD9010
:1047F00007A6E05D60010FDEE222900799EBF0A3CF
:10480000EAF0A3E9F090079D7440F0E490079CF073
:1048100090079CE0FFC394085037EFB40404A374DE
:1048200080F0900799E0FBA3E0FAA3E0F91247CDEE
:1048300090079CE0249EF582E43407F583EFF09026
:10484000079DE0FF1313543FF090079CE004F080B5
:10485000BF900799E0F9A3E0FAA3E09009D3C9F06B
:10486000A3EAF0A3E9F0A37408F07B017A07799E2C
:104870000221799007AF74FFF0A3740CF0A37408C1
:10488000F0A374FFF0A3740CF0A37440F0A37407BA
:10489000F09007ACEBF0A3EAF0A3E9F0E4F5209088
:1048A00007B604F09007B5E075F008A42401FFE412
:1048B00035F0FEA3E0FDC39FEE6480F8748098504D
:1048C0007DE52025E0F520EDFF7E0024FFFDEE34A0
:1048D000FFFC9007AFE0FBA3E0FAA3E0F98D828C28
:1048E00083120667FD9007ACE0FBA3E0FAA3E0F9B2
:1048F0008D82758300120667FDEF24FFFFEE34FF03
:10490000FE9007B2E0FBA3E0FAA3E0F98F828E836A
:104910001206675D600205209007B6E0FF5407703D
:1049200015EF131313541F24B6F582E43407F583EF
:10493000E520F0E4F5209007B6E004F001A490072C
:10494000ACE0F9A3E0FAA3E09009D3C9F0A3EAF040
:10495000A3E9F09007B5E09009D6F07B017A0779DA
:10496000B7022179900799EBF0A3EAF0A3E9F024CC
:1049700004F9E43AFA9009D37401F0A37407F0A3A0
:1049800074A0F0A37404F01221799007AF74FFF0C3
:10499000A3740DF0A37418F0A374FFF0A3740CF0CB
:1049A000A374E8F0A37406F07B017A0779A0119153
:1049B000E490079FF090079FE0FF24A0F582E43485
:1049C00007F583C083C082E0FE90079CE0FBA3E074
:1049D000FAA3E0F98F82758300120667FFEE6FD0AD
:1049E00082D083F090079FE004F0E0B406C7E49023
:1049F000079FF090079FE0FFC394024002611BE015
:104A0000FE75F003A424A0F582E43407F583E0FDED
:104A1000C45430FCEE75F003A424A1F582E43407FD
:104A2000F583E0C4540F4CF520ED1313543FFE9072
:104A3000079FE0FD75F000A42488F582E5F0340DB1
:104A4000F583ED2583F583E5822EF582E43583F544
:104A500083E493FE75F000EDA424C8F582E5F034FC
:104A60000DF583ED2583F583E5822520F582E43578
:104A700083F583E493FDEE4DFE90079FE0FD25E076
:104A800024A8F582E43407F583EEF0ED75F003A475
:104A900024A1F582E43407F583E025E025E0543FC6
:104AA000FEED75F003A424A2F582E43407F583E05B
:104AB000FDC4131354034EF520ED543FFE90079FA1
:104AC000E0FD75F000A42448F582E5F0340EF5838E
:104AD000ED2583F583E5822EF582E43583F583E4C5
:104AE00093FE75F000EDA42408F582E5F0340EF590
:104AF00083ED2583F583E5822520F582E43583F572
:104B000083E4934EFEEF25E024A9F582E43407F513
:104B100083EEF090079FE004F021F39007AF74FF5D
:104B2000F0A3740DF0A37468F0A374FFF0A3740DE8
:104B3000F0A37448F0A37404F07B017A0779A811FC
:104B400091E490079FF090079FE0FFC39404505BAF
:104B50007E00EF2404FDEE33FC900799E0FBA3E018
:104B6000FAA3E0F98D828C83120667F52090079FE7
:104B7000E0FDF582758300120667FC74A82DF582AE
:104B8000E43407F583E06CFD74042FF582E433F51B
:104B900083ED1206D990079FE0F582758300E5202A
:104BA0001206D990079FE004F0809B22900799EBB2
:104BB000F0A3EAF0A3E9F0A3EDF012064E90079DF2
:104BC000F090000112066790079EF0900002120616
:104BD0006790079FF090000312066754F09007A0BB
:104BE000F0BD023390079DE0FCA3E0FDA3E0FEA32F
:104BF000E0FF78011208EA90079D120919900799C1
:104C0000E0FBA3E0FAA3E0F912064E30E744900778
:104C1000A0E04410F0803B90079DE0FCA3E0FDA3E2
:104C2000E0FEA3E0FF78011208D790079D12091952
:104C30009007A0E054F0F0900799E0FBA3E0FAA3FE
:104C4000E0F990000312066730E40790079DE04406
:104C500080F0900799E0FBA3E0FAA3E0F99000034D
:104C6000120667540F9007A1F09000041206679097
:104C700007A2F09000051206679007A3F0900006C7
:104C80001206679007A4F090079CE06402703D90C4
:104C900007A1E0FCA3E0FDA3E0FEA3E0FF78011282
:104CA00008EA9007A11209199007A1E0540FF090AB
:104CB0000799E0FBA3E0FAA3E0F99000031206676E
:104CC00030E33D9007A4E04401F080349007A1E078
:104CD000FCA3E0FDA3E0FEA3E0FF78011208D7905B
:104CE00007A1120919900799E0FBA3E0FAA3E0F9E4
:104CF00090000612066730E0079007A1E04408F034
:104D00009007A0E0FFA3E0FEEF4E9007A0F0900711
:104D1000A2E09007A1F09007A3E09007A2F090070F
:104D2000A4E09007A3F0900799E0F9A3E0FAA3E0CC
:104D30009009D3C9F0A3EAF0A3E9F0A37407F07BCC
:084D4000017A07799D02217937
:10800000EF14602104703BE5876003E4F587539823
:10801000F74398C0E4FF11D6900777E599F053989D
:10802000EC43A81022E5876003E4F58753D8F343B7
:10803000D8C07F0111D6900777E5D9F053D8EC432B
:10804000A90422EF14605104600201D5E5876003A2
:10805000E4F587E598440860035398F7E59854C021
:1080600064C060034398C090FFE2E054BFF090FF0B
:10807000F2E054BFF090FFE2E04480F043A080E4DF
:10808000FF11D6E4FF12019190060FE599F0539885
:10809000FC43981043A81022E5876003E4F587535A
:1080A000D8F343D8C090FFE3E054FEF090FFF3E034
:1080B00054FEF090FFE3E04402F043B0027F011170
:1080C000D67F0112019190060FE5D9F053D8FC43F9
:1080D000D81043A90422EF14602C04704CE59D6471
:1080E000CC6003759DCCE59C647F6003759C7FE547
:1080F0009E540F64016006539EF0439E01E59C2050
:10810000E727439C8022E5DD64F3600375DDF3E53A
:10811000DC647F600375DC7FE59E54F06003539E52
:108120000FE5DC20E70343DC8022E4FF11437F01FD
:1081300011437F0211437F030143E4F5B1F5A8F534
:10814000A9D1C1129EA912A07351D7D1BC129E6AA7
:10815000517C312A315BD2AF7F0022E4900611F0CE
:108160007FAA5169759560E4F596F59753A9FE438A
:10817000B48090064C120925000000E87F33517F3F
:108180007F057E001231FF90064C12092500000C7D
:10819000847F32517FE4900611F0900611E0FE7565
:1081A000F005A42443F582E43418F583E493FFC07A
:1081B00007EE75F005A42444F582E43418F5831223
:1081C000090990064C120919D007517F900611E059
:1081D00004F0E0C3942040C27B017A0C7968E4FD8E
:1081E0007F06FE121F30E4900611F0900611E0FEAB
:1081F00075F005A424E3F582E43418F583E493FFD5
:10820000C007EE25E025E02468F582E4340CF58310
:10821000E0FCA3E0FDA3E0FEA3E0FF90064C120902
:1082200019D007517F900611E004F0E0C394054097
:10823000BA7F647E001231FF90064C1209250000BF
:1082400000357F30517F7F55516990064C120925CA
:1082500000A000C17F31517F7FF47E011231FFE425
:10826000F59775960843A90122EFB455044395800C
:1082700022E4F595F596F59753A9FE222280EA901F
:10828000064BEFF0A3E0FCA3E0FDA3E0FEA3E0FFBC
:10829000A3120919E4F5917F06FE1231E7C2AF90EF
:1082A0000651E0F592A3E0F593A3E0F594000000F9
:1082B00000000000000000000000000000000000BE
:1082C000000000000090064BE04480F5917F067EA0
:1082D000001231E7D2AF227B017A05792790098E0F
:1082E000E4F0A37410F0E4FD12269B7B017A04797C
:1082F000AC90098EE4F0A3743AF0E4FD12269B7B67
:10830000017A04790890098EE4F0A37481F0E4FD09
:1083100012269B7B017A05799190098EE4F0A37473
:1083200010F0E4FD12269B7B017A00790890098EFB
:10833000E4F0A37408F0E4FD12269B7B017A007937
:108340000090098EE4F0A37408F0E4FD12269B7BF4
:10835000017A0479E690098EE4F0A3740AF0E4FD52
:1083600012269B7B017A0479F090098EE4F0A374C5
:1083700029F0E4FD12269B7B017A0479A390098EF3
:10838000E4F0A37409F0E4FD12269B900534740117
:10839000F012ABFB12ACBB128FD712A45312A3572F
:1083A000129F43129DABE4900BC9F090052DE05451
:1083B000FBF0E490045BF0900527E04401F09005A9
:1083C00030E04403F0900408E0FF7E007C037DE889
:1083D0001206FB7C017DF412070DE4FCFD900454B1
:1083E0001209199005327404F0900408E090044CCE
:1083F000F090044DF07B017A05792AE4FD7F0FFEB1
:10840000121F30EF6005E490052AF090052AE03055
:10841000E60790052DE04420F0E490077EF0A3F0FD
:108420007B017A077965FD7F11FE121F3090052AC6
:10843000E030E56D7B017A0779751237D8900784B3
:10844000120919900784E0FCA3E0FDA3E0FEA3E07D
:10845000FFEC4D4E4F6037900780E0F8A3E0F9A3A2
:10846000E0FAA3E0FBC31208C6400F90077E740138
:10847000F090052AE030E4298021E490077EF0A303
:10848000F090052AE054DFF0E054EFF080139007FD
:108490007E7401F090052AE030E40690077F7401B5
:1084A000F07B017A0779651237D890078412091991
:1084B000900784E0FCA3E0FDA3E0FEA3E0FF9007AB
:1084C00080E0F8A3E0F9A3E0FAA3E0FBC31208C63A
:1084D0005002A1D990052EE04401F07B017A077982
:1084E000691237E6900780120919900784E0FCA30F
:1084F000E0FDA3E0FEA3E0FF900780E0F8A3E0F931
:10850000A3E0FAA3E0FBC31208C65002A1D0900575
:108510002EE020E104E04402F0E4FFFEFDFC9007C1
:1085200084E0F8A3E0F9A3E0FAA3E0FBC31208C6D5
:108530006002A1BA90052EE020E204E04404F07B42
:10854000017A0579891237E6900780120919E4FF4C
:10855000FEFDFC900780E0F8A3E0F9A3E0FAA3E0B9
:10856000FBC31208C6600D90052EE020E30DE04429
:1085700008F0800790052EE054F7F07B017A077928
:10858000711237E6900784120919900784E0FCA362
:10859000E0FDA3E0FEA3E0FF900780E0F8A3E0F990
:1085A000A3E0FAA3E0FBC31208C690052AE0400549
:1085B0004420F0803254DFF0802D90052EE054F7F7
:1085C000F090052AE054DFF090052EE054FB800F78
:1085D00090052EE054E1F0800E90052EE054E0F07E
:1085E00090052AE054EFF090077EE0B40107900573
:1085F0002AE04420F090077FE0B4010790052AE0CC
:108600004410F090052AE030E504E04410F07B01CE
:108610007A05792AE4FD7F0FFE021A61900649EF80
:10862000F0C007900645E0FCA3E0FDA3E0FEA3E058
:10863000FF90064C120919D007517F900649E0B40B
:108640003618900645E0FCA3E0FDA3E0FEA3E0FFA2
:1086500090064C1209197F36517FE490064AF0903B
:10866000064AE0FFC394055052EF75F005A424E3D9
:10867000F582E43418F583E493FF900649E0FEEFB9
:10868000B50630900645E0FCA3E0FDA3E0FEA3E0C4
:10869000FF90064AE025E025E02468F582E4340CEA
:1086A000F5831209197B017A0C7968E4FD7F06FED7
:1086B000021A6190064AE004F080A422E4FF024618
:1086C000DF53A9DF75E755E4F5C675E755F5C775BE
:1086D000E75575C78475E75575B30175E755F5B46A
:1086E00012ACA0BF010312A06DE5C730E6037F0105
:1086F0002253A9DF7F0022900527E030E14EF15898
:10870000900527E030E20A12AF38900527E054FBCD
:10871000F0E4900608F07F0A7E001231FF12ACA050
:10872000BF0109900527E04402F0F169E4F5B1903A
:108730000608E004F0E0C3940A40DB900527E0203F
:10874000E108E054FDF0E04401F0313A900527E003
:1087500020E204E04404F02212AF8912AF9412AF79
:10876000A312AFB07F010246DFF17AF15812AF8653
:1087700012AF1712AF8712AF882290FFE0E054FDCE
:10878000F0E054FBF0E054F7F0E0547FF090FFF09D
:10879000E054FDF0E054FBF0E054F7F0E0547FF0DB
:1087A0005380FD5380FB5380F753807F90FF88E018
:1087B00054FDF0E054FBF0E054F7F0E0547FF0900B
:1087C000FF8BE054FDF0E054FBF0E054F7F0E05490
:1087D0007FF090FF8EE054FDF0E054FBF0E054F7A2
:1087E000F0E0547FF090FFFAE054FDF0E054FBF02D
:1087F000E054F7F0E0547FF090FFE1E054FEF0E049
:1088000054F7F0E054EFF090FFF1E054FEF0E05444
:10881000F7F0E054EFF05390FE5390F75390EF9041
:10882000FFE2E054FBF0E054BFF0E0547FF090FF33
:10883000F2E054FBF0E054BFF0E0547FF053A0FBB3
:1088400053A0BF53A07F90FF89E054FBF0E054BFDA
:10885000F0E0547FF090FF8DE054FBF0E054BFF067
:10886000E0547FF090FF8FE054FBF0E054BFF0E065
:10887000547FF090FFFBE054FBF0E054BFF0E05475
:108880007FF090FFE3E054FEF0E054FDF0E054EFA1
:10889000F0E054DFF0E054BFF090FFF3E054FEF05E
:1088A000E054FDF0E054EFF0E054DFF0E054BFF0AE
:1088B00053B0FE53B0FD43B01053B0DF53B0BF9080
:1088C000FF8AE054FEF0E054FDF0E054EFF0E05495
:1088D000DFF0E054BFF090FFE4E054EFF0E054DF4D
:1088E000F0E054BFF0E0547FF090FFF4E054EFF07C
:1088F000E054DFF0E054BFF0E0547FF053C0EF539A
:10890000C0DF53C0BF53C07F90FFE5E054FEF0E0EE
:1089100054FDF0E054FBF0E054F7F0E054EFF0E0E9
:1089200054DFF0E054BFF0E0547FF090FFF5E054E6
:10893000FEF0E054FDF0E054FBF0E054F7F0E054BA
:10894000EFF0E054DFF0E054BFF0E0547FF053E983
:10895000FE53E9FD53E9FB53E9F753E9EF53E9DF30
:1089600053E9BF53E97F90FFE6E054FDF0E054FB8C
:10897000F0E054F7F0E054EFF0E054DFF0E054BFE3
:10898000F0E0547FF090FFF6E054FDF0E054FBF08F
:10899000E054F7F0E054EFF0E054DFF0E054BFF0C3
:1089A000E0547FF053EAFD53EAFB53EAF753EAEF52
:1089B00053EADF53EABF53EA7F90FFE7E054FEF04B
:1089C000E054FDF0E054DFF090FFF7E054FEF0E0FB
:1089D00054FDF0E054DFF053EBFE53EBFD53EBDFBF
:1089E00090FFE8E054BFF0E0547FF090FFF8E054CF
:1089F000BFF0E0547FF053ECBF53EC7F90FFE9E011
:108A000054FEF0E054FDF0E054FBF0E054F7F0E0E9
:108A100054EFF0E054DFF0E054BFF0E0547FF0900A
:108A2000FFF9E054FEF0E054FDF0E054FBF0E054B8
:108A3000F7F0E054EFF0E054DFF0E054BFF0E05422
:108A40007FF053EDFE53EDFD53EDFB53EDF753ED8A
:108A5000EF53EDDF53EDBF53ED7F22900628EFF08B
:108A6000E4900637F0900628E0FF75F0A7A4248C68
:108A7000F582E5F03401F583EF2583F583E0FFE42B
:108A8000FCFDFE900633120919900633E0F8A3E0CE
:108A9000F9A3E0FAA3E0FBC000900628E0FF75F020
:108AA000A7A4248DF582E5F03401F583EF2583F545
:108AB00083E0FFE4FCFDFE78081208EAD000EB4FEB
:108AC000FFEA4EFEE94DFDE84CFC90063312091911
:108AD000900633E0F8A3E0F9A3E0FAA3E0FBC000BE
:108AE000900628E0FF75F0A7A4248EF582E5F03407
:108AF00001F583EF2583F583E0FFE4FCFDFE7810AC
:108B00001208EAD000EB4FFFEA4EFEE94DFDE84CBB
:108B1000FC900633120919900633E0F8A3E0F9A39C
:108B2000E0FAA3E0FBC000900628E0FF75F0A7A4E0
:108B3000248FF582E5F03401F583EF2583F583E09A
:108B4000FFE4FCFDFE78181208EAD000EB4FFFEAC4
:108B50004EFEE94DFDE84CFC9006331209199006D3
:108B600028E0FD75F0A7A4248DF582E5F03401F529
:108B700083ED2583F583E0FF900629E4F0A3EFF071
:108B8000E07F00FE900629F0A3EFF075F0A7EDA4BA
:108B9000248CF582E5F03401F583ED2583F583E03F
:108BA000FDEDFF900629EEF0A3EFF0900628E0FF20
:108BB00075F0A7A4248AF582E5F03401F583EF254A
:108BC00083F583E0642E60028180900629E0FEA395
:108BD000E0FFD12090062B12091990062BA3A3A326
:108BE000E0FF900628E0FB75F0A7A42490F582E54D
:108BF000F03401F583EB2583F583EFF090062BE04D
:108C0000FCA3E0FDA3E0FEA3E0FF78081208D775FF
:108C1000F0A7EBA42491F582E5F03401F583EB2570
:108C200083F583EFF090062BE0FCA3E0FDA3E0FECC
:108C3000A3E0FF78101208D7900628E0FB75F0A794
:108C4000A42492F582E5F03401F583EB2583F583C6
:108C5000EFF090062BE0FCA3E0FDA3E0FEA3E0FF15
:108C600078181208D775F0A7EBA42493F582E5F0E5
:108C70003401F583EB2583F583EFF0E4900637F0BC
:108C8000900628E0FF75F0A7A4248AF582E5F03469
:108C900001F583EF2583F583E0642F6002C10B7536
:108CA000F0A7EFA4249BF582E5F03401F583EF25CE
:108CB00083F583E0FFE4FCFDFE78181208EA9006D5
:108CC0002F12091990062FE0F8A3E0F9A3E0FAA308
:108CD000E0FBC000900628E0FF75F0A7A4249AF5F9
:108CE00082E5F03401F583EF2583F583E0FFE4FCB2
:108CF000FDFE78101208EAD000EB4FFFEA4EFEE9C5
:108D00004DFDE84CFC90062F12091990062FE0F853
:108D1000A3E0F9A3E0FAA3E0FBC000900628E0FF7F
:108D200075F0A7A42499F582E5F03401F583EF25C9
:108D300083F583E0FFE4FCFDFE78081208EAD0002A
:108D4000EB4FFFEA4EFEE94DFDE84CFC90062F127A
:108D5000091990062FE0F8A3E0F9A3E0FAA3E0FBDD
:108D6000900628E0FF75F0A7A42498F582E5F0347A
:108D700001F583EF2583F583E0FFEB4FFFEAFEE982
:108D8000FDE8FC90062F120919900628E0FF75F007
:108D9000A7A4248EF582E5F03401F583EF2583F551
