:020000040000FA
:09000000020F5C023FE5222222FE
:0F000B0002403FEF240A83900100730A2D5073C7
:03001B000240128E
:03002300022A0CA2
:03002B000241058A
:0300330002413255
:03003B0002415F20
:030043000241BCBB
:10004B00022B64E4FFFE12064E600C0FEF70010EE4
:10005B0009E970F20A80EF220241FAE4FF121EB0A6
:06006B00123980021F00A3
:100073000242279009EB1208FD7810EC4D4E4F70A9
:10008300047CA57DA5C3EC13FCED13FDEE13FEEF7D
:1000930013FF5010EC64CCFCED644CFDEE644EFE9B
:1000A300EF64CEFFD8DF9009EB120919EE547FFEFF
:1000B300229009EBEEF0EFA3F0A374A5F0A3F022D6
:1000C300300100000C0333020012300004002C3412
:1000D3000006000E1D0008000C1E000A000C0002A2
:1000E300060A0E05020404040401020A0B090304B0
:0700F30001020A0B090304DE
:10010000C0087401C0E0C082C08375080AC0F085D1
:10011000A8F0C2AF75B75575B61175B70085F0A8D0
:10012000D0F022C0087401C0E0C082C08375082DE1
:10013000C0F085A8F0C2AF75B75575B61175B70098
:1001400085F0A8D0F022C0087401C0E0C082C0834E
:10015000750850C0F085A8F0C2AF75B75575B622C6
:1001600075B70085F0A8D0F022C0087401C0E0C0C7
:1001700082C083750873C0F085A8F0C2AF75B7550B
:1001800075B63375B70085F0A8D0F02290800021B5
:100190004690829821469083A421469085F221467C
:1001A0009085D82146908E57214690D3F7214690CE
:1001B000D1F12146909F8C212390813A212390AC4C
:1001C0000F212390804321239080002123908A5681
:1001D000212390952A21239086F5212390A79F2102
:1001E000239097472123908C63212390840421231B
:1001F000908F3E212390BA7C212300020543E864BE
:1002000080F8E933E83360110460F0ED33EC3370CB
:1002100009E8FCE9FDEAFEEBFF220460DED3EB9F78
:10022000EA9EE99DE8C2E78CF0C2F795F0400CE841
:10023000CCF8E9CDF9EACEFAEBCFFB12050E85D06A
:10024000F05804700320D5B3E80470075002B2D50B
:1002500002054D92D5EC0460F7E4CCC0E0C398F8F9
:10026000603B94186008400DD0E0FB020525E4FBDC
:10027000FAC9FC8028E830E406E4C9FBE4CAFCE8DB
:1002800030E305E4C9CACBFCE854076010F8C3E9C1
:1002900013F9EA13FAEB13FBEC13FCD8F130F52F4A
:1002A000C3E49CFCEF9BFFEE9AFEED99FDD0E0FBD2
:1002B000EF4E4D4C701222DB0302054AEC2CFCEF92
:1002C00033FFEE33FEED33FDED30E7EB020525EFB6
:1002D0002BFFEE3AFEED39FDD0E0FB50130BBB00D7
:1002E0000302054DED13FDEE13FEEF13FFEC13FCBF
:1002F000020525EC4D6011E8497017ED33EC33042D
:10030000600DE4FCFFFEFD22E933E8330470F802DF
:10031000054312050E58046009E4CC2481500628D8
:10032000500902054D28400302054AC0E0EB4A701F
:1003300044B98006D0E0FB020539EF4E701CBD8049
:1003400008EBFFEAFEE9FD80EBE98DF0A4FEE5F0A5
:100350000203DCE9CDF9EAFEEBFFEF89F0A4FCE54E
:10036000F0CE89F0A42EFFE435F0CD89F0A42DFE67
:10037000E435F08067EF4E7005BD80D780C3EF8B0A
:10038000F0A4ACF0EE8BF0A42CFCE435F0F8EF8A8E
:10039000F0A42CE5F038FCE433CB8DF0A42CFCE584
:1003A000F03BF8EE8AF0A42CFCE5F038F8E433CF0B
:1003B00089F0A42CFCE5F038CF3400CE89F0A42FCE
:1003C000FFE5F03EFEE433C98DF0A42EFEE5F039E2
:1003D000CD8AF0A42FFFE5F03EFEE43DFD33D0E0F2
:1003E000FB50070BBB000F02054DEC2CFCEF33FF5D
:1003F000EE33FEED33FD02052502054DEC5D046094
:1004000005E85904700302054312050E580460F60E
:10041000EC4860F2EC7004FDFEFF22C860DB248132
:10042000C85009C3986002500602054A9850CAF5A0
:1004300082E9294B4A7005AB8202053975F0007CD0
:100440001A7880C3EF9BEE9AED99400DC3EF9BFFA6
:10045000EE9AFEED99FDE842F0DC23ACF0D0E0FF2F
:10046000D0E0FED0E0FDAB8220E7101BEB60BAECE1
:100470002CFCEF33FFEE33FEED33FD020525E803E0
:10048000F830E705C0F075F000EF2FFFEE33FEED1A
:1004900033FD40B830E7C280AA75F020800E75F0B9
:1004A00010800575F0087D007E007F003392D53006
:1004B000D5031208B8EC334010EF33FFEE33FEEDF6
:1004C00033FDEC33FCD5F0ED22E5F0247EA2D5130C
:1004D000CC92E7CDCEFF22EDD2E7CD33EC3392D5EF
:1004E00024814006E4FFFEFDFC22FCE4CFCECDCC0F
:1004F00024E0501174FF80EDC3CC13CCCD13CDCECE
:1005000013CECF13CF0470F030D5DE0208B8E9D295
:10051000E7C933E833F892D5EDD2E7CD33EC33FCBD
:100520005002B2D522EC30E7100FBF000C0EBE0017
:10053000080DBD00040BEB6014A2D5EB13FCED928B
:10054000E7FD2274FFFCFDFEFF22E480F8A2D574D3
:10055000FF13FC7D80E480EFE709F608DFFA8046B0
:10056000E709F208DFFA803E88828C83E709F0A36E
:10057000DFFA8032E309F608DFFA8078E309F2084F
:10058000DFFA807088828C83E309F0A3DFFA80644D
:1005900089828A83E0A3F608DFFA805889828A83F9
:1005A000E0A3F208DFFA804C80D280FA80C680D4C3
:1005B000806980F28033801080A680EA809A80A8CB
:1005C00080DA80E280CA803389828A83ECFAE493FD
:1005D000A3C8C582C8CCC583CCF0A3C8C582C8CC8B
:1005E000C583CCDFE9DEE7800D89828A83E493A3AB
:1005F000F608DFF9ECFAA9F0EDFB2289828A83EC98
:10060000FAE0A3C8C582C8CCC583CCF0A3C8C58214
:10061000C8CCC583CCDFEADEE880DB89828A83E44C
:1006200093A3F208DFF980CC88F0EF60010E4E60F2
:10063000C388F0ED2402B4040050B9F582EB240223
:10064000B4040050AF23234582239005A873BB0157
:100650000689828A83E0225002E722BBFE02E3225F
:1006600089828A83E49322BB010CE58229F582E525
:10067000833AF583E0225006E92582F8E622BBFEA4
:1006800006E92582F8E222E58229F582E5833AF53A
:1006900083E49322BB010FF8E58229F582E5833AD2
:1006A000F583E028F0225009C58229F8E58226F674
:1006B00022BBFE09C58229F8E22582F222F8EA254A
:1006C00083F583E9932822BB010689828A83F0227D
:1006D0005002F722BBFE01F322F8BB010DE582298F
:1006E000F582E5833AF583E8F0225006E92582C8D1
:1006F000F622BBFE05E92582C8F222EF8DF0A4A800
:10070000F0CF8CF0A428CE8DF0A42EFE22BC000BDE
:10071000BE0029EF8DF084FFADF022E4CCF875F037
:1007200008EF2FFFEE33FEEC33FCEE9DEC98400516
:10073000FCEE9DFE0FD5F0E9E4CEFD22EDF8F5F0DC
:10074000EE8420D21CFEADF075F008EF2FFFED33E4
:10075000FD4007985006D5F0F222C398FD0FD5F062
:10076000EA22C5F0F8A3E028F0C5F0F8E58215828A
:1007700070021583E038F022A3F8E0C5F025F0F010
:10078000E582158270021583E0C838F0E822E88F10
:10079000F0A4CC8BF0A42CFCE98EF0A42CFC8AF005
:1007A000EDA42CFCEA8EF0A4CDA8F08BF0A42DCC07
:1007B0003825F0FDE98FF0A42CCD35F0FCEB8EF060
:1007C000A4FEA9F0EB8FF0A4CFC5F02ECD39FEE446
:1007D0003CFCEAA42DCE35F0FDE43CFC2275F0088B
:1007E000758200EF2FFFEE33FECD33CDCC33CCC579
:1007F0008233C5829BED9AEC99E58298400CF58294
:10080000EE9BFEED9AFDEC99FC0FD5F0D6E4CEFB05
:10081000E4CDFAE4CCF9A88222B800C1B90059BAF3
:10082000002DEC8BF084CFCECDFCE5F0CBF9781821
:10083000EF2FFFEE33FEED33FDEC33FCEB33FB101B
:10084000D703994004EB99FB0FD8E5E4F9FA227835
:1008500018EF2FFFEE33FEED33FDEC33FCC933C947
:1008600010D7059BE99A4007EC9BFCE99AF90FD851
:10087000E0E4C9FAE4CCFB2275F010EF2FFFEE3371
:10088000FEED33FDCC33CCC833C810D7079BEC9AB0
:10089000E899400AED9BFDEC9AFCE899F80FD5F039
:1008A000DAE4CDFBE4CCFAE4C8F922CFF4CFCEF4FD
:1008B000CECDF4CDCCF4CC22C3E49FFFE49EFEE485
:1008C0009DFDE49CFC22EB9FF5F0EA9E42F0E99D41
:1008D00042F0E89C45F022E8600FECC313FCED13F6
:1008E000FDEE13FEEF13FFD8F122E8600FEFC333E4
:1008F000FFEE33FEED33FDEC33FCD8F122E0FCA338
:10090000E0FDA3E0FEA3E0FF22E493FC740193FD6D
:10091000740293FE740393FF22ECF0A3EDF0A3EEB8
:10092000F0A3EFF022A8828583F0D083D082120951
:100930003C12093C12093C12093CE473E493A3C540
:1009400083C5F0C583C8C582C8F0A3C583C5F0C5FB
:1009500083C8C582C822D083D082F8E49370127411
:100960000193700DA3A393F8740193F5828883E437
:10097000737402936860EFA3A3A380DFD083D08257
:10098000E4937012740193700DA3A393F874019310
:10099000F5828883E4737402936C70127403936D10
:1009A000700C7404936E70067405936F60DDA3A3DE
:1009B000A3A3A3A380CAE3F5F009E208B5F06D6034
:1009C0006B80F3E3F5F009E608B5F060605E80F354
:1009D00087F009E608B5F054605280F487F009E228
:1009E00008B5F048604680F488828C8387F009E07F
:1009F000A3B5F038603680F488828C8387F009E4F0
:100A000093A3B5F027602580F388828C83E3F5F00B
:100A100009E0A3B5F016601480F388828C83E3F5B7
:100A2000F009E493A3B5F004600280F2020AE180C9
:100A30008580E7808E80D2803C8015806C807E80AF
:100A40009B80B5808B80A1804F8070803A020AED38
:100A500089828A83ECFAE493F5F0A3C8C582C8CCF6
:100A6000C583CCE493A3C8C582C8CCC583CCB5F0FC
:100A700070606E80E189828A83E493F5F0A3E208D6
:100A8000B5F05E605C80F289828A83E0F5F0A3E6CF
:100A900008B5F04D604B80F389828A83E0F5F0A3BE
:100AA000E208B5F03C603A80F389828A83E493F5EA
:100AB000F0A3E608B5F02A602880F2805389828A84
:100AC00083ECFAE493F5F0A3C8C582C8CCC583CC07
:100AD000E0A3C8C582C8CCC583CCB5F00460028051
:100AE000E27FFFB5F0020F2240027F012289828A55
:100AF00083ECFAE0F5F0A3C8C582C8CCC583CCE08E
:100B0000A3C8C582C8CCC583CCB5F0D560D380E37B
:100B100089828A83ECFAE0F5F0A3C8C582C8CCC507
:100B200083CCE493A3C8C582C8CCC583CCB5F0B14F
:100B300060AF80E288F0ED2402B4040050A3F58297
:100B4000EB2402B4040050992323458223900A2FFA
:100B50007354544D3A4144562D4F4E0D0A0054548F
:100B60004D3A5343414E2D4F4E0D0A0054544D3AC9
:100B7000434F4E4E454354494E470D0A0054544D81
:100B80003A434F4E4E45435445440D0A0054544D8C
:100B90003A424C455F49444C450D0A0054544D3A85
:100BA0004552500D0A0054544D3A4F4B0054544D89
:100BB0003A45525000535441540045414456004474
:100BC0004144560044434F4E004D41432D3F004D9C
:100BD00041432D00444E4D2D3F0052454E2D0054B3
:100BE000504C2D0054504C2D3F0054544D3A0D0A9A
:100BF00000FF0BB500000000100001FF0BBAFF0B57
:100C0000A600000002FF0BBFFF0BA600000003FFC1
:100C10000BC4FF0BA600000008FF0BC9000000007A
:100C20000C0809FF0BCFFF0BA60C00000AFF0BD42A
:100C3000000000000C080BFF0BDAFF0BA60C0000F5
:100C400010FF0BDFFF0BA605000011FF0BE40000F7
:100C50000000050800000000000000000000000087
:100C60000000000000000000000000000000000084
:100C70000000000000000000000000000000000074
:100C80000000000000000000000000000000000064
:100C90000000000000000000000000000000000054
:100CA0000000000000000000000000000000000044
:100CB0000000000000000000000000000000000034
:100CC0000000000000000000000000000000000024
:100CD0000000000000000000000000000000000014
:100CE0000000000000000000000000000000000004
:100CF00000000000000000000000000000000000F4
:100D000000000000000000000000000000000000E3
:100D100000000000000000000000000000000000D3
:100D200000000000000000000000000000000000C3
:100D300000000000000000000000000000000000B3
:100D400000000000000000000000000000000000A3
:100D50000000000000000000000000000000000093
:100D60000000000000000000000000000000000083
:100D70000000000000000000000000000000000073
:100D80006024098E303F3106325B334F3466356D57
:100D9000367D3707387F396F4177427C4339553E7E
:100DA0004930507346714F3F4709870A0F19326423
:100DB00096C860E007F2000000000A0A0000000187
:100DC00001000A0A00010002000A0E0E00000003E2
:100DD000010A0E0E0001000400180E0E00000005AE
:100DE00001180E0E0001000600261616000000076E
:100DF0000126161600010008003C0E0E0000000936
:100E0000013C0E0E0001000A004A10100000000B09
:100E1000014A10100001000C005A0D010101000DE3
:100E200000670D010101000E007404040101000FB0
:100E30000078030300010010007B1B1B0001001160
:100E4000009619190001001200AF0B0B00010013EE
:100E500000BA10100101001400CA060600010015B6
:100E600000D005050101001600D508080001001793
:100E700000DD08080001001800E51A1A0001001939
:100E800001AC06060001001A01B23E3E0001001B43
:100E900001921A1A00014C09B20B510B5E0B6C0B3C
:100EA0007D0B8D0B9C4209C00BA64209BE0BAD0009
:100EB00002054322EDA2E7D2E7F9EC3340F260F3FA
:100EC000B4FF08ED547F70E802054DF82481C2E0BC
:100ED000C0E0F40428FAC313FCED92E7FD9004305F
:100EE000120919EEA2E7E9BA7F02C3133400940095
:100EF000FA75F091A4E5F013F494FE8AF0A433E5BA
:100F0000F033248CD313FDE492E7FE7F007C3F7521
:100F10008302ECC0E0F8EDC0E0F9EEC0E0FAEFC00B
:100F2000E0FB8583F09004301208FD85F083120306
:100F3000FCD0E0FBD0E0FAD0E0F9D0E0F8120202F9
:100F4000ED6480FD30E7011CD583C7ED33CC33F869
:100F5000D0E0A2E71328C313CC13FD22787FE4F678
:100F6000D8FD75812012010A020FA6021A97E49398
:100F7000A3F8E493A34003F68001F208DFF480298C
:100F8000E493A3F85407240CC8C333C4540F44207B
:100F9000C8834004F456800146F6DFE4800B01026A
:100FA000040810204080900D80E47E019360BCA373
:100FB000FF543F30E509541FFEE493A360010ECFB8
:100FC00054C025E060A840B8E493A3FAE493A3F8E2
:100FD000E493A3C8C582C8CAC583CAF0A3C8C582A2
:100FE000C8CAC583CADFE9DEE780BE070605040379
:100FF00002010007060504030201000706050403B9
:1010000002010007060504070605040302010007A4
:10101000060504030201000706050403020100039C
:10102000020100808080808080808040404040407D
:1010300040404020202020202020201010101002AE
:10104000020202020202020404040404040404086A
:101050000808080808080810101010010201020012
:10106000000003010002010202010003000100036D
:101070000201000506030405060304060504050530
:101080000604060406050506040303048020018007
:101090000820100204084002201010400101022024
:1010A000100840801002080202040120088001108C
:1010B00080020140080440401008010101020202C0
:1010C000020202010202020202020101804020101B
:1010D0000810080402018001804020100810080454
:1010E00002018001804020100810080402018001E4
:1010F0008040201008100804020180030000000056
:1011000000000000000001000101010101010101D6
:1011100001010201020202020202020202020302B1
:10112000030303030303030303030001021008087E
:10113000101080800202400840024040010104017A
:1011400020208020080404042010800100020203F3
:101150000103020001020300020301000002010377
:101160000300010201030002010003E00040F0D08F
:1011700070104020E0F020B0D0801030A0A060605F
:10118000C0C0B0509090500030708040F010C0E06F
:10119000808020D04060902010B070F050C0B0909F
:1011A0003070E030A0A000506000D00F03010D08A7
:1011B000040E07060F0B020308040E090C070002B9
:1011C000010D0A0C060009050B0A05000D0E0807A3
:1011D0000A0B010A03040F0D040102050B08060C9B
:1011E00007060C09000305020E0F09A0D00070903D
:1011F00000E09060303040F06050A01020D080C0FF
:101200005070E0B0C040B020F08010D01060A0401E
:10121000D090008060F09030800070B04010F020DE
:10122000E0C03050B0A050E02070C0070D0D080E97
:101230000B03050006060F09000A03010402070854
:1012400002050C0B010C0A040E0F090A03060F0914
:101250000000060C0A0B01070D0D080F090104031D
:10126000050E0B050C02070802040E20E0C0B0407A
:101270002010C07040A070B0D0601080505000307E
:10128000F0F0A0D0300090E080906040B02080105E
:10129000C0B070A010D0E0702080D0F06090F0C09E
:1012A00000509060A030400050E0300C0A010F0A5E
:1012B000040F020907020C0609080500060D0103C8
:1012C0000D040E0E00070B05030B0809040E030F97
:1012D00002050C020908050C0F030A070B000E0497
:1012E000010A0701060D000B08060D40D0B00020D2
:1012F000B0E070F04000908010D0A030E0C030909E
:101300005070C05020A0F060801060106040B0B0FD
:10131000D0D080C010304070A0E070A090F050603D
:101320000080F000E05020903020C00D01020F0836
:101330000D0408060A0F030B0701040A0C09050334
:10134000060E0B0500000E0C09070207020B010434
:101350000E010709040C0A0E08020D000F060C0A04
:10136000090D000F0303050506080BFFF002002717
:10137000062005444C2F54003634352D323030379A
:101380002D31344444535936363620202000000095
:10139000000102F201000000040001000100000150
:1013A00002F201000000040001000200000102F648
:1013B00001000000040001009002010103940100FB
:1013C00000000400010090020001038E01000000F3
:1013D0000400010090020001038E010000000400DF
:1013E000010330060101032901000000040001028D
:1013F0008000200103250100020C04000104000408
:10140000010101F9000010000600010400040201BE
:1014100001FF000010060600010400040E01020591
:101420000000100C060001033001000103DF010081
:101430000000040101033302010103E30100000085
:10144000040101040010010103AC000011000400BC
:1014500001040010020103B00000110404000104A3
:101460000010040103B4000011080400010400107E
:10147000030103B80000110C040001040010050171
:1014800003BC0000111004000104090B010103C09A
:101490000000111403000104800010FF136B010011
:1014A00000000801000400040DFF13730100000098
:1014B0001001000400040BFF1383010000000A0167
:1014C0000004000C010000000000120004010004F0
:1014D000000C020000000000120304010004000CD4
:1014E00003000000000012060401000400030801CC
:1014F000021400001900010000040003020102159B
:10150000000019010100000400030101021600009F
:10151000190201000004000305010217000019036D
:101520000100000404010101021A00001A00010177
:10153000000404020101023800001A1E0101000427
:1015400000030601020E0000101503000104000351
:101550000701020B0000101203000102010100014B
:10156000002E010000000200010202010001004DF6
:1015700001000000030001020300000100690100F6
:1015800000000300010203010001006D01000000E2
:101590000300010206000001008A010000000200B1
:1015A000010206010001008E01000000020001029C
:1015B00080000201009A0100000002000107000003
:1015C000FF070001FF070101FF070102FF070103F9
:1015D000FF070301FF070002FF200E1E1E18300840
:1015E000100404040404161100000000111100B0DE
:1015F000990184D401FF8430020C80FA000380FA40
:1016000000000084000084D6960004D6822404DC06
:10161000010C04DC030C8432010C04D6820004D6D5
:10162000830004D684000082000804D68C0004D60F
:10163000000004D6880004D6940004D6970000C0A9
:10164000000000B0880000B08C0000B0940000B032
:10165000970004B2010C0102030000118923123229
:101660009B462457AD653674BF8C489DC1AF5ABEAA
:10167000D3CA6CDBE5E97EF8F710810108339322C9
:101680001A56A5472C75B7643E9CC98D40BFDBAE8A
:1016900052DAEDCB64F9FFE8762102308B021013A9
:1016A00099672676AF443455BDAD4ABCC38E589F6A
:1016B000D1EB6EFAE7C87CD9F53183200A12910389
:1016C0001877A7662E54B5453CBDCBAC429ED98F4A
:1016D00050FBEFEA66D8FDC9744204538D61167061
:1016E0009F042015A9273236BBCE4CDFC5ED5EFC2A
:1016F000D7886899E1AB7ABAF35285430C71976049
:101700001E14A1052837B3263ADECDCF44FDDFEC09
:101710005698E98960BBFBAA726306728F40145128
:101720009D252234AB063017B9EF4EFEC7CC5CDDE9
:10173000D5A96AB8E38A789BF17387620E50954108
:101740001C35A3242A16B10738FFCFEE46DCDDCDC9
:1017500054B9EBA8629AF98B7084089581A71AB6E0
:1017600093C22CD3A5E13EF0B7084019C92B523AD9
:10177000DB4E645FED6D767CFF94898500B79BA698
:1017800012D2ADC324F1BFE03618C109483BD32AB9
:101790005A5EE54F6C7DF76C7EA50AB48386189778
:1017A00091E32EF2A7C03CD1B5294238CB0A501B99
:1017B000D96F667EEF4C745DFDB58BA40296998758
:1017C00010F3AFE226D0BDC13439C3284A1AD10B79
:1017D000587FE76E6E5CF54D7CC60CD785E51EF430
:1017E00097802891A1A33AB2B34A445BCD69567859
:1017F000DF0C601DE92F723EFBD68DC704F59FE418
:101800001690A98120B3BBA2325AC54B4C79D76838
:101810005E1CE10D683FF32E7AE70EF687C41CD5F7
:1018200095A12AB0A3823893B16B467ACF48545918
:10183000DD2D623CEB0E701FF9F78FE606D49DC5D7
:1018400014B1ABA02292B983307BC76A4E58D549F8
:101850005C3DE32C6A1EF10F7801010101020202D6
:10186000262626262525252828282827272710103C
:1018700010101111110E0E0E0E0F0F0F0C0C0C0C80
:101880000D0D0D0A0A0A0A0B0B0B0A100F0E0D0B99
:101890000C04030201020403040302010204030412
:1018A000030201020403040302010204030403020D
:1018B00001020403040302010204030403020102FF
:1018C000040300000000000000000000000102F21C
:1018D000040201000100000102F204020100020002
:1018E000000102F6040201040004010101F90200F2
:1018F00005040004010101FB0400010400040201CD
:1019000001FF0200050400040201020104000104B9
:1019100000040E0102050200050400040E01020786
:10192000040001028000200103250404010090024C
:101930000001038E040201009002010103940402DD
:1019400001040010010103AC0402010400100201B3
:1019500003B004020104090B010103C003040302E4
:1019600001010001001D0302030202010001003D0C
:1019700003030302030000010059030403020301EF
:101980000001005D0304030206000001007A020367
:10199000050206010001007E02030502800002012B
:1019A000009A0202050400040901009C030003FFE1
:1019B000FFFFFF00000000000036000000003700BD
:1019C00000000038000000003A000000003B00006A
:1019D00000003C000000003D000000003E00000050
:1019E000003F000000004000000000410000000037
:1019F0004200000000440000001B450000000046BB
:101A00000000000047000001804B000001FF500073
:101A100000000051000000045200000000530000CC
:101A200000005400000000550000000056000000B7
:101A30000057000000005A008000005B007FF5475F
:101A4000600000055D61007FF54662000000007CDB
:101A5000000000807D00000000480000018234008A
:101A600000000035000000003900000000430000C5
:101A7000001B30000000353100A000C13200000C16
:101A80008433000000E8003409350D390C0F0A10CA
:101A9000091BD3000000001201B9BF01031201BEEF
:101AA00051E89002C0E0F8A3E0F9A3E0FAA3E0FB5C
:101AB000C31208C66003E4F5B151E89002C01209F0
:101AC000191201DC12018C1201D71201AF1201B4FC
:101AD00012000680CBF583E0FCA3E0FDA3E0FEA3AB
:101AE000E0FF9004161209199002BCE0FCA3E0FD8F
:101AF000A3E0FEA3E0FF9004631209199002B8E08E
:101B0000FCA3E0FDA3E0FEA3E0FF90046712091927
:101B1000E4FFFEFDFC900467E0F8A3E0F9A3E0FA1F
:101B2000A3E0FBC31208C6703074FFFFFEFDFC90FB
:101B30000463E0F8A3E0F9A3E0FAA3E0FBC3120812
:101B4000C66043E4FFFEFDFC900463E0F8A3A3A39A
:101B5000E0C31208C67002802D900463E0FCA3E08D
:101B6000FDA3E0FEA3E02401FFE43EFEE43DFDE42E
:101B70003CFCA3E0F8A3E0F9A3E0FAA3E0FBC31266
:101B800008C6600241E8900463E0FCA3E0FDA3E026
:101B9000FEA3E0FF227B017A0379867D047C00B1FD
:101BA000F990038CEEF0A3EFF07B017A037986E4E1
:101BB000FD7F17FE71D57B017A0079107D047C00D2
:101BC000B1F9900016EEF0A3EFF07B017A007910E6
:101BD000E4FD7F16FE900695EDF0A3EBF0A3EAF08E
:101BE000A3E9F0900693EEF0A3EFF090069974014C
:101BF000F0E490069BF0A3F0C3EF941CEE94004039
:101C000002A1C8E490069AF090069AE0FFC3941CE3
:101C10004002A1C875F008EFA424F2F582E5F03483
:101C200007F583E0FEA3E0FF900693E0FCA3E0FD50
:101C3000EF6D7002EE6C6002A1C0EDAE047803C3DC
:101C400033CE33CED8F9FF24F8F58274073EF583FE
:101C5000E0600281E4900696E0FBA3E0FAA3E0F9DD
:101C600074F72FF58274073EF583E024FEFDE4341B
:101C7000FFFCB1F990069BEEF0A3EFF090069BE01D
:101C8000FD900693E0FEA3E07803C333CE33CED8B5
:101C9000F924F7F58274073EF583E024FEFFE4346F
:101CA000FFFE900696E0FBA3E0FAA3E0F98F828E98
:101CB00083ED1206D990069BA3E0FD900693E0FE0B
:101CC000A3E07803C333CE33CED8F924F7F582747A
:101CD000073EF583E07E0024FFF582EE34FFF583B6
:101CE000ED1206D9900693E0FEA3E07803C333CE4D
:101CF00033CED8F924F4F58274073EF583E0FEA3D1
:101D0000E0FF900695E0FD7C00EF2DFFEC3EFEC06D
:101D100006C007A3E0FBA3E0FAA3E0F9900693E076
:101D2000FEA3E07803C333CE33CED8F924F7F5828F
:101D300074073EF583E09009DEF0D007D006124428
:101D400074EF6002A1C8900699F0900693E0FEA39C
:101D5000E07803C333CE33CED8F9FF24F9F582748B
:101D6000073EF583E0706174FC2FF58274073EF541
:101D700083E0FEA3E0FF900695E0FD7C00EF2DFFE1
:101D8000EC3EFEC006C007A3E0FBA3E0FAA3E0F927
:101D9000900693E0FEA3E07803C333CE33CED8F9A8
:101DA00024FFF58274073EF583E09009DEF0D0074A
:101DB000D006124474EF60109006997401F0800808
:101DC00090069AE004F08108900699E0FF22122222
:101DD000B2900421E0FF7E00900423EEF0A3EFF028
:101DE000FD900420E0FFED900423CFF0A3EFF07B03
:101DF000017A0479147D0C7C009006D9EBF0A3EAFB
:101E0000F0A3E9F0A3ECF0A3EDF0E4A3F0A3F090CD
:101E100006DC74FFF5F012077845F060429006D9B1
:101E2000E0FBA3E475F001120778A9F0FA12064E60
:101E3000FF9006DEE0FCA3E0FDED6F25E0FFE4335C
:101E4000FE74592FF58274163EF583ECFFE493FE81
:101E50007401936FFF9006DEEEF0A3EFF080B09078
:101E600006DEE0FEA3E0FF22E0FFA3E0900692CFB3
:101E7000F0A3EFF07D0690068EEBF0A3EAF0A3E965
:101E8000F0A3EDF012282AEF70037F012290068E56
:101E9000E0FBA3E0FAA3E0F9A3E0FD7C00B1F99038
:101EA0000692E06E7003A3E06F7F0060027F012264
:101EB000900414EFF0E4A3F07B017A02799590028C
:101EC000ADE0FFA3E0900692CFF0A3EFF07D18D134
:101ED00076EF7006900414E070207B017A02799509
:101EE000E4FD7F1BFE12202CBF0106900415740137
:101EF000F0F195123A5E7F01F127900415E0FF2280
:101F00007F01F1277F147E00F1B312426CEF64036E
:101F10006014EF60119002F1E0D394024008E4F005
:101F2000F1957F01F1272290042DEFF0782E7C04AB
:101F30007D017BFF7A0D791C7E007F1412062890AC
:101F400004457401F0900442F0A37404F0A3742ECD
:101F5000F090042DE0FF7B017A04792E123AB7EF5E
:101F6000702D9009C0E0FEA3E0AA06F97BFFC00334
:101F7000C002900442E0FBA3E0FAA3E0F8AC02AD9B
:101F800003D002D003120B34EF7004900445F0909C
:101F90000445E0FF2290FFE3E04440F043B0407F7F
:101FA000967E00F1B390FFE3E04440F053B0BF7F72
:101FB000F47E019004CFEEF0A3EFF0A31209250008
:101FC0000000009004CFE0FEA3E0FF7C007D131230
:101FD00006FBE4FDA3E0F8A3E0F9A3E0FAA3E0FB2D
:101FE000C31208C6502412323C9004D1E0FCA3E096
:101FF000FDA3E0FEA3E02401FFE43EFEE43DFDE49A
:102000003CFC9004D112091980B922900461E0755A
:10201000F00EA42495F582E5F03413F583E493FEE5
:10202000740193FF7B017A04791FE4FD900690ED23
:10203000F0A3EBF0A3EAF0A3E9F090068EEEF0A394
:10204000EFF09006947401F0E4A3F0A3F09006D7AB
:10205000F0A3F0C3EF941CEE94004002414FE490D3
:102060000695F0900695E0FFC3941C4002414F7521
:10207000F008EFA424F2F582E5F03407F583E0FEE2
:10208000A3E0FF90068EE0FCA3E0FDEF6D7002EE92
:102090006C60024147900696F090068EE0FEA3E049
:1020A0007803C333CE33CED8F924F4F58274073ED7
:1020B000F583E0FEA3E0FF900690E0FD7C00EF2DAD
:1020C000FFEC3EFEC006C0077B017A0679979006BA
:1020D0008EE0FEA3E07803C333CE33CED8F924F7E5
:1020E000F58274073EF583E09009D3F0D007D0065F
:1020F00051B2EF6401707890068EE0FEA3E07803A1
:10210000C333CE33CED8F9FF24F9F58274073EF5F8
:1021100083E0704D74FC2FF58274073EF583E0FE7A
:10212000A3E0FF900690E0FD7C00EF2DFFEC3EFE6B
:10213000C006C0077B017A06799790068EE0FEA361
:10214000E07803C333CE33CED8F924FFF582740789
:102150003EF583E09009D3F0D007D00651B2BF011D
:102160000E900696E004F0E0C394035002019990AB
:102170000696E0C3940340037F012290068EE0FEA2
:10218000A3E07803C333CE33CED8F9FF24F8F58229
:1021900074073EF583E0706D74F72FF58274073E87
:1021A000F583E0FF2496F582E43406F583E0FD90A4
:1021B00006D7E4F0A3EDF074952FF582E43406F52C
:1021C00083E0FE9006D7E04EF0A3E0F07B017A06B4
:1021D000799790068EE0FEA3E07803C333CE33CE2A
:1021E000D8F924F7F58274073EF583E024FEFDE478
:1021F00034FFFC121DF99006D7E06E7003A3E06F68
:1022000060037F0122900691E0F9A3E0FAA3E09039
:1022100006DCC9F0A3EAF0A3E9F090068EE0FEA385
:10222000E07803C333CE33CED8F924F7F5827407B0
:102230003EF583E09006DFF07B017A067997516FD7
:10224000E4900694F08008900695E004F001639015
:102250000694E0FF22516F9006DC7401F0A3740332
:10226000F0A37409F0A37404F07B017A03798E90D3
:1022700006D9EBF0A3EAF0A3E9F0E4FF9006DFE073
:10228000FEEFC39E502B9006D9E0FBA3E0FAA3E03B
:10229000F98F82758300120667FE9006DCE0FBA3CF
:1022A000E0FAA3E0F98F82758300EE1206D90F8061
:1022B000CB229009CEEEF0A3EFF09009D0EBF0A383
:1022C000EAF0A3E9F09009D4E4F09009D3E0FFEF3D
:1022D00070037F01229009D3E0FF7E009009CEE0D9
:1022E000FCA3E0FDEF2DFFEE3CFED3EF94FFEE9458
:1022F0000140037F01229009CEE0FEA3E0FFEEFF44
:102300007E00EF54FFFF9009D5EFF09009D5E0FF74
:10231000EF25E0FF9009D5EFF0D10D9009D5E0FF52
:10232000EF24A0FFB174EF600571CA7F012290090C
:10233000CEE0FEA3E0FFB174EF600571CA7F012219
:10234000D10D9009D5E0FFEF24A1FFB174EF600536
:1023500071CA7F01229009D0E0FBA3E0FAA3E0F963
:102360009009D6EBF0A3EAF0A3E9F09009D5E4F0E8
:102370009009D3E0FFEF14FF9009D5E0FEEEC39F74
:1023800050241243A69009D6E0FBA3E0FAA3E0F99B
:102390009009D5E0FE8E82758300EF1206D9900970
:1023A000D5E004F080CA12431A9009D6E0FBA3E0FE
:1023B000FAA3E0F99009D5E0FE8E82758300EF1252
:1023C00006D971CA9009D4E0FF229009FDE4F0908B
:1023D000FFE8E0FFEF54BFFF90FFE8EFF09009FD4A
:1023E0007414F09009FDE0FFEFD394004015E5EC84
:1023F00020E61043EC80D13D53EC7F9009FDE014C2
:10240000F080E090FFE8E0FFEF4440FF90FFE8EF4E
:10241000F090FFE8E0FFEF4480FF90FFE8EFF0531B
:10242000ECBF53EC7FD13D43EC80D13D43EC4022E7
:102430009009C2EEF0A3EFF09009C4EBF0A3EAF02C
:10244000A3E9F09009CDE4F09009C7E0FFEF600B3D
:102450009009C7E0FFEFD3942040037F0122900949
:10246000C2E0FEA3E0FFD3EF94FFEE940140037FB0
:1024700001229009C7E0FF7E009009C2E0FCA3E0C2
:10248000FDEF2DFFEE3CFED3EF94FFEE94004013E2
:102490009009C2E0FEA3E0FFD3EF94FFEE9400505A
:1024A00002A16ED10D9009C7E0FF7E009009C2E045
:1024B000FCA3E0FDEF2DFFEE3CFED3EF94FFEE9486
:1024C0000050069009CD74A0F09009C2E0FEA3E090
:1024D000FFD3EF94FFEE940040069009CD74A2F074
:1024E0009009CDE0FFB174EF600571CA7F012290C1
:1024F00009C2E0FEA3E0FFB174EF600571CA7F017D
:10250000229009C4E0FBA3E0FAA3E0F99009CAEB2A
:10251000F0A3EAF0A3E9F09009C8E4F0A3E4F09096
:1025200009C7E0FF7E009009C8E0FCA3E0FDC3ED11
:102530009FEC9E50339009CAE0FBA3E0FAA3E0F9B8
:1025400012064EFFB174EF600571CA7F0122900937
:10255000CBE475F0011207629009C9E004F070063F
:102560009009C8E004F080B771CAD14E80037F01A2
:10257000227F00229009EFEFF09009F0E4F090093B
:10258000F1E4F090FFE8E0FFEF4480FF90FFE8EF18
:10259000F053EC7F90FFE8E0FFEF4440FF90FFE84E
:1025A000EFF09009F1E4F09009F1E0FFEFC3940837
:1025B00050309009EFE0FFEF30E70543EC40800337
:1025C00053ECBF43EC809009EFE0FFEF25E0FF9074
:1025D00009EFEFF012431353EC7F9009F1E004F0A0
:1025E00080C512000890FFE8E0FFEF54BFFF90FFA6
:1025F000E8EFF043EC80120008E5EC30E6069009C5
:10260000F07401F053EC7F9009F0E0FF2212444097
:1026100090FFE8E0FFEF4440FF90FFE8EFF043EC6D
:102620004090FFE8E0FFEF4480FF90FFE8EFF043C9
:10263000EC80D13D53ECBFD13D53EC7F229009FBA0
:102640007401F09009FBE0FF14F0EF70F62290099E
:10265000F574FFF09009F4E4F09009F5E0FF9009BB
:10266000F4E0FEEEC39F5013D10D7FA0B174EF7064
:102670000261CA9009F4E004F080DE2290048D74B7
:1026800001F0A37407F0A374DAF0900488E09004DA
:1026900090F0900484E0FBA3E0FAA3E0F990048AB0
:1026A000EBF0A3EAF0A3E9F09006DC7401F0A37468
:1026B00004F0A3749BF0A37408F090048DE0FBA3D6
:1026C000E0FAA3E0F9516F90048AE0FBA3E0FAA3DB
:1026D000E0F91249A57B017A04799B124A1DE49026
:1026E0000491F0E4900492F0900491E0FF9010BB0C
:1026F00093FE900492E0C39E501C900490E0FDB4C1
:102700000103EF60117B017A04799B124D5690040E
:1027100092E004F080D29006DC7401F0A37404F01F
:10272000A37493F0A37408F07B017A04799B516F32
:102730009004B974FFF0A37410F0A3745BF0A37459
:10274000FFF0A37410F0A3748BF0A37406F07B0168
:102750007A047993124A3B9004A67401F0A374049E
:10276000F0A37493F090048AE0FBA3E0FAA3E0F9ED
:10277000124B0EE4F5B1900491E004F0E0C3941024
:102780005002C1E390048AE0FBA3E0FAA3E0F990D1
:1027900004A3EBF0A3EAF0A3E9F0E4F5B19004A7F9
:1027A00004F012064E9004AFF090000412066790F9
:1027B00004AEF09000011206679004ADF0900005A1
:1027C0001206679004ACF09000021206679004AB0A
:1027D000F09000061206679004AAF090000312061B
:1027E000679004A9F09000071206679004A8F0E42F
:1027F0009004A6F07B017A0479A81249789004A38A
:10280000E0FBA3E0FAA3E0F9A3E0F582758300EF13
:102810001206D99004A7E025E0F09004A6E004F0A9
:10282000E0C3940840CEE4F5B122900694EBF0A307
:10283000EAF0A3E9F0E4FFEFC39D501B900694E09B
:10284000FBA3E0FAA3E0F98F8275830012066760AC
:10285000037F01220F80E07F0022F0900419E0FB4B
:10286000A3E0FAA3E0F9900003120667FFEFD39408
:102870006340037F0022EF75F00A84C454F0FEEF3A
:1028800075F00A84E5F02EFF22AC07AF0511B6AD56
:1028900007AF0411B6EF2DFF12064E2FFFE412060C
:1028A000C7EFC39464400974011206C7749C2FFFDC
:1028B00080BB120667FFEFC4540F75F00AA4FEEF49
:1028C000540F2EFF22900693EBF0A3EAF0A3E9F059
:1028D000E490069AF0A3F0900699E0FF90069BE042
:1028E000FEC39F5079EEFDC3EF9DFDE49400FCED27
:1028F00024FFFFEC34FFFE900693E0FBA3E0FAA375
:10290000E0F98F828E83120667FFED24FFFDEC3421
:10291000FFFC900696E0FBA3E0FAA3E0F98D828C21
:1029200083120667FD7B017A06799A118990069BCE
:10293000E0FD900699E0C39DFDE49400CD24FFCD19
:1029400034FFFC900693E0FBA3E0FAA3E0F98D824C
:102950008C83EF1206D990069BE004F001D72290F9
:1029600002BCE0FCA3E0FDA3E0FEA3E0FF9003FFB8
:102970001209199002B8E0FCA3E0FDA3E0FEA3E079
:10298000FF900403120919E4FFFEFDFC900403E02C
:10299000F8A3E0F9A3E0FAA3E0FBC31208C6703085
:1029A00074FFFFFEFDFC9003FFE0F8A3E0F9A3E055
:1029B000FAA3E0FBC31208C66043E4FFFEFDFC90EF
:1029C00003FFE0F8A3A3A3E0C31208C67002802DA2
:1029D0009003FFE0FCA3E0FDA3E0FEA3E02401FFE1
:1029E000E43EFEE43DFDE43CFCA3E0F8A3E0F9A3F3
:1029F000E0FAA3E0FBC31208C66002215F9003FF68
:102A0000E0FCA3E0FDA3E0FEA3E0FF22C0E0C0F0F5
:102A1000C083C082C0D075D000C000C001C002C059
:102A200003C004C005C006C0079003FCE5A7F0750D
:102A3000A70075B7559003FBE5B6F075B700309960
:102A40003DC2999000A3E004F09000A2E0FFA3E053
:102A5000C39F5024315F9000AE1209199000A3E08B
:102A600024B6F582E43400F583E0FF30D004D29B35
:102A70008002C29B8F99800690009F7408F0309866
:102A80000BC298AF99AD07E4FF12019675B7559048
:102A900003FBE0F5B675B700A3E0F5A7D007D006B5
:102AA000D005D004D003D002D001D000D0D0D08245
:102AB000D083D0F0D0E0329002BCE0FCA3E0FDA3D4
:102AC000E0FEA3E0FF90040B1209199002B8E0FCAD
:102AD000A3E0FDA3E0FEA3E0FF90040F120919E4B8
:102AE000FFFEFDFC90040FE0F8A3E0F9A3E0FAA3D9
:102AF000E0FBC31208C6703074FFFFFEFDFC9004BB
:102B00000BE0F8A3E0F9A3E0FAA3E0FBC31208C6C8
:102B10006043E4FFFEFDFC90040BE0F8A3A3A3E0F8
:102B2000C31208C67002802D90040BE0FCA3E0FDE8
:102B3000A3E0FEA3E02401FFE43EFEE43DFDE43C0F
:102B4000FCA3E0F8A3E0F9A3E0FAA3E0FBC31208BA
:102B5000C6600241B790040BE0FCA3E0FDA3E0FED9
:102B6000A3E0FF22C0E0C0F0C083C082C0D075D017
:102B700000C000C001C002C003C004C005C006C040
:102B800007900408E5A7F075A70075B755900407EE
:102B9000E5B6F075B70030D93DC2D9900150E004D8
:102BA000F090014FE0FFA3E0C39F502451B7900184
:102BB0005B120919900150E02463F582E43401F5B9
:102BC00083E0FF30D004D2DB8002C2DB8FD98006E5
:102BD00090014C7408F030D80BC2D8AFD9AD077F44
:102BE0000112019B75B755900407E0F5B675B70063
:102BF000A3E0F5A7D007D006D005D004D003D002BB
:102C0000D001D000D0D0D082D083D0F0D0E032E05C
:102C1000FCA3E0FDA3E0FEA3E0FF90041A12091953
:102C200090041AE0FCA3E0FDA3E0FEA3E0FFA3E014
:102C3000F8A3E0F9A3E0FAA3E0FBC31208C69004EE
:102C40001EE0503DF8C000C001C002C00390041A4D
:102C5000E0F8A3E0F9A3E0FAA3E0FBC374FF9BFF55
:102C600074FF9AFE74FF99FD74FF98FCD003D002A4
:102C7000D001D000EB2FFFEA3EFEE93DFDE83C80AD
:102C800024FCA3E0FDA3E0FEA3E0FF90041AE0F81B
:102C9000A3E0F9A3E0FAA3E0FBC3EF9BFFEE9AFEEB
:102CA000ED99FDEC98FCA3120919900422E0FCA315
:102CB000E0FDA3E0FEA3E0FF90041EE0F8A3E0F92E
:102CC000A3E0FAA3E0FBC31208C67F0140027F0025
:102CD0002290033BE054FDF07B017A0979137D04D7
:102CE0001201A57B017A097917900697E4F0A37485
:102CF00004F0E4FD900693EBF0A3EAF0A3E9F0A35F
:102D0000EDF0E4FFFED3900698E09F900697E09EDA
:102D1000401F900696E0FD900693E0FBA3E0FAA327
:102D2000E0F98F828E83ED1206D90FBF00010E806D
:102D3000D422900476EBF0A3EAF0A3E9F0A3EDF03F
:102D4000D3946440037F01229004807401F0A37443
:102D500007F0A37458F09006DC7401F0A37407F038
:102D6000A374EAF0A37408F090047AE0FBA3E0FAFD
:102D7000A3E0F912226F7B017A0779DAE4FD7F1371
:102D8000FE12202CBF01037F0122900480E0F9A3F2
:102D9000E0FAA3E09006DCC9F0A3EAF0A3E9F09022
:102DA0000479E09006DFF0900476E0FBA3E0FAA35C
:102DB000E0F912226F900480E0FBA3E0FAA3E0F9AF
:102DC000900479E0FFF58275830074801206D97E45
:102DD00000E92FF9EE3AFAE92401F9E43AFA90060B
:102DE00097E4F0A37407F0E4FD91F4900479E01304
:102DF0001313541F0490047FF0E4FD74EA2DF58250
:102E0000E43407F583C083C082E0FF900480E0FBD8
:102E1000A3E0FAA3E0F98D82758300120667FEEF46
:102E20006ED082D083F00DEDB408D0E490047EF033
:102E300090047FE014FF90047EE0C39F506F9004E5
:102E40008D7401F0A37407F0A374DAF0A37402F098
:102E50007B017A0779EA12269DE4FD74EA2DF5825A
:102E6000E43407F583C083C082E0FC90047EE02454
:102E700001FFE433FEEF7803C333CE33CED8F9FF3E
:102E8000ED7A002FFFEA3EFE900480E0FBA3E0FA1B
:102E9000A3E0F98F828E831206676CD082D083F014
:102EA0000DEDB408B690047EE004F080837B017AD7
:102EB0000779EA9004877402F0E4FFF10B90047D37
:102EC000E06401703B900476E0FBA3E0FAA3E0F934
:102ED000A3E0FF7E00E92FF9EE3AFA900691EBF0BD
:102EE000A3EAF0A3E9F0A37404F0A37455F07B0106
:102EF0007A0779EA1232A2BF02037F00227F012201
:102F00007F00229004877401F07F06900484EBF028
:102F1000A3EAF0A3E9F0EF640660147B017A077975
:102F2000DAE4FD7F13FE12202CBF01037F01229003
:102F30000487E0B40209A37402F0A314F08009909E
:102F400004887401F0A304F012267C90048D7401AF
:102F5000F0A37407F0A374E2F090048912268D1296
:102F6000267C7F002290041AE075F0ADA424BAF903
:102F7000740035F0FA7B01E075F0ADA424C3F5824E
:102F8000E5F03400F583E0240AFD90041DEBF0A386
:102F9000EAF0A3E9F0E4FFFEEEC39D501890041D93
:102FA000E0FBA3E0FAA3E0F98E82758300120667C6
:102FB0002FFF0E80E32235F0FA9006917401F0A302
:102FC000EAF0A3E9F0A37406F07B017A0179F990A5
:102FD000068EEBF0A3EAF0A3E9F0E4900695F090FA
:102FE0000694E0FFA3E0FEC39F5047EEFD90068EDF
:102FF000E0FBA3E0FAA3E07E002FF9EE3AFAE92421
:10300000FFF9EA34FFFAC3E99DF9EA9400FA1206DF
:103010004EFF900691E0FBA3E0FAA3E0F99006953D
:10302000E0F582758300EF1206D9900695E004F072
:1030300080AD22900466EBF0A3EAF0A3E9F0E4FF90
:10304000EFC39D5028900466E0FBA3E0FAA3E0F9EB
:103050008F82758300120667FE540FD394095007C0
:10306000EE54F0949040037F01220F80D37F002222
:1030700090041DE075F0ADA424D0F9740035F0FA89
:103080007B0190045FE07E0029F9EE3AFA7D04901E
:103090000471EBF0A3EAF0A3E9F0A3EDF0E4A3F0F0
:1030A000900474E0FFC313FEA3E0C39E5078900425
:1030B00071E0FBA3E0FAA3E0F9900475E0FEF5826D
:1030C000758300120667900476F0EF24FFFDE43468
:1030D000FFFCEEFFC3ED9FFFEC94008F82F583129F
:1030E0000667FF900475E0F582758300EF1206D93C
:1030F000900476E0FF900474E024FFFDE434FFFCCC
:10310000A3E0FBC3ED9BFDEC9400FC900471E0FB9D
:10311000A3E0FAA3E0F98D828C83EF1206D9900424
:1031200075E004F001A02290041DE075F0ADA42428
:10313000C8F9740035F0FA7B01900466EBF0A3EA5D
:10314000F0A3E9F012064EFF24B5F582E43402F54F
:1031500083E0C39403401074B52FF582E43402F584
:10316000837403F07F01227B017A04796AE4FD7F96
:1031700012FE12202CBF01037F0122900466E0FBA7
:10318000A3E0FAA3E0F912064EFF7006900469F07E
:10319000801BEFB401089004697403F0800FEFB452
:1031A00002089004697406F080037F0122E4FFEFB7
:1031B0002401FDE433FC900466E0FBA3E0FAA3E005
:1031C000F98D828C83120667FE900469E02F246AD1
:1031D000F582E43404F583E06E603812064EFE2476
:1031E000B5F582E43402F583E004F074B52EF5827F
:1031F000E43402F583E0C39403401512064E25E043
:1032000024DBF582E43402F5837405F0A374A0F0A6
:103210007F01220FEFB40397900466E0FBA3E0FA6E
:10322000A3E0F912064E24B5F582E43402F583E4F6
:10323000F0FF227F01AE071FEE70FA221200071284
:10324000000780EFAD07AC06E4FBFAC3EB9DEA9CF8
:103250005009513C0BBB00010A80F02224FEFFE420
:1032600034FFFE90046EE0FD7C001206FB900468C3
:10327000E0FBA3E0FAA3E02FF9EA3EFA900691EB17
:10328000F0A3EAF0A3E9F090046EE0900694F090C9
:103290000471E0900695F090046BE0FBA3E0FAA3C4
:1032A000E0F990068EEBF0A3EAF0A3E9F0E49006D3
:1032B00096F0900694E0FF900696E0FEC39F4002D1
:1032C00061C3900695E064557039900691E0FBA3C8
:1032D000E0FAA3E0F98E82758300120667FD90067E
:1032E0008EE0FBA3E0FAA3E0F98E8275830012065C
:1032F00067FED39D40037F0022EEC39D400261BB69
:103300007F0122900694E024FFFFE434FFFE900644
:1033100096E0FDC3EF9DFFEE9400FE900691E0FB6A
:10332000A3E0FAA3E0F98F828E83120667FF90066E
:1033300094E024FFFDE434FFFC900696E0FBC3ED2F
:103340009BFDEC9400FC90068EE0FBA3E0FAA3E06A
:10335000F98D828C83120667D39F40037F002290F1
:103360000694E024FFFFE434FFFE900696E0FDC3E0
:10337000EF9DFFEE9400FE900691E0FBA3E0FAA320
:10338000E0F98F828E83120667FF900694E024FF97
:10339000FDE434FFFC900696E0FBC3ED9BFDEC944E
:1033A00000FC90068EE0FBA3E0FAA3E0F98D828C8E
:1033B00083120667C39F50037F0122900696E004A4
:1033C000F041B27F0222900468EBF0A3EAF0A3E997
:1033D000F090046FE0FED3940150037F0122EE24AD
:1033E000FFFFE434FFFE90046EE0FD7C001206FB5C
:1033F000900468E0FBA3E0FAA3E02FF9EA3EFAC0EC
:1034000002C001A3E0F9A3E0FAA3E09006DCC9F052
:10341000A3EAF0A3E9F090046EE09006DFF0D0019B
:10342000D00212226F90046FE0900472F090047248
:10343000E0FFD39401406D900470E064557008EF94
:10344000515CEF6057800B900472E0515CEF6401B7
:10345000604A900472E024FEFFE434FFFE90046EA4
:10346000E0FD7C001206FB900468E0FBA3E0FAA3F9
:10347000E02FF9EA3EFAC002C001A3E0F9A3E0FAA6
:10348000A3E09006DCC9F0A3EAF0A3E9F090046E93
:10349000E09006DFF0D001D00212226F900472E0BB
:1034A00014F080897F002212064EFF90042FE4F072
:1034B000A3EFF0E0F8E4F0E890042FF090000112A0
:1034C0000667FF90042FE0FEA3E04FFF90042FEE6D
:1034D000F0FEA3EFF02291E490048C1209197B0115
:1034E0007A03798E90067DEBF0A3EAF0A3E9F0A3CE
:1034F00012092500000000E4900684F0900680E0A8
:10350000FCA3E0FDA3E0FEA3E0FF78081208EA9028
:103510000680120919900680E0F8A3E0F9A3E0FA0A
:10352000A3E0FBC000C001C002C00390067DE0FB29
:10353000A3E0FAA3E0F9900684E0F5827583001217
:103540000667FFD003D002D001D000EB4FFFEAFEA8
:10355000E9FDE8FC900680120919900684E004F069
:10356000E0B40498900680E0FCA3E0FDA3E0FEA395
:10357000E0FF22900489EBF0A3EAF0A3E9F0E490E5
:103580000491F090048FE014FF90048FE0FEEFC3ED
:103590009E4002C16690048CE0FBA3E0FAA3E0F930
:1035A0008F82758300120667FE900491E02EFDE481
:1035B000900490F0EDC39E50037401F0E4900491E8
:1035C000F0900489E0FBA3E0FAA3E0F98F82758311
:1035D00000120667FE540FFCED540FFBECC39B502A
:1035E00034EEC39D900489E0FB500E8F82758300FA
:1035F000120667FEC3749A8037A3E0FAA3E0F98F3E
:1036000082758300120667C39D24FA8F827583003A
:103610001206D98044900489E0FBA3E0FAA3E0F904
:103620008F82758300120667FEC39D5015C374A078
:103630009D2E8F827583001206D99004917401F03B
:103640008017900489E0FBA3E0FAA3E02FF9E43AA5
:10365000FA12064EC39D1206C7900490E06004A3C0
:103660007401F01FA1892290046EEBF0A3EAF0A38D
:10367000E9F0AB05A37401F0A312092500000001D5
:1036800090047612092500000000E490047AF0EB23
:10369000D394005002E1BFEB94054002E1BFEBF090
:1036A00090047AE0D394005002E1BF900476E0F8F1
:1036B000A3E0F9A3E0FAA3E0FBC000C001C002C090
:1036C0000390046EE0FBA3E0FAA3E0F990047AE033
:1036D000FF7E00E92FF9EE3AFA90FFFF12066754D9
:1036E0000F75F00A84AFF0E4FCFD900472E0F8A3DB
:1036F000E0F9A3E0FAA3E0FB12078ED003D002D0DA
:1037000001D000EB2FFFEA3EFEE93DFDE83CFC90D6
:103710000476120919900472E0FCA3E0FDA3E0FE18
:10372000A3E0FFE47B0AFAF9F812078E9004721204
:103730000919900476E0F8A3E0F9A3E0FAA3E0FB0E
:10374000C000C001C002C00390046EE0FBA3E0FA19
:10375000A3E0F990047AE0FF7E00E92FF9EE3AFA4F
:1037600090FFFF12066754F0C4540FFFE4FCFD9075
:103770000472E0F8A3E0F9A3E0FAA3E0FB12078EDD
:10378000D003D002D001D000EB2FFFEA3EFEE93D8E
:10379000FDE83CFC900476120919900472E0FCA349
:1037A000E0FDA3E0FEA3E0FFE47B0AFAF9F81207CC
:1037B0008E90047212091990047AE014F0C1A0905E
:1037C0000476E0FCA3E0FDA3E0FEA3E0FF2290046A
:1037D0008DEBF0A3EAF0A3E9F0900492120919909E
:1037E0000490E0A3F0900491E0D3940050030238D9
:1037F000C0E47B0AFAF9F8A3E0FCA3E0FDA3E0FE35
:10380000A3E0FF120819AF0390048DE0FBA3E0FAD8
:10381000A3E0F9900491E0FD7C00E92DF9EC3AFA7F
:1038200090FFFFEF1206D9900492E0FCA3E0FDA305
:10383000E0FEA3E0FFE47B0AFAF9F812081990040D
:103840009212091990048DE0FBA3E0FAA3E0F9902D
:103850000491E0FF7E00E92FF9EE3AFAE924FFF93E
:10386000EA34FFFAC003C002C00112064EFFC007CF
:10387000E47B0AFAF9F8900492E0FCA3E0FDA3E0EF
:10388000FEA3E0FF120819AF03EFC454F0FED0E02E
:103890004ED001D002D0031206C7900492E0FCA3E0
:1038A000E0FDA3E0FEA3E0FFE47B0AFAF9F81208CA
:1038B00019900492120919900491E014F00237E56E
:1038C00022F0A37406F07B017A027995900451EB03
:1038D000F0A3EAF0A3E9F0E4900458F0900457E074
:1038E000FFA3E0FEC39F4002217F900451E0FBA3B1
:1038F000E0FAA3E0F98E82758300120667FDC454D6
:103900000F900459F0ED540FA3F0E4FF74592FF514
:1039100082E43404F583E0FEC3940A501074592FF6
:10392000F582E43404F583E02430F08014EEC3948F
:1039300010500E74592FF582E43404F583E02437D7
:10394000F00FEFB402C6900458E075F002A4FF90A7
:103950000454E0FBA3E0FAA3E02FF9EA35F0FA9073
:1039600006DCEBF0A3EAF0A3E9F0A37402F07B011C
:103970007A04795912226F900458E004F001DC2295
:10398000783D7C047D017BFF7A0D793A7E007F14BF
:103990001206289004547401F0A37404F0A3743D3B
:1039A00011C17B017A04793D51547B017A02799BE4
:1039B000900455740CF07F0B900451EFF0A3EBF0E2
:1039C000A3EAF0A3E9F078567C047D017BFF7A0C32
:1039D00079A47E007F321206289004887401F0A337
:1039E0007404F0A37456F0A37401F0900455E0FF42
:1039F000601F9006DC7401F0A37404F0A37456F009
:103A0000A3EFF0900452E0FBA3E0FAA3E0F9122246
:103A10006F900451E0FF7B017A04795651B7EF7043
:103A20002D9009C0E0FEA3E0AA06F97BFFC003C009
:103A300002900488E0FBA3E0FAA3E0F8AC02AD0337
:103A4000D002D003120B34EF700490048BF090047A
:103A50008BE0FF22900455740CF07F0921B890068A
:103A6000DC7401F0A37402F0A37495F0A37406F063
:103A70007B017A0179F912226F90029574C0F0905F
:103A800004547401F0A37402F0A3749B11C190025A
:103A9000A77412F0A37434F0A37456F0A37401F069
:103AA000A3E4F0A37430F031807B017A027995E4CD
:103AB000FD7F1BFE021BD590048CEFF0A3EBF0A35F
:103AC000EAF0A3E9F0A37401F0A3F0E4A3F0A3F0FB
:103AD000A3F0A3F078977C047D017BFF7A0D794EEB
:103AE000FE7F321206289004C97401F0A37404F01A
:103AF000A37497F0900333E030E102C138D16BBF7B
:103B000001037F0622E4900496F0900496E0FFC340
:103B100094125022EF75F00AA424F0F582E4340BDD
:103B2000F583E493FF90048CE0FEEF6E6008900450
:103B300096E004F080D4900496E0C394124002C151
:103B400038E4900493F0900333E030E102C138E4AC
:103B5000900494F09006DC04F0A37404F0A374972E
:103B6000F0A37404F07BFF7A0B79EA12226F9004C1
:103B700096E075F00AA424F1F582E4340BF583E4B1
:103B800093FB740193FA740293F912004E9004951A
:103B9000EFF0A3E075F00AA424F1F582E4340BF50C
:103BA00083E493FB740193FA740293F99006DC7436
:103BB00001F0A37404F0A3749BF0A3EFF012226F42
:103BC000900496E075F00AA424F7F582E4340BF52E
:103BD00083E493FF6028900495E0249BF9E4340487
:103BE000FA9006DC7401F0A3EAF0A3E9F0A3EFF089
:103BF00090048DE0FBA3E0FAA3E0F912226F900499
:103C000096E075F00AA424F7F582E4340BF583E41A
:103C100093FF900495E02F249BF9E43404FA900676
:103C2000DC7401F0A3EAF0A3E9F0A37402F07BFFD7
:103C30007A0B79EE12226F900496E075F00AA424B4
:103C4000F7F582E4340BF583E493FF900495E02FBD
:103C50002406900494F07F011201C853A9FB7F024F
:103C6000D13EE4900492F0900494E0FF900492E03E
:103C7000FEC39F505C74972EF582E43404F583E014
:103C8000FF30D004D2DB8002C2DB8FD9E49004CCB9
:103C9000F0A3F030D904C2D980201200079004CDDF
:103CA000E004F070069004CCE004F0C39004CDE092
:103CB00094D09004CCE0940740D9C39004CDE09414
:103CC000D09004CCE094075008900492E004F08077
:103CD0009643D81053A9FB9004947432F07B017A78
:103CE000047997E0FF900697E4F0A3EFF0E4FD126B
:103CF0002CF4E4900492F0900494E0FF900492E09D
:103D0000C39F5054E49004CCF0A3F09004CCE0FEA8
:103D1000A3E0FFC39440EE941F502C30D819C2D8B2
:103D2000900492E02497F582E43404F583E5D9F019
:103D3000E4900491F080109004CDE004F0700690BF
:103D400004CCE004F080C4C3EF9440EE941F50080C
:103D5000900492E004F0809F900491E0700A900437
:103D600090F09004937403F09004C9E0FBA3E0FA90
:103D7000A3E0F912004E900494EFF0900490E060FC
:103D800002C126900496E075F00AA424F8F582E4B6
:103D9000340BF583E493605BE4900492F090049616
:103DA000E0FF75F00AA424F8F582E4340BF583E40F
:103DB00093FE900492E0FDC39E506BEF75F00AA451
:103DC00024F9F582E4340BF583E4932D2497F582EE
:103DD000E43404F583E0FF90048DE0FBA3E0FAA354
:103DE000E0F98D82758300EF1206D9900492E00409
:103DF000F080AAE4900492F0900492E0FF2497F5FA
:103E000082E43404F583E0FE90048DE0FBA3E0FA45
:103E1000A3E0F98F82758300EE1206D9900492E038
:103E200004F0E0B406D27F04D13E900493E004F0A5
:103E3000E0C3940350026146900490E0FF22900496
:103E4000CEEFF030E202801890FFE3E04420F05320
:103E5000B0DF7F037E00121FB39004CEE030E00A93
:103E600090FFE3E04420F043B0202290014CE07F3B
:103E700001B401027F0022900436EFF0A3EBF0A31F
:103E8000EAF0A3E9F0783B7C047D017BFF7A0C79B2
:103E9000D67E007F3212062890046D7401F09004E3
:103EA00036E0FF7B017A04793B51B7EF702B900429
:103EB00037E0F9A3E0FAA3E09006DCC9F0A3EAF04A
:103EC000A3E9F090043AE09006DFF07B017A0479F0
:103ED0003B12226FE490046DF090046DE0FF22909D
:103EE000043A740CF07F08808E90043A740CF07FD2
:103EF0000A808490042DEBF0A3EAF0A3E9F0783176
:103F00007C047D017BFF7A0D79357E007F051206EA
:103F1000287B017A04793190043A7405F07F11D13D
:103F200077900430EFF070327F0174312FF582E426
:103F30003404F583E0FE64296020EF24FFFDE434BF
:103F4000FFFC90042DE0FBA3E0FAA3E0F98D828C46
:103F500083EE1206D90FEFB405D0900430E0FF22B3
:103F600090042DEBF0A3EAF0A3E9F0E4A3F078319C
:103F70007C047D017BFF7A0D7930FE7F05120628D7
:103F800090042DE0FBA3E0FAA3E0F912004E9004A8
:103F900030EFF0D39403504AA37428F09006DC74F9
:103FA00001F0A37404F0A37432F0900430E09006A2
:103FB000DFF090042DE0FBA3E0FAA3E0F912226FFA
:103FC000900430E0FF2432F582E43404F583742950
:103FD000F07B017A047931EF2402900455F07F10D0
:103FE00021B87F0122C0D075D000C006C007AFA79E
:103FF00075A70075B755AEB675B70075AA0075E818
:104000000075B7558EB675B7008FA7D007D006D00C
:10401000D032C0D075D000C006C007AFA775A700CA
:1040200075B755AEB675B70053A8F753883F75B747
:10403000558EB675B7008FA7D007D006D0D032C046
:10404000E0C0F0C083C082C0D075D000C000C00105
:10405000C002C003C004C005C006C0079003FAE553
:10406000A7F075A70075B7559003F9E5B6F075B7D9
:10407000005388DF758AC0758CE0E5C730E607908D
:104080000333E04402F09002B8E0FCA3E0FDA3E0BB
:10409000FEA3E0FFA312091974FFFFFEFDFC9002CE
:1040A000B8E0F8A3E0F9A3E0FAA3E0FBC31208C666
:1040B0009002B8501EE0FCA3E0FDA3E0FEA3E024C4
:1040C00001FFE43EFEE43DFDE43CFC9002B8120931
:1040D0001980071209250000000075B7559003F9F3
:1040E000E0F5B675B700A3E0F5A7D007D006D00578
:1040F000D004D003D002D001D000D0D0D082D08361
:10410000D0F0D0E032C0D075D000C006C007AFA755
:1041100075A70075B755AEB675B70053A8DF53C87D
:104120003375B7558EB675B7008FA7D007D006D0B8
:10413000D032C0D075D000C006C007AFA775A700A9
:1041400075B755AEB675B70053A8BF53C11F75B745
:10415000558EB675B7008FA7D007D006D0D032C025
:10416000E0C083C082C0D075D000C005C006C007C3
:10417000AFA775A70075B755AEB675B700AD977503
:104180009700ED30E31D90000AE090000930E20551
:10419000E004F0800EE0FD900008E02DF0E004F077
:1041A000A3E4F075B7558EB675B7008FA7D007D0CA
:1041B00006D005D0D0D082D083D0E032C0E0C0831A
:1041C000C082C0D075D000C006C007AFA775A700D9
:1041D00075B755AEB675B70090FFB6E4F090FFB76F
:1041E000F053A9FD75B7558EB6F5B78FA7D007D098
:1041F00006D0D0D082D083D0E032C0D075D000C0FD
:1042000006C007AFA775A70075B755AEB675B7005E
:1042100053A9DF75C60075B7558EB675B7008FA761
:10422000D007D006D0D032C0E0C083C082C0D075E5
:10423000D000C004C006C007ACA775A70075B7556D
:10424000AEB675B70090FFD0E054FCF053A9FD75F1
:10425000B755AF068FB675B700AF048FA7D007D09C
:1042600006D004D0D0D082D083D0E03278147C0441
:104270007D017BFF7A0D79087E007F14120628E409
:1042800090042BF0A374FFF07B017A047914E4FF0F
:10429000123AB790042CEFF0BF01037FFF22900485
:1042A0002CE0B406037F03229004287401F0A37469
:1042B00004F0A37414F0E4A3F090042BE0FFC39483
:1042C00006503DEF25E024B2F582E43409F583E0A1
:1042D000FEA3E0AA06F97BFFC003C002900428E019
:1042E000FBA3E0FAA3E0F8AC02AD03D002D00312C6
:1042F0000B34EF700300800890042BE004F080B9C9
:1043000090042BE0FFC394065003A3EFF090042C1D
:10431000E0FF229009FC7401F0229009F8E4F0908B
:1043200009F9E4F090FFE8E0FFEF4480FF90FFE838
:10433000EFF090FFE8E0FFEF54BFFF90FFE8EFF0F1
:1043400053EC7F9009F9E4F09009F9E0FFEFC39492
:1043500008503371139009F8E0FFEF25E0FF900952
:10436000F8EFF043EC80E5EC30E60E9009F8E0FF62
:10437000EF4401FF9009F8EFF0711353EC7F9009BF
:10438000F9E004F080C290FFE8E0FFEF4440FF90C6
:10439000FFE8EFF043EC4043EC8012263D53EC7F06
:1043A0009009F8E0FF229009F6E4F09009F774080C
:1043B000F090FFE8E0FFEF4480FF90FFE8EFF0901F
:1043C000FFE8E0FFEF54BFFF90FFE8EFF053EC7F12
:1043D0009009F7E4F09009F7E0FFEFC39408503D2F
:1043E00071139009F6E0FFEF25E0FF9009F6EFF07A
:1043F00043EC80E5EC30E60E9009F6E0FFEF440177
:10440000FF9009F6EFF071139009F6E0FF9009F6BE
:10441000EFF053EC7F9009F7E004F080B890FFE8EC
:10442000E0FFEF4440FF90FFE8EFF053ECBF43ECB8
:104430008012263D53EC7F43EC409009F6E0FF22CA
:1044400090FF84E0FFEF54FFFF90FF84EFF090FFB8
:1044500085E0FFEF54FEFF90FF85EFF090FFE9E06D
:10446000FFEF4401FF90FFE9EFF053EDFE229009CA
:10447000DE740EF09009D9EEF0A3EFF09009DBEBBB
:10448000F0A3EAF0A3E9F09009D9E0FEA3E0FF90E1
:1044900009DFEEF0A3EFF09009D9E0FEA3E0FFEF13
:1044A0005407FFC374089FFF9009E1EFF09009E201
:1044B000E4F09009E1E0FF9009DEE0FEEEC39F50DA
:1044C0000A9009DEE0FF9009E1EFF09009DFE0FEDD
:1044D000A3E0FF9009DBE0FBA3E0FAA3E0F9900979
:1044E000E2E0FD7C00E92DF9EA3CFA9009E1E0FD0B
:1044F0009009C7EDF0122430EFB401037F01229040
:1045000009E1E0FF9009E2E02FF09009E2E0FF7E90
:10451000009009D9E0FCA3E0FDEF2DFFEE3CFE90FA
:1045200009DFEEF0A3EFF09009E2E0FF9009DEE092
:10453000FEC3EE9FFF9009E1EFF09009E1E0FFEF8D
:10454000D3940840069009E17408F09009E1E0FF77
:10455000EF600281CB7F00229009E3EEF0A3EFF041
:104560009009E5EDF09009E6EBF0C2AF9009E5E0C7
:10457000FF8FEF9009E3E0FEA3E0FFEF54FFF5EEBD
:104580009009E3E0FEA3E0FFEEFF7E008FF775A742
:104590000175F26E75F30575F40A75F5099009E673
:1045A000E0FFEFB4680775F6060000000075A7008D
:1045B00075F700D2AF2290068EEEF0A3EFF0A3EBDA
:1045C000F0A3EAF0A3E9F075E75575C7840000E5AC
:1045D000C730E6037FFF22900341E0646860037FF9
:1045E000FF22900693E0FEA3E0FF90068FE02FFFEE
:1045F00090068EE03EFED3EF9400EE941040037FD1
:10460000FF22D3900694E09400900693E09400403B
:1046100045900690E0FBA3E0FAA3E0F912064EFCF9
:1046200090068EE0FEA3E0FFAD047B68B1589006D3
:104630008FE004F0700690068EE004F0900691E49E
:1046400075F001120762900694E024FFF090069343
:10465000E034FFF080AC7F00228F828E83E4FFED98
:10466000B4680DC2AF75A701E493FFE4F5A7D2AF1C
:1046700022900341E04420F07B017A04798E90047B
:104680008AE0FCA3E0FD9006937402F0A3E4F090AE
:104690000691ECF0A3EDF075E75575C7840000E5D1
:1046A000C730E6037FFF22900693E0FEA3E0FF9071
:1046B0000692E02FFF900691E03EFED3EF9400EECD
:1046C000941040037FFF22D3900694E0940090065C
:1046D00093E094004035900691E0FEA3E0FF7D68F2
:1046E000D159EF1206C7740129F9E43AFA900692FB
:1046F000E004F07006900691E004F0900694E02447
:10470000FFF0900693E034FFF080BC7F0022E0FED3
:10471000A3E0FF7B68E4FD9009E7EEF0A3EFF090E3
:1047200009E9EDF09009EAEBF075E75575C78400EB
:1047300000E5C720E655900341E0FFEF6468704B49
:10474000C2AF9009E9E0FF8FEF9009E7E0FEA3E038
:10475000FFEF54FFF5EE9009E7E0FEA3E0FFEEFF68
:104760007E008FF775A70175F2E675F30575F40AFB
:1047700075F5099009EAE0FFEFB4680775F60600E1
:1047800000000075A70075F700D2AF2290FFE5E0AA
:1047900054FBF090FFF5E04404F022F18CE5E920B1
:1047A000E2299002B0E004F070069002AFE004F05D
:1047B000C39002B0E094FA9002AFE09400401AE493
:1047C000F0A3F090033DE04401F022E49002AFF04A
:1047D000A3F090033DE054FEF02290FFE2E054FB92
:1047E000F090FFF2E04404F022F1DA90033EE03072
:1047F000E216E5A030E203024889E04401F0E0540B
:10480000FBF0E4900264F02290033EE030E061E5CA
:10481000A020E26A900264E004F0E0FF7408D39FF5
:10482000506790033EE04402F0E054FEF0E4900252
:1048300064F090033CE04408F09002601209250007
:1048400000003C900258741EF0900265E0700B90DE
:10485000026CF09002657468F02290026CE004F043
:10486000900217E0FF90026CE0C39F401CE4F0222E
:1048700090033EE030E107E5A030E20D8000E490D7
:104880000264F090033E7404F022EF14602104707F
:104890002411F77FFF11B643D18090FFE1E0440877
:1048A000F05390F790FFE9E04402F053EDFD221140
:1048B000F7E4FF11B622E4FE746D2EF582E43402B3
:1048C000F583EFF00EEEB428EF7F007E25E4FD7453
:1048D0006D2DF582E43402F583E0FCEF2DF582E4E2
:1048E0003EF583ECF0746D2DF582E43402F583E43B
:1048F000F00DEDB428D92253D17F311B90FF807485
:10490000F0F090FF817403F090FF8274FEF090FF4E
:10491000837401F090FF8574FCF022E5D15470643B
:1049200030600653D18F43D130E5D154076407601E
:104930000653D1F843D107E5D25407640260065309
:10494000D2F843D202225380FD0000438004224368
:10495000800200005380FB225380FD005380FB2225
:104960009002B3E0600FE014F0E0FF7E00BE0207AB
:10497000BF400480003158229004A7E0FD9004B0AD
:10498000EDF0E4FF7E08EF25E0FFEE7C0024FFF56C
:1049900082EC34FFF583120667FD9004B0E05D60A1
:1049A000010FDEE2229004A3EBF0A3EAF0A3E9F00A
:1049B0009004A77440F0E49004A6F09004A6E0FFF1
:1049C000C394085036EFB40404A37480F09004A399
:1049D000E0FBA3E0FAA3E0F931789004A6E024A874
:1049E000F582E43404F583EFF09004A7E0FF13139D
:1049F000543FF09004A6E004F080C09004A3E0F9D6
:104A0000A3E0FAA3E09006DCC9F0A3EAF0A3E9F082
:104A1000A37408F07B017A0479A802226F9004B98C
:104A200074FFF0A3740FF0A374EBF0A374FFF0A372
:104A30007410F0A37423F0A37407F09004B6EBF0A5
:104A4000A3EAF0A3E9F0E4F5209004C004F0900498
:104A5000BFE075F008A42401FFE435F0FEA3E0FDFB
:104A6000C39FEE6480F8748098507DE52025E0F5C2
:104A700020EDFF7E0024FFFDEE34FFFC9004B9E042
:104A8000FBA3E0FAA3E0F98D828C83120667FD9008
:104A900004B6E0FBA3E0FAA3E0F98D82758300126F
:104AA0000667FDEF24FFFFEE34FFFE9004BCE0FB41
:104AB000A3E0FAA3E0F98F828E831206675D60029D
:104AC00005209004C0E0FF54077015EF1313135432
:104AD0001F24C0F582E43404F583E520F0E4F520DA
:104AE0009004C0E004F0414E9004B6E0F9A3E0FA6F
:104AF000A3E09006DCC9F0A3EAF0A3E9F09004BFBC
:104B0000E09006DFF07B017A0479C102226F900405
:104B1000A3EBF0A3EAF0A3E9F02404F9E43AFA9055
:104B200006DC7401F0A37404F0A374AAF0A3740467
:104B3000F012226F9004B974FFF0A37410F0A37404
:104B4000FBF0A374FFF0A37410F0A374CBF0A37474
:104B500006F07B017A0479AA513BE49004A9F09015
:104B600004A9E0FF24AAF582E43404F583C083C0DD
:104B700082E0FE9004A6E0FBA3E0FAA3E0F98F82B6
:104B8000758300120667FFEE6FD082D083F0900429
:104B9000A9E004F0E0B406C7E49004A9F09004A9E9
:104BA000E0FFC39402400281C5E0FE75F003A42437
:104BB000AAF582E43404F583E0FDC45430FCEE75BC
:104BC000F003A424ABF582E43404F583E0C4540F6D
:104BD0004CF520ED1313543FFE9004A9E0FD75F051
:104BE00000A4246BF582E5F03411F583ED2583F5FF
:104BF00083E5822EF582E43583F583E493FE75F038
:104C000000EDA424ABF582E5F03411F583ED2583A6
:104C1000F583E5822520F582E43583F583E493FD71
:104C2000EE4DFE9004A9E0FD25E024B2F582E434C7
:104C300004F583EEF0ED75F003A424ABF582E434C3
:104C400004F583E025E025E0543FFEED75F003A474
:104C500024ACF582E43404F583E0FDC4131354035B
:104C60004EF520ED543FFE9004A9E0FD75F000A440
:104C7000242BF582E5F03412F583ED2583F583E5E9
:104C8000822EF582E43583F583E493FE75F000ED22
:104C9000A424EBF582E5F03411F583ED2583F5834B
:104CA000E5822520F582E43583F583E4934EFEEF1B
:104CB00025E024B3F582E43404F583EEF09004A9F2
:104CC000E004F0619D9004B974FFF0A37411F0A3A7
:104CD000744BF0A374FFF0A37411F0A3742BF0A332
:104CE0007404F07B017A0479B2513BE49004A9F09A
:104CF0009004A9E0FFC39404505B7E00EF2404FD00
:104D0000EE33FC9004A3E0FBA3E0FAA3E0F98D826C
:104D10008C83120667F5209004A9E0FDF582758367
:104D200000120667FC74B22DF582E43404F583E0CA
:104D30006CFD74042FF582E433F583ED1206D990EF
:104D400004A9E0F582758300E5201206D99004A934
:104D5000E004F0809B229004A3EBF0A3EAF0A3E927
:104D6000F0A3EDF012064E9004A7F0900001120699
:104D7000679004A8F09000021206679004A9F090D2
:104D8000000312066754F09004AAF0BD02339004A9
:104D9000A7E0FCA3E0FDA3E0FEA3E0FF780112087A
:104DA000EA9004A71209199004A3E0FBA3E0FAA378
:104DB000E0F912064E30E7449004AAE04410F08077
:104DC0003B9004A7E0FCA3E0FDA3E0FEA3E0FF7896
:104DD000011208D79004A71209199004AAE054F010
:104DE000F09004A3E0FBA3E0FAA3E0F99000031223
:104DF000066730E4079004A7E04480F09004A3E045
:104E0000FBA3E0FAA3E0F9900003120667540F90A9
:104E100004ABF09000041206679004ACF09000051B
:104E20001206679004ADF09000061206679004AE7B
:104E3000F09004A6E06402703D9004ABE0FCA3E0B7
:104E4000FDA3E0FEA3E0FF78011208EA9004AB1294
:104E500009199004ABE0540FF09004A3E0FBA3E029
:104E6000FAA3E0F990000312066730E33D9004AE28
:104E7000E04401F080349004ABE0FCA3E0FDA3E04B
:104E8000FEA3E0FF78011208D79004AB1209199035
:104E900004A3E0FBA3E0FAA3E0F990000612066782
:104EA00030E0079004ABE04408F09004AAE0FFA3D0
:104EB000E0FEEF4E9004AAF09004ACE09004ABF05A
:104EC0009004ADE09004ACF09004AEE09004ADF03E
:104ED0009004A3E0F9A3E0FAA3E09006DCC9F0A3F4
:104EE000EAF0A3E9F0A37407F07B017A0479A70242
:024EF000226F2F
:10800000EF14602104703BE5876003E4F587539823
:10801000F74398C0E4FF11D69004CEE599F0539849
:10802000EC43A81022E5876003E4F58753D8F343B7
:10803000D8C07F0111D69004CEE5D9F053D8EC43D7
:10804000A90422EF14605104600201D5E5876003A2
:10805000E4F587E598440860035398F7E59854C021
:1080600064C060034398C090FFE2E054BFF090FF0B
:10807000F2E054BFF090FFE2E04480F043A080E4DF
:10808000FF11D6E4FF12019190041AE599F053987C
:10809000FC43981043A81022E5876003E4F587535A
:1080A000D8F343D8C090FFE3E054FEF090FFF3E034
:1080B00054FEF090FFE3E04402F043B0027F011170
:1080C000D67F0112019190041AE5D9F053D8FC43F0
:1080D000D81043A90422EF14602C04704CE59D6471
:1080E000CC6003759DCCE59C647F6003759C7FE547
:1080F0009E540F64016006539EF0439E01E59C2050
:10810000E727439C8022E5DD64F3600375DDF3E53A
:10811000DC647F600375DC7FE59E54F06003539E52
:108120000FE5DC20E70343DC8022E4FF11437F01FD
:1081300011437F0211437F030143E4F5B1F5A8F534
:10814000A9D1BF12AC1512AC6151C2D1BA12AF4560
:10815000128E65312A315CD2AF7F0022E490041C7C
:10816000F07FAAD107759560E4F596F59753A9FEBF
:1081700043B480900443120925000000E87F335186
:108180006A7F057E00121FB3900443120925000088
:108190000C847F32516AE490041CF090041CE0FED1
:1081A00075F005A424B9F582E43419F583E493FF4E
:1081B000C007EE75F005A424BAF582E43419F583FE
:1081C000120909900443120919D007516A90041C3E
:1081D000E004F0E0C3942040C27B017A097971E4A5
:1081E000FD7F06FE12202CE490041CF090041CE09D
:1081F000FE75F005A42459F582E4341AF583E4935E
:10820000FFC007EE25E025E02471F582E43409F58E
:1082100083E0FCA3E0FDA3E0FEA3E0FF9004431293
:108220000919D007516A90041CE004F0E0C39405DA
:1082300040BA7F647E00121FB390044312092500E8
:108240000000357F30516A7F55D1079004431209F1
:108250002500A000C17F31516A7FF47E01121FB357
:10826000E4F59775960843A90122900442EFF0A324
:10827000E0FCA3E0FDA3E0FEA3E0FFA3120919E4E4
:10828000F5917F06FE123244C2AF900448E0F592A9
:10829000A3E0F593A3E0F5940000000000000000C7
:1082A00000000000000000000000000000000000CE
:1082B000900442E04480F5917F067E00123244D261
:1082C000AF227B017A037933900697E4F0A3740F11
:1082D000F0E4FD122CF47B017A0279B8900697E461
:1082E000F0A3743AF0E4FD122CF47B017A027914C5
:1082F000900697E4F0A37481F0E4FD122CF47B0166
:108300007A03799C900697E4F0A37410F0E4FD12D0
:108310002CF47B017A007908900697E4F0A37408A6
:10832000F0E4FD122CF47B017A007900900697E4CA
:10833000F0A37408F0E4FD122CF47B017A0279F2C8
:10834000900697E4F0A3740AF0E4FD122CF47B018C
:108350007A0279FC900697E4F0A37429F0E4FD1208
:108360002CF47B017A0279AF900697E4F0A37409AC
:10837000F0E4FD122CF49003407401F012AB3212C1
:10838000B09B129F6E12A63E12AF8412A30412A1DC
:10839000FAE49008D2F0900339E054FBF0E4900244
:1083A00067F0900333E04401F090033CE04403F0B5
:1083B000900214E0FF7E007C037DE81206FB7C0146
:1083C0007DF412070DE4FCFD900260120919900380
:1083D0003E7404F0900214E0900258F0900259F0BC
:1083E0007B017A037936E4FD7F0FFE12202CEF60CB
:1083F00005E4900336F0900336E030E60790033949
:10840000E04420F0E490048AF0A3F07B017A047940
:1084100071FD7F11FE12202C900336E030E56D7B5C
:10842000017A0479811234D69004901209199004CB
:1084300090E0FCA3E0FDA3E0FEA3E0FFEC4D4E4F77
:10844000603790048CE0F8A3E0F9A3E0FAA3E0FB26
:10845000C31208C6400F90048A7401F0900336E0FE
:1084600030E4298021E490048AF0A3F0900336E000
:1084700054DFF0E054EFF0801390048A7401F09020
:108480000336E030E40690048B7401F07B017A043B
:1084900079711234D6900490120919900490E0FC7E
:1084A000A3E0FDA3E0FEA3E0FF90048CE0F8A3E0CE
:1084B000F9A3E0FAA3E0FBC31208C65002A1C490DE
:1084C000033AE04401F07B017A0479751234E490B8
:1084D000048C120919900490E0FCA3E0FDA3E0FED7
:1084E000A3E0FF90048CE0F8A3E0F9A3E0FAA3E096
:1084F000FBC31208C65002A1BB90033AE020E1047E
:10850000E04402F0E4FFFEFDFC900490E0F8A3E0FC
:10851000F9A3E0FAA3E0FBC31208C66002A1A5908C
:10852000033AE020E204E04404F07B017A0379940A
:108530001234E490048C120919E4FFFEFDFC90044F
:108540008CE0F8A3E0F9A3E0FAA3E0FBC31208C6AD
:10855000600D90033AE020E30DE04408F0800790BE
:10856000033AE054F7F07B017A04797D1234E49009
:108570000490120919900490E0FCA3E0FDA3E0FE32
:10858000A3E0FF90048CE0F8A3E0F9A3E0FAA3E0F5
:10859000FBC31208C6900336E040054420F0803249
:1085A00054DFF0802D90033AE054F7F0900336E06A
:1085B00054DFF090033AE054FB800F90033AE0540C
:1085C000E1F0800E90033AE054E0F0900336E0547E
:1085D000EFF090048AE0B40107900336E04420F005
:1085E00090048BE0B40107900336E04410F0900350
:1085F00036E030E504E04410F07B017A037936E49C
:10860000FD7F0FFE021BD5EFB4550443958022E495
:10861000F595F596F59753A9FE22900440EFF0C02A
:108620000790043CE0FCA3E0FDA3E0FEA3E0FF9084
:108630000443120919D007516A900440E0B4361877
:1086400090043CE0FCA3E0FDA3E0FEA3E0FF900467
:10865000431209197F36516AE4900441F0900441B5
:10866000E0FFC394055052EF75F005A42459F5823C
:10867000E4341AF583E493FF900440E0FEEFB5067E
:108680003090043CE0FCA3E0FDA3E0FEA3E0FF90FB
:108690000441E025E025E02471F582E43409F58306
:1086A0001209197B017A097971E4FD7F06FE021B2C
:1086B000D5900441E004F080A422E4FF02488A53EC
:1086C000A9DF75E755E4F5C675E755F5C775E755B4
:1086D00075C78475E75575B30175E755F5B412B0E4
:1086E00080BF010312AC0FE5C730E6037F012253C0
:1086F000A9DF7F0022900333E030E14EF156900372
:1087000033E030E20A12B318900333E054FBF0E494
:10871000900413F07F0A7E00121FB312B080BF01D5
:1087200009900333E04402F0F164E4F5B1900413DE
:10873000E004F0E0C3940A40DB900333E020E1085A
:10874000E054FDF0E04401F0313A900333E020E2E0
:1087500004E04404F02212B36912B378128E607FF1
:108760000102488AF175F15612B36612B2F712B3DC
:108770006712B3682290FFE0E054FDF0E054FBF094
:10878000E054F7F0E0547FF090FFF0E054FDF0E0AB
:1087900054FBF0E054F7F0E0547FF05380FD538039
:1087A000FB5380F753807F90FF88E054FDF0E05446
:1087B000FBF0E054F7F0E0547FF090FF8BE054FDC5
:1087C000F0E054FBF0E054F7F0E0547FF090FF8EBF
:1087D000E054FDF0E054FBF0E054F7F0E0547FF09B
:1087E00090FFFAE054FDF0E054FBF0E054F7F0E0C5
:1087F000547FF090FFE1E054FEF0E054F7F0E054D5
:10880000EFF090FFF1E054FEF0E054F7F0E054EFA9
:10881000F05390FE5390F75390EF90FFE2E054FB3B
:10882000F0E054BFF0E0547FF090FFF2E054FBF032
:10883000E054BFF0E0547FF053A0FB53A0BF53A01F
:108840007F90FF89E054FBF0E054BFF0E0547FF0EC
:1088500090FF8DE054FBF0E054BFF0E0547FF090C7
:10886000FF8FE054FBF0E054BFF0E0547FF090FF46
:10887000FBE054FBF0E054BFF0E0547FF090FFE3E6
:10888000E054FEF0E054FDF0E054EFF0E054DFF08F
:10889000E054BFF090FFF3E054FEF0E054FDF0E050
:1088A00054EFF0E054DFF0E054BFF053B0FE53B0AB
:1088B000FD43B01053B0DF53B0BF90FF8AE054FEC9
:1088C000F0E054FDF0E054EFF0E054DFF0E054BF8E
:1088D000F090FFE4E054EFF0E054DFF0E054BFF03C
:1088E000E0547FF090FFF4E054EFF0E054DFF0E06C
:1088F00054BFF0E0547FF053C0EF53C0DF53C0BF0C
:1089000053C07F90FFE5E054FEF0E054FDF0E054EA
:10891000FBF0E054F7F0E054EFF0E054DFF0E05407
:10892000BFF0E0547FF090FFF5E054FEF0E054FD1E
:10893000F0E054FBF0E054F7F0E054EFF0E054DFE7
:10894000F0E054BFF0E0547FF053E9FE53E9FD53EB
:10895000E9FB53E9F753E9EF53E9DF53E9BF53E983
:108960007F90FFE6E054FDF0E054FBF0E054F7F0B8
:10897000E054EFF0E054DFF0E054BFF0E0547FF05B
:1089800090FFF6E054FDF0E054FBF0E054F7F0E027
:1089900054EFF0E054DFF0E054BFF0E0547FF053C8
:1089A000EAFD53EAFB53EAF753EAEF53EADF53EAEF
:1089B000BF53EA7F90FFE7E054FEF0E054FDF0E0A3
:1089C00054DFF090FFF7E054FEF0E054FDF0E05487
:1089D000DFF053EBFE53EBFD53EBDF90FFE8E05489
:1089E000BFF0E0547FF090FFF8E054BFF0E0547F18
:1089F000F053ECBF53EC7F90FFE9E054FEF0E054FD
:108A0000FDF0E054FBF0E054F7F0E054EFF0E054F8
:108A1000DFF0E054BFF0E0547FF090FFF9E054FE47
:108A2000F0E054FDF0E054FBF0E054F7F0E054EFD8
:108A3000F0E054DFF0E054BFF0E0547FF053EDFE7F
:108A400053EDFD53EDFB53EDF753EDEF53EDDF53D6
:108A5000EDBF53ED7F22782D7C047D017BFF7A00F2
:108A600079EC7E007F0712062812952A7B017A0195
:108A700079F9E4FD7F10FE12202CEF604D7B017A26
:108A80000179F9900697E4F0A3741BF0E4FD122C31
:108A9000F49001FE7401F0900204F090020AF0904C
:108AA000020DF0900210F0A374FFF07B017A0179BF
:108AB000F9E4FD7F10FE121BD5123A5E7B017A01AC
:108AC00079F9E4FD7F10FE121BD57B017A03799CB6
:108AD000900697E4F0A37410F0E4FD122CF49003D8
:108AE0009C7403F0A37410F07B017A03799CE4FD7D
:108AF0007F0AFE121BD59002147405F0A3F0A37434
:108B000007F0A3F07B017A027914E4FD7F19FE12CD
:108B10001BD57B017A02791A900697E4F0A3743E84
:108B2000F0E4FD122CF49006DC7401F0A37402F062
:108B3000A3741AF0A37407F07B017A04792D122232
:108B40006F9006DC7401F0A37402F0A37438F0A3F4
:108B50007407F07B017A04792D12226F7B017A026F
:108B6000791AE4FD7F1AFE121BD57B017A03792561
:108B7000900697E4F0A3740EF0E4FD122CF4900339
:108B8000277450F07B017A037925E4FD7F04FE12FF
:108B90001BD57B017A0379AC900697E4F0A3741996
:108BA000F0E4FD122CF49003AE7420F09003B27444
:108BB00010F07B017A0379ACE4FD7F11FE121BD526
:108BC0007B017A047934900697E4F0A37409F0E409
:108BD000FD122CF47B017A047934E4FD7F12FE123D
:108BE0001BD57B017A0279B5900697E4F0A3740354
