:020000040000FA
:09000000020F5C023FE5222222FE
:0F000B0002403FEF240A83900100730A2D5073C7
:03001B000240128E
:03002300022A0CA2
:03002B000241058A
:0300330002413255
:03003B0002415F20
:030043000241BCBB
:10004B00022B64E4FFFE12064E600C0FEF70010EE4
:10005B0009E970F20A80EF220241FAE4FF121EB0A6
:06006B00123980021F00A3
:100073000242279009BB1208FD7810EC4D4E4F70D9
:10008300047CA57DA5C3EC13FCED13FDEE13FEEF7D
:1000930013FF5010EC64CCFCED644CFDEE644EFE9B
:1000A300EF64CEFFD8DF9009BB120919EE547FFE2F
:1000B300229009BBEEF0EFA3F0A374A5F0A3F02206
:1000C300300100000C0333020012300004002C3412
:1000D3000006000E1D0008000C1E000A000C0002A2
:1000E300060A0E05020404040401020A0B090304B0
:0700F30001020A0B090304DE
:10010000C0087401C0E0C082C08375080AC0F085D1
:10011000A8F0C2AF75B75575B61175B70085F0A8D0
:10012000D0F022C0087401C0E0C082C08375082DE1
:10013000C0F085A8F0C2AF75B75575B61175B70098
:1001400085F0A8D0F022C0087401C0E0C082C0834E
:10015000750850C0F085A8F0C2AF75B75575B622C6
:1001600075B70085F0A8D0F022C0087401C0E0C0C7
:1001700082C083750873C0F085A8F0C2AF75B7550B
:1001800075B63375B70085F0A8D0F02290800021B5
:100190004690829821469083A421469085F221467C
:1001A0009085D82146908E57214690989721469069
:1001B000D2542146909FBF212390813A212390ADB4
:1001C000A4212390804321239080002123908A56EC
:1001D000212390952A21239086F52123909FB221F7
:1001E000239097472123908C63212390840421231B
:1001F000908F3E212390B9AC212300020543E8648F
:1002000080F8E933E83360110460F0ED33EC3370CB
:1002100009E8FCE9FDEAFEEBFF220460DED3EB9F78
:10022000EA9EE99DE8C2E78CF0C2F795F0400CE841
:10023000CCF8E9CDF9EACEFAEBCFFB12050E85D06A
:10024000F05804700320D5B3E80470075002B2D50B
:1002500002054D92D5EC0460F7E4CCC0E0C398F8F9
:10026000603B94186008400DD0E0FB020525E4FBDC
:10027000FAC9FC8028E830E406E4C9FBE4CAFCE8DB
:1002800030E305E4C9CACBFCE854076010F8C3E9C1
:1002900013F9EA13FAEB13FBEC13FCD8F130F52F4A
:1002A000C3E49CFCEF9BFFEE9AFEED99FDD0E0FBD2
:1002B000EF4E4D4C701222DB0302054AEC2CFCEF92
:1002C00033FFEE33FEED33FDED30E7EB020525EFB6
:1002D0002BFFEE3AFEED39FDD0E0FB50130BBB00D7
:1002E0000302054DED13FDEE13FEEF13FFEC13FCBF
:1002F000020525EC4D6011E8497017ED33EC33042D
:10030000600DE4FCFFFEFD22E933E8330470F802DF
:10031000054312050E58046009E4CC2481500628D8
:10032000500902054D28400302054AC0E0EB4A701F
:1003300044B98006D0E0FB020539EF4E701CBD8049
:1003400008EBFFEAFEE9FD80EBE98DF0A4FEE5F0A5
:100350000203DCE9CDF9EAFEEBFFEF89F0A4FCE54E
:10036000F0CE89F0A42EFFE435F0CD89F0A42DFE67
:10037000E435F08067EF4E7005BD80D780C3EF8B0A
:10038000F0A4ACF0EE8BF0A42CFCE435F0F8EF8A8E
:10039000F0A42CE5F038FCE433CB8DF0A42CFCE584
:1003A000F03BF8EE8AF0A42CFCE5F038F8E433CF0B
:1003B00089F0A42CFCE5F038CF3400CE89F0A42FCE
:1003C000FFE5F03EFEE433C98DF0A42EFEE5F039E2
:1003D000CD8AF0A42FFFE5F03EFEE43DFD33D0E0F2
:1003E000FB50070BBB000F02054DEC2CFCEF33FF5D
:1003F000EE33FEED33FD02052502054DEC5D046094
:1004000005E85904700302054312050E580460F60E
:10041000EC4860F2EC7004FDFEFF22C860DB248132
:10042000C85009C3986002500602054A9850CAF5A0
:1004300082E9294B4A7005AB8202053975F0007CD0
:100440001A7880C3EF9BEE9AED99400DC3EF9BFFA6
:10045000EE9AFEED99FDE842F0DC23ACF0D0E0FF2F
:10046000D0E0FED0E0FDAB8220E7101BEB60BAECE1
:100470002CFCEF33FFEE33FEED33FD020525E803E0
:10048000F830E705C0F075F000EF2FFFEE33FEED1A
:1004900033FD40B830E7C280AA75F020800E75F0B9
:1004A00010800575F0087D007E007F003392D53006
:1004B000D5031208B8EC334010EF33FFEE33FEEDF6
:1004C00033FDEC33FCD5F0ED22E5F0247EA2D5130C
:1004D000CC92E7CDCEFF22EDD2E7CD33EC3392D5EF
:1004E00024814006E4FFFEFDFC22FCE4CFCECDCC0F
:1004F00024E0501174FF80EDC3CC13CCCD13CDCECE
:1005000013CECF13CF0470F030D5DE0208B8E9D295
:10051000E7C933E833F892D5EDD2E7CD33EC33FCBD
:100520005002B2D522EC30E7100FBF000C0EBE0017
:10053000080DBD00040BEB6014A2D5EB13FCED928B
:10054000E7FD2274FFFCFDFEFF22E480F8A2D574D3
:10055000FF13FC7D80E480EFE709F608DFFA8046B0
:10056000E709F208DFFA803E88828C83E709F0A36E
:10057000DFFA8032E309F608DFFA8078E309F2084F
:10058000DFFA807088828C83E309F0A3DFFA80644D
:1005900089828A83E0A3F608DFFA805889828A83F9
:1005A000E0A3F208DFFA804C80D280FA80C680D4C3
:1005B000806980F28033801080A680EA809A80A8CB
:1005C00080DA80E280CA803389828A83ECFAE493FD
:1005D000A3C8C582C8CCC583CCF0A3C8C582C8CC8B
:1005E000C583CCDFE9DEE7800D89828A83E493A3AB
:1005F000F608DFF9ECFAA9F0EDFB2289828A83EC98
:10060000FAE0A3C8C582C8CCC583CCF0A3C8C58214
:10061000C8CCC583CCDFEADEE880DB89828A83E44C
:1006200093A3F208DFF980CC88F0EF60010E4E60F2
:10063000C388F0ED2402B4040050B9F582EB240223
:10064000B4040050AF23234582239005A873BB0157
:100650000689828A83E0225002E722BBFE02E3225F
:1006600089828A83E49322BB010CE58229F582E525
:10067000833AF583E0225006E92582F8E622BBFEA4
:1006800006E92582F8E222E58229F582E5833AF53A
:1006900083E49322BB010FF8E58229F582E5833AD2
:1006A000F583E028F0225009C58229F8E58226F674
:1006B00022BBFE09C58229F8E22582F222F8EA254A
:1006C00083F583E9932822BB010689828A83F0227D
:1006D0005002F722BBFE01F322F8BB010DE582298F
:1006E000F582E5833AF583E8F0225006E92582C8D1
:1006F000F622BBFE05E92582C8F222EF8DF0A4A800
:10070000F0CF8CF0A428CE8DF0A42EFE22BC000BDE
:10071000BE0029EF8DF084FFADF022E4CCF875F037
:1007200008EF2FFFEE33FEEC33FCEE9DEC98400516
:10073000FCEE9DFE0FD5F0E9E4CEFD22EDF8F5F0DC
:10074000EE8420D21CFEADF075F008EF2FFFED33E4
:10075000FD4007985006D5F0F222C398FD0FD5F062
:10076000EA22C5F0F8A3E028F0C5F0F8E58215828A
:1007700070021583E038F022A3F8E0C5F025F0F010
:10078000E582158270021583E0C838F0E822E88F10
:10079000F0A4CC8BF0A42CFCE98EF0A42CFC8AF005
:1007A000EDA42CFCEA8EF0A4CDA8F08BF0A42DCC07
:1007B0003825F0FDE98FF0A42CCD35F0FCEB8EF060
:1007C000A4FEA9F0EB8FF0A4CFC5F02ECD39FEE446
:1007D0003CFCEAA42DCE35F0FDE43CFC2275F0088B
:1007E000758200EF2FFFEE33FECD33CDCC33CCC579
:1007F0008233C5829BED9AEC99E58298400CF58294
:10080000EE9BFEED9AFDEC99FC0FD5F0D6E4CEFB05
:10081000E4CDFAE4CCF9A88222B800C1B90059BAF3
:10082000002DEC8BF084CFCECDFCE5F0CBF9781821
:10083000EF2FFFEE33FEED33FDEC33FCEB33FB101B
:10084000D703994004EB99FB0FD8E5E4F9FA227835
:1008500018EF2FFFEE33FEED33FDEC33FCC933C947
:1008600010D7059BE99A4007EC9BFCE99AF90FD851
:10087000E0E4C9FAE4CCFB2275F010EF2FFFEE3371
:10088000FEED33FDCC33CCC833C810D7079BEC9AB0
:10089000E899400AED9BFDEC9AFCE899F80FD5F039
:1008A000DAE4CDFBE4CCFAE4C8F922CFF4CFCEF4FD
:1008B000CECDF4CDCCF4CC22C3E49FFFE49EFEE485
:1008C0009DFDE49CFC22EB9FF5F0EA9E42F0E99D41
:1008D00042F0E89C45F022E8600FECC313FCED13F6
:1008E000FDEE13FEEF13FFD8F122E8600FEFC333E4
:1008F000FFEE33FEED33FDEC33FCD8F122E0FCA338
:10090000E0FDA3E0FEA3E0FF22E493FC740193FD6D
:10091000740293FE740393FF22ECF0A3EDF0A3EEB8
:10092000F0A3EFF022A8828583F0D083D082120951
:100930003C12093C12093C12093CE473E493A3C540
:1009400083C5F0C583C8C582C8F0A3C583C5F0C5FB
:1009500083C8C582C822D083D082F8E49370127411
:100960000193700DA3A393F8740193F5828883E437
:10097000737402936860EFA3A3A380DFD083D08257
:10098000E4937012740193700DA3A393F874019310
:10099000F5828883E4737402936C70127403936D10
:1009A000700C7404936E70067405936F60DDA3A3DE
:1009B000A3A3A3A380CAE3F5F009E208B5F06D6034
:1009C0006B80F3E3F5F009E608B5F060605E80F354
:1009D00087F009E608B5F054605280F487F009E228
:1009E00008B5F048604680F488828C8387F009E07F
:1009F000A3B5F038603680F488828C8387F009E4F0
:100A000093A3B5F027602580F388828C83E3F5F00B
:100A100009E0A3B5F016601480F388828C83E3F5B7
:100A2000F009E493A3B5F004600280F2020AE180C9
:100A30008580E7808E80D2803C8015806C807E80AF
:100A40009B80B5808B80A1804F8070803A020AED38
:100A500089828A83ECFAE493F5F0A3C8C582C8CCF6
:100A6000C583CCE493A3C8C582C8CCC583CCB5F0FC
:100A700070606E80E189828A83E493F5F0A3E208D6
:100A8000B5F05E605C80F289828A83E0F5F0A3E6CF
:100A900008B5F04D604B80F389828A83E0F5F0A3BE
:100AA000E208B5F03C603A80F389828A83E493F5EA
:100AB000F0A3E608B5F02A602880F2805389828A84
:100AC00083ECFAE493F5F0A3C8C582C8CCC583CC07
:100AD000E0A3C8C582C8CCC583CCB5F00460028051
:100AE000E27FFFB5F0020F2240027F012289828A55
:100AF00083ECFAE0F5F0A3C8C582C8CCC583CCE08E
:100B0000A3C8C582C8CCC583CCB5F0D560D380E37B
:100B100089828A83ECFAE0F5F0A3C8C582C8CCC507
:100B200083CCE493A3C8C582C8CCC583CCB5F0B14F
:100B300060AF80E288F0ED2402B4040050A3F58297
:100B4000EB2402B4040050992323458223900A2FFA
:100B50007354544D3A4144562D4F4E0D0A0054548F
:100B60004D3A5343414E2D4F4E0D0A0054544D3AC9
:100B7000434F4E4E454354494E470D0A0054544D81
:100B80003A434F4E4E45435445440D0A0054544D8C
:100B90003A424C455F49444C450D0A0054544D3A85
:100BA0004552500D0A0054544D3A4F4B0054544D89
:100BB0003A45525000535441540045414456004474
:100BC0004144560044434F4E004D41432D3F004D9C
:100BD00041432D00444E4D2D3F0052454E2D0054B3
:100BE000504C2D0054504C2D3F0054544D3A0D0A9A
:100BF00000FF0BB500000000100001FF0BBAFF0B57
:100C0000A600000002FF0BBFFF0BA600000003FFC1
:100C10000BC4FF0BA600000008FF0BC9000000007A
:100C20000C0809FF0BCFFF0BA60C00000AFF0BD42A
:100C3000000000000C080BFF0BDAFF0BA60C0000F5
:100C400010FF0BDFFF0BA605000011FF0BE40000F7
:100C50000000050800000000000000000000000087
:100C60000000000000000000000000000000000084
:100C70000000000000000000000000000000000074
:100C80000000000000000000000000000000000064
:100C90000000000000000000000000000000000054
:100CA0000000000000000000000000000000000044
:100CB0000000000000000000000000000000000034
:100CC0000000000000000000000000000000000024
:100CD0000000000000000000000000000000000014
:100CE0000000000000000000000000000000000004
:100CF00000000000000000000000000000000000F4
:100D000000000000000000000000000000000000E3
:100D100000000000000000000000000000000000D3
:100D200000000000000000000000000000000000C3
:100D300000000000000000000000000000000000B3
:100D400000000000000000000000000000000000A3
:100D50000000000000000000000000000000000093
:100D60000000000000000000000000000000000083
:100D70000000000000000000000000000000000073
:100D80006024095E303F3106325B334F3466356D87
:100D9000367D3707387F396F4177427C4339553E7E
:100DA0004930507346714F3F4709570A0F19326453
:100DB00096C860E007C2000000000A0A00000001B7
:100DC00001000A0A00010002000A0E0E00000003E2
:100DD000010A0E0E0001000400180E0E00000005AE
:100DE00001180E0E0001000600261616000000076E
:100DF0000126161600010008003C0E0E0000000936
:100E0000013C0E0E0001000A004A10100000000B09
:100E1000014A10100001000C005A0D010101000DE3
:100E200000670D010101000E007404040101000FB0
:100E30000078030300010010007B1B1B0001001160
:100E4000009619190001001200AF0B0B00010013EE
:100E500000BA10100101001400CA060600010015B6
:100E600000D005050101001600D508080001001793
:100E700000DD08080001001800E51A1A0001001939
:100E800001AC06060001001A01B23E3E0001001B43
:100E900001921A1A00014C09820B510B5E0B6C0B6C
:100EA0007D0B8D0B9C4209900BA642098E0BAD0069
:100EB00002054322EDA2E7D2E7F9EC3340F260F3FA
:100EC000B4FF08ED547F70E802054DF82481C2E0BC
:100ED000C0E0F40428FAC313FCED92E7FD9004008F
:100EE000120919EEA2E7E9BA7F02C3133400940095
:100EF000FA75F091A4E5F013F494FE8AF0A433E5BA
:100F0000F033248CD313FDE492E7FE7F007C3F7521
:100F10008302ECC0E0F8EDC0E0F9EEC0E0FAEFC00B
:100F2000E0FB8583F09004001208FD85F083120336
:100F3000FCD0E0FBD0E0FAD0E0F9D0E0F8120202F9
:100F4000ED6480FD30E7011CD583C7ED33CC33F869
:100F5000D0E0A2E71328C313CC13FD22787FE4F678
:100F6000D8FD75812012010A020FA6021A97E49398
:100F7000A3F8E493A34003F68001F208DFF480298C
:100F8000E493A3F85407240CC8C333C4540F44207B
:100F9000C8834004F456800146F6DFE4800B01026A
:100FA000040810204080900D80E47E019360BCA373
:100FB000FF543F30E509541FFEE493A360010ECFB8
:100FC00054C025E060A840B8E493A3FAE493A3F8E2
:100FD000E493A3C8C582C8CAC583CAF0A3C8C582A2
:100FE000C8CAC583CADFE9DEE780BE070605040379
:100FF00002010007060504030201000706050403B9
:1010000002010007060504070605040302010007A4
:10101000060504030201000706050403020100039C
:10102000020100808080808080808040404040407D
:1010300040404020202020202020201010101002AE
:10104000020202020202020404040404040404086A
:101050000808080808080810101010010201020012
:10106000000003010002010202010003000100036D
:101070000201000506030405060304060504050530
:101080000604060406050506040303048020018007
:101090000820100204084002201010400101022024
:1010A000100840801002080202040120088001108C
:1010B00080020140080440401008010101020202C0
:1010C000020202010202020202020101804020101B
:1010D0000810080402018001804020100810080454
:1010E00002018001804020100810080402018001E4
:1010F0008040201008100804020180030000000056
:1011000000000000000001000101010101010101D6
:1011100001010201020202020202020202020302B1
:10112000030303030303030303030001021008087E
:10113000101080800202400840024040010104017A
:1011400020208020080404042010800100020203F3
:101150000103020001020300020301000002010377
:101160000300010201030002010003E00040F0D08F
:1011700070104020E0F020B0D0801030A0A060605F
:10118000C0C0B0509090500030708040F010C0E06F
:10119000808020D04060902010B070F050C0B0909F
:1011A0003070E030A0A000506000D00F03010D08A7
:1011B000040E07060F0B020308040E090C070002B9
:1011C000010D0A0C060009050B0A05000D0E0807A3
:1011D0000A0B010A03040F0D040102050B08060C9B
:1011E00007060C09000305020E0F09A0D00070903D
:1011F00000E09060303040F06050A01020D080C0FF
:101200005070E0B0C040B020F08010D01060A0401E
:10121000D090008060F09030800070B04010F020DE
:10122000E0C03050B0A050E02070C0070D0D080E97
:101230000B03050006060F09000A03010402070854
:1012400002050C0B010C0A040E0F090A03060F0914
:101250000000060C0A0B01070D0D080F090104031D
:10126000050E0B050C02070802040E20E0C0B0407A
:101270002010C07040A070B0D0601080505000307E
:10128000F0F0A0D0300090E080906040B02080105E
:10129000C0B070A010D0E0702080D0F06090F0C09E
:1012A00000509060A030400050E0300C0A010F0A5E
:1012B000040F020907020C0609080500060D0103C8
:1012C0000D040E0E00070B05030B0809040E030F97
:1012D00002050C020908050C0F030A070B000E0497
:1012E000010A0701060D000B08060D40D0B00020D2
:1012F000B0E070F04000908010D0A030E0C030909E
:101300005070C05020A0F060801060106040B0B0FD
:10131000D0D080C010304070A0E070A090F050603D
:101320000080F000E05020903020C00D01020F0836
:101330000D0408060A0F030B0701040A0C09050334
:10134000060E0B0500000E0C09070207020B010434
:101350000E010709040C0A0E08020D000F060C0A04
:10136000090D000F0303050506080BFFF002002717
:10137000062005444C2F54003634352D323030379A
:101380002D31344444535936363620202000000095
:10139000000102C201000000040001000100000180
:1013A00002C201000000040001000200000102C6A8
:1013B000010000000400010090020101036401002B
:1013C00000000400010090020001035E0100000023
:1013D0000400010090020001035E0100000004000F
:1013E00001033006010102F90100000004000102BE
:1013F0008000200102F50100020C04000104000439
:10140000010101C9000010000600010400040201EE
:1014100001CF000010060600010400040E0101D5F2
:101420000000100C060001033001000103AF0100B1
:101430000000040101033302010103B301000000B5
:101440000401010400100101037C000011000400EC
:1014500001040010020103800000110404000104D3
:1014600000100401038400001108040001040010AE
:10147000030103880000110C0400010400100501A1
:10148000038C0000111004000104090B01010390FA
:101490000000111403000104800010FF136B010011
:1014A00000000801000400040DFF13730100000098
:1014B0001001000400040BFF1383010000000A0167
:1014C0000004000C010000000000120004010004F0
:1014D000000C020000000000120304010004000CD4
:1014E00003000000000012060401000400030801CC
:1014F00001E400001900010000040003020101E5FD
:1015000000001901010000040003010101E60000D0
:101510001902010000040003050101E7000019039E
:10152000010000040401010101EA00001A000101A8
:10153000000404020101020800001A1E0101000457
:101540000003060101DE0000101503000104000382
:10155000070101DB0000101203000102010100017C
:10156000002E010000000200010202010001003D06
:101570000100000003000102030000010049010016
:1015800000000300010203010001004D0100000002
:101590000300010206000001005A010000000200E1
:1015A000010206010001005E0100000002000102CC
:1015B00080000201006A0100000002000107000033
:1015C000FF070001FF070101FF070102FF070103F9
:1015D000FF070301FF070002FF200E1E1E18300840
:1015E000100404040404161100000000111100B0DE
:1015F000990184D401FF8430020C80FA000380FA40
:1016000000000084000084D6960004D6822404DC06
:10161000010C04DC030C8432010C04D6820004D6D5
:10162000830004D684000082000804D68C0004D60F
:10163000000004D6880004D6940004D6970000C0A9
:10164000000000B0880000B08C0000B0940000B032
:10165000970004B2010C0102030000118923123229
:101660009B462457AD653674BF8C489DC1AF5ABEAA
:10167000D3CA6CDBE5E97EF8F710810108339322C9
:101680001A56A5472C75B7643E9CC98D40BFDBAE8A
:1016900052DAEDCB64F9FFE8762102308B021013A9
:1016A00099672676AF443455BDAD4ABCC38E589F6A
:1016B000D1EB6EFAE7C87CD9F53183200A12910389
:1016C0001877A7662E54B5453CBDCBAC429ED98F4A
:1016D00050FBEFEA66D8FDC9744204538D61167061
:1016E0009F042015A9273236BBCE4CDFC5ED5EFC2A
:1016F000D7886899E1AB7ABAF35285430C71976049
:101700001E14A1052837B3263ADECDCF44FDDFEC09
:101710005698E98960BBFBAA726306728F40145128
:101720009D252234AB063017B9EF4EFEC7CC5CDDE9
:10173000D5A96AB8E38A789BF17387620E50954108
:101740001C35A3242A16B10738FFCFEE46DCDDCDC9
:1017500054B9EBA8629AF98B7084089581A71AB6E0
:1017600093C22CD3A5E13EF0B7084019C92B523AD9
:10177000DB4E645FED6D767CFF94898500B79BA698
:1017800012D2ADC324F1BFE03618C109483BD32AB9
:101790005A5EE54F6C7DF76C7EA50AB48386189778
:1017A00091E32EF2A7C03CD1B5294238CB0A501B99
:1017B000D96F667EEF4C745DFDB58BA40296998758
:1017C00010F3AFE226D0BDC13439C3284A1AD10B79
:1017D000587FE76E6E5CF54D7CC60CD785E51EF430
:1017E00097802891A1A33AB2B34A445BCD69567859
:1017F000DF0C601DE92F723EFBD68DC704F59FE418
:101800001690A98120B3BBA2325AC54B4C79D76838
:101810005E1CE10D683FF32E7AE70EF687C41CD5F7
:1018200095A12AB0A3823893B16B467ACF48545918
:10183000DD2D623CEB0E701FF9F78FE606D49DC5D7
:1018400014B1ABA02292B983307BC76A4E58D549F8
:101850005C3DE32C6A1EF10F7801010101020202D6
:10186000262626262525252828282827272710103C
:1018700010101111110E0E0E0E0F0F0F0C0C0C0C80
:101880000D0D0D0A0A0A0A0B0B0B0A100F0E0D0B99
:101890000C04030201020403040302010204030412
:1018A000030201020403040302010204030403020D
:1018B00001020403040302010204030403020102FF
:1018C000040300000000000000000000000102C24C
:1018D000040201000100000102C204020100020032
:1018E000000102C6040201040004010101C9020052
:1018F00005040004010101CB0400010400040201FD
:1019000001CF020005040004020101D1040001041A
:1019100000040E0101D50200050400040E0101D7E8
:10192000040001028000200102F50404010090027D
:101930000001035E0402010090020101036404023D
:10194000010400100101037C0402010400100201E3
:10195000038004020104090B010103900304030244
:1019600001010001001D0302030202010001003D0C
:1019700003030302030000010049030403020301FF
:101980000001004D0304030206000001005A020397
:10199000050206010001005E02030502800002014B
:1019A000006A0202050400040901006C030003FF41
:1019B000FFFFFF00000000000036000000003700BD
:1019C00000000038000000003A000000003B00006A
:1019D00000003C000000003D000000003E00000050
:1019E000003F000000004000000000410000000037
:1019F0004200000000440000001B450000000046BB
:101A00000000000047000001804B000001FF500073
:101A100000000051000000045200000000530000CC
:101A200000005400000000550000000056000000B7
:101A30000057000000005A008000005B007FF5475F
:101A4000600000055D61007FF54662000000007CDB
:101A5000000000807D00000000480000018234008A
:101A600000000035000000003900000000430000C5
:101A7000001B30000000353100A000C13200000C16
:101A80008433000000E8003409350D390C0F0A10CA
:101A9000091BD3000000001201B9BF01031201BEEF
:101AA00051E8900290E0F8A3E0F9A3E0FAA3E0FB8C
:101AB000C31208C66003E4F5B151E8900290120920
:101AC000191201DC12018C1201D71201AF1201B4FC
:101AD00012000680CBF583E0FCA3E0FDA3E0FEA3AB
:101AE000E0FF9003E612091990028CE0FCA3E0FDF0
:101AF000A3E0FEA3E0FF900433120919900288E0EE
:101B0000FCA3E0FDA3E0FEA3E0FF90043712091957
:101B1000E4FFFEFDFC900437E0F8A3E0F9A3E0FA4F
:101B2000A3E0FBC31208C6703074FFFFFEFDFC90FB
:101B30000433E0F8A3E0F9A3E0FAA3E0FBC3120842
:101B4000C66043E4FFFEFDFC900433E0F8A3A3A3CA
:101B5000E0C31208C67002802D900433E0FCA3E0BD
:101B6000FDA3E0FEA3E02401FFE43EFEE43DFDE42E
:101B70003CFCA3E0F8A3E0F9A3E0FAA3E0FBC31266
:101B800008C6600241E8900433E0FCA3E0FDA3E056
:101B9000FEA3E0FF227B017A0379567D047C00B12D
:101BA000F990035CEEF0A3EFF07B017A037956E441
:101BB000FD7F17FE71D57B017A0079107D047C00D2
:101BC000B1F9900016EEF0A3EFF07B017A007910E6
:101BD000E4FD7F16FE900665EDF0A3EBF0A3EAF0BE
:101BE000A3E9F0900663EEF0A3EFF09006697401AC
:101BF000F0E490066BF0A3F0C3EF941CEE94004069
:101C000002A1C8E490066AF090066AE0FFC3941C43
:101C10004002A1C875F008EFA424C2F582E5F034B3
:101C200007F583E0FEA3E0FF900663E0FCA3E0FD80
:101C3000EF6D7002EE6C6002A1C0EDAE047803C3DC
:101C400033CE33CED8F9FF24C8F58274073EF5832E
:101C5000E0600281E4900666E0FBA3E0FAA3E0F90D
:101C600074C72FF58274073EF583E024FEFDE4344B
:101C7000FFFCB1F990066BEEF0A3EFF090066BE07D
:101C8000FD900663E0FEA3E07803C333CE33CED8E5
:101C9000F924C7F58274073EF583E024FEFFE4349F
:101CA000FFFE900666E0FBA3E0FAA3E0F98F828EC8
:101CB00083ED1206D990066BA3E0FD900663E0FE6B
:101CC000A3E07803C333CE33CED8F924C7F58274AA
:101CD000073EF583E07E0024FFF582EE34FFF583B6
:101CE000ED1206D9900663E0FEA3E07803C333CE7D
:101CF00033CED8F924C4F58274073EF583E0FEA301
:101D0000E0FF900665E0FD7C00EF2DFFEC3EFEC09D
:101D100006C007A3E0FBA3E0FAA3E0F9900663E0A6
:101D2000FEA3E07803C333CE33CED8F924C7F582BF
:101D300074073EF583E09009AEF0D007D006124458
:101D400074EF6002A1C8900669F0900663E0FEA3FC
:101D5000E07803C333CE33CED8F9FF24C9F58274BB
:101D6000073EF583E0706174CC2FF58274073EF571
:101D700083E0FEA3E0FF900665E0FD7C00EF2DFF11
:101D8000EC3EFEC006C007A3E0FBA3E0FAA3E0F927
:101D9000900663E0FEA3E07803C333CE33CED8F9D8
:101DA00024CFF58274073EF583E09009AEF0D007AA
:101DB000D006124474EF60109006697401F0800838
:101DC00090066AE004F08108900669E0FF22122282
:101DD000B29003F1E0FF7E009003F3EEF0A3EFF08A
:101DE000FD9003F0E0FFED9003F3CFF0A3EFF07B65
:101DF000017A0379E47D0C7C009006A9EBF0A3EA5C
:101E0000F0A3E9F0A3ECF0A3EDF0E4A3F0A3F090CD
:101E100006AC74FFF5F012077845F060429006A911
:101E2000E0FBA3E475F001120778A9F0FA12064E60
:101E3000FF9006AEE0FCA3E0FDED6F25E0FFE4338C
:101E4000FE74592FF58274163EF583ECFFE493FE81
:101E50007401936FFF9006AEEEF0A3EFF080B090A8
:101E600006AEE0FEA3E0FF22E0FFA3E0900662CF13
:101E7000F0A3EFF07D0690065EEBF0A3EAF0A3E995
:101E8000F0A3EDF012282AEF70037F012290065E86
:101E9000E0FBA3E0FAA3E0F9A3E0FD7C00B1F99038
:101EA0000662E06E7003A3E06F7F0060027F012294
:101EB0009003E4EFF0E4A3F07B017A0279659002ED
:101EC0007DE0FFA3E0900662CFF0A3EFF07D18D194
:101ED00076EF70069003E4E070207B017A0279656A
:101EE000E4FD7F1BFE12202CBF01069003E5740168
:101EF000F0F195123A5E7F01F1279003E5E0FF22B1
:101F00007F01F1277F147E00F1B312426CEF64036E
:101F10006014EF60119002C1E0D394024008E4F035
:101F2000F1957F01F127229003FDEFF078FE7C030D
:101F30007D017BFF7A0D791C7E007F1412062890AC
:101F400004157401F0900412F0A37403F0A374FE5E
:101F5000F09003FDE0FF7B017A0379FE123AB7EFC0
:101F6000702D900990E0FEA3E0AA06F97BFFC00364
:101F7000C002900412E0FBA3E0FAA3E0F8AC02ADCB
:101F800003D002D003120B34EF7004900415F090CC
:101F90000415E0FF2290FFE3E04440F043B0407FAF
:101FA000967E00F1B390FFE3E04440F053B0BF7F72
:101FB000F47E0190049FEEF0A3EFF0A31209250038
:101FC00000000090049FE0FEA3E0FF7C007D131260
:101FD00006FBE4FDA3E0F8A3E0F9A3E0FAA3E0FB2D
:101FE000C31208C6502412323C9004A1E0FCA3E0C6
:101FF000FDA3E0FEA3E02401FFE43EFEE43DFDE49A
:102000003CFC9004A112091980B922900431E075BA
:10201000F00EA42495F582E5F03413F583E493FEE5
:10202000740193FF7B017A0379EFE4FD900660ED84
:10203000F0A3EBF0A3EAF0A3E9F090065EEEF0A3C4
:10204000EFF09006647401F0E4A3F0A3F09006A70B
:10205000F0A3F0C3EF941CEE94004002414FE490D3
:102060000665F0900665E0FFC3941C4002414F7581
:10207000F008EFA424C2F582E5F03407F583E0FE12
:10208000A3E0FF90065EE0FCA3E0FDEF6D7002EEC2
:102090006C60024147900666F090065EE0FEA3E0A9
:1020A0007803C333CE33CED8F924C4F58274073E07
:1020B000F583E0FEA3E0FF900660E0FD7C00EF2DDD
:1020C000FFEC3EFEC006C0077B017A0679679006EA
:1020D0005EE0FEA3E07803C333CE33CED8F924C745
:1020E000F58274073EF583E09009A3F0D007D0068F
:1020F00051B2EF6401707890065EE0FEA3E07803D1
:10210000C333CE33CED8F9FF24C9F58274073EF528
:1021100083E0704D74CC2FF58274073EF583E0FEAA
:10212000A3E0FF900660E0FD7C00EF2DFFEC3EFE9B
:10213000C006C0077B017A06796790065EE0FEA3C1
:10214000E07803C333CE33CED8F924CFF5827407B9
:102150003EF583E09009A3F0D007D00651B2BF014D
:102160000E900666E004F0E0C394035002019990DB
:102170000666E0C3940340037F012290065EE0FE02
:10218000A3E07803C333CE33CED8F9FF24C8F58259
:1021900074073EF583E0706D74C72FF58274073EB7
:1021A000F583E0FF2466F582E43406F583E0FD90D4
:1021B00006A7E4F0A3EDF074652FF582E43406F58C
:1021C00083E0FE9006A7E04EF0A3E0F07B017A06E4
:1021D000796790065EE0FEA3E07803C333CE33CE8A
:1021E000D8F924C7F58274073EF583E024FEFDE4A8
:1021F00034FFFC121DF99006A7E06E7003A3E06F98
:1022000060037F0122900661E0F9A3E0FAA3E09069
:1022100006ACC9F0A3EAF0A3E9F090065EE0FEA3E5
:10222000E07803C333CE33CED8F924C7F5827407E0
:102230003EF583E09006AFF07B017A067967516F37
:10224000E4900664F08008900665E004F001639075
:102250000664E0FF22516F9006AC7401F0A3740293
:10226000F0A374D9F0A37404F07B017A03795E9033
:1022700006A9EBF0A3EAF0A3E9F0E4FF9006AFE0D3
:10228000FEEFC39E502B9006A9E0FBA3E0FAA3E06B
:10229000F98F82758300120667FE9006ACE0FBA3FF
:1022A000E0FAA3E0F98F82758300EE1206D90F8061
:1022B000CB2290099EEEF0A3EFF09009A0EBF0A3E3
:1022C000EAF0A3E9F09009A4E4F09009A3E0FFEF9D
:1022D00070037F01229009A3E0FF7E0090099EE039
:1022E000FCA3E0FDEF2DFFEE3CFED3EF94FFEE9458
:1022F0000140037F012290099EE0FEA3E0FFEEFF74
:102300007E00EF54FFFF9009A5EFF09009A5E0FFD4
:10231000EF25E0FF9009A5EFF0D10D9009A5E0FFB2
:10232000EF24A0FFB174EF600571CA7F012290090C
:102330009EE0FEA3E0FFB174EF600571CA7F012249
:10234000D10D9009A5E0FFEF24A1FFB174EF600566
:1023500071CA7F01229009A0E0FBA3E0FAA3E0F993
:102360009009A6EBF0A3EAF0A3E9F09009A5E4F048
:102370009009A3E0FFEF14FF9009A5E0FEEEC39FD4
:1023800050241243A69009A6E0FBA3E0FAA3E0F9CB
:102390009009A5E0FE8E82758300EF1206D99009A0
:1023A000A5E004F080CA12431A9009A6E0FBA3E05E
:1023B000FAA3E0F99009A5E0FE8E82758300EF1282
:1023C00006D971CA9009A4E0FF229009CDE4F090EB
:1023D000FFE8E0FFEF54BFFF90FFE8EFF09009CD7A
:1023E0007414F09009CDE0FFEFD394004015E5ECB4
:1023F00020E61043EC80D13D53EC7F9009CDE014F2
:10240000F080E090FFE8E0FFEF4440FF90FFE8EF4E
:10241000F090FFE8E0FFEF4480FF90FFE8EFF0531B
:10242000ECBF53EC7FD13D43EC80D13D43EC4022E7
:10243000900992EEF0A3EFF0900994EBF0A3EAF08C
:10244000A3E9F090099DE4F0900997E0FFEF600B9D
:10245000900997E0FFEFD3942040037F0122900979
:1024600092E0FEA3E0FFD3EF94FFEE940140037FE0
:102470000122900997E0FF7E00900992E0FCA3E022
:10248000FDEF2DFFEE3CFED3EF94FFEE94004013E2
:10249000900992E0FEA3E0FFD3EF94FFEE9400508A
:1024A00002A16ED10D900997E0FF7E00900992E0A5
:1024B000FCA3E0FDEF2DFFEE3CFED3EF94FFEE9486
:1024C00000500690099D74A0F0900992E0FEA3E0F0
:1024D000FFD3EF94FFEE9400400690099D74A2F0A4
:1024E00090099DE0FFB174EF600571CA7F012290F1
:1024F0000992E0FEA3E0FFB174EF600571CA7F01AD
:1025000022900994E0FBA3E0FAA3E0F990099AEB8A
:10251000F0A3EAF0A3E9F0900998E4F0A3E4F090C6
:102520000997E0FF7E00900998E0FCA3E0FDC3ED71
:102530009FEC9E503390099AE0FBA3E0FAA3E0F9E8
:1025400012064EFFB174EF600571CA7F0122900937
:102550009BE475F001120762900999E004F070069F
:10256000900998E004F080B771CAD14E80037F01D2
:10257000227F00229009BFEFF09009C0E4F090099B
:10258000C1E4F090FFE8E0FFEF4480FF90FFE8EF48
:10259000F053EC7F90FFE8E0FFEF4440FF90FFE84E
:1025A000EFF09009C1E4F09009C1E0FFEFC3940897
:1025B00050309009BFE0FFEF30E70543EC40800367
:1025C00053ECBF43EC809009BFE0FFEF25E0FF90A4
:1025D00009BFEFF012431353EC7F9009C1E004F000
:1025E00080C512000890FFE8E0FFEF54BFFF90FFA6
:1025F000E8EFF043EC80120008E5EC30E6069009C5
:10260000C07401F053EC7F9009C0E0FF22124440F7
:1026100090FFE8E0FFEF4440FF90FFE8EFF043EC6D
:102620004090FFE8E0FFEF4480FF90FFE8EFF043C9
:10263000EC80D13D53ECBFD13D53EC7F229009CBD0
:102640007401F09009CBE0FF14F0EF70F6229009CE
:10265000C574FFF09009C4E4F09009C5E0FF90094B
:10266000C4E0FEEEC39F5013D10D7FA0B174EF7094
:102670000261CA9009C4E004F080DE2290045D7417
:1026800001F0A37407F0A374AAF0900458E090043A
:1026900060F0900454E0FBA3E0FAA3E0F990045A40
:1026A000EBF0A3EAF0A3E9F09006AC7401F0A37498
:1026B00004F0A3746BF0A37408F090045DE0FBA336
:1026C000E0FAA3E0F9516F90045AE0FBA3E0FAA30B
:1026D000E0F91249A57B017A04796B124A1DE49056
:1026E0000461F0E4900462F0900461E0FF9010BB9C
:1026F00093FE900462E0C39E501C900460E0FDB421
:102700000103EF60117B017A04796B124D5690043E
:1027100062E004F080D29006AC7401F0A37404F07F
:10272000A37463F0A37408F07B017A04796B516F92
:1027300090048974FFF0A37410F0A3745BF0A37489
:10274000FFF0A37410F0A3748BF0A37406F07B0168
:102750007A047963124A3B9004767401F0A37404FE
:10276000F0A37463F090045AE0FBA3E0FAA3E0F94D
:10277000124B0EE4F5B1900461E004F0E0C3941054
:102780005002C1E390045AE0FBA3E0FAA3E0F99001
:102790000473EBF0A3EAF0A3E9F0E4F5B190047759
:1027A00004F012064E90047FF09000041206679029
:1027B000047EF090000112066790047DF090000501
:1027C00012066790047CF090000212066790047B6A
:1027D000F090000612066790047AF090000312064B
:1027E00067900479F0900007120667900478F0E48F
:1027F000900476F07B017A0479781249789004731A
:10280000E0FBA3E0FAA3E0F9A3E0F582758300EF13
:102810001206D9900477E025E0F0900476E004F009
:10282000E0C3940840CEE4F5B122900664EBF0A337
:10283000EAF0A3E9F0E4FFEFC39D501B900664E0CB
:10284000FBA3E0FAA3E0F98F8275830012066760AC
:10285000037F01220F80E07F0022F09003E9E0FB7C
:10286000A3E0FAA3E0F9900003120667FFEFD39408
:102870006340037F0022EF75F00A84C454F0FEEF3A
:1028800075F00A84E5F02EFF22AC07AF0511B6AD56
:1028900007AF0411B6EF2DFF12064E2FFFE412060C
:1028A000C7EFC39464400974011206C7749C2FFFDC
:1028B00080BB120667FFEFC4540F75F00AA4FEEF49
:1028C000540F2EFF22900663EBF0A3EAF0A3E9F089
:1028D000E490066AF0A3F0900669E0FF90066BE0D2
:1028E000FEC39F5079EEFDC3EF9DFDE49400FCED27
:1028F00024FFFFEC34FFFE900663E0FBA3E0FAA3A5
:10290000E0F98F828E83120667FFED24FFFDEC3421
:10291000FFFC900666E0FBA3E0FAA3E0F98D828C51
:1029200083120667FD7B017A06796A118990066B2E
:10293000E0FD900669E0C39DFDE49400CD24FFCD49
:1029400034FFFC900663E0FBA3E0FAA3E0F98D827C
:102950008C83EF1206D990066BE004F001D7229029
:10296000028CE0FCA3E0FDA3E0FEA3E0FF9003CF18
:10297000120919900288E0FCA3E0FDA3E0FEA3E0A9
:10298000FF9003D3120919E4FFFEFDFC9003D3E08E
:10299000F8A3E0F9A3E0FAA3E0FBC31208C6703085
:1029A00074FFFFFEFDFC9003CFE0F8A3E0F9A3E085
:1029B000FAA3E0FBC31208C66043E4FFFEFDFC90EF
:1029C00003CFE0F8A3A3A3E0C31208C67002802DD2
:1029D0009003CFE0FCA3E0FDA3E0FEA3E02401FF11
:1029E000E43EFEE43DFDE43CFCA3E0F8A3E0F9A3F3
:1029F000E0FAA3E0FBC31208C66002215F9003CF98
:102A0000E0FCA3E0FDA3E0FEA3E0FF22C0E0C0F0F5
:102A1000C083C082C0D075D000C000C001C002C059
:102A200003C004C005C006C0079003CCE5A7F0753D
:102A3000A70075B7559003CBE5B6F075B700309990
:102A40003DC299900073E004F0900072E0FFA3E0B3
:102A5000C39F5024315F90007E120919900073E0EB
:102A60002486F582E43400F583E0FF30D004D29B65
:102A70008002C29B8F99800690006F7408F0309896
:102A80000BC298AF99AD07E4FF12019675B7559048
:102A900003CBE0F5B675B700A3E0F5A7D007D006E5
:102AA000D005D004D003D002D001D000D0D0D08245
:102AB000D083D0F0D0E03290028CE0FCA3E0FDA304
:102AC000E0FEA3E0FF9003DB120919900288E0FC0E
:102AD000A3E0FDA3E0FEA3E0FF9003DF120919E4E9
:102AE000FFFEFDFC9003DFE0F8A3E0F9A3E0FAA30A
:102AF000E0FBC31208C6703074FFFFFEFDFC9003BC
:102B0000DBE0F8A3E0F9A3E0FAA3E0FBC31208C6F8
:102B10006043E4FFFEFDFC9003DBE0F8A3A3A3E029
:102B2000C31208C67002802D9003DBE0FCA3E0FD19
:102B3000A3E0FEA3E02401FFE43EFEE43DFDE43C0F
:102B4000FCA3E0F8A3E0F9A3E0FAA3E0FBC31208BA
:102B5000C6600241B79003DBE0FCA3E0FDA3E0FE0A
:102B6000A3E0FF22C0E0C0F0C083C082C0D075D017
:102B700000C000C001C002C003C004C005C006C040
:102B8000079003D8E5A7F075A70075B7559003D750
:102B9000E5B6F075B70030D93DC2D9900120E00408
:102BA000F090011FE0FFA3E0C39F502451B79001B4
:102BB0002B120919900120E02433F582E43401F549
:102BC00083E0FF30D004D2DB8002C2DB8FD98006E5
:102BD00090011C7408F030D80BC2D8AFD9AD077F74
:102BE0000112019B75B7559003D7E0F5B675B70094
:102BF000A3E0F5A7D007D006D005D004D003D002BB
:102C0000D001D000D0D0D082D083D0F0D0E032E05C
:102C1000FCA3E0FDA3E0FEA3E0FF9003EA12091984
:102C20009003EAE0FCA3E0FDA3E0FEA3E0FFA3E045
:102C3000F8A3E0F9A3E0FAA3E0FBC31208C69003EF
:102C4000EEE0503DF8C000C001C002C0039003EAAE
:102C5000E0F8A3E0F9A3E0FAA3E0FBC374FF9BFF55
:102C600074FF9AFE74FF99FD74FF98FCD003D002A4
:102C7000D001D000EB2FFFEA3EFEE93DFDE83C80AD
:102C800024FCA3E0FDA3E0FEA3E0FF9003EAE0F84C
:102C9000A3E0F9A3E0FAA3E0FBC3EF9BFFEE9AFEEB
:102CA000ED99FDEC98FCA31209199003F2E0FCA346
:102CB000E0FDA3E0FEA3E0FF9003EEE0F8A3E0F95F
:102CC000A3E0FAA3E0FBC31208C67F0140027F0025
:102CD0002290030BE054FDF07B017A0879E37D0438
:102CE0001201A57B017A0879E7900667E4F0A374E6
:102CF00004F0E4FD900663EBF0A3EAF0A3E9F0A38F
:102D0000EDF0E4FFFED3900668E09F900667E09E3A
:102D1000401F900666E0FD900663E0FBA3E0FAA387
:102D2000E0F98F828E83ED1206D90FBF00010E806D
:102D3000D422900446EBF0A3EAF0A3E9F0A3EDF06F
:102D4000D3946440037F01229004507401F0A37473
:102D500007F0A37428F09006AC7401F0A37407F098
:102D6000A374BAF0A37408F090044AE0FBA3E0FA5D
:102D7000A3E0F912226F7B017A0779AAE4FD7F13A1
:102D8000FE12202CBF01037F0122900450E0F9A322
:102D9000E0FAA3E09006ACC9F0A3EAF0A3E9F09052
:102DA0000449E09006AFF0900446E0FBA3E0FAA3EC
:102DB000E0F912226F900450E0FBA3E0FAA3E0F9DF
:102DC000900449E0FFF58275830074801206D97E75
:102DD00000E92FF9EE3AFAE92401F9E43AFA90060B
:102DE00067E4F0A37407F0E4FD91F4900449E01364
:102DF0001313541F0490044FF0E4FD74BA2DF582B0
:102E0000E43407F583C083C082E0FF900450E0FB08
:102E1000A3E0FAA3E0F98D82758300120667FEEF46
:102E20006ED082D083F00DEDB408D0E490044EF063
:102E300090044FE014FF90044EE0C39F506F900445
:102E40005D7401F0A37407F0A374AAF0A37402F0F8
:102E50007B017A0779BA12269DE4FD74BA2DF582BA
:102E6000E43407F583C083C082E0FC90044EE02484
:102E700001FFE433FEEF7803C333CE33CED8F9FF3E
:102E8000ED7A002FFFEA3EFE900450E0FBA3E0FA4B
:102E9000A3E0F98F828E831206676CD082D083F014
:102EA0000DEDB408B690044EE004F080837B017A07
:102EB0000779BA9004577402F0E4FFF10B90044DC7
:102EC000E06401703B900446E0FBA3E0FAA3E0F964
:102ED000A3E0FF7E00E92FF9EE3AFA900661EBF0ED
:102EE000A3EAF0A3E9F0A37404F0A37455F07B0106
:102EF0007A0779BA1232A2BF02037F00227F012231
:102F00007F00229004577401F07F06900454EBF088
:102F1000A3EAF0A3E9F0EF640660147B017A077975
:102F2000AAE4FD7F13FE12202CBF01037F01229033
:102F30000457E0B40209A37402F0A314F0800990CE
:102F400004587401F0A304F012267C90045D74010F
:102F5000F0A37407F0A374B2F090045912268D12F6
:102F6000267C7F00229003EAE075F0ADA4248AF964
:102F7000740035F0FA7B01E075F0ADA42493F5827E
:102F8000E5F03400F583E0240AFD9003EDEBF0A3B7
:102F9000EAF0A3E9F0E4FFFEEEC39D50189003EDC4
:102FA000E0FBA3E0FAA3E0F98E82758300120667C6
:102FB0002FFF0E80E32235F0FA9006617401F0A332
:102FC000EAF0A3E9F0A37406F07B017A0179C990D5
:102FD000065EEBF0A3EAF0A3E9F0E4900665F0905A
:102FE0000664E0FFA3E0FEC39F5047EEFD90065E3F
:102FF000E0FBA3E0FAA3E07E002FF9EE3AFAE92421
:10300000FFF9EA34FFFAC3E99DF9EA9400FA1206DF
:103010004EFF900661E0FBA3E0FAA3E0F99006659D
:10302000E0F582758300EF1206D9900665E004F0A2
:1030300080AD22900436EBF0A3EAF0A3E9F0E4FFC0
:10304000EFC39D5028900436E0FBA3E0FAA3E0F91B
:103050008F82758300120667FE540FD394095007C0
:10306000EE54F0949040037F01220F80D37F002222
:103070009003EDE075F0ADA424A0F9740035F0FAEA
:103080007B0190042FE07E0029F9EE3AFA7D04904E
:103090000441EBF0A3EAF0A3E9F0A3EDF0E4A3F020
:1030A000900444E0FFC313FEA3E0C39E5078900455
:1030B00041E0FBA3E0FAA3E0F9900445E0FEF582CD
:1030C000758300120667900446F0EF24FFFDE43498
:1030D000FFFCEEFFC3ED9FFFEC94008F82F583129F
:1030E0000667FF900445E0F582758300EF1206D96C
:1030F000900446E0FF900444E024FFFDE434FFFC2C
:10310000A3E0FBC3ED9BFDEC9400FC900441E0FBCD
:10311000A3E0FAA3E0F98D828C83EF1206D9900424
:1031200045E004F001A0229003EDE075F0ADA42489
:1031300098F9740035F0FA7B01900436EBF0A3EABD
:10314000F0A3E9F012064EFF2485F582E43402F57F
:1031500083E0C39403401074852FF582E43402F5B4
:10316000837403F07F01227B017A04793AE4FD7FC6
:1031700012FE12202CBF01037F0122900436E0FBD7
:10318000A3E0FAA3E0F912064EFF7006900439F0AE
:10319000801BEFB401089004397403F0800FEFB482
:1031A00002089004397406F080037F0122E4FFEFE7
:1031B0002401FDE433FC900436E0FBA3E0FAA3E035
:1031C000F98D828C83120667FE900439E02F243A31
:1031D000F582E43404F583E06E603812064EFE2476
:1031E00085F582E43402F583E004F074852EF582DF
:1031F000E43402F583E0C39403401512064E25E043
:1032000024ABF582E43402F5837405F0A374A0F0D6
:103210007F01220FEFB40397900436E0FBA3E0FA9E
:10322000A3E0F912064E2485F582E43402F583E426
:10323000F0FF227F01AE071FEE70FA221200071284
:10324000000780EFAD07AC06E4FBFAC3EB9DEA9CF8
:103250005009513C0BBB00010A80F02224FEFFE420
:1032600034FFFE90043EE0FD7C001206FB90043823
:10327000E0FBA3E0FAA3E02FF9EA3EFA900661EB47
:10328000F0A3EAF0A3E9F090043EE0900664F09029
:103290000441E0900665F090043BE0FBA3E0FAA354
:1032A000E0F990065EEBF0A3EAF0A3E9F0E4900603
:1032B00066F0900664E0FF900666E0FEC39F400261
:1032C00061C3900665E064557039900661E0FBA328
:1032D000E0FAA3E0F98E82758300120667FD90067E
:1032E0005EE0FBA3E0FAA3E0F98E8275830012068C
:1032F00067FED39D40037F0022EEC39D400261BB69
:103300007F0122900664E024FFFFE434FFFE900674
:1033100066E0FDC3EF9DFFEE9400FE900661E0FBCA
:10332000A3E0FAA3E0F98F828E83120667FF90066E
:1033300064E024FFFDE434FFFC900666E0FBC3ED8F
:103340009BFDEC9400FC90065EE0FBA3E0FAA3E09A
:10335000F98D828C83120667D39F40037F002290F1
:103360000664E024FFFFE434FFFE900666E0FDC340
:10337000EF9DFFEE9400FE900661E0FBA3E0FAA350
:10338000E0F98F828E83120667FF900664E024FFC7
:10339000FDE434FFFC900666E0FBC3ED9BFDEC947E
:1033A00000FC90065EE0FBA3E0FAA3E0F98D828CBE
:1033B00083120667C39F50037F0122900666E004D4
:1033C000F041B27F0222900438EBF0A3EAF0A3E9C7
:1033D000F090043FE0FED3940150037F0122EE24DD
:1033E000FFFFE434FFFE90043EE0FD7C001206FB8C
:1033F000900438E0FBA3E0FAA3E02FF9EA3EFAC01C
:1034000002C001A3E0F9A3E0FAA3E09006ACC9F082
:10341000A3EAF0A3E9F090043EE09006AFF0D001FB
:10342000D00212226F90043FE0900442F0900442D8
:10343000E0FFD39401406D900440E064557008EFC4
:10344000515CEF6057800B900442E0515CEF6401E7
:10345000604A900442E024FEFFE434FFFE90043E04
:10346000E0FD7C001206FB900438E0FBA3E0FAA329
:10347000E02FF9EA3EFAC002C001A3E0F9A3E0FAA6
:10348000A3E09006ACC9F0A3EAF0A3E9F090043EF3
:10349000E09006AFF0D001D00212226F900442E01B
:1034A00014F080897F002212064EFF9003FFE4F0A3
:1034B000A3EFF0E0F8E4F0E89003FFF090000112D1
:1034C0000667FF9003FFE0FEA3E04FFF9003FFEECF
:1034D000F0FEA3EFF02291E490045C1209197B0145
:1034E0007A03795E90064DEBF0A3EAF0A3E9F0A32E
:1034F00012092500000000E4900654F0900650E008
:10350000FCA3E0FDA3E0FEA3E0FF78081208EA9028
:103510000650120919900650E0F8A3E0F9A3E0FA6A
:10352000A3E0FBC000C001C002C00390064DE0FB59
:10353000A3E0FAA3E0F9900654E0F5827583001247
:103540000667FFD003D002D001D000EB4FFFEAFEA8
:10355000E9FDE8FC900650120919900654E004F0C9
:10356000E0B40498900650E0FCA3E0FDA3E0FEA3C5
:10357000E0FF22900459EBF0A3EAF0A3E9F0E49015
:103580000461F090045FE014FF90045FE0FEEFC37D
:103590009E4002C16690045CE0FBA3E0FAA3E0F960
:1035A0008F82758300120667FE900461E02EFDE4B1
:1035B000900460F0EDC39E50037401F0E490046148
:1035C000F0900459E0FBA3E0FAA3E0F98F82758341
:1035D00000120667FE540FFCED540FFBECC39B502A
:1035E00034EEC39D900459E0FB500E8F827583002A
:1035F000120667FEC3749A8037A3E0FAA3E0F98F3E
:1036000082758300120667C39D24FA8F827583003A
:103610001206D98044900459E0FBA3E0FAA3E0F934
:103620008F82758300120667FEC39D5015C374A078
:103630009D2E8F827583001206D99004617401F06B
:103640008017900459E0FBA3E0FAA3E02FF9E43AD5
:10365000FA12064EC39D1206C7900460E06004A3F0
:103660007401F01FA1892290043EEBF0A3EAF0A3BD
:10367000E9F0AB05A37401F0A312092500000001D5
:1036800090044612092500000000E490044AF0EB83
:10369000D394005002E1BFEB94054002E1BFEBF090
:1036A00090044AE0D394005002E1BF900446E0F851
:1036B000A3E0F9A3E0FAA3E0FBC000C001C002C090
:1036C0000390043EE0FBA3E0FAA3E0F990044AE093
:1036D000FF7E00E92FF9EE3AFA90FFFF12066754D9
:1036E0000F75F00A84AFF0E4FCFD900442E0F8A30B
:1036F000E0F9A3E0FAA3E0FB12078ED003D002D0DA
:1037000001D000EB2FFFEA3EFEE93DFDE83CFC90D6
:103710000446120919900442E0FCA3E0FDA3E0FE78
:10372000A3E0FFE47B0AFAF9F812078E9004421234
:103730000919900446E0F8A3E0F9A3E0FAA3E0FB3E
:10374000C000C001C002C00390043EE0FBA3E0FA49
:10375000A3E0F990044AE0FF7E00E92FF9EE3AFA7F
:1037600090FFFF12066754F0C4540FFFE4FCFD9075
:103770000442E0F8A3E0F9A3E0FAA3E0FB12078E0D
:10378000D003D002D001D000EB2FFFEA3EFEE93D8E
:10379000FDE83CFC900446120919900442E0FCA3A9
:1037A000E0FDA3E0FEA3E0FFE47B0AFAF9F81207CC
:1037B0008E90044212091990044AE014F0C1A090BE
:1037C0000446E0FCA3E0FDA3E0FEA3E0FF2290049A
:1037D0005DEBF0A3EAF0A3E9F090046212091990FE
:1037E0000460E0A3F0900461E0D394005003023839
:1037F000C0E47B0AFAF9F8A3E0FCA3E0FDA3E0FE35
:10380000A3E0FF120819AF0390045DE0FBA3E0FA08
:10381000A3E0F9900461E0FD7C00E92DF9EC3AFAAF
:1038200090FFFFEF1206D9900462E0FCA3E0FDA335
:10383000E0FEA3E0FFE47B0AFAF9F812081990040D
:103840006212091990045DE0FBA3E0FAA3E0F9908D
:103850000461E0FF7E00E92FF9EE3AFAE924FFF96E
:10386000EA34FFFAC003C002C00112064EFFC007CF
:10387000E47B0AFAF9F8900462E0FCA3E0FDA3E01F
:10388000FEA3E0FF120819AF03EFC454F0FED0E02E
:103890004ED001D002D0031206C7900462E0FCA310
:1038A000E0FDA3E0FEA3E0FFE47B0AFAF9F81208CA
:1038B00019900462120919900461E014F00237E5CE
:1038C00022F0A37406F07B017A027965900421EB63
:1038D000F0A3EAF0A3E9F0E4900428F0900427E0D4
:1038E000FFA3E0FEC39F4002217F900421E0FBA3E1
:1038F000E0FAA3E0F98E82758300120667FDC454D6
:103900000F900429F0ED540FA3F0E4FF74292FF574
:1039100082E43404F583E0FEC3940A501074292F26
:10392000F582E43404F583E02430F08014EEC3948F
:1039300010500E74292FF582E43404F583E0243707
:10394000F00FEFB402C6900428E075F002A4FF90D7
:103950000424E0FBA3E0FAA3E02FF9EA35F0FA90A3
:1039600006ACEBF0A3EAF0A3E9F0A37402F07B014C
:103970007A04792912226F900428E004F001DC22F5
:10398000780D7C047D017BFF7A0D793A7E007F14EF
:103990001206289004247401F0A37404F0A3740D9B
:1039A00011C17B017A04790D51547B017A02796B44
:1039B000900425740CF07F0B900421EFF0A3EBF042
:1039C000A3EAF0A3E9F078267C047D017BFF7A0C62
:1039D00079A47E007F321206289004587401F0A367
:1039E0007404F0A37426F0A37401F0900425E0FFA2
:1039F000601F9006AC7401F0A37404F0A37426F069
:103A0000A3EFF0900422E0FBA3E0FAA3E0F9122276
:103A10006F900421E0FF7B017A04792651B7EF70A3
:103A20002D900990E0FEA3E0AA06F97BFFC003C039
:103A300002900458E0FBA3E0FAA3E0F8AC02AD0367
:103A4000D002D003120B34EF700490045BF09004AA
:103A50005BE0FF22900425740CF07F0921B89006EA
:103A6000AC7401F0A37402F0A37465F0A37406F0C3
:103A70007B017A0179C912226F90026574C0F090BF
:103A800004247401F0A37402F0A3746B11C19002BA
:103A9000777412F0A37434F0A37456F0A37401F099
:103AA000A3E4F0A37430F031807B017A027965E4FD
:103AB000FD7F1BFE021BD590045CEFF0A3EBF0A38F
:103AC000EAF0A3E9F0A37401F0A3F0E4A3F0A3F0FB
:103AD000A3F0A3F078677C047D017BFF7A0D794E1B
:103AE000FE7F321206289004997401F0A37404F04A
:103AF000A37467F0900303E030E102C138D16BBFDB
:103B000001037F0622E4900466F0900466E0FFC3A0
:103B100094125022EF75F00AA424F0F582E4340BDD
:103B2000F583E493FF90045CE0FEEF6E6008900480
:103B300066E004F080D4900466E0C394124002C1B1
:103B400038E4900463F0900303E030E102C138E40C
:103B5000900464F09006AC04F0A37404F0A37467BE
:103B6000F0A37404F07BFF7A0B79EA12226F9004C1
:103B700066E075F00AA424F1F582E4340BF583E4E1
:103B800093FB740193FA740293F912004E9004654A
:103B9000EFF0A3E075F00AA424F1F582E4340BF50C
:103BA00083E493FB740193FA740293F99006AC7466
:103BB00001F0A37404F0A3746BF0A3EFF012226F72
:103BC000900466E075F00AA424F7F582E4340BF55E
:103BD00083E493FF6028900465E0246BF9E43404E7
:103BE000FA9006AC7401F0A3EAF0A3E9F0A3EFF0B9
:103BF00090045DE0FBA3E0FAA3E0F912226F9004C9
:103C000066E075F00AA424F7F582E4340BF583E44A
:103C100093FF900465E02F246BF9E43404FA9006D6
:103C2000AC7401F0A3EAF0A3E9F0A37402F07BFF07
:103C30007A0B79EE12226F900466E075F00AA424E4
:103C4000F7F582E4340BF583E493FF900465E02FED
:103C50002406900464F07F011201C853A9FB7F027F
:103C6000D13EE4900462F0900464E0FF900462E0CE
:103C7000FEC39F505C74672EF582E43404F583E044
:103C8000FF30D004D2DB8002C2DB8FD9E490049CE9
:103C9000F0A3F030D904C2D9802012000790049D0F
:103CA000E004F0700690049CE004F0C390049DE0F2
:103CB00094D090049CE0940740D9C390049DE09474
:103CC000D090049CE094075008900462E004F080D7
:103CD0009643D81053A9FB9004647432F07B017AA8
:103CE000047967E0FF900667E4F0A3EFF0E4FD12CB
:103CF0002CF4E4900462F0900464E0FF900462E02D
:103D0000C39F5054E490049CF0A3F090049CE0FE08
:103D1000A3E0FFC39440EE941F502C30D819C2D8B2
:103D2000900462E02467F582E43404F583E5D9F079
:103D3000E4900461F0801090049DE004F07006901F
:103D4000049CE004F080C4C3EF9440EE941F50083C
:103D5000900462E004F0809F900461E0700A900497
:103D600060F09004637403F0900499E0FBA3E0FA20
:103D7000A3E0F912004E900464EFF0900460E0605C
:103D800002C126900466E075F00AA424F8F582E4E6
:103D9000340BF583E493605BE4900462F090046676
:103DA000E0FF75F00AA424F8F582E4340BF583E40F
:103DB00093FE900462E0FDC39E506BEF75F00AA481
:103DC00024F9F582E4340BF583E4932D2467F5821E
:103DD000E43404F583E0FF90045DE0FBA3E0FAA384
:103DE000E0F98D82758300EF1206D9900462E00439
:103DF000F080AAE4900462F0900462E0FF2467F58A
:103E000082E43404F583E0FE90045DE0FBA3E0FA75
:103E1000A3E0F98F82758300EE1206D9900462E068
:103E200004F0E0B406D27F04D13E900463E004F0D5
:103E3000E0C3940350026146900460E0FF229004C6
:103E40009EEFF030E202801890FFE3E04420F05350
:103E5000B0DF7F037E00121FB390049EE030E00AC3
:103E600090FFE3E04420F043B0202290011CE07F6B
:103E700001B401027F0022900406EFF0A3EBF0A34F
:103E8000EAF0A3E9F0780B7C047D017BFF7A0C79E2
:103E9000D67E007F3212062890043D7401F0900413
:103EA00006E0FF7B017A04790B51B7EF702B900489
:103EB00007E0F9A3E0FAA3E09006ACC9F0A3EAF0AA
:103EC000A3E9F090040AE09006AFF07B017A047950
:103ED0000B12226FE490043DF090043DE0FF22902D
:103EE000040A740CF07F08808E90040A740CF07F32
:103EF0000A80849003FDEBF0A3EAF0A3E9F07801D7
:103F00007C047D017BFF7A0D79357E007F051206EA
:103F1000287B017A04790190040A7405F07F11D19D
:103F200077900400EFF070327F0174012FF582E486
:103F30003404F583E0FE64296020EF24FFFDE434BF
:103F4000FFFC9003FDE0FBA3E0FAA3E0F98D828C77
:103F500083EE1206D90FEFB405D0900400E0FF22E3
:103F60009003FDEBF0A3EAF0A3E9F0E4A3F07801FD
:103F70007C047D017BFF7A0D7930FE7F05120628D7
:103F80009003FDE0FBA3E0FAA3E0F912004E9004D9
:103F900000EFF0D39403504AA37428F09006AC7459
:103FA00001F0A37404F0A37402F0900400E0900602
:103FB000AFF09003FDE0FBA3E0FAA3E0F912226F5B
:103FC000900400E0FF2402F582E43404F5837429B0
:103FD000F07B017A047901EF2402900425F07F1030
:103FE00021B87F0122C0D075D000C006C007AFA79E
:103FF00075A70075B755AEB675B70075AA0075E818
:104000000075B7558EB675B7008FA7D007D006D00C
:10401000D032C0D075D000C006C007AFA775A700CA
:1040200075B755AEB675B70053A8F753883F75B747
:10403000558EB675B7008FA7D007D006D0D032C046
:10404000E0C0F0C083C082C0D075D000C000C00105
:10405000C002C003C004C005C006C0079003CAE583
:10406000A7F075A70075B7559003C9E5B6F075B709
:10407000005388DF758AC0758CE0E5C730E607908D
:104080000303E04402F0900288E0FCA3E0FDA3E01B
:10409000FEA3E0FFA312091974FFFFFEFDFC9002CE
:1040A00088E0F8A3E0F9A3E0FAA3E0FBC31208C696
:1040B000900288501EE0FCA3E0FDA3E0FEA3E024F4
:1040C00001FFE43EFEE43DFDE43CFC900288120961
:1040D0001980071209250000000075B7559003C923
:1040E000E0F5B675B700A3E0F5A7D007D006D00578
:1040F000D004D003D002D001D000D0D0D082D08361
:10410000D0F0D0E032C0D075D000C006C007AFA755
:1041100075A70075B755AEB675B70053A8DF53C87D
:104120003375B7558EB675B7008FA7D007D006D0B8
:10413000D032C0D075D000C006C007AFA775A700A9
:1041400075B755AEB675B70053A8BF53C11F75B745
:10415000558EB675B7008FA7D007D006D0D032C025
:10416000E0C083C082C0D075D000C005C006C007C3
:10417000AFA775A70075B755AEB675B700AD977503
:104180009700ED30E31D90000AE090000930E20551
:10419000E004F0800EE0FD900008E02DF0E004F077
:1041A000A3E4F075B7558EB675B7008FA7D007D0CA
:1041B00006D005D0D0D082D083D0E032C0E0C0831A
:1041C000C082C0D075D000C006C007AFA775A700D9
:1041D00075B755AEB675B70090FFB6E4F090FFB76F
:1041E000F053A9FD75B7558EB6F5B78FA7D007D098
:1041F00006D0D0D082D083D0E032C0D075D000C0FD
:1042000006C007AFA775A70075B755AEB675B7005E
:1042100053A9DF75C60075B7558EB675B7008FA761
:10422000D007D006D0D032C0E0C083C082C0D075E5
:10423000D000C004C006C007ACA775A70075B7556D
:10424000AEB675B70090FFD0E054FCF053A9FD75F1
:10425000B755AF068FB675B700AF048FA7D007D09C
:1042600006D004D0D0D082D083D0E03278E47C0372
:104270007D017BFF7A0D79087E007F14120628E409
:104280009003FBF0A374FFF07B017A0379E4E4FF71
:10429000123AB79003FCEFF0BF01037FFF229003B7
:1042A000FCE0B406037F03229003F87401F0A374CA
:1042B00003F0A374E4F0E4A3F09003FBE0FFC394E5
:1042C00006503DEF25E02482F582E43409F583E0D1
:1042D000FEA3E0AA06F97BFFC003C0029003F8E04A
:1042E000FBA3E0FAA3E0F8AC02AD03D002D00312C6
:1042F0000B34EF70030080089003FBE004F080B9FA
:104300009003FBE0FFC394065003A3EFF09003FC7F
:10431000E0FF229009CC7401F0229009C8E4F090EB
:1043200009C9E4F090FFE8E0FFEF4480FF90FFE868
:10433000EFF090FFE8E0FFEF54BFFF90FFE8EFF0F1
:1043400053EC7F9009C9E4F09009C9E0FFEFC394F2
:1043500008503371139009C8E0FFEF25E0FF900982
:10436000C8EFF043EC80E5EC30E60E9009C8E0FFC2
:10437000EF4401FF9009C8EFF0711353EC7F9009EF
:10438000C9E004F080C290FFE8E0FFEF4440FF90F6
:10439000FFE8EFF043EC4043EC8012263D53EC7F06
:1043A0009009C8E0FF229009C6E4F09009C774089C
:1043B000F090FFE8E0FFEF4480FF90FFE8EFF0901F
:1043C000FFE8E0FFEF54BFFF90FFE8EFF053EC7F12
:1043D0009009C7E4F09009C7E0FFEFC39408503D8F
:1043E00071139009C6E0FFEF25E0FF9009C6EFF0DA
:1043F00043EC80E5EC30E60E9009C6E0FFEF4401A7
:10440000FF9009C6EFF071139009C6E0FF9009C64E
:10441000EFF053EC7F9009C7E004F080B890FFE81C
:10442000E0FFEF4440FF90FFE8EFF053ECBF43ECB8
:104430008012263D53EC7F43EC409009C6E0FF22FA
:1044400090FF84E0FFEF54FFFF90FF84EFF090FFB8
:1044500085E0FFEF54FEFF90FF85EFF090FFE9E06D
:10446000FFEF4401FF90FFE9EFF053EDFE229009CA
:10447000AE740EF09009A9EEF0A3EFF09009ABEB4B
:10448000F0A3EAF0A3E9F09009A9E0FEA3E0FF9011
:1044900009AFEEF0A3EFF09009A9E0FEA3E0FFEF73
:1044A0005407FFC374089FFF9009B1EFF09009B261
:1044B000E4F09009B1E0FF9009AEE0FEEEC39F503A
:1044C0000A9009AEE0FF9009B1EFF09009AFE0FE6D
:1044D000A3E0FF9009ABE0FBA3E0FAA3E0F99009A9
:1044E000B2E0FD7C00E92DF9EA3CFA9009B1E0FD6B
:1044F000900997EDF0122430EFB401037F01229070
:1045000009B1E0FF9009B2E02FF09009B2E0FF7E20
:10451000009009A9E0FCA3E0FDEF2DFFEE3CFE902A
:1045200009AFEEF0A3EFF09009B2E0FF9009AEE022
:10453000FEC3EE9FFF9009B1EFF09009B1E0FFEFED
:10454000D3940840069009B17408F09009B1E0FFD7
:10455000EF600281CB7F00229009B3EEF0A3EFF071
:104560009009B5EDF09009B6EBF0C2AF9009B5E057
:10457000FF8FEF9009B3E0FEA3E0FFEF54FFF5EEED
:104580009009B3E0FEA3E0FFEEFF7E008FF775A772
:104590000175F26E75F30575F40A75F5099009B6A3
:1045A000E0FFEFB4680775F6060000000075A7008D
:1045B00075F700D2AF2290065EEEF0A3EFF0A3EB0A
:1045C000F0A3EAF0A3E9F075E75575C7840000E5AC
:1045D000C730E6037FFF22900311E0646860037F29
:1045E000FF22900663E0FEA3E0FF90065FE02FFF4E
:1045F00090065EE03EFED3EF9400EE941040037F01
:10460000FF22D3900664E09400900663E09400409B
:1046100045900660E0FBA3E0FAA3E0F912064EFC29
:1046200090065EE0FEA3E0FFAD047B68B158900603
:104630005FE004F0700690065EE004F0900661E42E
:1046400075F001120762900664E024FFF0900663A3
:10465000E034FFF080AC7F00228F828E83E4FFED98
:10466000B4680DC2AF75A701E493FFE4F5A7D2AF1C
:1046700022900311E04420F07B017A04795E9004DB
:104680005AE0FCA3E0FD9006637402F0A3E4F0900E
:104690000661ECF0A3EDF075E75575C7840000E501
:1046A000C730E6037FFF22900663E0FEA3E0FF90A1
:1046B0000662E02FFF900661E03EFED3EF9400EE2D
:1046C000941040037FFF22D3900664E0940090068C
:1046D00063E094004035900661E0FEA3E0FF7D6852
:1046E000D159EF1206C7740129F9E43AFA9006622B
:1046F000E004F07006900661E004F0900664E024A7
:10470000FFF0900663E034FFF080BC7F0022E0FE03
:10471000A3E0FF7B68E4FD9009B7EEF0A3EFF09013
:1047200009B9EDF09009BAEBF075E75575C784004B
:1047300000E5C720E655900311E0FFEF6468704B79
:10474000C2AF9009B9E0FF8FEF9009B7E0FEA3E098
:10475000FFEF54FFF5EE9009B7E0FEA3E0FFEEFF98
:104760007E008FF775A70175F2E675F30575F40AFB
:1047700075F5099009BAE0FFEFB4680775F6060011
:1047800000000075A70075F700D2AF2290FFE5E0AA
:1047900054FBF090FFF5E04404F022F18CE5E920B1
:1047A000E229900280E004F0700690027FE004F0BD
:1047B000C3900280E094FA90027FE09400401AE4F3
:1047C000F0A3F090030DE04401F022E490027FF0AA
:1047D000A3F090030DE054FEF02290FFE2E054FBC2
:1047E000F090FFF2E04404F022F1DA90030EE030A2
:1047F000E216E5A030E203024889E04401F0E0540B
:10480000FBF0E4900234F02290030EE030E061E52A
:10481000A020E26A900234E004F0E0FF7408D39F25
:10482000506790030EE04402F0E054FEF0E4900282
:1048300034F090030CE04408F09002301209250097
:1048400000003C900228741EF0900235E0700B903E
:10485000023CF09002357468F02290023CE004F0D3
:104860009001E7E0FF90023CE0C39F401CE4F0228F
:1048700090030EE030E107E5A030E20D8000E49007
:104880000234F090030E7404F022EF1460210470DF
:104890002411F77FFF11B643D18090FFE1E0440877
:1048A000F05390F790FFE9E04402F053EDFD221140
:1048B000F7E4FF11B622E4FE743D2EF582E43402E3
:1048C000F583EFF00EEEB428EF7F007E25E4FD7453
:1048D0003D2DF582E43402F583E0FCEF2DF582E412
:1048E0003EF583ECF0743D2DF582E43402F583E46B
:1048F000F00DEDB428D92253D17F311B90FF807485
:10490000F0F090FF817403F090FF8274FEF090FF4E
:10491000837401F090FF8574FCF022E5D15470643B
:1049200030600653D18F43D130E5D154076407601E
:104930000653D1F843D107E5D25407640260065309
:10494000D2F843D202225380FD0000438004224368
:10495000800200005380FB225380FD005380FB2225
:10496000900283E0600FE014F0E0FF7E00BE0207DB
:10497000BF40048000315822900477E0FD9004800D
:10498000EDF0E4FF7E08EF25E0FFEE7C0024FFF56C
:1049900082EC34FFF583120667FD900480E05D60D1
:1049A000010FDEE222900473EBF0A3EAF0A3E9F03A
:1049B0009004777440F0E4900476F0900476E0FF81
:1049C000C394085036EFB40404A37480F0900473C9
:1049D000E0FBA3E0FAA3E0F93178900476E02478D4
:1049E000F582E43404F583EFF0900477E0FF1313CD
:1049F000543FF0900476E004F080C0900473E0F936
:104A0000A3E0FAA3E09006ACC9F0A3EAF0A3E9F0B2
:104A1000A37408F07B017A04797802226F900489EC
:104A200074FFF0A3740FF0A374EBF0A374FFF0A372
:104A30007410F0A37423F0A37407F0900486EBF0D5
:104A4000A3EAF0A3E9F0E4F52090049004F09004C8
:104A50008FE075F008A42401FFE435F0FEA3E0FD2B
:104A6000C39FEE6480F8748098507DE52025E0F5C2
:104A700020EDFF7E0024FFFDEE34FFFC900489E072
:104A8000FBA3E0FAA3E0F98D828C83120667FD9008
:104A90000486E0FBA3E0FAA3E0F98D82758300129F
:104AA0000667FDEF24FFFFEE34FFFE90048CE0FB71
:104AB000A3E0FAA3E0F98F828E831206675D60029D
:104AC0000520900490E0FF54077015EF1313135462
:104AD0001F2490F582E43404F583E520F0E4F5200A
:104AE000900490E004F0414E900486E0F9A3E0FACF
:104AF000A3E09006ACC9F0A3EAF0A3E9F090048F1C
:104B0000E09006AFF07B017A04799102226F900465
:104B100073EBF0A3EAF0A3E9F02404F9E43AFA9085
:104B200006AC7401F0A37404F0A3747AF0A37404C7
:104B3000F012226F90048974FFF0A37410F0A37434
:104B4000FBF0A374FFF0A37410F0A374CBF0A37474
:104B500006F07B017A04797A513BE4900479F09075
:104B60000479E0FF247AF582E43404F583C083C03D
:104B700082E0FE900476E0FBA3E0FAA3E0F98F82E6
:104B8000758300120667FFEE6FD082D083F0900429
:104B900079E004F0E0B406C7E4900479F090047979
:104BA000E0FFC39402400281C5E0FE75F003A42437
:104BB0007AF582E43404F583E0FDC45430FCEE75EC
:104BC000F003A4247BF582E43404F583E0C4540F9D
:104BD0004CF520ED1313543FFE900479E0FD75F081
:104BE00000A4246BF582E5F03411F583ED2583F5FF
:104BF00083E5822EF582E43583F583E493FE75F038
:104C000000EDA424ABF582E5F03411F583ED2583A6
:104C1000F583E5822520F582E43583F583E493FD71
:104C2000EE4DFE900479E0FD25E02482F582E43427
:104C300004F583EEF0ED75F003A4247BF582E434F3
:104C400004F583E025E025E0543FFEED75F003A474
:104C5000247CF582E43404F583E0FDC4131354038B
:104C60004EF520ED543FFE900479E0FD75F000A470
:104C7000242BF582E5F03412F583ED2583F583E5E9
:104C8000822EF582E43583F583E493FE75F000ED22
:104C9000A424EBF582E5F03411F583ED2583F5834B
:104CA000E5822520F582E43583F583E4934EFEEF1B
:104CB00025E02483F582E43404F583EEF090047952
:104CC000E004F0619D90048974FFF0A37411F0A3D7
:104CD000744BF0A374FFF0A37411F0A3742BF0A332
:104CE0007404F07B017A047982513BE4900479F0FA
:104CF000900479E0FFC39404505B7E00EF2404FD30
:104D0000EE33FC900473E0FBA3E0FAA3E0F98D829C
:104D10008C83120667F520900479E0FDF582758397
:104D200000120667FC74822DF582E43404F583E0FA
:104D30006CFD74042FF582E433F583ED1206D990EF
:104D40000479E0F582758300E5201206D990047994
:104D5000E004F0809B22900473EBF0A3EAF0A3E957
:104D6000F0A3EDF012064E900477F09000011206C9
:104D700067900478F0900002120667900479F09032
:104D8000000312066754F090047AF0BD02339004D9
:104D900077E0FCA3E0FDA3E0FEA3E0FF78011208AA
:104DA000EA900477120919900473E0FBA3E0FAA3D8
:104DB000E0F912064E30E74490047AE04410F080A7
:104DC0003B900477E0FCA3E0FDA3E0FEA3E0FF78C6
:104DD000011208D790047712091990047AE054F070
:104DE000F0900473E0FBA3E0FAA3E0F99000031253
:104DF000066730E407900477E04480F0900473E0A5
:104E0000FBA3E0FAA3E0F9900003120667540F90A9
:104E1000047BF090000412066790047CF09000057B
:104E200012066790047DF090000612066790047EDB
:104E3000F0900476E06402703D90047BE0FCA3E017
:104E4000FDA3E0FEA3E0FF78011208EA90047B12C4
:104E5000091990047BE0540FF0900473E0FBA3E089
:104E6000FAA3E0F990000312066730E33D90047E58
:104E7000E04401F0803490047BE0FCA3E0FDA3E07B
:104E8000FEA3E0FF78011208D790047B1209199065
:104E90000473E0FBA3E0FAA3E0F9900006120667B2
:104EA00030E00790047BE04408F090047AE0FFA330
:104EB000E0FEEF4E90047AF090047CE090047BF0EA
:104EC00090047DE090047CF090047EE090047DF0FE
:104ED000900473E0F9A3E0FAA3E09006ACC9F0A354
:104EE000EAF0A3E9F0A37407F07B017A0479770272
:024EF000226F2F
:10800000EF14602104703BE5876003E4F587539823
:10801000F74398C0E4FF11D690049EE599F0539879
:10802000EC43A81022E5876003E4F58753D8F343B7
:10803000D8C07F0111D690049EE5D9F053D8EC4307
:10804000A90422EF14605104600201D5E5876003A2
:10805000E4F587E598440860035398F7E59854C021
:1080600064C060034398C090FFE2E054BFF090FF0B
:10807000F2E054BFF090FFE2E04480F043A080E4DF
:10808000FF11D6E4FF1201919003EAE599F05398AD
:10809000FC43981043A81022E5876003E4F587535A
:1080A000D8F343D8C090FFE3E054FEF090FFF3E034
:1080B00054FEF090FFE3E04402F043B0027F011170
:1080C000D67F011201919003EAE5D9F053D8FC4321
:1080D000D81043A90422EF14602C04704CE59D6471
:1080E000CC6003759DCCE59C647F6003759C7FE547
:1080F0009E540F64016006539EF0439E01E59C2050
:10810000E727439C8022E5DD64F3600375DDF3E53A
:10811000DC647F600375DC7FE59E54F06003539E52
:108120000FE5DC20E70343DC8022E4FF11437F01FD
:1081300011437F0211437F030143E4F5B1F5A8F534
:10814000A9D1BF12ADAA12ADF651C2D1BA12A7DFA2
:10815000128E65312A315CD2AF7F0022E49003ECAD
:10816000F07FAAD107759560E4F596F59753A9FEBF
:1081700043B480900413120925000000E87F3351B6
:108180006A7F057E00121FB39004131209250000B8
:108190000C847F32516AE49003ECF09003ECE0FE33
:1081A00075F005A424B9F582E43419F583E493FF4E
:1081B000C007EE75F005A424BAF582E43419F583FE
:1081C000120909900413120919D007516A9003EC9F
:1081D000E004F0E0C3942040C27B017A097941E4D5
:1081E000FD7F06FE12202CE49003ECF09003ECE0FF
:1081F000FE75F005A42459F582E4341AF583E4935E
:10820000FFC007EE25E025E02441F582E43409F5BE
:1082100083E0FCA3E0FDA3E0FEA3E0FF90041312C3
:108220000919D007516A9003ECE004F0E0C394050B
:1082300040BA7F647E00121FB39004131209250018
:108240000000357F30516A7F55D107900413120921
:108250002500A000C17F31516A7FF47E01121FB357
:10826000E4F59775960843A90122900412EFF0A354
:10827000E0FCA3E0FDA3E0FEA3E0FFA3120919E4E4
:10828000F5917F06FE123244C2AF900418E0F592D9
:10829000A3E0F593A3E0F5940000000000000000C7
:1082A00000000000000000000000000000000000CE
:1082B000900412E04480F5917F067E00123244D291
:1082C000AF227B017A037903900667E4F0A3740F71
:1082D000F0E4FD122CF47B017A027988900667E4C1
:1082E000F0A3743AF0E4FD122CF47B017A0179E4F6
:1082F000900667E4F0A37481F0E4FD122CF47B0196
:108300007A03796C900667E4F0A37410F0E4FD1230
:108310002CF47B017A007908900667E4F0A37408D6
:10832000F0E4FD122CF47B017A007900900667E4FA
:10833000F0A37408F0E4FD122CF47B017A0279C2F8
:10834000900667E4F0A3740AF0E4FD122CF47B01BC
:108350007A0279CC900667E4F0A37429F0E4FD1268
:108360002CF47B017A02797F900667E4F0A374090C
:10837000F0E4FD122CF49003107401F012AD001221
:10838000B2E912A3D312B1D612B0DA12A5E012A349
:1083900028E49008A2F0900309E054FBF0E4900276
:1083A00037F0900303E04401F090030CE04403F045
:1083B0009001E4E0FF7E007C037DE81206FB7C0177
:1083C0007DF412070DE4FCFD9002301209199003B0
:1083D0000E7404F09001E4E0900228F0900229F07D
:1083E0007B017A037906E4FD7F0FFE12202CEF60FB
:1083F00005E4900306F0900306E030E607900309D9
:10840000E04420F0E490045AF0A3F07B017A047970
:1084100041FD7F11FE12202C900306E030E56D7BBC
:10842000017A0479511234D690046012091990042B
:1084300060E0FCA3E0FDA3E0FEA3E0FFEC4D4E4FA7
:10844000603790045CE0F8A3E0F9A3E0FAA3E0FB56
:10845000C31208C6400F90045A7401F0900306E05E
:1084600030E4298021E490045AF0A3F0900306E060
:1084700054DFF0E054EFF0801390045A7401F09050
:108480000306E030E40690045B7401F07B017A049B
:1084900079411234D6900460120919900460E0FC0E
:1084A000A3E0FDA3E0FEA3E0FF90045CE0F8A3E0FE
:1084B000F9A3E0FAA3E0FBC31208C65002A1C490DE
:1084C000030AE04401F07B017A0479451234E49018
:1084D000045C120919900460E0FCA3E0FDA3E0FE37
:1084E000A3E0FF90045CE0F8A3E0F9A3E0FAA3E0C6
:1084F000FBC31208C65002A1BB90030AE020E104AE
:10850000E04402F0E4FFFEFDFC900460E0F8A3E02C
:10851000F9A3E0FAA3E0FBC31208C66002A1A5908C
:10852000030AE020E204E04404F07B017A0379646A
:108530001234E490045C120919E4FFFEFDFC90047F
:108540005CE0F8A3E0F9A3E0FAA3E0FBC31208C6DD
:10855000600D90030AE020E30DE04408F0800790EE
:10856000030AE054F7F07B017A04794D1234E49069
:108570000460120919900460E0FCA3E0FDA3E0FE92
:10858000A3E0FF90045CE0F8A3E0F9A3E0FAA3E025
:10859000FBC31208C6900306E040054420F0803279
:1085A00054DFF0802D90030AE054F7F0900306E0CA
:1085B00054DFF090030AE054FB800F90030AE0546C
:1085C000E1F0800E90030AE054E0F0900306E054DE
:1085D000EFF090045AE0B40107900306E04420F065
:1085E00090045BE0B40107900306E04410F09003B0
:1085F00006E030E504E04410F07B017A037906E4FC
:10860000FD7F0FFE021BD5EFB4550443958022E495
:10861000F595F596F59753A9FE22900410EFF0C05A
:108620000790040CE0FCA3E0FDA3E0FEA3E0FF90B4
:108630000413120919D007516A900410E0B43618D7
:1086400090040CE0FCA3E0FDA3E0FEA3E0FF900497
:10865000131209197F36516AE4900411F090041145
:10866000E0FFC394055052EF75F005A42459F5823C
:10867000E4341AF583E493FF900410E0FEEFB506AE
:108680003090040CE0FCA3E0FDA3E0FEA3E0FF902B
:108690000411E025E025E02441F582E43409F58366
:1086A0001209197B017A097941E4FD7F06FE021B5C
:1086B000D5900411E004F080A422E4FF02488A531C
:1086C000A9DF75E755E4F5C675E755F5C775E755B4
:1086D00075C78475E75575B30175E755F5B412B2E2
:1086E000CEBF010312ADA4E5C730E6037F012253DC
:1086F000A9DF7F0022900303E030E14EF1569003A2
:1087000003E030E20A12B566900303E054FBF0E4A4
:108710009003E3F07F0A7E00121FB312B2CEBF01B6
:1087200009900303E04402F0F164E4F5B19003E33F
:10873000E004F0E0C3940A40DB900303E020E1088A
:10874000E054FDF0E04401F0313A900303E020E210
:1087500004E04404F02212B5B712B5C6128E607F51
:108760000102488AF175F15612B5B412B54512B539
:10877000B512B5B62290FFE0E054FDF0E054FBF0F6
:10878000E054F7F0E0547FF090FFF0E054FDF0E0AB
:1087900054FBF0E054F7F0E0547FF05380FD538039
:1087A000FB5380F753807F90FF88E054FDF0E05446
:1087B000FBF0E054F7F0E0547FF090FF8BE054FDC5
:1087C000F0E054FBF0E054F7F0E0547FF090FF8EBF
:1087D000E054FDF0E054FBF0E054F7F0E0547FF09B
:1087E00090FFFAE054FDF0E054FBF0E054F7F0E0C5
:1087F000547FF090FFE1E054FEF0E054F7F0E054D5
:10880000EFF090FFF1E054FEF0E054F7F0E054EFA9
:10881000F05390FE5390F75390EF90FFE2E054FB3B
:10882000F0E054BFF0E0547FF090FFF2E054FBF032
:10883000E054BFF0E0547FF053A0FB53A0BF53A01F
:108840007F90FF89E054FBF0E054BFF0E0547FF0EC
:1088500090FF8DE054FBF0E054BFF0E0547FF090C7
:10886000FF8FE054FBF0E054BFF0E0547FF090FF46
:10887000FBE054FBF0E054BFF0E0547FF090FFE3E6
:10888000E054FEF0E054FDF0E054EFF0E054DFF08F
:10889000E054BFF090FFF3E054FEF0E054FDF0E050
:1088A00054EFF0E054DFF0E054BFF053B0FE53B0AB
:1088B000FD43B01053B0DF53B0BF90FF8AE054FEC9
:1088C000F0E054FDF0E054EFF0E054DFF0E054BF8E
:1088D000F090FFE4E054EFF0E054DFF0E054BFF03C
:1088E000E0547FF090FFF4E054EFF0E054DFF0E06C
:1088F00054BFF0E0547FF053C0EF53C0DF53C0BF0C
:1089000053C07F90FFE5E054FEF0E054FDF0E054EA
:10891000FBF0E054F7F0E054EFF0E054DFF0E05407
:10892000BFF0E0547FF090FFF5E054FEF0E054FD1E
:10893000F0E054FBF0E054F7F0E054EFF0E054DFE7
:10894000F0E054BFF0E0547FF053E9FE53E9FD53EB
:10895000E9FB53E9F753E9EF53E9DF53E9BF53E983
:108960007F90FFE6E054FDF0E054FBF0E054F7F0B8
:10897000E054EFF0E054DFF0E054BFF0E0547FF05B
:1089800090FFF6E054FDF0E054FBF0E054F7F0E027
:1089900054EFF0E054DFF0E054BFF0E0547FF053C8
:1089A000EAFD53EAFB53EAF753EAEF53EADF53EAEF
:1089B000BF53EA7F90FFE7E054FEF0E054FDF0E0A3
:1089C00054DFF090FFF7E054FEF0E054FDF0E05487
:1089D000DFF053EBFE53EBFD53EBDF90FFE8E05489
:1089E000BFF0E0547FF090FFF8E054BFF0E0547F18
:1089F000F053ECBF53EC7F90FFE9E054FEF0E054FD
:108A0000FDF0E054FBF0E054F7F0E054EFF0E054F8
:108A1000DFF0E054BFF0E0547FF090FFF9E054FE47
:108A2000F0E054FDF0E054FBF0E054F7F0E054EFD8
:108A3000F0E054DFF0E054BFF0E0547FF053EDFE7F
:108A400053EDFD53EDFB53EDF753EDEF53EDDF53D6
:108A5000EDBF53ED7F2278FD7C037D017BFF7A0023
:108A600079EC7E007F0712062812952A7B017A0195
:108A700079C9E4FD7F10FE12202CEF604D7B017A56
:108A80000179C9900667E4F0A3741BF0E4FD122C91
:108A9000F49001CE7401F09001D4F09001DAF090DE
:108AA00001DDF09001E0F0A374FFF07B017A017921
:108AB000C9E4FD7F10FE121BD5123A5E7B017A01DC
:108AC00079C9E4FD7F10FE121BD57B017A03796C16
:108AD000900667E4F0A37410F0E4FD122CF4900308
:108AE0006C7403F0A37410F07B017A03796CE4FDDD
:108AF0007F0AFE121BD59001E47405F0A3F0A37465
:108B000007F0A3F07B017A0179E4E4FD7F19FE12FE
:108B10001BD57B017A0179EA900667E4F0A3743EE5
:108B2000F0E4FD122CF49006AC7401F0A37401F093
:108B3000A374EAF0A37407F07B017A0379FD122293
:108B40006F9006AC7401F0A37402F0A37408F0A354
:108B50007407F07B017A0379FD12226F7B017A01A1
:108B600079EAE4FD7F1AFE121BD57B017A0279F5C2
:108B7000900667E4F0A3740EF0E4FD122CF490026A
:108B8000F77450F07B017A0279F5E4FD7F04FE1260
:108B90001BD57B017A03797C900667E4F0A37419F6
:108BA000F0E4FD122CF490037E7420F090038274A4
:108BB00010F07B017A03797CE4FD7F11FE121BD556
:108BC0007B017A047904900667E4F0A37409F0E469
:108BD000FD122CF47B017A047904E4FD7F12FE126D
:108BE0001BD57B017A027985900667E4F0A37403B4
