:020000040000FA
:08000000020B79023D152222DA
:0F000B00023D6FEF240A83900100730A2D50739A
:03001B00023D4261
:0300230002319611
:03002B00023E355D
:03003300023E6228
:03003B00023E8FF3
:03004300023EEC8E
:10004B000232EE01020A0B09030401020A0B090337
:10005B00043EFA7B01022A2E023F2AE4FF122942B8
:06006B001227440227C227
:10007300023F57900CD21208FD7810EC4D4E4F7092
:10008300047CA57DA5C3EC13FCED13FDEE13FEEF7D
:1000930013FF5010EC64CCFCED644CFDEE644EFE9B
:1000A300EF64CEFFD8DF900CD2120919EE547FFE15
:1000B30022900CD2EEF0EFA3F0A374A5F0A3F022EC
:1000C300300100000C0333020012300004002C3412
:1000D3000006000E1D0008000C1E000A000C0002A2
:1000E300060A0E050204040404900CE27401F09065
:0A00F3000CE2E0FF14F0EF70F622BB
:10010000C0087401C0E0C082C08375080AC0F085D1
:10011000A8F0C2AF75B75575B61175B70085F0A8D0
:10012000D0F022C0087401C0E0C082C08375082DE1
:10013000C0F085A8F0C2AF75B75575B61175B70098
:1001400085F0A8D0F022C0087401C0E0C082C0834E
:10015000750850C0F085A8F0C2AF75B75575B622C6
:1001600075B70085F0A8D0F022C0087401C0E0C0C7
:1001700082C083750873C0F085A8F0C2AF75B7550B
:1001800075B63375B70085F0A8D0F02290800021B5
:10019000469082CA214690840D21469086A421462D
:1001A00090E036214690C70C214690F4DD21469020
:1001B000F2D7214690990B212390813A212390A0D8
:1001C0008621239080432123908000212390911D3C
:1001D000212390A44A21239086D6212390AD082183
:1001E00023908A292123908FC321239084232123C4
:1001F000909373212390BBB6212300020543E8644A
:1002000080F8E933E83360110460F0ED33EC3370CB
:1002100009E8FCE9FDEAFEEBFF220460DED3EB9F78
:10022000EA9EE99DE8C2E78CF0C2F795F0400CE841
:10023000CCF8E9CDF9EACEFAEBCFFB12050E85D06A
:10024000F05804700320D5B3E80470075002B2D50B
:1002500002054D92D5EC0460F7E4CCC0E0C398F8F9
:10026000603B94186008400DD0E0FB020525E4FBDC
:10027000FAC9FC8028E830E406E4C9FBE4CAFCE8DB
:1002800030E305E4C9CACBFCE854076010F8C3E9C1
:1002900013F9EA13FAEB13FBEC13FCD8F130F52F4A
:1002A000C3E49CFCEF9BFFEE9AFEED99FDD0E0FBD2
:1002B000EF4E4D4C701222DB0302054AEC2CFCEF92
:1002C00033FFEE33FEED33FDED30E7EB020525EFB6
:1002D0002BFFEE3AFEED39FDD0E0FB50130BBB00D7
:1002E0000302054DED13FDEE13FEEF13FFEC13FCBF
:1002F000020525EC4D6011E8497017ED33EC33042D
:10030000600DE4FCFFFEFD22E933E8330470F802DF
:10031000054312050E58046009E4CC2481500628D8
:10032000500902054D28400302054AC0E0EB4A701F
:1003300044B98006D0E0FB020539EF4E701CBD8049
:1003400008EBFFEAFEE9FD80EBE98DF0A4FEE5F0A5
:100350000203DCE9CDF9EAFEEBFFEF89F0A4FCE54E
:10036000F0CE89F0A42EFFE435F0CD89F0A42DFE67
:10037000E435F08067EF4E7005BD80D780C3EF8B0A
:10038000F0A4ACF0EE8BF0A42CFCE435F0F8EF8A8E
:10039000F0A42CE5F038FCE433CB8DF0A42CFCE584
:1003A000F03BF8EE8AF0A42CFCE5F038F8E433CF0B
:1003B00089F0A42CFCE5F038CF3400CE89F0A42FCE
:1003C000FFE5F03EFEE433C98DF0A42EFEE5F039E2
:1003D000CD8AF0A42FFFE5F03EFEE43DFD33D0E0F2
:1003E000FB50070BBB000F02054DEC2CFCEF33FF5D
:1003F000EE33FEED33FD02052502054DEC5D046094
:1004000005E85904700302054312050E580460F60E
:10041000EC4860F2EC7004FDFEFF22C860DB248132
:10042000C85009C3986002500602054A9850CAF5A0
:1004300082E9294B4A7005AB8202053975F0007CD0
:100440001A7880C3EF9BEE9AED99400DC3EF9BFFA6
:10045000EE9AFEED99FDE842F0DC23ACF0D0E0FF2F
:10046000D0E0FED0E0FDAB8220E7101BEB60BAECE1
:100470002CFCEF33FFEE33FEED33FD020525E803E0
:10048000F830E705C0F075F000EF2FFFEE33FEED1A
:1004900033FD40B830E7C280AA75F020800E75F0B9
:1004A00010800575F0087D007E007F003392D53006
:1004B000D5031208B8EC334010EF33FFEE33FEEDF6
:1004C00033FDEC33FCD5F0ED22E5F0247EA2D5130C
:1004D000CC92E7CDCEFF22EDD2E7CD33EC3392D5EF
:1004E00024814006E4FFFEFDFC22FCE4CFCECDCC0F
:1004F00024E0501174FF80EDC3CC13CCCD13CDCECE
:1005000013CECF13CF0470F030D5DE0208B8E9D295
:10051000E7C933E833F892D5EDD2E7CD33EC33FCBD
:100520005002B2D522EC30E7100FBF000C0EBE0017
:10053000080DBD00040BEB6014A2D5EB13FCED928B
:10054000E7FD2274FFFCFDFEFF22E480F8A2D574D3
:10055000FF13FC7D80E480EFE709F608DFFA8046B0
:10056000E709F208DFFA803E88828C83E709F0A36E
:10057000DFFA8032E309F608DFFA8078E309F2084F
:10058000DFFA807088828C83E309F0A3DFFA80644D
:1005900089828A83E0A3F608DFFA805889828A83F9
:1005A000E0A3F208DFFA804C80D280FA80C680D4C3
:1005B000806980F28033801080A680EA809A80A8CB
:1005C00080DA80E280CA803389828A83ECFAE493FD
:1005D000A3C8C582C8CCC583CCF0A3C8C582C8CC8B
:1005E000C583CCDFE9DEE7800D89828A83E493A3AB
:1005F000F608DFF9ECFAA9F0EDFB2289828A83EC98
:10060000FAE0A3C8C582C8CCC583CCF0A3C8C58214
:10061000C8CCC583CCDFEADEE880DB89828A83E44C
:1006200093A3F208DFF980CC88F0EF60010E4E60F2
:10063000C388F0ED2402B4040050B9F582EB240223
:10064000B4040050AF23234582239005A873BB0157
:100650000689828A83E0225002E722BBFE02E3225F
:1006600089828A83E49322BB010CE58229F582E525
:10067000833AF583E0225006E92582F8E622BBFEA4
:1006800006E92582F8E222E58229F582E5833AF53A
:1006900083E49322BB010FF8E58229F582E5833AD2
:1006A000F583E028F0225009C58229F8E58226F674
:1006B00022BBFE09C58229F8E22582F222F8EA254A
:1006C00083F583E9932822BB010689828A83F0227D
:1006D0005002F722BBFE01F322F8BB010DE582298F
:1006E000F582E5833AF583E8F0225006E92582C8D1
:1006F000F622BBFE05E92582C8F222EF8DF0A4A800
:10070000F0CF8CF0A428CE8DF0A42EFE22BC000BDE
:10071000BE0029EF8DF084FFADF022E4CCF875F037
:1007200008EF2FFFEE33FEEC33FCEE9DEC98400516
:10073000FCEE9DFE0FD5F0E9E4CEFD22EDF8F5F0DC
:10074000EE8420D21CFEADF075F008EF2FFFED33E4
:10075000FD4007985006D5F0F222C398FD0FD5F062
:10076000EA22C5F0F8A3E028F0C5F0F8E58215828A
:1007700070021583E038F022A3F8E0C5F025F0F010
:10078000E582158270021583E0C838F0E822E88F10
:10079000F0A4CC8BF0A42CFCE98EF0A42CFC8AF005
:1007A000EDA42CFCEA8EF0A4CDA8F08BF0A42DCC07
:1007B0003825F0FDE98FF0A42CCD35F0FCEB8EF060
:1007C000A4FEA9F0EB8FF0A4CFC5F02ECD39FEE446
:1007D0003CFCEAA42DCE35F0FDE43CFC2275F0088B
:1007E000758200EF2FFFEE33FECD33CDCC33CCC579
:1007F0008233C5829BED9AEC99E58298400CF58294
:10080000EE9BFEED9AFDEC99FC0FD5F0D6E4CEFB05
:10081000E4CDFAE4CCF9A88222B800C1B90059BAF3
:10082000002DEC8BF084CFCECDFCE5F0CBF9781821
:10083000EF2FFFEE33FEED33FDEC33FCEB33FB101B
:10084000D703994004EB99FB0FD8E5E4F9FA227835
:1008500018EF2FFFEE33FEED33FDEC33FCC933C947
:1008600010D7059BE99A4007EC9BFCE99AF90FD851
:10087000E0E4C9FAE4CCFB2275F010EF2FFFEE3371
:10088000FEED33FDCC33CCC833C810D7079BEC9AB0
:10089000E899400AED9BFDEC9AFCE899F80FD5F039
:1008A000DAE4CDFBE4CCFAE4C8F922CFF4CFCEF4FD
:1008B000CECDF4CDCCF4CC22C3E49FFFE49EFEE485
:1008C0009DFDE49CFC22EB9FF5F0EA9E42F0E99D41
:1008D00042F0E89C45F022E8600FECC313FCED13F6
:1008E000FDEE13FEEF13FFD8F122E8600FEFC333E4
:1008F000FFEE33FEED33FDEC33FCD8F122E0FCA338
:10090000E0FDA3E0FEA3E0FF22E493FC740193FD6D
:10091000740293FE740393FF22ECF0A3EDF0A3EEB8
:10092000F0A3EFF022A8828583F0D083D082120951
:100930003C12093C12093C12093CE473E493A3C540
:1009400083C5F0C583C8C582C8F0A3C583C5F0C5FB
:1009500083C8C582C822D083D082F8E49370127411
:100960000193700DA3A393F8740193F5828883E437
:10097000737402936860EFA3A3A380DFD083D08257
:10098000E4937012740193700DA3A393F874019310
:10099000F5828883E4737402936C70127403936D10
:1009A000700C7404936E70067405936F60DDA3A3DE
:1009B000A3A3A3A380CA60240C85303F3106325B19
:1009C000334F3466356D367D3707387F396F417761
:1009D000427C4339553E4930507346714F3F470C76
:1009E0007E0A0F19326496C860E00AE90000000030
:1009F0000A0A0000000101000A0A00010002000AC0
:100A00000E0E00000003010A0E0E00010004001883
:100A10000E0E0000000501180E0E00010006002653
:100A20001616000000070126161600010008003CFB
:100A30000E0E00000009013C0E0E0001000A004AE3
:100A400010100000000B014A10100001000C005AA9
:100A50000D010101000D00670D010101000E007480
:100A600004040101000F0078030300010010007B63
:100A70001B1B00010011009619190001001200AFA4
:100A80000B0B0001001300BA10100101001400CA82
:100A900006060001001500D005050101001600D56D
:100AA00008080001001700DD08080001001800E533
:100AB0001A1A0001001901AC06060001001A01B261
:100AC0003E3E0001001B01921A1A0001000205437C
:100AD00022EDA2E7D2E7F9EC3340F260F3B4FF086D
:100AE000ED547F70E802054DF82481C2E0C0E0F4C7
:100AF0000428FAC313FCED92E7FD900625120919AC
:100B0000EEA2E7E9BA7F02C31334009400FA75F04D
:100B100091A4E5F013F494FE8AF0A433E5F03324B5
:100B20008CD313FDE492E7FE7F007C3F758302ECDB
:100B3000C0E0F8EDC0E0F9EEC0E0FAEFC0E0FB8500
:100B400083F09006251208FD85F0831203FCD0E0A7
:100B5000FBD0E0FAD0E0F9D0E0F8120202ED6480B8
:100B6000FD30E7011CD583C7ED33CC33F8D0E0A2CC
:100B7000E71328C313CC13FD22787FE4F6D8FD7564
:100B8000812012010A020BC3021921E493A3F8E4A5
:100B900093A34003F68001F208DFF48029E493A3D5
:100BA000F85407240CC8C333C4540F4420C88340EE
:100BB00004F456800146F6DFE4800B0102040810BD
:100BC0002040809009B6E47E019360BCA3FF543FAF
:100BD00030E509541FFEE493A360010ECF54C025F5
:100BE000E060A840B8E493A3FAE493A3F8E493A3E5
:100BF000C8C582C8CAC583CAF0A3C8C582C8CAC549
:100C000083CADFE9DEE780BE0706050403020100B0
:100C1000070605040302010007060504030201009C
:100C2000070605040706050403020100070605047C
:100C3000030201000706050403020100030201008C
:100C400080808080808080804040404040404040A4
:100C5000202020202020202010101010020202024C
:100C6000020202020404040404040404080808083C
:100C7000080808081010101001020102000000030B
:100C80000100020102020100030001000302010051
:100C90000506030405060304060504050506040607
:100CA00004060505060403030480200180082010C3
:100CB00002040840022010104001010220100840E8
:100CC0008010020802020401200880011080020145
:100CD0004008044040100801010102020202020221
:100CE00001020202020202010180402010081008E5
:100CF00004020180018040201008100804020180D5
:100D0000018040201008100804020180018040206A
:100D10001008100804020180030000000000000019
:100D200000000001000101010101010101010102B6
:100D30000102020202020202020202030203030390
:100D400003030303030303000102100808101080CB
:100D5000800202400840024040010104012020803E
:100D60002008040404201080010002020301030291
:100D7000000102030002030100000201030300015D
:100D80000201030002010003E00040F0D0701040B7
:100D900020E0F020B0D0801030A0A06060C0C0B0D3
:100DA000509090500030708040F010C0E080802063
:100DB000D04060902010B070F050C0B0903070E023
:100DC00030A0A000506000D00F03010D08040E07F2
:100DD000060F0B020308040E090C070002010D0A9E
:100DE0000C060009050B0A05000D0E08070A0B0189
:100DF0000A03040F0D040102050B08060C07060C7C
:100E000009000305020E0F09A0D000709000E090C9
:100E100060303040F06050A01020D080C05070E0B2
:100E2000B0C040B020F08010D01060A040D0900042
:100E30008060F09030800070B04010F020E0C03052
:100E400050B0A050E02070C0070D0D080E0B030538
:100E50000006060F09000A03010402070802050C38
:100E60000B010C0A040E0F090A03060F0900000605
:100E70000C0A0B01070D0D080F09010403050E0BE9
:100E8000050C02070802040E20E0C0B0402010C08C
:100E90007040A070B0D060108050500030F0F0A0D2
:100EA000D0300090E080906040B0208010C0B070E2
:100EB000A010D0E0702080D0F06090F0C000509082
:100EC00060A030400050E0300C0A010F0A040F020D
:100ED0000907020C0609080500060D01030D040EA2
:100EE0000E00070B05030B0809040E030F02050C87
:100EF000020908050C0F030A070B000E04010A077C
:100F000001060D000B08060D40D0B00020B0E070C7
:100F1000F04000908010D0A030E0C030905070C001
:100F20005020A0F060801060106040B0B0D0D08041
:100F3000C010304070A0E070A090F050600080F0D1
:100F400000E05020903020C00D01020F080D040871
:100F5000060A0F030B0701040A0C090503060E0B12
:100F60000500000E0C09070207020B01040E010721
:100F700009040C0A0E08020D000F060C0A090D00E8
:100F80000F0303050506080BFFF0020027062011DA
:100F900044445359363636202020444C2F540036D2
:100FA00034352D323030372D3134FEFEFEFE6800F0
:100FB00000FFFFFFFFFFFF000068000000000001CE
:100FC00004E601000000040001000100000104E645
:100FD00001000000040001000200000104EA010019
:100FE00000000400010090020101058901000000D9
:100FF00004000100900200010583010000000400CC
:10100000010330060101051D01000000040001027A
:101010008000200105190000040004000104000400
:10102000010103ED000010000600010400040201AC
:1010300003F3000010060600010400040E0103F98A
:101040000000100C060001033001000105D401006E
:101050000000040101033302010105D80100000072
:10106000040101040010010105A1000011000400A9
:1010700001040010020105A5000011040400010490
:101080000010040105A9000011080400010400106B
:10109000030105AD0000110C04000104001005015E
:1010A00005B10000111004000104090B010105B590
:1010B0000000111403000104800010FF0F880100DC
:1010C00000000801000400040DFF0F9A0100000059
:1010D0001001000400040BFF0F90010000000A0142
:1010E0000004000C010000000000120004010004D4
:1010F000000C020000000000120304010004000CB8
:1011000003000000000012060401000400030801AF
:101110000408000019000100000400030201040992
:10112000000019010100000400030101040A00008D
:1011300019020100000400030501040B000019035B
:101140000100000404010101040E00001A00010165
:10115000000404020101042C00001A1E0101000415
:10116000000306010402000010150300010400033F
:10117000070103FF0000101203000102010100013A
:10118000002E010000000200010202010001004DDA
:1011900001000000030001020300000100690100DA
:1011A00000000300010203010001006D01000000C6
:1011B0000300010206000001008A01000000020095
:1011C000010206010001008E010000000200010280
:1011D00080000201009A01000000020001070000E7
:1011E000FF070001FF070101FF070102FF070103DD
:1011F000FF070301FF070002FF200E1E1E18300824
:10120000100404040404161100000000111100B0C1
:10121000990184D401FF8430020C80FA000380FA23
:1012200000000084000084D6960004D6822404DCEA
:10123000010C04DC030C8432010C04D6820004D6B9
:10124000830004D684000082000804D68C0004D6F3
:10125000000004D6880004D6940004D6970000C08D
:10126000000000B0880000B08C0000B0940000B016
:10127000970004B2010C0000000000000000000014
:10128000000000000000000000000102030201064F
:101290000BFFF0FF014348494E54494D0F094B4C99
:1012A000000100000100150101000006000102011B
:1012B00000010A001F030100000B000104010000EF
:1012C0000D000105000000020106060000000301F8
:1012D00020000000000000000000000000000000EE
:1012E00000000000000000000000000000000000FE
:1012F00000000000000000000000000000000000EE
:1013000000000000000000000000000000000000DD
:1013100000000000000000000000000000000000CD
:1013200000000000000000000000000000000000BD
:1013300000000000000000000000000000000000AD
:10134000000000000000000000000000000000009D
:10135000000000000000000000000000000000008D
:10136000000000000000000000000000000000007D
:10137000000000000000000000000000000000006D
:10138000000000000000000000000000000000005D
:10139000000000000000000000000000000000004D
:1013A000000000000000000000000000000000003D
:1013B000000000000000000000000000000000002D
:1013C000000000000000000000000000000000001D
:1013D000000000000000000000000000000000000D
:1013E00000000000000000000000000000000000FD
:1013F00000000000000000000000000000000000ED
:1014000000000000000000000000000000000000DC
:1014100000000000000000000000000000000000CC
:1014200000000000000000000000000000000000BC
:1014300000000000000000000000000000000000AC
:10144000000000000000000000000000000000009C
:10145000000000000000000000000000000000008C
:10146000000000000000000000000000000000007C
:10147000000000000000000000000000000000006C
:10148000000000000000000000000000000000005C
:10149000000000000000000000000000000000004C
:1014A000000000000000000000000000000000003C
:1014B000000000000000000000000000000000002C
:1014C000000000000000000000000000000000001C
:1014D000000000000000000000000000000000000C
:1014E000000000000011892312329B462457AD658D
:1014F0003674BF8C489DC1AF5ABED3CA6CDBE5E9D8
:101500007EF8F7108101083393221A56A5472C75EF
:10151000B7643E9CC98D40BFDBAE52DAEDCB64F9B7
:10152000FFE8762102308B02101399672676AF44CC
:101530003455BDAD4ABCC38E589FD1EB6EFAE7C897
:101540007CD9F53183200A1291031877A7662E54AF
:10155000B5453CBDCBAC429ED98F50FBEFEA66D877
:10156000FDC9744204538D6116709F042015A9278C
:101570003236BBCE4CDFC5ED5EFCD7886899E1AB57
:101580007ABAF35285430C7197601E14A10528376F
:10159000B3263ADECDCF44FDDFEC5698E98960BB37
:1015A000FBAA726306728F4014519D252234AB064C
:1015B0003017B9EF4EFEC7CC5CDDD5A96AB8E38A17
:1015C000789BF17387620E5095411C35A3242A162F
:1015D000B10738FFCFEE46DCDDCD54B9EBA8629AF7
:1015E000F98B7084089581A71AB693C22CD3A5E114
:1015F0003EF0B7084019C92B523ADB4E645FED6DDF
:10160000767CFF94898500B79BA612D2ADC324F1E6
:10161000BFE03618C109483BD32A5A5EE54F6C7DBE
:10162000F76C7EA50AB48386189791E32EF2A7C0C3
:101630003CD1B5294238CB0A501BD96F667EEF4C9E
:10164000745DFDB58BA40296998710F3AFE226D0A6
:10165000BDC13439C3284A1AD10B587FE76E6E5C7E
:10166000F54D7CC60CD785E51EF497802891A1A383
:101670003AB2B34A445BCD695678DF0C601DE92F5E
:10168000723EFBD68DC704F59FE41690A98120B366
:10169000BBA2325AC54B4C79D7685E1CE10D683F3E
:1016A000F32E7AE70EF687C41CD595A12AB0A38243
:1016B0003893B16B467ACF485459DD2D623CEB0E1E
:1016C000701FF9F78FE606D49DC514B1ABA0229226
:1016D000B983307BC76A4E58D5495C3DE32C6A1EFE
:1016E000F10F780101010102020226262626252596
:1016F0002528282828272727101010101111110E2F
:101700000E0E0E0F0F0F0C0C0C0C0D0D0D0A0A0A0D
:101710000A0B0B0B0A100F0E0D0B0C040302010237
:10172000040304030201020403040302010204038C
:10173000040302010204030403020102040304037C
:10174000020102040304030201020403000000007A
:10175000000000000000000104E604020100010096
:10176000000104E6040201000200000104EA040290
:1017700001040004010103ED02000504000401015D
:1017800003EF040001040004020103F30200050456
:101790000004020103F50400010400040E0103F932
:1017A0000200050400040E0103FB04000102800096
:1017B00020010519040401009002000105830402C0
:1017C00001009002010105890402010400100101D9
:1017D00005A1040201040010020105A50402010490
:1017E000090B010105B50304030201010001001DFD
:1017F0000302030202010001003D03030302030090
:10180000000100590304030203010001005D030409
:10181000030206000001007A02030502060100012E
:10182000007E0203050280000201009A0202050404
:1018300000040901009C030003FFFFFFFF000000FC
:1018400000000036000000003700000000380000F3
:1018500000003A000000003B000000003C000000D7
:10186000003D00FD27003E000000003F000000009A
:101870004000000000410000000042000000004461
:101880000000001B4500000000460000000047006B
:101890000001804B000001FF5000000000510000DB
:1018A000000452000000005300000000540000003B
:1018B0000055000000005600000000570000000026
:1018C0005A008000005B007FF547600000055D6105
:1018D000007FF54662000000007C000000807D0073
:1018E00000000048000001823400000000350000C4
:1018F00000003900000000430000001B3000000021
:10190000353100A000C13200000C8433000000E833
:10191000003409350D390C0F0A10091BD3000000E3
:10192000001201B9BF01031201BE31749004B4E08A
:10193000F8A3E0F9A3E0FAA3E0FBC31208C6600332
:10194000E4F5B131749004B41209191201DC1201EA
:101950008C1201D71201AF1201B480CEF583EF25AE
:1019600083F583E0FCA3E0FDA3E0FEA3E0FF900687
:101970000B1209199004B0E0FCA3E0FDA3E0FEA364
:10198000E0FF90067D1209199004ACE0FCA3E0FD95
:10199000A3E0FEA3E0FF900681120919E4FFFEFD1B
:1019A000FC900681E0F8A3E0F9A3E0FAA3E0FBC312
:1019B0001208C6703074FFFFFEFDFC90067DE0F853
:1019C000A3E0F9A3E0FAA3E0FBC31208C66043E476
:1019D000FFFEFDFC90067DE0F8A3A3A3E0C3120880
:1019E000C67002802D90067DE0FCA3E0FDA3E0FE22
:1019F000A3E02401FFE43EFEE43DFDE43CFCA3E063
:101A0000F8A3E0F9A3E0FAA3E0FBC31208C6600262
:101A1000217490067DE0FCA3E0FDA3E0FEA3E0FFBF
:101A2000227B017A05797B7D047C0091849005817D
:101A3000EEF0A3EFF07B017A05797BE4FD7F17FEE2
:101A400051617B017A0079107D047C0091849000C3
:101A500016EEF0A3EFF07B017A007910E4FD7F161B
:101A6000FE90098CEDF0A3EBF0A3EAF0A3E9F0906F
:101A7000098AEEF0A3EFF09009907401F0E4900968
:101A800092F0A3F0C3EF941CEE940040028154E462
:101A9000900991F0900991E0FFC3941C4002815499
:101AA00075F008EFA424E9F582E5F0340AF583E047
:101AB000FEA3E0FF90098AE0FCA3E0FDEF6D700259
:101AC000EE6C6002814CEDAE047803C333CE33CEAE
:101AD000D8F9FF24EFF582740A3EF583E0600261D5
:101AE0007090098DE0FBA3E0FAA3E0F974EE2FF506
:101AF00082740A3EF583E024FEFDE434FFFC918409
:101B0000900992EEF0A3EFF0900992E0FD90098A1F
:101B1000E0FEA3E07803C333CE33CED8F924EEF54C
:101B200082740A3EF583E024FEFFE434FFFE900950
:101B30008DE0FBA3E0FAA3E0F98F828E83ED12061D
:101B4000D9900992A3E0FD90098AE0FEA3E0780312
:101B5000C333CE33CED8F924EEF582740A3EF58332
:101B6000E07E0024FFF582EE34FFF583ED1206D906
:101B700090098AE0FEA3E07803C333CE33CED8F9D0
:101B800024EBF582740A3EF583E0FEA3E0FF9009A2
:101B90008CE0FD7C00EF2DFFEC3EFEC006C007A3ED
:101BA000E0FBA3E0FAA3E0F990098AE0FEA3E07865
:101BB00003C333CE33CED8F924EEF582740A3EF552
:101BC00083E0900CC5F0D007D00612418CEF600284
:101BD0008154900990F090098AE0FEA3E07803C355
:101BE00033CE33CED8F9FF24F0F582740A3EF58364
:101BF000E0706174F32FF582740A3EF583E0FEA372
:101C0000E0FF90098CE0FD7C00EF2DFFEC3EFEC074
:101C100006C007A3E0FBA3E0FAA3E0F990098AE07D
:101C2000FEA3E07803C333CE33CED8F924F6F58291
:101C3000740A3EF583E0900CC5F0D007D00612413F
:101C40008CEF60109009907401F08008900991E089
:101C500004F04194900990E0FF2291F3900616E081
:101C6000FF7E00900618EEF0A3EFF0FD900615E061
:101C7000FFED900618CFF0A3EFF07B017A0679090B
:101C80007D0C7C009009D0EBF0A3EAF0A3E9F0A36F
:101C9000ECF0A3EDF0E4A3F0A3F09009D374FFF50A
:101CA000F012077845F060429009D0E0FBA3E4759C
:101CB000F001120778A9F0FA12064EFF9009D5E05C
:101CC000FCA3E0FDED6F25E0FFE433FE74E32FF5A8
:101CD0008274143EF583ECFFE493FE7401936FFF6E
:101CE0009009D5EEF0A3EFF080B09009D5E0FEA307
:101CF000E0FF22900CB5EEF0A3EFF0900CB7EBF004
:101D0000A3EAF0A3E9F0900CBBE4F0900CBAE0FF7A
:101D1000EF70037F0122900CBAE0FF7E00900CB5BB
:101D2000E0FCA3E0FDEF2DFFEE3CFED3EF94FFEED1
:101D3000940140037F0122900CB5E0FEA3E0FFEE8A
:101D4000FF7E00EF54FFFF900CBCEFF0900CBCE066
:101D5000FFEF25E0FF900CBCEFF0124008900CBCA8
:101D6000E0FFEF24A0FFD176EF6005D10D7F0122C7
:101D7000900CB5E0FEA3E0FFD176EF6005D10D7FBA
:101D80000122124008900CBCE0FFEF24A1FFD176A5
:101D9000EF6005D10D7F0122900CB7E0FBA3E0FAC4
:101DA000A3E0F9900CBDEBF0A3EAF0A3E9F0900CEE
:101DB000BCE4F0900CBAE0FFEF14FF900CBCE0FE26
:101DC000EEC39F502412426F900CBDE0FBA3E0FADB
:101DD000A3E0F9900CBCE0FE8E82758300EF120642
:101DE000D9900CBCE004F080CA12430B900CBDE00B
:101DF000FBA3E0FAA3E0F9900CBCE0FE8E827583B1
:101E000000EF1206D9D10D900CBBE0FF22900CE43C
:101E1000E4F090FFE8E0FFEF54BFFF90FFE8EFF041
:101E2000900CE47414F0900CE4E0FFEFD3940040C5
:101E300016E5EC20E61143EC801200EC53EC7F90A9
:101E40000CE4E014F080DF90FFE8E0FFEF4440FF97
:101E500090FFE8EFF090FFE8E0FFEF4480FF90FF95
:101E6000E8EFF053ECBF53EC7F1200EC43EC801230
:101E700000EC43EC4022900CD6EFF0900CD7E4F04D
:101E8000900CD8E4F090FFE8E0FFEF4480FF90FF73
:101E9000E8EFF053EC7F90FFE8E0FFEF4440FF9065
:101EA000FFE8EFF0900CD8E4F0900CD8E0FFEFC31F
:101EB00094085030900CD6E0FFEF30E70543EC403B
:101EC000800353ECBF43EC80900CD6E0FFEF25E09D
:101ED000FF900CD6EFF0123FA253EC7F900CD8E0AD
:101EE00004F080C512000790FFE8E0FFEF54BFFF49
:101EF00090FFE8EFF043EC80120007E5EC30E606D7
:101F0000900CD77401F053EC7F900CD7E0FF229037
:101F1000066AE075F00EA424C3F582E5F0340FF5EF
:101F200083E493FE740193FF7B017A067928E4FD34
:101F3000900987EDF0A3EBF0A3EAF0A3E9F0900994
:101F400085EEF0A3EFF090098B7401F0E4A3F0A309
:101F5000F09009CEF0A3F0C3EF941CEE9400400380
:101F6000022159E490098CF090098CE0FFC3941C85
:101F7000400302215975F008EFA424E9F582E5F049
:101F8000340AF583E0FEA3E0FF900985E0FCA3E0BE
:101F9000FDEF6D7002EE6C600302215090098DF030
:101FA000900985E0FEA3E07803C333CE33CED8F9A1
:101FB00024EBF582740A3EF583E0FEA3E0FF90096E
:101FC00087E0FD7C00EF2DFFEC3EFEC006C0077BE6
:101FD000017A09798E900985E0FEA3E07803C33386
:101FE000CE33CED8F924EEF582740A3EF583E09024
:101FF0000CBAF0D007D00691F3EF6401707A900923
:1020000085E0FEA3E07803C333CE33CED8F9FF24B6
:10201000F0F582740A3EF583E0704E74F32FF5827A
:10202000740A3EF583E0FEA3E0FF900987E0FD7CA3
:1020300000EF2DFFEC3EFEC006C0077B017A097958
:102040008E900985E0FEA3E07803C333CE33CED86B
:10205000F924F6F582740A3EF583E0900CBAF0D0CC
:1020600007D006121CF3BF010F90098DE004F0E0C9
:10207000C394035003021FA090098DE0C394034052
:10208000037F0122900985E0FEA3E07803C333CEED
:1020900033CED8F9FF24EFF582740A3EF583E07061
:1020A0006D74EE2FF582740A3EF583E0FF248DF502
:1020B00082E43409F583E0FD9009CEE4F0A3EDF06D
:1020C000748C2FF582E43409F583E0FE9009CEE0AC
:1020D0004EF0A3E0F07B017A09798E900985E0FE4D
:1020E000A3E07803C333CE33CED8F924EEF582745F
:1020F0000A3EF583E024FEFDE434FFFC121C8490CC
:1021000009CEE06E7003A3E06F60037F01229009A7
:1021100088E0F9A3E0FAA3E09009D3C9F0A3EAF0BC
:10212000A3E9F0900985E0FEA3E07803C333CE3342
:10213000CED8F924EEF582740A3EF583E09009D6F4
:10214000F07B017A09798E3179E490098BF080096E
:1021500090098CE004F0021F6890098BE0FF2231A7
:10216000799009D37401F0A37404F0A374FDF0A373
:102170007404F07B017A0579839009D0EBF0A3EA2F
:10218000F0A3E9F0E4FF9009D6E0FEEFC39E502BE8
:102190009009D0E0FBA3E0FAA3E0F98F82758300F9
:1021A000120667FE9009D3E0FBA3E0FAA3E0F98FE3
:1021B00082758300EE1206D90F80CB2290065DEB6C
:1021C000F0A3EAF0A3E9F0900664E0FED394015096
:1021D000037F0122EE24FFFFE434FFFE900663E05C
:1021E000FD7C001206FB90065DE0FBA3E0FAA3E095
:1021F0002FF9EA3EFAC002C001A3E0F9A3E0FAA376
:10220000E09009D3C9F0A3EAF0A3E9F0900663E0F7
:102210009009D6F0D001D0023179900664E09006A2
:1022200067F0900667E0FFD39401406E900665E08A
:1022300064557009EF1236DCEF6057800C9006672A
:10224000E01236DCEF64016049900667E024FEFF8F
:10225000E434FFFE900663E0FD7C001206FB90066E
:102260005DE0FBA3E0FAA3E02FF9EA3EFAC002C06A
:1022700001A3E0F9A3E0FAA3E09009D3C9F0A3EA2F
:10228000F0A3E9F0900663E09009D6F0D001D00207
:102290003179900667E014F080887F0022900783F0
:1022A0007401F0A3740AF0A374D1F090077EE0905B
:1022B0000786F090077AE0FBA3E0FAA3E0F9900725
:1022C00080EBF0A3EAF0A3E9F09009D37401F0A346
:1022D0007407F0A37491F0A37408F0900783E0FBF7
:1022E000A3E0FAA3E0F93179900780E0FBA3E0FADC
:1022F000A3E0F91247E57B017A07799112485EE481
:10230000900787F0E4900788F0900787E0FF900C33
:10231000D893FE900788E0C39E501C900786E0FD8E
:10232000B40103EF60117B017A077991124B97900A
:102330000788E004F080D29009D37401F0A37407F9
:10234000F0A37489F0A37408F07B017A07799131C6
:10235000799007AF74FFF0A3740CF0A37478F0A326
:1023600074FFF0A3740CF0A374A8F0A37406F07BC0
:10237000017A07798912487C90079C7401F0A37454
:1023800007F0A37489F0900780E0FBA3E0FAA3E0D4
:10239000F912494FE4F5B1900787E004F0E0C394E7
:1023A0001050026104900780E0FBA3E0FAA3E0F97B
:1023B000900799EBF0A3EAF0A3E9F0E4F5B19007F8
:1023C0009D04F012064E9007A5F0900004120667D7
:1023D0009007A4F09000011206679007A3F0900008
:1023E000051206679007A2F0900002120667900798
:1023F000A1F09000061206679007A0F0900003126B
:10240000066790079FF090000712066790079EF0FE
:10241000E490079CF07B017A07799E1247B89007F9
:1024200099E0FBA3E0FAA3E0F9A3E0F5827583004D
:10243000EF1206D990079DE025E0F090079CE0049C
:10244000F0E0C3940840CEE4F5B12290077D74011A
:10245000F07F0690077AEBF0A3EAF0A3E9F0EF64CF
:102460000660147B017A0A79D1E4FD7F13FE121F06
:1024700030BF01037F012290077DE0B40209A374FD
:1024800002F0A314F0800990077E7401F0A304F019
:10249000519D9007837401F0A3740AF0A374D9F0DE
:1024A00090077F51AE519D7F002290076CEBF0A307
:1024B000EAF0A3E9F0A3EDF0D3946440037F012296
:1024C0009007767401F0A3740AF0A3744FF090099A
:1024D000D37401F0A3740AF0A374E1F0A37408F0BC
:1024E000900770E0FBA3E0FAA3E0F931797B017A71
:1024F0000A79D1E4FD7F13FE121F30BF01037F0173
:1025000022900776E0F9A3E0FAA3E09009D3C9F09E
:10251000A3EAF0A3E9F090076FE09009D6F09007E6
:102520006CE0FBA3E0FAA3E0F93179900776E0FBD9
:10253000A3E0FAA3E0F990076FE0FFF5827583004E
:1025400074801206D97E00E92FF9EE3AFAE92401E7
:10255000F9E43AFA90098EE4F0A37407F0E4FDD1AF
:102560009B90076FE0131313541F04900775F0E45A
:10257000FD74E12DF582E4340AF583C083C082E066
:10258000FF900776E0FBA3E0FAA3E0F98D82758364
:1025900000120667FEEF6ED082D083F00DEDB40816
:1025A000D0E4900774F0900775E014FF900774E092
:1025B000C39F506E9007837401F0A3740AF0A37454
:1025C000D1F0A37402F07B017A0A79E151BEE4FDF7
:1025D00074E12DF582E4340AF583C083C082E0FC07
:1025E000900774E02401FFE433FEEF7803C333CE99
:1025F00033CED8F9FFED7A002FFFEA3EFE90077642
:10260000E0FBA3E0FAA3E0F98F828E831206676CE9
:10261000D082D083F00DEDB408B6900774E004F0DA
:1026200080847B017A0A79E190077D7402F0E4FFEF
:102630009153900773E06401703B90076CE0FBA33B
:10264000E0FAA3E0F9A3E0FF7E00E92FF9EE3AFA01
:10265000900988EBF0A3EAF0A3E9F0A37404F0A3D7
:102660007455F07B017A0A79E1123722BF02037FA9
:1026700000227F01227F002290052FE054FDF07B95
:10268000017A0C790A7D041201A57B017A0C790E7E
:1026900090098EE4F0A37404F0E4FD90098AEBF055
:1026A000A3EAF0A3E9F0A3EDF0E4FFFED390098FD5
:1026B000E09F90098EE09E401F90098DE0FD9009FB
:1026C0008AE0FBA3E0FAA3E0F98F828E83ED120685
:1026D000D90FBF00010E80D42278877C067D017B54
:1026E000FF7A1379997E007F281206289006AF742E
:1026F00001F09009D3F0A37406F0A37487F0A374DB
:1027000013F07BFF7A12798D31799006B37401F062
:10271000A37406F0A3749AF0A37406F07B017A0305
:1027200079ED123C617B017A0679877D017F021287
:102730002AA0EF70099006AFF090053604F09006DD
:10274000AFE0FF22786E7C067D017BFF7A1479660C
:102750007E007F191206289009887401F0A3740680
:10276000F0A3746EF0A37406F07B017A04798912E9
:10277000346C9009D37401F0A37406F0A37474F060
:10278000A3740CF07B017A04798F31799009D374AA
:1027900001F0A37406F0A37480F0A37403F07B012E
:1027A0007A04799B31797B017A06796E122F2B900E
:1027B00004A0E090066EF07B017A06796E122F3548
:1027C000C1D978097C067D017BFF7A1479027E00ED
:1027D0007F64120628E490066DF0123F9CEF6407B8
:1027E000700302286CEF6408700302286CEF640425
:1027F000601AEF64016007E49004E5F0D1D9900419
:10280000E5E0D394B44005E4F01226D99004E5E065
:102810005403640370567B017A067909512EEF70D8
:102820004490066DF090066DE0FFC39406502EE0D4
:10283000FEFDC374059DFDE49400FC74892DF582B2
:1028400074043CF583E0FD74092EF582E43406F54A
:1028500083E0B5050890066DE004F080C8EFC394EE
:102860000650098000116D31901226D92290FFE3A5
:10287000E04440F043B0407F967E00119490FFE327
:10288000E04440F053B0BF7FF47E011194900246C3
:102890007401F02290066EEEF0A3EFF0A31209256A
:1028A0000000000090066EE0FEA3E0FF7C007D13B8
:1028B0001206FBE4FDA3E0F8A3E0F9A3E0FAA3E02D
:1028C000FBC31208C6502311EB900670E0FCA3E096
:1028D000FDA3E0FEA3E02401FFE43EFEE43DFDE4B1
:1028E0003CFC90067012091980BA221200061200F0
:1028F000067F01AE071FEE70FA22E0FFA3E0900909
:1029000089CFF0A3EFF07D06900985EBF0A3EAF004
:10291000A3E9F0A3EDF031FEEF70037F01229009EF
:1029200085E0FBA3E0FAA3E0F9A3E0FD7C00121C24
:1029300084900989E06E7003A3E06F7F0060027FDE
:102940000122900609EFF0E4A3F07B017A04798973
:102950009004A1E0FFA3E0900989CFF0A3EFF07D00
:10296000183108EF7006900609E0701E7B017A04AA
:102970007989E4FD7F1BFE121F30BF010690060A15
:102980007401F0116D31901226D990060AE0FF22F1
:102990009009D37401F0A37404F0A37489F0A374B4
:1029A00006F07B017A0379ED1221799006B3740168
:1029B000F0A37404F0A3748FF0A37406F07B017A83
:1029C000047989123C61E490049BF0A3F0A3F0A386
:1029D00004F0A3E4F01227447B017A047989E4FD32
:1029E0007F1BFE021A61AD07AC06E4FBFAC3EB9D48
:1029F000EA9C500911EB0BBB00010A80F022900900
:102A00008BEBF0A3EAF0A3E9F0E4FFEFC39D501BCA
:102A100090098BE0FBA3E0FAA3E0F98F82758300B5
:102A200012066760037F01220F80E07F002290067C
:102A3000727415F0E4FF90066EEFF0A3EBF0A3EADA
:102A4000F0A3E9F078737C067D017BFF7A1379357A
:102A50007E007F641206289006D77401F090066EFF
:102A6000E0FF7B017A0679737D0251A0EF702B9015
:102A7000066FE0F9A3E0FAA3E09009D3C9F0A3EA56
:102A8000F0A3E9F0900672E09009D6F07B017A0697
:102A90007973122179E49006D7F09006D7E0FF22EF
:102AA0009006FDEFF0A3EDF0A3EBF0A3EAF0A3E9AD
:102AB000F0A37401F0A3F0E4A3F0A3F0A3F0A3F05B
:102AC00078087C077D017BFF7A14797FFE7F641292
:102AD000062890076C7401F0A37407F0A37408F043
:102AE000900527E030E102A1BFD106BF01037F06B8
:102AF00022E490076FF090076FE0FFC394075053F4
:102B0000EF75F007A424A0F582E43412F583E49372
:102B1000FF9006FDE0FEEFB5063190076FE0FB7514
:102B2000F007A424A1F582E43412F5831209099078
:102B30000772120919EB75F007A424A6F582E43494
:102B400012F583E493900707F0800890076FE00484
:102B5000F080A390076FE0C394074002A1BFE49008
:102B60000705F0900527E030E102A1BF900707E0DC
:102B70002404F09006FEE0B402069007077404F007
:102B80007B017A07790890098EE4F0A37404F07D44
:102B9000FE12269B90070C7468F0900707E09007E0
:102BA0000DF0E4A3F07B017A07790F90098EF0A372
:102BB0007406F07DFF12269BE4900715F0A3F0A3A6
:102BC0007468F09006FEE0900718F0900772E0FC41
:102BD000A3E0FDA3E0FEA3E0FF78181208D790075A
:102BE00019EFF0900772E0FCA3E0FDA3E0FEA3E084
:102BF000FF78101208D790071AEFF0900772E0FCE8
:102C0000A3E0FDA3E0FEA3E0FF78081208D7900739
:102C10001BEFF0900772A3A3A3E090071CF09009AC
:102C2000D37401F0A37407F0A3741DF0900707E0BC
:102C300024FC9009D6F09006FFE0FBA3E0FAA3E0A5
:102C4000F91221797B017A07790C900707E0240DAE
:102C5000FDD132900707E0FE2419F582E43407F530
:102C600083EFF0741A2EF582E43407F5837416F0BE
:102C7000EE2413900706F07F011201C853A9FBE46C
:102C8000900704F0900706E0FF900704E0FEC39F62
:102C9000505C74082EF582E43407F583E0FF30D0F1
:102CA00004D2DB8002C2DB8FD9E4900770F0A3F07E
:102CB00030D904C2D98020120006900771E004F0D8
:102CC0007006900770E004F0C3900771E094D09014
:102CD0000770E0940740D9C3900771E094D0900743
:102CE00070E094075008900704E004F0809643D801
:102CF0001053A9FB9007067464F0E4900704F09069
:102D00000706E0FF900704E0C39F5054E49007706B
:102D1000F0A3F0900770E0FEA3E0FFC39440EE94B0
:102D20001F502C30D819C2D8900704E02408F5822F
:102D3000E43407F583E5D9F0E4900703F0801090C0
:102D40000771E004F07006900770E004F080C4C3DF
:102D5000EF9440EE941F5008900704E004F0809F29
:102D6000900703E0700A900702F09007057403F0E3
:102D7000900702E070359006FFE0F9A3E0FAA3E0C7
:102D80009009D3C9F0A3EAF0A3E9F090076FE075CA
:102D9000F007A424A6F582E43412F583E4939009A5
:102DA000D6F07B017A07791D1221799002467408CA
:102DB000F0900705E004F0E0C394035002616390D3
:102DC0000702E0FF22900600EBF0A3EAF0A3E9F08F
:102DD000E4FFEFC39D501C900600E0FBA3E0FAA3C4
:102DE000E0F98F82758300120667F460037F012289
:102DF0000F80DF7F0022900672EDF0413690067260
:102E00007401F0FF4136900246E0FF64026004EF77
:102E1000B403037F01227F0022E0FF75F0A7A42402
:102E20008BF582E5F03401F583EF2583F583E0240B
:102E30000AFD900776EBF0A3EAF0A3E9F0E4FFFEC9
:102E4000EEC39D5018900776E0FBA3E0FAA3E0F9EB
:102E50008E827583001206672FFF0E80E322900694
:102E600033EBF0A3EAF0A3E9F0A37401F078377C28
:102E700006FD7BFF7A1379C17E007F191206287B3D
:102E8000017A067937512E900636EFF070229006BF
:102E900033E0F9A3E0FAA3E09009D3C9F0A3EAF084
:102EA000A3E9F0A3740CF07B017A06793D12217935
:102EB000900636E0FF22900690EFF0A3EBF0A3EA35
:102EC000F0A3E9F078957C067D017BFF7A1279D139
:102ED0007E007F641206289006F97401F0A3740640
:102EE000F0A37495F0A37401F0900694E0FF601FC6
:102EF0009009D37401F0A37406F0A37495F0A3EFC6
:102F0000F0900691E0FBA3E0FAA3E0F9122179909A
:102F10000690E0FF7B017A0679957D0151A0EF7064
:102F2000049006FCF09006FCE0FF229006947415D5
:102F3000F0E4FF8081900687EBF0A3EAF0A3E9F0CC
:102F4000A37401F0788B7C06FD7BFF7A1379DA7E1F
:102F5000007F051206289009D37401F0A37406F0CF
:102F6000A3748BF090068AE09009D6F0900687E073
:102F7000FBA3E0FAA3E0F91221797B017A06798BB1
:102F80009006947401F0FFC1B6900633EFF0A3ED04
:102F9000F0A3EBF0A3EAF0A3E9F078387C067D011A
:102FA0007BFF7A1379DF7E007F231206289009D3F6
:102FB0007401F0A37406F0A37438F0900634E09026
:102FC00009D6F0900635E0FBA3E0FAA3E0F9122160
:102FD00079900633E0FF7B017A067938A3E090060A
:102FE00094F0C1B6F090060EE0FBA3E0FAA3E0F97E
:102FF000900003120667FFEFD3946340037F002223
:10300000EF75F00A84C454F0FEEF75F00A84E5F021
:103010002EFF22120667FFEFC4540F75F00AA4FEBC
:10302000EF540F2EFF22AC07AF051117AD07AF0409
:103030001117EF2DFF12064E2FFFE41206C7EFC344
:103040009464400974011206C7749C2FFF80A890F5
:10305000098AEBF0A3EAF0A3E9F0E4900991F0A368
:10306000F0900990E0FF900992E0FEC39F5079EE46
:10307000FDC3EF9DFDE49400FCED24FFFFEC34FF65
:10308000FE90098AE0FBA3E0FAA3E0F98F828E8329
:10309000120667FFED24FFFDEC34FFFC90098DE084
:1030A000FBA3E0FAA3E0F98D828C83120667FD7B17
:1030B000017A0979911126900992E0FD900990E03A
:1030C000C39DFDE49400CD24FFCD34FFFC90098A1C
:1030D000E0FBA3E0FAA3E0F98D828C83EF1206D91E
:1030E000900992E004F00161229004B0E0FCA3E0BA
:1030F000FDA3E0FEA3E0FF9005F41209199004ACD3
:10310000E0FCA3E0FDA3E0FEA3E0FF9005F81209B8
:1031100019E4FFFEFDFC9005F8E0F8A3E0F9A3E058
:10312000FAA3E0FBC31208C6703074FFFFFEFDFC7B
:103130009005F4E0F8A3E0F9A3E0FAA3E0FBC312E2
:1031400008C66043E4FFFEFDFC9005F4E0F8A3A38D
:10315000A3E0C31208C67002802D9005F4E0FCA322
:10316000E0FDA3E0FEA3E02401FFE43EFEE43DFD1C
:10317000E43CFCA3E0F8A3E0F9A3E0FAA3E0FBC37E
:103180001208C6600201E99005F4E0FCA3E0FDA38B
:10319000E0FEA3E0FF22C0E0C0F0C083C082C0D048
:1031A00075D000C000C001C002C003C004C005C08B
:1031B00006C0079005F1E5A7F075A70075B7559013
:1031C00005F0E5B6F075B70030993DC2999000A3BF
:1031D000E004F09000A2E0FFA3E0C39F502411E9B7
:1031E0009000AE1209199000A3E0247EF582E43429
:1031F00001F583E0FF30D004D29B8002C29B8F99FF
:10320000800690009F7408F030980BC298AF99AD7B
:1032100007E4FF12019675B7559005F0E0F5B67515
:10322000B700A3E0F5A7D007D006D005D004D0039F
:10323000D002D001D000D0D0D082D083D0F0D0E066
:10324000329004B0E0FCA3E0FDA3E0FEA3E0FF9019
:1032500006001209199004ACE0FCA3E0FDA3E0FE17
:10326000A3E0FF900604120919E4FFFEFDFC90069E
:1032700004E0F8A3E0F9A3E0FAA3E0FBC31208C658
:10328000703074FFFFFEFDFC900600E0F8A3E0F94B
:10329000A3E0FAA3E0FBC31208C66043E4FFFEFD0F
:1032A000FC900600E0F8A3A3A3E0C31208C67002D6
:1032B000802D900600E0FCA3E0FDA3E0FEA3E02447
:1032C00001FFE43EFEE43DFDE43CFCA3E0F8A3E0A6
:1032D000F9A3E0FAA3E0FBC31208C66002414190E3
:1032E0000600E0FCA3E0FDA3E0FEA3E0FF22C0E0B7
:1032F000C0F0C083C082C0D075D000C000C001C083
:1033000002C003C004C005C006C0079005FDE5A7C4
:10331000F075A70075B7559005FCE5B6F075B700D8
:1033200030D93DC2D990024AE004F0900249E0FF52
:10333000A3E0C39F502451419002551209199002F5
:103340004AE02425F582E43403F583E0FF30D0041D
:10335000D2DB8002C2DB8FD980069002467408F06F
:1033600030D80BC2D8AFD9AD077F0112019B75B71A
:10337000559005FCE0F5B675B700A3E0F5A7D007BA
:10338000D006D005D004D003D002D001D000D0D0D8
:10339000D082D083D0F0D0E032E0FCA3E0FDA3E007
:1033A000FEA3E0FF90060F12091990060FE0FCA3A0
:1033B000E0FDA3E0FEA3E0FFA3E0F8A3E0F9A3E0B3
:1033C000FAA3E0FBC31208C6900613E0503DF8C014
:1033D00000C001C002C00390060FE0F8A3E0F9A30B
:1033E000E0FAA3E0FBC374FF9BFF74FF9AFE74FF37
:1033F00099FD74FF98FCD003D002D001D000EB2FD0
:10340000FFEA3EFEE93DFDE83C8024FCA3E0FDA38D
:10341000E0FEA3E0FF90060FE0F8A3E0F9A3E0FAD6
:10342000A3E0FBC3EF9BFFEE9AFEED99FDEC98FC49
:10343000A3120919900617E0FCA3E0FDA3E0FEA388
:10344000E0FF900613E0F8A3E0F9A3E0FAA3E0FBA5
:10345000C31208C67F0140027F0022F0A3EAF0A356
:10346000E9F0A37404F07B017A057983900985EB78
:10347000F0A3EAF0A3E9F0E490098CF090098BE066
:10348000FFA3E0FEC39F5047EEFD900985E0FBA33C
:10349000E0FAA3E07E002FF9EE3AFAE924FFF9EA18
:1034A00034FFFAC3E99DF9EA9400FA12064EFF9040
:1034B0000988E0FBA3E0FAA3E0F990098CE0F5822B
:1034C000758300EF1206D990098CE004F080AD22DC
:1034D000900720EBF0A3EAF0A3E9F0E4FFEFC39D2F
:1034E0005028900720E0FBA3E0FAA3E0F98F827553
:1034F0008300120667FE540FD394095007EE54F070
:10350000949040037F01220F80D37F0022900626F3
:10351000E0FF7E007C017DA71206FB74982FF974F2
:10352000013EFA7B01900668E07E0029F9EE3AFA46
:103530007D04900720EBF0A3EAF0A3E9F0A3EDF0FF
:10354000E4A3F0900723E0FFC313FEA3E0C39E5063
:1035500078900720E0FBA3E0FAA3E0F9900724E0CD
:10356000FEF582758300120667900725F0EF24FFB1
:10357000FDE434FFFCEEFFC3ED9FFFEC94008F826F
:10358000F583120667FF900724E0F582758300EF4C
:103590001206D9900725E0FF900723E024FFFDE401
:1035A00034FFFCA3E0FBC3ED9BFDEC9400FC900713
:1035B00020E0FBA3E0FAA3E0F98D828C83EF1206F2
:1035C000D9900724E004F0A14322900626E0FF7E74
:1035D000007C017DA71206FB74902FF974013EFA5E
:1035E0007B0190066FEBF0A3EAF0A3E9F012064E20
:1035F000FF24A9F582E43404F583E0C3940340106A
:1036000074A92FF582E43404F5837403F07F01225A
:103610007B017A067973E4FD7F12FE121F30BF0131
:10362000037F012290066FE0FBA3E0FAA3E0F9120A
:10363000064EFF7006900672F0801BEFB4010890F2
:1036400006727403F0800FEFB402089006727406DD
:10365000F080037F0122E4FFEF2401FDE433FC90BE
:10366000066FE0FBA3E0FAA3E0F98D828C831206DB
:1036700067FE900672E02F2473F582E43406F5832A
:10368000E06E603812064EFE24A9F582E43404F59B
:1036900083E004F074A92EF582E43404F583E0C3DA
:1036A0009403401512064E25E024CFF582E434043D
:1036B000F5837405F0A374A0F07F01220FEFB4032B
:1036C0009790066FE0FBA3E0FAA3E0F912064E2400
:1036D000A9F582E43404F583E4F0FF2224FEFFE43C
:1036E00034FFFE900663E0FD7C001206FB90065D51
:1036F000E0FBA3E0FAA3E02FF9EA3EFA900988EB99
:10370000F0A3EAF0A3E9F0900663E090098BF09053
:103710000666E090098CF0900660E0FBA3E0FAA357
:10372000E0F9900985EBF0A3EAF0A3E9F0E4900951
:103730008DF090098BE0FF90098DE0FEC39F400360
:1037400002384690098CE06455703A900988E0FB95
:10375000A3E0FAA3E0F98E82758300120667FD905C
:103760000985E0FBA3E0FAA3E0F98E8275830012DD
:103770000667FED39D40037F0022EEC39D400302F7
:10378000383D7F012290098BE024FFFFE434FFFEE7
:1037900090098DE0FDC3EF9DFFEE9400FE90098837
:1037A000E0FBA3E0FAA3E0F98F828E83120667FFA5
:1037B00090098BE024FFFDE434FFFC90098DE0FBD1
:1037C000C3ED9BFDEC9400FC900985E0FBA3E0FABF
:1037D000A3E0F98D828C83120667D39F40037F009C
:1037E0002290098BE024FFFFE434FFFE90098DE076
:1037F000FDC3EF9DFFEE9400FE900988E0FBA3E07F
:10380000FAA3E0F98F828E83120667FF90098BE09E
:1038100024FFFDE434FFFC90098DE0FBC3ED9BFD2C
:10382000EC9400FC900985E0FBA3E0FAA3E0F98D9D
:10383000828C83120667C39F50037F012290098DFB
:10384000E004F00237327F022212064EFF90063863
:10385000E4F0A3EFF0E0F8E4F0E8900638F0900030
:1038600001120667FF900638E0FEA3E04FFF9006C6
:1038700038EEF0FEA3EFF0221186900780120919AE
:103880007B017A057983900897EBF0A3EAF0A3E92E
:10389000F0A312092500000000E490089EF09008B3
:1038A0009AE0FCA3E0FDA3E0FEA3E0FF7808120885
:1038B000EA90089A12091990089AE0F8A3E0F9A38F
:1038C000E0FAA3E0FBC000C001C002C0039008976B
:1038D000E0FBA3E0FAA3E0F990089EE0F58275838F
:1038E00000120667FFD003D002D001D000EB4FFFDB
:1038F000EAFEE9FDE8FC90089A12091990089EE09A
:1039000004F0E0B4049890089AE0FCA3E0FDA3E082
:10391000FEA3E0FF22900780EBF0A3EAF0A3E9F01A
:10392000E4900788F0900786E014FF900786E0FE99
:10393000EFC39E40024108900783E0FBA3E0FAA397
:10394000E0F98F82758300120667FE900788E02EEB
:10395000FDE4900787F0EDC39E50037401F0E490FE
:103960000788F0900780E0FBA3E0FAA3E0F98F82DC
:10397000758300120667FE540FFCED540FFBECC379
:103980009B5034EEC39D900780E0FB500E8F8275F4
:103990008300120667FEC3749A8037A3E0FAA3E09F
:1039A000F98F82758300120667C39D24FA8F827592
:1039B00083001206D98044900780E0FBA3E0FAA3BD
:1039C000E0F98F82758300120667FEC39D5015C310
:1039D00074A09D2E8F827583001206D9900788747B
:1039E00001F08017900780E0FBA3E0FAA3E02FF935
:1039F000E43AFA12064EC39D1206C7900787E060AC
:103A000004A37401F01F212B22900765EBF0A3EAB9
:103A1000F0A3E9F0AB05A37401F0A312092500009F
:103A2000000190076D12092500000000E490077165
:103A3000F0EBD3940050026161EB940540026161A8
:103A4000EBF0900771E0D394005002616190076D34
:103A5000E0F8A3E0F9A3E0FAA3E0FBC000C001C0D6
:103A600002C003900765E0FBA3E0FAA3E0F990072A
:103A700071E0FF7E00E92FF9EE3AFA90FFFF12069F
:103A800067540F75F00A84AFF0E4FCFD900769E01D
:103A9000F8A3E0F9A3E0FAA3E0FB12078ED003D06D
:103AA00002D001D000EB2FFFEA3EFEE93DFDE83CED
:103AB000FC90076D120919900769E0FCA3E0FDA3D3
:103AC000E0FEA3E0FFE47B0AFAF9F812078E900704
:103AD0006912091990076DE0F8A3E0F9A3E0FAA3D1
:103AE000E0FBC000C001C002C003900765E0FBA37B
:103AF000E0FAA3E0F9900771E0FF7E00E92FF9EE0C
:103B00003AFA90FFFF12066754F0C4540FFFE4FC2A
:103B1000FD900769E0F8A3E0F9A3E0FAA3E0FB1247
:103B2000078ED003D002D001D000EB2FFFEA3EFE7B
:103B3000E93DFDE83CFC90076D120919900769E02A
:103B4000FCA3E0FDA3E0FEA3E0FFE47B0AFAF9F8A2
:103B500012078E900769120919900771E014F0415D
:103B60004290076DE0FCA3E0FDA3E0FEA3E0FF228E
:103B7000900784EBF0A3EAF0A3E9F090078912091B
:103B800019900787E0A3F0900788E0D394005002D3
:103B90008160E47B0AFAF9F8A3E0FCA3E0FDA3E06E
:103BA000FEA3E0FF120819AF03900784E0FBA3E037
:103BB000FAA3E0F9900788E0FD7C00E92DF9EC3AE2
:103BC000FA90FFFFEF1206D9900789E0FCA3E0FD11
:103BD000A3E0FEA3E0FFE47B0AFAF9F812081990CB
:103BE0000789120919900784E0FBA3E0FAA3E0F922
:103BF000900788E0FF7E00E92FF9EE3AFAE924FF0A
:103C0000F9EA34FFFAC003C002C00112064EFFC039
:103C100007E47B0AFAF9F8900789E0FCA3E0FDA32A
:103C2000E0FEA3E0FF120819AF03EFC454F0FED08A
:103C3000E04ED001D002D0031206C7900789E0FC05
:103C4000A3E0FDA3E0FEA3E0FFE47B0AFAF9F8128B
:103C50000819900789120919900788E014F0618704
:103C6000229006B0EBF0A3EAF0A3E9F0E49006B7E7
:103C7000F09006B6E0FFA3E0FEC39F4002A11490BF
:103C800006B0E0FBA3E0FAA3E0F98E827583001290
:103C90000667FDC4540F9006B8F0ED540FA3F0E48E
:103CA000FF74B82FF582E43406F583E0FEC3940A6E
:103CB000501074B82FF582E43406F583E02430F018
:103CC0008014EEC39410500E74B82FF582E43406BD
:103CD000F583E02437F00FEFB402C69006B7E07525
:103CE000F002A4FF9006B3E0FBA3E0FAA3E02FF9F3
:103CF000EA35F0FA9009D3EBF0A3EAF0A3E9F0A3D8
:103D00007402F07B017A0679B81221799006B7E047
:103D100004F0817122C0D075D000C006C007AFA7E3
:103D200075A70075B755AEB675B70075AA0075E8EA
:103D30000075B7558EB675B7008FA7D007D006D0DF
:103D4000D032C0D075D000C006C007AFA775A7009D
:103D500075B755AEB675B70053A8F753883F75B71A
:103D6000558EB675B7008FA7D007D006D0D032C019
:103D7000E0C0F0C083C082C0D075D000C000C001D8
:103D8000C002C003C004C005C006C0079005EFE52F
:103D9000A7F075A70075B7559005EEE5B6F075B7B5
:103DA000005388DF758AC0758CE0E5C730E6079060
:103DB0000527E04402F09004ACE0FCA3E0FDA3E0A2
:103DC000FEA3E0FFA312091974FFFFFEFDFC90049F
:103DD000ACE0F8A3E0F9A3E0FAA3E0FBC31208C645
:103DE0009004AC501EE0FCA3E0FDA3E0FEA3E024A1
:103DF00001FFE43EFEE43DFDE43CFC9004AC12090E
:103E00001980071209250000000075B7559005EECE
:103E1000E0F5B675B700A3E0F5A7D007D006D0054A
:103E2000D004D003D002D001D000D0D0D082D08333
:103E3000D0F0D0E032C0D075D000C006C007AFA728
:103E400075A70075B755AEB675B70053A8DF53C850
:103E50003375B7558EB675B7008FA7D007D006D08B
:103E6000D032C0D075D000C006C007AFA775A7007C
:103E700075B755AEB675B70053A8BF53C11F75B718
:103E8000558EB675B7008FA7D007D006D0D032C0F8
:103E9000E0C083C082C0D075D000C005C006C00796
:103EA000AFA775A70075B755AEB675B700AD9775D6
:103EB0009700ED30E31D90000AE090000930E20524
:103EC000E004F0800EE0FD900008E02DF0E004F04A
:103ED000A3E4F075B7558EB675B7008FA7D007D09D
:103EE00006D005D0D0D082D083D0E032C0E0C083ED
:103EF000C082C0D075D000C006C007AFA775A700AC
:103F000075B755AEB675B70090FFB6E4F090FFB741
:103F1000F053A9FD75B7558EB6F5B78FA7D007D06A
:103F200006D0D0D082D083D0E032C0D075D000C0CF
:103F300006C007AFA775A70075B755AEB675B70031
:103F400053A9DF75C60075B7558EB675B7008FA734
:103F5000D007D006D0D032C0E0C083C082C0D075B8
:103F6000D000C004C006C007ACA775A70075B75540
:103F7000AEB675B70090FFD0E054FCF053A9FD75C4
:103F8000B755AF068FB675B700AF048FA7D007D06F
:103F900006D004D0D0D082D083D0E032900536E075
:103FA000FF22900CE37401F02290FF84E0FFEF54B5
:103FB000FFFF90FF84EFF090FF85E0FFEF54FEFFDE
:103FC00090FF85EFF090FFE9E0FFEF4401FF90FFE5
:103FD000E9EFF053EDFE22900CDC74FFF0900CDB67
:103FE000E4F0900CDCE0FF900CDBE0FEEEC39F50B1
:103FF000161240087FA0121E76EF7003021E0D906D
:104000000CDBE004F080DB22123FA990FFE8E0FF28
:10401000EF4440FF90FFE8EFF043EC4090FFE8E012
:10402000FFEF4480FF90FFE8EFF043EC801200ECDC
:1040300053ECBF1200EC53EC7F22900CA9EEF0A3DE
:10404000EFF0900CABEBF0A3EAF0A3E9F0900CB426
:10405000E4F0900CAEE0FFEF600B900CAEE0FFEFF1
:10406000D3942040037F0122900CA9E0FEA3E0FF3F
:10407000D3EF94FFEE940140037F0122900CAEE059
:10408000FF7E00900CA9E0FCA3E0FDEF2DFFEE3CCD
:10409000FED3EF94FFEE94004013900CA9E0FEA332
:1040A000E0FFD3EF94FFEE940050022180110890BE
:1040B0000CAEE0FF7E00900CA9E0FCA3E0FDEF2D2C
:1040C000FFEE3CFED3EF94FFEE94005006900CB44C
:1040D00074A0F0900CA9E0FEA3E0FFD3EF94FFEEF4
:1040E00094004006900CB474A2F0900CB4E0FF125F
:1040F0001E76EF6006121E0D7F0122900CA9E0FED5
:10410000A3E0FF121E76EF6006121E0D7F012290C3
:104110000CABE0FBA3E0FAA3E0F9900CB1EBF0A349
:10412000EAF0A3E9F0900CAFE4F0A3E4F0900CAE59
:10413000E0FF7E00900CAFE0FCA3E0FDC3ED9FEC40
:104140009E5035900CB1E0FBA3E0FAA3E0F9120613
:104150004EFF121E76EF6006121E0D7F0122900C9C
:10416000B2E475F001120762900CB0E004F0700642
:10417000900CAFE004F080B5121E0D123FD7800303
:104180007F01227F0022900CC5740EF0900CC0EECF
:10419000F0A3EFF0900CC2EBF0A3EAF0A3E9F090EB
:1041A0000CC0E0FEA3E0FF900CC6EEF0A3EFF09091
:1041B0000CC0E0FEA3E0FFEF5407FFC374089FFFAD
:1041C000900CC8EFF0900CC9E4F0900CC8E0FF90A0
:1041D0000CC5E0FEEEC39F500A900CC5E0FF900CAA
:1041E000C8EFF0900CC6E0FEA3E0FF900CC2E0FB2D
:1041F000A3E0FAA3E0F9900CC9E0FD7C00E92DF9F9
:10420000EA3CFA900CC8E0FD900CAEEDF0113AEFEC
:10421000B401037F0122900CC8E0FF900CC9E02F8D
:10422000F0900CC9E0FF7E00900CC0E0FCA3E0FD24
:10423000EF2DFFEE3CFE900CC6EEF0A3EFF0900CDD
:10424000C9E0FF900CC5E0FEC3EE9FFF900CC8EFE5
:10425000F0900CC8E0FFEFD394084006900CC874AF
:1042600008F0900CC8E0FFEF600221E37F0022908D
:104270000CDDE4F0900CDE7408F090FFE8E0FFEF56
:104280004480FF90FFE8EFF090FFE8E0FFEF54BFBD
:10429000FF90FFE8EFF053EC7F900CDEE4F0900C21
:1042A000DEE0FFEFC39408503F123FA2900CDDE028
:1042B000FFEF25E0FF900CDDEFF043EC80E5EC3004
:1042C000E60E900CDDE0FFEF4401FF900CDDEFF017
:1042D000123FA2900CDDE0FF900CDDEFF053EC7F7D
:1042E000900CDEE004F080B690FFE8E0FFEF444081
:1042F000FF90FFE8EFF053ECBF43EC801200EC536B
:10430000EC7F43EC40900CDDE0FF22900CDFE4F00A
:10431000900CE0E4F090FFE8E0FFEF4480FF90FFB6
:10432000E8EFF090FFE8E0FFEF54BFFF90FFE8EF09
:10433000F053EC7F900CE0E4F0900CE0E0FFEFC372
:1043400094085035123FA2900CDFE0FFEF25E0FF0C
:10435000900CDFEFF043EC80E5EC30E60E900CDFE4
:10436000E0FFEF4401FF900CDFEFF0123FA253ECAF
:104370007F900CE0E004F080C090FFE8E0FFEF44A5
:1043800040FF90FFE8EFF043EC4043EC801200EC7C
:1043900053EC7F900CDFE0FF22900CCAEEF0A3EF0D
:1043A000F0900CCCEDF0900CCDEBF0C2AF900CCCBB
:1043B000E0FF8FEF900CCAE0FEA3E0FFEF54FFF5A3
:1043C000EE900CCAE0FEA3E0FFEEFF7E008FF775D3
:1043D000A70175F26E75F30575F40A75F509900C71
:1043E000CDE0FFEFB4680775F6060000000075A782
:1043F0000075F700D2AF22900985EEF0A3EFF0A38D
:10440000EBF0A3EAF0A3E9F075E75575C783000068
:10441000E5C730E6037FFF22900535E0646860035E
:104420007FFF2290098AE0FEA3E0FF900986E02F3B
:10443000FF900985E03EFED3EF9400EE9410400318
:104440007FFF22D390098BE0940090098AE09400CA
:104450004045900987E0FBA3E0FAA3E0F912064E7D
:10446000FC900985E0FEA3E0FFAD047B68719990A4
:104470000986E004F07006900985E004F090098850
:10448000E475F00112076290098BE024FFF09009B7
:104490008AE034FFF080AC7F00228F828E83E4FFBD
:1044A000EDB4680DC2AF75A701E493FFE4F5A7D2A0
:1044B000AF22900535E04420F07B017A07798590A2
:1044C0000781E0FCA3E0FD90098A7402F0A3E4F008
:1044D000900988ECF0A3EDF075E75575C7830000EF
:1044E000E5C730E6037FFF2290098AE0FEA3E0FFE4
:1044F000900989E02FFF900988E03EFED3EF9400F9
:10450000EE941040037FFF22D390098BE09400903B
:10451000098AE094004035900988E0FEA3E0FF7D21
:1045200068919AEF1206C7740129F9E43AFA9009E2
:1045300089E004F07006900988E004F090098BE0AF
:1045400024FFF090098AE034FFF080BC7F0022E075
:10455000FEA3E0FF7B68E4FD900CCEEEF0A3EFF04D
:10456000900CD0EDF0900CD1EBF075E75575C7834A
:104570000000E5C720E655900535E0FFEF64687060
:104580004BC2AF900CD0E0FF8FEF900CCEE0FEA3BB
:10459000E0FFEF54FFF5EE900CCEE0FEA3E0FFEE5F
:1045A000FF7E008FF775A70175F2E675F30575F4C8
:1045B0000A75F509900CD1E0FFEFB4680775F606AF
:1045C0000000000075A70075F700D2AF2290FFE54C
:1045D000E054FBF090FFF5E04404F022B1CDE5E9B2
:1045E00020E2299004A4E004F070069004A3E00403
:1045F000F0C39004A4E094FA9004A3E09400401A5D
:10460000E4F0A3F0900531E04401F022E49004A32B
:10461000F0A3F0900531E054FEF02290FFE2E05468
:10462000FBF090FFF2E04404F022D11B900532E051
:1046300030E215E5A030E202C1C9E04401F0E054E7
:10464000FBF0E4900458F022900532E030E061E5A0
:10465000A020E26A900458E004F0E0FF7408D39FC1
:104660005067900532E04402F0E054FEF0E490041C
:1046700058F0900530E04408F090045412092500E9
:1046800000003C90044C741EF0900459E0700B90B4
:104690000460F09004597468F022900460E004F023
:1046A00090040BE0FF900460E0C39F401CE4F02204
:1046B000900532E030E107E5A030E20D8000E490A3
:1046C0000458F09005327404F022EF146021047055
:1046D00024F1377FFFD1F643D18090FFE1E0440819
:1046E000F05390F790FFE9E04402F053EDFD22F122
:1046F00037E4FFD1F622E4FE74612EF582E434043F
:10470000F583EFF00EEEB428EF7F007E25E4FD7414
:10471000612DF582E43404F583E0FCEF2DF582E4AD
:104720003EF583ECF074612DF582E43404F583E406
:10473000F00DEDB428D92253D17FF15B90FF807446
:10474000F0F090FF817403F090FF8274FEF090FF10
:10475000837401F090FF8574FCF022E5D1547064FD
:1047600030600653D18F43D130E5D15407640760E0
:104770000653D1F843D107E5D254076402600653CB
:10478000D2F843D202225380FD000043800422432A
:10479000800200005380FB225380FD005380FB22E7
:1047A0009004A7E0600FE014F0E0FF7E00BE020777
:1047B000BF40048000F1982290079DE0FD9007A67D
:1047C000EDF0E4FF7E08EF25E0FFEE7C0024FFF52E
:1047D00082EC34FFF583120667FD9007A6E05D606A
:1047E000010FDEE222900799EBF0A3EAF0A3E9F0D3
:1047F00090079D7440F0E490079CF090079CE0FFC8
:10480000C394085037EFB40404A37480F090079960
:10481000E0FBA3E0FAA3E0F91247B890079CE0247C
:104820009EF582E43407F583EFF090079DE0FF13D7
:1048300013543FF090079CE004F080BF900799E08C
:10484000F9A3E0FAA3E09009D3C9F0A3EAF0A3E941
:10485000F0A37408F07B017A07799E022179900712
:10486000AF74FFF0A3740CF0A37408F0A374FFF00E
:10487000A3740CF0A37440F0A37407F09007ACEBA2
:10488000F0A3EAF0A3E9F0E4F5209007B604F09075
:1048900007B5E075F008A42401FFE435F0FEA3E0BD
:1048A000FDC39FEE6480F8748098507DE52025E07C
:1048B000F520EDFF7E0024FFFDEE34FFFC9007AFF6
:1048C000E0FBA3E0FAA3E0F98D828C83120667FD7A
:1048D0009007ACE0FBA3E0FAA3E0F98D82758300BA
:1048E000120667FDEF24FFFFEE34FFFE9007B2E0F3
:1048F000FBA3E0FAA3E0F98F828E831206675D6066
:104900000205209007B6E0FF54077015EF1313134C
:10491000541F24B6F582E43407F583E520F0E4F56E
:10492000209007B6E004F0018F9007ACE0F9A3E017
:10493000FAA3E09009D3C9F0A3EAF0A3E9F0900745
:10494000B5E09009D6F07B017A0779B7022179901A
:104950000799EBF0A3EAF0A3E9F02404F9E43AFAAA
:104960009009D37401F0A37407F0A374A0F0A374AA
:1049700004F01221799007AF74FFF0A3740DF0A337
:104980007418F0A374FFF0A3740CF0A374E8F0A300
:104990007406F07B017A0779A0117CE490079FF000
:1049A00090079FE0FF24A0F582E43407F583C083DD
:1049B000C082E0FE90079CE0FBA3E0FAA3E0F98F41
:1049C00082758300120667FFEE6FD082D083F0906D
:1049D000079FE004F0E0B406C7E490079FF090075B
:1049E0009FE0FFC3940240026106E0FE75F003A45D
:1049F00024A0F582E43407F583E0FDC45430FCEED6
:104A000075F003A424A1F582E43407F583E0C454CF
:104A10000F4CF520ED1313543FFE90079FE0FD75FA
:104A2000F000A42488F582E5F0340DF583ED2583AC
:104A3000F583E5822EF582E43583F583E493FE75F4
:104A4000F000EDA424C8F582E5F0340DF583ED25E2
:104A500083F583E5822520F582E43583F583E493AD
:104A6000FDEE4DFE90079FE0FD25E024A8F582E4D1
:104A70003407F583EEF0ED75F003A424A1F582E48C
:104A80003407F583E025E025E0543FFEED75F003A3
:104A9000A424A2F582E43407F583E0FDC413135483
:104AA000034EF520ED543FFE90079FE0FD75F000AA
:104AB000A42448F582E5F0340EF583ED2583F583D3
:104AC000E5822EF582E43583F583E493FE75F000EC
:104AD000EDA42408F582E5F0340EF583ED2583F589
:104AE00083E5822520F582E43583F583E4934EFE49
:104AF000EF25E024A9F582E43407F583EEF0900772
:104B00009FE004F021DE9007AF74FFF0A3740DF076
:104B1000A37468F0A374FFF0A3740DF0A37448F0BD
:104B2000A37404F07B017A0779A8117CE490079FB5
:104B3000F090079FE0FFC39404505B7E00EF2404D5
:104B4000FDEE33FC900799E0FBA3E0FAA3E0F98DBA
:104B5000828C83120667F52090079FE0FDF5827531
:104B60008300120667FC74A82DF582E43407F583F0
:104B7000E06CFD74042FF582E433F583ED1206D961
:104B800090079FE0F582758300E5201206D9900713
:104B90009FE004F0809B22900799EBF0A3EAF0A33A
:104BA000E9F0A3EDF012064E90079DF0900001127F
:104BB000066790079EF090000212066790079FF02C
:104BC00090000312066754F09007A0F0BD023390E6
:104BD000079DE0FCA3E0FDA3E0FEA3E0FF78011247
:104BE00008EA90079D120919900799E0FBA3E0FAE3
:104BF000A3E0F912064E30E7449007A0E04410F01D
:104C0000803B90079DE0FCA3E0FDA3E0FEA3E0FF56
:104C100078011208D790079D1209199007A0E05457
:104C2000F0F0900799E0FBA3E0FAA3E0F99000030D
:104C300012066730E40790079DE04480F0900799E2
:104C4000E0FBA3E0FAA3E0F9900003120667540F1B
:104C50009007A1F09000041206679007A2F0900060
:104C6000051206679007A3F09000061206679007EA
:104C7000A4F090079CE06402703D9007A1E0FCA3C3
:104C8000E0FDA3E0FEA3E0FF78011208EA9007A18F
:104C90001209199007A1E0540FF0900799E0FBA3C7
:104CA000E0FAA3E0F990000312066730E33D9007B5
:104CB000A4E04401F080349007A1E0FCA3E0FDA350
:104CC000E0FEA3E0FF78011208D79007A1120919AE
:104CD000900799E0FBA3E0FAA3E0F9900006120622
:104CE0006730E0079007A1E04408F09007A0E0FFDC
:104CF000A3E0FEEF4E9007A0F09007A2E09007A17E
:104D0000F09007A3E09007A2F09007A4E09007A31B
:104D1000F0900799E0F9A3E0FAA3E09009D3C9F075
:104D2000A3EAF0A3E9F0A37407F07B017A07799D69
:034D3000022179E4
:10800000EF14602104703BE5876003E4F587539823
:10801000F74398C0E4FF11D6900776E599F053989E
:10802000EC43A81022E5876003E4F58753D8F343B7
:10803000D8C07F0111D6900776E5D9F053D8EC432C
:10804000A90422EF14605104600201D5E5876003A2
:10805000E4F587E598440860035398F7E59854C021
:1080600064C060034398C090FFE2E054BFF090FF0B
:10807000F2E054BFF090FFE2E04480F043A080E4DF
:10808000FF11D6E4FF12019190060FE599F0539885
:10809000FC43981043A81022E5876003E4F587535A
:1080A000D8F343D8C090FFE3E054FEF090FFF3E034
:1080B00054FEF090FFE3E04402F043B0027F011170
:1080C000D67F0112019190060FE5D9F053D8FC43F9
:1080D000D81043A90422EF14602C04704CE59D6471
:1080E000CC6003759DCCE59C647F6003759C7FE547
:1080F0009E540F64016006539EF0439E01E59C2050
:10810000E727439C8022E5DD64F3600375DDF3E53A
:10811000DC647F600375DC7FE59E54F06003539E52
:108120000FE5DC20E70343DC8022E4FF11437F01FD
:1081300011437F0211437F030143E4F5B1F5A8F534
:10814000A912A08C12A0DB12A12751E1516A12A43E
:108150000B5182312A315CD2AF7F0022E4900611AC
:10816000F07FAA516F759560E4F596F59753A9FED7
:1081700043B48090064C120925000000E87F33517B
:10818000897F057E0012289490064C120925000074
:108190000C847F325189E4900611F0900611E0FEC4
:1081A00075F005A42443F582E43418F583E493FFC5
:1081B000C007EE75F005A42444F582E43418F58375
:1081C00012090990064C120919D00751899006111D
:1081D000E004F0E0C3942040C27B017A0C7968E4AB
:1081E000FD7F06FE121F30E4900611F0900611E0AC
:1081F000FE75F005A424E3F582E43418F583E493D6
:10820000FFC007EE25E025E02468F582E4340CF594
:1082100083E0FCA3E0FDA3E0FEA3E0FF90064C1288
:108220000919D0075189900611E004F0E0C39405C4
:1082300040BA7F647E0012289490064C12092500F3
:108240000000357F3051897F55516F90064C1209DF
:108250002500A000C17F3151897FF47E011228944E
:10826000E4F59775960843A90122E4FF0246CAEF98
:10827000B4550443958022E4F595F596F59753A9F6
:10828000FE222280EA7FAA80FA90064BEFF0A3E05C
:10829000FCA3E0FDA3E0FEA3E0FFA3120919E4F5AF
:1082A000917F06FE1229E6C2AF900651E0F592A337
:1082B000E0F593A3E0F5940000000000000000004A
:1082C000000000000000000000000000000000901E
:1082D000064BE04480F5917F067E001229E6D2AF7E
:1082E000227B017A05792790098EE4F0A37410F0BF
:1082F000E4FD12269B7B017A0479AC90098EE4F0B0
:10830000A3743AF0E4FD12269B7B017A047908906D
:10831000098EE4F0A37481F0E4FD12269B7B017AC0
:1083200005799190098EE4F0A37410F0E4FD122613
:108330009B7B017A00790890098EE4F0A37408F021
:10834000E4FD12269B7B017A00790090098EE4F00F
:10835000A37408F0E4FD12269B7B017A0479E69071
:10836000098EE4F0A3740AF0E4FD12269B7B017AE7
:108370000479F090098EE4F0A37429F0E4FD12264C
:108380009B7B017A0479A390098EE4F0A37409F031
:10839000E4FD12269B9005347401F012A93512AD4C
:1083A00033128FA512A76312A667129C91129B7EAF
:1083B000E4900BC9F090052DE054FBF0E490045BD1
:1083C000F0900527E04401F0900530E04403F09080
:1083D0000408E0FF7E007C037DE81206FB7C017D43
:1083E000F412070DE4FCFD900454120919900532B3
:1083F0007404F0900408E090044CF090044DF07B7D
:10840000017A05792AE4FD7F0FFE121F30EF600527
:10841000E490052AF090052AE030E60790052DE06B
:108420004420F0E490077EF0A3F07B017A077965A1
:10843000FD7F11FE121F3090052AE030E56D7B01B3
:108440007A07797512387890078412091990078491
:10845000E0FCA3E0FDA3E0FEA3E0FFEC4D4E4F6087
:1084600037900780E0F8A3E0F9A3E0FAA3E0FBC3AC
:108470001208C6400F90077E7401F090052AE03084
:10848000E4298021E490077EF0A3F090052AE054CF
:10849000DFF0E054EFF0801390077E7401F0900558
:1084A0002AE030E40690077F7401F07B017A0779B7
:1084B00065123878900784120919900784E0FCA3AC
:1084C000E0FDA3E0FEA3E0FF900780E0F8A3E0F961
:1084D000A3E0FAA3E0FBC31208C65002A1E3900593
:1084E0002EE04401F07B017A077969123886900703
:1084F00080120919900784E0FCA3E0FDA3E0FEA32D
:10850000E0FF900780E0F8A3E0F9A3E0FAA3E0FB26
:10851000C31208C65002A1DA90052EE020E104E063
:108520004402F0E4FFFEFDFC900784E0F8A3E0F9CC
:10853000A3E0FAA3E0FBC31208C66002A1C4900541
:108540002EE020E204E04404F07B017A05798912F0
:108550003886900780120919E4FFFEFDFC90078021
:10856000E0F8A3E0F9A3E0FAA3E0FBC31208C660B9
:108570000D90052EE020E30DE04408F08007900503
:108580002EE054F7F07B017A077971123886900754
:1085900084120919900784E0FCA3E0FDA3E0FEA388
:1085A000E0FF900780E0F8A3E0F9A3E0FAA3E0FB86
:1085B000C31208C690052AE040054420F0803254DA
:1085C000DFF0802D90052EE054F7F090052AE0545E
:1085D000DFF090052EE054FB800F90052EE054E173
:1085E000F0800E90052EE054E0F090052AE054EF64
:1085F000F090077EE0B4010790052AE04420F09057
:10860000077FE0B4010790052AE04410F090052AA6
:10861000E030E504E04410F07B017A05792AE4FDBE
:108620007F0FFE021A61900649EFF0C007900645E1
:10863000E0FCA3E0FDA3E0FEA3E0FF90064C1209DE
:1086400019D0075189900649E0B43618900645E0E4
:10865000FCA3E0FDA3E0FEA3E0FF90064C12091985
:108660007F365189E490064AF090064AE0FFC394B1
:10867000055052EF75F005A424E3F582E43418F5B3
:1086800083E493FF900649E0FEEFB506309006457F
:10869000E0FCA3E0FDA3E0FEA3E0FF90064AE02596
:1086A000E025E02468F582E4340CF5831209197B97
:1086B000017A0C7968E4FD7F06FE021A6190064A91
:1086C000E004F080A42212B00112B00C12B01B51D1
:1086D000857F010246CA900527E030E14ED1C69061
:1086E0000527E030E20A12AFB0900527E054FBF016
:1086F000E4900608F07F0A7E0012289412A0C0BF02
:108700000109900527E04402F0F137E4F5B1900645
:1087100008E004F0E0C3940A40DB900527E020E184
:1087200008E054FDF0E04401F0313A900527E020E4
:10873000E204E04404F022F148D1C612AFFE12AFC9
:108740008F12AFFF12B0002290FFE0E054FDF0E086
:1087500054FBF0E054F7F0E0547FF090FFF0E05469
:10876000FDF0E054FBF0E054F7F0E0547FF053806C
:10877000FD5380FB5380F753807F90FF88E054FDCA
:10878000F0E054FBF0E054F7F0E0547FF090FF8B02
:10879000E054FDF0E054FBF0E054F7F0E0547FF0DB
:1087A00090FF8EE054FDF0E054FBF0E054F7F0E071
:1087B000547FF090FFFAE054FDF0E054FBF0E054F9
:1087C000F7F0E0547FF090FFE1E054FEF0E054F762
:1087D000F0E054EFF090FFF1E054FEF0E054F7F0D9
:1087E000E054EFF05390FE5390F75390EF90FFE278
:1087F000E054FBF0E054BFF0E0547FF090FFF2E073
:1088000054FBF0E054BFF0E0547FF053A0FB53A0C2
:10881000BF53A07F90FF89E054FBF0E054BFF0E02D
:10882000547FF090FF8DE054FBF0E054BFF0E05433
:108830007FF090FF8FE054FBF0E054BFF0E0547FF6
:10884000F090FFFBE054FBF0E054BFF0E0547FF009
:1088500090FFE3E054FEF0E054FDF0E054EFF0E070
:1088600054DFF0E054BFF090FFF3E054FEF0E0542A
:10887000FDF0E054EFF0E054DFF0E054BFF053B00F
:10888000FE53B0FD43B01053B0DF53B0BF90FF8A2A
:10889000E054FEF0E054FDF0E054EFF0E054DFF07F
:1088A000E054BFF090FFE4E054EFF0E054DFF0E07C
:1088B00054BFF0E0547FF090FFF4E054EFF0E05448
:1088C000DFF0E054BFF0E0547FF053C0EF53C0DF5F
:1088D00053C0BF53C07F90FFE5E054FEF0E054FD6D
:1088E000F0E054FBF0E054F7F0E054EFF0E054DF38
:1088F000F0E054BFF0E0547FF090FFF5E054FEF05C
:10890000E054FDF0E054FBF0E054F7F0E054EFF0F9
:10891000E054DFF0E054BFF0E0547FF053E9FE5341
:10892000E9FD53E9FB53E9F753E9EF53E9DF53E975
:10893000BF53E97F90FFE6E054FDF0E054FBF0E028
:1089400054F7F0E054EFF0E054DFF0E054BFF0E013
:10895000547FF090FFF6E054FDF0E054FBF0E0545B
:10896000F7F0E054EFF0E054DFF0E054BFF0E054F3
:108970007FF053EAFD53EAFB53EAF753EAEF53EA79
:10898000DF53EABF53EA7F90FFE7E054FEF0E05484
:10899000FDF0E054DFF090FFF7E054FEF0E054FD0E
:1089A000F0E054DFF053EBFE53EBFD53EBDF90FFB1
:1089B000E8E054BFF0E0547FF090FFF8E054BFF0DF
:1089C000E0547FF053ECBF53EC7F90FFE9E054FE9E
:1089D000F0E054FDF0E054FBF0E054F7F0E054EF29
:1089E000F0E054DFF0E054BFF0E0547FF090FFF986
:1089F000E054FEF0E054FDF0E054FBF0E054F7F0FA
:108A0000E054EFF0E054DFF0E054BFF0E0547FF0CA
:108A100053EDFE53EDFD53EDFB53EDF753EDEF53E7
:108A2000EDDF53EDBF53ED7F22900628EFF0E49089
:108A30000637F0900628E0FF75F0A7A4248CF58295
:108A4000E5F03401F583EF2583F583E0FFE4FCFDD9
:108A5000FE900633120919900633E0F8A3E0F9A35B
:108A6000E0FAA3E0FBC000900628E0FF75F0A7A4A1
:108A7000248DF582E5F03401F583EF2583F583E05D
:108A8000FFE4FCFDFE78081208EAD000EB4FFFEA95
:108A90004EFEE94DFDE84CFC900633120919900694
:108AA00033E0F8A3E0F9A3E0FAA3E0FBC0009006EE
:108AB00028E0FF75F0A7A4248EF582E5F03401F5D7
:108AC00083EF2583F583E0FFE4FCFDFE78101208B8
:108AD000EAD000EB4FFFEA4EFEE94DFDE84CFC907A
:108AE0000633120919900633E0F8A3E0F9A3E0FA7F
:108AF000A3E0FBC000900628E0FF75F0A7A4248F38
:108B0000F582E5F03401F583EF2583F583E0FFE49A
:108B1000FCFDFE78181208EAD000EB4FFFEA4EFE8B
:108B2000E94DFDE84CFC900633120919900628E047
:108B3000FD75F0A7A4248DF582E5F03401F583EDF1
:108B40002583F583E0FF900629E4F0A3EFF0E07FB2
:108B500000FE900629F0A3EFF075F0A7EDA4248C99
:108B6000F582E5F03401F583ED2583F583E0FDED35
:108B7000FF900629EEF0A3EFF0900628E0FF75F0D5
:108B8000A7A4248AF582E5F03401F583EF2583F567
:108B900083E0642E6002814E900629E0FEA3E0FF90
:108BA000B1EE90062B12091990062BA3A3A3E0FFA8
:108BB000900628E0FB75F0A7A42490F582E5F03438
:108BC00001F583EB2583F583EFF090062BE0FCA302
:108BD000E0FDA3E0FEA3E0FF78081208D775F0A738
:108BE000EBA42491F582E5F03401F583EB2583F5C0
:108BF00083EFF090062BE0FCA3E0FDA3E0FEA3E0F2
:108C0000FF78101208D7900628E0FB75F0A7A4247F
:108C100092F582E5F03401F583EB2583F583EFF0DF
:108C200090062BE0FCA3E0FDA3E0FEA3E0FF781894
:108C30001208D775F0A7EBA42493F582E5F0340170
:108C4000F583EB2583F583EFF0E4900637F090068B
:108C500028E0FF75F0A7A4248AF582E5F03401F539
:108C600083EF2583F583E0642F6002A1D975F0A717
:108C7000EFA4249BF582E5F03401F583EF2583F51D
:108C800083E0FFE4FCFDFE78181208EA90062F123C
:108C9000091990062FE0F8A3E0F9A3E0FAA3E0FB9E
:108CA000C000900628E0FF75F0A7A4249AF582E59D
:108CB000F03401F583EF2583F583E0FFE4FCFDFE4E
:108CC00078101208EAD000EB4FFFEA4EFEE94DFDA6
:108CD000E84CFC90062F12091990062FE0F8A3E04B
:108CE000F9A3E0FAA3E0FBC000900628E0FF75F0CE
:108CF000A7A42499F582E5F03401F583EF2583F5E7
:108D000083E0FFE4FCFDFE78081208EAD000EB4F98
:108D1000FFEA4EFEE94DFDE84CFC90062F120919C2
:108D200090062FE0F8A3E0F9A3E0FAA3E0FB900699
:108D300028E0FF75F0A7A42498F582E5F03401F54A
:108D400083EF2583F583E0FFEB4FFFEAFEE9FDE8C3
:108D5000FC90062F120919900628E0FF75F0A7A4D1
:108D6000248EF582E5F03401F583EF2583F583E069
:108D7000602E14605414604824FB60030470549007
:108D8000062FE0FCA3E0FDA3E0FEA3E0FF90064574
:108D9000120919900629E0FEA3E0FF128626803909
:108DA000900628E0FF75F0A7A4248CF582E5F03446
