:020000040000FA
:09000000020F5C023FCB22222218
:0F000B0002400FEF240A83900100730A2D5073F7
:03001B00023FEDB4
:03002300022A0CA2
:03002B000240C8C8
:030033000240EA9E
:03003B0002410C73
:0300430002415E19
:10004B00022B57E4FFFE12064E600C0FEF70010EF1
:10005B0009E970F20A80EF22024191E4FF121EB00F
:06006B00123966021F00BD
:100073000241B39009C21208FD7810EC4D4E4F7047
:10008300047CA57DA5C3EC13FCED13FDEE13FEEF7D
:1000930013FF5010EC64CCFCED644CFDEE644EFE9B
:1000A300EF64CEFFD8DF9009C2120919EE547FFE28
:1000B300229009C2EEF0EFA3F0A374A5F0A3F022FF
:1000C300300100000C0333020012300004002C3412
:1000D3000006000E1D0008000C1E000A000C0002A2
:1000E300060A0E05020404040401020A0B090304B0
:0700F30001020A0B090304DE
:10010000C0087401C0E0C082C08375080AC0F085D1
:10011000A8F0C2AF75B75575B61175B70085F0A8D0
:10012000D0F022C0087401C0E0C082C08375082DE1
:10013000C0F085A8F0C2AF75B75575B61175B70098
:1001400085F0A8D0F022C0087401C0E0C082C0834E
:10015000750850C0F085A8F0C2AF75B75575B622C6
:1001600075B70085F0A8D0F022C0087401C0E0C0C7
:1001700082C083750873C0F085A8F0C2AF75B7550B
:1001800075B63375B70085F0A8D0F02290800021B5
:100190004690829821469083A421469086EC214681
:1001A0009086D5214690BCCE214690BD2321469015
:1001B000D253214690A806212390813A212390B062
:1001C00088212390804321239080002123909681D1
:1001D000212390AE6B21239098AD2123908F07218E
:1001E0002390A09E21239085F721239083F421233F
:1001F000909000212390B943212300020543E86435
:1002000080F8E933E83360110460F0ED33EC3370CB
:1002100009E8FCE9FDEAFEEBFF220460DED3EB9F78
:10022000EA9EE99DE8C2E78CF0C2F795F0400CE841
:10023000CCF8E9CDF9EACEFAEBCFFB12050E85D06A
:10024000F05804700320D5B3E80470075002B2D50B
:1002500002054D92D5EC0460F7E4CCC0E0C398F8F9
:10026000603B94186008400DD0E0FB020525E4FBDC
:10027000FAC9FC8028E830E406E4C9FBE4CAFCE8DB
:1002800030E305E4C9CACBFCE854076010F8C3E9C1
:1002900013F9EA13FAEB13FBEC13FCD8F130F52F4A
:1002A000C3E49CFCEF9BFFEE9AFEED99FDD0E0FBD2
:1002B000EF4E4D4C701222DB0302054AEC2CFCEF92
:1002C00033FFEE33FEED33FDED30E7EB020525EFB6
:1002D0002BFFEE3AFEED39FDD0E0FB50130BBB00D7
:1002E0000302054DED13FDEE13FEEF13FFEC13FCBF
:1002F000020525EC4D6011E8497017ED33EC33042D
:10030000600DE4FCFFFEFD22E933E8330470F802DF
:10031000054312050E58046009E4CC2481500628D8
:10032000500902054D28400302054AC0E0EB4A701F
:1003300044B98006D0E0FB020539EF4E701CBD8049
:1003400008EBFFEAFEE9FD80EBE98DF0A4FEE5F0A5
:100350000203DCE9CDF9EAFEEBFFEF89F0A4FCE54E
:10036000F0CE89F0A42EFFE435F0CD89F0A42DFE67
:10037000E435F08067EF4E7005BD80D780C3EF8B0A
:10038000F0A4ACF0EE8BF0A42CFCE435F0F8EF8A8E
:10039000F0A42CE5F038FCE433CB8DF0A42CFCE584
:1003A000F03BF8EE8AF0A42CFCE5F038F8E433CF0B
:1003B00089F0A42CFCE5F038CF3400CE89F0A42FCE
:1003C000FFE5F03EFEE433C98DF0A42EFEE5F039E2
:1003D000CD8AF0A42FFFE5F03EFEE43DFD33D0E0F2
:1003E000FB50070BBB000F02054DEC2CFCEF33FF5D
:1003F000EE33FEED33FD02052502054DEC5D046094
:1004000005E85904700302054312050E580460F60E
:10041000EC4860F2EC7004FDFEFF22C860DB248132
:10042000C85009C3986002500602054A9850CAF5A0
:1004300082E9294B4A7005AB8202053975F0007CD0
:100440001A7880C3EF9BEE9AED99400DC3EF9BFFA6
:10045000EE9AFEED99FDE842F0DC23ACF0D0E0FF2F
:10046000D0E0FED0E0FDAB8220E7101BEB60BAECE1
:100470002CFCEF33FFEE33FEED33FD020525E803E0
:10048000F830E705C0F075F000EF2FFFEE33FEED1A
:1004900033FD40B830E7C280AA75F020800E75F0B9
:1004A00010800575F0087D007E007F003392D53006
:1004B000D5031208B8EC334010EF33FFEE33FEEDF6
:1004C00033FDEC33FCD5F0ED22E5F0247EA2D5130C
:1004D000CC92E7CDCEFF22EDD2E7CD33EC3392D5EF
:1004E00024814006E4FFFEFDFC22FCE4CFCECDCC0F
:1004F00024E0501174FF80EDC3CC13CCCD13CDCECE
:1005000013CECF13CF0470F030D5DE0208B8E9D295
:10051000E7C933E833F892D5EDD2E7CD33EC33FCBD
:100520005002B2D522EC30E7100FBF000C0EBE0017
:10053000080DBD00040BEB6014A2D5EB13FCED928B
:10054000E7FD2274FFFCFDFEFF22E480F8A2D574D3
:10055000FF13FC7D80E480EFE709F608DFFA8046B0
:10056000E709F208DFFA803E88828C83E709F0A36E
:10057000DFFA8032E309F608DFFA8078E309F2084F
:10058000DFFA807088828C83E309F0A3DFFA80644D
:1005900089828A83E0A3F608DFFA805889828A83F9
:1005A000E0A3F208DFFA804C80D280FA80C680D4C3
:1005B000806980F28033801080A680EA809A80A8CB
:1005C00080DA80E280CA803389828A83ECFAE493FD
:1005D000A3C8C582C8CCC583CCF0A3C8C582C8CC8B
:1005E000C583CCDFE9DEE7800D89828A83E493A3AB
:1005F000F608DFF9ECFAA9F0EDFB2289828A83EC98
:10060000FAE0A3C8C582C8CCC583CCF0A3C8C58214
:10061000C8CCC583CCDFEADEE880DB89828A83E44C
:1006200093A3F208DFF980CC88F0EF60010E4E60F2
:10063000C388F0ED2402B4040050B9F582EB240223
:10064000B4040050AF23234582239005A873BB0157
:100650000689828A83E0225002E722BBFE02E3225F
:1006600089828A83E49322BB010CE58229F582E525
:10067000833AF583E0225006E92582F8E622BBFEA4
:1006800006E92582F8E222E58229F582E5833AF53A
:1006900083E49322BB010FF8E58229F582E5833AD2
:1006A000F583E028F0225009C58229F8E58226F674
:1006B00022BBFE09C58229F8E22582F222F8EA254A
:1006C00083F583E9932822BB010689828A83F0227D
:1006D0005002F722BBFE01F322F8BB010DE582298F
:1006E000F582E5833AF583E8F0225006E92582C8D1
:1006F000F622BBFE05E92582C8F222EF8DF0A4A800
:10070000F0CF8CF0A428CE8DF0A42EFE22BC000BDE
:10071000BE0029EF8DF084FFADF022E4CCF875F037
:1007200008EF2FFFEE33FEEC33FCEE9DEC98400516
:10073000FCEE9DFE0FD5F0E9E4CEFD22EDF8F5F0DC
:10074000EE8420D21CFEADF075F008EF2FFFED33E4
:10075000FD4007985006D5F0F222C398FD0FD5F062
:10076000EA22C5F0F8A3E028F0C5F0F8E58215828A
:1007700070021583E038F022A3F8E0C5F025F0F010
:10078000E582158270021583E0C838F0E822E88F10
:10079000F0A4CC8BF0A42CFCE98EF0A42CFC8AF005
:1007A000EDA42CFCEA8EF0A4CDA8F08BF0A42DCC07
:1007B0003825F0FDE98FF0A42CCD35F0FCEB8EF060
:1007C000A4FEA9F0EB8FF0A4CFC5F02ECD39FEE446
:1007D0003CFCEAA42DCE35F0FDE43CFC2275F0088B
:1007E000758200EF2FFFEE33FECD33CDCC33CCC579
:1007F0008233C5829BED9AEC99E58298400CF58294
:10080000EE9BFEED9AFDEC99FC0FD5F0D6E4CEFB05
:10081000E4CDFAE4CCF9A88222B800C1B90059BAF3
:10082000002DEC8BF084CFCECDFCE5F0CBF9781821
:10083000EF2FFFEE33FEED33FDEC33FCEB33FB101B
:10084000D703994004EB99FB0FD8E5E4F9FA227835
:1008500018EF2FFFEE33FEED33FDEC33FCC933C947
:1008600010D7059BE99A4007EC9BFCE99AF90FD851
:10087000E0E4C9FAE4CCFB2275F010EF2FFFEE3371
:10088000FEED33FDCC33CCC833C810D7079BEC9AB0
:10089000E899400AED9BFDEC9AFCE899F80FD5F039
:1008A000DAE4CDFBE4CCFAE4C8F922CFF4CFCEF4FD
:1008B000CECDF4CDCCF4CC22C3E49FFFE49EFEE485
:1008C0009DFDE49CFC22EB9FF5F0EA9E42F0E99D41
:1008D00042F0E89C45F022E8600FECC313FCED13F6
:1008E000FDEE13FEEF13FFD8F122E8600FEFC333E4
:1008F000FFEE33FEED33FDEC33FCD8F122E0FCA338
:10090000E0FDA3E0FEA3E0FF22E493FC740193FD6D
:10091000740293FE740393FF22ECF0A3EDF0A3EEB8
:10092000F0A3EFF022A8828583F0D083D082120951
:100930003C12093C12093C12093CE473E493A3C540
:1009400083C5F0C583C8C582C8F0A3C583C5F0C5FB
:1009500083C8C582C822D083D082F8E49370127411
:100960000193700DA3A393F8740193F5828883E437
:10097000737402936860EFA3A3A380DFD083D08257
:10098000E4937012740193700DA3A393F874019310
:10099000F5828883E4737402936C70127403936D10
:1009A000700C7404936E70067405936F60DDA3A3DE
:1009B000A3A3A3A380CAE3F5F009E208B5F06D6034
:1009C0006B80F3E3F5F009E608B5F060605E80F354
:1009D00087F009E608B5F054605280F487F009E228
:1009E00008B5F048604680F488828C8387F009E07F
:1009F000A3B5F038603680F488828C8387F009E4F0
:100A000093A3B5F027602580F388828C83E3F5F00B
:100A100009E0A3B5F016601480F388828C83E3F5B7
:100A2000F009E493A3B5F004600280F2020AE180C9
:100A30008580E7808E80D2803C8015806C807E80AF
:100A40009B80B5808B80A1804F8070803A020AED38
:100A500089828A83ECFAE493F5F0A3C8C582C8CCF6
:100A6000C583CCE493A3C8C582C8CCC583CCB5F0FC
:100A700070606E80E189828A83E493F5F0A3E208D6
:100A8000B5F05E605C80F289828A83E0F5F0A3E6CF
:100A900008B5F04D604B80F389828A83E0F5F0A3BE
:100AA000E208B5F03C603A80F389828A83E493F5EA
:100AB000F0A3E608B5F02A602880F2805389828A84
:100AC00083ECFAE493F5F0A3C8C582C8CCC583CC07
:100AD000E0A3C8C582C8CCC583CCB5F00460028051
:100AE000E27FFFB5F0020F2240027F012289828A55
:100AF00083ECFAE0F5F0A3C8C582C8CCC583CCE08E
:100B0000A3C8C582C8CCC583CCB5F0D560D380E37B
:100B100089828A83ECFAE0F5F0A3C8C582C8CCC507
:100B200083CCE493A3C8C582C8CCC583CCB5F0B14F
:100B300060AF80E288F0ED2402B4040050A3F58297
:100B4000EB2402B4040050992323458223900A2FFA
:100B50007354544D3A4144562D4F4E0D0A0054548F
:100B60004D3A5343414E2D4F4E0D0A0054544D3AC9
:100B7000434F4E4E454354494E470D0A0054544D81
:100B80003A434F4E4E45435445440D0A0054544D8C
:100B90003A424C455F49444C450D0A0054544D3A85
:100BA0004552500D0A0054544D3A4F4B0054544D89
:100BB0003A45525000535441540045414456004474
:100BC0004144560044434F4E004D41432D3F004D9C
:100BD00041432D00444E4D2D3F0052454E2D0054B3
:100BE000504C2D0054504C2D3F0054544D3A0D0A9A
:100BF00000FF0BB500000000100001FF0BBAFF0B57
:100C0000A600000002FF0BBFFF0BA600000003FFC1
:100C10000BC4FF0BA600000008FF0BC9000000007A
:100C20000C0809FF0BCFFF0BA60C00000AFF0BD42A
:100C3000000000000C080BFF0BDAFF0BA60C0000F5
:100C400010FF0BDFFF0BA605000011FF0BE40000F7
:100C50000000050800000000000000000000000087
:100C60000000000000000000000000000000000084
:100C70000000000000000000000000000000000074
:100C80000000000000000000000000000000000064
:100C90000000000000000000000000000000000054
:100CA0000000000000000000000000000000000044
:100CB0000000000000000000000000000000000034
:100CC0000000000000000000000000000000000024
:100CD0000000000000000000000000000000000014
:100CE0000000000000000000000000000000000004
:100CF00000000000000000000000000000000000F4
:100D000000000000000000000000000000000000E3
:100D100000000000000000000000000000000000D3
:100D200000000000000000000000000000000000C3
:100D300000000000000000000000000000000000B3
:100D400000000000000000000000000000000000A3
:100D50000000000000000000000000000000000093
:100D60000000000000000000000000000000000083
:100D70000000000000000000000000000000000073
:100D800060240965303F3106325B334F3466356D80
:100D9000367D3707387F396F4177427C4339553E7E
:100DA0004930507346714F3F47095E0A0F1932644C
:100DB00096C860E007C9000000000A0A00000001B0
:100DC00001000A0A00010002000A0E0E00000003E2
:100DD000010A0E0E0001000400180E0E00000005AE
:100DE00001180E0E0001000600261616000000076E
:100DF0000126161600010008003C0E0E0000000936
:100E0000013C0E0E0001000A004A10100000000B09
:100E1000014A10100001000C005A0D010101000DE3
:100E200000670D010101000E007404040101000FB0
:100E30000078030300010010007B1B1B0001001160
:100E4000009619190001001200AF0B0B00010013EE
:100E500000BA10100101001400CA060600010015B6
:100E600000D005050101001600D508080001001793
:100E700000DD08080001001800E51A1A0001001939
:100E800001AC06060001001A01B23E3E0001001B43
:100E900001921A1A00014C09890B510B5E0B6C0B65
:100EA0007D0B8D0B9C4209970BA64209950BAD005B
:100EB00002054322EDA2E7D2E7F9EC3340F260F3FA
:100EC000B4FF08ED547F70E802054DF82481C2E0BC
:100ED000C0E0F40428FAC313FCED92E7FD9003FC94
:100EE000120919EEA2E7E9BA7F02C3133400940095
:100EF000FA75F091A4E5F013F494FE8AF0A433E5BA
:100F0000F033248CD313FDE492E7FE7F007C3F7521
:100F10008302ECC0E0F8EDC0E0F9EEC0E0FAEFC00B
:100F2000E0FB8583F09003FC1208FD85F08312033B
:100F3000FCD0E0FBD0E0FAD0E0F9D0E0F8120202F9
:100F4000ED6480FD30E7011CD583C7ED33CC33F869
:100F5000D0E0A2E71328C313CC13FD22787FE4F678
:100F6000D8FD75812012010A020FA6021A97E49398
:100F7000A3F8E493A34003F68001F208DFF480298C
:100F8000E493A3F85407240CC8C333C4540F44207B
:100F9000C8834004F456800146F6DFE4800B01026A
:100FA000040810204080900D80E47E019360BCA373
:100FB000FF543F30E509541FFEE493A360010ECFB8
:100FC00054C025E060A840B8E493A3FAE493A3F8E2
:100FD000E493A3C8C582C8CAC583CAF0A3C8C582A2
:100FE000C8CAC583CADFE9DEE780BE070605040379
:100FF00002010007060504030201000706050403B9
:1010000002010007060504070605040302010007A4
:10101000060504030201000706050403020100039C
:10102000020100808080808080808040404040407D
:1010300040404020202020202020201010101002AE
:10104000020202020202020404040404040404086A
:101050000808080808080810101010010201020012
:10106000000003010002010202010003000100036D
:101070000201000506030405060304060504050530
:101080000604060406050506040303048020018007
:101090000820100204084002201010400101022024
:1010A000100840801002080202040120088001108C
:1010B00080020140080440401008010101020202C0
:1010C000020202010202020202020101804020101B
:1010D0000810080402018001804020100810080454
:1010E00002018001804020100810080402018001E4
:1010F0008040201008100804020180030000000056
:1011000000000000000001000101010101010101D6
:1011100001010201020202020202020202020302B1
:10112000030303030303030303030001021008087E
:10113000101080800202400840024040010104017A
:1011400020208020080404042010800100020203F3
:101150000103020001020300020301000002010377
:101160000300010201030002010003E00040F0D08F
:1011700070104020E0F020B0D0801030A0A060605F
:10118000C0C0B0509090500030708040F010C0E06F
:10119000808020D04060902010B070F050C0B0909F
:1011A0003070E030A0A000506000D00F03010D08A7
:1011B000040E07060F0B020308040E090C070002B9
:1011C000010D0A0C060009050B0A05000D0E0807A3
:1011D0000A0B010A03040F0D040102050B08060C9B
:1011E00007060C09000305020E0F09A0D00070903D
:1011F00000E09060303040F06050A01020D080C0FF
:101200005070E0B0C040B020F08010D01060A0401E
:10121000D090008060F09030800070B04010F020DE
:10122000E0C03050B0A050E02070C0070D0D080E97
:101230000B03050006060F09000A03010402070854
:1012400002050C0B010C0A040E0F090A03060F0914
:101250000000060C0A0B01070D0D080F090104031D
:10126000050E0B050C02070802040E20E0C0B0407A
:101270002010C07040A070B0D0601080505000307E
:10128000F0F0A0D0300090E080906040B02080105E
:10129000C0B070A010D0E0702080D0F06090F0C09E
:1012A00000509060A030400050E0300C0A010F0A5E
:1012B000040F020907020C0609080500060D0103C8
:1012C0000D040E0E00070B05030B0809040E030F97
:1012D00002050C020908050C0F030A070B000E0497
:1012E000010A0701060D000B08060D40D0B00020D2
:1012F000B0E070F04000908010D0A030E0C030909E
:101300005070C05020A0F060801060106040B0B0FD
:10131000D0D080C010304070A0E070A090F050603D
:101320000080F000E05020903020C00D01020F0836
:101330000D0408060A0F030B0701040A0C09050334
:10134000060E0B0500000E0C09070207020B010434
:101350000E010709040C0A0E08020D000F060C0A04
:10136000090D000F0303050506080BFFF002002717
:10137000062004444C2F54003634352D323030379B
:101380002D31344444535936363620202000000095
:10139000000102C201000000040001000100000180
:1013A00002C201000000040001000200000102C6A8
:1013B000010000000400010090020101036301002C
:1013C00000000400010090020001035D0100000024
:1013D0000400010090020001035D01000000040010
:1013E00001033006010102F90100000004000102BE
:1013F0008000200102F50100020C04000104000439
:10140000010101C9000010000600010400040201EE
:1014100001CF000010060600010400040E0101D5F2
:101420000000100C060001033001000103AE0100B2
:101430000000040101033302010103B201000000B6
:101440000401010400100101037B000011000400ED
:10145000010400100201037F0000110404000104D4
:1014600000100401038300001108040001040010AF
:10147000030103870000110C0400010400100501A2
:10148000038B0000111004000104090B0101038FFC
:101490000000111403000104800010FF136B010011
:1014A00000000801000400040DFF13730100000098
:1014B0001001000400040BFF1383010000000A0167
:1014C0000004000C010000000000120004010004F0
:1014D000000C020000000000120304010004000CD4
:1014E00003000000000012060401000400030801CC
:1014F00001E400001900010000040003020101E5FD
:1015000000001901010000040003010101E60000D0
:101510001902010000040003050101E7000019039E
:10152000010000040401010101EA00001A000101A8
:10153000000404020101020800001A1E0101000457
:101540000003060101DE0000101603000104000381
:10155000070101DB0000101303000102010100017B
:10156000002E010000000200010202010001003D06
:101570000100000003000102030000010049010016
:1015800000000300010203010001004D0100000002
:101590000300010206000001005A010000000200E1
:1015A000010206010001005E0100000002000102CC
:1015B00080000201006A0100000002000107000033
:1015C000FF070001FF070101FF070102FF070103F9
:1015D000FF070301FF070002FF200E1E1E18300840
:1015E000100404040404161100000000111100B0DE
:1015F000990184D401FF8430020C80FA000380FA40
:1016000000000084000084D6960004D6822404DC06
:10161000010C04DC030C8432010C04D6820004D6D5
:10162000830004D684000082000804D68C0004D60F
:10163000000004D6880004D6940004D6970000C0A9
:10164000000000B0880000B08C0000B0940000B032
:10165000970004B2010C0102030000118923123229
:101660009B462457AD653674BF8C489DC1AF5ABEAA
:10167000D3CA6CDBE5E97EF8F710810108339322C9
:101680001A56A5472C75B7643E9CC98D40BFDBAE8A
:1016900052DAEDCB64F9FFE8762102308B021013A9
:1016A00099672676AF443455BDAD4ABCC38E589F6A
:1016B000D1EB6EFAE7C87CD9F53183200A12910389
:1016C0001877A7662E54B5453CBDCBAC429ED98F4A
:1016D00050FBEFEA66D8FDC9744204538D61167061
:1016E0009F042015A9273236BBCE4CDFC5ED5EFC2A
:1016F000D7886899E1AB7ABAF35285430C71976049
:101700001E14A1052837B3263ADECDCF44FDDFEC09
:101710005698E98960BBFBAA726306728F40145128
:101720009D252234AB063017B9EF4EFEC7CC5CDDE9
:10173000D5A96AB8E38A789BF17387620E50954108
:101740001C35A3242A16B10738FFCFEE46DCDDCDC9
:1017500054B9EBA8629AF98B7084089581A71AB6E0
:1017600093C22CD3A5E13EF0B7084019C92B523AD9
:10177000DB4E645FED6D767CFF94898500B79BA698
:1017800012D2ADC324F1BFE03618C109483BD32AB9
:101790005A5EE54F6C7DF76C7EA50AB48386189778
:1017A00091E32EF2A7C03CD1B5294238CB0A501B99
:1017B000D96F667EEF4C745DFDB58BA40296998758
:1017C00010F3AFE226D0BDC13439C3284A1AD10B79
:1017D000587FE76E6E5CF54D7CC60CD785E51EF430
:1017E00097802891A1A33AB2B34A445BCD69567859
:1017F000DF0C601DE92F723EFBD68DC704F59FE418
:101800001690A98120B3BBA2325AC54B4C79D76838
:101810005E1CE10D683FF32E7AE70EF687C41CD5F7
:1018200095A12AB0A3823893B16B467ACF48545918
:10183000DD2D623CEB0E701FF9F78FE606D49DC5D7
:1018400014B1ABA02292B983307BC76A4E58D549F8
:101850005C3DE32C6A1EF10F7801010101020202D6
:10186000262626262525252828282827272710103C
:1018700010101111110E0E0E0E0F0F0F0C0C0C0C80
:101880000D0D0D0A0A0A0A0B0B0B0A100F0E0D0B99
:101890000C04030201020403040302010204030412
:1018A000030201020403040302010204030403020D
:1018B00001020403040302010204030403020102FF
:1018C000040300000000000000000000000102C24C
:1018D000040201000100000102C204020100020032
:1018E000000102C6040201040004010101C9020052
:1018F00005040004010101CB0400010400040201FD
:1019000001CF020005040004020101D1040001041A
:1019100000040E0101D50200050400040E0101D7E8
:10192000040001028000200102F50404010090027D
:101930000001035D0402010090020101036304023F
:10194000010400100101037B0402010400100201E4
:10195000037F04020104090B0101038F0304030246
:1019600001010001001D0302030202010001003D0C
:1019700003030302030000010049030403020301FF
:101980000001004D0304030206000001005A020397
:10199000050206010001005E02030502800002014B
:1019A000006A0202050400040901006C030003FF41
:1019B000FFFFFF00000000000036000000003700BD
:1019C00000000038000000003A000000003B00006A
:1019D00000003C000000003D000000003E00000050
:1019E000003F000000004000000000410000000037
:1019F0004200000000440000001B450000000046BB
:101A00000000000047000001804B000001FF500073
:101A100000000051000000045200000000530000CC
:101A200000005400000000550000000056000000B7
:101A30000057000000005A008000005B007FF5475F
:101A4000600000055D61007FF54662000000007CDB
:101A5000000000807D00000000480000018234008A
:101A600000000035000000003900000000430000C5
:101A7000001B30000000353100A000C13200000C16
:101A80008433000000E8003409350D390C0F0A10CA
:101A9000091BD3000000001201B9BF01031201BEEF
:101AA00051E8900290E0F8A3E0F9A3E0FAA3E0FB8C
:101AB000C31208C66003E4F5B151E8900290120920
:101AC000191201DC12018C1201D71201AF1201B4FC
:101AD00012000680CBF583E0FCA3E0FDA3E0FEA3AB
:101AE000E0FF9003E212091990028CE0FCA3E0FDF4
:101AF000A3E0FEA3E0FF90042F120919900288E0F2
:101B0000FCA3E0FDA3E0FEA3E0FF9004331209195B
:101B1000E4FFFEFDFC900433E0F8A3E0F9A3E0FA53
:101B2000A3E0FBC31208C6703074FFFFFEFDFC90FB
:101B3000042FE0F8A3E0F9A3E0FAA3E0FBC3120846
:101B4000C66043E4FFFEFDFC90042FE0F8A3A3A3CE
:101B5000E0C31208C67002802D90042FE0FCA3E0C1
:101B6000FDA3E0FEA3E02401FFE43EFEE43DFDE42E
:101B70003CFCA3E0F8A3E0F9A3E0FAA3E0FBC31266
:101B800008C6600241E890042FE0FCA3E0FDA3E05A
:101B9000FEA3E0FF227B017A0379557D047C00B12E
:101BA000F990035BEEF0A3EFF07B017A037955E443
:101BB000FD7F17FE71D57B017A0079107D047C00D2
:101BC000B1F9900016EEF0A3EFF07B017A007910E6
:101BD000E4FD7F16FE90066CEDF0A3EBF0A3EAF0B7
:101BE000A3E9F090066AEEF0A3EFF090067074019E
:101BF000F0E4900672F0A3F0C3EF941CEE94004062
:101C000002A1C8E4900671F0900671E0FFC3941C35
:101C10004002A1C875F008EFA424C9F582E5F034AC
:101C200007F583E0FEA3E0FF90066AE0FCA3E0FD79
:101C3000EF6D7002EE6C6002A1C0EDAE047803C3DC
:101C400033CE33CED8F9FF24CFF58274073EF58327
:101C5000E0600281E490066DE0FBA3E0FAA3E0F906
:101C600074CE2FF58274073EF583E024FEFDE43444
:101C7000FFFCB1F9900672EEF0A3EFF0900672E06F
:101C8000FD90066AE0FEA3E07803C333CE33CED8DE
:101C9000F924CEF58274073EF583E024FEFFE43498
:101CA000FFFE90066DE0FBA3E0FAA3E0F98F828EC1
:101CB00083ED1206D9900672A3E0FD90066AE0FE5D
:101CC000A3E07803C333CE33CED8F924CEF58274A3
:101CD000073EF583E07E0024FFF582EE34FFF583B6
:101CE000ED1206D990066AE0FEA3E07803C333CE76
:101CF00033CED8F924CBF58274073EF583E0FEA3FA
:101D0000E0FF90066CE0FD7C00EF2DFFEC3EFEC096
:101D100006C007A3E0FBA3E0FAA3E0F990066AE09F
:101D2000FEA3E07803C333CE33CED8F924CEF582B8
:101D300074073EF583E09009B5F0D007D006124352
:101D4000F3EF6002A1C8900670F090066AE0FEA36F
:101D5000E07803C333CE33CED8F9FF24D0F58274B4
:101D6000073EF583E0706174D32FF58274073EF56A
:101D700083E0FEA3E0FF90066CE0FD7C00EF2DFF0A
:101D8000EC3EFEC006C007A3E0FBA3E0FAA3E0F927
:101D900090066AE0FEA3E07803C333CE33CED8F9D1
:101DA00024D6F58274073EF583E09009B5F0D0079C
:101DB000D0061243F3EF60109006707401F08008B3
:101DC000900671E004F08108900670E0FF22122274
:101DD000B29003EDE0FF7E009003EFEEF0A3EFF092
:101DE000FD9003ECE0FFED9003EFCFF0A3EFF07B6D
:101DF000017A0379E07D0C7C009006B0EBF0A3EA59
:101E0000F0A3E9F0A3ECF0A3EDF0E4A3F0A3F090CD
:101E100006B374FFF5F012077845F060429006B003
:101E2000E0FBA3E475F001120778A9F0FA12064E60
:101E3000FF9006B5E0FCA3E0FDED6F25E0FFE43385
:101E4000FE74592FF58274163EF583ECFFE493FE81
:101E50007401936FFF9006B5EEF0A3EFF080B090A1
:101E600006B5E0FEA3E0FF22E0FFA3E0900669CF05
:101E7000F0A3EFF07D06900665EBF0A3EAF0A3E98E
:101E8000F0A3EDF012282AEF70037F01229006657F
:101E9000E0FBA3E0FAA3E0F9A3E0FD7C00B1F99038
:101EA0000669E06E7003A3E06F7F0060027F01228D
:101EB0009003E0EFF0E4A3F07B017A0279659002F1
:101EC0007DE0FFA3E0900669CFF0A3EFF07D18D18D
:101ED00076EF70069003E0E070207B017A0279656E
:101EE000E4FD7F1BFE12202CBF01069003E174016C
:101EF000F0F195123A447F01F1279003E1E0FF22CF
:101F00007F01F1277F147E00F1B31241EBEF6403F0
:101F10006014EF60119002C1E0D394024008E4F035
:101F2000F1957F01F127229003F9EFF078FA7C0315
:101F30007D017BFF7A0D791C7E007F1412062890AC
:101F400004117401F090040EF0A37403F0A374FA6A
:101F5000F09003F9E0FF7B017A0379FA123A9DEFE2
:101F6000702D900997E0FEA3E0AA06F97BFFC0035D
:101F7000C00290040EE0FBA3E0FAA3E0F8AC02ADCF
:101F800003D002D003120B34EF7004900411F090D0
:101F90000411E0FF2290FFE3E04440F043B0407FB3
:101FA000967E00F1B390FFE3E04440F053B0BF7F72
:101FB000F47E0190049BEEF0A3EFF0A3120925003C
:101FC00000000090049BE0FEA3E0FF7C007D131264
:101FD00006FBE4FDA3E0F8A3E0F9A3E0FAA3E0FB2D
:101FE000C31208C6502412322290049DE0FCA3E0E4
:101FF000FDA3E0FEA3E02401FFE43EFEE43DFDE49A
:102000003CFC90049D12091980B92290042DE075C2
:10201000F00EA42495F582E5F03413F583E493FEE5
:10202000740193FF7B017A0379EBE4FD900667ED81
:10203000F0A3EBF0A3EAF0A3E9F0900665EEF0A3BD
:10204000EFF090066B7401F0E4A3F0A3F09006AEFD
:10205000F0A3F0C3EF941CEE94004002414FE490D3
:10206000066CF090066CE0FFC3941C4002414F7573
:10207000F008EFA424C9F582E5F03407F583E0FE0B
:10208000A3E0FF900665E0FCA3E0FDEF6D7002EEBB
:102090006C6002414790066DF0900665E0FEA3E09B
:1020A0007803C333CE33CED8F924CBF58274073E00
:1020B000F583E0FEA3E0FF900667E0FD7C00EF2DD6
:1020C000FFEC3EFEC006C0077B017A06796E9006E3
:1020D00065E0FEA3E07803C333CE33CED8F924CE37
:1020E000F58274073EF583E09009AAF0D007D00688
:1020F00051B2EF64017078900665E0FEA3E07803CA
:10210000C333CE33CED8F9FF24D0F58274073EF521
:1021100083E0704D74D32FF58274073EF583E0FEA3
:10212000A3E0FF900667E0FD7C00EF2DFFEC3EFE94
:10213000C006C0077B017A06796E900665E0FEA3B3
:10214000E07803C333CE33CED8F924D6F5827407B2
:102150003EF583E09009AAF0D007D00651B2BF0146
:102160000E90066DE004F0E0C394035002019990D4
:10217000066DE0C3940340037F0122900665E0FEF4
:10218000A3E07803C333CE33CED8F9FF24CFF58252
:1021900074073EF583E0706D74CE2FF58274073EB0
:1021A000F583E0FF246DF582E43406F583E0FD90CD
:1021B00006AEE4F0A3EDF0746C2FF582E43406F57E
:1021C00083E0FE9006AEE04EF0A3E0F07B017A06DD
:1021D000796E900665E0FEA3E07803C333CE33CE7C
:1021E000D8F924CEF58274073EF583E024FEFDE4A1
:1021F00034FFFC121DF99006AEE06E7003A3E06F91
:1022000060037F0122900668E0F9A3E0FAA3E09062
:1022100006B3C9F0A3EAF0A3E9F0900665E0FEA3D7
:10222000E07803C333CE33CED8F924CEF5827407D9
:102230003EF583E09006B6F07B017A06796E516F29
:10224000E490066BF0800890066CE004F001639067
:10225000066BE0FF22516F9006B37401F0A3740285
:10226000F0A374D9F0A37404F07B017A03795D9034
:1022700006B0EBF0A3EAF0A3E9F0E4FF9006B6E0C5
:10228000FEEFC39E502B9006B0E0FBA3E0FAA3E064
:10229000F98F82758300120667FE9006B3E0FBA3F8
:1022A000E0FAA3E0F98F82758300EE1206D90F8061
:1022B000CB229009A5EEF0A3EFF09009A7EBF0A3D5
:1022C000EAF0A3E9F09009ABE4F09009AAE0FFEF8F
:1022D00070037F01229009AAE0FF7E009009A5E02B
:1022E000FCA3E0FDEF2DFFEE3CFED3EF94FFEE9458
:1022F0000140037F01229009A5E0FEA3E0FFEEFF6D
:102300007E00EF54FFFF9009ACEFF09009ACE0FFC6
:10231000EF25E0FF9009ACEFF0D10D9009ACE0FFA4
:10232000EF24A0FFB174EF600571CA7F012290090C
:10233000A5E0FEA3E0FFB174EF600571CA7F012242
:10234000D10D9009ACE0FFEF24A1FFB174EF60055F
:1023500071CA7F01229009A7E0FBA3E0FAA3E0F98C
:102360009009ADEBF0A3EAF0A3E9F09009ACE4F03A
:102370009009AAE0FFEF14FF9009ACE0FEEEC39FC6
:1023800050241243259009ADE0FBA3E0FAA3E0F945
:102390009009ACE0FE8E82758300EF1206D9900999
:1023A000ACE004F080CA1242999009ADE0FBA3E0D2
:1023B000FAA3E0F99009ACE0FE8E82758300EF127B
:1023C00006D971CA9009ABE0FF229009D4E4F090DD
:1023D000FFE8E0FFEF54BFFF90FFE8EFF09009D473
:1023E0007414F09009D4E0FFEFD394004015E5ECAD
:1023F00020E61043EC80D13D53EC7F9009D4E014EB
:10240000F080E090FFE8E0FFEF4440FF90FFE8EF4E
:10241000F090FFE8E0FFEF4480FF90FFE8EFF0531B
:10242000ECBF53EC7FD13D43EC80D13D43EC4022E7
:10243000900999EEF0A3EFF090099BEBF0A3EAF07E
:10244000A3E9F09009A4E4F090099EE0FFEF600B8F
:1024500090099EE0FFEFD3942040037F0122900972
:1024600099E0FEA3E0FFD3EF94FFEE940140037FD9
:10247000012290099EE0FF7E00900999E0FCA3E014
:10248000FDEF2DFFEE3CFED3EF94FFEE94004013E2
:10249000900999E0FEA3E0FFD3EF94FFEE94005083
:1024A00002A16ED10D90099EE0FF7E00900999E097
:1024B000FCA3E0FDEF2DFFEE3CFED3EF94FFEE9486
:1024C0000050069009A474A0F0900999E0FEA3E0E2
:1024D000FFD3EF94FFEE940040069009A474A2F09D
:1024E0009009A4E0FFB174EF600571CA7F012290EA
:1024F0000999E0FEA3E0FFB174EF600571CA7F01A6
:102500002290099BE0FBA3E0FAA3E0F99009A1EB7C
:10251000F0A3EAF0A3E9F090099FE4F0A3E4F090BF
:10252000099EE0FF7E0090099FE0FCA3E0FDC3ED63
:102530009FEC9E50339009A1E0FBA3E0FAA3E0F9E1
:1025400012064EFFB174EF600571CA7F0122900937
:10255000A2E475F0011207629009A0E004F0700691
:1025600090099FE004F080B771CAD14E80037F01CB
:10257000227F00229009C6EFF09009C7E4F090098D
:10258000C8E4F090FFE8E0FFEF4480FF90FFE8EF41
:10259000F053EC7F90FFE8E0FFEF4440FF90FFE84E
:1025A000EFF09009C8E4F09009C8E0FFEFC3940889
:1025B00050309009C6E0FFEF30E70543EC40800360
:1025C00053ECBF43EC809009C6E0FFEF25E0FF909D
:1025D00009C6EFF012429253EC7F9009C8E004F074
:1025E00080C512000890FFE8E0FFEF54BFFF90FFA6
:1025F000E8EFF043EC80120008E5EC30E6069009C5
:10260000C77401F053EC7F9009C7E0FF221243BF6B
:1026100090FFE8E0FFEF4440FF90FFE8EFF043EC6D
:102620004090FFE8E0FFEF4480FF90FFE8EFF043C9
:10263000EC80D13D53ECBFD13D53EC7F229009D2C9
:102640007401F09009D2E0FF14F0EF70F6229009C7
:10265000CC74FFF09009CBE4F09009CCE0FF900936
:10266000CBE0FEEEC39F5013D10D7FA0B174EF708D
:102670000261CA9009CBE004F080DE229004597414
:1026800001F0A37407F0A374B1F0900454E0900437
:102690005CF0900450E0FBA3E0FAA3E0F99004564C
:1026A000EBF0A3EAF0A3E9F09006B37401F0A37491
:1026B00004F0A37467F0A37408F0900459E0FBA33E
:1026C000E0FAA3E0F9516F900456E0FBA3E0FAA30F
:1026D000E0F91248D57B017A04796712494DE490FC
:1026E000045DF0E490045EF090045DE0FF9010BBA8
:1026F00093FE90045EE0C39E501C90045CE0FDB429
:102700000103EF60117B017A047967124C86900413
:102710005EE004F080D29006B37401F0A37404F07C
:10272000A3745FF0A37408F07B017A047967516F9A
:1027300090048574FFF0A37410F0A3745BF0A3748D
:10274000FFF0A37410F0A3748BF0A37406F07B0168
:102750007A04795F12496B9004727401F0A37404D7
:10276000F0A3745FF0900456E0FBA3E0FAA3E0F955
:10277000124A3EE4F5B190045DE004F0E0C3941029
:102780005002C1E3900456E0FBA3E0FAA3E0F99005
:10279000046FEBF0A3EAF0A3E9F0E4F5B190047361
:1027A00004F012064E90047BF0900004120667902D
:1027B000047AF0900001120667900479F090000509
:1027C000120667900478F090000212066790047772
:1027D000F0900006120667900476F090000312064F
:1027E00067900475F0900007120667900474F0E497
:1027F000900472F07B017A0479741248A890046FF7
:10280000E0FBA3E0FAA3E0F9A3E0F582758300EF13
:102810001206D9900473E025E0F0900472E004F011
:10282000E0C3940840CEE4F5B12290066BEBF0A330
:10283000EAF0A3E9F0E4FFEFC39D501B90066BE0C4
:10284000FBA3E0FAA3E0F98F8275830012066760AC
:10285000037F01220F80E07F0022F09003E5E0FB80
:10286000A3E0FAA3E0F9900003120667FFEFD39408
:102870006340037F0022EF75F00A84C454F0FEEF3A
:1028800075F00A84E5F02EFF22AC07AF0511B6AD56
:1028900007AF0411B6EF2DFF12064E2FFFE412060C
:1028A000C7EFC39464400974011206C7749C2FFFDC
:1028B00080BB120667FFEFC4540F75F00AA4FEEF49
:1028C000540F2EFF2290066AEBF0A3EAF0A3E9F082
:1028D000E4900671F0A3F0900670E0FF900672E0BD
:1028E000FEC39F5079EEFDC3EF9DFDE49400FCED27
:1028F00024FFFFEC34FFFE90066AE0FBA3E0FAA39E
:10290000E0F98F828E83120667FFED24FFFDEC3421
:10291000FFFC90066DE0FBA3E0FAA3E0F98D828C4A
:1029200083120667FD7B017A067971118990067220
:10293000E0FD900670E0C39DFDE49400CD24FFCD42
:1029400034FFFC90066AE0FBA3E0FAA3E0F98D8275
:102950008C83EF1206D9900672E004F001D7229022
:10296000028CE0FCA3E0FDA3E0FEA3E0FF9003CC1B
:10297000120919900288E0FCA3E0FDA3E0FEA3E0A9
:10298000FF9003D0120919E4FFFEFDFC9003D0E094
:10299000F8A3E0F9A3E0FAA3E0FBC31208C6703085
:1029A00074FFFFFEFDFC9003CCE0F8A3E0F9A3E088
:1029B000FAA3E0FBC31208C66043E4FFFEFDFC90EF
:1029C00003CCE0F8A3A3A3E0C31208C67002802DD5
:1029D0009003CCE0FCA3E0FDA3E0FEA3E02401FF14
:1029E000E43EFEE43DFDE43CFCA3E0F8A3E0F9A3F3
:1029F000E0FAA3E0FBC31208C66002215F9003CC9B
:102A0000E0FCA3E0FDA3E0FEA3E0FF22C0E0C0F0F5
:102A1000C083C082C0D075D000C000C001C002C059
:102A200003C004C005C006C00775B7559003C9E5CB
:102A3000B6F075B70030993DC299900073E004F08C
:102A4000900072E0FFA3E0C39F5024315F90007EAE
:102A5000120919900073E02486F582E43400F583AE
:102A6000E0FF30D004D29B8002C29B8F99800690F9
:102A7000006F7408F030980BC298AF99AD07E4FF6F
:102A800012019675B7559003C9E0F5B675B700D039
:102A900007D006D005D004D003D002D001D000D09A
:102AA000D0D082D083D0F0D0E03290028CE0FCA372
:102AB000E0FDA3E0FEA3E0FF9003D7120919900206
:102AC00088E0FCA3E0FDA3E0FEA3E0FF9003DB129F
:102AD0000919E4FFFEFDFC9003DBE0F8A3E0F9A395
:102AE000E0FAA3E0FBC31208C6703074FFFFFEFDDE
:102AF000FC9003D7E0F8A3E0F9A3E0FAA3E0FBC35E
:102B00001208C66043E4FFFEFDFC9003D7E0F8A383
:102B1000A3A3E0C31208C67002802D9003D7E0FC87
:102B2000A3E0FDA3E0FEA3E02401FFE43EFEE43DBC
:102B3000FDE43CFCA3E0F8A3E0F9A3E0FAA3E0FB8A
:102B4000C31208C6600241AA9003D7E0FCA3E0FDCF
:102B5000A3E0FEA3E0FF22C0E0C0F0C083C082C0BB
:102B6000D075D000C000C001C002C003C004C005C1
:102B7000C006C00775B7559003D4E5B6F075B70029
:102B800030D93DC2D9900120E004F090011FE0FF50
:102B9000A3E0C39F502451AA90012B120919900160
:102BA00020E02433F582E43401F583E0FF30D004E3
:102BB000D2DB8002C2DB8FD9800690011C7408F042
:102BC00030D80BC2D8AFD9AD077F0112019B75B7C2
:102BD000559003D4E0F5B675B700D007D006D00500
:102BE000D004D003D002D001D000D0D0D082D08386
:102BF000D0F0D0E032E0FCA3E0FDA3E0FEA3E0FFD4
:102C00009003E61209199003E6E0FCA3E0FDA3E0BF
:102C1000FEA3E0FFA3E0F8A3E0F9A3E0FAA3E0FB42
:102C2000C31208C69003EAE0503DF8C000C001C0DE
:102C300002C0039003E6E0F8A3E0F9A3E0FAA3E002
:102C4000FBC374FF9BFF74FF9AFE74FF99FD74FF32
:102C500098FCD003D002D001D000EB2FFFEA3EFE5B
:102C6000E93DFDE83C8024FCA3E0FDA3E0FEA3E0F9
:102C7000FF9003E6E0F8A3E0F9A3E0FAA3E0FBC3CA
:102C8000EF9BFFEE9AFEED99FDEC98FCA31209195B
:102C90009003EEE0FCA3E0FDA3E0FEA3E0FF9003C1
:102CA000EAE0F8A3E0F9A3E0FAA3E0FBC31208C648
:102CB0007F0140027F002290030BE054FDF07B0176
:102CC0007A0879EA7D041201A57B017A0879EE90F1
:102CD000066EE4F0A37404F0E4FD90066AEBF0A342
:102CE000EAF0A3E9F0A3EDF0E4FFFED390066FE075
:102CF0009F90066EE09E401F90066DE0FD90066A74
:102D0000E0FBA3E0FAA3E0F98F828E83ED1206D9EF
:102D10000FBF00010E80D422900442EBF0A3EAF032
:102D2000A3E9F0A3EDF0D3946440037F0122900463
:102D30004C7401F0A37407F0A3742FF09006B374E1
:102D400001F0A37407F0A374C1F0A37408F0900419
:102D500046E0FBA3E0FAA3E0F912226F7B017A07B9
:102D600079B1E4FD7F13FE12202CBF01037F012205
:102D700090044CE0F9A3E0FAA3E09006B3C9F0A3F5
:102D8000EAF0A3E9F0900445E09006B6F090044222
:102D9000E0FBA3E0FAA3E0F912226F90044CE0FB01
:102DA000A3E0FAA3E0F9900445E0FFF58275830003
:102DB00074801206D97E00E92FF9EE3AFAE924016F
:102DC000F9E43AFA90066EE4F0A37407F0E4FD919A
:102DD000DA900445E0131313541F0490044BF0E4FD
:102DE000FD74C12DF582E43407F583C083C082E011
:102DF000FF90044CE0FBA3E0FAA3E0F98D82758319
:102E000000120667FEEF6ED082D083F00DEDB4089D
:102E1000D0E490044AF090044BE014FF90044AE0A0
:102E2000C39F506F9004597401F0A37407F0A3740A
:102E3000B1F0A37402F07B017A0779C112269DE4F8
:102E4000FD74C12DF582E43407F583C083C082E0B0
:102E5000FC90044AE02401FFE433FEEF7803C3331F
:102E6000CE33CED8F9FFED7A002FFFEA3EFE900474
:102E70004CE0FBA3E0FAA3E0F98F828E8312066791
:102E80006CD082D083F00DEDB408B690044AE00413
:102E9000F080837B017A0779C19004537402F0E4D7
:102EA000FFD1F1900449E06401703B900442E0FBE3
:102EB000A3E0FAA3E0F9A3E0FF7E00E92FF9EE3AE0
:102EC000FA900668EBF0A3EAF0A3E9F0A37404F02B
:102ED000A37455F07B017A0779C1123288BF0203CF
:102EE0007F00227F01227F00229004537401F07F33
:102EF00006900450EBF0A3EAF0A3E9F0EF6406605B
:102F0000147B017A0779B1E4FD7F13FE12202CBFF8
:102F100001037F0122900453E0B40209A37402F07C
:102F2000A314F080099004547401F0A304F0122655
:102F30007C9004597401F0A37407F0A374B9F09065
:102F4000045512268D12267C7F00229003E6E07540
:102F5000F0ADA4248AF9740035F0FA7B01E075F035
:102F6000ADA42493F582E5F03400F583E0240AFD56
:102F70009003E9EBF0A3EAF0A3E9F0E4FFFEEEC36F
:102F80009D50189003E9E0FBA3E0FAA3E0F98E82DC
:102F90007583001206672FFF0E80E32235F0FA904A
:102FA00006687401F0A3EAF0A3E9F0A37406F07BCD
:102FB000017A0179C9900665EBF0A3EAF0A3E9F084
:102FC000E490066CF090066BE0FFA3E0FEC39F5018
:102FD00047EEFD900665E0FBA3E0FAA3E07E002F3C
:102FE000F9EE3AFAE924FFF9EA34FFFAC3E99DF968
:102FF000EA9400FA12064EFF900668E0FBA3E0FA9E
:10300000A3E0F990066CE0F582758300EF1206D913
:1030100090066CE004F080AD22900432EBF0A3EA5D
:10302000F0A3E9F0E4FFEFC39D5028900432E0FBE9
:10303000A3E0FAA3E0F98F82758300120667FE54BD
:103040000FD394095007EE54F0949040037F01226F
:103050000F80D37F00229003E9E075F0ADA424A097
:10306000F9740035F0FA7B0190042BE07E0029F919
:10307000EE3AFA7D0490043DEBF0A3EAF0A3E9F008
:10308000A3EDF0E4A3F0900440E0FFC313FEA3E03F
:10309000C39E507890043DE0FBA3E0FAA3E0F990D2
:1030A0000441E0FEF582758300120667900442F049
:1030B000EF24FFFDE434FFFCEEFFC3ED9FFFEC9433
:1030C000008F82F583120667FF900441E0F5827558
:1030D0008300EF1206D9900442E0FF900440E02400
:1030E000FFFDE434FFFCA3E0FBC3ED9BFDEC94008B
:1030F000FC90043DE0FBA3E0FAA3E0F98D828C8311
:10310000EF1206D9900441E004F00186229003E911
:10311000E075F0ADA42498F9740035F0FA7B0190C5
:103120000432EBF0A3EAF0A3E9F012064EFF248587
:10313000F582E43402F583E0C39403401074852FD4
:10314000F582E43402F5837403F07F01227B017A77
:10315000047936E4FD7F12FE12202CBF01037F01AB
:1031600022900432E0FBA3E0FAA3E0F912064EFF3E
:103170007006900435F0801BEFB40108900435749C
:1031800003F0800FEFB402089004357406F080035A
:103190007F0122E4FFEF2401FDE433FC900432E0E0
:1031A000FBA3E0FAA3E0F98D828C83120667FE9000
:1031B0000435E02F2436F582E43404F583E06E60B4
:1031C0003812064EFE2485F582E43402F583E004CD
:1031D000F074852EF582E43402F583E0C394034055
:1031E0001512064E25E024ABF582E43402F5837413
:1031F00005F0A374A0F07F01220FEFB403979004B1
:1032000032E0FBA3E0FAA3E0F912064E2485F58232
:10321000E43402F583E4F0FF227F01AE071FEE7075
:10322000FA2212000712000780EFAD07AC06E4FB9C
:10323000FAC3EB9DEA9C500951220BBB00010A80A6
:10324000F02224FEFFE434FFFE90043AE0FD7C000F
:103250001206FB900434E0FBA3E0FAA3E02FF9EAA6
:103260003EFA900668EBF0A3EAF0A3E9F090043A86
:10327000E090066BF090043DE090066CF09004370F
:10328000E0FBA3E0FAA3E0F9900665EBF0A3EAF017
:10329000A3E9F0E490066DF090066BE0FF90066DF8
:1032A000E0FEC39F400261A990066CE0645570394E
:1032B000900668E0FBA3E0FAA3E0F98E8275830034
:1032C000120667FD900665E0FBA3E0FAA3E0F98E25
:1032D00082758300120667FED39D40037F0022EEB5
:1032E000C39D400261A17F012290066BE024FFFF95
:1032F000E434FFFE90066DE0FDC3EF9DFFEE940009
:10330000FE900668E0FBA3E0FAA3E0F98F828E83CB
:10331000120667FF90066BE024FFFDE434FFFC908B
:10332000066DE0FBC3ED9BFDEC9400FC900665E0B0
:10333000FBA3E0FAA3E0F98D828C83120667D39F8A
:1033400040037F002290066BE024FFFFE434FFFE81
:1033500090066DE0FDC3EF9DFFEE9400FE900668C1
:10336000E0FBA3E0FAA3E0F98F828E83120667FFE9
:1033700090066BE024FFFDE434FFFC90066DE0FB5B
:10338000C3ED9BFDEC9400FC900665E0FBA3E0FA26
:10339000A3E0F98D828C83120667C39F50037F01DF
:1033A0002290066DE004F041987F0222900434EBF5
:1033B000F0A3EAF0A3E9F090043BE0FED3940150BF
:1033C000037F0122EE24FFFFE434FFFE90043AE085
:1033D000FD7C001206FB900434E0FBA3E0FAA3E0BE
:1033E0002FF9EA3EFAC002C001A3E0F9A3E0FAA374
:1033F000E09006B3C9F0A3EAF0A3E9F090043AE044
:103400009006B6F0D001D00212226F90043BE090FB
:10341000043EF090043EE0FFD39401406D90043CE4
:10342000E064557008EF5142EF6057800B90043E06
:10343000E05142EF6401604A90043EE024FEFFE464
:1034400034FFFE90043AE0FD7C001206FB90043449
:10345000E0FBA3E0FAA3E02FF9EA3EFAC002C001C4
:10346000A3E0F9A3E0FAA3E09006B3C9F0A3EAF061
:10347000A3E9F090043AE09006B6F0D001D0021231
:10348000226F90043EE014F080897F002212064EE5
:10349000FF9003FBE4F0A3EFF0E0F8E4F0E8900322
:1034A000FBF0900001120667FF9003FBE0FEA3E033
:1034B0004FFF9003FBEEF0FEA3EFF02291CA9004C1
:1034C000581209197B017A03795D900649EBF0A344
:1034D000EAF0A3E9F0A312092500000000E4900639
:1034E00050F090064CE0FCA3E0FDA3E0FEA3E0FF5B
:1034F00078081208EA90064C12091990064CE0F878
:10350000A3E0F9A3E0FAA3E0FBC000C001C002C041
:1035100003900649E0FBA3E0FAA3E0F9900650E02F
:10352000F582758300120667FFD003D002D001D068
:1035300000EB4FFFEAFEE9FDE8FC90064C1209198A
:10354000900650E004F0E0B4049890064CE0FCA330
:10355000E0FDA3E0FEA3E0FF22900455EBF0A3EA18
:10356000F0A3E9F0E490045DF090045BE014FF90B8
:10357000045BE0FEEFC39E4002C14C900458E0FBA8
:10358000A3E0FAA3E0F98F82758300120667FE902C
:10359000045DE02EFDE490045CF0EDC39E500374E6
:1035A00001F0E490045DF0900455E0FBA3E0FAA381
:1035B000E0F98F82758300120667FE540FFCED540C
:1035C0000FFBECC39B5034EEC39D900455E0FB50C1
:1035D0000E8F82758300120667FEC3749A8037A32C
:1035E000E0FAA3E0F98F82758300120667C39D2479
:1035F000FA8F827583001206D98044900455E0FB4F
:10360000A3E0FAA3E0F98F82758300120667FEC378
:103610009D5015C374A09D2E8F827583001206D90C
:1036200090045D7401F08017900455E0FBA3E0FA6C
:10363000A3E02FF9E43AFA12064EC39D1206C79092
:10364000045CE06004A37401F01FA16F2290043AAF
:10365000EBF0A3EAF0A3E9F0AB05A37401F0A31229
:103660000925000000019004421209250000000015
:10367000E4900446F0EBD394005002E1A5EB9405EE
:103680004002E1A5EBF0900446E0D394005002E143
:10369000A5900442E0F8A3E0F9A3E0FAA3E0FBC0A0
:1036A00000C001C002C00390043AE0FBA3E0FAA30B
:1036B000E0F9900446E0FF7E00E92FF9EE3AFA9037
:1036C000FFFF120667540F75F00A84AFF0E4FCFDAB
:1036D00090043EE0F8A3E0F9A3E0FAA3E0FB1207B0
:1036E0008ED003D002D001D000EB2FFFEA3EFEE9DE
:1036F0003DFDE83CFC90044212091990043EE0FCB8
:10370000A3E0FDA3E0FEA3E0FFE47B0AFAF9F812D0
:10371000078E90043E120919900442E0F8A3E0F9E4
:10372000A3E0FAA3E0FBC000C001C002C003900404
:103730003AE0FBA3E0FAA3E0F9900446E0FF7E0044
:10374000E92FF9EE3AFA90FFFF12066754F0C454DD
:103750000FFFE4FCFD90043EE0F8A3E0F9A3E0FADB
:10376000A3E0FB12078ED003D002D001D000EB2FD4
:10377000FFEA3EFEE93DFDE83CFC900442120919D7
:1037800090043EE0FCA3E0FDA3E0FEA3E0FFE47BA9
:103790000AFAF9F812078E90043E120919900446AD
:1037A000E014F0C186900442E0FCA3E0FDA3E0FE3B
:1037B000A3E0FF22900459EBF0A3EAF0A3E9F09014
:1037C000045E12091990045CE0A3F090045DE0D35C
:1037D000940050030238A6E47B0AFAF9F8A3E0FC4F
:1037E000A3E0FDA3E0FEA3E0FF120819AF039004DD
:1037F00059E0FBA3E0FAA3E0F990045DE0FD7C0052
:10380000E92DF9EC3AFA90FFFFEF1206D990045E29
:10381000E0FCA3E0FDA3E0FEA3E0FFE47B0AFAF9ED
:10382000F812081990045E120919900459E0FBA3DC
:10383000E0FAA3E0F990045DE0FF7E00E92FF9EEE5
:103840003AFAE924FFF9EA34FFFAC003C002C001E2
:1038500012064EFFC007E47B0AFAF9F890045EE016
:10386000FCA3E0FDA3E0FEA3E0FF120819AF03EF05
:10387000C454F0FED0E04ED001D002D0031206C7EF
:1038800090045EE0FCA3E0FDA3E0FEA3E0FFE47B88
:103890000AFAF9F812081990045E12091990045DE9
:1038A000E014F00237CB22F0A37406F07B017A0219
:1038B000796590041DEBF0A3EAF0A3E9F0E490042D
:1038C00024F0900423E0FFA3E0FEC39F40022165A3
:1038D00090041DE0FBA3E0FAA3E0F98E827583005B
:1038E000120667FDC4540F900425F0ED540FA3F0A9
:1038F000E4FF74252FF582E43404F583E0FEC394DD
:103900000A501074252FF582E43404F583E0243046
:10391000F08014EEC39410500E74252FF582E43419
:1039200004F583E02437F00FEFB402C6900424E0DE
:1039300075F002A4FF900420E0FBA3E0FAA3E02FBF
:10394000F9EA35F0FA9006B3EBF0A3EAF0A3E9F058
:10395000A37402F07B017A04792512226F9004246B
:10396000E004F001C22278097C047D017BFF7A0D1E
:10397000793A7E007F141206289004207401F0A387
:103980007404F0A3740911A77B017A047909513AF0
:103990007B017A02796B900421740CF07F0B900408
:1039A0001DEFF0A3EBF0A3EAF0A3E9F078227C048A
:1039B0007D017BFF7A0C79A47E007F32120628906D
:1039C00004547401F0A37404F0A37422F0A37401EE
:1039D000F0900421E0FF601F9006B37401F0A3741F
:1039E00004F0A37422F0A3EFF090041EE0FBA3E028
:1039F000FAA3E0F912226F90041DE0FF7B017A0424
:103A00007922519DEF702D900997E0FEA3E0AA0660
:103A1000F97BFFC003C002900454E0FBA3E0FAA3CB
:103A2000E0F8AC02AD03D002D003120B34EF700407
:103A3000900457F0900457E0FF22900421740CF09A
:103A40007F09219E9006B37401F0A37402F0A37461
:103A500065F0A37406F07B017A0179C912226F9098
:103A6000026574C0F09004207401F0A37402F0A306
:103A7000746B11A79002777412F0A37434F0A374DE
:103A800056F0A37401F0A3E4F0A37430F031667B28
:103A9000017A027965E4FD7F1BFE021BD590045874
:103AA000EFF0A3EBF0A3EAF0A3E9F0A37401F0A315
:103AB000F0E4A3F0A3F0A3F0A3F078637C047D010D
:103AC0007BFF7A0D794EFE7F3212062890049574A2
:103AD00001F0A37404F0A37463F0900303E030E1F9
:103AE00002C11ED151BF01037F0622E4900462F09F
:103AF000900462E0FFC394125022EF75F00AA424F0
:103B0000F0F582E4340BF583E493FF900458E0FE73
:103B1000EF6E6008900462E004F080D4900462E0EC
:103B2000C394124002C11EE490045FF0900303E0CE
:103B300030E102C11EE4900460F09006B304F0A3EB
:103B40007404F0A37463F0A37404F07BFF7A0B7920
:103B5000EA12226F900462E075F00AA424F1F58263
:103B6000E4340BF583E493FB740193FA740293F944
:103B700012004E900461EFF0A3E075F00AA424F166
:103B8000F582E4340BF583E493FB740193FA740239
:103B900093F99006B37401F0A37404F0A37467F072
:103BA000A3EFF012226F900462E075F00AA424F7EC
:103BB000F582E4340BF583E493FF6028900461E020
:103BC0002467F9E43404FA9006B37401F0A3EAF030
:103BD000A3E9F0A3EFF0900459E0FBA3E0FAA3E01F
:103BE000F912226F900462E075F00AA424F7F582BE
:103BF000E4340BF583E493FF900461E02F2467F92C
:103C0000E43404FA9006B37401F0A3EAF0A3E9F0F7
:103C1000A37402F07BFF7A0B79EE12226F9004629C
:103C2000E075F00AA424F7F582E4340BF583E493FD
:103C3000FF900461E02F2406900460F07F011201E0
:103C4000C853A9FB7F02D124E490045EF090046085
:103C5000E0FF90045EE0FEC39F505C74632EF5822B
:103C6000E43404F583E0FF30D004D2DB8002C2DB11
:103C70008FD9E4900498F0A3F030D904C2D9802001
:103C8000120007900499E004F07006900498E00494
:103C9000F0C3900499E094D0900498E0940740D940
:103CA000C3900499E094D0900498E0940750089051
:103CB000045EE004F0809643D81053A9FB900460A2
:103CC0007432F07B017A047963E0FF90066EE4F0D1
:103CD000A3EFF0E4FD122CDAE490045EF0900460AF
:103CE000E0FF90045EE0C39F5054E4900498F0A37A
:103CF000F0900498E0FEA3E0FFC39440EE941F50C0
:103D00002C30D819C2D890045EE02463F582E434E4
:103D100004F583E5D9F0E490045DF08010900499F7
:103D2000E004F07006900498E004F080C4C3EF94BF
:103D300040EE941F500890045EE004F0809F9004D1
:103D40005DE0700A90045CF090045F7403F09004EE
:103D500095E0FBA3E0FAA3E0F912004E900460EFB7
:103D6000F090045CE06002C10C900462E075F00A1F
:103D7000A424F8F582E4340BF583E493605BE490CB
:103D8000045EF0900462E0FF75F00AA424F8F58266
:103D9000E4340BF583E493FE90045EE0FDC39E5093
:103DA0006BEF75F00AA424F9F582E4340BF583E493
:103DB000932D2463F582E43404F583E0FF900459E5
:103DC000E0FBA3E0FAA3E0F98D82758300EF120611
:103DD000D990045EE004F080AAE490045EF09004C0
:103DE0005EE0FF2463F582E43404F583E0FE900492
:103DF00059E0FBA3E0FAA3E0F98F82758300EE128D
:103E000006D990045EE004F0E0B406D27F04D12429
:103E100090045FE004F0E0C394035002612C90042E
:103E20005CE0FF2290049AEFF030E202801890FFED
:103E3000E3E04420F053B0DF7F037E00121FB39015
:103E4000049AE030E00A90FFE3E04420F043B02021
:103E50002290011CE07F01B401027F002290040245
:103E6000EFF0A3EBF0A3EAF0A3E9F078077C047D80
:103E7000017BFF7A0C79D67E007F321206289004EF
:103E8000397401F0900402E0FF7B017A0479075154
:103E90009DEF702B900403E0F9A3E0FAA3E09006F5
:103EA000B3C9F0A3EAF0A3E9F0900406E09006B6E7
:103EB000F07B017A04790712226FE4900439F090C4
:103EC0000439E0FF22900406740CF07F08808E9085
:103ED0000406740CF07F0A80849003F9EBF0A3EAE7
:103EE000F0A3E9F078FD7C037D017BFF7A0D793545
:103EF0007E007F051206287B017A0379FD90040677
:103F00007405F07F11D15D9003FCEFF070327F01FA
:103F100074FD2FF582E43403F583E0FE642960200C
:103F2000EF24FFFDE434FFFC9003F9E0FBA3E0FA8B
:103F3000A3E0F98D828C83EE1206D90FEFB405D081
:103F40009003FCE0FF229003F9EBF0A3EAF0A3E971
:103F5000F0E4A3F078FD7C037D017BFF7A0D7930DE
:103F6000FE7F051206289003F9E0FBA3E0FAA3E028
:103F7000F912004E9003FCEFF0D39403504AA3745F
:103F800028F09006B37401F0A37403F0A374FEF05C
:103F90009003FCE09006B6F09003F9E0FBA3E0FA92
:103FA000A3E0F912226F9003FCE0FF24FEF582E407
:103FB0003403F5837429F07B017A0379FDEF240241
:103FC000900421F07F10219E7F0122C0D075D00087
:103FD000C00775B755AFB675B70075AA0075E8008C
:103FE00075B7558FB675B700D007D0D032C0D07531
:103FF000D000C00775B755AFB675B70053A8F753D3
:10400000883F75B7558FB675B700D007D0D032C08E
:10401000E0C0F0C083C082C0D075D000C000C00135
:10402000C002C003C004C005C006C00775B75590E4
:1040300003C8E5B6F075B7005388DF758AC0758C84
:10404000E0E5C730E607900303E04402F090028801
:10405000E0FCA3E0FDA3E0FEA3E0FFA312091974B6
:10406000FFFFFEFDFC900288E0F8A3E0F9A3E0FA70
:10407000A3E0FBC31208C6900288501EE0FCA3E038
:10408000FDA3E0FEA3E02401FFE43EFEE43DFDE4E9
:104090003CFC9002881209198007120925000000D3
:1040A0000075B7559003C8E0F5B675B700D007D0D6
:1040B00006D005D004D003D002D001D000D0D0D09B
:1040C00082D083D0F0D0E032C0D075D000C0077568
:1040D000B755AFB675B70053A8DF53C83375B7559A
:1040E0008FB675B700D007D0D032C0D075D000C021
:1040F0000775B755AFB675B70053A8BF53C11F7545
:10410000B7558FB675B700D007D0D032C0E0C083A6
:10411000C082C0D075D000C006C00775B755AFB615
:1041200075B700AE97759700EE30E31D90000AE07A
:1041300090000930E205E004F0800EE0FE900008F7
:10414000E02EF0E004F0A3E4F075B7558FB675B734
:1041500000D007D006D0D0D082D083D0E032C0E0EB
:10416000C083C082C0D075D000C00775B755AFB648
:1041700075B70090FFB6E4F090FFB7F053A9FD7556
:10418000B7558FB6F5B7D007D0D0D082D083D0E066
:1041900032C0D075D000C00775B755AFB675B7003F
:1041A00053A9DF75C60075B7558FB675B700D00730
:1041B000D0D032C0E0C083C082C0D075D000C0056E
:1041C000C00775B755ADB675B70090FFD0E054FC89
:1041D000F053A9FD75B755AF058FB675B700D00779
:1041E000D005D0D0D082D083D0E03278E07C037D7F
:1041F000017BFF7A0D79087E007F14120628E49077
:1042000003F7F0A374FFF07B017A0379E0E4FF1277
:104210003A9D9003F8EFF0BF01037FFF229003F86F
:10422000E0B406037F03229003F47401F0A3740347
:10423000F0A374E0F0E4A3F09003F7E0FFC394066A
:10424000503DEF25E02489F582E43409F583E0FE52
:10425000A3E0AA06F97BFFC003C0029003F4E0FBD1
:10426000A3E0FAA3E0F8AC02AD03D002D003120B36
:1042700034EF70030080089003F7E004F080B990F9
:1042800003F7E0FFC394065003A3EFF09003F8E0B8
:10429000FF229009D37401F0229009CFE4F0900935
:1042A000D0E4F090FFE8E0FFEF4480FF90FFE8EFFC
:1042B000F090FFE8E0FFEF54BFFF90FFE8EFF0530E
:1042C000EC7F9009D0E4F09009D0E0FFEFC39408B0
:1042D000503351929009CFE0FFEF25E0FF9009CFD6
:1042E000EFF043EC80E5EC30E60E9009CFE0FFEF15
:1042F0004401FF9009CFEFF0519253EC7F9009D029
:10430000E004F080C290FFE8E0FFEF4440FF90FF40
:10431000E8EFF043EC4043EC8012263D53EC7F90F5
:1043200009CFE0FF229009CDE4F09009CE7408F0A7
:1043300090FFE8E0FFEF4480FF90FFE8EFF090FF90
:10434000E8E0FFEF54BFFF90FFE8EFF053EC7F9001
:1043500009CEE4F09009CEE0FFEFC39408503D5140
:10436000929009CDE0FFEF25E0FF9009CDEFF043FB
:10437000EC80E5EC30E60E9009CDE0FFEF4401FF64
:104380009009CDEFF051929009CDE0FF9009CDEF6B
:10439000F053EC7F9009CEE004F080B890FFE8E0A5
:1043A000FFEF4440FF90FFE8EFF053ECBF43EC8099
:1043B00012263D53EC7F43EC409009CDE0FF229064
:1043C000FF84E0FFEF54FFFF90FF84EFF090FF8544
:1043D000E0FFEF54FEFF90FF85EFF090FFE9E0FF74
:1043E000EF4401FF90FFE9EFF053EDFE229009B595
:1043F000740EF09009B0EEF0A3EFF09009B2EBF07C
:10440000A3EAF0A3E9F09009B0E0FEA3E0FF900971
:10441000B6EEF0A3EFF09009B0E0FEA3E0FFEF549A
:1044200007FFC374089FFF9009B8EFF09009B9E443
:10443000F09009B8E0FF9009B5E0FEEEC39F500A86
:104440009009B5E0FF9009B8EFF09009B6E0FEA33F
:10445000E0FF9009B2E0FBA3E0FAA3E0F99009B90C
:10446000E0FD7C00E92DF9EA3CFA9009B8E0FD9006
:10447000099EEDF0122430EFB401037F0122900970
:10448000B8E0FF9009B9E02FF09009B9E0FF7E0095
:104490009009B0E0FCA3E0FDEF2DFFEE3CFE90099B
:1044A000B6EEF0A3EFF09009B9E0FF9009B5E0FE99
:1044B000C3EE9FFF9009B8EFF09009B8E0FFEFD38B
:1044C000940840069009B87408F09009B8E0FFEF2E
:1044D0006002814A7F00229009BAEEF0A3EFF090CB
:1044E00009BCEDF09009BDEBF0C0A8C2AF9009BCCB
:1044F000E0FF8FEF9009BAE0FEA3E0FFEF54FFF575
:10450000EE9009BAE0FEA3E0FFEEFF7E008FF775A4
:10451000A7019009BDE0FFEFB4681375F26E75F363
:104520000575F40A75F50975F6060000000075A713
:104530000075F700D0A822900667EBF0A3EAF0A37D
:10454000E9F0900665EEF0A3EFF090066BE02FFF28
:1045500090066AE03EFED3EF9400EE941040037F95
:10456000FF22D390066BE0940090066AE09400402E
:1045700045900667E0FBA3E0FAA3E0F912064EFCC3
:10458000900665E0FEA3E0FFAD047B6891D790063E
:1045900066E004F07006900665E004F0900668E4BA
:1045A00075F00112076290066BE024FFF090066A36
:1045B000E034FFF080AC7F00228F828E83E4FFED39
:1045C000B4680FC0A8C2AF75A701E493FFE4F5A7D4
:1045D000D0A8227B017A047965900461E0FCA3E015
:1045E000FD90066A7402F0A3E4F0900668ECF0A374
:1045F000EDF090066BE02DFF90066AE03CFED3EFF5
:104600009400EE941040037FFF22D390066BE09459
:104610000090066AE094004035900668E0FEA3E052
:10462000FF7D68B1B9EF1206C7740129F9E43AFABF
:10463000900669E004F07006900668E004F09006C9
:104640006BE024FFF090066AE034FFF080BC7F004E
:1046500022E0FEA3E0FF7B68E4FD9009BEEEF0A33C
:10466000EFF09009C0EDF09009C1EBF0C0A8C2AF27
:104670009009C0E0FF8FEF9009BEE0FEA3E0FFEFDE
:1046800054FFF5EE9009BEE0FEA3E0FFEEFF7E00D2
:104690008FF775A7019009C1E0FFEFB4681375F2B9
:1046A000E675F30575F40A75F50975F60600000060
:1046B0000075A70075F700D0A82290FFE5E054FB35
:1046C000F090FFF5E04404F022D1BAE5E920E229B8
:1046D000900280E004F0700690027FE004F0C39046
:1046E0000280E094FA90027FE09400401AE4F0A384
:1046F000F090030DE04401F022E490027FF0A3F07B
:1047000090030DE054FEF02290FFE2E054FBF090A5
:10471000FFF2E04404F022F10890030EE030E215CD
:10472000E5A030E202E1B6E04401F0E054FBF0E441
:10473000900234F02290030EE030E061E5A020E228
:104740006A900234E004F0E0FF7408D39F50679051
:10475000030EE04402F0E054FEF0E4900234F090E6
:10476000030CE04408F09002301209250000003CE0
:10477000900228741EF0900235E0700B90023CF01D
:104780009002357468F02290023CE004F09001E75A
:10479000E0FF90023CE0C39F401CE4F02290030E37
:1047A000E030E107E5A030E20D8000E4900234F053
:1047B00090030E7404F022EF146022047026F1E5D9
:1047C0007FFF12480A43D18090FFE1E04408F05394
:1047D00090F790FFE9E04402F053EDFD22F1E5E4AB
:1047E000FF12480A2253D17F12484B90FF8074F089
:1047F000F090FF817403F090FF8274FEF090FF83CD
:104800007401F090FF8574FCF022E4FE743D2EF5F7
:1048100082E43402F583EFF00EEEB428EF7F007EE1
:1048200025E4FD743D2DF582E43402F583E0FCEFD0
:104830002DF582E43EF583ECF0743D2DF582E434F1
:1048400002F583E4F00DEDB428D922E5D15470646B
:1048500030600653D18F43D130E5D15407640760EF
:104860000653D1F843D107E5D254076402600653DA
:10487000D2F843D202225380FD0000438004224339
:10488000800200005380FB225380FD005380FB22F6
:10489000900283E0600FE014F0E0FF7E00BE0207AC
:1048A000BF40048000118822900473E0FD90047CD6
:1048B000EDF0E4FF7E08EF25E0FFEE7C0024FFF53D
:1048C00082EC34FFF583120667FD90047CE05D60A6
:1048D000010FDEE22290046FEBF0A3EAF0A3E9F00F
:1048E0009004737440F0E4900472F0900472E0FF5E
:1048F000C394085036EFB40404A37480F090046F9E
:10490000E0FBA3E0FAA3E0F911A8900472E024749C
:10491000F582E43404F583EFF0900473E0FF1313A1
:10492000543FF0900472E004F080C090046FE0F90E
:10493000A3E0FAA3E09006B3C9F0A3EAF0A3E9F07C
:10494000A37408F07B017A04797402226F900485C5
:1049500074FFF0A3740FF0A374EBF0A374FFF0A343
:104960007410F0A37423F0A37407F0900482EBF0AA
:10497000A3EAF0A3E9F0E4F52090048C04F090049D
:104980008BE075F008A42401FFE435F0FEA3E0FD00
:10499000C39FEE6480F8748098507DE52025E0F593
:1049A00020EDFF7E0024FFFDEE34FFFC900485E047
:1049B000FBA3E0FAA3E0F98D828C83120667FD90D9
:1049C0000482E0FBA3E0FAA3E0F98D827583001274
:1049D0000667FDEF24FFFFEE34FFFE900488E0FB46
:1049E000A3E0FAA3E0F98F828E831206675D60026E
:1049F000052090048CE0FF54077015EF1313135437
:104A00001F248CF582E43404F583E520F0E4F520DE
:104A100090048CE004F0217E900482E0F9A3E0FA97
:104A2000A3E09006B3C9F0A3EAF0A3E9F090048BE9
:104A3000E09006B6F07B017A04798D02226F900433
:104A40006FEBF0A3EAF0A3E9F02404F9E43AFA905A
:104A500006B37401F0A37404F0A37476F0A3740495
:104A6000F012226F90048574FFF0A37410F0A37409
:104A7000FBF0A374FFF0A37410F0A374CBF0A37445
:104A800006F07B017A047976316BE4900475F0903E
:104A90000475E0FF2476F582E43404F583C083C016
:104AA00082E0FE900472E0FBA3E0FAA3E0F98F82BB
:104AB000758300120667FFEE6FD082D083F09004FA
:104AC00075E004F0E0B406C7E4900475F090047556
:104AD000E0FFC39402400261F5E0FE75F003A424F8
:104AE00076F582E43404F583E0FDC45430FCEE75C1
:104AF000F003A42477F582E43404F583E0C4540F72
:104B00004CF520ED1313543FFE900475E0FD75F055
:104B100000A4246BF582E5F03411F583ED2583F5CF
:104B200083E5822EF582E43583F583E493FE75F008
:104B300000EDA424ABF582E5F03411F583ED258377
:104B4000F583E5822520F582E43583F583E493FD42
:104B5000EE4DFE900475E0FD25E0247EF582E43400
:104B600004F583EEF0ED75F003A42477F582E434C8
:104B700004F583E025E025E0543FFEED75F003A445
:104B80002478F582E43404F583E0FDC41313540360
:104B90004EF520ED543FFE900475E0FD75F000A445
:104BA000242BF582E5F03412F583ED2583F583E5BA
:104BB000822EF582E43583F583E493FE75F000EDF3
:104BC000A424EBF582E5F03411F583ED2583F5831C
:104BD000E5822520F582E43583F583E4934EFEEFEC
:104BE00025E0247FF582E43404F583EEF09004752B
:104BF000E004F041CD90048574FFF0A37411F0A39C
:104C0000744BF0A374FFF0A37411F0A3742BF0A302
:104C10007404F07B017A04797E316BE4900475F0C2
:104C2000900475E0FFC39404505B7E00EF2404FD04
:104C3000EE33FC90046FE0FBA3E0FAA3E0F98D8271
:104C40008C83120667F520900475E0FDF58275836C
:104C500000120667FC747E2DF582E43404F583E0CF
:104C60006CFD74042FF582E433F583ED1206D990C0
:104C70000475E0F582758300E5201206D99004756D
:104C8000E004F0809B2290046FEBF0A3EAF0A3E92C
:104C9000F0A3EDF012064E900473F090000112069E
:104CA00067900474F0900002120667900475F0900B
:104CB000000312066754F0900476F0BD02339004AE
:104CC00073E0FCA3E0FDA3E0FEA3E0FF780112087F
:104CD000EA90047312091990046FE0FBA3E0FAA3B1
:104CE000E0F912064E30E744900476E04410F0807C
:104CF0003B900473E0FCA3E0FDA3E0FEA3E0FF789B
:104D0000011208D7900473120919900476E054F048
:104D1000F090046FE0FBA3E0FAA3E0F99000031227
:104D2000066730E407900473E04480F090046FE07D
:104D3000FBA3E0FAA3E0F9900003120667540F907A
:104D40000477F0900004120667900478F090000554
:104D5000120667900479F090000612066790047AB4
:104D6000F0900472E06402703D900477E0FCA3E0F0
:104D7000FDA3E0FEA3E0FF78011208EA9004771299
:104D80000919900477E0540FF090046FE0FBA3E062
:104D9000FAA3E0F990000312066730E33D90047A2D
:104DA000E04401F08034900477E0FCA3E0FDA3E050
:104DB000FEA3E0FF78011208D7900477120919903A
:104DC000046FE0FBA3E0FAA3E0F990000612066787
:104DD00030E007900477E04408F0900476E0FFA309
:104DE000E0FEEF4E900476F0900478E0900477F0C7
:104DF000900479E0900478F090047AE0900479F0DF
:104E000090046FE0F9A3E0FAA3E09006B3C9F0A321
:104E1000EAF0A3E9F0A37407F07B017A0479730246
:024E2000226FFF
:10800000EF14602104703BE5876003E4F587539823
:10801000F74398C0E4FF11D690049AE599F053987D
:10802000EC43A81022E5876003E4F58753D8F343B7
:10803000D8C07F0111D690049AE5D9F053D8EC430B
:10804000A90422EF14605104600201D5E5876003A2
:10805000E4F587E598440860035398F7E59854C021
:1080600064C060034398C090FFE2E054BFF090FF0B
:10807000F2E054BFF090FFE2E04480F043A080E4DF
:10808000FF11D6E4FF1201919003E6E599F05398B1
:10809000FC43981043A81022E5876003E4F587535A
:1080A000D8F343D8C090FFE3E054FEF090FFF3E034
:1080B00054FEF090FFE3E04402F043B0027F011170
:1080C000D67F011201919003E6E5D9F053D8FC4325
:1080D000D81043A90422EF14602C04704CE59D6471
:1080E000CC6003759DCCE59C647F6003759C7FE547
:1080F0009E540F64016006539EF0439E01E59C2050
:10810000E727439C8022E5DD64F3600375DDF3E53A
:10811000DC647F600375DC7FE59E54F06003539E52
:108120000FE5DC20E70343DC8022E4FF11437F01FD
:1081300011437F0211437F030143E4F5B1F5A8F534
:10814000A9F14512AE1F12B08E51C1F14012ADE03F
:10815000F17B312A315BD2AF7F0022E49003E8F05B
:108160007FAAF12D759560E4F596F59753A9FE4326
:10817000B48090040F120925000000E87F33516994
:108180007F057E00121FB390040F12092500000C1A
:10819000847F325169E49003E8F09003E8E0FE75D3
:1081A000F005A424B9F582E43419F583E493FFC003
:1081B00007EE75F005A424BAF582E43419F58312AC
:1081C000090990040F120919D00751699003E8E0DA
:1081D00004F0E0C3942040C27B017A097948E4FDB1
:1081E0007F06FE12202CE49003E8F09003E8E0FE06
:1081F00075F005A42459F582E4341AF583E493FF5D
:10820000C007EE25E025E02448F582E43409F58333
:10821000E0FCA3E0FDA3E0FEA3E0FF90040F120941
:1082200019D00751699003E8E004F0E0C3940540D9
:10823000BA7F647E00121FB390040F12092500005C
:1082400000357F3051697F55F12D90040F120925BB
:1082500000A000C17F3151697FF47E01121FB3E499
:10826000F59775960843A9012290040EEFF0A3E05C
:10827000FCA3E0FDA3E0FEA3E0FFA3120919E4F5CF
:10828000917F06FE12322AC2AF900414E0F592A349
:10829000E0F593A3E0F5940000000000000000006A
:1082A000000000000000000000000000000000903E
:1082B000040EE04480F5917F067E0012322AD2AF90
:1082C000227B017A03790390066EE4F0A3740EF02A
:1082D000E4FD122CDA7B017A02798890066EE4F0D4
:1082E000A3743AF0E4FD122CDA7B017A0179E49070
:1082F000066EE4F0A37481F0E4FD122CDA7B017ABF
:1083000003796B90066EE4F0A37410F0E4FD122C78
:10831000DA7B017A00790890066EE4F0A37408F025
:10832000E4FD122CDA7B017A00790090066EE4F00D
:10833000A37408F0E4FD122CDA7B017A0279C29072
:10834000066EE4F0A3740AF0E4FD122CDA7B017AE5
:108350000279CC90066EE4F0A37429F0E4FD122CAF
:10836000DA7B017A02797F90066EE4F0A37409F05B
:10837000E4FD122CDA9003107401F012B64012B62C
:10838000E4F17C12B46E12B37212AAD212953DE4DB
:108390009008A9F0900309E054FBF0E4900237F054
:1083A000900303E04401F090030CE04403F09001DB
:1083B000E4E0FF7E007C037DE81206FB7C017DF497
:1083C00012070DE4FCFD90023012091990030E749F
:1083D00004F09001E4E0900228F0900229F07B0183
:1083E0007A037906E4FD7F0FFE12202CEF6005E48E
:1083F000900306F0E4900456F0A3F07B017A047930
:108400003DFD7F11FE12202C900306E030E56D7BD0
:10841000017A04794D1234BC90045C12091990045D
:108420005CE0FCA3E0FDA3E0FEA3E0FFEC4D4E4FBB
:108430006037900458E0F8A3E0F9A3E0FAA3E0FB6A
:10844000C31208C6400F9004567401F0900306E072
:1084500030E4298021E4900456F0A3F0900306E074
:1084600054DFF0E054EFF080139004567401F09064
:108470000306E030E4069004577401F07B017A04AF
:10848000793D1234BC90045C12091990045CE0FC44
:10849000A3E0FDA3E0FEA3E0FF900458E0F8A3E012
:1084A000F9A3E0FAA3E0FBC31208C65002A1B490FE
:1084B000030AE04401F07B017A0479411234CA9046
:1084C000045812091990045CE0FCA3E0FDA3E0FE4F
:1084D000A3E0FF900458E0F8A3E0F9A3E0FAA3E0DA
:1084E000FBC31208C65002A1AB90030AE020E104CE
:1084F000E04402F0E4FFFEFDFC90045CE0F8A3E041
:10850000F9A3E0FAA3E0FBC31208C66002A19590AC
:10851000030AE020E204E04404F07B017A0379637B
:108520001234CA900458120919E4FFFEFDFC9004AD
:1085300058E0F8A3E0F9A3E0FAA3E0FBC31208C6F1
:10854000600D90030AE020E30DE04408F0800790FE
:10855000030AE054F7F07B017A0479491234CA9097
:10856000045C12091990045CE0FCA3E0FDA3E0FEAA
:10857000A3E0FF900458E0F8A3E0F9A3E0FAA3E039
:10858000FBC31208C6900306E040054420F0803289
:1085900054DFF0802D90030AE054F7F0900306E0DA
:1085A00054DFF090030AE054FB800F90030AE0547C
:1085B000E1F0800E90030AE054E0F0900306E054EE
:1085C000EFF0900456E0B40107900306E04420F079
:1085D000900457E0B40107900306E04410F09003C4
:1085E00006E030E504E04410F07B017A037906E40C
:1085F000FD7F0FFE121BD590030BE030E0099003C6
:1086000004E020E002E12C900283E06002E12C9083
:10861000030AE020E52AE030E107900306E030E2BB
:108620001F90030AE030E207900306E030E3119068
:108630000306E020E50AE020E406E020E102C1F0C4
:1086400090030AE030E517128FE190030AE054DF4F
:10865000F0900309E04420F0A3E04480F02290036E
:108660000AE030E70B900309E030E502E12CC1FE9F
:10867000900306E020E048900309E030E50CE0209C
:10868000E502E12CE020E602E12C12487F90028313
:108690007458F0900306E020E1147B017A097936E2
:1086A00090066EE4F0A37404F07DFF122CDA7F04D0
:1086B000129000900309E04420F0E054BFF02290B3
:1086C0000309E030E5661248769002837458F07F23
:1086D00005129000900306E054FDF0900309E05469
:1086E000DFF07B017A037906E4FD7F0FFE021BD5E4
:1086F00090030AE030E712900309E020E52E128F84
:10870000E1900309E04420F022900309E030E51CE9
:10871000900306E054FDF0900309E054DFF01248A6
:10872000769002837458F07F0512900022EFB455C2
:108730000443958022E4F595F596F59753A9FE221A
:10874000E4FF0247B753A9DF75E755E4F5C675E7BF
:1087500055F5C775E75575C78475E75575B3017548
:10876000E755F5B4129C5BBF010312B088E5C73032
:10877000E6037F012253A9DF7F0022229003E074E9
:1087800001F0E49003E2F0A3F09003E1F09003E144
:10879000E0F9C394045045E975F005A42472F5820C
:1087A000E4341A128D859003E41209199003E1E074
:1087B00075F005A42473F582E4341AF583120909CF
:1087C0009003E4E0F8A3E0F9A3E0FAA3E0FBC3120E
:1087D00008C670089003E1E004F080B19003E1E086
:1087E000C3940450030288B5E49003E1F09003E1E0
:1087F000E0F9C394205045E975F005A424B9F58249
:10880000E43419128D859003E41209199003E1E014
:1088100075F005A424BAF582E43419F58312090928
:108820009003E4E0F8A3E0F9A3E0FAA3E0FBC312AD
:1088300008C670089003E1E004F080B19003E1E025
:10884000C394204070F10BEF64016069E49003E190
:10885000F09003E1E0F9C39405504CE975F005A4EC
:108860002459F582E4341AB1859003E41209199071
:1088700003E1E025E025E02448F582E43409F583AE
:10888000E0FCA3E0FDA3E0FEA3E0FF9003E4E0F83A
:10889000A3E0F9A3E0FAA3E0FBC31208C6700890B6
:1088A00003E1E004F080AA9003E1E0C394054005F1
:1088B000E49003E0F09003E0E0B40109900310E0DD
:1088C000700312815B7B017A09793A900946E0FFD7
:1088D000A3E0900669CFF0A3EFF07D0C121E76EFB7
:1088E00060117B017A09793AE4FD7F08FE12202CA1
:1088F0007F01227F002211C5E49003DFF09003DFA7
:10890000E0FFC394055026EF901A8C93FF7E00B1D0
:10891000949003DFE025E025E024E0F582E43403D1
:10892000F5831209199003DFE004F080D0E4FFFE24
:10893000FDFC90093AE0F8A3E0F9A3E0FAA3E0FB1C
:10894000C31208C660549003E0E0FCA3E0FDA3E07E
:10895000FEA3E0FFE4120499E4FBFA7920784112C7
:1089600002F3C004C005C006C00790093AE0FCA3AA
:10897000E0FDA3E0FEA3E0FFE4120499A804A9052A
:10898000AA06AB07D007D006D005D0041203FC120C
:1089900004D7900311120919800A900311120925B6
:1089A00000000000E47F0AFEFDFC900311E0F8A344
:1089B000E0F9A3E0FAA3E0FB12078E7B017A0079CD
:1089C0001C90045C7404F01237B4900311E0FCA313
:1089D000E0FDA3E0FEA3E0FF7B017A00792C900488
:1089E0005C7404F01237B4E4FFFEFDFC90093EE035
:1089F000F8A3E0F9A3E0FAA3E0FBC31208C67002F3
:108A000041869003E4A3E0FDED5480FDED602590E8
:108A100003E4A3E0FDA3E0FEA3E0FF74FFFC120863
:108A2000ABEF2401FFE43EFEE43DFDE43CFC90039B
:108A3000E41209199003E4E0FCA3E0FDA3E0FEA327
:108A4000E0FFE4120499E4FBFA797A78441202F325
:108A5000C004C005C006C00790093EE0FCA3E0FDCD
:108A6000A3E0FEA3E0FFE4120499A804A905AA0666
:108A7000AB07D007D006D005D0041203FC1204D7F0
:108A8000900331120919900331E0FCA3E0FDA3E04B
:108A9000FEA3E0FF7B017A00794890045C7404F047
:108AA0001237B4900331E0FCA3E0FDA3E0FEA3E0A5
:108AB000FF7B017A00794C90045C7404F01237B4A7
:108AC000E4FFFEFDFC900942E0F8A3E0F9A3E0FA20
:108AD000A3E0FBC31208C660529003E8E0FCA3E0E9
:108AE000FDA3E0FEA3E0FFE4120499E4FBFA797A27
:108AF00078441202F3C004C005C006C007900942C2
:108B0000E0FCA3E0FDA3E0FEA3E0FFE4120499A8CB
:108B100004A905AA06AB07D007D006D005D00412D9
:108B200003FC1204D7900321120919900321E0FCE1
:108B3000A3E0FDA3E0FEA3E0FF7B017A00793C9077
:108B4000045C7404F01237B49003ECA3E0FDED5420
:108B500080FDED60259003ECA3E0FDA3E0FEA3E023
:108B6000FF74FFFC1208ABEF2401FFE43EFEE43D7E
:108B7000FDE43CFC9003EC1209199003E4E0FCA333
:108B8000E0FDA3E0FEA3E0FFE41204999003F812D5
:108B900009199003F8E0FCA3E0FDA3E0FEA3E0FFC9
:108BA000A804A905AA06FB1202F39003F8120919FA
:108BB0009003ECE0FCA3E0FDA3E0FEA3E0FFE412E1
:108BC00004999003F41209199003F4E0FCA3E0FD6A
:108BD000A3E0FEA3E0FFA804A905AA06FB1202F386
:108BE0009003F41209199003F8E0FCA3E0FDA3E060
:108BF000FEA3E0FF9003F4E0F8A3E0F9A3E0FAA3FA
:108C0000E0FB1202029003F81209199003F8E0FC4D
:108C1000A3E0FDA3E0FEA3E0FF120EB49003F81260
:108C20000919E4FFFEFDFC9003E4E0F8A3E0F9A3DA
:108C3000E0FAA3E0FBC31208C66033E47FE87E03DA
:108C4000FDFC9003E4E0F8A3A3A3E012078EE41276
:108C500004999003F8E0F8A3E0F9A3E0FAA3E0FB9D
:108C60001203FC1204D7900341120919800A9003E1
:108C700041120925000003E8900341E0FCA3E0FD58
:108C8000A3E0FEA3E0FF7B017A00795890045C74B6
:108C900004F01237B4900341E0FCA3E0FDA3E0FE32
:108CA000A3E0FF7B017A00795C90045C7404F0120D
:108CB00037B4E4FFFEFDFC9003F0E0F8A3E0F9A375
