:020000040000FA
:08000000020B79023D002222EF
:0F000B00023D5AEF240A83900100730A2D5073AF
:03001B00023D2D76
:0300230002318126
:03002B00023E2072
:03003300023E4D3D
:03003B00023E7A08
:03004300023ED7A3
:10004B000232D901020A0B09030401020A0B09034C
:10005B00043EFA7B01022A1F023F15E4FF122933EB
:06006B001227440227C227
:10007300023F42900CD21208FD7810EC4D4E4F70A7
:10008300047CA57DA5C3EC13FCED13FDEE13FEEF7D
:1000930013FF5010EC64CCFCED644CFDEE644EFE9B
:1000A300EF64CEFFD8DF900CD2120919EE547FFE15
:1000B30022900CD2EEF0EFA3F0A374A5F0A3F022EC
:1000C300300100000C0333020012300004002C3412
:1000D3000006000E1D0008000C1E000A000C0002A2
:1000E300060A0E050204040404900CE27401F09065
:0A00F3000CE2E0FF14F0EF70F622BB
:10010000C0087401C0E0C082C08375080AC0F085D1
:10011000A8F0C2AF75B75575B61175B70085F0A8D0
:10012000D0F022C0087401C0E0C082C08375082DE1
:10013000C0F085A8F0C2AF75B75575B61175B70098
:1001400085F0A8D0F022C0087401C0E0C082C0834E
:10015000750850C0F085A8F0C2AF75B75575B622C6
:1001600075B70085F0A8D0F022C0087401C0E0C0C7
:1001700082C083750873C0F085A8F0C2AF75B7550B
:1001800075B63375B70085F0A8D0F02290800021B5
:10019000469082CA214690840D21469086A421462D
:1001A00090E157214690C6B3214690F495214690A0
:1001B000F28F2146909B28212390813A212390A001
:1001C0006D21239080432123908000212390911D55
:1001D000212390990B21239086D6212390B5762157
:1001E00023908A292123908FC321239084232123C4
:1001F000909373212390BBBA212300020543E86446
:1002000080F8E933E83360110460F0ED33EC3370CB
:1002100009E8FCE9FDEAFEEBFF220460DED3EB9F78
:10022000EA9EE99DE8C2E78CF0C2F795F0400CE841
:10023000CCF8E9CDF9EACEFAEBCFFB12050E85D06A
:10024000F05804700320D5B3E80470075002B2D50B
:1002500002054D92D5EC0460F7E4CCC0E0C398F8F9
:10026000603B94186008400DD0E0FB020525E4FBDC
:10027000FAC9FC8028E830E406E4C9FBE4CAFCE8DB
:1002800030E305E4C9CACBFCE854076010F8C3E9C1
:1002900013F9EA13FAEB13FBEC13FCD8F130F52F4A
:1002A000C3E49CFCEF9BFFEE9AFEED99FDD0E0FBD2
:1002B000EF4E4D4C701222DB0302054AEC2CFCEF92
:1002C00033FFEE33FEED33FDED30E7EB020525EFB6
:1002D0002BFFEE3AFEED39FDD0E0FB50130BBB00D7
:1002E0000302054DED13FDEE13FEEF13FFEC13FCBF
:1002F000020525EC4D6011E8497017ED33EC33042D
:10030000600DE4FCFFFEFD22E933E8330470F802DF
:10031000054312050E58046009E4CC2481500628D8
:10032000500902054D28400302054AC0E0EB4A701F
:1003300044B98006D0E0FB020539EF4E701CBD8049
:1003400008EBFFEAFEE9FD80EBE98DF0A4FEE5F0A5
:100350000203DCE9CDF9EAFEEBFFEF89F0A4FCE54E
:10036000F0CE89F0A42EFFE435F0CD89F0A42DFE67
:10037000E435F08067EF4E7005BD80D780C3EF8B0A
:10038000F0A4ACF0EE8BF0A42CFCE435F0F8EF8A8E
:10039000F0A42CE5F038FCE433CB8DF0A42CFCE584
:1003A000F03BF8EE8AF0A42CFCE5F038F8E433CF0B
:1003B00089F0A42CFCE5F038CF3400CE89F0A42FCE
:1003C000FFE5F03EFEE433C98DF0A42EFEE5F039E2
:1003D000CD8AF0A42FFFE5F03EFEE43DFD33D0E0F2
:1003E000FB50070BBB000F02054DEC2CFCEF33FF5D
:1003F000EE33FEED33FD02052502054DEC5D046094
:1004000005E85904700302054312050E580460F60E
:10041000EC4860F2EC7004FDFEFF22C860DB248132
:10042000C85009C3986002500602054A9850CAF5A0
:1004300082E9294B4A7005AB8202053975F0007CD0
:100440001A7880C3EF9BEE9AED99400DC3EF9BFFA6
:10045000EE9AFEED99FDE842F0DC23ACF0D0E0FF2F
:10046000D0E0FED0E0FDAB8220E7101BEB60BAECE1
:100470002CFCEF33FFEE33FEED33FD020525E803E0
:10048000F830E705C0F075F000EF2FFFEE33FEED1A
:1004900033FD40B830E7C280AA75F020800E75F0B9
:1004A00010800575F0087D007E007F003392D53006
:1004B000D5031208B8EC334010EF33FFEE33FEEDF6
:1004C00033FDEC33FCD5F0ED22E5F0247EA2D5130C
:1004D000CC92E7CDCEFF22EDD2E7CD33EC3392D5EF
:1004E00024814006E4FFFEFDFC22FCE4CFCECDCC0F
:1004F00024E0501174FF80EDC3CC13CCCD13CDCECE
:1005000013CECF13CF0470F030D5DE0208B8E9D295
:10051000E7C933E833F892D5EDD2E7CD33EC33FCBD
:100520005002B2D522EC30E7100FBF000C0EBE0017
:10053000080DBD00040BEB6014A2D5EB13FCED928B
:10054000E7FD2274FFFCFDFEFF22E480F8A2D574D3
:10055000FF13FC7D80E480EFE709F608DFFA8046B0
:10056000E709F208DFFA803E88828C83E709F0A36E
:10057000DFFA8032E309F608DFFA8078E309F2084F
:10058000DFFA807088828C83E309F0A3DFFA80644D
:1005900089828A83E0A3F608DFFA805889828A83F9
:1005A000E0A3F208DFFA804C80D280FA80C680D4C3
:1005B000806980F28033801080A680EA809A80A8CB
:1005C00080DA80E280CA803389828A83ECFAE493FD
:1005D000A3C8C582C8CCC583CCF0A3C8C582C8CC8B
:1005E000C583CCDFE9DEE7800D89828A83E493A3AB
:1005F000F608DFF9ECFAA9F0EDFB2289828A83EC98
:10060000FAE0A3C8C582C8CCC583CCF0A3C8C58214
:10061000C8CCC583CCDFEADEE880DB89828A83E44C
:1006200093A3F208DFF980CC88F0EF60010E4E60F2
:10063000C388F0ED2402B4040050B9F582EB240223
:10064000B4040050AF23234582239005A873BB0157
:100650000689828A83E0225002E722BBFE02E3225F
:1006600089828A83E49322BB010CE58229F582E525
:10067000833AF583E0225006E92582F8E622BBFEA4
:1006800006E92582F8E222E58229F582E5833AF53A
:1006900083E49322BB010FF8E58229F582E5833AD2
:1006A000F583E028F0225009C58229F8E58226F674
:1006B00022BBFE09C58229F8E22582F222F8EA254A
:1006C00083F583E9932822BB010689828A83F0227D
:1006D0005002F722BBFE01F322F8BB010DE582298F
:1006E000F582E5833AF583E8F0225006E92582C8D1
:1006F000F622BBFE05E92582C8F222EF8DF0A4A800
:10070000F0CF8CF0A428CE8DF0A42EFE22BC000BDE
:10071000BE0029EF8DF084FFADF022E4CCF875F037
:1007200008EF2FFFEE33FEEC33FCEE9DEC98400516
:10073000FCEE9DFE0FD5F0E9E4CEFD22EDF8F5F0DC
:10074000EE8420D21CFEADF075F008EF2FFFED33E4
:10075000FD4007985006D5F0F222C398FD0FD5F062
:10076000EA22C5F0F8A3E028F0C5F0F8E58215828A
:1007700070021583E038F022A3F8E0C5F025F0F010
:10078000E582158270021583E0C838F0E822E88F10
:10079000F0A4CC8BF0A42CFCE98EF0A42CFC8AF005
:1007A000EDA42CFCEA8EF0A4CDA8F08BF0A42DCC07
:1007B0003825F0FDE98FF0A42CCD35F0FCEB8EF060
:1007C000A4FEA9F0EB8FF0A4CFC5F02ECD39FEE446
:1007D0003CFCEAA42DCE35F0FDE43CFC2275F0088B
:1007E000758200EF2FFFEE33FECD33CDCC33CCC579
:1007F0008233C5829BED9AEC99E58298400CF58294
:10080000EE9BFEED9AFDEC99FC0FD5F0D6E4CEFB05
:10081000E4CDFAE4CCF9A88222B800C1B90059BAF3
:10082000002DEC8BF084CFCECDFCE5F0CBF9781821
:10083000EF2FFFEE33FEED33FDEC33FCEB33FB101B
:10084000D703994004EB99FB0FD8E5E4F9FA227835
:1008500018EF2FFFEE33FEED33FDEC33FCC933C947
:1008600010D7059BE99A4007EC9BFCE99AF90FD851
:10087000E0E4C9FAE4CCFB2275F010EF2FFFEE3371
:10088000FEED33FDCC33CCC833C810D7079BEC9AB0
:10089000E899400AED9BFDEC9AFCE899F80FD5F039
:1008A000DAE4CDFBE4CCFAE4C8F922CFF4CFCEF4FD
:1008B000CECDF4CDCCF4CC22C3E49FFFE49EFEE485
:1008C0009DFDE49CFC22EB9FF5F0EA9E42F0E99D41
:1008D00042F0E89C45F022E8600FECC313FCED13F6
:1008E000FDEE13FEEF13FFD8F122E8600FEFC333E4
:1008F000FFEE33FEED33FDEC33FCD8F122E0FCA338
:10090000E0FDA3E0FEA3E0FF22E493FC740193FD6D
:10091000740293FE740393FF22ECF0A3EDF0A3EEB8
:10092000F0A3EFF022A8828583F0D083D082120951
:100930003C12093C12093C12093CE473E493A3C540
:1009400083C5F0C583C8C582C8F0A3C583C5F0C5FB
:1009500083C8C582C822D083D082F8E49370127411
:100960000193700DA3A393F8740193F5828883E437
:10097000737402936860EFA3A3A380DFD083D08257
:10098000E4937012740193700DA3A393F874019310
:10099000F5828883E4737402936C70127403936D10
:1009A000700C7404936E70067405936F60DDA3A3DE
:1009B000A3A3A3A380CA60240C85303F3106325B19
:1009C000334F3466356D367D3707387F396F417761
:1009D000427C4339553E4930507346714F3F470C76
:1009E0007E0A0F19326496C860E00AE90000000030
:1009F0000A0A0000000101000A0A00010002000AC0
:100A00000E0E00000003010A0E0E00010004001883
:100A10000E0E0000000501180E0E00010006002653
:100A20001616000000070126161600010008003CFB
:100A30000E0E00000009013C0E0E0001000A004AE3
:100A400010100000000B014A10100001000C005AA9
:100A50000D010101000D00670D010101000E007480
:100A600004040101000F0078030300010010007B63
:100A70001B1B00010011009619190001001200AFA4
:100A80000B0B0001001300BA10100101001400CA82
:100A900006060001001500D005050101001600D56D
:100AA00008080001001700DD08080001001800E533
:100AB0001A1A0001001901AC06060001001A01B261
:100AC0003E3E0001001B01921A1A0001000205437C
:100AD00022EDA2E7D2E7F9EC3340F260F3B4FF086D
:100AE000ED547F70E802054DF82481C2E0C0E0F4C7
:100AF0000428FAC313FCED92E7FD900625120919AC
:100B0000EEA2E7E9BA7F02C31334009400FA75F04D
:100B100091A4E5F013F494FE8AF0A433E5F03324B5
:100B20008CD313FDE492E7FE7F007C3F758302ECDB
:100B3000C0E0F8EDC0E0F9EEC0E0FAEFC0E0FB8500
:100B400083F09006251208FD85F0831203FCD0E0A7
:100B5000FBD0E0FAD0E0F9D0E0F8120202ED6480B8
:100B6000FD30E7011CD583C7ED33CC33F8D0E0A2CC
:100B7000E71328C313CC13FD22787FE4F6D8FD7564
:100B8000812012010A020BC3021921E493A3F8E4A5
:100B900093A34003F68001F208DFF48029E493A3D5
:100BA000F85407240CC8C333C4540F4420C88340EE
:100BB00004F456800146F6DFE4800B0102040810BD
:100BC0002040809009B6E47E019360BCA3FF543FAF
:100BD00030E509541FFEE493A360010ECF54C025F5
:100BE000E060A840B8E493A3FAE493A3F8E493A3E5
:100BF000C8C582C8CAC583CAF0A3C8C582C8CAC549
:100C000083CADFE9DEE780BE0706050403020100B0
:100C1000070605040302010007060504030201009C
:100C2000070605040706050403020100070605047C
:100C3000030201000706050403020100030201008C
:100C400080808080808080804040404040404040A4
:100C5000202020202020202010101010020202024C
:100C6000020202020404040404040404080808083C
:100C7000080808081010101001020102000000030B
:100C80000100020102020100030001000302010051
:100C90000506030405060304060504050506040607
:100CA00004060505060403030480200180082010C3
:100CB00002040840022010104001010220100840E8
:100CC0008010020802020401200880011080020145
:100CD0004008044040100801010102020202020221
:100CE00001020202020202010180402010081008E5
:100CF00004020180018040201008100804020180D5
:100D0000018040201008100804020180018040206A
:100D10001008100804020180030000000000000019
:100D200000000001000101010101010101010102B6
:100D30000102020202020202020202030203030390
:100D400003030303030303000102100808101080CB
:100D5000800202400840024040010104012020803E
:100D60002008040404201080010002020301030291
:100D7000000102030002030100000201030300015D
:100D80000201030002010003E00040F0D0701040B7
:100D900020E0F020B0D0801030A0A06060C0C0B0D3
:100DA000509090500030708040F010C0E080802063
:100DB000D04060902010B070F050C0B0903070E023
:100DC00030A0A000506000D00F03010D08040E07F2
:100DD000060F0B020308040E090C070002010D0A9E
:100DE0000C060009050B0A05000D0E08070A0B0189
:100DF0000A03040F0D040102050B08060C07060C7C
:100E000009000305020E0F09A0D000709000E090C9
:100E100060303040F06050A01020D080C05070E0B2
:100E2000B0C040B020F08010D01060A040D0900042
:100E30008060F09030800070B04010F020E0C03052
:100E400050B0A050E02070C0070D0D080E0B030538
:100E50000006060F09000A03010402070802050C38
:100E60000B010C0A040E0F090A03060F0900000605
:100E70000C0A0B01070D0D080F09010403050E0BE9
:100E8000050C02070802040E20E0C0B0402010C08C
:100E90007040A070B0D060108050500030F0F0A0D2
:100EA000D0300090E080906040B0208010C0B070E2
:100EB000A010D0E0702080D0F06090F0C000509082
:100EC00060A030400050E0300C0A010F0A040F020D
:100ED0000907020C0609080500060D01030D040EA2
:100EE0000E00070B05030B0809040E030F02050C87
:100EF000020908050C0F030A070B000E04010A077C
:100F000001060D000B08060D40D0B00020B0E070C7
:100F1000F04000908010D0A030E0C030905070C001
:100F20005020A0F060801060106040B0B0D0D08041
:100F3000C010304070A0E070A090F050600080F0D1
:100F400000E05020903020C00D01020F080D040871
:100F5000060A0F030B0701040A0C090503060E0B12
:100F60000500000E0C09070207020B01040E010721
:100F700009040C0A0E08020D000F060C0A090D00E8
:100F80000F0303050506080BFFF0020027062008E3
:100F900044445359363636202020444C2F540036D2
:100FA00034352D323030372D3134FEFEFEFE6800F0
:100FB00000FFFFFFFFFFFF000068000000000001CE
:100FC00004E601000000040001000100000104E645
:100FD00001000000040001000200000104EA010019
:100FE00000000400010090020101058901000000D9
:100FF00004000100900200010583010000000400CC
:10100000010330060101051D01000000040001027A
:101010008000200105190000040004000104000400
:10102000010103ED000010000600010400040201AC
:1010300003F3000010060600010400040E0103F98A
:101040000000100C060001033001000105D401006E
:101050000000040101033302010105D80100000072
:10106000040101040010010105A1000011000400A9
:1010700001040010020105A5000011040400010490
:101080000010040105A9000011080400010400106B
:10109000030105AD0000110C04000104001005015E
:1010A00005B10000111004000104090B010105B590
:1010B0000000111403000104800010FF0F880100DC
:1010C00000000801000400040DFF0F9A0100000059
:1010D0001001000400040BFF0F90010000000A0142
:1010E0000004000C010000000000120004010004D4
:1010F000000C020000000000120304010004000CB8
:1011000003000000000012060401000400030801AF
:101110000408000019000100000400030201040992
:10112000000019010100000400030101040A00008D
:1011300019020100000400030501040B000019035B
:101140000100000404010101040E00001A00010165
:10115000000404020101042C00001A1E0101000415
:10116000000306010402000010150300010400033F
:10117000070103FF0000101203000102010100013A
:10118000002E010000000200010202010001004DDA
:1011900001000000030001020300000100690100DA
:1011A00000000300010203010001006D01000000C6
:1011B0000300010206000001008A01000000020095
:1011C000010206010001008E010000000200010280
:1011D00080000201009A01000000020001070000E7
:1011E000FF070001FF070101FF070102FF070103DD
:1011F000FF070301FF070002FF200E1E1E18300824
:10120000100404040404161100000000111100B0C1
:10121000990184D401FF8430020C80FA000380FA23
:1012200000000084000084D6960004D6822404DCEA
:10123000010C04DC030C8432010C04D6820004D6B9
:10124000830004D684000082000804D68C0004D6F3
:10125000000004D6880004D6940004D6970000C08D
:10126000000000B0880000B08C0000B0940000B016
:10127000970004B2010C0000000000000000000014
:10128000000000000000000000000102030201064F
:101290000BFFF0FF014348494E54494D0F094B4C99
:1012A000000100000100150101000006000102011B
:1012B00000010A001F030100000B000104010000EF
:1012C0000D000105000000020106060000000301F8
:1012D00020000000000000000000000000000000EE
:1012E00000000000000000000000000000000000FE
:1012F00000000000000000000000000000000000EE
:1013000000000000000000000000000000000000DD
:1013100000000000000000000000000000000000CD
:1013200000000000000000000000000000000000BD
:1013300000000000000000000000000000000000AD
:10134000000000000000000000000000000000009D
:10135000000000000000000000000000000000008D
:10136000000000000000000000000000000000007D
:10137000000000000000000000000000000000006D
:10138000000000000000000000000000000000005D
:10139000000000000000000000000000000000004D
:1013A000000000000000000000000000000000003D
:1013B000000000000000000000000000000000002D
:1013C000000000000000000000000000000000001D
:1013D000000000000000000000000000000000000D
:1013E00000000000000000000000000000000000FD
:1013F00000000000000000000000000000000000ED
:1014000000000000000000000000000000000000DC
:1014100000000000000000000000000000000000CC
:1014200000000000000000000000000000000000BC
:1014300000000000000000000000000000000000AC
:10144000000000000000000000000000000000009C
:10145000000000000000000000000000000000008C
:10146000000000000000000000000000000000007C
:10147000000000000000000000000000000000006C
:10148000000000000000000000000000000000005C
:10149000000000000000000000000000000000004C
:1014A000000000000000000000000000000000003C
:1014B000000000000000000000000000000000002C
:1014C000000000000000000000000000000000001C
:1014D000000000000000000000000000000000000C
:1014E000000000000011892312329B462457AD658D
:1014F0003674BF8C489DC1AF5ABED3CA6CDBE5E9D8
:101500007EF8F7108101083393221A56A5472C75EF
:10151000B7643E9CC98D40BFDBAE52DAEDCB64F9B7
:10152000FFE8762102308B02101399672676AF44CC
:101530003455BDAD4ABCC38E589FD1EB6EFAE7C897
:101540007CD9F53183200A1291031877A7662E54AF
:10155000B5453CBDCBAC429ED98F50FBEFEA66D877
:10156000FDC9744204538D6116709F042015A9278C
:101570003236BBCE4CDFC5ED5EFCD7886899E1AB57
:101580007ABAF35285430C7197601E14A10528376F
:10159000B3263ADECDCF44FDDFEC5698E98960BB37
:1015A000FBAA726306728F4014519D252234AB064C
:1015B0003017B9EF4EFEC7CC5CDDD5A96AB8E38A17
:1015C000789BF17387620E5095411C35A3242A162F
:1015D000B10738FFCFEE46DCDDCD54B9EBA8629AF7
:1015E000F98B7084089581A71AB693C22CD3A5E114
:1015F0003EF0B7084019C92B523ADB4E645FED6DDF
:10160000767CFF94898500B79BA612D2ADC324F1E6
:10161000BFE03618C109483BD32A5A5EE54F6C7DBE
:10162000F76C7EA50AB48386189791E32EF2A7C0C3
:101630003CD1B5294238CB0A501BD96F667EEF4C9E
:10164000745DFDB58BA40296998710F3AFE226D0A6
:10165000BDC13439C3284A1AD10B587FE76E6E5C7E
:10166000F54D7CC60CD785E51EF497802891A1A383
:101670003AB2B34A445BCD695678DF0C601DE92F5E
:10168000723EFBD68DC704F59FE41690A98120B366
:10169000BBA2325AC54B4C79D7685E1CE10D683F3E
:1016A000F32E7AE70EF687C41CD595A12AB0A38243
:1016B0003893B16B467ACF485459DD2D623CEB0E1E
:1016C000701FF9F78FE606D49DC514B1ABA0229226
:1016D000B983307BC76A4E58D5495C3DE32C6A1EFE
:1016E000F10F780101010102020226262626252596
:1016F0002528282828272727101010101111110E2F
:101700000E0E0E0F0F0F0C0C0C0C0D0D0D0A0A0A0D
:101710000A0B0B0B0A100F0E0D0B0C040302010237
:10172000040304030201020403040302010204038C
:10173000040302010204030403020102040304037C
:10174000020102040304030201020403000000007A
:10175000000000000000000104E604020100010096
:10176000000104E6040201000200000104EA040290
:1017700001040004010103ED02000504000401015D
:1017800003EF040001040004020103F30200050456
:101790000004020103F50400010400040E0103F932
:1017A0000200050400040E0103FB04000102800096
:1017B00020010519040401009002000105830402C0
:1017C00001009002010105890402010400100101D9
:1017D00005A1040201040010020105A50402010490
:1017E000090B010105B50304030201010001001DFD
:1017F0000302030202010001003D03030302030090
:10180000000100590304030203010001005D030409
:10181000030206000001007A02030502060100012E
:10182000007E0203050280000201009A0202050404
:1018300000040901009C030003FFFFFFFF000000FC
:1018400000000036000000003700000000380000F3
:1018500000003A000000003B000000003C000000D7
:10186000003D00FD27003E000000003F000000009A
:101870004000000000410000000042000000004461
:101880000000001B4500000000460000000047006B
:101890000001804B000001FF5000000000510000DB
:1018A000000452000000005300000000540000003B
:1018B0000055000000005600000000570000000026
:1018C0005A008000005B007FF547600000055D6105
:1018D000007FF54662000000007C000000807D0073
:1018E00000000048000001823400000000350000C4
:1018F00000003900000000430000001B3000000021
:10190000353100A000C13200000C8433000000E833
:10191000003409350D390C0F0A10091BD3000000E3
:10192000001201B9BF01031201BE31749004B4E08A
:10193000F8A3E0F9A3E0FAA3E0FBC31208C6600332
:10194000E4F5B131749004B41209191201DC1201EA
:101950008C1201D71201AF1201B480CEF583EF25AE
:1019600083F583E0FCA3E0FDA3E0FEA3E0FF900687
:101970000B1209199004B0E0FCA3E0FDA3E0FEA364
:10198000E0FF90067D1209199004ACE0FCA3E0FD95
:10199000A3E0FEA3E0FF900681120919E4FFFEFD1B
:1019A000FC900681E0F8A3E0F9A3E0FAA3E0FBC312
:1019B0001208C6703074FFFFFEFDFC90067DE0F853
:1019C000A3E0F9A3E0FAA3E0FBC31208C66043E476
:1019D000FFFEFDFC90067DE0F8A3A3A3E0C3120880
:1019E000C67002802D90067DE0FCA3E0FDA3E0FE22
:1019F000A3E02401FFE43EFEE43DFDE43CFCA3E063
:101A0000F8A3E0F9A3E0FAA3E0FBC31208C6600262
:101A1000217490067DE0FCA3E0FDA3E0FEA3E0FFBF
:101A2000227B017A05797B7D047C0091849005817D
:101A3000EEF0A3EFF07B017A05797BE4FD7F17FEE2
:101A400051617B017A0079107D047C0091849000C3
:101A500016EEF0A3EFF07B017A007910E4FD7F161B
:101A6000FE90098CEDF0A3EBF0A3EAF0A3E9F0906F
:101A7000098AEEF0A3EFF09009907401F0E4900968
:101A800092F0A3F0C3EF941CEE940040028154E462
:101A9000900991F0900991E0FFC3941C4002815499
:101AA00075F008EFA424E9F582E5F0340AF583E047
:101AB000FEA3E0FF90098AE0FCA3E0FDEF6D700259
:101AC000EE6C6002814CEDAE047803C333CE33CEAE
:101AD000D8F9FF24EFF582740A3EF583E0600261D5
:101AE0007090098DE0FBA3E0FAA3E0F974EE2FF506
:101AF00082740A3EF583E024FEFDE434FFFC918409
:101B0000900992EEF0A3EFF0900992E0FD90098A1F
:101B1000E0FEA3E07803C333CE33CED8F924EEF54C
:101B200082740A3EF583E024FEFFE434FFFE900950
:101B30008DE0FBA3E0FAA3E0F98F828E83ED12061D
:101B4000D9900992A3E0FD90098AE0FEA3E0780312
:101B5000C333CE33CED8F924EEF582740A3EF58332
:101B6000E07E0024FFF582EE34FFF583ED1206D906
:101B700090098AE0FEA3E07803C333CE33CED8F9D0
:101B800024EBF582740A3EF583E0FEA3E0FF9009A2
:101B90008CE0FD7C00EF2DFFEC3EFEC006C007A3ED
:101BA000E0FBA3E0FAA3E0F990098AE0FEA3E07865
:101BB00003C333CE33CED8F924EEF582740A3EF552
:101BC00083E0900CC5F0D007D006124200EF60020F
:101BD0008154900990F090098AE0FEA3E07803C355
:101BE00033CE33CED8F9FF24F0F582740A3EF58364
:101BF000E0706174F32FF582740A3EF583E0FEA372
:101C0000E0FF90098CE0FD7C00EF2DFFEC3EFEC074
:101C100006C007A3E0FBA3E0FAA3E0F990098AE07D
:101C2000FEA3E07803C333CE33CED8F924F6F58291
:101C3000740A3EF583E0900CC5F0D007D00612423E
:101C400000EF60109009907401F08008900991E015
:101C500004F04194900990E0FF2291F3900616E081
:101C6000FF7E00900618EEF0A3EFF0FD900615E061
:101C7000FFED900618CFF0A3EFF07B017A0679090B
:101C80007D0C7C009009D0EBF0A3EAF0A3E9F0A36F
:101C9000ECF0A3EDF0E4A3F0A3F09009D374FFF50A
:101CA000F012077845F060429009D0E0FBA3E4759C
:101CB000F001120778A9F0FA12064EFF9009D5E05C
:101CC000FCA3E0FDED6F25E0FFE433FE74E32FF5A8
:101CD0008274143EF583ECFFE493FE7401936FFF6E
:101CE0009009D5EEF0A3EFF080B09009D5E0FEA307
:101CF000E0FF22900CB5EEF0A3EFF0900CB7EBF004
:101D0000A3EAF0A3E9F0900CBBE4F0900CBAE0FF7A
:101D1000EF70037F0122900CBAE0FF7E00900CB5BB
:101D2000E0FCA3E0FDEF2DFFEE3CFED3EF94FFEED1
:101D3000940140037F0122900CB5E0FEA3E0FFEE8A
:101D4000FF7E00EF54FFFF900CBCEFF0900CBCE066
:101D5000FFEF25E0FF900CBCEFF012404E900CBC62
:101D6000E0FFEF24A0FFD176EF6005D10D7F0122C7
:101D7000900CB5E0FEA3E0FFD176EF6005D10D7FBA
:101D8000012212404E900CBCE0FFEF24A1FFD1765F
:101D9000EF6005D10D7F0122900CB7E0FBA3E0FAC4
:101DA000A3E0F9900CBDEBF0A3EAF0A3E9F0900CEE
:101DB000BCE4F0900CBAE0FFEF14FF900CBCE0FE26
:101DC000EEC39F50241242E3900CBDE0FBA3E0FA67
:101DD000A3E0F9900CBCE0FE8E82758300EF120642
:101DE000D9900CBCE004F080CA123F94900CBDE086
:101DF000FBA3E0FAA3E0F9900CBCE0FE8E827583B1
:101E000000EF1206D9D10D900CBBE0FF22900CE43C
:101E1000E4F090FFE8E0FFEF54BFFF90FFE8EFF041
:101E2000900CE47414F0900CE4E0FFEFD3940040C5
:101E300016E5EC20E61143EC801200EC53EC7F90A9
:101E40000CE4E014F080DF90FFE8E0FFEF4440FF97
:101E500090FFE8EFF090FFE8E0FFEF4480FF90FF95
:101E6000E8EFF053ECBF53EC7F1200EC43EC801230
:101E700000EC43EC4022900CD6EFF0900CD7E4F04D
:101E8000900CD8E4F090FFE8E0FFEF4480FF90FF73
:101E9000E8EFF053EC7F90FFE8E0FFEF4440FF9065
:101EA000FFE8EFF0900CD8E4F0900CD8E0FFEFC31F
:101EB00094085030900CD6E0FFEF30E70543EC403B
:101EC000800353ECBF43EC80900CD6E0FFEF25E09D
:101ED000FF900CD6EFF0123F8D53EC7F900CD8E0C2
:101EE00004F080C512000790FFE8E0FFEF54BFFF49
:101EF00090FFE8EFF043EC80120007E5EC30E606D7
:101F0000900CD77401F053EC7F900CD7E0FF229037
:101F1000066AE075F00EA424C3F582E5F0340FF5EF
:101F200083E493FE740193FF7B017A067928E4FD34
:101F3000900987EDF0A3EBF0A3EAF0A3E9F0900994
:101F400085EEF0A3EFF090098B7401F0E4A3F0A309
:101F5000F09009CEF0A3F0C3EF941CEE9400400380
:101F6000022159E490098CF090098CE0FFC3941C85
:101F7000400302215975F008EFA424E9F582E5F049
:101F8000340AF583E0FEA3E0FF900985E0FCA3E0BE
:101F9000FDEF6D7002EE6C600302215090098DF030
:101FA000900985E0FEA3E07803C333CE33CED8F9A1
:101FB00024EBF582740A3EF583E0FEA3E0FF90096E
:101FC00087E0FD7C00EF2DFFEC3EFEC006C0077BE6
:101FD000017A09798E900985E0FEA3E07803C33386
:101FE000CE33CED8F924EEF582740A3EF583E09024
:101FF0000CBAF0D007D00691F3EF6401707A900923
:1020000085E0FEA3E07803C333CE33CED8F9FF24B6
:10201000F0F582740A3EF583E0704E74F32FF5827A
:10202000740A3EF583E0FEA3E0FF900987E0FD7CA3
:1020300000EF2DFFEC3EFEC006C0077B017A097958
:102040008E900985E0FEA3E07803C333CE33CED86B
:10205000F924F6F582740A3EF583E0900CBAF0D0CC
:1020600007D006121CF3BF010F90098DE004F0E0C9
:10207000C394035003021FA090098DE0C394034052
:10208000037F0122900985E0FEA3E07803C333CEED
:1020900033CED8F9FF24EFF582740A3EF583E07061
:1020A0006D74EE2FF582740A3EF583E0FF248DF502
:1020B00082E43409F583E0FD9009CEE4F0A3EDF06D
:1020C000748C2FF582E43409F583E0FE9009CEE0AC
:1020D0004EF0A3E0F07B017A09798E900985E0FE4D
:1020E000A3E07803C333CE33CED8F924EEF582745F
:1020F0000A3EF583E024FEFDE434FFFC121C8490CC
:1021000009CEE06E7003A3E06F60037F01229009A7
:1021100088E0F9A3E0FAA3E09009D3C9F0A3EAF0BC
:10212000A3E9F0900985E0FEA3E07803C333CE3342
:10213000CED8F924EEF582740A3EF583E09009D6F4
:10214000F07B017A09798E3179E490098BF080096E
:1021500090098CE004F0021F6890098BE0FF2231A7
:10216000799009D37401F0A37404F0A374FDF0A373
:102170007404F07B017A0579839009D0EBF0A3EA2F
:10218000F0A3E9F0E4FF9009D6E0FEEFC39E502BE8
:102190009009D0E0FBA3E0FAA3E0F98F82758300F9
:1021A000120667FE9009D3E0FBA3E0FAA3E0F98FE3
:1021B00082758300EE1206D90F80CB2290065DEB6C
:1021C000F0A3EAF0A3E9F0900664E0FED394015096
:1021D000037F0122EE24FFFFE434FFFE900663E05C
:1021E000FD7C001206FB90065DE0FBA3E0FAA3E095
:1021F0002FF9EA3EFAC002C001A3E0F9A3E0FAA376
:10220000E09009D3C9F0A3EAF0A3E9F0900663E0F7
:102210009009D6F0D001D0023179900664E09006A2
:1022200067F0900667E0FFD39401406E900665E08A
:1022300064557009EF1236C7EF6057800C9006673F
:10224000E01236C7EF64016049900667E024FEFFA4
:10225000E434FFFE900663E0FD7C001206FB90066E
:102260005DE0FBA3E0FAA3E02FF9EA3EFAC002C06A
:1022700001A3E0F9A3E0FAA3E09009D3C9F0A3EA2F
:10228000F0A3E9F0900663E09009D6F0D001D00207
:102290003179900667E014F080887F0022900783F0
:1022A0007401F0A3740AF0A374D1F090077EE0905B
:1022B0000786F090077AE0FBA3E0FAA3E0F9900725
:1022C00080EBF0A3EAF0A3E9F09009D37401F0A346
:1022D0007407F0A37491F0A37408F0900783E0FBF7
:1022E000A3E0FAA3E0F93179900780E0FBA3E0FADC
:1022F000A3E0F91247CB7B017A077991124844E4B5
:10230000900787F0E4900788F0900787E0FF900C33
:10231000D893FE900788E0C39E501C900786E0FD8E
:10232000B40103EF60117B017A077991124B7D9024
:102330000788E004F080D29009D37401F0A37407F9
:10234000F0A37489F0A37408F07B017A07799131C6
:10235000799007AF74FFF0A3740CF0A37478F0A326
:1023600074FFF0A3740CF0A374A8F0A37406F07BC0
:10237000017A07798912486290079C7401F0A3746E
:1023800007F0A37489F0900780E0FBA3E0FAA3E0D4
:10239000F9124935E4F5B1900787E004F0E0C39401
:1023A0001050026104900780E0FBA3E0FAA3E0F97B
:1023B000900799EBF0A3EAF0A3E9F0E4F5B19007F8
:1023C0009D04F012064E9007A5F0900004120667D7
:1023D0009007A4F09000011206679007A3F0900008
:1023E000051206679007A2F0900002120667900798
:1023F000A1F09000061206679007A0F0900003126B
:10240000066790079FF090000712066790079EF0FE
:10241000E490079CF07B017A07799E12479E900713
:1024200099E0FBA3E0FAA3E0F9A3E0F5827583004D
:10243000EF1206D990079DE025E0F090079CE0049C
:10244000F0E0C3940840CEE4F5B12290077D74011A
:10245000F07F0690077AEBF0A3EAF0A3E9F0EF64CF
:102460000660147B017A0A79D1E4FD7F13FE121F06
:1024700030BF01037F012290077DE0B40209A374FD
:1024800002F0A314F0800990077E7401F0A304F019
:10249000519D9007837401F0A3740AF0A374D9F0DE
:1024A00090077F51AE519D7F002290076CEBF0A307
:1024B000EAF0A3E9F0A3EDF0D3946440037F012296
:1024C0009007767401F0A3740AF0A3744FF090099A
:1024D000D37401F0A3740AF0A374E1F0A37408F0BC
:1024E000900770E0FBA3E0FAA3E0F931797B017A71
:1024F0000A79D1E4FD7F13FE121F30BF01037F0173
:1025000022900776E0F9A3E0FAA3E09009D3C9F09E
:10251000A3EAF0A3E9F090076FE09009D6F09007E6
:102520006CE0FBA3E0FAA3E0F93179900776E0FBD9
:10253000A3E0FAA3E0F990076FE0FFF5827583004E
:1025400074801206D97E00E92FF9EE3AFAE92401E7
:10255000F9E43AFA90098EE4F0A37407F0E4FDD1AF
:102560009B90076FE0131313541F04900775F0E45A
:10257000FD74E12DF582E4340AF583C083C082E066
:10258000FF900776E0FBA3E0FAA3E0F98D82758364
:1025900000120667FEEF6ED082D083F00DEDB40816
:1025A000D0E4900774F0900775E014FF900774E092
:1025B000C39F506E9007837401F0A3740AF0A37454
:1025C000D1F0A37402F07B017A0A79E151BEE4FDF7
:1025D00074E12DF582E4340AF583C083C082E0FC07
:1025E000900774E02401FFE433FEEF7803C333CE99
:1025F00033CED8F9FFED7A002FFFEA3EFE90077642
:10260000E0FBA3E0FAA3E0F98F828E831206676CE9
:10261000D082D083F00DEDB408B6900774E004F0DA
:1026200080847B017A0A79E190077D7402F0E4FFEF
:102630009153900773E06401703B90076CE0FBA33B
:10264000E0FAA3E0F9A3E0FF7E00E92FF9EE3AFA01
:10265000900988EBF0A3EAF0A3E9F0A37404F0A3D7
:102660007455F07B017A0A79E112370DBF02037FBE
:1026700000227F01227F002290052FE054FDF07B95
:10268000017A0C790A7D041201A57B017A0C790E7E
:1026900090098EE4F0A37404F0E4FD90098AEBF055
:1026A000A3EAF0A3E9F0A3EDF0E4FFFED390098FD5
:1026B000E09F90098EE09E401F90098DE0FD9009FB
:1026C0008AE0FBA3E0FAA3E0F98F828E83ED120685
:1026D000D90FBF00010E80D42278877C067D017B54
:1026E000FF7A1379997E007F281206289006AF742E
:1026F00001F09009D3F0A37406F0A37487F0A374DB
:1027000013F07BFF7A12798D31799006B37401F062
:10271000A37406F0A3749AF0A37406F07B017A0305
:1027200079ED123C4C7B017A0679877D017F02129C
:102730002A91EF70099006AFF090053604F09006EC
:10274000AFE0FF22786E7C067D017BFF7A1479660C
:102750007E007F191206289009887401F0A3740680
:10276000F0A3746EF0A37406F07B017A04798912E9
:1027700034579009D37401F0A37406F0A37474F075
:10278000A3740CF07B017A04798F31799009D374AA
:1027900001F0A37406F0A37480F0A37403F07B012E
:1027A0007A04799B31797B017A06796E122F169023
:1027B00004A0E090066EF07B017A06796E122F205D
:1027C000C1D978097C067D017BFF7A1479027E00ED
:1027D0007F64120628E490066DF0123F87EF6407CD
:1027E000607BEF64086076EF6404601AEF64016058
:1027F00007E49004E5F0D1D99004E5E0D394B44027
:1028000005E4F01226D97B017A067909122A1FEF16
:10281000704490066DF090066DE0FFC39406502E54
:10282000E0FEFDC374059DFDE49400FC74892DF564
:102830008274043CF583E0FD74092EF582E43406CD
:10284000F583E0B5050890066DE004F080C8EFC39D
:10285000940650098000115E31811226D92290FF22
:10286000E3E04440F043B0407F967E00118590FF46
:10287000E3E04440F053B0BF7FF47E011185900245
:10288000467401F02290066EEEF0A3EFF0A3120959
:10289000250000000090066EE0FEA3E0FF7C007DB6
:1028A000131206FBE4FDA3E0F8A3E0F9A3E0FAA30A
:1028B000E0FBC31208C6502311DC900670E0FCA3B5
:1028C000E0FDA3E0FEA3E02401FFE43EFEE43DFDC5
:1028D000E43CFC90067012091980BA22120006121C
:1028E00000067F01AE071FEE70FA22E0FFA3E09022
:1028F0000989CFF0A3EFF07D06900985EBF0A3EAFC
:10290000F0A3E9F0A3EDF031EFEF70037F01229027
:102910000985E0FBA3E0FAA3E0F9A3E0FD7C001247
:102920001C84900989E06E7003A3E06F7F00600251
:102930007F0122900609EFF0E4A3F07B017A04798D
:10294000899004A1E0FFA3E0900989CFF0A3EFF004
:102950007D1811F9EF7006900609E0701E7B017A70
:10296000047989E4FD7F1BFE121F30BF010690062B
:102970000A7401F0115E31811226D990060AE0FF37
:10298000229009D37401F0A37404F0A37489F0A316
:102990007406F07B017A0379ED1221799006B37405
:1029A00001F0A37404F0A3748FF0A37406F07B010C
:1029B0007A047989123C4CE490049BF0A3F0A3F0D4
:1029C000A304F0A3E4F01227447B017A047989E49C
:1029D000FD7F1BFE021A61AD07AC06E4FBFAC3EBF8
:1029E0009DEA9C500911DC0BBB00010A80F022908B
:1029F000098BEBF0A3EAF0A3E9F0E4FFEFC39D50ED
:102A00001B90098BE0FBA3E0FAA3E0F98F827583AA
:102A10000012066760037F01220F80E07F00229092
:102A200006727415F0E4FF90066EEFF0A3EBF0A3CE
:102A3000EAF0A3E9F078737C067D017BFF7A1379D5
:102A4000357E007F641206289006D77401F0900648
:102A50006EE0FF7B017A0679737D025191EF702B56
:102A600090066FE0F9A3E0FAA3E09009D3C9F0A3C0
:102A7000EAF0A3E9F0900672E09009D6F07B017AC3
:102A8000067973122179E49006D7F09006D7E0FF1B
:102A9000229006FDEFF0A3EDF0A3EBF0A3EAF0A384
:102AA000E9F0A37401F0A3F0E4A3F0A3F0A3F0A372
:102AB000F078087C077D017BFF7A14797FFE7F64C4
:102AC00012062890076C7401F0A37407F0A3740831
:102AD000F0900527E030E102A1AAB1F1BF01037F28
:102AE0000622E490076FF090076FE0FFC394075051
:102AF00053EF75F007A424A0F582E43412F583E4C3
:102B000093FF9006FDE0FEEFB5063190076FE0FB06
:102B100075F007A424A1F582E43412F583120909A3
:102B2000900772120919EB75F007A424A6F582E448
:102B30003412F583E493900707F0800890076FE064
:102B400004F080A390076FE0C394074002A1AAE4B9
:102B5000900705F0900527E030E102A1AA90070751
:102B6000E02404F09006FEE0B40206900707740427
:102B7000F07B017A07790890098EE4F0A37404F0E1
:102B80007DFE12269B90070C7468F0900707E0907A
:102B9000070DF0E4A3F07B017A07790F90098EF01E
:102BA000A37406F07DFF12269BE4900715F0A3F0B6
:102BB000A37468F09006FEE0900718F0900772E0AA
:102BC000FCA3E0FDA3E0FEA3E0FF78181208D79075
:102BD0000719EFF0900772E0FCA3E0FDA3E0FEA36D
:102BE000E0FF78101208D790071AEFF0900772E014
:102BF000FCA3E0FDA3E0FEA3E0FF78081208D79055
:102C0000071BEFF0900772A3A3A3E090071CF090BE
:102C100009D37401F0A37407F0A3741DF0900707A3
:102C2000E024FC9009D6F09006FFE0FBA3E0FAA3B5
:102C3000E0F91221797B017A07790C900707E024EB
:102C40000DFDD11D900707E0FE2419F582E434073D
:102C5000F583EFF0741A2EF582E43407F5837416C9
:102C6000F0EE2413900706F07F011201C853A9FB70
:102C7000E4900704F0900706E0FF900704E0FEC32D
:102C80009F505C74082EF582E43407F583E0FF3032
:102C9000D004D2DB8002C2DB8FD9E4900770F0A3AE
:102CA000F030D904C2D98020120006900771E004E8
:102CB000F07006900770E004F0C3900771E094D0C4
:102CC000900770E0940740D9C3900771E094D090CA
:102CD0000770E094075008900704E004F0809643E2
:102CE000D81053A9FB9007067464F0E4900704F031
:102CF000900706E0FF900704E0C39F5054E490075C
:102D000070F0A3F0900770E0FEA3E0FFC39440EEE4
:102D1000941F502C30D819C2D8900704E02408F52D
:102D200082E43407F583E5D9F0E4900703F08010DE
:102D3000900771E004F07006900770E004F080C422
:102D4000C3EF9440EE941F5008900704E004F08015
:102D50009F900703E0700A900702F0900705740344
:102D6000F0900702E070359006FFE0F9A3E0FAA3C7
:102D7000E09009D3C9F0A3EAF0A3E9F090076FE06F
:102D800075F007A424A6F582E43412F583E4939049
:102D900009D6F07B017A07791D122179900705E0A9
:102DA00004F0E0C3940350026154900702E0FF2254
:102DB000900600EBF0A3EAF0A3E9F0E4FFEFC39D77
:102DC000501C900600E0FBA3E0FAA3E0F98F8275A7
:102DD0008300120667F460037F01220F80DF7F000B
:102DE00022900672EDF041279006727401F0FF41C7
:102DF00027900246E0FF64026004EFB403037F0102
:102E0000227F0022E0FF75F0A7A4248BF582E5F075
:102E10003401F583EF2583F583E0240AFD900776DE
:102E2000EBF0A3EAF0A3E9F0E4FFFEEEC39D501837
:102E3000900776E0FBA3E0FAA3E0F98E82758300A9
:102E40001206672FFF0E80E322900633EBF0A3EA11
:102E5000F0A3E9F0A37401F078377C06FD7BFF7ADC
:102E60001379C17E007F191206287B017A06793713
:102E7000511F900636EFF07022900633E0F9A3E080
:102E8000FAA3E09009D3C9F0A3EAF0A3E9F0A37490
:102E90000CF07B017A06793D122179900636E0FF2D
:102EA00022900690EFF0A3EBF0A3EAF0A3E9F0780C
:102EB000957C067D017BFF7A1279D17E007F6412BA
:102EC00006289006F97401F0A37406F0A37495F037
:102ED000A37401F0900694E0FF601F9009D3740181
:102EE000F0A37406F0A37495F0A3EFF0900691E0C0
:102EF000FBA3E0FAA3E0F9122179900690E0FF7BB2
:102F0000017A0679957D015191EF70049006FCF0ED
:102F10009006FCE0FF229006947415F0E4FF808197
:102F2000900687EBF0A3EAF0A3E9F0A37401F07830
:102F30008B7C06FD7BFF7A1379DA7E007F05120613
:102F4000289009D37401F0A37406F0A3748BF09059
:102F5000068AE09009D6F0900687E0FBA3E0FAA38A
:102F6000E0F91221797B017A06798B90069474013D
:102F7000F0FFC1A1900633EFF0A3EDF0A3EBF0A3B7
:102F8000EAF0A3E9F078387C067D017BFF7A1379BB
:102F9000DF7E007F231206289009D37401F0A3740A
:102FA00006F0A37438F0900634E09009D6F090064D
:102FB00035E0FBA3E0FAA3E0F9122179900633E0B3
:102FC000FF7B017A067938A3E0900694F0C1A1F066
:102FD00090060EE0FBA3E0FAA3E0F99000031206CE
:102FE00067FFEFD3946340037F0022EF75F00A84FC
:102FF000C454F0FEEF75F00A84E5F02EFF221206AD
:1030000067FFEFC4540F75F00AA4FEEF540F2EFFB4
:1030100022AC07AF051102AD07AF041102EF2DFF7F
:1030200012064E2FFFE41206C7EFC39464400974E2
:10303000011206C7749C2FFF80A890098AEBF0A3A9
:10304000EAF0A3E9F0E4900991F0A3F0900990E090
:10305000FF900992E0FEC39F5079EEFDC3EF9DFD06
:10306000E49400FCED24FFFFEC34FFFE90098AE0BD
:10307000FBA3E0FAA3E0F98F828E83120667FFEDCF
:1030800024FFFDEC34FFFC90098DE0FBA3E0FAA3E4
:10309000E0F98D828C83120667FD7B017A097991B4
:1030A0001111900992E0FD900990E0C39DFDE49418
:1030B00000CD24FFCD34FFFC90098AE0FBA3E0FAA9
:1030C000A3E0F98D828C83EF1206D9900992E00477
:1030D000F0014C229004B0E0FCA3E0FDA3E0FEA3CD
:1030E000E0FF9005F41209199004ACE0FCA3E0FDA8
:1030F000A3E0FEA3E0FF9005F8120919E4FFFEFD2E
:10310000FC9005F8E0F8A3E0F9A3E0FAA3E0FBC324
:103110001208C6703074FFFFFEFDFC9005F4E0F865
:10312000A3E0F9A3E0FAA3E0FBC31208C66043E4FE
:10313000FFFEFDFC9005F4E0F8A3A3A3E0C3120892
:10314000C67002802D9005F4E0FCA3E0FDA3E0FE34
:10315000A3E02401FFE43EFEE43DFDE43CFCA3E0EB
:10316000F8A3E0F9A3E0FAA3E0FBC31208C66002EB
:1031700001D49005F4E0FCA3E0FDA3E0FEA3E0FF92
:1031800022C0E0C0F0C083C082C0D075D000C000B3
:10319000C001C002C003C004C005C006C00790053E
:1031A000F1E5A7F075A70075B7559005F0E5B6F005
:1031B00075B70030993DC2999000A3E004F09000EB
:1031C000A2E0FFA3E0C39F502411D49000AE1209E7
:1031D000199000A3E0247EF582E43401F583E0FF3A
:1031E00030D004D29B8002C29B8F99800690009FB2
:1031F0007408F030980BC298AF99AD07E4FF120144
:103200009675B7559005F0E0F5B675B700A3E0F5F3
:10321000A7D007D006D005D004D003D002D001D06B
:1032200000D0D0D082D083D0F0D0E0329004B0E093
:10323000FCA3E0FDA3E0FEA3E0FF90060012091945
:103240009004ACE0FCA3E0FDA3E0FEA3E0FF900649
:1032500004120919E4FFFEFDFC900604E0F8A3E067
:10326000F9A3E0FAA3E0FBC31208C6703074FFFFB5
:10327000FEFDFC900600E0F8A3E0F9A3E0FAA3E06D
:10328000FBC31208C66043E4FFFEFDFC900600E0AD
:10329000F8A3A3A3E0C31208C67002802D90060015
:1032A000E0FCA3E0FDA3E0FEA3E02401FFE43EFE7A
:1032B000E43DFDE43CFCA3E0F8A3E0F9A3E0FAA3BD
:1032C000E0FBC31208C66002412C900600E0FCA39C
:1032D000E0FDA3E0FEA3E0FF22C0E0C0F0C083C099
:1032E00082C0D075D000C000C001C002C003C004BD
:1032F000C005C006C0079005FDE5A7F075A70075DD
:10330000B7559005FCE5B6F075B70030D93DC2D988
:1033100090024AE004F0900249E0FFA3E0C39F500E
:1033200024512C90025512091990024AE02425F5E7
:1033300082E43403F583E0FF30D004D2DB8002C2A4
:10334000DB8FD980069002467408F030D80BC2D8C3
:10335000AFD9AD077F0112019B75B7559005FCE011
:10336000F5B675B700A3E0F5A7D007D006D005D015
:1033700004D003D002D001D000D0D0D082D083D0EE
:10338000F0D0E032E0FCA3E0FDA3E0FEA3E0FF907C
:10339000060F12091990060FE0FCA3E0FDA3E0FE62
:1033A000A3E0FFA3E0F8A3E0F9A3E0FAA3E0FBC3E6
:1033B0001208C6900613E0503DF8C000C001C002DC
:1033C000C00390060FE0F8A3E0F9A3E0FAA3E0FB46
:1033D000C374FF9BFF74FF9AFE74FF99FD74FF98FE
:1033E000FCD003D002D001D000EB2FFFEA3EFEE973
:1033F0003DFDE83C8024FCA3E0FDA3E0FEA3E0FF4C
:1034000090060FE0F8A3E0F9A3E0FAA3E0FBC3EF16
:103410009BFFEE9AFEED99FDEC98FCA31209199022
:103420000617E0FCA3E0FDA3E0FEA3E0FF90061377
:10343000E0F8A3E0F9A3E0FAA3E0FBC31208C67F1B
:103440000140027F0022F0A3EAF0A3E9F0A3740494
:10345000F07B017A057983900985EBF0A3EAF0A36C
:10346000E9F0E490098CF090098BE0FFA3E0FEC343
:103470009F5047EEFD900985E0FBA3E0FAA3E07EB4
:10348000002FF9EE3AFAE924FFF9EA34FFFAC3E92A
:103490009DF9EA9400FA12064EFF900988E0FBA31A
:1034A000E0FAA3E0F990098CE0F582758300EF1251
:1034B00006D990098CE004F080AD22900720EBF053
:1034C000A3EAF0A3E9F0E4FFEFC39D5028900720A2
:1034D000E0FBA3E0FAA3E0F98F8275830012066790
:1034E000FE540FD394095007EE54F0949040037F9C
:1034F00001220F80D37F0022900626E0FF7E007C11
:10350000017DA71206FB74982FF974013EFA7B0126
:10351000900668E07E0029F9EE3AFA7D04900720D3
:10352000EBF0A3EAF0A3E9F0A3EDF0E4A3F0900739
:1035300023E0FFC313FEA3E0C39E5078900720E072
:10354000FBA3E0FAA3E0F9900724E0FEF58275837F
:1035500000120667900725F0EF24FFFDE434FFFC1E
:10356000EEFFC3ED9FFFEC94008F82F58312066798
:10357000FF900724E0F582758300EF1206D99007CB
:1035800025E0FF900723E024FFFDE434FFFCA3E0E7
:10359000FBC3ED9BFDEC9400FC900720E0FBA3E057
:1035A000FAA3E0F98D828C83EF1206D9900724E00C
:1035B00004F0A12E22900626E0FF7E007C017DA76C
:1035C0001206FB74902FF974013EFA7B0190066F8E
:1035D000EBF0A3EAF0A3E9F012064EFF24A9F5826E
:1035E000E43404F583E0C39403401074A92FF582FA
:1035F000E43404F5837403F07F01227B017A0679B9
:1036000073E4FD7F12FE121F30BF01037F01229081
:10361000066FE0FBA3E0FAA3E0F912064EFF700686
:10362000900672F0801BEFB401089006727403F0EC
:10363000800FEFB402089006727406F080037F01D9
:1036400022E4FFEF2401FDE433FC90066FE0FBA3CE
:10365000E0FAA3E0F98D828C83120667FE90067271
:10366000E02F2473F582E43406F583E06E603812AF
:10367000064EFE24A9F582E43404F583E004F074D8
:10368000A92EF582E43404F583E0C39403401512B7
:10369000064E25E024CFF582E43404F5837405F06A
:1036A000A374A0F07F01220FEFB4039790066FE0A0
:1036B000FBA3E0FAA3E0F912064E24A9F582E43454
:1036C00004F583E4F0FF2224FEFFE434FFFE9006BD
:1036D00063E0FD7C001206FB90065DE0FBA3E0FAD0
:1036E000A3E02FF9EA3EFA900988EBF0A3EAF0A3F1
:1036F000E9F0900663E090098BF0900666E090098F
:103700008CF0900660E0FBA3E0FAA3E0F990098555
:10371000EBF0A3EAF0A3E9F0E490098DF090098BB7
:10372000E0FF90098DE0FEC39F400302383190090D
:103730008CE06455703A900988E0FBA3E0FAA3E0BE
:10374000F98E82758300120667FD900985E0FBA360
:10375000E0FAA3E0F98E82758300120667FED39D1E
:1037600040037F0022EEC39D40030238287F0122E0
:1037700090098BE024FFFFE434FFFE90098DE0FD0B
:10378000C3EF9DFFEE9400FE900988E0FBA3E0FAF2
:10379000A3E0F98F828E83120667FF90098BE024E5
:1037A000FFFDE434FFFC90098DE0FBC3ED9BFDECD5
:1037B0009400FC900985E0FBA3E0FAA3E0F98D8278
:1037C0008C83120667D39F40037F002290098BE011
:1037D00024FFFFE434FFFE90098DE0FDC3EF9DFF61
:1037E000EE9400FE900988E0FBA3E0FAA3E0F98FD5
:1037F000828E83120667FF90098BE024FFFDE4347C
:10380000FFFC90098DE0FBC3ED9BFDEC9400FC9068
:103810000985E0FBA3E0FAA3E0F98D828C83120610
:1038200067C39F50037F012290098DE004F00237A7
:103830001D7F022212064EFF900638E4F0A3EFF03F
:10384000E0F8E4F0E8900638F0900001120667FF17
:10385000900638E0FEA3E04FFF900638EEF0FEA39E
:10386000EFF02211719007801209197B017A057916
:1038700083900897EBF0A3EAF0A3E9F0A3120925DF
:1038800000000000E490089EF090089AE0FCA3E09D
:10389000FDA3E0FEA3E0FF78081208EA90089A1260
:1038A000091990089AE0F8A3E0F9A3E0FAA3E0FB75
:1038B000C000C001C002C003900897E0FBA3E0FA7B
:1038C000A3E0F990089EE0F582758300120667FF79
:1038D000D003D002D001D000EB4FFFEAFEE9FDE8B3
:1038E000FC90089A12091990089EE004F0E0B404D4
:1038F0009890089AE0FCA3E0FDA3E0FEA3E0FF227D
:10390000900780EBF0A3EAF0A3E9F0E4900788F0D9
:10391000900786E014FF900786E0FEEFC39E40020A
:1039200021F3900783E0FBA3E0FAA3E0F98F82750F
:103930008300120667FE900788E02EFDE49007875B
:10394000F0EDC39E50037401F0E4900788F09007F7
:1039500080E0FBA3E0FAA3E0F98F827583001206F2
:1039600067FE540FFCED540FFBECC39B5034EEC3C9
:103970009D900780E0FB500E8F82758300120667D2
:10398000FEC3749A8037A3E0FAA3E0F98F827583AF
:1039900000120667C39D24FA8F827583001206D930
:1039A0008044900780E0FBA3E0FAA3E0F98F8275E2
:1039B0008300120667FEC39D5015C374A09D2E8F11
:1039C000827583001206D99007887401F0801790E1
:1039D0000780E0FBA3E0FAA3E02FF9E43AFA12062D
:1039E0004EC39D1206C7900787E06004A37401F0E0
:1039F0001F211622900765EBF0A3EAF0A3E9F0ABD4
:103A000005A37401F0A31209250000000190076DC1
:103A100012092500000000E4900771F0EBD3940038
:103A20005002614CEB94054002614CEBF090077141
:103A3000E0D394005002614C90076DE0F8A3E0F9E8
:103A4000A3E0FAA3E0FBC000C001C002C0039007DE
:103A500065E0FBA3E0FAA3E0F9900771E0FF7E00C8
:103A6000E92FF9EE3AFA90FFFF120667540F75F04E
:103A70000A84AFF0E4FCFD900769E0F8A3E0F9A345
:103A8000E0FAA3E0FB12078ED003D002D001D000F1
:103A9000EB2FFFEA3EFEE93DFDE83CFC90076D128E
:103AA0000919900769E0FCA3E0FDA3E0FEA3E0FF95
:103AB000E47B0AFAF9F812078E9007691209199047
:103AC000076DE0F8A3E0F9A3E0FAA3E0FBC000C0B3
:103AD00001C002C003900765E0FBA3E0FAA3E0F990
:103AE000900771E0FF7E00E92FF9EE3AFA90FFFFB0
:103AF00012066754F0C4540FFFE4FCFD900769E020
:103B0000F8A3E0F9A3E0FAA3E0FB12078ED003D0FC
:103B100002D001D000EB2FFFEA3EFEE93DFDE83C7C
:103B2000FC90076D120919900769E0FCA3E0FDA362
:103B3000E0FEA3E0FFE47B0AFAF9F812078E900793
:103B400069120919900771E014F0412D90076DE09A
:103B5000FCA3E0FDA3E0FEA3E0FF22900784EBF0CE
:103B6000A3EAF0A3E9F0900789120919900787E00A
:103B7000A3F0900788E0D394005002814BE47B0AC5
:103B8000FAF9F8A3E0FCA3E0FDA3E0FEA3E0FF1236
:103B90000819AF03900784E0FBA3E0FAA3E0F990D3
:103BA0000788E0FD7C00E92DF9EC3AFA90FFFFEF81
:103BB0001206D9900789E0FCA3E0FDA3E0FEA3E094
:103BC000FFE47B0AFAF9F81208199007891209191B
:103BD000900784E0FBA3E0FAA3E0F9900788E0FFF8
:103BE0007E00E92FF9EE3AFAE924FFF9EA34FFFA08
:103BF000C003C002C00112064EFFC007E47B0AFAF0
:103C0000F9F8900789E0FCA3E0FDA3E0FEA3E0FF44
:103C1000120819AF03EFC454F0FED0E04ED001D02B
:103C200002D0031206C7900789E0FCA3E0FDA3E0E1
:103C3000FEA3E0FFE47B0AFAF9F81208199007895D
:103C4000120919900788E014F06172229006B0EB17
:103C5000F0A3EAF0A3E9F0E49006B7F09006B6E02E
:103C6000FFA3E0FEC39F400281FF9006B0E0FBA3EC
:103C7000E0FAA3E0F98E82758300120667FDC45452
:103C80000F9006B8F0ED540FA3F0E4FF74B82FF5D1
:103C900082E43406F583E0FEC3940A501074B82F12
:103CA000F582E43406F583E02430F08014EEC3940A
:103CB00010500E74B82FF582E43406F583E02437F3
:103CC000F00FEFB402C69006B7E075F002A4FF90C3
:103CD00006B3E0FBA3E0FAA3E02FF9EA35F0FA908F
:103CE00009D3EBF0A3EAF0A3E9F0A37402F07B019F
:103CF0007A0679B81221799006B7E004F0815C2247
:103D0000C0D075D000C006C007AFA775A70075B7B3
:103D100055AEB675B70075AA0075E80075B7558E33
:103D2000B675B7008FA7D007D006D0D032C0D075F7
:103D3000D000C006C007AFA775A70075B755AEB6CF
:103D400075B70053A8F753883F75B7558EB675B74A
:103D5000008FA7D007D006D0D032C0E0C0F0C0831B
:103D6000C082C0D075D000C000C001C002C003C076
:103D700004C005C006C0079005EFE5A7F075A700D1
:103D800075B7559005EEE5B6F075B7005388DF7549
:103D90008AC0758CE0E5C730E607900527E044024D
:103DA000F09004ACE0FCA3E0FDA3E0FEA3E0FFA3E1
:103DB00012091974FFFFFEFDFC9004ACE0F8A3E0CB
:103DC000F9A3E0FAA3E0FBC31208C69004AC501EAE
:103DD000E0FCA3E0FDA3E0FEA3E02401FFE43EFE3F
:103DE000E43DFDE43CFC9004AC1209198007120983
:103DF000250000000075B7559005EEE0F5B675B7E3
:103E000000A3E0F5A7D007D006D005D004D003D09A
:103E100002D001D000D0D0D082D083D0F0D0E03218
:103E2000C0D075D000C006C007AFA775A70075B792
:103E300055AEB675B70053A8DF53C83375B7558E66
:103E4000B675B7008FA7D007D006D0D032C0D075D6
:103E5000D000C006C007AFA775A70075B755AEB6AE
:103E600075B70053A8BF53C11F75B7558EB675B748
:103E7000008FA7D007D006D0D032C0E0C083C08268
:103E8000C0D075D000C005C006C007AFA775A70099
:103E900075B755AEB675B700AD97759700ED30E3C1
:103EA0001D90000AE090000930E205E004F0800E69
:103EB000E0FD900008E02DF0E004F0A3E4F075B719
:103EC000558EB675B7008FA7D007D006D005D0D0D5
:103ED000D082D083D0E032C0E0C083C082C0D07531
:103EE000D000C006C007AFA775A70075B755AEB61E
:103EF00075B70090FFB6E4F090FFB7F053A9FD75D9
:103F0000B7558EB6F5B78FA7D007D006D0D0D082E0
:103F1000D083D0E032C0D075D000C006C007AFA7B4
:103F200075A70075B755AEB675B70053A9DF75C64E
:103F30000075B7558EB675B7008FA7D007D006D0DD
:103F4000D032C0E0C083C082C0D075D000C004C0F1
:103F500006C007ACA775A70075B755AEB675B70014
:103F600090FFD0E054FCF053A9FD75B755AF068F14
:103F7000B675B700AF048FA7D007D006D004D0D055
:103F8000D082D083D0E032900536E0FF22900CE35F
:103F90007401F022900CDFE4F0900CE0E4F090FF6C
:103FA000E8E0FFEF4480FF90FFE8EFF090FFE8E0EB
:103FB000FFEF54BFFF90FFE8EFF053EC7F900CE071
:103FC000E4F0900CE0E0FFEFC394085033F18D90E3
:103FD0000CDFE0FFEF25E0FF900CDFEFF043EC801B
:103FE000E5EC30E60E900CDFE0FFEF4401FF900CB3
:103FF000DFEFF0F18D53EC7F900CE0E004F080C235
:1040000090FFE8E0FFEF4440FF90FFE8EFF043EC63
:104010004043EC801200EC53EC7F900CDFE0FF2279
:1040200090FF84E0FFEF54FFFF90FF84EFF090FFDC
:1040300085E0FFEF54FEFF90FF85EFF090FFE9E091
:10404000FFEF4401FF90FFE9EFF053EDFE22112056
:1040500090FFE8E0FFEF4440FF90FFE8EFF043EC13
:104060004090FFE8E0FFEF4480FF90FFE8EFF0436F
:10407000EC801200EC53ECBF1200EC53EC7F22906A
:104080000CA9EEF0A3EFF0900CABEBF0A3EAF0A3D9
:10409000E9F0900CB4E4F0900CAEE0FFEF600B9010
:1040A0000CAEE0FFEFD3942040037F0122900CA9D7
:1040B000E0FEA3E0FFD3EF94FFEE940140037F0105
:1040C00022900CAEE0FF7E00900CA9E0FCA3E0FD86
:1040D000EF2DFFEE3CFED3EF94FFEE9400401390E3
:1040E0000CA9E0FEA3E0FFD3EF94FFEE9400500292
:1040F00021C4114E900CAEE0FF7E00900CA9E0FCB4
:10410000A3E0FDEF2DFFEE3CFED3EF94FFEE940015
:104110005006900CB474A0F0900CA9E0FEA3E0FF50
:10412000D3EF94FFEE94004006900CB474A2F0908C
:104130000CB4E0FF121E76EF6006121E0D7F012206
:10414000900CA9E0FEA3E0FF121E76EF6006121E9F
:104150000D7F0122900CABE0FBA3E0FAA3E0F99005
:104160000CB1EBF0A3EAF0A3E9F0900CAFE4F0A3FC
:10417000E4F0900CAEE0FF7E00900CAFE0FCA3E01A
:10418000FDC3ED9FEC9E5035900CB1E0FBA3E0FA2F
:10419000A3E0F912064EFF121E76EF6006121E0D06
:1041A0007F0122900CB2E475F001120762900CB00E
:1041B000E004F07006900CAFE004F080B5121E0D24
:1041C00031CA80037F01227F0022900CDC74FFF053
:1041D000900CDBE4F0900CDCE0FF900CDBE0FEEEFA
:1041E000C39F5015114E7FA0121E76EF7003021E62
:1041F0000D900CDBE004F080DC22900CC5740EF016
:10420000900CC0EEF0A3EFF0900CC2EBF0A3EAF03C
:10421000A3E9F0900CC0E0FEA3E0FF900CC6EEF026
:10422000A3EFF0900CC0E0FEA3E0FFEF5407FFC344
:1042300074089FFF900CC8EFF0900CC9E4F0900C4C
:10424000C8E0FF900CC5E0FEEEC39F500A900CC57D
:10425000E0FF900CC8EFF0900CC6E0FEA3E0FF90EA
:104260000CC2E0FBA3E0FAA3E0F9900CC9E0FD7CEE
:1042700000E92DF9EA3CFA900CC8E0FD900CAEED97
:10428000F0117FEFB401037F0122900CC8E0FF9092
:104290000CC9E02FF0900CC9E0FF7E00900CC0E04C
:1042A000FCA3E0FDEF2DFFEE3CFE900CC6EEF0A36C
:1042B000EFF0900CC9E0FF900CC5E0FEC3EE9FFF4D
:1042C000900CC8EFF0900CC8E0FFEFD394084006C4
:1042D000900CC87408F0900CC8E0FFEF60024157E2
:1042E0007F0022900CDDE4F0900CDE7408F090FF6B
:1042F000E8E0FFEF4480FF90FFE8EFF090FFE8E098
:10430000FFEF54BFFF90FFE8EFF053EC7F900CDE1F
:10431000E4F0900CDEE0FFEFC39408503F123F8DB5
:10432000900CDDE0FFEF25E0FF900CDDEFF043ECBB
:1043300080E5EC30E60E900CDDE0FFEF4401FF90ED
:104340000CDDEFF0123F8D900CDDE0FF900CDDEF07
:10435000F053EC7F900CDEE004F080B690FFE8E0D4
:10436000FFEF4440FF90FFE8EFF053ECBF43EC80D9
:104370001200EC53EC7F43EC40900CDDE0FF229008
:104380000CCAEEF0A3EFF0900CCCEDF0900CCDEB5E
:10439000F0C2AF900CCCE0FF8FEF900CCAE0FEA310
:1043A000E0FFEF54FFF5EE900CCAE0FEA3E0FFEE55
:1043B000FF7E008FF775A70175F26E75F30575F432
:1043C0000A75F509900CCDE0FFEFB4680775F606A5
:1043D0000000000075A70075F700D2AF2290098594
:1043E000EEF0A3EFF0A3EBF0A3EAF0A3E9F075E79A
:1043F0005575C7840000E5C730E6037FFF229005AE
:1044000035E0646860037FFF2290098AE0FEA3E044
:10441000FF900986E02FFF900985E03EFED3EF94E0
:1044200000EE941040037FFF22D390098BE09400AC
:1044300090098AE094004045900987E0FBA3E0FAE8
:10444000A3E0F912064EFC900985E0FEA3E0FFAD63
:10445000047B68717F900986E004F07006900985FE
:10446000E004F0900988E475F00112076290098B6E
:10447000E024FFF090098AE034FFF080AC7F002256
:104480008F828E83E4FFEDB4680DC2AF75A701E49F
:1044900093FFE4F5A7D2AF22900535E04420F07BEE
:1044A000017A077985900781E0FCA3E0FD90098AF5
:1044B0007402F0A3E4F0900988ECF0A3EDF075E746
:1044C0005575C7840000E5C730E6037FFF229009D9
:1044D0008AE0FEA3E0FF900989E02FFF900988E0C1
:1044E0003EFED3EF9400EE941040037FFF22D39062
:1044F000098BE0940090098AE09400403590098887
:10450000E0FEA3E0FF7D689180EF1206C7740129E9
:10451000F9E43AFA900989E004F07006900988E01D
:1045200004F090098BE024FFF090098AE034FFF05A
:1045300080BC7F0022E0FEA3E0FF7B68E4FD900CDE
:10454000CEEEF0A3EFF0900CD0EDF0900CD1EBF0AC
:1045500075E75575C7840000E5C720E65590053519
:10456000E0FFEF6468704BC2AF900CD0E0FF8FEFBC
:10457000900CCEE0FEA3E0FFEF54FFF5EE900CCEE2
:10458000E0FEA3E0FFEEFF7E008FF775A70175F256
:10459000E675F30575F40A75F509900CD1E0FFEFA7
:1045A000B4680775F6060000000075A70075F700EF
:1045B000D2AF2290FFE5E054FBF090FFF5E0440419
:1045C000F022B1B3E5E920E2299004A4E004F07000
:1045D000069004A3E004F0C39004A4E094FA9004CD
:1045E000A3E09400401AE4F0A3F0900531E0440108
:1045F000F022E49004A3F0A3F0900531E054FEF023
:104600002290FFE2E054FBF090FFF2E04404F0223D
:10461000D101900532E030E215E5A030E202C1AFF1
:10462000E04401F0E054FBF0E4900458F0229005DF
:1046300032E030E061E5A020E26A900458E004F046
:10464000E0FF7408D39F5067900532E04402F0E029
:1046500054FEF0E4900458F0900530E04408F090E7
:1046600004541209250000003C90044C741EF09084
:104670000459E0700B900460F09004597468F022C3
:10468000900460E004F090040BE0FF900460E0C34D
:104690009F401CE4F022900532E030E107E5A030B5
:1046A000E20D8000E4900458F09005327404F0228A
:1046B000EF146021047024F11D7FFFD1DC43D18011
:1046C00090FFE1E04408F05390F790FFE9E04402E6
:1046D000F053EDFD22F11DE4FFD1DC22E4FE746114
:1046E0002EF582E43404F583EFF00EEEB428EF7F6C
:1046F000007E25E4FD74612DF582E43404F583E049
:10470000FCEF2DF582E43EF583ECF074612DF5822B
:10471000E43404F583E4F00DEDB428D92253D17FBD
:10472000F14190FF8074F0F090FF817403F090FFEE
:104730008274FEF090FF837401F090FF8574FCF0AA
:1047400022E5D154706430600653D18F43D130E5F7
:10475000D154076407600653D1F843D107E5D2541A
:10476000076402600653D2F843D202225380FD0050
:10477000004380042243800200005380FB225380C8
:10478000FD005380FB229004A7E0600FE014F0E0EE
:10479000FF7E00BE0207BF40048000F17E2290072A
:1047A0009DE0FD9007A6EDF0E4FF7E08EF25E0FF19
:1047B000EE7C0024FFF582EC34FFF583120667FDE2
:1047C0009007A6E05D60010FDEE222900799EBF012
:1047D000A3EAF0A3E9F090079D7440F0E490079CF1
:1047E000F090079CE0FFC394085037EFB40404A393
:1047F0007480F0900799E0FBA3E0FAA3E0F9124778
:104800009E90079CE0249EF582E43407F583EFF048
:1048100090079DE0FF1313543FF090079CE004F0D5
:1048200080BF900799E0F9A3E0FAA3E09009D3C90B
:10483000F0A3EAF0A3E9F0A37408F07B017A07790A
:104840009E0221799007AF74FFF0A3740CF0A3745B
:1048500008F0A374FFF0A3740CF0A37440F0A374E9
:1048600007F09007ACEBF0A3EAF0A3E9F0E4F52041
:104870009007B604F09007B5E075F008A42401FF96
:10488000E435F0FEA3E0FDC39FEE6480F8748098E9
:10489000507DE52025E0F520EDFF7E0024FFFDEEB4
:1048A00034FFFC9007AFE0FBA3E0FAA3E0F98D82B0
:1048B0008C83120667FD9007ACE0FBA3E0FAA3E04F
:1048C000F98D82758300120667FDEF24FFFFEE3439
:1048D000FFFE9007B2E0FBA3E0FAA3E0F98F828E1F
:1048E000831206675D600205209007B6E0FF54075B
:1048F0007015EF131313541F24B6F582E43407F533
:1049000083E520F0E4F5209007B6E004F00175900F
:1049100007ACE0F9A3E0FAA3E09009D3C9F0A3EA59
:10492000F0A3E9F09007B5E09009D6F07B017A0793
:1049300079B7022179900799EBF0A3EAF0A3E9F0A7
:104940002404F9E43AFA9009D37401F0A37407F04F
:10495000A374A0F0A37404F01221799007AF74FF40
:10496000F0A3740DF0A37418F0A374FFF0A3740CFB
:10497000F0A374E8F0A37406F07B017A0779A01124
:1049800062E490079FF090079FE0FF24A0F582E487
:104990003407F583C083C082E0FE90079CE0FBA350
:1049A000E0FAA3E0F98F82758300120667FFEE6FCD
:1049B000D082D083F090079FE004F0E0B406C7E413
:1049C00090079FF090079FE0FFC39402400241ECE4
:1049D000E0FE75F003A424A0F582E43407F583E03B
:1049E000FDC45430FCEE75F003A424A1F582E43438
:1049F00007F583E0C4540F4CF520ED1313543FFE2C
:104A000090079FE0FD75F000A42488F582E5F0345E
:104A10000DF583ED2583F583E5822EF582E435835C
:104A2000F583E493FE75F000EDA424C8F582E5F06B
:104A3000340DF583ED2583F583E5822520F582E4A9
:104A40003583F583E493FDEE4DFE90079FE0FD2551
:104A5000E024A8F582E43407F583EEF0ED75F00369
:104A6000A424A1F582E43407F583E025E025E05491
:104A70003FFEED75F003A424A2F582E43407F5832C
:104A8000E0FDC4131354034EF520ED543FFE900790
:104A90009FE0FD75F000A42448F582E5F0340EF5A2
:104AA00083ED2583F583E5822EF582E43583F58356
:104AB000E493FE75F000EDA42408F582E5F0340ED1
:104AC000F583ED2583F583E5822520F582E43583A2
:104AD000F583E4934EFEEF25E024A9F582E4340744
:104AE000F583EEF090079FE004F021C49007AF74C7
:104AF000FFF0A3740DF0A37468F0A374FFF0A37427
:104B00000DF0A37448F0A37404F07B017A0779A830
:104B10001162E490079FF090079FE0FFC394045058
:104B20005B7E00EF2404FDEE33FC900799E0FBA3CD
:104B3000E0FAA3E0F98D828C83120667F5209007D6
:104B40009FE0FDF582758300120667FC74A82DF5C1
:104B500082E43407F583E06CFD74042FF582E433BE
:104B6000F583ED1206D990079FE0F582758300E585
:104B7000201206D990079FE004F0809B22900799AD
:104B8000EBF0A3EAF0A3E9F0A3EDF012064E9007D4
:104B90009DF090000112066790079EF090000212AF
:104BA000066790079FF090000312066754F0900785
:104BB000A0F0BD023390079DE0FCA3E0FDA3E0FE62
:104BC000A3E0FF78011208EA90079D1209199007E7
:104BD00099E0FBA3E0FAA3E0F912064E30E7449017
:104BE00007A0E04410F0803B90079DE0FCA3E0FDAF
:104BF000A3E0FEA3E0FF78011208D790079D1209F9
:104C0000199007A0E054F0F0900799E0FBA3E0FAB8
:104C1000A3E0F990000312066730E40790079DE0D7
:104C20004480F0900799E0FBA3E0FAA3E0F990003C
:104C300003120667540F9007A1F090000412066754
:104C40009007A2F09000051206679007A3F090006D
:104C5000061206679007A4F090079CE06402703D7E
:104C60009007A1E0FCA3E0FDA3E0FEA3E0FF780134
:104C70001208EA9007A11209199007A1E0540FF059
:104C8000900799E0FBA3E0FAA3E0F9900003120675
:104C90006730E33D9007A4E04401F080349007A121
:104CA000E0FCA3E0FDA3E0FEA3E0FF78011208D73B
:104CB0009007A1120919900799E0FBA3E0FAA3E07D
:104CC000F990000612066730E0079007A1E044085B
:104CD000F09007A0E0FFA3E0FEEF4E9007A0F09059
:104CE00007A2E09007A1F09007A3E09007A2F09040
:104CF00007A4E09007A3F0900799E0F9A3E0FAA3D6
:104D0000E09009D3C9F0A3EAF0A3E9F0A37407F097
:094D10007B017A07799D022179EB
:10800000EF14602104703BE5876003E4F587539823
:10801000F74398C0E4FF11D6900776E599F053989E
:10802000EC43A81022E5876003E4F58753D8F343B7
:10803000D8C07F0111D6900776E5D9F053D8EC432C
:10804000A90422EF14605104600201D5E5876003A2
:10805000E4F587E598440860035398F7E59854C021
:1080600064C060034398C090FFE2E054BFF090FF0B
:10807000F2E054BFF090FFE2E04480F043A080E4DF
:10808000FF11D6E4FF12019190060FE599F0539885
:10809000FC43981043A81022E5876003E4F587535A
:1080A000D8F343D8C090FFE3E054FEF090FFF3E034
:1080B00054FEF090FFE3E04402F043B0027F011170
:1080C000D67F0112019190060FE5D9F053D8FC43F9
:1080D000D81043A90422EF14602C04704CE59D6471
:1080E000CC6003759DCCE59C647F6003759C7FE547
:1080F0009E540F64016006539EF0439E01E59C2050
:10810000E727439C8022E5DD64F3600375DDF3E53A
:10811000DC647F600375DC7FE59E54F06003539E52
:108120000FE5DC20E70343DC8022E4FF11437F01FD
:1081300011437F0211437F030143E4F5B1F5A8F534
:10814000A912A07312A0C212A10E51E1516A129F8E
:10815000735182312A315CD2AF7F0022E490061144
:10816000F07FAA516F759560E4F596F59753A9FED7
:1081700043B48090064C120925000000E87F33517B
:10818000897F057E0012288590064C120925000083
:108190000C847F325189E4900611F0900611E0FEC4
:1081A00075F005A42443F582E43418F583E493FFC5
:1081B000C007EE75F005A42444F582E43418F58375
:1081C00012090990064C120919D00751899006111D
:1081D000E004F0E0C3942040C27B017A0C7968E4AB
:1081E000FD7F06FE121F30E4900611F0900611E0AC
:1081F000FE75F005A424E3F582E43418F583E493D6
:10820000FFC007EE25E025E02468F582E4340CF594
:1082100083E0FCA3E0FDA3E0FEA3E0FF90064C1288
:108220000919D0075189900611E004F0E0C39405C4
:1082300040BA7F647E0012288590064C1209250002
:108240000000357F3051897F55516F90064C1209DF
:108250002500A000C17F3151897FF47E011228855D
:10826000E4F59775960843A90122E4FF0246B0EFB2
:10827000B4550443958022E4F595F596F59753A9F6
:10828000FE222280EA7FAA80FA90064BEFF0A3E05C
:10829000FCA3E0FDA3E0FEA3E0FFA3120919E4F5AF
:1082A000917F06FE1229D7C2AF900651E0F592A346
:1082B000E0F593A3E0F5940000000000000000004A
:1082C000000000000000000000000000000000901E
:1082D000064BE04480F5917F067E001229D7D2AF8D
:1082E000227B017A05792790098EE4F0A37410F0BF
:1082F000E4FD12269B7B017A0479AC90098EE4F0B0
:10830000A3743AF0E4FD12269B7B017A047908906D
:10831000098EE4F0A37481F0E4FD12269B7B017AC0
:1083200005799190098EE4F0A37410F0E4FD122613
:108330009B7B017A00790890098EE4F0A37408F021
:10834000E4FD12269B7B017A00790090098EE4F00F
:10835000A37408F0E4FD12269B7B017A0479E69071
:10836000098EE4F0A3740AF0E4FD12269B7B017AE7
:108370000479F090098EE4F0A37429F0E4FD12264C
:108380009B7B017A0479A390098EE4F0A37409F031
:10839000E4FD12269B9005347401F012A79112A8F7
:1083A00034128FA512A4EE12A3F2129EAE129DA15A
:1083B000E4900BC9F090052DE054FBF0E490045BD1
:1083C000F0900527E04401F0900530E04403F09080
:1083D0000408E0FF7E007C037DE81206FB7C017D43
:1083E000F412070DE4FCFD900454120919900532B3
:1083F0007404F0900408E090044CF090044DF07B7D
:10840000017A05792AE4FD7F0FFE121F30EF600527
:10841000E490052AF090052AE030E60790052DE06B
:108420004420F0E490077EF0A3F07B017A077965A1
:10843000FD7F11FE121F3090052AE030E56D7B01B3
:108440007A077975123863900784120919900784A6
:10845000E0FCA3E0FDA3E0FEA3E0FFEC4D4E4F6087
:1084600037900780E0F8A3E0F9A3E0FAA3E0FBC3AC
:108470001208C6400F90077E7401F090052AE03084
:10848000E4298021E490077EF0A3F090052AE054CF
:10849000DFF0E054EFF0801390077E7401F0900558
:1084A0002AE030E40690077F7401F07B017A0779B7
:1084B00065123863900784120919900784E0FCA3C1
:1084C000E0FDA3E0FEA3E0FF900780E0F8A3E0F961
:1084D000A3E0FAA3E0FBC31208C65002A1E3900593
:1084E0002EE04401F07B017A077969123871900718
:1084F00080120919900784E0FCA3E0FDA3E0FEA32D
:10850000E0FF900780E0F8A3E0F9A3E0FAA3E0FB26
:10851000C31208C65002A1DA90052EE020E104E063
:108520004402F0E4FFFEFDFC900784E0F8A3E0F9CC
:10853000A3E0FAA3E0FBC31208C66002A1C4900541
:108540002EE020E204E04404F07B017A05798912F0
:108550003871900780120919E4FFFEFDFC90078036
:10856000E0F8A3E0F9A3E0FAA3E0FBC31208C660B9
:108570000D90052EE020E30DE04408F08007900503
:108580002EE054F7F07B017A077971123871900769
:1085900084120919900784E0FCA3E0FDA3E0FEA388
:1085A000E0FF900780E0F8A3E0F9A3E0FAA3E0FB86
:1085B000C31208C690052AE040054420F0803254DA
:1085C000DFF0802D90052EE054F7F090052AE0545E
:1085D000DFF090052EE054FB800F90052EE054E173
:1085E000F0800E90052EE054E0F090052AE054EF64
:1085F000F090077EE0B4010790052AE04420F09057
:10860000077FE0B4010790052AE04410F090052AA6
:10861000E030E504E04410F07B017A05792AE4FDBE
:108620007F0FFE021A61900649EFF0C007900645E1
:10863000E0FCA3E0FDA3E0FEA3E0FF90064C1209DE
:1086400019D0075189900649E0B43618900645E0E4
:10865000FCA3E0FDA3E0FEA3E0FF90064C12091985
:108660007F365189E490064AF090064AE0FFC394B1
:10867000055052EF75F005A424E3F582E43418F5B3
:1086800083E493FF900649E0FEEFB506309006457F
:10869000E0FCA3E0FDA3E0FEA3E0FF90064AE02596
:1086A000E025E02468F582E4340CF5831209197B97
:1086B000017A0C7968E4FD7F06FE021A6190064A91
:1086C000E004F080A42212AB0212AB0D12AB1C51DD
:1086D000857F010246B0900527E030E14ED1C6907B
:1086E0000527E030E20A12AAB1900527E054FBF01A
:1086F000E4900608F07F0A7E0012288512A0A7BF2A
:108700000109900527E04402F0F137E4F5B1900645
:1087100008E004F0E0C3940A40DB900527E020E184
:1087200008E054FDF0E04401F0313A900527E020E4
:10873000E204E04404F022F148D1C612AAFF12AAD2
:108740009012AB0012AB012290FFE0E054FDF0E08C
:1087500054FBF0E054F7F0E0547FF090FFF0E05469
:10876000FDF0E054FBF0E054F7F0E0547FF053806C
:10877000FD5380FB5380F753807F90FF88E054FDCA
:10878000F0E054FBF0E054F7F0E0547FF090FF8B02
:10879000E054FDF0E054FBF0E054F7F0E0547FF0DB
:1087A00090FF8EE054FDF0E054FBF0E054F7F0E071
:1087B000547FF090FFFAE054FDF0E054FBF0E054F9
:1087C000F7F0E0547FF090FFE1E054FEF0E054F762
:1087D000F0E054EFF090FFF1E054FEF0E054F7F0D9
:1087E000E054EFF05390FE5390F75390EF90FFE278
:1087F000E054FBF0E054BFF0E0547FF090FFF2E073
:1088000054FBF0E054BFF0E0547FF053A0FB53A0C2
:10881000BF53A07F90FF89E054FBF0E054BFF0E02D
:10882000547FF090FF8DE054FBF0E054BFF0E05433
:108830007FF090FF8FE054FBF0E054BFF0E0547FF6
:10884000F090FFFBE054FBF0E054BFF0E0547FF009
:1088500090FFE3E054FEF0E054FDF0E054EFF0E070
:1088600054DFF0E054BFF090FFF3E054FEF0E0542A
:10887000FDF0E054EFF0E054DFF0E054BFF053B00F
:10888000FE53B0FD43B01053B0DF53B0BF90FF8A2A
:10889000E054FEF0E054FDF0E054EFF0E054DFF07F
:1088A000E054BFF090FFE4E054EFF0E054DFF0E07C
:1088B00054BFF0E0547FF090FFF4E054EFF0E05448
:1088C000DFF0E054BFF0E0547FF053C0EF53C0DF5F
:1088D00053C0BF53C07F90FFE5E054FEF0E054FD6D
:1088E000F0E054FBF0E054F7F0E054EFF0E054DF38
:1088F000F0E054BFF0E0547FF090FFF5E054FEF05C
:10890000E054FDF0E054FBF0E054F7F0E054EFF0F9
:10891000E054DFF0E054BFF0E0547FF053E9FE5341
:10892000E9FD53E9FB53E9F753E9EF53E9DF53E975
:10893000BF53E97F90FFE6E054FDF0E054FBF0E028
:1089400054F7F0E054EFF0E054DFF0E054BFF0E013
:10895000547FF090FFF6E054FDF0E054FBF0E0545B
:10896000F7F0E054EFF0E054DFF0E054BFF0E054F3
:108970007FF053EAFD53EAFB53EAF753EAEF53EA79
:10898000DF53EABF53EA7F90FFE7E054FEF0E05484
:10899000FDF0E054DFF090FFF7E054FEF0E054FD0E
:1089A000F0E054DFF053EBFE53EBFD53EBDF90FFB1
:1089B000E8E054BFF0E0547FF090FFF8E054BFF0DF
:1089C000E0547FF053ECBF53EC7F90FFE9E054FE9E
:1089D000F0E054FDF0E054FBF0E054F7F0E054EF29
:1089E000F0E054DFF0E054BFF0E0547FF090FFF986
:1089F000E054FEF0E054FDF0E054FBF0E054F7F0FA
:108A0000E054EFF0E054DFF0E054BFF0E0547FF0CA
:108A100053EDFE53EDFD53EDFB53EDF753EDEF53E7
:108A2000EDDF53EDBF53ED7F22900628EFF0E49089
:108A30000637F0900628E0FF75F0A7A4248CF58295
:108A4000E5F03401F583EF2583F583E0FFE4FCFDD9
:108A5000FE900633120919900633E0F8A3E0F9A35B
:108A6000E0FAA3E0FBC000900628E0FF75F0A7A4A1
:108A7000248DF582E5F03401F583EF2583F583E05D
:108A8000FFE4FCFDFE78081208EAD000EB4FFFEA95
:108A90004EFEE94DFDE84CFC900633120919900694
:108AA00033E0F8A3E0F9A3E0FAA3E0FBC0009006EE
:108AB00028E0FF75F0A7A4248EF582E5F03401F5D7
:108AC00083EF2583F583E0FFE4FCFDFE78101208B8
:108AD000EAD000EB4FFFEA4EFEE94DFDE84CFC907A
:108AE0000633120919900633E0F8A3E0F9A3E0FA7F
:108AF000A3E0FBC000900628E0FF75F0A7A4248F38
:108B0000F582E5F03401F583EF2583F583E0FFE49A
:108B1000FCFDFE78181208EAD000EB4FFFEA4EFE8B
:108B2000E94DFDE84CFC900633120919900628E047
:108B3000FD75F0A7A4248DF582E5F03401F583EDF1
:108B40002583F583E0FF900629E4F0A3EFF0E07FB2
:108B500000FE900629F0A3EFF075F0A7EDA4248C99
:108B6000F582E5F03401F583ED2583F583E0FDED35
:108B7000FF900629EEF0A3EFF0900628E0FF75F0D5
:108B8000A7A4248AF582E5F03401F583EF2583F567
:108B900083E0642E6002814E900629E0FEA3E0FF90
:108BA000B1EE90062B12091990062BA3A3A3E0FFA8
:108BB000900628E0FB75F0A7A42490F582E5F03438
:108BC00001F583EB2583F583EFF090062BE0FCA302
:108BD000E0FDA3E0FEA3E0FF78081208D775F0A738
:108BE000EBA42491F582E5F03401F583EB2583F5C0
:108BF00083EFF090062BE0FCA3E0FDA3E0FEA3E0F2
:108C0000FF78101208D7900628E0FB75F0A7A4247F
:108C100092F582E5F03401F583EB2583F583EFF0DF
:108C200090062BE0FCA3E0FDA3E0FEA3E0FF781894
:108C30001208D775F0A7EBA42493F582E5F0340170
:108C4000F583EB2583F583EFF0E4900637F090068B
:108C500028E0FF75F0A7A4248AF582E5F03401F539
:108C600083EF2583F583E0642F6002A1D975F0A717
:108C7000EFA4249BF582E5F03401F583EF2583F51D
:108C800083E0FFE4FCFDFE78181208EA90062F123C
:108C9000091990062FE0F8A3E0F9A3E0FAA3E0FB9E
:108CA000C000900628E0FF75F0A7A4249AF582E59D
:108CB000F03401F583EF2583F583E0FFE4FCFDFE4E
:108CC00078101208EAD000EB4FFFEA4EFEE94DFDA6
:108CD000E84CFC90062F12091990062FE0F8A3E04B
:108CE000F9A3E0FAA3E0FBC000900628E0FF75F0CE
:108CF000A7A42499F582E5F03401F583EF2583F5E7
:108D000083E0FFE4FCFDFE78081208EAD000EB4F98
:108D1000FFEA4EFEE94DFDE84CFC90062F120919C2
:108D200090062FE0F8A3E0F9A3E0FAA3E0FB900699
:108D300028E0FF75F0A7A42498F582E5F03401F54A
:108D400083EF2583F583E0FFEB4FFFEAFEE9FDE8C3
:108D5000FC90062F120919900628E0FF75F0A7A4D1
:108D6000248EF582E5F03401F583EF2583F583E069
:108D7000602E14605414604824FB60030470549007
:108D8000062FE0FCA3E0FDA3E0FEA3E0FF90064574
:108D9000120919900629E0FEA3E0FF128626803909
:108DA000900628E0FF75F0A7A4248CF582E5F03446
:108DB00001F583EF2583F583E0701812B09C8019CC
:108DC000900628E0FFF1A78010900628E0FF12B27D
