:020000040000FA
:09000000020F5C023FC222222221
:0F000B00024006EF240A83900100730A2D507300
:03001B00023FE4BD
:03002300022A03AB
:03002B000240BFD1
:030033000240E1A7
:03003B000241037C
:0300430002415522
:10004B00022B4EE4FFFE12064E600C0FEF70010EFA
:10005B0009E970F20A80EF22024188121EB01239B0
:04006B005D021EF71D
:100073000241AA9009C21208FD7810EC4D4E4F7050
:10008300047CA57DA5C3EC13FCED13FDEE13FEEF7D
:1000930013FF5010EC64CCFCED644CFDEE644EFE9B
:1000A300EF64CEFFD8DF9009C2120919EE547FFE28
:1000B300229009C2EEF0EFA3F0A374A5F0A3F022FF
:1000C300300100000C0333020012300004002C3412
:1000D3000006000E1D0008000C1E000A000C0002A2
:1000E300060A0E05020404040401020A0B090304B0
:0700F30001020A0B090304DE
:10010000C0087401C0E0C082C08375080AC0F085D1
:10011000A8F0C2AF75B75575B61175B70085F0A8D0
:10012000D0F022C0087401C0E0C082C08375082DE1
:10013000C0F085A8F0C2AF75B75575B61175B70098
:1001400085F0A8D0F022C0087401C0E0C082C0834E
:10015000750850C0F085A8F0C2AF75B75575B622C6
:1001600075B70085F0A8D0F022C0087401C0E0C0C7
:1001700082C083750873C0F085A8F0C2AF75B7550B
:1001800075B63375B70085F0A8D0F02290800021B5
:100190004690829821469083A421469086EC214681
:1001A0009086D5214690BCC9214690BD1E2146901F
:1001B000D24E214690A806212390813A212390B067
:1001C00086212390804321239080002123909681D3
:1001D000212390AE6921239098AD2123908F072190
:1001E0002390A09E21239085F721239083F421233F
:1001F000909000212390B93F212300020543E86439
:1002000080F8E933E83360110460F0ED33EC3370CB
:1002100009E8FCE9FDEAFEEBFF220460DED3EB9F78
:10022000EA9EE99DE8C2E78CF0C2F795F0400CE841
:10023000CCF8E9CDF9EACEFAEBCFFB12050E85D06A
:10024000F05804700320D5B3E80470075002B2D50B
:1002500002054D92D5EC0460F7E4CCC0E0C398F8F9
:10026000603B94186008400DD0E0FB020525E4FBDC
:10027000FAC9FC8028E830E406E4C9FBE4CAFCE8DB
:1002800030E305E4C9CACBFCE854076010F8C3E9C1
:1002900013F9EA13FAEB13FBEC13FCD8F130F52F4A
:1002A000C3E49CFCEF9BFFEE9AFEED99FDD0E0FBD2
:1002B000EF4E4D4C701222DB0302054AEC2CFCEF92
:1002C00033FFEE33FEED33FDED30E7EB020525EFB6
:1002D0002BFFEE3AFEED39FDD0E0FB50130BBB00D7
:1002E0000302054DED13FDEE13FEEF13FFEC13FCBF
:1002F000020525EC4D6011E8497017ED33EC33042D
:10030000600DE4FCFFFEFD22E933E8330470F802DF
:10031000054312050E58046009E4CC2481500628D8
:10032000500902054D28400302054AC0E0EB4A701F
:1003300044B98006D0E0FB020539EF4E701CBD8049
:1003400008EBFFEAFEE9FD80EBE98DF0A4FEE5F0A5
:100350000203DCE9CDF9EAFEEBFFEF89F0A4FCE54E
:10036000F0CE89F0A42EFFE435F0CD89F0A42DFE67
:10037000E435F08067EF4E7005BD80D780C3EF8B0A
:10038000F0A4ACF0EE8BF0A42CFCE435F0F8EF8A8E
:10039000F0A42CE5F038FCE433CB8DF0A42CFCE584
:1003A000F03BF8EE8AF0A42CFCE5F038F8E433CF0B
:1003B00089F0A42CFCE5F038CF3400CE89F0A42FCE
:1003C000FFE5F03EFEE433C98DF0A42EFEE5F039E2
:1003D000CD8AF0A42FFFE5F03EFEE43DFD33D0E0F2
:1003E000FB50070BBB000F02054DEC2CFCEF33FF5D
:1003F000EE33FEED33FD02052502054DEC5D046094
:1004000005E85904700302054312050E580460F60E
:10041000EC4860F2EC7004FDFEFF22C860DB248132
:10042000C85009C3986002500602054A9850CAF5A0
:1004300082E9294B4A7005AB8202053975F0007CD0
:100440001A7880C3EF9BEE9AED99400DC3EF9BFFA6
:10045000EE9AFEED99FDE842F0DC23ACF0D0E0FF2F
:10046000D0E0FED0E0FDAB8220E7101BEB60BAECE1
:100470002CFCEF33FFEE33FEED33FD020525E803E0
:10048000F830E705C0F075F000EF2FFFEE33FEED1A
:1004900033FD40B830E7C280AA75F020800E75F0B9
:1004A00010800575F0087D007E007F003392D53006
:1004B000D5031208B8EC334010EF33FFEE33FEEDF6
:1004C00033FDEC33FCD5F0ED22E5F0247EA2D5130C
:1004D000CC92E7CDCEFF22EDD2E7CD33EC3392D5EF
:1004E00024814006E4FFFEFDFC22FCE4CFCECDCC0F
:1004F00024E0501174FF80EDC3CC13CCCD13CDCECE
:1005000013CECF13CF0470F030D5DE0208B8E9D295
:10051000E7C933E833F892D5EDD2E7CD33EC33FCBD
:100520005002B2D522EC30E7100FBF000C0EBE0017
:10053000080DBD00040BEB6014A2D5EB13FCED928B
:10054000E7FD2274FFFCFDFEFF22E480F8A2D574D3
:10055000FF13FC7D80E480EFE709F608DFFA8046B0
:10056000E709F208DFFA803E88828C83E709F0A36E
:10057000DFFA8032E309F608DFFA8078E309F2084F
:10058000DFFA807088828C83E309F0A3DFFA80644D
:1005900089828A83E0A3F608DFFA805889828A83F9
:1005A000E0A3F208DFFA804C80D280FA80C680D4C3
:1005B000806980F28033801080A680EA809A80A8CB
:1005C00080DA80E280CA803389828A83ECFAE493FD
:1005D000A3C8C582C8CCC583CCF0A3C8C582C8CC8B
:1005E000C583CCDFE9DEE7800D89828A83E493A3AB
:1005F000F608DFF9ECFAA9F0EDFB2289828A83EC98
:10060000FAE0A3C8C582C8CCC583CCF0A3C8C58214
:10061000C8CCC583CCDFEADEE880DB89828A83E44C
:1006200093A3F208DFF980CC88F0EF60010E4E60F2
:10063000C388F0ED2402B4040050B9F582EB240223
:10064000B4040050AF23234582239005A873BB0157
:100650000689828A83E0225002E722BBFE02E3225F
:1006600089828A83E49322BB010CE58229F582E525
:10067000833AF583E0225006E92582F8E622BBFEA4
:1006800006E92582F8E222E58229F582E5833AF53A
:1006900083E49322BB010FF8E58229F582E5833AD2
:1006A000F583E028F0225009C58229F8E58226F674
:1006B00022BBFE09C58229F8E22582F222F8EA254A
:1006C00083F583E9932822BB010689828A83F0227D
:1006D0005002F722BBFE01F322F8BB010DE582298F
:1006E000F582E5833AF583E8F0225006E92582C8D1
:1006F000F622BBFE05E92582C8F222EF8DF0A4A800
:10070000F0CF8CF0A428CE8DF0A42EFE22BC000BDE
:10071000BE0029EF8DF084FFADF022E4CCF875F037
:1007200008EF2FFFEE33FEEC33FCEE9DEC98400516
:10073000FCEE9DFE0FD5F0E9E4CEFD22EDF8F5F0DC
:10074000EE8420D21CFEADF075F008EF2FFFED33E4
:10075000FD4007985006D5F0F222C398FD0FD5F062
:10076000EA22C5F0F8A3E028F0C5F0F8E58215828A
:1007700070021583E038F022A3F8E0C5F025F0F010
:10078000E582158270021583E0C838F0E822E88F10
:10079000F0A4CC8BF0A42CFCE98EF0A42CFC8AF005
:1007A000EDA42CFCEA8EF0A4CDA8F08BF0A42DCC07
:1007B0003825F0FDE98FF0A42CCD35F0FCEB8EF060
:1007C000A4FEA9F0EB8FF0A4CFC5F02ECD39FEE446
:1007D0003CFCEAA42DCE35F0FDE43CFC2275F0088B
:1007E000758200EF2FFFEE33FECD33CDCC33CCC579
:1007F0008233C5829BED9AEC99E58298400CF58294
:10080000EE9BFEED9AFDEC99FC0FD5F0D6E4CEFB05
:10081000E4CDFAE4CCF9A88222B800C1B90059BAF3
:10082000002DEC8BF084CFCECDFCE5F0CBF9781821
:10083000EF2FFFEE33FEED33FDEC33FCEB33FB101B
:10084000D703994004EB99FB0FD8E5E4F9FA227835
:1008500018EF2FFFEE33FEED33FDEC33FCC933C947
:1008600010D7059BE99A4007EC9BFCE99AF90FD851
:10087000E0E4C9FAE4CCFB2275F010EF2FFFEE3371
:10088000FEED33FDCC33CCC833C810D7079BEC9AB0
:10089000E899400AED9BFDEC9AFCE899F80FD5F039
:1008A000DAE4CDFBE4CCFAE4C8F922CFF4CFCEF4FD
:1008B000CECDF4CDCCF4CC22C3E49FFFE49EFEE485
:1008C0009DFDE49CFC22EB9FF5F0EA9E42F0E99D41
:1008D00042F0E89C45F022E8600FECC313FCED13F6
:1008E000FDEE13FEEF13FFD8F122E8600FEFC333E4
:1008F000FFEE33FEED33FDEC33FCD8F122E0FCA338
:10090000E0FDA3E0FEA3E0FF22E493FC740193FD6D
:10091000740293FE740393FF22ECF0A3EDF0A3EEB8
:10092000F0A3EFF022A8828583F0D083D082120951
:100930003C12093C12093C12093CE473E493A3C540
:1009400083C5F0C583C8C582C8F0A3C583C5F0C5FB
:1009500083C8C582C822D083D082F8E49370127411
:100960000193700DA3A393F8740193F5828883E437
:10097000737402936860EFA3A3A380DFD083D08257
:10098000E4937012740193700DA3A393F874019310
:10099000F5828883E4737402936C70127403936D10
:1009A000700C7404936E70067405936F60DDA3A3DE
:1009B000A3A3A3A380CAE3F5F009E208B5F06D6034
:1009C0006B80F3E3F5F009E608B5F060605E80F354
:1009D00087F009E608B5F054605280F487F009E228
:1009E00008B5F048604680F488828C8387F009E07F
:1009F000A3B5F038603680F488828C8387F009E4F0
:100A000093A3B5F027602580F388828C83E3F5F00B
:100A100009E0A3B5F016601480F388828C83E3F5B7
:100A2000F009E493A3B5F004600280F2020AE180C9
:100A30008580E7808E80D2803C8015806C807E80AF
:100A40009B80B5808B80A1804F8070803A020AED38
:100A500089828A83ECFAE493F5F0A3C8C582C8CCF6
:100A6000C583CCE493A3C8C582C8CCC583CCB5F0FC
:100A700070606E80E189828A83E493F5F0A3E208D6
:100A8000B5F05E605C80F289828A83E0F5F0A3E6CF
:100A900008B5F04D604B80F389828A83E0F5F0A3BE
:100AA000E208B5F03C603A80F389828A83E493F5EA
:100AB000F0A3E608B5F02A602880F2805389828A84
:100AC00083ECFAE493F5F0A3C8C582C8CCC583CC07
:100AD000E0A3C8C582C8CCC583CCB5F00460028051
:100AE000E27FFFB5F0020F2240027F012289828A55
:100AF00083ECFAE0F5F0A3C8C582C8CCC583CCE08E
:100B0000A3C8C582C8CCC583CCB5F0D560D380E37B
:100B100089828A83ECFAE0F5F0A3C8C582C8CCC507
:100B200083CCE493A3C8C582C8CCC583CCB5F0B14F
:100B300060AF80E288F0ED2402B4040050A3F58297
:100B4000EB2402B4040050992323458223900A2FFA
:100B50007354544D3A4144562D4F4E0D0A0054548F
:100B60004D3A5343414E2D4F4E0D0A0054544D3AC9
:100B7000434F4E4E454354494E470D0A0054544D81
:100B80003A434F4E4E45435445440D0A0054544D8C
:100B90003A424C455F49444C450D0A0054544D3A85
:100BA0004552500D0A0054544D3A4F4B0054544D89
:100BB0003A45525000535441540045414456004474
:100BC0004144560044434F4E004D41432D3F004D9C
:100BD00041432D00444E4D2D3F0052454E2D0054B3
:100BE000504C2D0054504C2D3F0054544D3A0D0A9A
:100BF00000FF0BB500000000100001FF0BBAFF0B57
:100C0000A600000002FF0BBFFF0BA600000003FFC1
:100C10000BC4FF0BA600000008FF0BC9000000007A
:100C20000C0809FF0BCFFF0BA60C00000AFF0BD42A
:100C3000000000000C080BFF0BDAFF0BA60C0000F5
:100C400010FF0BDFFF0BA605000011FF0BE40000F7
:100C50000000050800000000000000000000000087
:100C60000000000000000000000000000000000084
:100C70000000000000000000000000000000000074
:100C80000000000000000000000000000000000064
:100C90000000000000000000000000000000000054
:100CA0000000000000000000000000000000000044
:100CB0000000000000000000000000000000000034
:100CC0000000000000000000000000000000000024
:100CD0000000000000000000000000000000000014
:100CE0000000000000000000000000000000000004
:100CF00000000000000000000000000000000000F4
:100D000000000000000000000000000000000000E3
:100D100000000000000000000000000000000000D3
:100D200000000000000000000000000000000000C3
:100D300000000000000000000000000000000000B3
:100D400000000000000000000000000000000000A3
:100D50000000000000000000000000000000000093
:100D60000000000000000000000000000000000083
:100D70000000000000000000000000000000000073
:100D800060240965303F3106325B334F3466356D80
:100D9000367D3707387F396F4177427C4339553E7E
:100DA0004930507346714F3F47095E0A0F1932644C
:100DB00096C860E007C9000000000A0A00000001B0
:100DC00001000A0A00010002000A0E0E00000003E2
:100DD000010A0E0E0001000400180E0E00000005AE
:100DE00001180E0E0001000600261616000000076E
:100DF0000126161600010008003C0E0E0000000936
:100E0000013C0E0E0001000A004A10100000000B09
:100E1000014A10100001000C005A0D010101000DE3
:100E200000670D010101000E007404040101000FB0
:100E30000078030300010010007B1B1B0001001160
:100E4000009619190001001200AF0B0B00010013EE
:100E500000BA10100101001400CA060600010015B6
:100E600000D005050101001600D508080001001793
:100E700000DD08080001001800E51A1A0001001939
:100E800001AC06060001001A01B23E3E0001001B43
:100E900001921A1A00014C09890B510B5E0B6C0B65
:100EA0007D0B8D0B9C4209970BA64209950BAD005B
:100EB00002054322EDA2E7D2E7F9EC3340F260F3FA
:100EC000B4FF08ED547F70E802054DF82481C2E0BC
:100ED000C0E0F40428FAC313FCED92E7FD9003FC94
:100EE000120919EEA2E7E9BA7F02C3133400940095
:100EF000FA75F091A4E5F013F494FE8AF0A433E5BA
:100F0000F033248CD313FDE492E7FE7F007C3F7521
:100F10008302ECC0E0F8EDC0E0F9EEC0E0FAEFC00B
:100F2000E0FB8583F09003FC1208FD85F08312033B
:100F3000FCD0E0FBD0E0FAD0E0F9D0E0F8120202F9
:100F4000ED6480FD30E7011CD583C7ED33CC33F869
:100F5000D0E0A2E71328C313CC13FD22787FE4F678
:100F6000D8FD75812012010A020FA6021A97E49398
:100F7000A3F8E493A34003F68001F208DFF480298C
:100F8000E493A3F85407240CC8C333C4540F44207B
:100F9000C8834004F456800146F6DFE4800B01026A
:100FA000040810204080900D80E47E019360BCA373
:100FB000FF543F30E509541FFEE493A360010ECFB8
:100FC00054C025E060A840B8E493A3FAE493A3F8E2
:100FD000E493A3C8C582C8CAC583CAF0A3C8C582A2
:100FE000C8CAC583CADFE9DEE780BE070605040379
:100FF00002010007060504030201000706050403B9
:1010000002010007060504070605040302010007A4
:10101000060504030201000706050403020100039C
:10102000020100808080808080808040404040407D
:1010300040404020202020202020201010101002AE
:10104000020202020202020404040404040404086A
:101050000808080808080810101010010201020012
:10106000000003010002010202010003000100036D
:101070000201000506030405060304060504050530
:101080000604060406050506040303048020018007
:101090000820100204084002201010400101022024
:1010A000100840801002080202040120088001108C
:1010B00080020140080440401008010101020202C0
:1010C000020202010202020202020101804020101B
:1010D0000810080402018001804020100810080454
:1010E00002018001804020100810080402018001E4
:1010F0008040201008100804020180030000000056
:1011000000000000000001000101010101010101D6
:1011100001010201020202020202020202020302B1
:10112000030303030303030303030001021008087E
:10113000101080800202400840024040010104017A
:1011400020208020080404042010800100020203F3
:101150000103020001020300020301000002010377
:101160000300010201030002010003E00040F0D08F
:1011700070104020E0F020B0D0801030A0A060605F
:10118000C0C0B0509090500030708040F010C0E06F
:10119000808020D04060902010B070F050C0B0909F
:1011A0003070E030A0A000506000D00F03010D08A7
:1011B000040E07060F0B020308040E090C070002B9
:1011C000010D0A0C060009050B0A05000D0E0807A3
:1011D0000A0B010A03040F0D040102050B08060C9B
:1011E00007060C09000305020E0F09A0D00070903D
:1011F00000E09060303040F06050A01020D080C0FF
:101200005070E0B0C040B020F08010D01060A0401E
:10121000D090008060F09030800070B04010F020DE
:10122000E0C03050B0A050E02070C0070D0D080E97
:101230000B03050006060F09000A03010402070854
:1012400002050C0B010C0A040E0F090A03060F0914
:101250000000060C0A0B01070D0D080F090104031D
:10126000050E0B050C02070802040E20E0C0B0407A
:101270002010C07040A070B0D0601080505000307E
:10128000F0F0A0D0300090E080906040B02080105E
:10129000C0B070A010D0E0702080D0F06090F0C09E
:1012A00000509060A030400050E0300C0A010F0A5E
:1012B000040F020907020C0609080500060D0103C8
:1012C0000D040E0E00070B05030B0809040E030F97
:1012D00002050C020908050C0F030A070B000E0497
:1012E000010A0701060D000B08060D40D0B00020D2
:1012F000B0E070F04000908010D0A030E0C030909E
:101300005070C05020A0F060801060106040B0B0FD
:10131000D0D080C010304070A0E070A090F050603D
:101320000080F000E05020903020C00D01020F0836
:101330000D0408060A0F030B0701040A0C09050334
:10134000060E0B0500000E0C09070207020B010434
:101350000E010709040C0A0E08020D000F060C0A04
:10136000090D000F0303050506080BFFF002002717
:10137000062003444C2F54003634352D323030379C
:101380002D31344444535936363620202000000095
:10139000000102C201000000040001000100000180
:1013A00002C201000000040001000200000102C6A8
:1013B000010000000400010090020101036301002C
:1013C00000000400010090020001035D0100000024
:1013D0000400010090020001035D01000000040010
:1013E00001033006010102F90100000004000102BE
:1013F0008000200102F50100020C04000104000439
:10140000010101C9000010000600010400040201EE
:1014100001CF000010060600010400040E0101D5F2
:101420000000100C060001033001000103AE0100B2
:101430000000040101033302010103B201000000B6
:101440000401010400100101037B000011000400ED
:10145000010400100201037F0000110404000104D4
:1014600000100401038300001108040001040010AF
:10147000030103870000110C0400010400100501A2
:10148000038B0000111004000104090B0101038FFC
:101490000000111403000104800010FF136B010011
:1014A00000000801000400040DFF13730100000098
:1014B0001001000400040BFF1383010000000A0167
:1014C0000004000C010000000000120004010004F0
:1014D000000C020000000000120304010004000CD4
:1014E00003000000000012060401000400030801CC
:1014F00001E400001900010000040003020101E5FD
:1015000000001901010000040003010101E60000D0
:101510001902010000040003050101E7000019039E
:10152000010000040401010101EA00001A000101A8
:10153000000404020101020800001A1E0101000457
:101540000003060101DE0000101603000104000381
:10155000070101DB0000101303000102010100017B
:10156000002E010000000200010202010001003D06
:101570000100000003000102030000010049010016
:1015800000000300010203010001004D0100000002
:101590000300010206000001005A010000000200E1
:1015A000010206010001005E0100000002000102CC
:1015B00080000201006A0100000002000107000033
:1015C000FF070001FF070101FF070102FF070103F9
:1015D000FF070301FF070002FF200E1E1E18300840
:1015E000100404040404161100000000111100B0DE
:1015F000990184D401FF8430020C80FA000380FA40
:1016000000000084000084D6960004D6822404DC06
:10161000010C04DC030C8432010C04D6820004D6D5
:10162000830004D684000082000804D68C0004D60F
:10163000000004D6880004D6940004D6970000C0A9
:10164000000000B0880000B08C0000B0940000B032
:10165000970004B2010C0102030000118923123229
:101660009B462457AD653674BF8C489DC1AF5ABEAA
:10167000D3CA6CDBE5E97EF8F710810108339322C9
:101680001A56A5472C75B7643E9CC98D40BFDBAE8A
:1016900052DAEDCB64F9FFE8762102308B021013A9
:1016A00099672676AF443455BDAD4ABCC38E589F6A
:1016B000D1EB6EFAE7C87CD9F53183200A12910389
:1016C0001877A7662E54B5453CBDCBAC429ED98F4A
:1016D00050FBEFEA66D8FDC9744204538D61167061
:1016E0009F042015A9273236BBCE4CDFC5ED5EFC2A
:1016F000D7886899E1AB7ABAF35285430C71976049
:101700001E14A1052837B3263ADECDCF44FDDFEC09
:101710005698E98960BBFBAA726306728F40145128
:101720009D252234AB063017B9EF4EFEC7CC5CDDE9
:10173000D5A96AB8E38A789BF17387620E50954108
:101740001C35A3242A16B10738FFCFEE46DCDDCDC9
:1017500054B9EBA8629AF98B7084089581A71AB6E0
:1017600093C22CD3A5E13EF0B7084019C92B523AD9
:10177000DB4E645FED6D767CFF94898500B79BA698
:1017800012D2ADC324F1BFE03618C109483BD32AB9
:101790005A5EE54F6C7DF76C7EA50AB48386189778
:1017A00091E32EF2A7C03CD1B5294238CB0A501B99
:1017B000D96F667EEF4C745DFDB58BA40296998758
:1017C00010F3AFE226D0BDC13439C3284A1AD10B79
:1017D000587FE76E6E5CF54D7CC60CD785E51EF430
:1017E00097802891A1A33AB2B34A445BCD69567859
:1017F000DF0C601DE92F723EFBD68DC704F59FE418
:101800001690A98120B3BBA2325AC54B4C79D76838
:101810005E1CE10D683FF32E7AE70EF687C41CD5F7
:1018200095A12AB0A3823893B16B467ACF48545918
:10183000DD2D623CEB0E701FF9F78FE606D49DC5D7
:1018400014B1ABA02292B983307BC76A4E58D549F8
:101850005C3DE32C6A1EF10F7801010101020202D6
:10186000262626262525252828282827272710103C
:1018700010101111110E0E0E0E0F0F0F0C0C0C0C80
:101880000D0D0D0A0A0A0A0B0B0B0A100F0E0D0B99
:101890000C04030201020403040302010204030412
:1018A000030201020403040302010204030403020D
:1018B00001020403040302010204030403020102FF
:1018C000040300000000000000000000000102C24C
:1018D000040201000100000102C204020100020032
:1018E000000102C6040201040004010101C9020052
:1018F00005040004010101CB0400010400040201FD
:1019000001CF020005040004020101D1040001041A
:1019100000040E0101D50200050400040E0101D7E8
:10192000040001028000200102F50404010090027D
:101930000001035D0402010090020101036304023F
:10194000010400100101037B0402010400100201E4
:10195000037F04020104090B0101038F0304030246
:1019600001010001001D0302030202010001003D0C
:1019700003030302030000010049030403020301FF
:101980000001004D0304030206000001005A020397
:10199000050206010001005E02030502800002014B
:1019A000006A0202050400040901006C030003FF41
:1019B000FFFFFF00000000000036000000003700BD
:1019C00000000038000000003A000000003B00006A
:1019D00000003C000000003D000000003E00000050
:1019E000003F000000004000000000410000000037
:1019F0004200000000440000001B450000000046BB
:101A00000000000047000001804B000001FF500073
:101A100000000051000000045200000000530000CC
:101A200000005400000000550000000056000000B7
:101A30000057000000005A008000005B007FF5475F
:101A4000600000055D61007FF54662000000007CDB
:101A5000000000807D00000000480000018234008A
:101A600000000035000000003900000000430000C5
:101A7000001B30000000353100A000C13200000C16
:101A80008433000000E8003409350D390C0F0A10CA
:101A9000091BD3000000001201B9BF01031201BEEF
:101AA00051E8900290E0F8A3E0F9A3E0FAA3E0FB8C
:101AB000C31208C66003E4F5B151E8900290120920
:101AC000191201DC12018C1201D71201AF1201B4FC
:101AD00012000680CBF583E0FCA3E0FDA3E0FEA3AB
:101AE000E0FF9003E212091990028CE0FCA3E0FDF4
:101AF000A3E0FEA3E0FF90042F120919900288E0F2
:101B0000FCA3E0FDA3E0FEA3E0FF9004331209195B
:101B1000E4FFFEFDFC900433E0F8A3E0F9A3E0FA53
:101B2000A3E0FBC31208C6703074FFFFFEFDFC90FB
:101B3000042FE0F8A3E0F9A3E0FAA3E0FBC3120846
:101B4000C66043E4FFFEFDFC90042FE0F8A3A3A3CE
:101B5000E0C31208C67002802D90042FE0FCA3E0C1
:101B6000FDA3E0FEA3E02401FFE43EFEE43DFDE42E
:101B70003CFCA3E0F8A3E0F9A3E0FAA3E0FBC31266
:101B800008C6600241E890042FE0FCA3E0FDA3E05A
:101B9000FEA3E0FF227B017A0379557D047C00B12E
:101BA000F990035BEEF0A3EFF07B017A037955E443
:101BB000FD7F17FE71D57B017A0079107D047C00D2
:101BC000B1F9900016EEF0A3EFF07B017A007910E6
:101BD000E4FD7F16FE90066CEDF0A3EBF0A3EAF0B7
:101BE000A3E9F090066AEEF0A3EFF090067074019E
:101BF000F0E4900672F0A3F0C3EF941CEE94004062
:101C000002A1C8E4900671F0900671E0FFC3941C35
:101C10004002A1C875F008EFA424C9F582E5F034AC
:101C200007F583E0FEA3E0FF90066AE0FCA3E0FD79
:101C3000EF6D7002EE6C6002A1C0EDAE047803C3DC
:101C400033CE33CED8F9FF24CFF58274073EF58327
:101C5000E0600281E490066DE0FBA3E0FAA3E0F906
:101C600074CE2FF58274073EF583E024FEFDE43444
:101C7000FFFCB1F9900672EEF0A3EFF0900672E06F
:101C8000FD90066AE0FEA3E07803C333CE33CED8DE
:101C9000F924CEF58274073EF583E024FEFFE43498
:101CA000FFFE90066DE0FBA3E0FAA3E0F98F828EC1
:101CB00083ED1206D9900672A3E0FD90066AE0FE5D
:101CC000A3E07803C333CE33CED8F924CEF58274A3
:101CD000073EF583E07E0024FFF582EE34FFF583B6
:101CE000ED1206D990066AE0FEA3E07803C333CE76
:101CF00033CED8F924CBF58274073EF583E0FEA3FA
:101D0000E0FF90066CE0FD7C00EF2DFFEC3EFEC096
:101D100006C007A3E0FBA3E0FAA3E0F990066AE09F
:101D2000FEA3E07803C333CE33CED8F924CEF582B8
:101D300074073EF583E09009B5F0D007D006124352
:101D4000EAEF6002A1C8900670F090066AE0FEA378
:101D5000E07803C333CE33CED8F9FF24D0F58274B4
:101D6000073EF583E0706174D32FF58274073EF56A
:101D700083E0FEA3E0FF90066CE0FD7C00EF2DFF0A
:101D8000EC3EFEC006C007A3E0FBA3E0FAA3E0F927
:101D900090066AE0FEA3E07803C333CE33CED8F9D1
:101DA00024D6F58274073EF583E09009B5F0D0079C
:101DB000D0061243EAEF60109006707401F08008BC
:101DC000900671E004F08108900670E0FF22122274
:101DD000A99003EDE0FF7E009003EFEEF0A3EFF09B
:101DE000FD9003ECE0FFED9003EFCFF0A3EFF07B6D
:101DF000017A0379E07D0C7C009006B0EBF0A3EA59
:101E0000F0A3E9F0A3ECF0A3EDF0E4A3F0A3F090CD
:101E100006B374FFF5F012077845F060429006B003
:101E2000E0FBA3E475F001120778A9F0FA12064E60
:101E3000FF9006B5E0FCA3E0FDED6F25E0FFE43385
:101E4000FE74592FF58274163EF583ECFFE493FE81
:101E50007401936FFF9006B5EEF0A3EFF080B090A1
:101E600006B5E0FEA3E0FF22E0FFA3E0900669CF05
:101E7000F0A3EFF07D06900665EBF0A3EAF0A3E98E
:101E8000F0A3EDF0122821EF70037F012290066588
:101E9000E0FBA3E0FAA3E0F9A3E0FD7C00B1F99038
:101EA0000669E06E7003A3E06F7F0060027F01228D
:101EB000E49003E0F07B017A02796590027DE0FF17
:101EC000A3E0900669CFF0A3EFF07D18D176EF6024
:101ED000207B017A027965E4FD7F1BFE122023BF7F
:101EE00001069003E07401F0F18C123A3B7F01F19E
:101EF0001E9003E0E0FF227F01F11E7F147E00F1BF
:101F0000AA1241E2EF64036014EF60119002C1E095
:101F1000D394024008E4F0F18C7F01F11E2290037B
:101F2000F9EFF078FA7C037D017BFF7A0D791C7E56
:101F3000007F141206289004117401F090040EF032
:101F4000A37403F0A374FAF09003F9E0FF7B017A25
:101F50000379FA123A94EF702D900997E0FEA3E00E
:101F6000AA06F97BFFC003C00290040EE0FBA3E0C9
:101F7000FAA3E0F8AC02AD03D002D003120B34EFA9
:101F80007004900411F0900411E0FF2290FFE3E050
:101F90004440F043B0407F967E00F1AA90FFE3E01A
:101FA0004440F053B0BF7FC87E0090049BEEF0A386
:101FB000EFF0A31209250000000090049BE0FEA3AF
:101FC000E0FF7C007D131206FBE4FDA3E0F8A3E034
:101FD000F9A3E0FAA3E0FBC31208C6502412321999
:101FE00090049DE0FCA3E0FDA3E0FEA3E02401FF3C
:101FF000E43EFEE43DFDE43CFC90049D12091980A2
:10200000B92290042DE075F00EA42495F582E5F038
:102010003413F583E493FE740193FF7B017A037913
:10202000EBE4FD900667EDF0A3EBF0A3EAF0A3E983
:10203000F0900665EEF0A3EFF090066B7401F0E40B
:10204000A3F0A3F09006AEF0A3F0C3EF941CEE94BF
:102050000040024146E490066CF090066CE0FFC33D
:10206000941C4002414675F008EFA424C9F582E5AE
:10207000F03407F583E0FEA3E0FF900665E0FCA3E3
:10208000E0FDEF6D7002EE6C6002413E90066DF077
:10209000900665E0FEA3E07803C333CE33CED8F9D3
:1020A00024CBF58274073EF583E0FEA3E0FF9006A3
:1020B00067E0FD7C00EF2DFFEC3EFEC006C0077B15
:1020C000017A06796E900665E0FEA3E07803C333DB
:1020D000CE33CED8F924CEF58274073EF583E09056
:1020E00009AAF0D007D00651A9EF640170789006D4
:1020F00065E0FEA3E07803C333CE33CED8F9FF24E6
:10210000D0F58274073EF583E0704D74D32FF582CD
:1021100074073EF583E0FEA3E0FF900667E0FD7CD8
:1021200000EF2DFFEC3EFEC006C0077B017A06796A
:102130006E900665E0FEA3E07803C333CE33CED8BD
:10214000F924D6F58274073EF583E09009AAF0D011
:1021500007D00651A9BF010E90066DE004F0E0C360
:1021600094035002019090066DE0C3940340037FF6
:102170000122900665E0FEA3E07803C333CE33CEA0
:10218000D8F9FF24CFF58274073EF583E0706D74B3
:10219000CE2FF58274073EF583E0FF246DF582E4CF
:1021A0003406F583E0FD9006AEE4F0A3EDF0746C28
:1021B0002FF582E43406F583E0FE9006AEE04EF0A3
:1021C000A3E0F07B017A06796E900665E0FEA3E05D
:1021D0007803C333CE33CED8F924CEF58274073ECC
:1021E000F583E024FEFDE434FFFC121DF99006AEF9
:1021F000E06E7003A3E06F60037F0122900668E049
:10220000F9A3E0FAA3E09006B3C9F0A3EAF0A3E9CA
:10221000F0900665E0FEA3E07803C333CE33CED85A
:10222000F924CEF58274073EF583E09006B6F07B84
:10223000017A06796E5166E490066BF0800890068C
:102240006CE004F0015A90066BE0FF2251669006A4
:10225000B37401F0A37402F0A374D9F0A37404F072
:102260007B017A03795D9006B0EBF0A3EAF0A3E975
:10227000F0E4FF9006B6E0FEEFC39E502B9006B050
:10228000E0FBA3E0FAA3E0F98F82758300120667F2
:10229000FE9006B3E0FBA3E0FAA3E0F98F8275831A
:1022A00000EE1206D90F80CB229009A5EEF0A3EF25
:1022B000F09009A7EBF0A3EAF0A3E9F09009ABE4F2
:1022C000F09009AAE0FFEF70037F01229009AAE0D5
:1022D000FF7E009009A5E0FCA3E0FDEF2DFFEE3CA2
:1022E000FED3EF94FFEE940140037F01229009A5F5
:1022F000E0FEA3E0FFEEFF7E00EF54FFFF9009AC8D
:10230000EFF09009ACE0FFEF25E0FF9009ACEFF0B3
:10231000D1049009ACE0FFEF24A0FFB16BEF6005A2
:1023200071C17F01229009A5E0FEA3E0FFB16BEF30
:10233000600571C17F0122D1049009ACE0FFEF2458
:10234000A1FFB16BEF600571C17F01229009A7E089
:10235000FBA3E0FAA3E0F99009ADEBF0A3EAF0A348
:10236000E9F09009ACE4F09009AAE0FFEF14FF90C7
:1023700009ACE0FEEEC39F502412431C9009ADE06F
:10238000FBA3E0FAA3E0F99009ACE0FE8E8275832E
:1023900000EF1206D99009ACE004F080CA12429016
:1023A0009009ADE0FBA3E0FAA3E0F99009ACE0FEF0
:1023B0008E82758300EF1206D971C19009ABE0FFE0
:1023C000229009D4E4F090FFE8E0FFEF54BFFF90C3
:1023D000FFE8EFF09009D47414F09009D4E0FFEF17
:1023E000D394004015E5EC20E61043EC80D1345343
:1023F000EC7F9009D4E014F080E090FFE8E0FFEF7C
:102400004440FF90FFE8EFF090FFE8E0FFEF4480EA
:10241000FF90FFE8EFF053ECBF53EC7FD13443EC77
:1024200080D13443EC4022900999EEF0A3EFF09074
:10243000099BEBF0A3EAF0A3E9F09009A4E4F09083
:10244000099EE0FFEF600B90099EE0FFEFD3942020
:1024500040037F0122900999E0FEA3E0FFD3EF94AF
:10246000FFEE940140037F012290099EE0FF7E0071
:10247000900999E0FCA3E0FDEF2DFFEE3CFEC3EFD9
:1024800094FFEE94004013900999E0FEA3E0FFD37F
:10249000EF94FFEE94005002A165D10490099EE0F4
:1024A000FF7E00900999E0FCA3E0FDEF2DFFEE3CDC
:1024B000FEC3EF94FFEE940050069009A474A0F0C0
:1024C000900999E0FEA3E0FFD3EF94FFEE94004063
:1024D000069009A474A2F09009A4E0FFB16BEF602C
:1024E0000571C17F0122900999E0FEA3E0FFB16B65
:1024F000EF600571C17F012290099BE0FBA3E0FA28
:10250000A3E0F99009A1EBF0A3EAF0A3E9F09009A8
:102510009FE4F0A3E4F090099EE0FF7E0090099F05
:10252000E0FCA3E0FDC3ED9FEC9E50339009A1E0D9
:10253000FBA3E0FAA3E0F912064EFFB16BEF6005D2
:1025400071C17F01229009A2E475F0011207629027
:1025500009A0E004F0700690099FE004F080B771D4
:10256000C1D14580037F01227F00229009C6EFF090
:102570009009C7E4F09009C8E4F090FFE8E0FFEFAD
:102580004480FF90FFE8EFF053EC7F90FFE8E0FF1E
:10259000EF4440FF90FFE8EFF09009C8E4F09009A5
:1025A000C8E0FFEFC3940850309009C6E0FFEF3059
:1025B000E70543EC40800353ECBF43EC809009C631
:1025C000E0FFEF25E0FF9009C6EFF012428953ECDF
:1025D0007F9009C8E004F080C512000890FFE8E091
:1025E000FFEF54BFFF90FFE8EFF043EC80120008CC
:1025F000E5EC30E6069009C77401F053EC7F9009D2
:10260000C7E0FF221243B690FFE8E0FFEF4440FF2F
:1026100090FFE8EFF043EC4090FFE8E0FFEF4480EC
:10262000FF90FFE8EFF043EC80D13453ECBFD1349E
:1026300053EC7F229009D27401F09009D2E0FF148C
:10264000F0EF70F6229009CC74FFF09009CBE4F023
:102650009009CCE0FF9009CBE0FEEEC39F5013D170
:10266000047FA0B16BEF700261C19009CBE004F070
:1026700080DE229004597401F0A37407F0A374B1B2
:10268000F0900454E090045CF0900450E0FBA3E070
:10269000FAA3E0F9900456EBF0A3EAF0A3E9F09076
:1026A00006B37401F0A37404F0A37467F0A3740874
:1026B000F0900459E0FBA3E0FAA3E0F9516690041E
:1026C00056E0FBA3E0FAA3E0F91248CB7B017A04C1
:1026D0007967124943E490045DF0E490045EF09061
:1026E000045DE0FF9010BB93FE90045EE0C39E503B
:1026F0001C90045CE0FDB40103EF60117B017A04DF
:102700007967124C7C90045EE004F080D29006B3AE
:102710007401F0A37404F0A3745FF0A37408F07B59
:10272000017A047967516690048574FFF0A37410F0
:10273000F0A3745BF0A374FFF0A37410F0A3748B88
:10274000F0A37406F07B017A04795F12496190046A
:10275000727401F0A37404F0A3745FF0900456E067
:10276000FBA3E0FAA3E0F9124A34E4F5B190045D6A
:10277000E004F0E0C394105002C1DA900456E0FB8C
:10278000A3E0FAA3E0F990046FEBF0A3EAF0A3E969
:10279000F0E4F5B190047304F012064E90047BF05F
:1027A00090000412066790047AF090000112066708
:1027B000900479F0900005120667900478F090007C
:1027C00002120667900477F09000061206679004E4
:1027D00076F0900003120667900475F090000712DF
:1027E0000667900474F0E4900472F07B017A047937
:1027F0007412489E90046FE0FBA3E0FAA3E0F9A3F3
:10280000E0F582758300EF1206D9900473E025E0AD
:10281000F0900472E004F0E0C3940840CEE4F5B117
:102820002290066BEBF0A3EAF0A3E9F0E4FFEFC31C
:102830009D501B90066BE0FBA3E0FAA3E0F98F82AA
:1028400075830012066760037F01220F80E07F001E
:1028500022F09003E5E0FBA3E0FAA3E0F990000387
:10286000120667FFEFD3946340037F0022EF75F0F9
:102870000A84C454F0FEEF75F00A84E5F02EFF22BE
:10288000AC07AF0511ADAD07AF0411ADEF2DFF12D1
:10289000064E2FFFE41206C7EFC39464400974018B
:1028A0001206C7749C2FFF80BB120667FFEFC4544B
:1028B0000F75F00AA4FEEF540F2EFF2290066AEB6C
:1028C000F0A3EAF0A3E9F0E4900671F0A3F090061B
:1028D00070E0FF900672E0FEC39F5079EEFDC3EFFB
:1028E0009DFDE49400FCED24FFFFEC34FFFE900618
:1028F0006AE0FBA3E0FAA3E0F98F828E83120667F9
:10290000FFED24FFFDEC34FFFC90066DE0FBA3E03F
:10291000FAA3E0F98D828C83120667FD7B017A06AB
:1029200079711180900672E0FD900670E0C39DFD04
:10293000E49400CD24FFCD34FFFC90066AE0FBA3B5
:10294000E0FAA3E0F98D828C83EF1206D99006722B
:10295000E004F001CE2290028CE0FCA3E0FDA3E0B5
:10296000FEA3E0FF9003CC120919900288E0FCA3BB
:10297000E0FDA3E0FEA3E0FF9003D0120919E4FFFD
:10298000FEFDFC9003D0E0F8A3E0F9A3E0FAA3E099
:10299000FBC31208C6703074FFFFFEFDFC9003CC31
:1029A000E0F8A3E0F9A3E0FAA3E0FBC31208C660D5
:1029B00043E4FFFEFDFC9003CCE0F8A3A3A3E0C337
:1029C0001208C67002802D9003CCE0FCA3E0FDA3AA
:1029D000E0FEA3E02401FFE43EFEE43DFDE43CFC18
:1029E000A3E0F8A3E0F9A3E0FAA3E0FBC31208C652
:1029F000600221569003CCE0FCA3E0FDA3E0FEA31F
:102A0000E0FF22C0E0C0F0C083C082C0D075D0001B
:102A1000C000C001C002C003C004C005C006C0079A
:102A200075B7559003C9E5B6F075B70030993DC24A
:102A300099900073E004F0900072E0FFA3E0C39F60
:102A40005024315690007E120919900073E02486BC
:102A5000F582E43400F583E0FF30D004D29B80029D
:102A6000C29B8F99800690006F7408F030980BC25B
:102A700098AF99AD07E4FF12019675B7559003C959
:102A8000E0F5B675B700D007D006D005D004D00366
:102A9000D002D001D000D0D0D082D083D0F0D0E00E
:102AA0003290028CE0FCA3E0FDA3E0FEA3E0FF90E7
:102AB00003D7120919900288E0FCA3E0FDA3E0FE11
:102AC000A3E0FF9003DB120919E4FFFEFDFC900375
:102AD000DBE0F8A3E0F9A3E0FAA3E0FBC31208C629
:102AE000703074FFFFFEFDFC9003D7E0F8A3E0F91F
:102AF000A3E0FAA3E0FBC31208C66043E4FFFEFDB7
:102B0000FC9003D7E0F8A3A3A3E0C31208C67002A9
:102B1000802D9003D7E0FCA3E0FDA3E0FEA3E0241A
:102B200001FFE43EFEE43DFDE43CFCA3E0F8A3E04D
:102B3000F9A3E0FAA3E0FBC31208C6600241A1902A
:102B400003D7E0FCA3E0FDA3E0FEA3E0FF22C0E08A
:102B5000C0F0C083C082C0D075D000C000C001C02A
:102B600002C003C004C005C006C00775B755900376
:102B7000D4E5B6F075B70030D93DC2D9900120E058
:102B800004F090011FE0FFA3E0C39F502451A190E7
:102B9000012B120919900120E02433F582E434015D
:102BA000F583E0FF30D004D2DB8002C2DB8FD98016
:102BB0000690011C7408F030D80BC2D8AFD9AD070D
:102BC0007F0112019B75B7559003D4E0F5B675B738
:102BD00000D007D006D005D004D003D002D001D059
:102BE00000D0D0D082D083D0F0D0E032E0FCA3E09F
:102BF000FDA3E0FEA3E0FF9003E61209199003E6AF
:102C0000E0FCA3E0FDA3E0FEA3E0FFA3E0F8A3E067
:102C1000F9A3E0FAA3E0FBC31208C69003EAE05070
:102C20003DF8C000C001C002C0039003E6E0F8A375
:102C3000E0F9A3E0FAA3E0FBC374FF9BFF74FF9AE3
:102C4000FE74FF99FD74FF98FCD003D002D001D030
:102C500000EB2FFFEA3EFEE93DFDE83C8024FCA3AB
:102C6000E0FDA3E0FEA3E0FF9003E6E0F8A3E0F9B7
:102C7000A3E0FAA3E0FBC3EF9BFFEE9AFEED99FD04
:102C8000EC98FCA31209199003EEE0FCA3E0FDA36D
:102C9000E0FEA3E0FF9003EAE0F8A3E0F9A3E0FA86
:102CA000A3E0FBC31208C67F0140027F002290030D
:102CB0000BE054FDF07B017A0879EA7D041201A54E
:102CC0007B017A0879EE90066EE4F0A37404F0E4D8
:102CD000FD90066AEBF0A3EAF0A3E9F0A3EDF0E4BF
:102CE000FFFED390066FE09F90066EE09E401F901F
:102CF000066DE0FD90066AE0FBA3E0FAA3E0F98F21
:102D0000828E83ED1206D90FBF00010E80D422906F
:102D10000442EBF0A3EAF0A3E9F0A3EDF0D394644E
:102D200040037F012290044C7401F0A37407F0A3C8
:102D3000742FF09006B37401F0A37407F0A374C16C
:102D4000F0A37408F0900446E0FBA3E0FAA3E0F9D6
:102D50001222667B017A0779B1E4FD7F13FE12200F
:102D600023BF01037F012290044CE0F9A3E0FAA302
:102D7000E09006B3C9F0A3EAF0A3E9F0900445E0BF
:102D80009006B6F0900442E0FBA3E0FAA3E0F9124B
:102D9000226690044CE0FBA3E0FAA3E0F99004451E
:102DA000E0FFF58275830074801206D97E00E92F5A
:102DB000F9EE3AFAE92401F9E43AFA90066EE4F001
:102DC000A37407F0E4FD91D1900445E0131313546C
:102DD0001F0490044BF0E4FD74C12DF582E4340728
:102DE000F583C083C082E0FF90044CE0FBA3E0FACF
:102DF000A3E0F98D82758300120667FEEF6ED08224
:102E0000D083F00DEDB408D0E490044AF090044B68
:102E1000E014FF90044AE0C39F506F90045974017E
:102E2000F0A37407F0A374B1F0A37402F07B017AED
:102E30000779C1122694E4FD74C12DF582E43407AC
:102E4000F583C083C082E0FC90044AE02401FFE4E3
:102E500033FEEF7803C333CE33CED8F9FFED7A00DB
:102E60002FFFEA3EFE90044CE0FBA3E0FAA3E0F95A
:102E70008F828E831206676CD082D083F00DEDB402
:102E800008B690044AE004F080837B017A0779C198
:102E90009004537402F0E4FFD1E8900449E0640127
:102EA000703B900442E0FBA3E0FAA3E0F9A3E0FF4B
:102EB0007E00E92FF9EE3AFA900668EBF0A3EAF00B
:102EC000A3E9F0A37404F0A37455F07B017A0779A9
:102ED000C112327FBF02037F00227F01227F0022C6
:102EE0009004537401F07F06900450EBF0A3EAF0D5
:102EF000A3E9F0EF640660147B017A0779B1E4FD81
:102F00007F13FE122023BF01037F0122900453E0B0
:102F1000B40209A37402F0A314F08009900454745D
:102F200001F0A304F01226739004597401F0A37405
:102F300007F0A374B9F09004551226841226737F0B
:102F400000229003E6E075F0ADA4248AF974003500
:102F5000F0FA7B01E075F0ADA42493F582E5F0343E
:102F600000F583E0240AFD9003E9EBF0A3EAF0A367
:102F7000E9F0E4FFFEEEC39D50189003E9E0FBA3E7
:102F8000E0FAA3E0F98E827583001206672FFF0E28
:102F900080E32235F0FA9006687401F0A3EAF0A30A
:102FA000E9F0A37406F07B017A0179C9900665EB1C
:102FB000F0A3EAF0A3E9F0E490066CF090066BE071
:102FC000FFA3E0FEC39F5047EEFD900665E0FBA324
:102FD000E0FAA3E07E002FF9EE3AFAE924FFF9EADD
:102FE00034FFFAC3E99DF9EA9400FA12064EFF9005
:102FF0000668E0FBA3E0FAA3E0F990066CE0F58236
:10300000758300EF1206D990066CE004F080AD22C3
:10301000900432EBF0A3EAF0A3E9F0E4FFEFC39DE4
:103020005028900432E0FBA3E0FAA3E0F98F827508
:103030008300120667FE540FD394095007EE54F034
:10304000949040037F01220F80D37F00229003E9F8
:10305000E075F0ADA424A0F9740035F0FA7B01907E
:10306000042BE07E0029F9EE3AFA7D0490043DEB52
:10307000F0A3EAF0A3E9F0A3EDF0E4A3F09004409C
:10308000E0FFC313FEA3E0C39E507890043DE0FB35
:10309000A3E0FAA3E0F9900441E0FEF58275830015
:1030A000120667900442F0EF24FFFDE434FFFCEECB
:1030B000FFC3ED9FFFEC94008F82F583120667FF3C
:1030C000900441E0F582758300EF1206D990044226
:1030D000E0FF900440E024FFFDE434FFFCA3E0FBAC
:1030E000C3ED9BFDEC9400FC90043DE0FBA3E0FAF3
:1030F000A3E0F98D828C83EF1206D9900441E0049D
:10310000F0017D229003E9E075F0ADA42498F974F4
:103110000035F0FA7B01900432EBF0A3EAF0A3E96A
:10312000F012064EFF2485F582E43402F583E0C3F5
:103130009403401074852FF582E43402F583740300
:10314000F07F01227B017A047936E4FD7F12FE12C2
:103150002023BF01037F0122900432E0FBA3E0FAA9
:10316000A3E0F912064EFF7006900435F0801BEFC5
:10317000B401089004357403F0800FEFB402089096
:1031800004357406F080037F0122E4FFEF2401FD83
:10319000E433FC900432E0FBA3E0FAA3E0F98D8273
:1031A0008C83120667FE900435E02F2436F582E406
:1031B0003404F583E06E603812064EFE2485F582F5
:1031C000E43402F583E004F074852EF582E43402E1
:1031D000F583E0C39403401512064E25E024ABF5B9
:1031E00082E43402F5837405F0A374A0F07F012219
:1031F0000FEFB40397900432E0FBA3E0FAA3E0F9E9
:1032000012064E2485F582E43402F583E4F0FF22B1
:103210007F01AE071FEE70FA22120007120007802E
:10322000EFAD07AC06E4FBFAC3EB9DEA9C500951F5
:10323000190BBB00010A80F02224FEFFE434FFFEDC
:1032400090043AE0FD7C001206FB900434E0FBA3FE
:10325000E0FAA3E02FF9EA3EFA900668EBF0A3EA61
:10326000F0A3E9F090043AE090066BF090043DE0A2
:1032700090066CF0900437E0FBA3E0FAA3E0F9902D
:103280000665EBF0A3EAF0A3E9F0E490066DF09098
:10329000066BE0FF90066DE0FEC39F400261A090C8
:1032A000066CE064557039900668E0FBA3E0FAA371
:1032B000E0F98E82758300120667FD900665E0FBDB
:1032C000A3E0FAA3E0F98E82758300120667FED3AD
:1032D0009D40037F0022EEC39D400261987F012242
:1032E00090066BE024FFFFE434FFFE90066DE0FDE6
:1032F000C3EF9DFFEE9400FE900668E0FBA3E0FAAA
:10330000A3E0F98F828E83120667FF90066BE0249C
:10331000FFFDE434FFFC90066DE0FBC3ED9BFDEC8C
:103320009400FC900665E0FBA3E0FAA3E0F98D822F
:103330008C83120667D39F40037F002290066BE0C8
:1033400024FFFFE434FFFE90066DE0FDC3EF9DFF18
:10335000EE9400FE900668E0FBA3E0FAA3E0F98F8C
:10336000828E83120667FF90066BE024FFFDE43433
:10337000FFFC90066DE0FBC3ED9BFDEC9400FC9020
:103380000665E0FBA3E0FAA3E0F98D828C831206C8
:1033900067C39F50037F012290066DE004F0418FC8
:1033A0007F0222900434EBF0A3EAF0A3E9F090044A
:1033B0003BE0FED3940150037F0122EE24FFFFE4A3
:1033C00034FFFE90043AE0FD7C001206FB900434CA
:1033D000E0FBA3E0FAA3E02FF9EA3EFAC002C00145
:1033E000A3E0F9A3E0FAA3E09006B3C9F0A3EAF0E2
:1033F000A3E9F090043AE09006B6F0D001D00212B2
:10340000226690043BE090043EF090043EE0FFD33F
:103410009401406D90043CE064557008EF5139EF21
:103420006057800B90043EE05139EF6401604A9090
:10343000043EE024FEFFE434FFFE90043AE0FD7C0D
:10344000001206FB900434E0FBA3E0FAA3E02FF99E
:10345000EA3EFAC002C001A3E0F9A3E0FAA3E090BB
:1034600006B3C9F0A3EAF0A3E9F090043AE09006AD
:10347000B6F0D001D00212226690043EE014F08033
:10348000897F002212064EFF9003FBE4F0A3EFF0C9
:10349000E0F8E4F0E89003FBF0900001120667FF0B
:1034A0009003FBE0FEA3E04FFF9003FBEEF0FEA3D2
:1034B000EFF02291C19004581209197B017A037927
:1034C0005D900649EBF0A3EAF0A3E9F0A312092509
:1034D00000000000E4900650F090064CE0FCA3E0F1
:1034E000FDA3E0FEA3E0FF78081208EA90064C1264
:1034F000091990064CE0F8A3E0F9A3E0FAA3E0FB79
:10350000C000C001C002C003900649E0FBA3E0FA7E
:10351000A3E0F9900650E0F582758300120667FF7C
:10352000D003D002D001D000EB4FFFEAFEE9FDE866
:10353000FC90064C120919900650E004F0E0B40427
:103540009890064CE0FCA3E0FDA3E0FEA3E0FF2280
:10355000900455EBF0A3EAF0A3E9F0E490045DF0E9
:1035600090045BE014FF90045BE0FEEFC39E40021A
:10357000C143900458E0FBA3E0FAA3E0F98F827501
:103580008300120667FE90045DE02EFDE490045C6B
:10359000F0EDC39E50037401F0E490045DF09004DC
:1035A00055E0FBA3E0FAA3E0F98F827583001206D1
:1035B00067FE540FFCED540FFBECC39B5034EEC37D
:1035C0009D900455E0FB500E8F82758300120667B4
:1035D000FEC3749A8037A3E0FAA3E0F98F82758363
:1035E00000120667C39D24FA8F827583001206D9E4
:1035F0008044900455E0FBA3E0FAA3E0F98F8275C4
:103600008300120667FEC39D5015C374A09D2E8FC4
:10361000827583001206D990045D7401F0801790C2
:103620000455E0FBA3E0FAA3E02FF9E43AFA12060E
:103630004EC39D1206C790045CE06004A37401F0C1
:103640001FA1662290043AEBF0A3EAF0A3E9F0ABE5
:1036500005A37401F0A312092500000001900442A3
:1036600012092500000000E4900446F0EBD394001A
:103670005002E19CEB94054002E19CEBF090044683
:10368000E0D394005002E19C900442E0F8A3E0F9FA
:10369000A3E0FAA3E0FBC000C001C002C003900495
:1036A0003AE0FBA3E0FAA3E0F9900446E0FF7E00D5
:1036B000E92FF9EE3AFA90FFFF120667540F75F002
:1036C0000A84AFF0E4FCFD90043EE0F8A3E0F9A327
:1036D000E0FAA3E0FB12078ED003D002D001D000A5
:1036E000EB2FFFEA3EFEE93DFDE83CFC9004421270
:1036F000091990043EE0FCA3E0FDA3E0FEA3E0FF77
:10370000E47B0AFAF9F812078E90043E1209199028
:103710000442E0F8A3E0F9A3E0FAA3E0FBC000C094
:1037200001C002C00390043AE0FBA3E0FAA3E0F971
:10373000900446E0FF7E00E92FF9EE3AFA90FFFF91
:1037400012066754F0C4540FFFE4FCFD90043EE001
:10375000F8A3E0F9A3E0FAA3E0FB12078ED003D0B0
:1037600002D001D000EB2FFFEA3EFEE93DFDE83C30
:10377000FC90044212091990043EE0FCA3E0FDA372
:10378000E0FEA3E0FFE47B0AFAF9F812078E90044A
:103790003E120919900446E014F0C17D900442E005
:1037A000FCA3E0FDA3E0FEA3E0FF22900459EBF0B0
:1037B000A3EAF0A3E9F090045E12091990045CE01A
:1037C000A3F090045DE0D39400500302389DE47BA5
:1037D0000AFAF9F8A3E0FCA3E0FDA3E0FEA3E0FFF2
:1037E000120819AF03900459E0FBA3E0FAA3E0F933
:1037F00090045DE0FD7C00E92DF9EC3AFA90FFFFC2
:10380000EF1206D990045EE0FCA3E0FDA3E0FEA366
:10381000E0FFE47B0AFAF9F812081990045E120935
:1038200019900459E0FBA3E0FAA3E0F990045DE0ED
:10383000FF7E00E92FF9EE3AFAE924FFF9EA34FFB6
:10384000FAC003C002C00112064EFFC007E47B0AA3
:10385000FAF9F890045EE0FCA3E0FDA3E0FEA3E02B
:10386000FF120819AF03EFC454F0FED0E04ED001B0
:10387000D002D0031206C790045EE0FCA3E0FDA3D3
:10388000E0FEA3E0FFE47B0AFAF9F81208199004BD
:103890005E12091990045DE014F00237C222F0A311
:1038A0007406F07B017A02796590041DEBF0A3EABF
:1038B000F0A3E9F0E4900424F0900423E0FFA3E0F7
:1038C000FEC39F4002215C90041DE0FBA3E0FAA32D
:1038D000E0F98E82758300120667FDC4540F9004D0
:1038E00025F0ED540FA3F0E4FF74252FF582E434A6
:1038F00004F583E0FEC3940A501074252FF582E48A
:103900003404F583E02430F08014EEC39410500E9C
:1039100074252FF582E43404F583E02437F00FEFAB
:10392000B402C6900424E075F002A4FF900420E0E5
:10393000FBA3E0FAA3E02FF9EA35F0FA9006B3EB27
:10394000F0A3EAF0A3E9F0A37402F07B017A047912
:1039500025122266900424E004F001B92278097C43
:10396000047D017BFF7A0D793A7E007F14120628D0
:103970009004207401F0A37404F0A37409119E7BD9
:10398000017A04790951317B017A02796B90042123
:10399000740CF07F0B90041DEFF0A3EBF0A3EAF0A2
:1039A000A3E9F078227C047D017BFF7A0C79A47E68
:1039B000007F321206289004547401F0A37404F0BE
:1039C000A37422F0A37401F0900421E0FF601F9023
:1039D00006B37401F0A37404F0A37422F0A3EFF013
:1039E00090041EE0FBA3E0FAA3E0F9122266900423
:1039F0001DE0FF7B017A0479225194EF702D90092C
:103A000097E0FEA3E0AA06F97BFFC003C002900482
:103A100054E0FBA3E0FAA3E0F8AC02AD03D002D07F
:103A200003120B34EF7004900457F0900457E0FF3A
:103A300022900421740CF07F0921959006B3740143
:103A4000F0A37402F0A37465F0A37406F07B017A0E
:103A50000179C912226690026574C0F09004207446
:103A600001F0A37402F0A3746B119E90027774129C
:103A7000F0A37434F0A37456F0A37401F0A3E4F03F
:103A8000A37430F0315D7B017A027965E4FD7F1B20
:103A9000FE021BD5900458EFF0A3EBF0A3EAF0A3CD
:103AA000E9F0A37401F0A3F0E4A3F0A3F0A3F0A362
:103AB000F078637C047D017BFF7A0D794EFE7F32C6
:103AC0001206289004957401F0A37404F0A37463A3
:103AD000F0900303E030E102C115D148BF01037F3C
:103AE0000622E4900462F0900462E0FFC394125056
:103AF00022EF75F00AA424F0F582E4340BF583E498
:103B000093FF900458E0FEEF6E6008900462E004BA
:103B1000F080D4900462E0C394124002C115E49096
:103B2000045FF0900303E030E102C115E49004600B
:103B3000F09006B304F0A37404F0A37463F0A374CC
:103B400004F07BFF7A0B79EA122266900462E0753A
:103B5000F00AA424F1F582E4340BF583E493FB74BA
:103B60000193FA740293F912004E900461EFF0A3EE
:103B7000E075F00AA424F1F582E4340BF583E493B4
:103B8000FB740193FA740293F99006B37401F0A3E5
:103B90007404F0A37467F0A3EFF01222669004623D
:103BA000E075F00AA424F7F582E4340BF583E4937E
:103BB000FF6028900461E02467F9E43404FA900679
:103BC000B37401F0A3EAF0A3E9F0A3EFF090045975
:103BD000E0FBA3E0FAA3E0F9122266900462E0752C
:103BE000F00AA424F7F582E4340BF583E493FF9004
:103BF0000461E02F2467F9E43404FA9006B37401F9
:103C0000F0A3EAF0A3E9F0A37402F07BFF7A0B794A
:103C1000EE122266900462E075F00AA424F7F582A1
:103C2000E4340BF583E493FF900461E02F240690C5
:103C30000460F07F011201C853A9FB7F02D11BE48D
:103C400090045EF0900460E0FF90045EE0FEC39F8D
:103C5000505C74632EF582E43404F583E0FF30D0C9
:103C600004D2DB8002C2DB8FD9E4900498F0A3F089
:103C700030D904C2D98020120007900499E004F0E2
:103C80007006900498E004F0C3900499E094D090FA
:103C90000498E0940740D9C3900499E094D090042C
:103CA00098E09407500890045EE004F0809643D8B2
:103CB0001053A9FB9004607432F07B017A0479639D
:103CC000E0FF90066EE4F0A3EFF0E4FD122CD1E4E7
:103CD00090045EF0900460E0FF90045EE0C39F50AB
:103CE00054E4900498F0A3F0900498E0FEA3E0FF61
:103CF000C39440EE941F502C30D819C2D890045E63
:103D0000E02463F582E43404F583E5D9F0E490041B
:103D10005DF08010900499E004F07006900498E043
:103D200004F080C4C3EF9440EE941F500890045EEA
:103D3000E004F0809F90045DE0700A90045CF090D5
:103D4000045F7403F0900495E0FBA3E0FAA3E0F9AC
:103D500012004E900460EFF090045CE06002C1033A
:103D6000900462E075F00AA424F8F582E4340BF5BF
:103D700083E493605BE490045EF0900462E0FF757E
:103D8000F00AA424F8F582E4340BF583E493FE9062
:103D9000045EE0FDC39E506BEF75F00AA424F9F5B4
:103DA00082E4340BF583E4932D2463F582E4340438
:103DB000F583E0FF900459E0FBA3E0FAA3E0F98D5E
:103DC00082758300EF1206D990045EE004F080AAA9
:103DD000E490045EF090045EE0FF2463F582E43436
:103DE00004F583E0FE900459E0FBA3E0FAA3E0F9B8
:103DF0008F82758300EE1206D990045EE004F0E035
:103E0000B406D27F04D11B90045FE004F0E0C394B9
:103E1000035002612390045CE0FF2290049AEFF0CB
:103E200030E202801890FFE3E04420F053B0DF7FDF
:103E3000037E00121FAA90049AE030E00A90FFE38C
:103E4000E04420F043B0202290011CE07F01B40147
:103E5000027F0022900402EFF0A3EBF0A3EAF0A3AC
:103E6000E9F078077C047D017BFF7A0C79D67E002F
:103E70007F321206289004397401F0900402E0FFAA
:103E80007B017A0479075194EF702B900403E0F9D9
:103E9000A3E0FAA3E09006B3C9F0A3EAF0A3E9F027
:103EA000900406E09006B6F07B017A0479071222AE
:103EB00066E4900439F0900439E0FF22900406741F
:103EC0000CF07F08808E900406740CF07F0A8084CA
:103ED0009003F9EBF0A3EAF0A3E9F078FD7C037D11
:103EE000017BFF7A0D79357E007F051206287B0164
:103EF0007A0379FD9004067405F07F11D154900384
:103F0000FCEFF070327F0174FD2FF582E43403F58D
:103F100083E0FE64296020EF24FFFDE434FFFC9081
:103F200003F9E0FBA3E0FAA3E0F98D828C83EE12A3
:103F300006D90FEFB405D09003FCE0FF229003F9FF
:103F4000EBF0A3EAF0A3E9F0E4A3F078FD7C037DB5
:103F5000017BFF7A0D7930FE7F051206289003F968
:103F6000E0FBA3E0FAA3E0F912004E9003FCEFF0AF
:103F7000D39403504AA37428F09006B37401F0A3BD
:103F80007403F0A374FEF09003FCE09006B6F0908A
:103F900003F9E0FBA3E0FAA3E0F91222669003FC28
:103FA000E0FF24FEF582E43403F5837429F07B01FD
:103FB0007A0379FDEF2402900421F07F1021957F90
:103FC0000122C0D075D000C00775B755AFB675B720
:103FD0000075AA0075E80075B7558FB675B700D0A3
:103FE00007D0D032C0D075D000C00775B755AFB676
:103FF00075B70053A8F753883F75B7558FB675B797
:1040000000D007D0D032C0E0C0F0C083C082C0D0A2
:1040100075D000C000C001C002C003C004C005C00C
:1040200006C00775B7559003C8E5B6F075B70053DD
:1040300088DF758AC0758CE0E5C730E6079003031A
:10404000E04402F0900288E0FCA3E0FDA3E0FEA3C0
:10405000E0FFA312091974FFFFFEFDFC900288E047
:10406000F8A3E0F9A3E0FAA3E0FBC31208C69002AC
:1040700088501EE0FCA3E0FDA3E0FEA3E02401FFC6
:10408000E43EFEE43DFDE43CFC9002881209198008
:10409000071209250000000075B7559003C8E0F528
:1040A000B675B700D007D006D005D004D003D00233
:1040B000D001D000D0D0D082D083D0F0D0E032C0B8
:1040C000D075D000C00775B755AFB675B70053A807
:1040D000DF53C83375B7558FB675B700D007D0D04A
:1040E00032C0D075D000C00775B755AFB675B700F0
:1040F00053A8BF53C11F75B7558FB675B700D0070A
:10410000D0D032C0E0C083C082C0D075D000C0061D
:10411000C00775B755AFB675B700AE97759700EE87
:1041200030E31D90000AE090000930E205E004F061
:10413000800EE0FE900008E02EF0E004F0A3E4F032
:1041400075B7558FB675B700D007D006D0D0D082DE
:10415000D083D0E032C0E0C083C082C0D075D00030
:10416000C00775B755AFB675B70090FFB6E4F090CD
:10417000FFB7F053A9FD75B7558FB6F5B7D007D087
:10418000D0D082D083D0E032C0D075D000C00775C7
:10419000B755AFB675B70053A9DF75C60075B755EB
:1041A0008FB675B700D007D0D032C0E0C083C082D0
:1041B000C0D075D000C005C00775B755ADB675B78E
:1041C0000090FFD0E054FCF053A9FD75B755AF0542
:1041D0008FB675B700D007D005D0D0D082D083D0AD
:1041E000E03278E07C037D017BFF7A0D79087E0068
:1041F0007F14120628E49003F7F0A374FFF07B010C
:104200007A0379E0E4FF123A949003F8EFF0BF01EB
:10421000037FFF229003F8E0B406037F032290039C
:10422000F47401F0A37403F0A374E0F0E4A3F0903D
:1042300003F7E0FFC39406503DEF25E02489F582A3
:10424000E43409F583E0FEA3E0AA06F97BFFC0038E
:10425000C0029003F4E0FBA3E0FAA3E0F8AC02ADE7
:1042600003D002D003120B34EF70030080089003D8
:10427000F7E004F080B99003F7E0FFC39406500321
:10428000A3EFF09003F8E0FF229009D37401F0222D
:104290009009CFE4F09009D0E4F090FFE8E0FFEF60
:1042A0004480FF90FFE8EFF090FFE8E0FFEF54BF9D
:1042B000FF90FFE8EFF053EC7F9009D0E4F0900915
:1042C000D0E0FFEFC39408503351899009CFE0FF4D
:1042D000EF25E0FF9009CFEFF043EC80E5EC30E60E
:1042E0000E9009CFE0FFEF4401FF9009CFEFF051AE
:1042F0008953EC7F9009D0E004F080C290FFE8E0A1
:10430000FFEF4440FF90FFE8EFF043EC4043EC80C8
:1043100012263453EC7F9009CFE0FF229009CDE4C0
:10432000F09009CE7408F090FFE8E0FFEF4480FFC2
:1043300090FFE8EFF090FFE8E0FFEF54BFFF90FF41
:10434000E8EFF053EC7F9009CEE4F09009CEE0FF67
:10435000EFC39408503D51899009CDE0FFEF25E06F
:10436000FF9009CDEFF043EC80E5EC30E60E9009CC
:10437000CDE0FFEF4401FF9009CDEFF051899009A6
:10438000CDE0FF9009CDEFF053EC7F9009CEE00433
:10439000F080B890FFE8E0FFEF4440FF90FFE8EFC7
:1043A000F053ECBF43EC8012263453EC7F43EC40D7
:1043B0009009CDE0FF2290FF84E0FFEF54FFFF90D3
:1043C000FF84EFF090FF85E0FFEF54FEFF90FF8544
:1043D000EFF090FFE9E0FFEF4401FF90FFE9EFF01D
:1043E00053EDFE229009B5740EF09009B0EEF0A3E3
:1043F000EFF09009B2EBF0A3EAF0A3E9F09009B076
:10440000E0FEA3E0FF9009B6EEF0A3EFF09009B054
:10441000E0FEA3E0FFEF5407FFC374089FFF90097D
:10442000B8EFF09009B9E4F09009B8E0FF9009B551
:10443000E0FEEEC39F500A9009B5E0FF9009B8EF87
:10444000F09009B6E0FEA3E0FF9009B2E0FBA3E024
:10445000FAA3E0F99009B9E0FD7C00E92DF9EA3C06
:10446000FA9009B8E0FD90099EEDF0122427EFB410
:1044700001037F01229009B8E0FF9009B9E02FF015
:104480009009B9E0FF7E009009B0E0FCA3E0FDEFE9
:104490002DFFEE3CFE9009B6EEF0A3EFF09009B9C7
:1044A000E0FF9009B5E0FEC3EE9FFF9009B8EFF082
:1044B0009009B8E0FFEFD3940840069009B874085B
:1044C000F09009B8E0FFEF600281417F002290097F
:1044D000BAEEF0A3EFF09009BCEDF09009BDEBF05F
:1044E000C0A8C2AF9009BCE0FF8FEF9009BAE0FE10
:1044F000A3E0FFEF54FFF5EE9009BAE0FEA3E0FF62
:10450000EEFF7E008FF775A7019009BDE0FFEFB4C5
:10451000681375F26E75F30575F40A75F50975F68D
:10452000060000000075A70075F700D0A8229006CD
:1045300067EBF0A3EAF0A3E9F0900665EEF0A3EFD5
:10454000F090066BE02FFF90066AE03EFED3EF94FA
:1045500000EE941040037FFF22D390066BE094009E
:1045600090066AE094004045900667E0FBA3E0FAFD
:10457000A3E0F912064EFC900665E0FEA3E0FFAD55
:10458000047B6891CE900666E004F07006900665A4
:10459000E004F0900668E475F00112076290066B83
:1045A000E024FFF090066AE034FFF080AC7F002248
:1045B0008F828E83E4FFEDB4680FC0A8C2AF75A7E9
:1045C00001E493FFE4F5A7D0A8227B017A04796582
:1045D000900461E0FCA3E0FD90066A7402F0A3E49D
:1045E000F0900668ECF0A3EDF090066BE02DFF90E4
:1045F000066AE03CFED3EF9400EE941040037FFF88
:1046000022D390066BE0940090066AE09400403557
:10461000900668E0FEA3E0FF7D68B1B0EF1206C728
:10462000740129F9E43AFA900669E004F070069002
:104630000668E004F090066BE024FFF090066AE064
:1046400034FFF080BC7F0022E0FEA3E0FF7B68E443
:10465000FD9009BEEEF0A3EFF09009C0EDF09009D7
:10466000C1EBF0C0A8C2AF9009C0E0FF8FEF900986
:10467000BEE0FEA3E0FFEF54FFF5EE9009BEE0FEC2
:10468000A3E0FFEEFF7E008FF775A7019009C1E060
:10469000FFEFB4681375F2E675F30575F40A75F566
:1046A0000975F6060000000075A70075F700D0A890
:1046B0002290FFE5E054FBF090FFF5E04404F02287
:1046C000D1B1E5E920E229900280E004F070069083
:1046D000027FE004F0C3900280E094FA90027FE051
:1046E0009400401AE4F0A3F090030DE04401F0229E
:1046F000E490027FF0A3F090030DE054FEF02290CE
:10470000FFE2E054FBF090FFF2E04404F022D1FF1E
:1047100090030EE030E215E5A030E202E1ADE044A6
:1047200001F0E054FBF0E4900234F02290030EE03C
:1047300030E061E5A020E26A900234E004F0E0FF9E
:104740007408D39F506790030EE04402F0E054FEDB
:10475000F0E4900234F090030CE04408F090023052
:104760001209250000003C900228741EF0900235CA
:10477000E0700B90023CF09002357468F0229002D9
:104780003CE004F09001E7E0FF90023CE0C39F4072
:104790001CE4F02290030EE030E107E5A030E20DCA
:1047A0008000E4900234F090030E7404F022EF14C1
:1047B000602204702612481D7FFFF1DC43D18090F7
:1047C000FFE1E04408F05390F790FFE9E04402F085
:1047D00053EDFD2212481DE4FFF1DC22E4FE743D9E
:1047E0002EF582E43402F583EFF00EEEB428EF7F6D
:1047F000007E25E4FD743D2DF582E43402F583E06E
:10480000FCEF2DF582E43EF583ECF0743D2DF5824E
:10481000E43402F583E4F00DEDB428D92253D17FBE
:10482000114190FF8074F0F090FF817403F090FFCD
:104830008274FEF090FF837401F090FF8574FCF0A9
:1048400022E5D154706430600653D18F43D130E5F6
:10485000D154076407600653D1F843D107E5D25419
:10486000076402600653D2F843D202225380FD004F
:10487000004380042243800200005380FB225380C7
:10488000FD005380FB22900283E0600FE014F0E013
:10489000FF7E00BE0207BF40048000117E2290040C
:1048A00073E0FD90047CEDF0E4FF7E08EF25E0FF6F
:1048B000EE7C0024FFF582EC34FFF583120667FDE1
:1048C00090047CE05D60010FDEE22290046FEBF06B
:1048D000A3EAF0A3E9F09004737440F0E49004724A
:1048E000F0900472E0FFC394085036EFB40404A3C0
:1048F0007480F090046FE0FBA3E0FAA3E0F9119E4E
:10490000900472E02474F582E43404F583EFF090AF
:104910000473E0FF1313543FF0900472E004F0803E
:10492000C090046FE0F9A3E0FAA3E09006B3C9F0E9
:10493000A3EAF0A3E9F0A37408F07B017A04797488
:1049400002226690048574FFF0A3740FF0A374EB49
:10495000F0A374FFF0A37410F0A37423F0A3740702
:10496000F0900482EBF0A3EAF0A3E9F0E4F52090E4
:10497000048C04F090048BE075F008A42401FFE49B
:1049800035F0FEA3E0FDC39FEE6480F8748098507C
:104990007DE52025E0F520EDFF7E0024FFFDEE34CF
:1049A000FFFC900485E0FBA3E0FAA3E0F98D828C84
:1049B00083120667FD900482E0FBA3E0FAA3E0F90E
:1049C0008D82758300120667FDEF24FFFFEE34FF32
:1049D000FE900488E0FBA3E0FAA3E0F98F828E83C7
:1049E0001206675D6002052090048CE0FF5407709A
:1049F00015EF131313541F248CF582E43404F5834C
:104A0000E520F0E4F52090048CE004F0217490049B
:104A100082E0F9A3E0FAA3E09006B3C9F0A3EAF0BC
:104A2000A3E9F090048BE09006B6F07B017A04795C
:104A30008D02226690046FEBF0A3EAF0A3E9F02464
:104A400004F9E43AFA9006B37401F0A37404F0A3F5
:104A50007476F0A37404F012226690048574FFF05B
:104A6000A37410F0A374FBF0A374FFF0A37410F010
:104A7000A374CBF0A37406F07B017A0479763161DC
:104A8000E4900475F0900475E0FF2476F582E43438
:104A900004F583C083C082E0FE900472E0FBA3E0D3
:104AA000FAA3E0F98F82758300120667FFEE6FD0DC
:104AB00082D083F0900475E004F0E0B406C7E4907F
:104AC0000475F0900475E0FFC39402400261EBE0CE
:104AD000FE75F003A42476F582E43404F583E0FD4A
:104AE000C45430FCEE75F003A42477F582E434045A
:104AF000F583E0C4540F4CF520ED1313543FFE90A2
:104B00000475E0FD75F000A4246BF582E5F0341126
:104B1000F583ED2583F583E5822EF582E43583F573
:104B200083E493FE75F000EDA424ABF582E5F03448
:104B300011F583ED2583F583E5822520F582E435A3
:104B400083F583E493FDEE4DFE900475E0FD25E0D2
:104B5000247EF582E43404F583EEF0ED75F003A4D1
:104B60002477F582E43404F583E025E025E0543F22
:104B7000FEED75F003A42478F582E43404F583E0B7
:104B8000FDC4131354034EF520ED543FFE900475FD
:104B9000E0FD75F000A4242BF582E5F03412F583D6
:104BA000ED2583F583E5822EF582E43583F583E4F4
:104BB00093FE75F000EDA424EBF582E5F03411F5D9
:104BC00083ED2583F583E5822520F582E43583F5A1
:104BD00083E4934EFEEF25E0247FF582E43404F570
:104BE00083EEF0900475E004F041C390048574FFF7
:104BF000F0A37411F0A3744BF0A374FFF0A374112D
:104C0000F0A3742BF0A37404F07B017A04797E3155
:104C100061E4900475F0900475E0FFC39404505B68
:104C20007E00EF2404FDEE33FC90046FE0FBA3E074
:104C3000FAA3E0F98D828C83120667F52090047543
:104C4000E0FDF582758300120667FC747E2DF58207
:104C5000E43404F583E06CFD74042FF582E433F54D
:104C600083ED1206D9900475E0F582758300E52086
:104C70001206D9900475E004F0809B2290046FEB3B
:104C8000F0A3EAF0A3E9F0A3EDF012064E9004734E
:104C9000F0900001120667900474F0900002120672
:104CA00067900475F090000312066754F090047644
:104CB000F0BD0233900473E0FCA3E0FDA3E0FEA38B
:104CC000E0FF78011208EA90047312091990046F4A
:104CD000E0FBA3E0FAA3E0F912064E30E7449004AB
:104CE00076E04410F0803B900473E0FCA3E0FDA369
:104CF000E0FEA3E0FF78011208D7900473120919AF
:104D0000900476E054F0F090046FE0FBA3E0FAA387
:104D1000E0F990000312066730E407900473E04462
:104D200080F090046FE0FBA3E0FAA3E0F9900003A9
:104D3000120667540F900477F090000412066790F3
:104D40000478F0900005120667900479F090000650
:104D500012066790047AF0900472E06402703D904D
:104D60000477E0FCA3E0FDA3E0FEA3E0FF780112DE
:104D700008EA900477120919900477E0540FF09034
:104D8000046FE0FBA3E0FAA3E0F9900003120667CA
:104D900030E33D90047AE04401F08034900477E001
:104DA000FCA3E0FDA3E0FEA3E0FF78011208D7908A
:104DB000047712091990046FE0FBA3E0FAA3E0F96D
:104DC00090000612066730E007900477E04408F090
:104DD000900476E0FFA3E0FEEF4E900476F090049E
:104DE00078E0900477F0900479E0900478F09004F3
:104DF0007AE0900479F090046FE0F9A3E0FAA3E080
:104E00009006B3C9F0A3EAF0A3E9F0A37407F07B1E
:084E1000017A047973022266A5
:10800000EF14602104703BE5876003E4F587539823
:10801000F74398C0E4FF11D690049AE599F053987D
:10802000EC43A81022E5876003E4F58753D8F343B7
:10803000D8C07F0111D690049AE5D9F053D8EC430B
:10804000A90422EF14605104600201D5E5876003A2
:10805000E4F587E598440860035398F7E59854C021
:1080600064C060034398C090FFE2E054BFF090FF0B
:10807000F2E054BFF090FFE2E04480F043A080E4DF
:10808000FF11D6E4FF1201919003E6E599F05398B1
:10809000FC43981043A81022E5876003E4F587535A
:1080A000D8F343D8C090FFE3E054FEF090FFF3E034
:1080B00054FEF090FFE3E04402F043B0027F011170
:1080C000D67F011201919003E6E5D9F053D8FC4325
:1080D000D81043A90422EF14602C04704CE59D6471
:1080E000CC6003759DCCE59C647F6003759C7FE547
:1080F0009E540F64016006539EF0439E01E59C2050
:10810000E727439C8022E5DD64F3600375DDF3E53A
:10811000DC647F600375DC7FE59E54F06003539E52
:108120000FE5DC20E70343DC8022E4FF11437F01FD
:1081300011437F0211437F030143E4F5B1F5A8F534
:10814000A9F14512AE1D12B08C51C1F14012ADDE45
:10815000F17B312A315BD2AF7F0022E49003E8F05B
:108160007FAAF12D759560E4F596F59753A9FE4326
:10817000B48090040F120925000000E87F33516994
:108180007F057E00121FAA90040F12092500000C23
:10819000847F325169E49003E8F09003E8E0FE75D3
:1081A000F005A424B9F582E43419F583E493FFC003
:1081B00007EE75F005A424BAF582E43419F58312AC
:1081C000090990040F120919D00751699003E8E0DA
:1081D00004F0E0C3942040C27B017A097948E4FDB1
:1081E0007F06FE122023E49003E8F09003E8E0FE0F
:1081F00075F005A42459F582E4341AF583E493FF5D
:10820000C007EE25E025E02448F582E43409F58333
:10821000E0FCA3E0FDA3E0FEA3E0FF90040F120941
:1082200019D00751699003E8E004F0E0C3940540D9
:10823000BA7F647E00121FAA90040F120925000065
:1082400000357F3051697F55F12D90040F120925BB
:1082500000A000C17F3151697FF47E01121FAAE4A2
:10826000F59775960843A9012290040EEFF0A3E05C
:10827000FCA3E0FDA3E0FEA3E0FFA3120919E4F5CF
:10828000917F06FE123221C2AF900414E0F592A352
:10829000E0F593A3E0F5940000000000000000006A
:1082A000000000000000000000000000000000903E
:1082B000040EE04480F5917F067E00123221D2AF99
:1082C000227B017A03790390066EE4F0A3740EF02A
:1082D000E4FD122CD17B017A02798890066EE4F0DD
:1082E000A3743AF0E4FD122CD17B017A0179E49079
:1082F000066EE4F0A37481F0E4FD122CD17B017AC8
:1083000003796B90066EE4F0A37410F0E4FD122C78
:10831000D17B017A00790890066EE4F0A37408F02E
:10832000E4FD122CD17B017A00790090066EE4F016
:10833000A37408F0E4FD122CD17B017A0279C2907B
:10834000066EE4F0A3740AF0E4FD122CD17B017AEE
:108350000279CC90066EE4F0A37429F0E4FD122CAF
:10836000D17B017A02797F90066EE4F0A37409F064
:10837000E4FD122CD19003107401F012B63E12B637
:10838000E2F17C12B46C12B37012AAD012953DE4E3
:108390009008A9F0900309E054FBF0E4900237F054
:1083A000900303E04401F090030CE04403F09001DB
:1083B000E4E0FF7E007C037DE81206FB7C017DF497
:1083C00012070DE4FCFD90023012091990030E749F
:1083D00004F09001E4E0900228F0900229F07B0183
:1083E0007A037906E4FD7F0FFE122023EF6005E497
:1083F000900306F0E4900456F0A3F07B017A047930
:108400003DFD7F11FE122023900306E030E56D7BD9
:10841000017A04794D1234B390045C120919900466
:108420005CE0FCA3E0FDA3E0FEA3E0FFEC4D4E4FBB
:108430006037900458E0F8A3E0F9A3E0FAA3E0FB6A
:10844000C31208C6400F9004567401F0900306E072
:1084500030E4298021E4900456F0A3F0900306E074
:1084600054DFF0E054EFF080139004567401F09064
:108470000306E030E4069004577401F07B017A04AF
:10848000793D1234B390045C12091990045CE0FC4D
:10849000A3E0FDA3E0FEA3E0FF900458E0F8A3E012
:1084A000F9A3E0FAA3E0FBC31208C65002A1B490FE
:1084B000030AE04401F07B017A0479411234C1904F
:1084C000045812091990045CE0FCA3E0FDA3E0FE4F
:1084D000A3E0FF900458E0F8A3E0F9A3E0FAA3E0DA
:1084E000FBC31208C65002A1AB90030AE020E104CE
:1084F000E04402F0E4FFFEFDFC90045CE0F8A3E041
:10850000F9A3E0FAA3E0FBC31208C66002A19590AC
:10851000030AE020E204E04404F07B017A0379637B
:108520001234C1900458120919E4FFFEFDFC9004B6
:1085300058E0F8A3E0F9A3E0FAA3E0FBC31208C6F1
:10854000600D90030AE020E30DE04408F0800790FE
:10855000030AE054F7F07B017A0479491234C190A0
:10856000045C12091990045CE0FCA3E0FDA3E0FEAA
:10857000A3E0FF900458E0F8A3E0F9A3E0FAA3E039
:10858000FBC31208C6900306E040054420F0803289
:1085900054DFF0802D90030AE054F7F0900306E0DA
:1085A00054DFF090030AE054FB800F90030AE0547C
:1085B000E1F0800E90030AE054E0F0900306E054EE
:1085C000EFF0900456E0B40107900306E04420F079
:1085D000900457E0B40107900306E04410F09003C4
:1085E00006E030E504E04410F07B017A037906E40C
:1085F000FD7F0FFE121BD590030BE030E0099003C6
:1086000004E020E002E12C900283E06002E12C9083
:10861000030AE020E52AE030E107900306E030E2BB
:108620001F90030AE030E207900306E030E3119068
:108630000306E020E50AE020E406E020E102C1F0C4
:1086400090030AE030E517128FE190030AE054DF4F
:10865000F0900309E04420F0A3E04480F02290036E
:108660000AE030E70B900309E030E502E12CC1FE9F
:10867000900306E020E048900309E030E50CE0209C
:10868000E502E12CE020E602E12C1248759002831D
:108690007458F0900306E020E1147B017A097936E2
:1086A00090066EE4F0A37404F07DFF122CD17F04D9
:1086B000129000900309E04420F0E054BFF02290B3
:1086C0000309E030E56612486C9002837458F07F2D
:1086D00005129000900306E054FDF0900309E05469
:1086E000DFF07B017A037906E4FD7F0FFE021BD5E4
:1086F00090030AE030E712900309E020E52E128F84
:10870000E1900309E04420F022900309E030E51CE9
:10871000900306E054FDF0900309E054DFF01248A6
:108720006C9002837458F07F0512900022EFB455CC
:108730000443958022E4F595F596F59753A9FE221A
:10874000E4FF0247AE53A9DF75E755E4F5C675E7C8
:1087500055F5C775E75575C78475E75575B3017548
:10876000E755F5B4129C5BBF010312B086E5C73034
:10877000E6037F012253A9DF7F0022229003E074E9
:1087800001F0E49003E2F0A3F09003E1F09003E144
:10879000E0F9C394045045E975F005A42472F5820C
:1087A000E4341A128D859003E41209199003E1E074
:1087B00075F005A42473F582E4341AF583120909CF
:1087C0009003E4E0F8A3E0F9A3E0FAA3E0FBC3120E
:1087D00008C670089003E1E004F080B19003E1E086
:1087E000C3940450030288B5E49003E1F09003E1E0
:1087F000E0F9C394205045E975F005A424B9F58249
:10880000E43419128D859003E41209199003E1E014
:1088100075F005A424BAF582E43419F58312090928
:108820009003E4E0F8A3E0F9A3E0FAA3E0FBC312AD
:1088300008C670089003E1E004F080B19003E1E025
:10884000C394204070F10BEF64016069E49003E190
:10885000F09003E1E0F9C39405504CE975F005A4EC
:108860002459F582E4341AB1859003E41209199071
:1088700003E1E025E025E02448F582E43409F583AE
:10888000E0FCA3E0FDA3E0FEA3E0FF9003E4E0F83A
:10889000A3E0F9A3E0FAA3E0FBC31208C6700890B6
:1088A00003E1E004F080AA9003E1E0C394054005F1
:1088B000E49003E0F09003E0E0B40109900310E0DD
:1088C000700312815B7B017A09793A900946E0FFD7
:1088D000A3E0900669CFF0A3EFF07D0C121E76EFB7
:1088E00060117B017A09793AE4FD7F08FE122023AA
:1088F0007F01227F002211C5E49003DFF09003DFA7
:10890000E0FFC394055026EF901A8C93FF7E00B1D0
:10891000949003DFE025E025E024E0F582E43403D1
:10892000F5831209199003DFE004F080D0E4FFFE24
:10893000FDFC90093AE0F8A3E0F9A3E0FAA3E0FB1C
:10894000C31208C660549003E0E0FCA3E0FDA3E07E
:10895000FEA3E0FFE4120499E4FBFA7920784112C7
:1089600002F3C004C005C006C00790093AE0FCA3AA
:10897000E0FDA3E0FEA3E0FFE4120499A804A9052A
:10898000AA06AB07D007D006D005D0041203FC120C
:1089900004D7900311120919800A900311120925B6
:1089A00000000000E47F0AFEFDFC900311E0F8A344
:1089B000E0F9A3E0FAA3E0FB12078E7B017A0079CD
:1089C0001C90045C7404F01237AB900311E0FCA31C
:1089D000E0FDA3E0FEA3E0FF7B017A00792C900488
:1089E0005C7404F01237ABE4FFFEFDFC90093EE03E
:1089F000F8A3E0F9A3E0FAA3E0FBC31208C67002F3
:108A000041869003E4A3E0FDED5480FDED602590E8
:108A100003E4A3E0FDA3E0FEA3E0FF74FFFC120863
:108A2000ABEF2401FFE43EFEE43DFDE43CFC90039B
:108A3000E41209199003E4E0FCA3E0FDA3E0FEA327
:108A4000E0FFE4120499E4FBFA797A78441202F325
:108A5000C004C005C006C00790093EE0FCA3E0FDCD
:108A6000A3E0FEA3E0FFE4120499A804A905AA0666
:108A7000AB07D007D006D005D0041203FC1204D7F0
:108A8000900331120919900331E0FCA3E0FDA3E04B
:108A9000FEA3E0FF7B017A00794890045C7404F047
:108AA0001237AB900331E0FCA3E0FDA3E0FEA3E0AE
:108AB000FF7B017A00794C90045C7404F01237ABB0
:108AC000E4FFFEFDFC900942E0F8A3E0F9A3E0FA20
:108AD000A3E0FBC31208C660529003E8E0FCA3E0E9
:108AE000FDA3E0FEA3E0FFE4120499E4FBFA797A27
:108AF00078441202F3C004C005C006C007900942C2
:108B0000E0FCA3E0FDA3E0FEA3E0FFE4120499A8CB
:108B100004A905AA06AB07D007D006D005D00412D9
:108B200003FC1204D7900321120919900321E0FCE1
:108B3000A3E0FDA3E0FEA3E0FF7B017A00793C9077
:108B4000045C7404F01237AB9003ECA3E0FDED5429
:108B500080FDED60259003ECA3E0FDA3E0FEA3E023
:108B6000FF74FFFC1208ABEF2401FFE43EFEE43D7E
:108B7000FDE43CFC9003EC1209199003E4E0FCA333
:108B8000E0FDA3E0FEA3E0FFE41204999003F812D5
:108B900009199003F8E0FCA3E0FDA3E0FEA3E0FFC9
:108BA000A804A905AA06FB1202F39003F8120919FA
:108BB0009003ECE0FCA3E0FDA3E0FEA3E0FFE412E1
:108BC00004999003F41209199003F4E0FCA3E0FD6A
:108BD000A3E0FEA3E0FFA804A905AA06FB1202F386
:108BE0009003F41209199003F8E0FCA3E0FDA3E060
:108BF000FEA3E0FF9003F4E0F8A3E0F9A3E0FAA3FA
:108C0000E0FB1202029003F81209199003F8E0FC4D
:108C1000A3E0FDA3E0FEA3E0FF120EB49003F81260
:108C20000919E4FFFEFDFC9003E4E0F8A3E0F9A3DA
:108C3000E0FAA3E0FBC31208C66033E47FE87E03DA
:108C4000FDFC9003E4E0F8A3A3A3E012078EE41276
:108C500004999003F8E0F8A3E0F9A3E0FAA3E0FB9D
:108C60001203FC1204D7900341120919800A9003E1
:108C700041120925000003E8900341E0FCA3E0FD58
:108C8000A3E0FEA3E0FF7B017A00795890045C74B6
:108C900004F01237AB900341E0FCA3E0FDA3E0FE3B
:108CA000A3E0FF7B017A00795C90045C7404F0120D
:108CB00037ABE4FFFEFDFC9003F0E0F8A3E0F9A37E
:108CC000E0FAA3E0FBC31208C660309003F0E0FCBA
