:020000040000FA
:10000000020B79023D122222023430023D6CEF24B1
:0E0010000A83900100730A2D507322023D3FB7
:03002300022A2A84
:03002B00023E3260
:03003300023E5F2B
:03003B00023E8CF6
:03004300023EE991
:10004B00022B8201020A0B09030401020A0B0903AA
:07005B0004900536E0FF22CE
:0E006300023F27E4FF122E03122F5302274DF7
:10007300023F54900CD21208FD7810EC4D4E4F7095
:10008300047CA57DA5C3EC13FCED13FDEE13FEEF7D
:1000930013FF5010EC64CCFCED644CFDEE644EFE9B
:1000A300EF64CEFFD8DF900CD2120919EE547FFE15
:1000B30022900CD2EEF0EFA3F0A374A5F0A3F022EC
:1000C300300100000C0333020012300004002C3412
:1000D3000006000E1D0008000C1E000A000C0002A2
:1000E300060A0E050204040404900CE27401F09065
:0A00F3000CE2E0FF14F0EF70F622BB
:10010000C0087401C0E0C082C08375080AC0F085D1
:10011000A8F0C2AF75B75575B61175B70085F0A8D0
:10012000D0F022C0087401C0E0C082C08375082DE1
:10013000C0F085A8F0C2AF75B75575B61175B70098
:1001400085F0A8D0F022C0087401C0E0C082C0834E
:10015000750850C0F085A8F0C2AF75B75575B622C6
:1001600075B70085F0A8D0F022C0087401C0E0C0C7
:1001700082C083750873C0F085A8F0C2AF75B7550B
:1001800075B63375B70085F0A8D0F02290800021B5
:10019000469082BF2146908402214690869921464E
:1001A00090E10C214690C662214690F4352146909C
:1001B000F22F2146909B41212390813A212390A048
:1001C0006B2123908043212390800021239091353F
:1001D000212390992421239086F7212390ABCF21CE
:1001E00023908A582123908FDC2123908419212386
:1001F00090938C212390BB9C212300020543E8644B
:1002000080F8E933E83360110460F0ED33EC3370CB
:1002100009E8FCE9FDEAFEEBFF220460DED3EB9F78
:10022000EA9EE99DE8C2E78CF0C2F795F0400CE841
:10023000CCF8E9CDF9EACEFAEBCFFB12050E85D06A
:10024000F05804700320D5B3E80470075002B2D50B
:1002500002054D92D5EC0460F7E4CCC0E0C398F8F9
:10026000603B94186008400DD0E0FB020525E4FBDC
:10027000FAC9FC8028E830E406E4C9FBE4CAFCE8DB
:1002800030E305E4C9CACBFCE854076010F8C3E9C1
:1002900013F9EA13FAEB13FBEC13FCD8F130F52F4A
:1002A000C3E49CFCEF9BFFEE9AFEED99FDD0E0FBD2
:1002B000EF4E4D4C701222DB0302054AEC2CFCEF92
:1002C00033FFEE33FEED33FDED30E7EB020525EFB6
:1002D0002BFFEE3AFEED39FDD0E0FB50130BBB00D7
:1002E0000302054DED13FDEE13FEEF13FFEC13FCBF
:1002F000020525EC4D6011E8497017ED33EC33042D
:10030000600DE4FCFFFEFD22E933E8330470F802DF
:10031000054312050E58046009E4CC2481500628D8
:10032000500902054D28400302054AC0E0EB4A701F
:1003300044B98006D0E0FB020539EF4E701CBD8049
:1003400008EBFFEAFEE9FD80EBE98DF0A4FEE5F0A5
:100350000203DCE9CDF9EAFEEBFFEF89F0A4FCE54E
:10036000F0CE89F0A42EFFE435F0CD89F0A42DFE67
:10037000E435F08067EF4E7005BD80D780C3EF8B0A
:10038000F0A4ACF0EE8BF0A42CFCE435F0F8EF8A8E
:10039000F0A42CE5F038FCE433CB8DF0A42CFCE584
:1003A000F03BF8EE8AF0A42CFCE5F038F8E433CF0B
:1003B00089F0A42CFCE5F038CF3400CE89F0A42FCE
:1003C000FFE5F03EFEE433C98DF0A42EFEE5F039E2
:1003D000CD8AF0A42FFFE5F03EFEE43DFD33D0E0F2
:1003E000FB50070BBB000F02054DEC2CFCEF33FF5D
:1003F000EE33FEED33FD02052502054DEC5D046094
:1004000005E85904700302054312050E580460F60E
:10041000EC4860F2EC7004FDFEFF22C860DB248132
:10042000C85009C3986002500602054A9850CAF5A0
:1004300082E9294B4A7005AB8202053975F0007CD0
:100440001A7880C3EF9BEE9AED99400DC3EF9BFFA6
:10045000EE9AFEED99FDE842F0DC23ACF0D0E0FF2F
:10046000D0E0FED0E0FDAB8220E7101BEB60BAECE1
:100470002CFCEF33FFEE33FEED33FD020525E803E0
:10048000F830E705C0F075F000EF2FFFEE33FEED1A
:1004900033FD40B830E7C280AA75F020800E75F0B9
:1004A00010800575F0087D007E007F003392D53006
:1004B000D5031208B8EC334010EF33FFEE33FEEDF6
:1004C00033FDEC33FCD5F0ED22E5F0247EA2D5130C
:1004D000CC92E7CDCEFF22EDD2E7CD33EC3392D5EF
:1004E00024814006E4FFFEFDFC22FCE4CFCECDCC0F
:1004F00024E0501174FF80EDC3CC13CCCD13CDCECE
:1005000013CECF13CF0470F030D5DE0208B8E9D295
:10051000E7C933E833F892D5EDD2E7CD33EC33FCBD
:100520005002B2D522EC30E7100FBF000C0EBE0017
:10053000080DBD00040BEB6014A2D5EB13FCED928B
:10054000E7FD2274FFFCFDFEFF22E480F8A2D574D3
:10055000FF13FC7D80E480EFE709F608DFFA8046B0
:10056000E709F208DFFA803E88828C83E709F0A36E
:10057000DFFA8032E309F608DFFA8078E309F2084F
:10058000DFFA807088828C83E309F0A3DFFA80644D
:1005900089828A83E0A3F608DFFA805889828A83F9
:1005A000E0A3F208DFFA804C80D280FA80C680D4C3
:1005B000806980F28033801080A680EA809A80A8CB
:1005C00080DA80E280CA803389828A83ECFAE493FD
:1005D000A3C8C582C8CCC583CCF0A3C8C582C8CC8B
:1005E000C583CCDFE9DEE7800D89828A83E493A3AB
:1005F000F608DFF9ECFAA9F0EDFB2289828A83EC98
:10060000FAE0A3C8C582C8CCC583CCF0A3C8C58214
:10061000C8CCC583CCDFEADEE880DB89828A83E44C
:1006200093A3F208DFF980CC88F0EF60010E4E60F2
:10063000C388F0ED2402B4040050B9F582EB240223
:10064000B4040050AF23234582239005A873BB0157
:100650000689828A83E0225002E722BBFE02E3225F
:1006600089828A83E49322BB010CE58229F582E525
:10067000833AF583E0225006E92582F8E622BBFEA4
:1006800006E92582F8E222E58229F582E5833AF53A
:1006900083E49322BB010FF8E58229F582E5833AD2
:1006A000F583E028F0225009C58229F8E58226F674
:1006B00022BBFE09C58229F8E22582F222F8EA254A
:1006C00083F583E9932822BB010689828A83F0227D
:1006D0005002F722BBFE01F322F8BB010DE582298F
:1006E000F582E5833AF583E8F0225006E92582C8D1
:1006F000F622BBFE05E92582C8F222EF8DF0A4A800
:10070000F0CF8CF0A428CE8DF0A42EFE22BC000BDE
:10071000BE0029EF8DF084FFADF022E4CCF875F037
:1007200008EF2FFFEE33FEEC33FCEE9DEC98400516
:10073000FCEE9DFE0FD5F0E9E4CEFD22EDF8F5F0DC
:10074000EE8420D21CFEADF075F008EF2FFFED33E4
:10075000FD4007985006D5F0F222C398FD0FD5F062
:10076000EA22C5F0F8A3E028F0C5F0F8E58215828A
:1007700070021583E038F022A3F8E0C5F025F0F010
:10078000E582158270021583E0C838F0E822E88F10
:10079000F0A4CC8BF0A42CFCE98EF0A42CFC8AF005
:1007A000EDA42CFCEA8EF0A4CDA8F08BF0A42DCC07
:1007B0003825F0FDE98FF0A42CCD35F0FCEB8EF060
:1007C000A4FEA9F0EB8FF0A4CFC5F02ECD39FEE446
:1007D0003CFCEAA42DCE35F0FDE43CFC2275F0088B
:1007E000758200EF2FFFEE33FECD33CDCC33CCC579
:1007F0008233C5829BED9AEC99E58298400CF58294
:10080000EE9BFEED9AFDEC99FC0FD5F0D6E4CEFB05
:10081000E4CDFAE4CCF9A88222B800C1B90059BAF3
:10082000002DEC8BF084CFCECDFCE5F0CBF9781821
:10083000EF2FFFEE33FEED33FDEC33FCEB33FB101B
:10084000D703994004EB99FB0FD8E5E4F9FA227835
:1008500018EF2FFFEE33FEED33FDEC33FCC933C947
:1008600010D7059BE99A4007EC9BFCE99AF90FD851
:10087000E0E4C9FAE4CCFB2275F010EF2FFFEE3371
:10088000FEED33FDCC33CCC833C810D7079BEC9AB0
:10089000E899400AED9BFDEC9AFCE899F80FD5F039
:1008A000DAE4CDFBE4CCFAE4C8F922CFF4CFCEF4FD
:1008B000CECDF4CDCCF4CC22C3E49FFFE49EFEE485
:1008C0009DFDE49CFC22EB9FF5F0EA9E42F0E99D41
:1008D00042F0E89C45F022E8600FECC313FCED13F6
:1008E000FDEE13FEEF13FFD8F122E8600FEFC333E4
:1008F000FFEE33FEED33FDEC33FCD8F122E0FCA338
:10090000E0FDA3E0FEA3E0FF22E493FC740193FD6D
:10091000740293FE740393FF22ECF0A3EDF0A3EEB8
:10092000F0A3EFF022A8828583F0D083D082120951
:100930003C12093C12093C12093CE473E493A3C540
:1009400083C5F0C583C8C582C8F0A3C583C5F0C5FB
:1009500083C8C582C822D083D082F8E49370127411
:100960000193700DA3A393F8740193F5828883E437
:10097000737402936860EFA3A3A380DFD083D08257
:10098000E4937012740193700DA3A393F874019310
:10099000F5828883E4737402936C70127403936D10
:1009A000700C7404936E70067405936F60DDA3A3DE
:1009B000A3A3A3A380CA60240C85303F3106325B19
:1009C000334F3466356D367D3707387F396F417761
:1009D000427C4339553E4930507346714F3F470C76
:1009E0007E0A0F19326496C860E00AE90000000030
:1009F0000A0A0000000101000A0A00010002000AC0
:100A00000E0E00000003010A0E0E00010004001883
:100A10000E0E0000000501180E0E00010006002653
:100A20001616000000070126161600010008003CFB
:100A30000E0E00000009013C0E0E0001000A004AE3
:100A400010100000000B014A10100001000C005AA9
:100A50000D010101000D00670D010101000E007480
:100A600004040101000F0078030300010010007B63
:100A70001B1B00010011009619190001001200AFA4
:100A80000B0B0001001300BA10100101001400CA82
:100A900006060001001500D005050101001600D56D
:100AA00008080001001700DD08080001001800E533
:100AB0001A1A0001001901AC06060001001A01B261
:100AC0003E3E0001001B01921A1A0001000205437C
:100AD00022EDA2E7D2E7F9EC3340F260F3B4FF086D
:100AE000ED547F70E802054DF82481C2E0C0E0F4C7
:100AF0000428FAC313FCED92E7FD900625120919AC
:100B0000EEA2E7E9BA7F02C31334009400FA75F04D
:100B100091A4E5F013F494FE8AF0A433E5F03324B5
:100B20008CD313FDE492E7FE7F007C3F758302ECDB
:100B3000C0E0F8EDC0E0F9EEC0E0FAEFC0E0FB8500
:100B400083F09006251208FD85F0831203FCD0E0A7
:100B5000FBD0E0FAD0E0F9D0E0F8120202ED6480B8
:100B6000FD30E7011CD583C7ED33CC33F8D0E0A2CC
:100B7000E71328C313CC13FD22787FE4F6D8FD7564
:100B8000812012010A020BC3021921E493A3F8E4A5
:100B900093A34003F68001F208DFF48029E493A3D5
:100BA000F85407240CC8C333C4540F4420C88340EE
:100BB00004F456800146F6DFE4800B0102040810BD
:100BC0002040809009B6E47E019360BCA3FF543FAF
:100BD00030E509541FFEE493A360010ECF54C025F5
:100BE000E060A840B8E493A3FAE493A3F8E493A3E5
:100BF000C8C582C8CAC583CAF0A3C8C582C8CAC549
:100C000083CADFE9DEE780BE0706050403020100B0
:100C1000070605040302010007060504030201009C
:100C2000070605040706050403020100070605047C
:100C3000030201000706050403020100030201008C
:100C400080808080808080804040404040404040A4
:100C5000202020202020202010101010020202024C
:100C6000020202020404040404040404080808083C
:100C7000080808081010101001020102000000030B
:100C80000100020102020100030001000302010051
:100C90000506030405060304060504050506040607
:100CA00004060505060403030480200180082010C3
:100CB00002040840022010104001010220100840E8
:100CC0008010020802020401200880011080020145
:100CD0004008044040100801010102020202020221
:100CE00001020202020202010180402010081008E5
:100CF00004020180018040201008100804020180D5
:100D0000018040201008100804020180018040206A
:100D10001008100804020180030000000000000019
:100D200000000001000101010101010101010102B6
:100D30000102020202020202020202030203030390
:100D400003030303030303000102100808101080CB
:100D5000800202400840024040010104012020803E
:100D60002008040404201080010002020301030291
:100D7000000102030002030100000201030300015D
:100D80000201030002010003E00040F0D0701040B7
:100D900020E0F020B0D0801030A0A06060C0C0B0D3
:100DA000509090500030708040F010C0E080802063
:100DB000D04060902010B070F050C0B0903070E023
:100DC00030A0A000506000D00F03010D08040E07F2
:100DD000060F0B020308040E090C070002010D0A9E
:100DE0000C060009050B0A05000D0E08070A0B0189
:100DF0000A03040F0D040102050B08060C07060C7C
:100E000009000305020E0F09A0D000709000E090C9
:100E100060303040F06050A01020D080C05070E0B2
:100E2000B0C040B020F08010D01060A040D0900042
:100E30008060F09030800070B04010F020E0C03052
:100E400050B0A050E02070C0070D0D080E0B030538
:100E50000006060F09000A03010402070802050C38
:100E60000B010C0A040E0F090A03060F0900000605
:100E70000C0A0B01070D0D080F09010403050E0BE9
:100E8000050C02070802040E20E0C0B0402010C08C
:100E90007040A070B0D060108050500030F0F0A0D2
:100EA000D0300090E080906040B0208010C0B070E2
:100EB000A010D0E0702080D0F06090F0C000509082
:100EC00060A030400050E0300C0A010F0A040F020D
:100ED0000907020C0609080500060D01030D040EA2
:100EE0000E00070B05030B0809040E030F02050C87
:100EF000020908050C0F030A070B000E04010A077C
:100F000001060D000B08060D40D0B00020B0E070C7
:100F1000F04000908010D0A030E0C030905070C001
:100F20005020A0F060801060106040B0B0D0D08041
:100F3000C010304070A0E070A090F050600080F0D1
:100F400000E05020903020C00D01020F080D040871
:100F5000060A0F030B0701040A0C090503060E0B12
:100F60000500000E0C09070207020B01040E010721
:100F700009040C0A0E08020D000F060C0A090D00E8
:100F80000F0303050506080BFFF0020027062006E5
:100F900044445359363636202020444C2F540036D2
:100FA00034352D323030372D3134FEFEFEFE6800F0
:100FB00000FFFFFFFFFFFF000068000000000001CE
:100FC00004E601000000040001000100000104E645
:100FD00001000000040001000200000104EA010019
:100FE00000000400010090020101058901000000D9
:100FF00004000100900200010583010000000400CC
:10100000010330060101051D01000000040001027A
:101010008000200105190000040004000104000400
:10102000010103ED000010000600010400040201AC
:1010300003F3000010060600010400040E0103F98A
:101040000000100C060001033001000105D401006E
:101050000000040101033302010105D80100000072
:10106000040101040010010105A1000011000400A9
:1010700001040010020105A5000011040400010490
:101080000010040105A9000011080400010400106B
:10109000030105AD0000110C04000104001005015E
:1010A00005B10000111004000104090B010105B590
:1010B0000000111403000104800010FF0F880100DC
:1010C00000000801000400040DFF0F9A0100000059
:1010D0001001000400040BFF0F90010000000A0142
:1010E0000004000C010000000000120004010004D4
:1010F000000C020000000000120304010004000CB8
:1011000003000000000012060401000400030801AF
:101110000408000019000100000400030201040992
:10112000000019010100000400030101040A00008D
:1011300019020100000400030501040B000019035B
:101140000100000404010101040E00001A00010165
:10115000000404020101042C00001A1E0101000415
:10116000000306010402000010150300010400033F
:10117000070103FF0000101203000102010100013A
:10118000002E010000000200010202010001004DDA
:1011900001000000030001020300000100690100DA
:1011A00000000300010203010001006D01000000C6
:1011B0000300010206000001008A01000000020095
:1011C000010206010001008E010000000200010280
:1011D00080000201009A01000000020001070000E7
:1011E000FF070001FF070101FF070102FF070103DD
:1011F000FF070301FF070002FF200E1E1E18300824
:10120000100404040404161100000000111100B0C1
:10121000990184D401FF8430020C80FA000380FA23
:1012200000000084000084D6960004D6822404DCEA
:10123000010C04DC030C8432010C04D6820004D6B9
:10124000830004D684000082000804D68C0004D6F3
:10125000000004D6880004D6940004D6970000C08D
:10126000000000B0880000B08C0000B0940000B016
:10127000970004B2010C0000000000000000000014
:10128000000000000000000000000102030201064F
:101290000BFFF0FF014348494E54494D0F094B4C99
:1012A000000100000100150101000006000102011B
:1012B00000010A001F030100000B000104010000EF
:1012C0000D000105000000020106060000000301F8
:1012D00020000000000000000000000000000000EE
:1012E00000000000000000000000000000000000FE
:1012F00000000000000000000000000000000000EE
:1013000000000000000000000000000000000000DD
:1013100000000000000000000000000000000000CD
:1013200000000000000000000000000000000000BD
:1013300000000000000000000000000000000000AD
:10134000000000000000000000000000000000009D
:10135000000000000000000000000000000000008D
:10136000000000000000000000000000000000007D
:10137000000000000000000000000000000000006D
:10138000000000000000000000000000000000005D
:10139000000000000000000000000000000000004D
:1013A000000000000000000000000000000000003D
:1013B000000000000000000000000000000000002D
:1013C000000000000000000000000000000000001D
:1013D000000000000000000000000000000000000D
:1013E00000000000000000000000000000000000FD
:1013F00000000000000000000000000000000000ED
:1014000000000000000000000000000000000000DC
:1014100000000000000000000000000000000000CC
:1014200000000000000000000000000000000000BC
:1014300000000000000000000000000000000000AC
:10144000000000000000000000000000000000009C
:10145000000000000000000000000000000000008C
:10146000000000000000000000000000000000007C
:10147000000000000000000000000000000000006C
:10148000000000000000000000000000000000005C
:10149000000000000000000000000000000000004C
:1014A000000000000000000000000000000000003C
:1014B000000000000000000000000000000000002C
:1014C000000000000000000000000000000000001C
:1014D000000000000000000000000000000000000C
:1014E000000000000011892312329B462457AD658D
:1014F0003674BF8C489DC1AF5ABED3CA6CDBE5E9D8
:101500007EF8F7108101083393221A56A5472C75EF
:10151000B7643E9CC98D40BFDBAE52DAEDCB64F9B7
:10152000FFE8762102308B02101399672676AF44CC
:101530003455BDAD4ABCC38E589FD1EB6EFAE7C897
:101540007CD9F53183200A1291031877A7662E54AF
:10155000B5453CBDCBAC429ED98F50FBEFEA66D877
:10156000FDC9744204538D6116709F042015A9278C
:101570003236BBCE4CDFC5ED5EFCD7886899E1AB57
:101580007ABAF35285430C7197601E14A10528376F
:10159000B3263ADECDCF44FDDFEC5698E98960BB37
:1015A000FBAA726306728F4014519D252234AB064C
:1015B0003017B9EF4EFEC7CC5CDDD5A96AB8E38A17
:1015C000789BF17387620E5095411C35A3242A162F
:1015D000B10738FFCFEE46DCDDCD54B9EBA8629AF7
:1015E000F98B7084089581A71AB693C22CD3A5E114
:1015F0003EF0B7084019C92B523ADB4E645FED6DDF
:10160000767CFF94898500B79BA612D2ADC324F1E6
:10161000BFE03618C109483BD32A5A5EE54F6C7DBE
:10162000F76C7EA50AB48386189791E32EF2A7C0C3
:101630003CD1B5294238CB0A501BD96F667EEF4C9E
:10164000745DFDB58BA40296998710F3AFE226D0A6
:10165000BDC13439C3284A1AD10B587FE76E6E5C7E
:10166000F54D7CC60CD785E51EF497802891A1A383
:101670003AB2B34A445BCD695678DF0C601DE92F5E
:10168000723EFBD68DC704F59FE41690A98120B366
:10169000BBA2325AC54B4C79D7685E1CE10D683F3E
:1016A000F32E7AE70EF687C41CD595A12AB0A38243
:1016B0003893B16B467ACF485459DD2D623CEB0E1E
:1016C000701FF9F78FE606D49DC514B1ABA0229226
:1016D000B983307BC76A4E58D5495C3DE32C6A1EFE
:1016E000F10F780101010102020226262626252596
:1016F0002528282828272727101010101111110E2F
:101700000E0E0E0F0F0F0C0C0C0C0D0D0D0A0A0A0D
:101710000A0B0B0B0A100F0E0D0B0C040302010237
:10172000040304030201020403040302010204038C
:10173000040302010204030403020102040304037C
:10174000020102040304030201020403000000007A
:10175000000000000000000104E604020100010096
:10176000000104E6040201000200000104EA040290
:1017700001040004010103ED02000504000401015D
:1017800003EF040001040004020103F30200050456
:101790000004020103F50400010400040E0103F932
:1017A0000200050400040E0103FB04000102800096
:1017B00020010519040401009002000105830402C0
:1017C00001009002010105890402010400100101D9
:1017D00005A1040201040010020105A50402010490
:1017E000090B010105B50304030201010001001DFD
:1017F0000302030202010001003D03030302030090
:10180000000100590304030203010001005D030409
:10181000030206000001007A02030502060100012E
:10182000007E0203050280000201009A0202050404
:1018300000040901009C030003FFFFFFFF000000FC
:1018400000000036000000003700000000380000F3
:1018500000003A000000003B000000003C000000D7
:10186000003D00FD27003E000000003F000000009A
:101870004000000000410000000042000000004461
:101880000000001B4500000000460000000047006B
:101890000001804B000001FF5000000000510000DB
:1018A000000452000000005300000000540000003B
:1018B0000055000000005600000000570000000026
:1018C0005A008000005B007FF547600000055D6105
:1018D000007FF54662000000007C000000807D0073
:1018E00000000048000001823400000000350000C4
:1018F00000003900000000430000001B3000000021
:10190000353100A000C13200000C8433000000E833
:10191000003409350D390C0F0A10091BD3000000E3
:10192000001201B9BF01031201BE31779004B4E087
:10193000F8A3E0F9A3E0FAA3E0FBC31208C6600332
:10194000E4F5B131779004B41209191201DC1201E7
:101950008C1201D71201AF1201B412000680CBF530
:1019600083EF2583F583E0FCA3E0FDA3E0FEA3E085
:10197000FF90060B1209199004B0E0FCA3E0FDA350
:10198000E0FEA3E0FF90067D1209199004ACE0FC94
:10199000A3E0FDA3E0FEA3E0FF900681120919E495
:1019A000FFFEFDFC900681E0F8A3E0F9A3E0FAA3B6
:1019B000E0FBC31208C6703074FFFFFEFDFC90060A
:1019C0007DE0F8A3E0F9A3E0FAA3E0FBC31208C6A8
:1019D0006043E4FFFEFDFC90067DE0F8A3A3A3E0D6
:1019E000C31208C67002802D90067DE0FCA3E0FDC6
:1019F000A3E0FEA3E02401FFE43EFEE43DFDE43C61
:101A0000FCA3E0F8A3E0F9A3E0FAA3E0FBC312080B
:101A1000C66002217790067DE0FCA3E0FDA3E0FE16
:101A2000A3E0FF227B017A05797B7D047C0091870E
:101A3000900581EEF0A3EFF07B017A05797BE4FD60
:101A40007F17FE51647B017A0079107D047C009140
:101A500087900016EEF0A3EFF07B017A007910E496
:101A6000FD7F16FE90098CEDF0A3EBF0A3EAF0A346
:101A7000E9F090098AEEF0A3EFF09009907401F07C
:101A8000E4900992F0A3F0C3EF941CEE940040029E
:101A90008157E4900991F0900991E0FFC3941C40B4
:101AA00002815775F008EFA424E9F582E5F0340AC5
:101AB000F583E0FEA3E0FF90098AE0FCA3E0FDEFE0
:101AC0006D7002EE6C6002814FEDAE047803C3339B
:101AD000CE33CED8F9FF24EFF582740A3EF583E0C9
:101AE0006002617390098DE0FBA3E0FAA3E0F97452
:101AF000EE2FF582740A3EF583E024FEFDE434FF08
:101B0000FC9187900992EEF0A3EFF0900992E0FD2E
:101B100090098AE0FEA3E07803C333CE33CED8F930
:101B200024EEF582740A3EF583E024FEFFE434FFE0
:101B3000FE90098DE0FBA3E0FAA3E0F98F828E838B
:101B4000ED1206D9900992A3E0FD90098AE0FEA368
:101B5000E07803C333CE33CED8F924EEF582740A8D
:101B60003EF583E07E0024FFF582EE34FFF583ED41
:101B70001206D990098AE0FEA3E07803C333CE337E
:101B8000CED8F924EBF582740A3EF583E0FEA3E09B
:101B9000FF90098CE0FD7C00EF2DFFEC3EFEC006BF
:101BA000C007A3E0FBA3E0FAA3E0F990098AE0FEF6
:101BB000A3E07803C333CE33CED8F924EEF5827494
:101BC0000A3EF583E0900CC5F0D007D006124183A1
:101BD000EF60028157900990F090098AE0FEA3E03F
:101BE0007803C333CE33CED8F9FF24F0F582740ADC
:101BF0003EF583E0706174F32FF582740A3EF5833D
:101C0000E0FEA3E0FF90098CE0FD7C00EF2DFFECEF
:101C10003EFEC006C007A3E0FBA3E0FAA3E0F990F4
:101C2000098AE0FEA3E07803C333CE33CED8F9248B
:101C3000F6F582740A3EF583E0900CC5F0D007D02B
:101C400006124183EF60109009907401F0800890B3
:101C50000991E004F04197900990E0FF2291F690FD
:101C60000616E0FF7E00900618EEF0A3EFF0FD9060
:101C70000615E0FFED900618CFF0A3EFF07B017A98
:101C80000679097D0C7C009009D0EBF0A3EAF0A363
:101C9000E9F0A3ECF0A3EDF0E4A3F0A3F09009D3F6
:101CA00074FFF5F012077845F060429009D0E0FB30
:101CB000A3E475F001120778A9F0FA12064EFF901E
:101CC00009D5E0FCA3E0FDED6F25E0FFE433FE74F1
:101CD000E32FF58274143EF583ECFFE493FE740168
:101CE000936FFF9009D5EEF0A3EFF080B09009D587
:101CF000E0FEA3E0FF22900CB5EEF0A3EFF0900C15
:101D0000B7EBF0A3EAF0A3E9F0900CBBE4F0900C81
:101D1000BAE0FFEF70037F0122900CBAE0FF7E0073
:101D2000900CB5E0FCA3E0FDEF2DFFEE3CFED3EF01
:101D300094FFEE940140037F0122900CB5E0FEA3D6
:101D4000E0FFEEFF7E00EF54FFFF900CBCEFF09041
:101D50000CBCE0FFEF25E0FF900CBCEFF0123FFE63
:101D6000900CBCE0FFEF24A0FFD179EF6005D1100B
:101D70007F0122900CB5E0FEA3E0FFD179EF600572
:101D8000D1107F0122123FFE900CBCE0FFEF24A196
:101D9000FFD179EF6005D1107F0122900CB7E0FBF5
:101DA000A3E0FAA3E0F9900CBDEBF0A3EAF0A3E9FD
:101DB000F0900CBCE4F0900CBAE0FFEF14FF900C34
:101DC000BCE0FEEEC39F5024124266900CBDE0FBC7
:101DD000A3E0FAA3E0F9900CBCE0FE8E82758300CC
:101DE000EF1206D9900CBCE004F080CA12430290B6
:101DF0000CBDE0FBA3E0FAA3E0F9900CBCE0FE8E82
:101E000082758300EF1206D9D110900CBBE0FF223F
:101E1000900CE4E4F090FFE8E0FFEF54BFFF90FF88
:101E2000E8EFF0900CE47414F0900CE4E0FFEFD3D2
:101E300094004016E5EC20E61143EC801200EC53D0
:101E4000EC7F900CE4E014F080DF90FFE8E0FFEF1F
:101E50004440FF90FFE8EFF090FFE8E0FFEF4480A0
:101E6000FF90FFE8EFF053ECBF53EC7F1200EC4320
:101E7000EC801200EC43EC4022900CD6EFF0900C7A
:101E8000D7E4F0900CD8E4F090FFE8E0FFEF448056
:101E9000FF90FFE8EFF053EC7F90FFE8E0FFEF44A6
:101EA00040FF90FFE8EFF0900CD8E4F0900CD8E001
:101EB000FFEFC394085030900CD6E0FFEF30E705F9
:101EC00043EC40800353ECBF43EC80900CD6E0FF22
:101ED000EF25E0FF900CD6EFF0123F9953EC7F9086
:101EE0000CD8E004F080C512001A90FFE8E0FFEF84
:101EF00054BFFF90FFE8EFF043EC8012001AE5ECCE
:101F000030E606900CD77401F053EC7F900CD7E0CC
:101F1000FF2290066AE075F00EA424C3F582E5F076
:101F2000340FF583E493FE740193FF7B017A067905
:101F300028E4FD900987EDF0A3EBF0A3EAF0A3E914
:101F4000F0900985EEF0A3EFF090098B7401F0E4B6
:101F5000A3F0A3F09009CEF0A3F0C3EF941CEE948D
:101F600000400302215CE490098CF090098CE0FFB2
:101F7000C3941C400302215C75F008EFA424E9F52A
:101F800082E5F0340AF583E0FEA3E0FF900985E0E6
:101F9000FCA3E0FDEF6D7002EE6C60030221539034
:101FA000098DF0900985E0FEA3E07803C333CE33BA
:101FB000CED8F924EBF582740A3EF583E0FEA3E067
:101FC000FF900987E0FD7C00EF2DFFEC3EFEC00690
:101FD000C0077B017A09798E900985E0FEA3E0783D
:101FE00003C333CE33CED8F924EEF582740A3EF51E
:101FF00083E0900CBAF0D007D00691F6EF64017040
:102000007A900985E0FEA3E07803C333CE33CED8BF
:10201000F9FF24F0F582740A3EF583E0704E74F304
:102020002FF582740A3EF583E0FEA3E0FF90098756
:10203000E0FD7C00EF2DFFEC3EFEC006C0077B01FB
:102040007A09798E900985E0FEA3E07803C333CE48
:1020500033CED8F924F6F582740A3EF583E0900C6D
:10206000BAF0D007D006121CF6BF010F90098DE020
:1020700004F0E0C394035003021FA390098DE0C352
:10208000940340037F0122900985E0FEA3E07803DA
:10209000C333CE33CED8F9FF24EFF582740A3EF570
:1020A00083E0706D74EE2FF582740A3EF583E0FFD5
:1020B000248DF582E43409F583E0FD9009CEE4F047
:1020C000A3EDF0748C2FF582E43409F583E0FE90E3
:1020D00009CEE04EF0A3E0F07B017A09798E9009F9
:1020E00085E0FEA3E07803C333CE33CED8F924EEE7
:1020F000F582740A3EF583E024FEFDE434FFFC1211
:102100001C879009CEE06E7003A3E06F60037F012F
:1021100022900988E0F9A3E0FAA3E09009D3C9F07E
:10212000A3EAF0A3E9F0900985E0FEA3E07803C3F9
:1021300033CE33CED8F924EEF582740A3EF583E02F
:102140009009D6F07B017A09798E317CE490098B75
:10215000F0800990098CE004F0021F6B90098BE07D
:10216000FF22317C9009D37401F0A37404F0A374AE
:10217000FDF0A37404F07B017A0579839009D0EB1C
:10218000F0A3EAF0A3E9F0E4FF9009D6E0FEEFC384
:102190009E502B9009D0E0FBA3E0FAA3E0F98F82D8
:1021A000758300120667FE9009D3E0FBA3E0FAA353
:1021B000E0F98F82758300EE1206D90F80CB229052
:1021C000065DEBF0A3EAF0A3E9F0900664E0FED32D
:1021D000940150037F0122EE24FFFFE434FFFE90C0
:1021E0000663E0FD7C001206FB90065DE0FBA3E0C9
:1021F000FAA3E02FF9EA3EFAC002C001A3E0F9A376
:10220000E0FAA3E09009D3C9F0A3EAF0A3E9F090C3
:102210000663E09009D6F0D001D002317C900664CC
:10222000E0900667F0900667E0FFD39401406E905F
:102230000665E064557009EF1236D9EF6057800CDF
:10224000900667E01236D9EF64016049900667E0B6
:1022500024FEFFE434FFFE900663E0FD7C001206DE
:10226000FB90065DE0FBA3E0FAA3E02FF9EA3EFA5B
:10227000C002C001A3E0F9A3E0FAA3E09009D3C92A
:10228000F0A3EAF0A3E9F0900663E09009D6F0D05D
:1022900001D002317C900667E014F080887F002234
:1022A0009007837401F0A3740AF0A374D1F090072F
:1022B0007EE0900786F090077AE0FBA3E0FAA3E0C7
:1022C000F9900780EBF0A3EAF0A3E9F09009D3744A
:1022D00001F0A37407F0A37491F0A37408F09007C1
:1022E00083E0FBA3E0FAA3E0F9317C900780E0FBF8
:1022F000A3E0FAA3E0F91247DC7B017A0779911297
:102300004855E4900787F0E4900788F0900787E04D
:10231000FF900CD893FE900788E0C39E501C900756
:1023200086E0FDB40103EF60117B017A0779911219
:102330004B8E900788E004F080D29009D37401F0AE
:10234000A37407F0A37489F0A37408F07B017A07E3
:102350007991317C9007AF74FFF0A3740CF0A374F3
:1023600078F0A374FFF0A3740CF0A374A8F0A37426
:1023700006F07B017A07798912487390079C7401F3
:10238000F0A37407F0A37489F0900780E0FBA3E04A
:10239000FAA3E0F9124946E4F5B1900787E004F0AA
:1023A000E0C3941050026107900780E0FBA3E0FABD
:1023B000A3E0F9900799EBF0A3EAF0A3E9F0E4F5C4
:1023C000B190079D04F012064E9007A5F09000040E
:1023D0001206679007A4F09000011206679007A309
:1023E000F09000051206679007A2F0900002120616
:1023F000679007A1F09000061206679007A0F09082
:10240000000312066790079FF0900007120667907E
:10241000079EF0E490079CF07B017A07799E1247B3
:10242000AF900799E0FBA3E0FAA3E0F9A3E0F582FF
:10243000758300EF1206D990079DE025E0F0900724
:102440009CE004F0E0C3940840CEE4F5B12290078C
:102450007D7401F07F0690077AEBF0A3EAF0A3E920
:10246000F0EF640660147B017A0A79D1E4FD7F13F2
:10247000FE121F33BF01037F012290077DE0B402EB
:1024800009A37402F0A314F0800990077E7401F090
:10249000A304F051A09007837401F0A3740AF0A381
:1024A00074D9F090077F51B151A07F002290076C42
:1024B000EBF0A3EAF0A3E9F0A3EDF0D394644003BA
:1024C0007F01229007767401F0A3740AF0A3744F81
:1024D000F09009D37401F0A3740AF0A374E1F0A39F
:1024E0007408F0900770E0FBA3E0FAA3E0F9317CF8
:1024F0007B017A0A79D1E4FD7F13FE121F33BF01FD
:10250000037F0122900776E0F9A3E0FAA3E09009A7
:10251000D3C9F0A3EAF0A3E9F090076FE09009D6E1
:10252000F090076CE0FBA3E0FAA3E0F9317C9007A0
:1025300076E0FBA3E0FAA3E0F990076FE0FFF582F5
:1025400075830074801206D97E00E92FF9EE3AFAFD
:10255000E92401F9E43AFA90098EE4F0A37407F053
:10256000E4FDD19E90076FE0131313541F049007EE
:1025700075F0E4FD74E12DF582E4340AF583C0833F
:10258000C082E0FF900776E0FBA3E0FAA3E0F98DBC
:1025900082758300120667FEEF6ED082D083F00D45
:1025A000EDB408D0E4900774F0900775E014FF9044
:1025B0000774E0C39F506E9007837401F0A3740A00
:1025C000F0A374D1F0A37402F07B017A0A79E1518F
:1025D000C1E4FD74E12DF582E4340AF583C083C0C3
:1025E00082E0FC900774E02401FFE433FEEF7803FF
:1025F000C333CE33CED8F9FFED7A002FFFEA3EFE8B
:10260000900776E0FBA3E0FAA3E0F98F828E8312B5
:1026100006676CD082D083F00DEDB408B6900774D5
:10262000E004F080847B017A0A79E190077D7402EE
:10263000F0E4FF9156900773E06401703B90076CE3
:10264000E0FBA3E0FAA3E0F9A3E0FF7E00E92FF9A5
:10265000EE3AFA900988EBF0A3EAF0A3E9F0A3744C
:1026600004F0A37455F07B017A0A79E112371FBF99
:1026700002037F00227F01227F002290052FE05479
:10268000FDF07B017A0C790A7D041201A57B017AA9
:102690000C790E90098EE4F0A37404F0E4FD900927
:1026A0008AEBF0A3EAF0A3E9F0A3EDF0E4FFFED398
:1026B00090098FE09F90098EE09E401F90098DE069
:1026C000FD90098AE0FBA3E0FAA3E0F98F828E83F4
:1026D000ED1206D90FBF00010E80D422122E4E1229
:1026E0002DA9786E7C067D017BFF7A1379997E0097
:1026F0007F281206289006967401F09009D3F0A363
:102700007406F0A3746EF0A37413F07BFF7A127951
:102710008D317C90069A7401F0A37406F0A3748145
:10272000F0A37406F07B017A0379ED123C5E7B0125
:102730007A06796E7D017F021230F0EF7009900603
:1027400096F090053604F0900696E0FF2278097C1A
:10275000067D017BFF7A1479027E007F64120628D1
:10276000E490066DF012005CEF64046019EF640100
:102770006007E49004E5F0D1E29004E5E0D394B47E
:102780004004E4F0D1E27B017A067909123430EF9B
:10279000703990066DF090066DE0FFC394065023EB
:1027A000E0FE2489F582E43404F583E0FD74092E0B
:1027B000F582E43406F583E0B5050890066DE00483
:1027C000F080D3EFC3940650048000D1DC22E0FFF8
:1027D000A3E0900989CFF0A3EFF07D06900985EB87
:1027E000F0A3EAF0A3E9F0A3EDF0122817EF7003CD
:1027F0007F0122900985E0FBA3E0FAA3E0F9A3E0C2
:10280000FD7C00121C87900989E06E7003A3E06FC5
:102810007F0060027F012290098BEBF0A3EAF0A316
:10282000E9F0E4FFEFC39D501B90098BE0FBA3E0B0
:10283000FAA3E0F98F8275830012066760037F01B7
:10284000220F80E07F0022900600EBF0A3EAF0A3C5
:10285000E9F0E4FFEFC39D501C900600E0FBA3E00D
:10286000FAA3E0F98F82758300120667F460037F94
:1028700001220F80DF7F0022F090060EE0FBA3E034
:10288000FAA3E0F9900003120667FFEFD3946340C8
:10289000037F0022EF75F00A84C454F0FEEF75F058
:1028A0000A84E5F02EFF22AC07AF0511D4AD07AFC7
:1028B0000411D4EF2DFF12064E2FFFE41206C7EFCE
:1028C000C39464400974011206C7749C2FFF80BB37
:1028D000120667FFEFC4540F75F00AA4FEEF540F01
:1028E0002EFF2290098AEBF0A3EAF0A3E9F0E4902E
:1028F0000991F0A3F0900990E0FF900992E0FEC3E7
:102900009F5079EEFDC3EF9DFDE49400FCED24FFA4
:10291000FFEC34FFFE90098AE0FBA3E0FAA3E0F9A4
:102920008F828E83120667FFED24FFFDEC34FFFCDF
:1029300090098DE0FBA3E0FAA3E0F98D828C83126D
:102940000667FD7B017A09799111A7900992E0FD54
:10295000900990E0C39DFDE49400CD24FFCD34FFA9
:10296000FC90098AE0FBA3E0FAA3E0F98D828C8356
:10297000EF1206D9900992E004F001F5229004B01C
:10298000E0FCA3E0FDA3E0FEA3E0FF9005F4120944
:10299000199004ACE0FCA3E0FDA3E0FEA3E0FF90EF
:1029A00005F8120919E4FFFEFDFC9005F8E0F8A314
:1029B000E0F9A3E0FAA3E0FBC31208C6703074FF8D
:1029C000FFFEFDFC9005F4E0F8A3E0F9A3E0FAA314
:1029D000E0FBC31208C66043E4FFFEFDFC9005F473
:1029E000E0F8A3A3A3E0C31208C67002802D9005EF
:1029F000F4E0FCA3E0FDA3E0FEA3E02401FFE43E3D
:102A0000FEE43DFDE43CFCA3E0F8A3E0F9A3E0FA1A
:102A1000A3E0FBC31208C66002217D9005F4E0FC30
:102A2000A3E0FDA3E0FEA3E0FF22C0E0C0F0C0836E
:102A3000C082C0D075D000C000C001C002C003C0B9
:102A400004C005C006C0079005F1E5A7F075A70012
:102A500075B7559005F0E5B6F075B70030993DC2F1
:102A6000999000A3E004F09000A2E0FFA3E0C39FD0
:102A70005024317D9000AE1209199000A3E0247E0D
:102A8000F582E43401F583E0FF30D004D29B80026C
:102A9000C29B8F99800690009F7408F030980BC2FB
:102AA00098AF99AD07E4FF12019675B7559005F000
:102AB000E0F5B675B700A3E0F5A7D007D006D005BE
:102AC000D004D003D002D001D000D0D0D082D083A7
:102AD000D0F0D0E0329004B0E0FCA3E0FDA3E0FE33
:102AE000A3E0FF9006001209199004ACE0FCA3E0FB
:102AF000FDA3E0FEA3E0FF900604120919E4FFFE27
:102B0000FDFC900604E0F8A3E0F9A3E0FAA3E0FBE3
:102B1000C31208C6703074FFFFFEFDFC900600E093
:102B2000F8A3E0F9A3E0FAA3E0FBC31208C66043F0
:102B3000E4FFFEFDFC900600E0F8A3A3A3E0C312AF
:102B400008C67002802D900600E0FCA3E0FDA3E023
:102B5000FEA3E02401FFE43EFEE43DFDE43CFCA3D3
:102B6000E0F8A3E0F9A3E0FAA3E0FBC31208C66013
:102B70000241D5900600E0FCA3E0FDA3E0FEA3E047
:102B8000FF22C0E0C0F0C083C082C0D075D000C0BA
:102B900000C001C002C003C004C005C006C0079049
:102BA00005FDE5A7F075A70075B7559005FCE5B6DE
:102BB000F075B70030D93DC2D990024AE004F090D8
:102BC0000249E0FFA3E0C39F502451D59002551263
:102BD000091990024AE02425F582E43403F583E0E4
:102BE000FF30D004D2DB8002C2DB8FD98006900296
:102BF000467408F030D80BC2D8AFD9AD077F0112A8
:102C0000019B75B7559005FCE0F5B675B700A3E0DC
:102C1000F5A7D007D006D005D004D003D002D0014C
:102C2000D000D0D0D082D083D0F0D0E032E0FCA36E
:102C3000E0FDA3E0FEA3E0FF90060F120919900645
:102C40000FE0FCA3E0FDA3E0FEA3E0FFA3E0F8A3F8
:102C5000E0F9A3E0FAA3E0FBC31208C6900613E074
:102C6000503DF8C000C001C002C00390060FE0F85C
:102C7000A3E0F9A3E0FAA3E0FBC374FF9BFF74FF9A
:102C80009AFE74FF99FD74FF98FCD003D002D00126
:102C9000D000EB2FFFEA3EFEE93DFDE83C8024FC3E
:102CA000A3E0FDA3E0FEA3E0FF90060FE0F8A3E0A1
:102CB000F9A3E0FAA3E0FBC3EF9BFFEE9AFEED99C8
:102CC000FDEC98FCA3120919900617E0FCA3E0FDA7
:102CD000A3E0FEA3E0FF900613E0F8A3E0F9A3E071
:102CE000FAA3E0FBC31208C67F0140027F0022E086
:102CF000FF75F0A7A4248BF582E5F03401F583EF8E
:102D00002583F583E0240AFD900776EBF0A3EAF033
:102D1000A3E9F0E4FFFEEEC39D5018900776E0FBB8
:102D2000A3E0FAA3E0F98E827583001206672FFFF5
:102D30000E80E322F0A3EAF0A3E9F0A37404F07B91
:102D4000017A057983900985EBF0A3EAF0A3E9F015
:102D5000E490098CF090098BE0FFA3E0FEC39F5044
:102D600047EEFD900985E0FBA3E0FAA3E07E002F8B
:102D7000F9EE3AFAE924FFF9EA34FFFAC3E99DF9DA
:102D8000EA9400FA12064EFF900988E0FBA3E0FAED
:102D9000A3E0F990098CE0F582758300EF1206D963
:102DA00090098CE004F080AD229009887401F0A3B2
:102DB0007404F0A37489F0A37406F07B017A03799C
:102DC000EDB14590048E74C0F090069A7401F0A3A2
:102DD0007404F0A3748FF0A37406F07B017A047975
:102DE00089123C5EE490049BF0A3F0A3F0A304F0EE
:102DF000A3E4F0F1537B017A047989E4FD7F1BFEA3
:102E0000021A64900609EFF0E4A3F07B017A0479DA
:102E1000899004A1E0FFA3E0900989CFF0A3EFF02F
:102E20007D181227DCEF7006900609E0701A7B010E
:102E30007A047989E4FD7F1BFE121F33BF010690DF
:102E4000060A7401F01226DC90060AE0FF2290FFC9
:102E5000E3E04440F043B0407F967E00D16C90FFA9
:102E6000E3E04440F053B0BF7FF47E01900777EE7B
:102E7000F0A3EFF0A312092500000000900777E00F
:102E8000FEA3E0FF7C007D131206FBE4FDA3E0F847
:102E9000A3E0F9A3E0FAA3E0FBC31208C65023D1D4
:102EA000C3900779E0FCA3E0FDA3E0FEA3E02401CA
:102EB000FFE43EFEE43DFDE43CFC90077912091975
:102EC00080BA221200071200077F01AE071FEE70C2
:102ED000FA22900720EBF0A3EAF0A3E9F0E4FFEF79
:102EE000C39D5028900720E0FBA3E0FAA3E0F98FF0
:102EF00082758300120667FE540FD394095007EEC3
:102F000054F0949040037F01220F80D37F0022ADC4
:102F100007AC06E4FBFAC3EB9DEA9C5009D1C30B56
:102F2000BB00010A80F022900776EFF030E20280C9
:102F30001790FFE3E04420F053B0DF7F037E00D121
:102F40006C900776E030E00A90FFE3E04420F04325
:102F5000B02022786E7C067D017BFF7A1479667E34
:102F6000007F191206289009D37401F0A37406F0AB
:102F7000A3746EF0A37406F07B017A0479891221A0
:102F80007C9009D37401F0A37406F0A37474F0A3C9
:102F9000740CF07B017A04798F12217C9009D37430
:102FA00001F0A37406F0A37480F0A37403F07B0116
:102FB0007A04799B12217C7B017A06796E12341A8D
:102FC0009004A0E090066EF07B017A06796E900680
:102FD00087EBF0A3EAF0A3E9F0A37401F0788B7C0F
:102FE00006FD7BFF7A1379DA7E007F0512062890B2
:102FF00009D37401F0A37406F0A3748BF090068AD1
:10300000E09009D6F0900687E0FBA3E0FAA3E0F990
:1030100012217C7B017A06798B9006947401F0FF73
:10302000900690EFF0A3EBF0A3EAF0A3E9F0789517
:103030007C067D017BFF7A1279D17E007F641206C7
:10304000289006F97401F0A37406F0A37495F0A318
:103050007401F0900694E0FF601F9009D37401F0B2
:10306000A37406F0A37495F0A3EFF0900691E0FB33
:10307000A3E0FAA3E0F912217C900690E0FF7B0127
:103080007A0679957D0111F0EF70049006FCF090BE
:1030900006FCE0FF22900633EFF0A3EDF0A3EBF087
:1030A000A3EAF0A3E9F078387C067D017BFF7A1370
:1030B00079DF7E007F231206289009D37401F0A3E4
:1030C0007406F0A37438F0900634E09009D6F090BE
:1030D0000635E0FBA3E0FAA3E0F912217C90063369
:1030E000E0FF7B017A067938A3E0900694F0012096
:1030F0009006FDEFF0A3EDF0A3EBF0A3EAF0A3E957
:10310000F0A37401F0A3F0E4A3F0A3F0A3F0A3F004
:1031100078087C077D017BFF7A14797FFE7F64123B
:10312000062890076C7401F0A37407F0A37408F0EC
:10313000900527E030E10281149124BF01037F064E
:1031400022E490076FF090076FE0FFC3940750539D
:10315000EF75F007A424A0F582E43412F583E4931C
:10316000FF9006FDE0FEEFB5063190076FE0FB75BE
:10317000F007A424A1F582E43412F5831209099022
:103180000772120919EB75F007A424A6F582E4343E
:1031900012F583E493900707F0800890076FE0042E
:1031A000F080A390076FE0C3940740028114E4907D
:1031B0000705F0900527E030E1028114900707E051
:1031C0002404F09006FEE0B402069007077404F0B1
:1031D0007B017A07790890098EE4F0A37404F07DEE
:1031E000FE12269E90070C7468F0900707E0900787
:1031F0000DF0E4A3F07B017A07790F90098EF0A31C
:103200007406F07DFF12269EE4900715F0A3F0A34C
:103210007468F09006FEE0900718F0900772E0FCEA
:10322000A3E0FDA3E0FEA3E0FF78181208D7900703
:1032300019EFF0900772E0FCA3E0FDA3E0FEA3E02D
:10324000FF78101208D790071AEFF0900772E0FC91
:10325000A3E0FDA3E0FEA3E0FF78081208D79007E3
:103260001BEFF0900772A3A3A3E090071CF0900956
:10327000D37401F0A37407F0A3741DF0900707E066
:1032800024FC9009D6F09006FFE0FBA3E0FAA3E04F
:10329000F912217C7B017A07790C900707E0240D55
:1032A000FD122D08900707E0FE2419F582E434078B
:1032B000F583EFF0741A2EF582E43407F583741663
:1032C000F0EE2413900706F07F011201C853A9FB0A
:1032D0007F02122F27E4900704F0900706E0FF908A
:1032E0000704E0FEC39F505C74082EF582E43407A7
:1032F000F583E0FF30D004D2DB8002C2DB8FD9E45B
:10330000900770F0A3F030D904C2D98020120007D2
:10331000900771E004F07006900770E004F0C3902D
:103320000771E094D0900770E0940740D9C39007EC
:1033300071E094D0900770E094075008900704E083
:1033400004F0809643D81053A9FB9007067464F0EC
:10335000E4900704F0900706E0FF900704E0C39FA5
:103360005054E4900770F0A3F0900770E0FEA3E0E3
:10337000FFC39440EE941F502C30D819C2D8900748
:1033800004E02408F582E43407F583E5D9F0E490FD
:103390000703F08010900771E004F070069007704A
:1033A000E004F080C4C3EF9440EE941F50089007EF
:1033B00004E004F0809F900703E0700A900702F099
:1033C0009007057403F0900702E070359006FFE067
:1033D000F9A3E0FAA3E09009D3C9F0A3EAF0A3E9C6
:1033E000F090076FE075F007A424A6F582E434128C
:1033F000F583E4939009D6F07B017A07791D1221B9
:103400007C7F04122F27900705E004F0E0C39403AB
:10341000500221B3900702E0FF229006947415F049
:10342000E4FF0120900246E07F01B401027F002208
:103430009006727415F0E4FF90066EEFF0A3EBF0C7
:10344000A3EAF0A3E9F078737C067D017BFF7A1391
:1034500079357E007F641206289006D77401F090BB
:10346000066EE0FF7B017A0679737D0211F0EF7042
:103470002B90066FE0F9A3E0FAA3E09009D3C9F01E
:10348000A3EAF0A3E9F0900672E09009D6F07B0180
:103490007A06797312217CE49006D7F09006D7E083
:1034A000FF22900626E0FF7E007C017DA71206FB2E
:1034B00074982FF974013EFA7B01900668E07E0053
:1034C00029F9EE3AFA7D04900720EBF0A3EAF0A385
:1034D000E9F0A3EDF0E4A3F0900723E0FFC313FEAF
:1034E000A3E0C39E5078900720E0FBA3E0FAA3E09E
:1034F000F9900724E0FEF5827583001206679007B5
:1035000025F0EF24FFFDE434FFFCEEFFC3ED9FFF49
:10351000EC94008F82F583120667FF900724E0F594
:1035200082758300EF1206D9900725E0FF900723EC
:10353000E024FFFDE434FFFCA3E0FBC3ED9BFDECC6
:103540009400FC900720E0FBA3E0FAA3E0F98D8251
:103550008C83EF1206D9900724E004F081D82290E2
:103560000672EDF081389006727401F0FF81389098
:103570000633EBF0A3EAF0A3E9F0A37401F0783787
:103580007C06FD7BFF7A1379C17E007F1912062825
:103590007B017A0679379130900636EFF0702290F1
:1035A0000633E0F9A3E0FAA3E09009D3C9F0A3EA57
:1035B000F0A3E9F0A3740CF07B017A06793D1221A7
:1035C0007C900636E0FF22900626E0FF7E007C011C
:1035D0007DA71206FB74902FF974013EFA7B0190CF
:1035E000066FEBF0A3EAF0A3E9F012064EFF24A960
:1035F000F582E43404F583E0C39403401074A92FEA
:10360000F582E43404F5837403F07F01227B017AB0
:10361000067973E4FD7F12FE121F33BF01037F01A1
:103620002290066FE0FBA3E0FAA3E0F912064EFF3A
:103630007006900672F0801BEFB401089006727459
:1036400003F0800FEFB402089006727406F0800356
:103650007F0122E4FFEF2401FDE433FC90066FE0DC
:10366000FBA3E0FAA3E0F98D828C83120667FE903B
:103670000672E02F2473F582E43406F583E06E6071
:103680003812064EFE24A9F582E43404F583E004E2
:10369000F074A92EF582E43404F583E0C39403406A
:1036A0001512064E25E024CFF582E43404F5837428
:1036B00005F0A374A0F07F01220FEFB403979006EA
:1036C0006FE0FBA3E0FAA3E0F912064E24A9F5820D
:1036D000E43404F583E4F0FF2224FEFFE434FFFE2B
:1036E000900663E0FD7C001206FB90065DE0FBA304
:1036F000E0FAA3E02FF9EA3EFA900988EBF0A3EA9A
:10370000F0A3E9F0900663E090098BF0900666E084
:1037100090098CF0900660E0FBA3E0FAA3E0F9903A
:103720000985EBF0A3EAF0A3E9F0E490098DF090AD
:10373000098BE0FF90098DE0FEC39F4003023843F0
:1037400090098CE06455703A900988E0FBA3E0FA98
:10375000A3E0F98E82758300120667FD900985E06B
:10376000FBA3E0FAA3E0F98E82758300120667FEE0
:10377000D39D40037F0022EEC39D400302383A7F71
:10378000012290098BE024FFFFE434FFFE90098DB5
:10379000E0FDC3EF9DFFEE9400FE900988E0FBA3DF
:1037A000E0FAA3E0F98F828E83120667FF90098BFF
:1037B000E024FFFDE434FFFC90098DE0FBC3ED9BAA
:1037C000FDEC9400FC900985E0FBA3E0FAA3E0F98E
:1037D0008D828C83120667D39F40037F002290095D
:1037E0008BE024FFFFE434FFFE90098DE0FDC3EF82
:1037F0009DFFEE9400FE900988E0FBA3E0FAA3E0B1
:10380000F98F828E83120667FF90098BE024FFFDFB
:10381000E434FFFC90098DE0FBC3ED9BFDEC9400CC
:10382000FC900985E0FBA3E0FAA3E0F98D828C838C
:10383000120667C39F50037F012290098DE004F0B8
:1038400002372F7F022212064EFF900638E4F0A3C3
:10385000EFF0E0F8E4F0E8900638F090000112068E
:1038600067FF900638E0FEA3E04FFF900638EEF0C9
:10387000FEA3EFF02211839007801209197B017AD1
:10388000057983900897EBF0A3EAF0A3E9F0A3127F
:10389000092500000000E490089EF090089AE0FCE2
:1038A000A3E0FDA3E0FEA3E0FF78081208EA900879
:1038B0009A12091990089AE0F8A3E0F9A3E0FAA394
:1038C000E0FBC000C001C002C003900897E0FBA36A
:1038D000E0FAA3E0F990089EE0F5827583001206F5
:1038E00067FFD003D002D001D000EB4FFFEAFEE922
:1038F000FDE8FC90089A12091990089EE004F0E097
:10390000B4049890089AE0FCA3E0FDA3E0FEA3E0D5
:10391000FF22900780EBF0A3EAF0A3E9F0E4900720
:1039200088F0900786E014FF900786E0FEEFC39EC4
:1039300040024105900783E0FBA3E0FAA3E0F98F82
:1039400082758300120667FE900788E02EFDE490E2
:103950000787F0EDC39E50037401F0E4900788F0F0
:10396000900780E0FBA3E0FAA3E0F98F8275830063
:10397000120667FE540FFCED540FFBECC39B503452
:10398000EEC39D900780E0FB500E8F82758300127E
:103990000667FEC3749A8037A3E0FAA3E0F98F822A
:1039A000758300120667C39D24FA8F827583001207
:1039B00006D98044900780E0FBA3E0FAA3E0F98FEA
:1039C00082758300120667FEC39D5015C374A09DC7
:1039D0002E8F827583001206D99007887401F080BB
:1039E00017900780E0FBA3E0FAA3E02FF9E43AFA8E
:1039F00012064EC39D1206C7900787E06004A374A9
:103A000001F01F212822900765EBF0A3EAF0A3E95B
:103A1000F0AB05A37401F0A312092500000001908A
:103A2000076D12092500000000E4900771F0EBD348
:103A300094005002615EEB94054002615EEBF090F1
:103A40000771E0D394005002615E90076DE0F8A327
:103A5000E0F9A3E0FAA3E0FBC000C001C002C0038C
:103A6000900765E0FBA3E0FAA3E0F9900771E0FF9F
:103A70007E00E92FF9EE3AFA90FFFF120667540F25
:103A800075F00A84AFF0E4FCFD900769E0F8A3E06C
:103A9000F9A3E0FAA3E0FB12078ED003D002D00115
:103AA000D000EB2FFFEA3EFEE93DFDE83CFC90072D
:103AB0006D120919900769E0FCA3E0FDA3E0FEA3E5
:103AC000E0FFE47B0AFAF9F812078E900769120901
:103AD0001990076DE0F8A3E0F9A3E0FAA3E0FBC0BA
:103AE00000C001C002C003900765E0FBA3E0FAA399
:103AF000E0F9900771E0FF7E00E92FF9EE3AFA90C5
:103B0000FFFF12066754F0C4540FFFE4FCFD90075A
:103B100069E0F8A3E0F9A3E0FAA3E0FB12078ED076
:103B200003D002D001D000EB2FFFEA3EFEE93DFDBD
:103B3000E83CFC90076D120919900769E0FCA3E0CE
:103B4000FDA3E0FEA3E0FFE47B0AFAF9F812078E7A
:103B5000900769120919900771E014F0413F90072E
:103B60006DE0FCA3E0FDA3E0FEA3E0FF229007844C
:103B7000EBF0A3EAF0A3E9F0900789120919900786
:103B800087E0A3F0900788E0D394005002815DE4C1
:103B90007B0AFAF9F8A3E0FCA3E0FDA3E0FEA3E0B2
:103BA000FF120819AF03900784E0FBA3E0FAA3E03B
:103BB000F9900788E0FD7C00E92DF9EC3AFA90FFD6
:103BC000FFEF1206D9900789E0FCA3E0FDA3E0FE19
:103BD000A3E0FFE47B0AFAF9F812081990078912AA
:103BE0000919900784E0FBA3E0FAA3E0F9900788A5
:103BF000E0FF7E00E92FF9EE3AFAE924FFF9EA3412
:103C0000FFFAC003C002C00112064EFFC007E47BEA
:103C10000AFAF9F8900789E0FCA3E0FDA3E0FEA30F
:103C2000E0FF120819AF03EFC454F0FED0E04ED00D
:103C300001D002D0031206C7900789E0FCA3E0FD83
:103C4000A3E0FEA3E0FFE47B0AFAF9F8120819905A
:103C50000789120919900788E014F0618422900600
:103C600097EBF0A3EAF0A3E9F0E490069EF090064B
:103C70009DE0FFA3E0FEC39F4002A111900697E0E4
:103C8000FBA3E0FAA3E0F98E82758300120667FDBC
:103C9000C4540F90069FF0ED540FA3F0E4FF749FFF
:103CA0002FF582E43406F583E0FEC3940A501074C5
:103CB0009F2FF582E43406F583E02430F08014EE83
:103CC000C39410500E749F2FF582E43406F583E000
:103CD0002437F00FEFB402C690069EE075F002A400
:103CE000FF90069AE0FBA3E0FAA3E02FF9EA35F093
:103CF000FA9009D3EBF0A3EAF0A3E9F0A37402F081
:103D00007B017A06799F12217C90069EE004F08167
:103D10006E22C0D075D000C006C007AFA775A7003F
:103D200075B755AEB675B70075AA0075E80075B7DA
:103D3000558EB675B7008FA7D007D006D0D032C049
:103D4000D075D000C006C007AFA775A70075B755DE
:103D5000AEB675B70053A8F753883F75B7558EB602
:103D600075B7008FA7D007D006D0D032C0E0C0F022
:103D7000C083C082C0D075D000C000C001C002C0E6
:103D800003C004C005C006C0079005EFE5A7F075A5
:103D9000A70075B7559005EEE5B6F075B7005388E6
:103DA000DF758AC0758CE0E5C730E607900527E02F
:103DB0004402F09004ACE0FCA3E0FDA3E0FEA3E02D
:103DC000FFA312091974FFFFFEFDFC9004ACE0F89C
:103DD000A3E0F9A3E0FAA3E0FBC31208C69004AC89
:103DE000501EE0FCA3E0FDA3E0FEA3E02401FFE4FD
:103DF0003EFEE43DFDE43CFC9004AC120919800752
:103E00001209250000000075B7559005EEE0F5B6E3
:103E100075B700A3E0F5A7D007D006D005D004D031
:103E200003D002D001D000D0D0D082D083D0F0D047
:103E3000E032C0D075D000C006C007AFA775A7009C
:103E400075B755AEB675B70053A8DF53C83375B70D
:103E5000558EB675B7008FA7D007D006D0D032C028
:103E6000D075D000C006C007AFA775A70075B755BD
:103E7000AEB675B70053A8BF53C11F75B7558EB600
:103E800075B7008FA7D007D006D0D032C0E0C0836E
:103E9000C082C0D075D000C005C006C007AFA775EE
:103EA000A70075B755AEB675B700AD97759700ED1D
:103EB00030E31D90000AE090000930E205E004F0D4
:103EC000800EE0FD900008E02DF0E004F0A3E4F0A7
:103ED00075B7558EB675B7008FA7D007D006D00539
:103EE000D0D0D082D083D0E032C0E0C083C082C0C6
:103EF000D075D000C006C007AFA775A70075B7552D
:103F0000AEB675B70090FFB6E4F090FFB7F053A9D6
:103F1000FD75B7558EB6F5B78FA7D007D006D0D0B0
:103F2000D082D083D0E032C0D075D000C006C007A8
:103F3000AFA775A70075B755AEB675B70053A9DF23
:103F400075C60075B7558EB675B7008FA7D007D068
:103F500006D0D032C0E0C083C082C0D075D000C0CF
:103F600004C006C007ACA775A70075B755AEB675F7
:103F7000B70090FFD0E054FCF053A9FD75B755AFE2
:103F8000068FB675B700AF048FA7D007D006D00450
:103F9000D0D0D082D083D0E032900CE37401F022F4
:103FA00090FF84E0FFEF54FFFF90FF84EFF090FF5D
:103FB00085E0FFEF54FEFF90FF85EFF090FFE9E012
:103FC000FFEF4401FF90FFE9EFF053EDFE22900C6C
:103FD000DC74FFF0900CDBE4F0900CDCE0FF900C64
:103FE000DBE0FEEEC39F5015F1FE7FA0121E79EFBD
:103FF0007003021E10900CDBE004F080DC22123F04
:10400000A090FFE8E0FFEF4440FF90FFE8EFF043AF
:10401000EC4090FFE8E0FFEF4480FF90FFE8EFF016
:1040200043EC801200EC53ECBF1200EC53EC7F2207
:10403000900CA9EEF0A3EFF0900CABEBF0A3EAF03C
:10404000A3E9F0900CB4E4F0900CAEE0FFEF600B4D
:10405000900CAEE0FFEFD3942040037F0122900C40
:10406000A9E0FEA3E0FFD3EF94FFEE940140037FAD
:104070000122900CAEE0FF7E00900CA9E0FCA3E0D2
:10408000FDEF2DFFEE3CFED3EF94FFEE94004013C6
:10409000900CA9E0FEA3E0FFD3EF94FFEE94005054
:1040A000022177123FFE900CAEE0FF7E00900CA93B
:1040B000E0FCA3E0FDEF2DFFEE3CFED3EF94FFEE1E
:1040C00094005006900CB474A0F0900CA9E0FEA3EC
:1040D000E0FFD3EF94FFEE94004006900CB474A27E
:1040E000F0900CB4E0FF121E79EF6006121E107FF4
:1040F0000122900CA9E0FEA3E0FF121E79EF6006FA
:10410000121E107F0122900CABE0FBA3E0FAA3E0AB
:10411000F9900CB1EBF0A3EAF0A3E9F0900CAFE456
:10412000F0A3E4F0900CAEE0FF7E00900CAFE0FC5A
:10413000A3E0FDC3ED9FEC9E5035900CB1E0FBA3D6
:10414000E0FAA3E0F912064EFF121E79EF600612A4
:104150001E107F0122900CB2E475F00112076290EC
:104160000CB0E004F07006900CAFE004F080B512E3
:104170001E10123FCE80037F01227F0022900CC5CB
:10418000740EF0900CC0EEF0A3EFF0900CC2EBF0C8
:10419000A3EAF0A3E9F0900CC0E0FEA3E0FF900CCE
:1041A000C6EEF0A3EFF0900CC0E0FEA3E0FFEF54EA
:1041B00007FFC374089FFF900CC8EFF0900CC9E490
:1041C000F0900CC8E0FF900CC5E0FEEEC39F500AD3
:1041D000900CC5E0FF900CC8EFF0900CC6E0FEA379
:1041E000E0FF900CC2E0FBA3E0FAA3E0F9900CC959
:1041F000E0FD7C00E92DF9EA3CFA900CC8E0FD9066
:104200000CAEEDF01130EFB401037F0122900CC829
:10421000E0FF900CC9E02FF0900CC9E0FF7E009009
:104220000CC0E0FCA3E0FDEF2DFFEE3CFE900CC6C1
:10423000EEF0A3EFF0900CC9E0FF900CC5E0FEC3D8
:10424000EE9FFF900CC8EFF0900CC8E0FFEFD39406
:10425000084006900CC87408F0900CC8E0FFEF60AE
:104260000221DA7F0022900CDDE4F0900CDE74086D
:10427000F090FFE8E0FFEF4480FF90FFE8EFF09060
:10428000FFE8E0FFEF54BFFF90FFE8EFF053EC7F53
:10429000900CDEE4F0900CDEE0FFEFC39408503F9A
:1042A000123F99900CDDE0FFEF25E0FF900CDDEF71
:1042B000F043EC80E5EC30E60E900CDDE0FFEF44DF
:1042C00001FF900CDDEFF0123F99900CDDE0FF90C4
:1042D0000CDDEFF053EC7F900CDEE004F080B69044
:1042E000FFE8E0FFEF4440FF90FFE8EFF053ECBF42
:1042F00043EC801200EC53EC7F43EC40900CDDE08B
:10430000FF22900CDFE4F0900CE0E4F090FFE8E096
:10431000FFEF4480FF90FFE8EFF090FFE8E0FFEF51
:1043200054BFFF90FFE8EFF053EC7F900CE0E4F017
:10433000900CE0E0FFEFC394085035123F99900CC9
:10434000DFE0FFEF25E0FF900CDFEFF043EC80E5CE
:10435000EC30E60E900CDFE0FFEF4401FF900CDF45
:10436000EFF0123F9953EC7F900CE0E004F080C036
:1043700090FFE8E0FFEF4440FF90FFE8EFF043ECF0
:104380004043EC801200EC53EC7F900CDFE0FF2206
:10439000900CCAEEF0A3EFF0900CCCEDF0900CCDA9
:1043A000EBF0C2AF900CCCE0FF8FEF900CCAE0FEB8
:1043B000A3E0FFEF54FFF5EE900CCAE0FEA3E0FF90
:1043C000EEFF7E008FF775A70175F26E75F3057528
:1043D000F40A75F509900CCDE0FFEFB4680775F6A7
:1043E000060000000075A70075F700D2AF22900903
:1043F00085EEF0A3EFF0A3EBF0A3EAF0A3E9F075EC
:10440000E75575C7840000E5C730E6037FFF2290BB
:104410000535E0646860037FFF2290098AE0FEA30F
:10442000E0FF900986E02FFF900985E03EFED3EF84
:104430009400EE941040037FFF22D390098BE09408
:104440000090098AE094004045900987E0FBA3E0D2
:10445000FAA3E0F912064EFC900985E0FEA3E0FF06
:10446000AD047B687190900986E004F070069009B5
:1044700085E004F0900988E475F001120762900964
:104480008BE024FFF090098AE034FFF080AC7F00DD
:10449000228F828E83E4FFEDB4680DC2AF75A70151
:1044A000E493FFE4F5A7D2AF22900535E04420F075
:1044B0007B017A077985900781E0FCA3E0FD9009F4
:1044C0008A7402F0A3E4F0900988ECF0A3EDF07593
:1044D000E75575C7840000E5C730E6037FFF2290EB
:1044E000098AE0FEA3E0FF900989E02FFF90098888
:1044F000E03EFED3EF9400EE941040037FFF22D302
:1045000090098BE0940090098AE09400403590096E
:1045100088E0FEA3E0FF7D689191EF1206C7740169
:1045200029F9E43AFA900989E004F07006900988C4
:10453000E004F090098BE024FFF090098AE034FF5A
:10454000F080BC7F0022E0FEA3E0FF7B68E4FD90EA
:104550000CCEEEF0A3EFF0900CD0EDF0900CD1EB80
:10456000F075E75575C7840000E5C720E65590054E
:1045700035E0FFEF6468704BC2AF900CD0E0FF8F66
:10458000EF900CCEE0FEA3E0FFEF54FFF5EE900CB1
:10459000CEE0FEA3E0FFEEFF7E008FF775A701756A
:1045A000F2E675F30575F40A75F509900CD1E0FF94
:1045B000EFB4680775F6060000000075A70075F7F0
:1045C00000D2AF2290FFE5E054FBF090FFF5E0440D
:1045D00004F022B1C4E5E920E2299004A4E004F04B
:1045E00070069004A3E004F0C39004A4E094FA9051
:1045F00004A3E09400401AE4F0A3F0900531E044F5
:1046000001F022E49004A3F0A3F0900531E054FE01
:10461000F02290FFE2E054FBF090FFF2E04404F05F
:1046200022D112900532E030E215E5A030E202C15D
:10463000C0E04401F0E054FBF0E4900458F0229014
:104640000532E030E061E5A020E26A900458E00421
:10465000F0E0FF7408D39F5067900532E04402F009
:10466000E054FEF0E4900458F0900530E04408F087
:104670009004541209250000003C90044C741EF074
:10468000900459E0700B900460F09004597468F045
:1046900022900460E004F090040BE0FF900460E0DE
:1046A000C39F401CE4F022900532E030E107E5A012
:1046B00030E20D8000E4900458F09005327404F06C
:1046C00022EF146021047024F12E7FFFD1ED43D13D
:1046D0008090FFE1E04408F05390F790FFE9E04458
:1046E00002F053EDFD22F12EE4FFD1ED22E4FE7441
:1046F000612EF582E43404F583EFF00EEEB428EF7A
:104700007F007E25E4FD74612DF582E43404F58399
:10471000E0FCEF2DF582E43EF583ECF074612DF5BD
:1047200082E43404F583E4F00DEDB428D92253D1AA
:104730007FF15290FF8074F0F090FF817403F0904D
:10474000FF8274FEF090FF837401F090FF8574FC8B
:10475000F022E5D154706430600653D18F43D130DC
:10476000E5D154076407600653D1F843D107E5D279
:1047700054076402600653D2F843D202225380FDEC
:1047800000004380042243800200005380FB225338
:1047900080FD005380FB229004A7E0600FE014F03E
:1047A000E0FF7E00BE0207BF40048000F18F229030
:1047B000079DE0FD9007A6EDF0E4FF7E08EF25E001
:1047C000FFEE7C0024FFF582EC34FFF583120667D0
:1047D000FD9007A6E05D60010FDEE222900799EBF5
:1047E000F0A3EAF0A3E9F090079D7440F0E490078D
:1047F0009CF090079CE0FFC394085037EFB404048A
:10480000A37480F0900799E0FBA3E0FAA3E0F9120B
:1048100047AF90079CE0249EF582E43407F583EFD0
:10482000F090079DE0FF1313543FF090079CE004C5
:10483000F080BF900799E0F9A3E0FAA3E09009D3D4
:10484000C9F0A3EAF0A3E9F0A37408F07B017A07AA
:10485000799E02217C9007AF74FFF0A3740CF0A343
:104860007408F0A374FFF0A3740CF0A37440F0A3D9
:104870007407F09007ACEBF0A3EAF0A3E9F0E4F5DD
:10488000209007B604F09007B5E075F008A4240165
:10489000FFE435F0FEA3E0FDC39FEE6480F8748072
:1048A00098507DE52025E0F520EDFF7E0024FFFDFA
:1048B000EE34FFFC9007AFE0FBA3E0FAA3E0F98D34
:1048C000828C83120667FD9007ACE0FBA3E0FAA39D
:1048D000E0F98D82758300120667FDEF24FFFFEE7D
:1048E00034FFFE9007B2E0FBA3E0FAA3E0F98F8269
:1048F0008E831206675D600205209007B6E0FF54C4
:10490000077015EF131313541F24B6F582E4340710
:10491000F583E520F0E4F5209007B6E004F0018689
:104920009007ACE0F9A3E0FAA3E09009D3C9F0A3A3
:10493000EAF0A3E9F09007B5E09009D6F07B017AA0
:104940000779B702217C900799EBF0A3EAF0A3E97D
:10495000F02404F9E43AFA9009D37401F0A374073F
:10496000F0A374A0F0A37404F012217C9007AF743C
:10497000FFF0A3740DF0A37418F0A374FFF0A374F8
:104980000CF0A374E8F0A37406F07B017A0779A019
:104990001173E490079FF090079FE0FF24A0F58239
:1049A000E43407F583C083C082E0FE90079CE0FBFF
:1049B000A3E0FAA3E0F98F82758300120667FFEE89
:1049C0006FD082D083F090079FE004F0E0B406C778
:1049D000E490079FF090079FE0FFC39402400241DC
:1049E000FDE0FE75F003A424A0F582E43407F5830E
:1049F000E0FDC45430FCEE75F003A424A1F582E47C
:104A00003407F583E0C4540F4CF520ED1313543FE5
:104A1000FE90079FE0FD75F000A42488F582E5F084
:104A2000340DF583ED2583F583E5822EF582E4359B
:104A300083F583E493FE75F000EDA424C8F582E5C8
:104A4000F0340DF583ED2583F583E5822520F5828D
:104A5000E43583F583E493FDEE4DFE90079FE0FD82
:104A600025E024A8F582E43407F583EEF0ED75F037
:104A700003A424A1F582E43407F583E025E025E0D2
:104A8000543FFEED75F003A424A2F582E43407F54B
:104A900083E0FDC4131354034EF520ED543FFE9004
:104AA000079FE0FD75F000A42448F582E5F0340E80
:104AB000F583ED2583F583E5822EF582E43583F5D4
:104AC00083E493FE75F000EDA42408F582E5F0344C
:104AD0000EF583ED2583F583E5822520F582E43507
:104AE00083F583E4934EFEEF25E024A9F582E434B8
:104AF00007F583EEF090079FE004F021D59007AF13
:104B000074FFF0A3740DF0A37468F0A374FFF0A316
:104B1000740DF0A37448F0A37404F07B017A077954
:104B2000A81173E490079FF090079FE0FFC39404DF
:104B3000505B7E00EF2404FDEE33FC900799E0FB10
:104B4000A3E0FAA3E0F98D828C83120667F520902A
:104B5000079FE0FDF582758300120667FC74A82D9F
:104B6000F582E43407F583E06CFD74042FF582E4EC
:104B700033F583ED1206D990079FE0F58275830027
:104B8000E5201206D990079FE004F0809B22900751
:104B900099EBF0A3EAF0A3E9F0A3EDF012064E9032
:104BA000079DF090000112066790079EF0900002AA
:104BB00012066790079FF090000312066754F0906A
:104BC00007A0F0BD023390079DE0FCA3E0FDA3E049
:104BD000FEA3E0FF78011208EA90079D12091990E0
:104BE0000799E0FBA3E0FAA3E0F912064E30E74490
:104BF0009007A0E04410F0803B90079DE0FCA3E00C
:104C0000FDA3E0FEA3E0FF78011208D790079D12F4
:104C100009199007A0E054F0F0900799E0FBA3E099
:104C2000FAA3E0F990000312066730E40790079DAD
:104C3000E04480F0900799E0FBA3E0FAA3E0F9904C
:104C40000003120667540F9007A1F09000041206AB
:104C5000679007A2F09000051206679007A3F090F6
:104C600000061206679007A4F090079CE0640270AB
:104C70003D9007A1E0FCA3E0FDA3E0FEA3E0FF78E8
:104C8000011208EA9007A11209199007A1E0540F38
:104C9000F0900799E0FBA3E0FAA3E0F9900003127B
:104CA000066730E33D9007A4E04401F080349007AC
:104CB000A1E0FCA3E0FDA3E0FEA3E0FF7801120861
:104CC000D79007A1120919900799E0FBA3E0FAA376
:104CD000E0F990000612066730E0079007A1E04473
:104CE00008F09007A0E0FFA3E0FEEF4E9007A0F0D1
:104CF0009007A2E09007A1F09007A3E09007A2F030
:104D00009007A4E09007A3F0900799E0F9A3E0FAD8
:104D1000A3E09009D3C9F0A3EAF0A3E9F0A37407D4
:0A4D2000F07B017A07799D02217CE7
:10800000EF14602104703BE5876003E4F587539823
:10801000F74398C0E4FF11D6900776E599F053989E
:10802000EC43A81022E5876003E4F58753D8F343B7
:10803000D8C07F0111D6900776E5D9F053D8EC432C
:10804000A90422EF14605104600201D5E5876003A2
:10805000E4F587E598440860035398F7E59854C021
:1080600064C060034398C090FFE2E054BFF090FF0B
:10807000F2E054BFF090FFE2E04480F043A080E4DF
:10808000FF11D6E4FF12019190060FE599F0539885
:10809000FC43981043A81022E5876003E4F587535A
:1080A000D8F343D8C090FFE3E054FEF090FFF3E034
:1080B00054FEF090FFE3E04402F043B0027F011170
:1080C000D67F0112019190060FE5D9F053D8FC43F9
:1080D000D81043A90422EF14602C04704CE59D6471
:1080E000CC6003759DCCE59C647F6003759C7FE547
:1080F0009E540F64016006539EF0439E01E59C2050
:10810000E727439C8022E5DD64F3600375DDF3E53A
:10811000DC647F600375DC7FE59E54F06003539E52
:108120000FE5DC20E70343DC8022E4FF11437F01FD
:1081300011437F0211437F030143E4F5B1F5A8F534
:10814000A9D1C1129EA712A07151D7D1BC129E68AD
:10815000517C312A315BD2AF7F0022E4900611F0CE
:108160007FAA5169759560E4F596F59753A9FE438A
:10817000B48090064C120925000000E87F33517F3F
:108180007F057E00122E6C90064C12092500000C13
:10819000847F32517FE4900611F0900611E0FE7565
:1081A000F005A42443F582E43418F583E493FFC07A
:1081B00007EE75F005A42444F582E43418F5831223
:1081C000090990064C120919D007517F900611E059
:1081D00004F0E0C3942040C27B017A0C7968E4FD8E
:1081E0007F06FE121F33E4900611F0900611E0FEA8
:1081F00075F005A424E3F582E43418F583E493FFD5
:10820000C007EE25E025E02468F582E4340CF58310
:10821000E0FCA3E0FDA3E0FEA3E0FF90064C120902
:1082200019D007517F900611E004F0E0C394054097
:10823000BA7F647E00122E6C90064C120925000055
:1082400000357F30517F7F55516990064C120925CA
:1082500000A000C17F31517F7FF47E01122E6CE4BB
:10826000F59775960843A90122EFB455044395800C
:1082700022E4F595F596F59753A9FE222280EA901F
:10828000064BEFF0A3E0FCA3E0FDA3E0FEA3E0FFBC
:10829000A3120919E4F5917F06FE122F0FC2AF90C9
:1082A0000651E0F592A3E0F593A3E0F594000000F9
:1082B00000000000000000000000000000000000BE
:1082C000000000000090064BE04480F5917F067EA0
:1082D00000122F0FD2AF227B017A05792790098EE9
:1082E000E4F0A37410F0E4FD12269E7B017A047979
:1082F000AC90098EE4F0A3743AF0E4FD12269E7B64
:10830000017A04790890098EE4F0A37481F0E4FD09
:1083100012269E7B017A05799190098EE4F0A37470
:1083200010F0E4FD12269E7B017A00790890098EF8
:10833000E4F0A37408F0E4FD12269E7B017A007934
:108340000090098EE4F0A37408F0E4FD12269E7BF1
:10835000017A0479E690098EE4F0A3740AF0E4FD52
:1083600012269E7B017A0479F090098EE4F0A374C2
:1083700029F0E4FD12269E7B017A0479A390098EF0
:10838000E4F0A37409F0E4FD12269E900534740114
:10839000F012ABF912ACB9128FD412A45112A3553A
:1083A000129F41129DA9E4900BC9F090052DE05455
:1083B000FBF0E490045BF0900527E04401F09005A9
:1083C00030E04403F0900408E0FF7E007C037DE889
:1083D0001206FB7C017DF412070DE4FCFD900454B1
:1083E0001209199005327404F0900408E090044CCE
:1083F000F090044DF07B017A05792AE4FD7F0FFEB1
:10840000121F33EF6005E490052AF090052AE03052
:10841000E60790052DE04420F0E490077EF0A3F0FD
:108420007B017A077965FD7F11FE121F3390052AC3
:10843000E030E56D7B017A07797512387590078415
:10844000120919900784E0FCA3E0FDA3E0FEA3E07D
:10845000FFEC4D4E4F6037900780E0F8A3E0F9A3A2
:10846000E0FAA3E0FBC31208C6400F90077E740138
:10847000F090052AE030E4298021E490077EF0A303
:10848000F090052AE054DFF0E054EFF080139007FD
:108490007E7401F090052AE030E40690077F7401B5
:1084A000F07B017A077965123875900784120919F3
:1084B000900784E0FCA3E0FDA3E0FEA3E0FF9007AB
:1084C00080E0F8A3E0F9A3E0FAA3E0FBC31208C63A
:1084D0005002A1D990052EE04401F07B017A077982
:1084E00069123883900780120919900784E0FCA371
:1084F000E0FDA3E0FEA3E0FF900780E0F8A3E0F931
:10850000A3E0FAA3E0FBC31208C65002A1D0900575
:108510002EE020E104E04402F0E4FFFEFDFC9007C1
:1085200084E0F8A3E0F9A3E0FAA3E0FBC31208C6D5
:108530006002A1BA90052EE020E204E04404F07B42
:10854000017A057989123883900780120919E4FFAE
:10855000FEFDFC900780E0F8A3E0F9A3E0FAA3E0B9
:10856000FBC31208C6600D90052EE020E30DE04429
:1085700008F0800790052EE054F7F07B017A077928
:1085800071123883900784120919900784E0FCA3C4
:10859000E0FDA3E0FEA3E0FF900780E0F8A3E0F990
:1085A000A3E0FAA3E0FBC31208C690052AE0400549
:1085B0004420F0803254DFF0802D90052EE054F7F7
:1085C000F090052AE054DFF090052EE054FB800F78
:1085D00090052EE054E1F0800E90052EE054E0F07E
:1085E00090052AE054EFF090077EE0B40107900573
:1085F0002AE04420F090077FE0B4010790052AE0CC
:108600004410F090052AE030E504E04410F07B01CE
:108610007A05792AE4FD7F0FFE021A64900649EF7D
:10862000F0C007900645E0FCA3E0FDA3E0FEA3E058
:10863000FF90064C120919D007517F900649E0B40B
:108640003618900645E0FCA3E0FDA3E0FEA3E0FFA2
:1086500090064C1209197F36517FE490064AF0903B
:10866000064AE0FFC394055052EF75F005A424E3D9
:10867000F582E43418F583E493FF900649E0FEEFB9
:10868000B50630900645E0FCA3E0FDA3E0FEA3E0C4
:10869000FF90064AE025E025E02468F582E4340CEA
:1086A000F5831209197B017A0C7968E4FD7F06FED7
:1086B000021A6490064AE004F080A422E4FF024615
:1086C000C153A9DF75E755E4F5C675E755F5C775DC
:1086D000E75575C78475E75575B30175E755F5B46A
:1086E00012AC9EBF010312A06BE5C730E6037F0109
:1086F0002253A9DF7F0022900527E030E14EF15898
:10870000900527E030E20A12AF36900527E054FBCF
:10871000F0E4900608F07F0A7E00122E6C12AC9EE8
:10872000BF0109900527E04402F0F166E4F5B1903D
:108730000608E004F0E0C3940A40DB900527E0203F
:10874000E108E054FDF0E04401F0313A900527E003
:1087500020E204E04404F02212AF8712AF9612AF79
:10876000A37F010246C1F177F15812AF8412AF1511
:1087700012AF8512AF862290FFE0E054FDF0E05486
:10878000FBF0E054F7F0E0547FF090FFF0E054FD90
:10879000F0E054FBF0E054F7F0E0547FF05380FD3C
:1087A0005380FB5380F753807F90FF88E054FDF0A7
:1087B000E054FBF0E054F7F0E0547FF090FF8BE0E2
:1087C00054FDF0E054FBF0E054F7F0E0547FF090FB
:1087D000FF8EE054FDF0E054FBF0E054F7F0E0547D
:1087E0007FF090FFFAE054FDF0E054FBF0E054F726
:1087F000F0E0547FF090FFE1E054FEF0E054F7F039
:10880000E054EFF090FFF1E054FEF0E054F7F0E0B8
:1088100054EFF05390FE5390F75390EF90FFE2E047
:1088200054FBF0E054BFF0E0547FF090FFF2E054CE
:10883000FBF0E054BFF0E0547FF053A0FB53A0BF27
:1088400053A07F90FF89E054FBF0E054BFF0E05468
:108850007FF090FF8DE054FBF0E054BFF0E0547FD8
:10886000F090FF8FE054FBF0E054BFF0E0547FF055
:1088700090FFFBE054FBF0E054BFF0E0547FF09039
:10888000FFE3E054FEF0E054FDF0E054EFF0E0547C
:10889000DFF0E054BFF090FFF3E054FEF0E054FD51
:1088A000F0E054EFF0E054DFF0E054BFF053B0FEDE
:1088B00053B0FD43B01053B0DF53B0BF90FF8AE018
:1088C00054FEF0E054FDF0E054EFF0E054DFF0E04F
:1088D00054BFF090FFE4E054EFF0E054DFF0E054D8
:1088E000BFF0E0547FF090FFF4E054EFF0E054DF8D
:1088F000F0E054BFF0E0547FF053C0EF53C0DF53BB
:10890000C0BF53C07F90FFE5E054FEF0E054FDF09F
:10891000E054FBF0E054F7F0E054EFF0E054DFF007
:10892000E054BFF0E0547FF090FFF5E054FEF0E03B
:1089300054FDF0E054FBF0E054F7F0E054EFF0E0C9
:1089400054DFF0E054BFF0E0547FF053E9FE53E908
:10895000FD53E9FB53E9F753E9EF53E9DF53E9BF6F
:1089600053E97F90FFE6E054FDF0E054FBF0E05463
:10897000F7F0E054EFF0E054DFF0E054BFF0E054E3
:108980007FF090FFF6E054FDF0E054FBF0E054F788
:10899000F0E054EFF0E054DFF0E054BFF0E0547F3B
:1089A000F053EAFD53EAFB53EAF753EAEF53EADFE9
:1089B00053EABF53EA7F90FFE7E054FEF0E054FD36
:1089C000F0E054DFF090FFF7E054FEF0E054FDF0EB
:1089D000E054DFF053EBFE53EBFD53EBDF90FFE889
:1089E000E054BFF0E0547FF090FFF8E054BFF0E0B7
:1089F000547FF053ECBF53EC7F90FFE9E054FEF05E
:108A0000E054FDF0E054FBF0E054F7F0E054EFF0F8
:108A1000E054DFF0E054BFF0E0547FF090FFF9E065
:108A200054FEF0E054FDF0E054FBF0E054F7F0E0C9
:108A300054EFF0E054DFF0E054BFF0E0547FF05327
:108A4000EDFE53EDFD53EDFB53EDF753EDEF53ED1D
:108A5000DF53EDBF53ED7F22900628EFF0E4900640
:108A600037F0900628E0FF75F0A7A4248CF582E586
:108A7000F03401F583EF2583F583E0FFE4FCFDFE90
:108A8000900633120919900633E0F8A3E0F9A3E049
:108A9000FAA3E0FBC000900628E0FF75F0A7A4242D
:108AA0008DF582E5F03401F583EF2583F583E0FF52
:108AB000E4FCFDFE78081208EAD000EB4FFFEA4E16
:108AC000FEE94DFDE84CFC9006331209199006337F
:108AD000E0F8A3E0F9A3E0FAA3E0FBC000900628C9
:108AE000E0FF75F0A7A4248EF582E5F03401F5834C
:108AF000EF2583F583E0FFE4FCFDFE78101208EA21
:108B0000D000EB4FFFEA4EFEE94DFDE84CFC90062D
:108B100033120919900633E0F8A3E0F9A3E0FAA3B1
:108B2000E0FBC000900628E0FF75F0A7A4248FF5B5
:108B300082E5F03401F583EF2583F583E0FFE4FC63
:108B4000FDFE78181208EAD000EB4FFFEA4EFEE96E
:108B50004DFDE84CFC900633120919900628E0FD03
:108B600075F0A7A4248DF582E5F03401F583ED2599
:108B700083F583E0FF900629E4F0A3EFF0E07F00A7
:108B8000FE900629F0A3EFF075F0A7EDA4248CF574
:108B900082E5F03401F583ED2583F583E0FDEDFFFB
:108BA000900629EEF0A3EFF0900628E0FF75F0A7FD
:108BB000A4248AF582E5F03401F583EF2583F5835B
:108BC000E0642E6002817D900629E0FEA3E0FFD1E3
:108BD0001D90062B12091990062BA3A3A3E0FF906A
:108BE0000628E0FB75F0A7A42490F582E5F0340197
:108BF000F583EB2583F583EFF090062BE0FCA3E0F3
:108C0000FDA3E0FEA3E0FF78081208D775F0A7EBFC
:108C1000A42491F582E5F03401F583EB2583F583F7
:108C2000EFF090062BE0FCA3E0FDA3E0FEA3E0FF45
:108C300078101208D7900628E0FB75F0A7A42492BC
:108C4000F582E5F03401F583EB2583F583EFF090B1
:108C5000062BE0FCA3E0FDA3E0FEA3E0FF781812E2
:108C600008D775F0A7EBA42493F582E5F03401F55D
:108C700083EB2583F583EFF0E4900637F090062828
:108C8000E0FF75F0A7A4248AF582E5F03401F583AE
:108C9000EF2583F583E0642F6002C10875F0A7EF2C
:108CA000A4249BF582E5F03401F583EF2583F58359
:108CB000E0FFE4FCFDFE78181208EA90062F120986
:108CC0001990062FE0F8A3E0F9A3E0FAA3E0FBC0B7
:108CD00000900628E0FF75F0A7A4249AF582E5F03D
:108CE0003401F583EF2583F583E0FFE4FCFDFE7896
:108CF000101208EAD000EB4FFFEA4EFEE94DFDE806
:108D00004CFC90062F12091990062FE0F8A3E0F909
:108D1000A3E0FAA3E0FBC000900628E0FF75F0A7EF
:108D2000A42499F582E5F03401F583EF2583F583DA
:108D3000E0FFE4FCFDFE78081208EAD000EB4FFFEC
:108D4000EA4EFEE94DFDE84CFC90062F1209199001
:108D5000062FE0F8A3E0F9A3E0FAA3E0FB900628D1
:108D6000E0FF75F0A7A42498F582E5F03401F583BF
:108D7000EF2583F583E0FFEB4FFFEAFEE9FDE8FC1A
:108D800090062F120919900628E0FF75F0A7A42479
:108D90008EF582E5F03401F583EF2583F583E060FD
:108DA0002E14605414604824FB6003047054900631
:108DB0002FE0FCA3E0FDA3E0FEA3E0FF9006451238
